{
  "_format": "hh-sol-artifact-1",
  "contractName": "CloneFactory",
  "sourceName": "contracts/test/CloneFactory.sol",
  "abi": [
    {
      "anonymous": false,
      "inputs": [
        {
          "indexed": false,
          "internalType": "address",
          "name": "proxy",
          "type": "address"
        }
      ],
      "name": "Clone",
      "type": "event"
    },
    {
      "inputs": [
        {
          "internalType": "bytes32",
          "name": "c__0xf8923c9b",
          "type": "bytes32"
        }
      ],
      "name": "c_0xf8923c9b",
      "outputs": [],
      "stateMutability": "pure",
      "type": "function"
    },
    {
      "inputs": [
        {
          "internalType": "address",
          "name": "implementation",
          "type": "address"
        }
      ],
      "name": "clone",
      "outputs": [],
      "stateMutability": "nonpayable",
      "type": "function"
    }
  ],
  "bytecode": "0x608060405234801561001057600080fd5b506103ea806100206000396000f3fe608060405234801561001057600080fd5b50600436106100365760003560e01c80636b9e80a81461003b5780638124b78e14610057575b600080fd5b6100556004803603810190610050919061027a565b610073565b005b610071600480360381019061006c9190610251565b610076565b005b50565b6100a27f72c4545df07042802a85374d61e1a4144f9bc3e212cf744a3a208a88da2eabec60001b610073565b6100ce7f4d5fcb1690cd6942375d70914dd007ce8f03d931024e4621747691468d063dfc60001b610073565b6100fa7fa0ffc27237d96968e25142d0fc6f184d54d27786ea1849beba016f7465de717360001b610073565b7fba3a08245a874f4f0f86bdd3141d9d8c718cfda4fd6c4c5598e9d824ec4b723e61013a8273ffffffffffffffffffffffffffffffffffffffff16610152565b60405161014791906102d5565b60405180910390a150565b60006040517f3d602d80600a3d3981f3363d3d373d3d3d363d7300000000000000000000000081528260601b60148201527f5af43d82803e903d91602b57fd5bf3000000000000000000000000000000000060288201526037816000f0915050600073ffffffffffffffffffffffffffffffffffffffff168173ffffffffffffffffffffffffffffffffffffffff161415610222576040517f08c379a0000000000000000000000000000000000000000000000000000000008152600401610219906102f0565b60405180910390fd5b919050565b60008135905061023681610386565b92915050565b60008135905061024b8161039d565b92915050565b60006020828403121561026357600080fd5b600061027184828501610227565b91505092915050565b60006020828403121561028c57600080fd5b600061029a8482850161023c565b91505092915050565b6102ac81610321565b82525050565b60006102bf601683610310565b91506102ca8261035d565b602082019050919050565b60006020820190506102ea60008301846102a3565b92915050565b60006020820190508181036000830152610309816102b2565b9050919050565b600082825260208201905092915050565b600061032c8261033d565b9050919050565b6000819050919050565b600073ffffffffffffffffffffffffffffffffffffffff82169050919050565b7f455243313136373a20637265617465206661696c656400000000000000000000600082015250565b61038f81610321565b811461039a57600080fd5b50565b6103a681610333565b81146103b157600080fd5b5056fea264697066735822122007a044e5aa388b499cb9bcb90ce8b9d8975377a18efbad8511ffdc7d0f79e4e564736f6c63430008010033",
  "linkReferences": {},
  "deployedLinkReferences": {}
}