{
  "_format": "hh-sol-artifact-1",
  "contractName": "CloneFactory",
  "sourceName": "contracts/test/CloneFactory.sol",
  "abi": [
    {
      "anonymous": false,
      "inputs": [
        {
          "indexed": false,
          "internalType": "address",
          "name": "proxy",
          "type": "address"
        }
      ],
      "name": "Clone",
      "type": "event"
    },
    {
      "inputs": [
        {
          "internalType": "address",
          "name": "implementation",
          "type": "address"
        }
      ],
      "name": "clone",
      "outputs": [],
      "stateMutability": "nonpayable",
      "type": "function"
    }
  ],
  "bytecode": "0x608060405234801561001057600080fd5b50610221806100206000396000f3fe608060405234801561001057600080fd5b506004361061002b5760003560e01c80638124b78e14610030575b600080fd5b61004361003e366004610158565b610045565b005b7fba3a08245a874f4f0f86bdd3141d9d8c718cfda4fd6c4c5598e9d824ec4b723e6100858273ffffffffffffffffffffffffffffffffffffffff1661009d565b6040516100929190610193565b60405180910390a150565b60006040517f3d602d80600a3d3981f3363d3d373d3d3d363d7300000000000000000000000081528260601b60148201527f5af43d82803e903d91602b57fd5bf3000000000000000000000000000000000060288201526037816000f091505073ffffffffffffffffffffffffffffffffffffffff8116610153576040517f08c379a000000000000000000000000000000000000000000000000000000000815260040161014a906101b4565b60405180910390fd5b919050565b600060208284031215610169578081fd5b813573ffffffffffffffffffffffffffffffffffffffff8116811461018c578182fd5b9392505050565b73ffffffffffffffffffffffffffffffffffffffff91909116815260200190565b60208082526016908201527f455243313136373a20637265617465206661696c65640000000000000000000060408201526060019056fea2646970667358221220ff84f8d6190c77100d03ee0dff2d3d6a97663fc7d16e979dce7d023e44e683c664736f6c63430008010033",
  "linkReferences": {},
  "deployedLinkReferences": {}
}