{
  "_format": "hh-sol-artifact-1",
  "contractName": "SERC20",
  "sourceName": "contracts/core/SERC20.sol",
  "abi": [
    {
      "inputs": [],
      "stateMutability": "nonpayable",
      "type": "constructor"
    },
    {
      "anonymous": false,
      "inputs": [
        {
          "indexed": true,
          "internalType": "address",
          "name": "owner",
          "type": "address"
        },
        {
          "indexed": true,
          "internalType": "address",
          "name": "spender",
          "type": "address"
        },
        {
          "indexed": false,
          "internalType": "uint256",
          "name": "value",
          "type": "uint256"
        }
      ],
      "name": "Approval",
      "type": "event"
    },
    {
      "anonymous": false,
      "inputs": [
        {
          "indexed": false,
          "internalType": "address",
          "name": "account",
          "type": "address"
        }
      ],
      "name": "Paused",
      "type": "event"
    },
    {
      "anonymous": false,
      "inputs": [
        {
          "indexed": true,
          "internalType": "bytes32",
          "name": "role",
          "type": "bytes32"
        },
        {
          "indexed": true,
          "internalType": "bytes32",
          "name": "previousAdminRole",
          "type": "bytes32"
        },
        {
          "indexed": true,
          "internalType": "bytes32",
          "name": "newAdminRole",
          "type": "bytes32"
        }
      ],
      "name": "RoleAdminChanged",
      "type": "event"
    },
    {
      "anonymous": false,
      "inputs": [
        {
          "indexed": true,
          "internalType": "bytes32",
          "name": "role",
          "type": "bytes32"
        },
        {
          "indexed": true,
          "internalType": "address",
          "name": "account",
          "type": "address"
        },
        {
          "indexed": true,
          "internalType": "address",
          "name": "sender",
          "type": "address"
        }
      ],
      "name": "RoleGranted",
      "type": "event"
    },
    {
      "anonymous": false,
      "inputs": [
        {
          "indexed": true,
          "internalType": "bytes32",
          "name": "role",
          "type": "bytes32"
        },
        {
          "indexed": true,
          "internalType": "address",
          "name": "account",
          "type": "address"
        },
        {
          "indexed": true,
          "internalType": "address",
          "name": "sender",
          "type": "address"
        }
      ],
      "name": "RoleRevoked",
      "type": "event"
    },
    {
      "anonymous": false,
      "inputs": [
        {
          "indexed": false,
          "internalType": "uint256",
          "name": "id",
          "type": "uint256"
        }
      ],
      "name": "Snapshot",
      "type": "event"
    },
    {
      "anonymous": false,
      "inputs": [
        {
          "indexed": true,
          "internalType": "address",
          "name": "from",
          "type": "address"
        },
        {
          "indexed": true,
          "internalType": "address",
          "name": "to",
          "type": "address"
        },
        {
          "indexed": false,
          "internalType": "uint256",
          "name": "value",
          "type": "uint256"
        }
      ],
      "name": "Transfer",
      "type": "event"
    },
    {
      "anonymous": false,
      "inputs": [
        {
          "indexed": false,
          "internalType": "address",
          "name": "account",
          "type": "address"
        }
      ],
      "name": "Unpaused",
      "type": "event"
    },
    {
      "inputs": [],
      "name": "DEFAULT_ADMIN_ROLE",
      "outputs": [
        {
          "internalType": "bytes32",
          "name": "",
          "type": "bytes32"
        }
      ],
      "stateMutability": "view",
      "type": "function"
    },
    {
      "inputs": [],
      "name": "DOMAIN_SEPARATOR",
      "outputs": [
        {
          "internalType": "bytes32",
          "name": "",
          "type": "bytes32"
        }
      ],
      "stateMutability": "view",
      "type": "function"
    },
    {
      "inputs": [],
      "name": "MINTER_ADMIN_ROLE",
      "outputs": [
        {
          "internalType": "bytes32",
          "name": "",
          "type": "bytes32"
        }
      ],
      "stateMutability": "view",
      "type": "function"
    },
    {
      "inputs": [],
      "name": "MINTER_ROLE",
      "outputs": [
        {
          "internalType": "bytes32",
          "name": "",
          "type": "bytes32"
        }
      ],
      "stateMutability": "view",
      "type": "function"
    },
    {
      "inputs": [],
      "name": "PAUSER_ADMIN_ROLE",
      "outputs": [
        {
          "internalType": "bytes32",
          "name": "",
          "type": "bytes32"
        }
      ],
      "stateMutability": "view",
      "type": "function"
    },
    {
      "inputs": [],
      "name": "PAUSER_ROLE",
      "outputs": [
        {
          "internalType": "bytes32",
          "name": "",
          "type": "bytes32"
        }
      ],
      "stateMutability": "view",
      "type": "function"
    },
    {
      "inputs": [],
      "name": "SNAPSHOT_ADMIN_ROLE",
      "outputs": [
        {
          "internalType": "bytes32",
          "name": "",
          "type": "bytes32"
        }
      ],
      "stateMutability": "view",
      "type": "function"
    },
    {
      "inputs": [],
      "name": "SNAPSHOT_ROLE",
      "outputs": [
        {
          "internalType": "bytes32",
          "name": "",
          "type": "bytes32"
        }
      ],
      "stateMutability": "view",
      "type": "function"
    },
    {
      "inputs": [
        {
          "internalType": "address",
          "name": "owner",
          "type": "address"
        },
        {
          "internalType": "address",
          "name": "spender",
          "type": "address"
        }
      ],
      "name": "allowance",
      "outputs": [
        {
          "internalType": "uint256",
          "name": "",
          "type": "uint256"
        }
      ],
      "stateMutability": "view",
      "type": "function"
    },
    {
      "inputs": [
        {
          "internalType": "address",
          "name": "spender",
          "type": "address"
        },
        {
          "internalType": "uint256",
          "name": "amount",
          "type": "uint256"
        }
      ],
      "name": "approve",
      "outputs": [
        {
          "internalType": "bool",
          "name": "",
          "type": "bool"
        }
      ],
      "stateMutability": "nonpayable",
      "type": "function"
    },
    {
      "inputs": [
        {
          "internalType": "address",
          "name": "account",
          "type": "address"
        }
      ],
      "name": "balanceOf",
      "outputs": [
        {
          "internalType": "uint256",
          "name": "",
          "type": "uint256"
        }
      ],
      "stateMutability": "view",
      "type": "function"
    },
    {
      "inputs": [
        {
          "internalType": "address",
          "name": "account",
          "type": "address"
        },
        {
          "internalType": "uint256",
          "name": "snapshotId",
          "type": "uint256"
        }
      ],
      "name": "balanceOfAt",
      "outputs": [
        {
          "internalType": "uint256",
          "name": "",
          "type": "uint256"
        }
      ],
      "stateMutability": "view",
      "type": "function"
    },
    {
      "inputs": [
        {
          "internalType": "uint256",
          "name": "amount",
          "type": "uint256"
        }
      ],
      "name": "burn",
      "outputs": [],
      "stateMutability": "nonpayable",
      "type": "function"
    },
    {
      "inputs": [
        {
          "internalType": "address",
          "name": "account",
          "type": "address"
        },
        {
          "internalType": "uint256",
          "name": "amount",
          "type": "uint256"
        }
      ],
      "name": "burnFrom",
      "outputs": [],
      "stateMutability": "nonpayable",
      "type": "function"
    },
    {
      "inputs": [],
      "name": "cap",
      "outputs": [
        {
          "internalType": "uint256",
          "name": "",
          "type": "uint256"
        }
      ],
      "stateMutability": "view",
      "type": "function"
    },
    {
      "inputs": [],
      "name": "decimals",
      "outputs": [
        {
          "internalType": "uint8",
          "name": "",
          "type": "uint8"
        }
      ],
      "stateMutability": "view",
      "type": "function"
    },
    {
      "inputs": [
        {
          "internalType": "address",
          "name": "spender",
          "type": "address"
        },
        {
          "internalType": "uint256",
          "name": "subtractedValue",
          "type": "uint256"
        }
      ],
      "name": "decreaseAllowance",
      "outputs": [
        {
          "internalType": "bool",
          "name": "",
          "type": "bool"
        }
      ],
      "stateMutability": "nonpayable",
      "type": "function"
    },
    {
      "inputs": [
        {
          "internalType": "bytes32",
          "name": "role",
          "type": "bytes32"
        }
      ],
      "name": "getRoleAdmin",
      "outputs": [
        {
          "internalType": "bytes32",
          "name": "",
          "type": "bytes32"
        }
      ],
      "stateMutability": "view",
      "type": "function"
    },
    {
      "inputs": [
        {
          "internalType": "bytes32",
          "name": "role",
          "type": "bytes32"
        },
        {
          "internalType": "address",
          "name": "account",
          "type": "address"
        }
      ],
      "name": "grantRole",
      "outputs": [],
      "stateMutability": "nonpayable",
      "type": "function"
    },
    {
      "inputs": [
        {
          "internalType": "bytes32",
          "name": "role",
          "type": "bytes32"
        },
        {
          "internalType": "address",
          "name": "account",
          "type": "address"
        }
      ],
      "name": "hasRole",
      "outputs": [
        {
          "internalType": "bool",
          "name": "",
          "type": "bool"
        }
      ],
      "stateMutability": "view",
      "type": "function"
    },
    {
      "inputs": [
        {
          "internalType": "address",
          "name": "spender",
          "type": "address"
        },
        {
          "internalType": "uint256",
          "name": "addedValue",
          "type": "uint256"
        }
      ],
      "name": "increaseAllowance",
      "outputs": [
        {
          "internalType": "bool",
          "name": "",
          "type": "bool"
        }
      ],
      "stateMutability": "nonpayable",
      "type": "function"
    },
    {
      "inputs": [
        {
          "internalType": "string",
          "name": "name_",
          "type": "string"
        },
        {
          "internalType": "string",
          "name": "symbol_",
          "type": "string"
        },
        {
          "internalType": "uint256",
          "name": "cap_",
          "type": "uint256"
        },
        {
          "internalType": "address",
          "name": "admin",
          "type": "address"
        }
      ],
      "name": "initialize",
      "outputs": [],
      "stateMutability": "nonpayable",
      "type": "function"
    },
    {
      "inputs": [
        {
          "internalType": "address",
          "name": "to",
          "type": "address"
        },
        {
          "internalType": "uint256",
          "name": "amount",
          "type": "uint256"
        }
      ],
      "name": "mint",
      "outputs": [],
      "stateMutability": "nonpayable",
      "type": "function"
    },
    {
      "inputs": [],
      "name": "name",
      "outputs": [
        {
          "internalType": "string",
          "name": "",
          "type": "string"
        }
      ],
      "stateMutability": "view",
      "type": "function"
    },
    {
      "inputs": [
        {
          "internalType": "address",
          "name": "owner",
          "type": "address"
        }
      ],
      "name": "nonces",
      "outputs": [
        {
          "internalType": "uint256",
          "name": "",
          "type": "uint256"
        }
      ],
      "stateMutability": "view",
      "type": "function"
    },
    {
      "inputs": [
        {
          "internalType": "address",
          "name": "from",
          "type": "address"
        },
        {
          "internalType": "address",
          "name": "to",
          "type": "address"
        },
        {
          "internalType": "uint256",
          "name": "amount",
          "type": "uint256"
        }
      ],
      "name": "onSERC1155Transferred",
      "outputs": [],
      "stateMutability": "nonpayable",
      "type": "function"
    },
    {
      "inputs": [],
      "name": "pause",
      "outputs": [],
      "stateMutability": "nonpayable",
      "type": "function"
    },
    {
      "inputs": [],
      "name": "paused",
      "outputs": [
        {
          "internalType": "bool",
          "name": "",
          "type": "bool"
        }
      ],
      "stateMutability": "view",
      "type": "function"
    },
    {
      "inputs": [
        {
          "internalType": "address",
          "name": "owner",
          "type": "address"
        },
        {
          "internalType": "address",
          "name": "spender",
          "type": "address"
        },
        {
          "internalType": "uint256",
          "name": "value",
          "type": "uint256"
        },
        {
          "internalType": "uint256",
          "name": "deadline",
          "type": "uint256"
        },
        {
          "internalType": "uint8",
          "name": "v",
          "type": "uint8"
        },
        {
          "internalType": "bytes32",
          "name": "r",
          "type": "bytes32"
        },
        {
          "internalType": "bytes32",
          "name": "s",
          "type": "bytes32"
        }
      ],
      "name": "permit",
      "outputs": [],
      "stateMutability": "nonpayable",
      "type": "function"
    },
    {
      "inputs": [
        {
          "internalType": "bytes32",
          "name": "role",
          "type": "bytes32"
        },
        {
          "internalType": "address",
          "name": "account",
          "type": "address"
        }
      ],
      "name": "renounceRole",
      "outputs": [],
      "stateMutability": "nonpayable",
      "type": "function"
    },
    {
      "inputs": [
        {
          "internalType": "bytes32",
          "name": "role",
          "type": "bytes32"
        },
        {
          "internalType": "address",
          "name": "account",
          "type": "address"
        }
      ],
      "name": "revokeRole",
      "outputs": [],
      "stateMutability": "nonpayable",
      "type": "function"
    },
    {
      "inputs": [],
      "name": "sERC1155",
      "outputs": [
        {
          "internalType": "address",
          "name": "",
          "type": "address"
        }
      ],
      "stateMutability": "view",
      "type": "function"
    },
    {
      "inputs": [
        {
          "internalType": "bytes32",
          "name": "role",
          "type": "bytes32"
        },
        {
          "internalType": "bytes32",
          "name": "adminRole",
          "type": "bytes32"
        }
      ],
      "name": "setRoleAdmin",
      "outputs": [],
      "stateMutability": "nonpayable",
      "type": "function"
    },
    {
      "inputs": [],
      "name": "snapshot",
      "outputs": [
        {
          "internalType": "uint256",
          "name": "",
          "type": "uint256"
        }
      ],
      "stateMutability": "nonpayable",
      "type": "function"
    },
    {
      "inputs": [
        {
          "internalType": "bytes4",
          "name": "interfaceId",
          "type": "bytes4"
        }
      ],
      "name": "supportsInterface",
      "outputs": [
        {
          "internalType": "bool",
          "name": "",
          "type": "bool"
        }
      ],
      "stateMutability": "view",
      "type": "function"
    },
    {
      "inputs": [],
      "name": "symbol",
      "outputs": [
        {
          "internalType": "string",
          "name": "",
          "type": "string"
        }
      ],
      "stateMutability": "view",
      "type": "function"
    },
    {
      "inputs": [],
      "name": "totalSupply",
      "outputs": [
        {
          "internalType": "uint256",
          "name": "",
          "type": "uint256"
        }
      ],
      "stateMutability": "view",
      "type": "function"
    },
    {
      "inputs": [
        {
          "internalType": "uint256",
          "name": "snapshotId",
          "type": "uint256"
        }
      ],
      "name": "totalSupplyAt",
      "outputs": [
        {
          "internalType": "uint256",
          "name": "",
          "type": "uint256"
        }
      ],
      "stateMutability": "view",
      "type": "function"
    },
    {
      "inputs": [
        {
          "internalType": "address",
          "name": "recipient",
          "type": "address"
        },
        {
          "internalType": "uint256",
          "name": "amount",
          "type": "uint256"
        }
      ],
      "name": "transfer",
      "outputs": [
        {
          "internalType": "bool",
          "name": "",
          "type": "bool"
        }
      ],
      "stateMutability": "nonpayable",
      "type": "function"
    },
    {
      "inputs": [
        {
          "internalType": "address",
          "name": "sender",
          "type": "address"
        },
        {
          "internalType": "address",
          "name": "recipient",
          "type": "address"
        },
        {
          "internalType": "uint256",
          "name": "amount",
          "type": "uint256"
        }
      ],
      "name": "transferFrom",
      "outputs": [
        {
          "internalType": "bool",
          "name": "",
          "type": "bool"
        }
      ],
      "stateMutability": "nonpayable",
      "type": "function"
    },
    {
      "inputs": [],
      "name": "unpause",
      "outputs": [],
      "stateMutability": "nonpayable",
      "type": "function"
    }
  ],
  "bytecode": "0x60806040523480156200001157600080fd5b50600054610100900460ff16806200002c575060005460ff16155b620000545760405162461bcd60e51b81526004016200004b906200009a565b60405180910390fd5b600054610100900460ff1615801562000080576000805460ff1961ff0019909116610100171660011790555b801562000093576000805461ff00191690555b50620000e8565b6020808252602e908201527f496e697469616c697a61626c653a20636f6e747261637420697320616c72656160408201526d191e481a5b9a5d1a585b1a5e995960921b606082015260800190565b61331b80620000f86000396000f3fe608060405234801561001057600080fd5b50600436106102d35760003560e01c80635c975abb11610186578063981b24d0116100e3578063be06547811610097578063d547741f11610071578063d547741f1461053b578063dd62ed3e1461054e578063e63ab1e914610561576102d3565b8063be0654781461050d578063d505accf14610520578063d539139314610533576102d3565b8063a457c2d7116100c8578063a457c2d7146104d4578063a9059cbb146104e7578063bd3a13f6146104fa576102d3565b8063981b24d0146104b9578063a217fddf146104cc576102d3565b80638456cb591161013a57806393a1c14c1161011f57806393a1c14c1461049457806395d89b41146104a95780639711715a146104b1576102d3565b80638456cb591461047957806391d1485414610481576102d3565b806370a082311161016b57806370a082311461044057806379cc6790146104535780637ecebe0014610466576102d3565b80635c975abb146104305780637028e2cd14610438576102d3565b80632f2ff15d1161023457806339509351116101e857806340c10f19116101cd57806340c10f19146103f757806342966c681461040a5780634ee2cd7e1461041d576102d3565b806339509351146103dc5780633f4ba83a146103ef576102d3565b8063355274ea11610219578063355274ea146103b95780633644e515146103c157806336568abe146103c9576102d3565b80632f2ff15d14610391578063313ce567146103a4576102d3565b806318160ddd1161028b57806323b872dd1161027057806323b872dd14610363578063248a9ca31461037657806325a0047314610389576102d3565b806318160ddd146103465780631e4e00911461034e576102d3565b806308d30358116102bc57806308d3035814610316578063095ea7b31461032b5780631339324b1461033e576102d3565b806301ffc9a7146102d857806306fdde0314610301575b600080fd5b6102eb6102e6366004612574565b610569565b6040516102f8919061269d565b60405180910390f35b6103096105c7565b6040516102f8919061272f565b61031e610659565b6040516102f891906126a8565b6102eb6103393660046124f0565b61067d565b61031e61069b565b61031e6106bf565b61036161035c366004612553565b6106c5565b005b6102eb610371366004612444565b61070c565b61031e610384366004612519565b6107a3565b61031e6107b8565b61036161039f366004612531565b6107dc565b6103ac61080e565b6040516102f89190613203565b61031e610813565b61031e610819565b6103616103d7366004612531565b610828565b6102eb6103ea3660046124f0565b61086a565b6103616108b9565b6103616104053660046124f0565b61090b565b610361610418366004612519565b61095d565b61031e61042b3660046124f0565b610971565b6102eb6109bb565b61031e6109c5565b61031e61044e3660046123f8565b6109e9565b6103616104613660046124f0565b610a04565b61031e6104743660046123f8565b610a59565b610361610a7b565b6102eb61048f366004612531565b610acb565b61049c610af6565b6040516102f89190612665565b610309610b06565b61031e610b15565b61031e6104c7366004612519565b610b67565b61031e610b98565b6102eb6104e23660046124f0565b610b9d565b6102eb6104f53660046124f0565b610c18565b6103616105083660046125b4565b610c2c565b61036161051b366004612444565b610d35565b61036161052e36600461247f565b610de9565b61031e610ef5565b610361610549366004612531565b610f19565b61031e61055c366004612412565b610f41565b61031e610f6c565b60007fffffffff0000000000000000000000000000000000000000000000000000000082167f7965db0b0000000000000000000000000000000000000000000000000000000014806105bf57506105bf82610f90565b90505b919050565b6060609a80546105d690613254565b80601f016020809104026020016040519081016040528092919081815260200182805461060290613254565b801561064f5780601f106106245761010080835404028352916020019161064f565b820191906000526020600020905b81548152906001019060200180831161063257829003601f168201915b5050505050905090565b7ffe5742a97f67927ccdc68d79d4296dd68bd43067e2b5296b1b0b8ff67b30f44281565b600061069161068a610fda565b8484610fde565b5060015b92915050565b7f70480ee89cb38eff00b7d23da25713d52ce19c6ed428691d22c58b2f615e3d6781565b60995490565b6106d96106d1836107a3565b61048f610fda565b6106fe5760405162461bcd60e51b81526004016106f5906129d2565b60405180910390fd5b6107088282611092565b5050565b60006107198484846110dc565b6001600160a01b03841660009081526098602052604081208161073a610fda565b6001600160a01b03166001600160a01b031681526020019081526020016000205490508281101561077d5760405162461bcd60e51b81526004016106f590612d5f565b61079885610789610fda565b610793868561323d565b610fde565b506001949350505050565b60009081526065602052604090206001015490565b7fe0e65c783ac33ff1c5ccf4399c9185066773921d6f8d050bf80781603021f09781565b6107e86106d1836107a3565b6108045760405162461bcd60e51b81526004016106f590612884565b6107088282611204565b601290565b60c95490565b600061082361128b565b905090565b610830610fda565b6001600160a01b0316816001600160a01b0316146108605760405162461bcd60e51b81526004016106f590613112565b61070882826112c6565b6000610691610877610fda565b848460986000610885610fda565b6001600160a01b03908116825260208083019390935260409182016000908120918b16815292529020546107939190613211565b6108e57f65d7a28e3265b37a6474929f336521b332c1681b933f6cb9f3376673440d862a61048f610fda565b6109015760405162461bcd60e51b81526004016106f590612f8d565b61090961134b565b565b6109377f9f2df0fed2c77648de5860a4cc508cd0818c85b8b8a1ab4ceeef8d981c8956a661048f610fda565b6109535760405162461bcd60e51b81526004016106f590612c11565b61070882826113ba565b61096e610968610fda565b826113c4565b50565b6001600160a01b038216600090815261019260205260408120819081906109999085906114aa565b91509150816109b0576109ab856109e9565b6109b2565b805b95945050505050565b61012e5460ff1690565b7f5fdbd35e8da83ee755d5e62a539e5ed7f47126abede0b8b10f9ea43dc6eed07f81565b6001600160a01b031660009081526097602052604090205490565b6000610a128361055c610fda565b905081811015610a345760405162461bcd60e51b81526004016106f590612e19565b610a4a83610a40610fda565b610793858561323d565b610a5483836113c4565b505050565b6001600160a01b03811660009081526101f8602052604081206105bf90611559565b610aa77f65d7a28e3265b37a6474929f336521b332c1681b933f6cb9f3376673440d862a61048f610fda565b610ac35760405162461bcd60e51b81526004016106f590612dbc565b61090961155d565b60009182526065602090815260408084206001600160a01b0393909316845291905290205460ff1690565b61022b546001600160a01b031690565b6060609b80546105d690613254565b6000610b437f5fdbd35e8da83ee755d5e62a539e5ed7f47126abede0b8b10f9ea43dc6eed07f61048f610fda565b610b5f5760405162461bcd60e51b81526004016106f590612ccb565b6108236115b9565b6000806000610b78846101936114aa565b9150915081610b8e57610b896106bf565b610b90565b805b949350505050565b600081565b60008060986000610bac610fda565b6001600160a01b0390811682526020808301939093526040918201600090812091881681529252902054905082811015610bf85760405162461bcd60e51b81526004016106f5906130b5565b610c0e610c03610fda565b85610793868561323d565b5060019392505050565b6000610691610c25610fda565b84846110dc565b600054610100900460ff1680610c45575060005460ff16155b610c615760405162461bcd60e51b81526004016106f590612bb4565b600054610100900460ff16158015610c8c576000805460ff1961ff0019909116610100171660011790555b610c94611611565b610c9c61168d565b610ca685856116fd565b610caf83611785565b610cb761180b565b610cbf611872565b610cc761180b565b610cd0856118e2565b610cd8610fda565b61022b80547fffffffffffffffffffffffff0000000000000000000000000000000000000000166001600160a01b0392909216919091179055610d1c600083610804565b8015610d2e576000805461ff00191690555b5050505050565b61022b546001600160a01b0316610d4a610fda565b6001600160a01b031614610d705760405162461bcd60e51b81526004016106f590612f30565b61022b80547fffffffffffffffffffffff00ffffffffffffffffffffffffffffffffffffffff1674010000000000000000000000000000000000000000179055610dbb8383836110dc565b505061022b80547fffffffffffffffffffffff00ffffffffffffffffffffffffffffffffffffffff16905550565b83421115610e095760405162461bcd60e51b81526004016106f590612a2f565b60006101f954888888610e406101f860008e6001600160a01b03166001600160a01b03168152602001908152602001600020611559565b89604051602001610e56969594939291906126b1565b6040516020818303038152906040528051906020012090506000610e7982611992565b90506000610e89828787876119a5565b9050896001600160a01b0316816001600160a01b031614610ebc5760405162461bcd60e51b81526004016106f590612d28565b6001600160a01b038a1660009081526101f860205260409020610ede90611a92565b610ee98a8a8a610fde565b50505050505050505050565b7f9f2df0fed2c77648de5860a4cc508cd0818c85b8b8a1ab4ceeef8d981c8956a681565b610f256106d1836107a3565b6108605760405162461bcd60e51b81526004016106f590612b20565b6001600160a01b03918216600090815260986020908152604080832093909416825291909152205490565b7f65d7a28e3265b37a6474929f336521b332c1681b933f6cb9f3376673440d862a81565b7fffffffff0000000000000000000000000000000000000000000000000000000081167f01ffc9a70000000000000000000000000000000000000000000000000000000014919050565b3390565b6001600160a01b0383166110045760405162461bcd60e51b81526004016106f590613021565b6001600160a01b03821661102a5760405162461bcd60e51b81526004016106f590612975565b6001600160a01b0380841660008181526098602090815260408083209487168084529490915290819020849055517f8c5be1e5ebec7d5bd14f71427d1e84f3dd0314c0f7b2291e5b200ac8c7c3b925906110859085906126a8565b60405180910390a3505050565b8061109c836107a3565b60405184907fbd79b86ffe0ab8e8776151514217cd7cacd52c909f66475c3af44e129f0b00ff90600090a460009182526065602052604090912060010155565b6001600160a01b0383166111025760405162461bcd60e51b81526004016106f590612ed3565b6001600160a01b0382166111285760405162461bcd60e51b81526004016106f5906127f0565b611133838383611a9b565b6001600160a01b0383166000908152609760205260409020548181101561116c5760405162461bcd60e51b81526004016106f590612a66565b611176828261323d565b6001600160a01b0380861660009081526097602052604080822093909355908516815290812080548492906111ac908490613211565b92505081905550826001600160a01b0316846001600160a01b03167fddf252ad1be2c89b69c2b068fc378daa952ba7f163c4a11628f55a4df523b3ef846040516111f691906126a8565b60405180910390a350505050565b61120e8282610acb565b6107085760008281526065602090815260408083206001600160a01b03851684529091529020805460ff19166001179055611247610fda565b6001600160a01b0316816001600160a01b0316837f2f8788117e7eff1d82e926ec794901d17c78024a50270940304540a733656f0d60405160405180910390a45050565b60006108237f8b73c3c69bb8fe3d512ecc4cf759cc79239f7b179b0ffacaa9a75d522b39400f6112b9611b4e565b6112c1611b55565b611b5c565b6112d08282610acb565b156107085760008281526065602090815260408083206001600160a01b03851684529091529020805460ff19169055611307610fda565b6001600160a01b0316816001600160a01b0316837ff6391f5c32d9c69d2a47ea670b442974b53935d1edc7fd64eb21e047a839171b60405160405180910390a45050565b6113536109bb565b61136f5760405162461bcd60e51b81526004016106f5906128e1565b61012e805460ff191690557f5db9ee0a495bf2e6ff9c91a7834c1ba4fdd244a5e8aa4e537bd38aeae4b073aa6113a3610fda565b6040516113b09190612665565b60405180910390a1565b6107088282611b96565b6001600160a01b0382166113ea5760405162461bcd60e51b81526004016106f590612e76565b6113f682600083611a9b565b6001600160a01b0382166000908152609760205260409020548181101561142f5760405162461bcd60e51b81526004016106f590612918565b611439828261323d565b6001600160a01b0384166000908152609760205260408120919091556099805484929061146790849061323d565b90915550506040516000906001600160a01b038516907fddf252ad1be2c89b69c2b068fc378daa952ba7f163c4a11628f55a4df523b3ef906110859086906126a8565b600080600084116114cd5760405162461bcd60e51b81526004016106f59061307e565b6114d8610195611559565b8411156114f75760405162461bcd60e51b81526004016106f5906127b9565b60006115038486611bd9565b845490915081141561151c576000809250925050611552565b600184600101828154811061154157634e487b7160e01b600052603260045260246000fd5b906000526020600020015492509250505b9250929050565b5490565b6115656109bb565b156115825760405162461bcd60e51b81526004016106f590612b7d565b61012e805460ff191660011790557f62e78cea01bee320cd4e420270b5ea74000d11b0c9f74754ebdbfc544b05a2586113a3610fda565b60006115c6610195611a92565b60006115d3610195611559565b90507f8030e83b04d87bef53480e26263266d6ca66863aa8506aca6f2559d18aa1cb678160405161160491906126a8565b60405180910390a1905090565b600054610100900460ff168061162a575060005460ff16155b6116465760405162461bcd60e51b81526004016106f590612bb4565b600054610100900460ff16158015611671576000805460ff1961ff0019909116610100171660011790555b611679611cb8565b801561096e576000805461ff001916905550565b600054610100900460ff16806116a6575060005460ff16155b6116c25760405162461bcd60e51b81526004016106f590612bb4565b600054610100900460ff161580156116ed576000805460ff1961ff0019909116610100171660011790555b6116f5611cb8565b611671611cb8565b600054610100900460ff1680611716575060005460ff16155b6117325760405162461bcd60e51b81526004016106f590612bb4565b600054610100900460ff1615801561175d576000805460ff1961ff0019909116610100171660011790555b611765611cb8565b61176f8383611d2b565b8015610a54576000805461ff0019169055505050565b600054610100900460ff168061179e575060005460ff16155b6117ba5760405162461bcd60e51b81526004016106f590612bb4565b600054610100900460ff161580156117e5576000805460ff1961ff0019909116610100171660011790555b6117ed611cb8565b6117f682611dc9565b8015610708576000805461ff00191690555050565b600054610100900460ff1680611824575060005460ff16155b6118405760405162461bcd60e51b81526004016106f590612bb4565b600054610100900460ff161580156116f5576000805460ff1961ff001990911661010017166001179055611671611cb8565b600054610100900460ff168061188b575060005460ff16155b6118a75760405162461bcd60e51b81526004016106f590612bb4565b600054610100900460ff161580156118d2576000805460ff1961ff0019909116610100171660011790555b6118da611cb8565b611671611e63565b600054610100900460ff16806118fb575060005460ff16155b6119175760405162461bcd60e51b81526004016106f590612bb4565b600054610100900460ff16158015611942576000805460ff1961ff0019909116610100171660011790555b61194a611cb8565b611989826040518060400160405280600181526020017f3100000000000000000000000000000000000000000000000000000000000000815250611ee2565b6117f682611f77565b60006105bf61199f61128b565b83612011565b60007f7fffffffffffffffffffffffffffffff5d576e7357a4501ddfe92f46681b20a08211156119e75760405162461bcd60e51b81526004016106f590612ac3565b8360ff16601b14806119fc57508360ff16601c145b611a185760405162461bcd60e51b81526004016106f590612c6e565b600060018686868660405160008152602001604052604051611a3d9493929190612711565b6020604051602081039080840390855afa158015611a5f573d6000803e3d6000fd5b5050604051601f1901519150506001600160a01b0381166109b25760405162461bcd60e51b81526004016106f590612782565b80546001019055565b611aa6838383612044565b61022b5474010000000000000000000000000000000000000000900460ff16610a545761022b546040517f7c0a07fa0000000000000000000000000000000000000000000000000000000081526001600160a01b0390911690637c0a07fa90611b1790869086908690600401612679565b600060405180830381600087803b158015611b3157600080fd5b505af1158015611b45573d6000803e3d6000fd5b50505050505050565b6101c45490565b6101c55490565b60008383834630604051602001611b779594939291906126e5565b6040516020818303038152906040528051906020012090509392505050565b611b9e610813565b81611ba76106bf565b611bb19190613211565b1115611bcf5760405162461bcd60e51b81526004016106f590612fea565b610708828261209c565b8154600090611bea57506000610695565b82546000905b80821015611c54576000611c04838361215c565b905084868281548110611c2757634e487b7160e01b600052603260045260246000fd5b90600052602060002001541115611c4057809150611c4e565b611c4b816001613211565b92505b50611bf0565b600082118015611c9757508385611c6c60018561323d565b81548110611c8a57634e487b7160e01b600052603260045260246000fd5b9060005260206000200154145b15611cb057611ca760018361323d565b92505050610695565b509050610695565b600054610100900460ff1680611cd1575060005460ff16155b611ced5760405162461bcd60e51b81526004016106f590612bb4565b600054610100900460ff16158015611679576000805460ff1961ff001990911661010017166001179055801561096e576000805461ff001916905550565b600054610100900460ff1680611d44575060005460ff16155b611d605760405162461bcd60e51b81526004016106f590612bb4565b600054610100900460ff16158015611d8b576000805460ff1961ff0019909116610100171660011790555b8251611d9e90609a9060208601906122c1565b508151611db290609b9060208501906122c1565b508015610a54576000805461ff0019169055505050565b600054610100900460ff1680611de2575060005460ff16155b611dfe5760405162461bcd60e51b81526004016106f590612bb4565b600054610100900460ff16158015611e29576000805460ff1961ff0019909116610100171660011790555b60008211611e495760405162461bcd60e51b81526004016106f59061284d565b60c98290558015610708576000805461ff00191690555050565b600054610100900460ff1680611e7c575060005460ff16155b611e985760405162461bcd60e51b81526004016106f590612bb4565b600054610100900460ff16158015611ec3576000805460ff1961ff0019909116610100171660011790555b61012e805460ff19169055801561096e576000805461ff001916905550565b600054610100900460ff1680611efb575060005460ff16155b611f175760405162461bcd60e51b81526004016106f590612bb4565b600054610100900460ff16158015611f42576000805460ff1961ff0019909116610100171660011790555b82516020808501919091208351918401919091206101c4919091556101c5558015610a54576000805461ff0019169055505050565b600054610100900460ff1680611f90575060005460ff16155b611fac5760405162461bcd60e51b81526004016106f590612bb4565b600054610100900460ff16158015611fd7576000805460ff1961ff0019909116610100171660011790555b7f6e71edae12b1b97f4d1f60370fef10105fa2faae0126114a169c64845d6126c96101f9558015610708576000805461ff00191690555050565b6000828260405160200161202692919061262f565b60405160208183030381529060405280519060200120905092915050565b61204f8383836121ba565b6001600160a01b03831661207357612066826121ea565b61206e612215565b610a54565b6001600160a01b03821661208a57612066836121ea565b612093836121ea565b610a54826121ea565b6001600160a01b0382166120c25760405162461bcd60e51b81526004016106f59061316f565b6120ce60008383611a9b565b80609960008282546120e09190613211565b90915550506001600160a01b0382166000908152609760205260408120805483929061210d908490613211565b90915550506040516001600160a01b038316906000907fddf252ad1be2c89b69c2b068fc378daa952ba7f163c4a11628f55a4df523b3ef906121509085906126a8565b60405180910390a35050565b6000600261216a818461328f565b61217560028661328f565b61217f9190613211565b6121899190613229565b612194600284613229565b61219f600286613229565b6121a99190613211565b6121b39190613211565b9392505050565b6121c5838383610a54565b6121cd6109bb565b15610a545760405162461bcd60e51b81526004016106f5906131a6565b6001600160a01b03811660009081526101926020526040902061096e90612210836109e9565b612223565b6109096101936122106106bf565b6000612230610195611559565b90508061223c84612270565b1015610a54578254600180820185556000858152602080822090930193909355938401805494850181558252902090910155565b8054600090612281575060006105c2565b815482906122919060019061323d565b815481106122af57634e487b7160e01b600052603260045260246000fd5b906000526020600020015490506105c2565b8280546122cd90613254565b90600052602060002090601f0160209004810192826122ef5760008555612335565b82601f1061230857805160ff1916838001178555612335565b82800160010185558215612335579182015b8281111561233557825182559160200191906001019061231a565b50612341929150612345565b5090565b5b808211156123415760008155600101612346565b80356001600160a01b03811681146105c257600080fd5b600082601f830112612381578081fd5b813567ffffffffffffffff8082111561239c5761239c6132cf565b604051601f8301601f19908116603f011681019082821181831017156123c4576123c46132cf565b816040528381528660208588010111156123dc578485fd5b8360208701602083013792830160200193909352509392505050565b600060208284031215612409578081fd5b6121b38261235a565b60008060408385031215612424578081fd5b61242d8361235a565b915061243b6020840161235a565b90509250929050565b600080600060608486031215612458578081fd5b6124618461235a565b925061246f6020850161235a565b9150604084013590509250925092565b600080600080600080600060e0888a031215612499578283fd5b6124a28861235a565b96506124b06020890161235a565b95506040880135945060608801359350608088013560ff811681146124d3578384fd5b9699959850939692959460a0840135945060c09093013592915050565b60008060408385031215612502578182fd5b61250b8361235a565b946020939093013593505050565b60006020828403121561252a578081fd5b5035919050565b60008060408385031215612543578182fd5b8235915061243b6020840161235a565b60008060408385031215612565578182fd5b50508035926020909101359150565b600060208284031215612585578081fd5b81357fffffffff00000000000000000000000000000000000000000000000000000000811681146121b3578182fd5b600080600080608085870312156125c9578384fd5b843567ffffffffffffffff808211156125e0578586fd5b6125ec88838901612371565b95506020870135915080821115612601578485fd5b5061260e87828801612371565b935050604085013591506126246060860161235a565b905092959194509250565b7f190100000000000000000000000000000000000000000000000000000000000081526002810192909252602282015260420190565b6001600160a01b0391909116815260200190565b6001600160a01b039384168152919092166020820152604081019190915260600190565b901515815260200190565b90815260200190565b9586526001600160a01b0394851660208701529290931660408501526060840152608083019190915260a082015260c00190565b9485526020850193909352604084019190915260608301526001600160a01b0316608082015260a00190565b93845260ff9290921660208401526040830152606082015260800190565b6000602080835283518082850152825b8181101561275b5785810183015185820160400152820161273f565b8181111561276c5783604083870101525b50601f01601f1916929092016040019392505050565b60208082526018908201527f45434453413a20696e76616c6964207369676e61747572650000000000000000604082015260600190565b6020808252601d908201527f4552433230536e617073686f743a206e6f6e6578697374656e74206964000000604082015260600190565b60208082526023908201527f45524332303a207472616e7366657220746f20746865207a65726f206164647260408201527f6573730000000000000000000000000000000000000000000000000000000000606082015260800190565b60208082526015908201527f45524332304361707065643a2063617020697320300000000000000000000000604082015260600190565b6020808252602f908201527f416363657373436f6e74726f6c3a2073656e646572206d75737420626520616e60408201527f2061646d696e20746f206772616e740000000000000000000000000000000000606082015260800190565b60208082526014908201527f5061757361626c653a206e6f7420706175736564000000000000000000000000604082015260600190565b60208082526022908201527f45524332303a206275726e20616d6f756e7420657863656564732062616c616e60408201527f6365000000000000000000000000000000000000000000000000000000000000606082015260800190565b60208082526022908201527f45524332303a20617070726f766520746f20746865207a65726f20616464726560408201527f7373000000000000000000000000000000000000000000000000000000000000606082015260800190565b60208082526027908201527f7345524332303a206d7573742062652061646d696e20746f2073657420726f6c60408201527f652061646d696e00000000000000000000000000000000000000000000000000606082015260800190565b6020808252601d908201527f45524332305065726d69743a206578706972656420646561646c696e65000000604082015260600190565b60208082526026908201527f45524332303a207472616e7366657220616d6f756e742065786365656473206260408201527f616c616e63650000000000000000000000000000000000000000000000000000606082015260800190565b60208082526022908201527f45434453413a20696e76616c6964207369676e6174757265202773272076616c60408201527f7565000000000000000000000000000000000000000000000000000000000000606082015260800190565b60208082526030908201527f416363657373436f6e74726f6c3a2073656e646572206d75737420626520616e60408201527f2061646d696e20746f207265766f6b6500000000000000000000000000000000606082015260800190565b60208082526010908201527f5061757361626c653a2070617573656400000000000000000000000000000000604082015260600190565b6020808252602e908201527f496e697469616c697a61626c653a20636f6e747261637420697320616c72656160408201527f647920696e697469616c697a6564000000000000000000000000000000000000606082015260800190565b60208082526025908201527f7345524332303a206d7573742068617665206d696e74657220726f6c6520746f60408201527f206d696e74000000000000000000000000000000000000000000000000000000606082015260800190565b60208082526022908201527f45434453413a20696e76616c6964207369676e6174757265202776272076616c60408201527f7565000000000000000000000000000000000000000000000000000000000000606082015260800190565b6020808252602b908201527f7345524332303a206d757374206861766520736e617073686f7420726f6c652060408201527f746f20736e617073686f74000000000000000000000000000000000000000000606082015260800190565b6020808252601e908201527f45524332305065726d69743a20696e76616c6964207369676e61747572650000604082015260600190565b60208082526028908201527f45524332303a207472616e7366657220616d6f756e742065786365656473206160408201527f6c6c6f77616e6365000000000000000000000000000000000000000000000000606082015260800190565b60208082526026908201527f7345524332303a206d75737420686176652070617573657220726f6c6520746f60408201527f2070617573650000000000000000000000000000000000000000000000000000606082015260800190565b60208082526024908201527f45524332303a206275726e20616d6f756e74206578636565647320616c6c6f7760408201527f616e636500000000000000000000000000000000000000000000000000000000606082015260800190565b60208082526021908201527f45524332303a206275726e2066726f6d20746865207a65726f2061646472657360408201527f7300000000000000000000000000000000000000000000000000000000000000606082015260800190565b60208082526025908201527f45524332303a207472616e736665722066726f6d20746865207a65726f20616460408201527f6472657373000000000000000000000000000000000000000000000000000000606082015260800190565b6020808252602d908201527f7345524332303a206d75737420626520734552433131353520746f207573652060408201527f7472616e7366657220686f6f6b00000000000000000000000000000000000000606082015260800190565b60208082526028908201527f7345524332303a206d75737420686176652070617573657220726f6c6520746f60408201527f20756e7061757365000000000000000000000000000000000000000000000000606082015260800190565b60208082526019908201527f45524332304361707065643a2063617020657863656564656400000000000000604082015260600190565b60208082526024908201527f45524332303a20617070726f76652066726f6d20746865207a65726f2061646460408201527f7265737300000000000000000000000000000000000000000000000000000000606082015260800190565b60208082526016908201527f4552433230536e617073686f743a206964206973203000000000000000000000604082015260600190565b60208082526025908201527f45524332303a2064656372656173656420616c6c6f77616e63652062656c6f7760408201527f207a65726f000000000000000000000000000000000000000000000000000000606082015260800190565b6020808252602f908201527f416363657373436f6e74726f6c3a2063616e206f6e6c792072656e6f756e636560408201527f20726f6c657320666f722073656c660000000000000000000000000000000000606082015260800190565b6020808252601f908201527f45524332303a206d696e7420746f20746865207a65726f206164647265737300604082015260600190565b6020808252602a908201527f45524332305061757361626c653a20746f6b656e207472616e7366657220776860408201527f696c652070617573656400000000000000000000000000000000000000000000606082015260800190565b60ff91909116815260200190565b60008219821115613224576132246132a3565b500190565b600082613238576132386132b9565b500490565b60008282101561324f5761324f6132a3565b500390565b60028104600182168061326857607f821691505b6020821081141561328957634e487b7160e01b600052602260045260246000fd5b50919050565b60008261329e5761329e6132b9565b500690565b634e487b7160e01b600052601160045260246000fd5b634e487b7160e01b600052601260045260246000fd5b634e487b7160e01b600052604160045260246000fdfea26469706673582212202e45eeaddc6a66db86f9992f06020307664d91feb4c733b8ee34b7155fe5b57264736f6c63430008010033",
  "linkReferences": {},
  "deployedLinkReferences": {}
}