{
  "_format": "hh-sol-artifact-1",
  "contractName": "SERC20",
  "sourceName": "contracts/core/SERC20.sol",
  "abi": [
    {
      "inputs": [],
      "stateMutability": "nonpayable",
      "type": "constructor"
    },
    {
      "anonymous": false,
      "inputs": [
        {
          "indexed": true,
          "internalType": "address",
          "name": "owner",
          "type": "address"
        },
        {
          "indexed": true,
          "internalType": "address",
          "name": "spender",
          "type": "address"
        },
        {
          "indexed": false,
          "internalType": "uint256",
          "name": "value",
          "type": "uint256"
        }
      ],
      "name": "Approval",
      "type": "event"
    },
    {
      "anonymous": false,
      "inputs": [
        {
          "indexed": false,
          "internalType": "address",
          "name": "account",
          "type": "address"
        }
      ],
      "name": "Paused",
      "type": "event"
    },
    {
      "anonymous": false,
      "inputs": [
        {
          "indexed": true,
          "internalType": "bytes32",
          "name": "role",
          "type": "bytes32"
        },
        {
          "indexed": true,
          "internalType": "bytes32",
          "name": "previousAdminRole",
          "type": "bytes32"
        },
        {
          "indexed": true,
          "internalType": "bytes32",
          "name": "newAdminRole",
          "type": "bytes32"
        }
      ],
      "name": "RoleAdminChanged",
      "type": "event"
    },
    {
      "anonymous": false,
      "inputs": [
        {
          "indexed": true,
          "internalType": "bytes32",
          "name": "role",
          "type": "bytes32"
        },
        {
          "indexed": true,
          "internalType": "address",
          "name": "account",
          "type": "address"
        },
        {
          "indexed": true,
          "internalType": "address",
          "name": "sender",
          "type": "address"
        }
      ],
      "name": "RoleGranted",
      "type": "event"
    },
    {
      "anonymous": false,
      "inputs": [
        {
          "indexed": true,
          "internalType": "bytes32",
          "name": "role",
          "type": "bytes32"
        },
        {
          "indexed": true,
          "internalType": "address",
          "name": "account",
          "type": "address"
        },
        {
          "indexed": true,
          "internalType": "address",
          "name": "sender",
          "type": "address"
        }
      ],
      "name": "RoleRevoked",
      "type": "event"
    },
    {
      "anonymous": false,
      "inputs": [
        {
          "indexed": false,
          "internalType": "uint256",
          "name": "id",
          "type": "uint256"
        }
      ],
      "name": "Snapshot",
      "type": "event"
    },
    {
      "anonymous": false,
      "inputs": [
        {
          "indexed": true,
          "internalType": "address",
          "name": "from",
          "type": "address"
        },
        {
          "indexed": true,
          "internalType": "address",
          "name": "to",
          "type": "address"
        },
        {
          "indexed": false,
          "internalType": "uint256",
          "name": "value",
          "type": "uint256"
        }
      ],
      "name": "Transfer",
      "type": "event"
    },
    {
      "anonymous": false,
      "inputs": [
        {
          "indexed": false,
          "internalType": "address",
          "name": "account",
          "type": "address"
        }
      ],
      "name": "Unpaused",
      "type": "event"
    },
    {
      "inputs": [],
      "name": "DEFAULT_ADMIN_ROLE",
      "outputs": [
        {
          "internalType": "bytes32",
          "name": "",
          "type": "bytes32"
        }
      ],
      "stateMutability": "view",
      "type": "function"
    },
    {
      "inputs": [],
      "name": "DOMAIN_SEPARATOR",
      "outputs": [
        {
          "internalType": "bytes32",
          "name": "",
          "type": "bytes32"
        }
      ],
      "stateMutability": "view",
      "type": "function"
    },
    {
      "inputs": [],
      "name": "MINTER_ADMIN_ROLE",
      "outputs": [
        {
          "internalType": "bytes32",
          "name": "",
          "type": "bytes32"
        }
      ],
      "stateMutability": "view",
      "type": "function"
    },
    {
      "inputs": [],
      "name": "MINTER_ROLE",
      "outputs": [
        {
          "internalType": "bytes32",
          "name": "",
          "type": "bytes32"
        }
      ],
      "stateMutability": "view",
      "type": "function"
    },
    {
      "inputs": [],
      "name": "PAUSER_ADMIN_ROLE",
      "outputs": [
        {
          "internalType": "bytes32",
          "name": "",
          "type": "bytes32"
        }
      ],
      "stateMutability": "view",
      "type": "function"
    },
    {
      "inputs": [],
      "name": "PAUSER_ROLE",
      "outputs": [
        {
          "internalType": "bytes32",
          "name": "",
          "type": "bytes32"
        }
      ],
      "stateMutability": "view",
      "type": "function"
    },
    {
      "inputs": [],
      "name": "SNAPSHOT_ADMIN_ROLE",
      "outputs": [
        {
          "internalType": "bytes32",
          "name": "",
          "type": "bytes32"
        }
      ],
      "stateMutability": "view",
      "type": "function"
    },
    {
      "inputs": [],
      "name": "SNAPSHOT_ROLE",
      "outputs": [
        {
          "internalType": "bytes32",
          "name": "",
          "type": "bytes32"
        }
      ],
      "stateMutability": "view",
      "type": "function"
    },
    {
      "inputs": [
        {
          "internalType": "address",
          "name": "owner",
          "type": "address"
        },
        {
          "internalType": "address",
          "name": "spender",
          "type": "address"
        }
      ],
      "name": "allowance",
      "outputs": [
        {
          "internalType": "uint256",
          "name": "",
          "type": "uint256"
        }
      ],
      "stateMutability": "view",
      "type": "function"
    },
    {
      "inputs": [
        {
          "internalType": "address",
          "name": "spender",
          "type": "address"
        },
        {
          "internalType": "uint256",
          "name": "amount",
          "type": "uint256"
        }
      ],
      "name": "approve",
      "outputs": [
        {
          "internalType": "bool",
          "name": "",
          "type": "bool"
        }
      ],
      "stateMutability": "nonpayable",
      "type": "function"
    },
    {
      "inputs": [
        {
          "internalType": "address",
          "name": "account",
          "type": "address"
        }
      ],
      "name": "balanceOf",
      "outputs": [
        {
          "internalType": "uint256",
          "name": "",
          "type": "uint256"
        }
      ],
      "stateMutability": "view",
      "type": "function"
    },
    {
      "inputs": [
        {
          "internalType": "address",
          "name": "account",
          "type": "address"
        },
        {
          "internalType": "uint256",
          "name": "snapshotId",
          "type": "uint256"
        }
      ],
      "name": "balanceOfAt",
      "outputs": [
        {
          "internalType": "uint256",
          "name": "",
          "type": "uint256"
        }
      ],
      "stateMutability": "view",
      "type": "function"
    },
    {
      "inputs": [
        {
          "internalType": "uint256",
          "name": "amount",
          "type": "uint256"
        }
      ],
      "name": "burn",
      "outputs": [],
      "stateMutability": "nonpayable",
      "type": "function"
    },
    {
      "inputs": [
        {
          "internalType": "address",
          "name": "account",
          "type": "address"
        },
        {
          "internalType": "uint256",
          "name": "amount",
          "type": "uint256"
        }
      ],
      "name": "burnFrom",
      "outputs": [],
      "stateMutability": "nonpayable",
      "type": "function"
    },
    {
      "inputs": [
        {
          "internalType": "bytes32",
          "name": "c__0x887159eb",
          "type": "bytes32"
        }
      ],
      "name": "c_0x887159eb",
      "outputs": [],
      "stateMutability": "pure",
      "type": "function"
    },
    {
      "inputs": [],
      "name": "cap",
      "outputs": [
        {
          "internalType": "uint256",
          "name": "",
          "type": "uint256"
        }
      ],
      "stateMutability": "view",
      "type": "function"
    },
    {
      "inputs": [],
      "name": "decimals",
      "outputs": [
        {
          "internalType": "uint8",
          "name": "",
          "type": "uint8"
        }
      ],
      "stateMutability": "view",
      "type": "function"
    },
    {
      "inputs": [
        {
          "internalType": "address",
          "name": "spender",
          "type": "address"
        },
        {
          "internalType": "uint256",
          "name": "subtractedValue",
          "type": "uint256"
        }
      ],
      "name": "decreaseAllowance",
      "outputs": [
        {
          "internalType": "bool",
          "name": "",
          "type": "bool"
        }
      ],
      "stateMutability": "nonpayable",
      "type": "function"
    },
    {
      "inputs": [
        {
          "internalType": "bytes32",
          "name": "role",
          "type": "bytes32"
        }
      ],
      "name": "getRoleAdmin",
      "outputs": [
        {
          "internalType": "bytes32",
          "name": "",
          "type": "bytes32"
        }
      ],
      "stateMutability": "view",
      "type": "function"
    },
    {
      "inputs": [
        {
          "internalType": "bytes32",
          "name": "role",
          "type": "bytes32"
        },
        {
          "internalType": "address",
          "name": "account",
          "type": "address"
        }
      ],
      "name": "grantRole",
      "outputs": [],
      "stateMutability": "nonpayable",
      "type": "function"
    },
    {
      "inputs": [
        {
          "internalType": "bytes32",
          "name": "role",
          "type": "bytes32"
        },
        {
          "internalType": "address",
          "name": "account",
          "type": "address"
        }
      ],
      "name": "hasRole",
      "outputs": [
        {
          "internalType": "bool",
          "name": "",
          "type": "bool"
        }
      ],
      "stateMutability": "view",
      "type": "function"
    },
    {
      "inputs": [
        {
          "internalType": "address",
          "name": "spender",
          "type": "address"
        },
        {
          "internalType": "uint256",
          "name": "addedValue",
          "type": "uint256"
        }
      ],
      "name": "increaseAllowance",
      "outputs": [
        {
          "internalType": "bool",
          "name": "",
          "type": "bool"
        }
      ],
      "stateMutability": "nonpayable",
      "type": "function"
    },
    {
      "inputs": [
        {
          "internalType": "string",
          "name": "name_",
          "type": "string"
        },
        {
          "internalType": "string",
          "name": "symbol_",
          "type": "string"
        },
        {
          "internalType": "uint256",
          "name": "cap_",
          "type": "uint256"
        },
        {
          "internalType": "address",
          "name": "admin",
          "type": "address"
        }
      ],
      "name": "initialize",
      "outputs": [],
      "stateMutability": "nonpayable",
      "type": "function"
    },
    {
      "inputs": [
        {
          "internalType": "address",
          "name": "to",
          "type": "address"
        },
        {
          "internalType": "uint256",
          "name": "amount",
          "type": "uint256"
        }
      ],
      "name": "mint",
      "outputs": [],
      "stateMutability": "nonpayable",
      "type": "function"
    },
    {
      "inputs": [],
      "name": "name",
      "outputs": [
        {
          "internalType": "string",
          "name": "",
          "type": "string"
        }
      ],
      "stateMutability": "view",
      "type": "function"
    },
    {
      "inputs": [
        {
          "internalType": "address",
          "name": "owner",
          "type": "address"
        }
      ],
      "name": "nonces",
      "outputs": [
        {
          "internalType": "uint256",
          "name": "",
          "type": "uint256"
        }
      ],
      "stateMutability": "view",
      "type": "function"
    },
    {
      "inputs": [
        {
          "internalType": "address",
          "name": "from",
          "type": "address"
        },
        {
          "internalType": "address",
          "name": "to",
          "type": "address"
        },
        {
          "internalType": "uint256",
          "name": "amount",
          "type": "uint256"
        }
      ],
      "name": "onSERC1155Transferred",
      "outputs": [],
      "stateMutability": "nonpayable",
      "type": "function"
    },
    {
      "inputs": [],
      "name": "pause",
      "outputs": [],
      "stateMutability": "nonpayable",
      "type": "function"
    },
    {
      "inputs": [],
      "name": "paused",
      "outputs": [
        {
          "internalType": "bool",
          "name": "",
          "type": "bool"
        }
      ],
      "stateMutability": "view",
      "type": "function"
    },
    {
      "inputs": [
        {
          "internalType": "address",
          "name": "owner",
          "type": "address"
        },
        {
          "internalType": "address",
          "name": "spender",
          "type": "address"
        },
        {
          "internalType": "uint256",
          "name": "value",
          "type": "uint256"
        },
        {
          "internalType": "uint256",
          "name": "deadline",
          "type": "uint256"
        },
        {
          "internalType": "uint8",
          "name": "v",
          "type": "uint8"
        },
        {
          "internalType": "bytes32",
          "name": "r",
          "type": "bytes32"
        },
        {
          "internalType": "bytes32",
          "name": "s",
          "type": "bytes32"
        }
      ],
      "name": "permit",
      "outputs": [],
      "stateMutability": "nonpayable",
      "type": "function"
    },
    {
      "inputs": [
        {
          "internalType": "bytes32",
          "name": "role",
          "type": "bytes32"
        },
        {
          "internalType": "address",
          "name": "account",
          "type": "address"
        }
      ],
      "name": "renounceRole",
      "outputs": [],
      "stateMutability": "nonpayable",
      "type": "function"
    },
    {
      "inputs": [
        {
          "internalType": "bytes32",
          "name": "role",
          "type": "bytes32"
        },
        {
          "internalType": "address",
          "name": "account",
          "type": "address"
        }
      ],
      "name": "revokeRole",
      "outputs": [],
      "stateMutability": "nonpayable",
      "type": "function"
    },
    {
      "inputs": [],
      "name": "sERC1155",
      "outputs": [
        {
          "internalType": "address",
          "name": "",
          "type": "address"
        }
      ],
      "stateMutability": "view",
      "type": "function"
    },
    {
      "inputs": [
        {
          "internalType": "bytes32",
          "name": "role",
          "type": "bytes32"
        },
        {
          "internalType": "bytes32",
          "name": "adminRole",
          "type": "bytes32"
        }
      ],
      "name": "setRoleAdmin",
      "outputs": [],
      "stateMutability": "nonpayable",
      "type": "function"
    },
    {
      "inputs": [],
      "name": "snapshot",
      "outputs": [
        {
          "internalType": "uint256",
          "name": "",
          "type": "uint256"
        }
      ],
      "stateMutability": "nonpayable",
      "type": "function"
    },
    {
      "inputs": [
        {
          "internalType": "bytes4",
          "name": "interfaceId",
          "type": "bytes4"
        }
      ],
      "name": "supportsInterface",
      "outputs": [
        {
          "internalType": "bool",
          "name": "",
          "type": "bool"
        }
      ],
      "stateMutability": "view",
      "type": "function"
    },
    {
      "inputs": [],
      "name": "symbol",
      "outputs": [
        {
          "internalType": "string",
          "name": "",
          "type": "string"
        }
      ],
      "stateMutability": "view",
      "type": "function"
    },
    {
      "inputs": [],
      "name": "totalSupply",
      "outputs": [
        {
          "internalType": "uint256",
          "name": "",
          "type": "uint256"
        }
      ],
      "stateMutability": "view",
      "type": "function"
    },
    {
      "inputs": [
        {
          "internalType": "uint256",
          "name": "snapshotId",
          "type": "uint256"
        }
      ],
      "name": "totalSupplyAt",
      "outputs": [
        {
          "internalType": "uint256",
          "name": "",
          "type": "uint256"
        }
      ],
      "stateMutability": "view",
      "type": "function"
    },
    {
      "inputs": [
        {
          "internalType": "address",
          "name": "recipient",
          "type": "address"
        },
        {
          "internalType": "uint256",
          "name": "amount",
          "type": "uint256"
        }
      ],
      "name": "transfer",
      "outputs": [
        {
          "internalType": "bool",
          "name": "",
          "type": "bool"
        }
      ],
      "stateMutability": "nonpayable",
      "type": "function"
    },
    {
      "inputs": [
        {
          "internalType": "address",
          "name": "sender",
          "type": "address"
        },
        {
          "internalType": "address",
          "name": "recipient",
          "type": "address"
        },
        {
          "internalType": "uint256",
          "name": "amount",
          "type": "uint256"
        }
      ],
      "name": "transferFrom",
      "outputs": [
        {
          "internalType": "bool",
          "name": "",
          "type": "bool"
        }
      ],
      "stateMutability": "nonpayable",
      "type": "function"
    },
    {
      "inputs": [],
      "name": "unpause",
      "outputs": [],
      "stateMutability": "nonpayable",
      "type": "function"
    }
  ],
  "bytecode": "0x60806040523480156200001157600080fd5b50600060019054906101000a900460ff168062000039575060008054906101000a900460ff16155b6200007b576040517f08c379a0000000000000000000000000000000000000000000000000000000008152600401620000729062000153565b60405180910390fd5b60008060019054906101000a900460ff161590508015620000cc576001600060016101000a81548160ff02191690831515021790555060016000806101000a81548160ff0219169083151502179055505b620001007f66e427b963e75f4390eaba186eafd3e8dff581f5173d5961aa0adfde8243e43760001b6200012960201b60201c565b8015620001225760008060016101000a81548160ff0219169083151502179055505b50620001d5565b50565b60006200013b602e8362000175565b9150620001488262000186565b604082019050919050565b600060208201905081810360008301526200016e816200012c565b9050919050565b600082825260208201905092915050565b7f496e697469616c697a61626c653a20636f6e747261637420697320616c72656160008201527f647920696e697469616c697a6564000000000000000000000000000000000000602082015250565b616a4380620001e56000396000f3fe608060405234801561001057600080fd5b50600436106102de5760003560e01c8063681079db11610186578063981b24d0116100e3578063be06547811610097578063d547741f11610071578063d547741f14610811578063dd62ed3e1461082d578063e63ab1e91461085d576102de565b8063be065478146107bb578063d505accf146107d7578063d5391393146107f3576102de565b8063a457c2d7116100c8578063a457c2d71461073f578063a9059cbb1461076f578063bd3a13f61461079f576102de565b8063981b24d0146106f1578063a217fddf14610721576102de565b80638456cb591161013a57806393a1c14c1161011f57806393a1c14c1461069757806395d89b41146106b55780639711715a146106d3576102de565b80638456cb591461065d57806391d1485414610667576102de565b806370a082311161016b57806370a08231146105e157806379cc6790146106115780637ecebe001461062d576102de565b8063681079db146105a75780637028e2cd146105c3576102de565b80632f2ff15d1161023f57806339509351116101f357806342966c68116101cd57806342966c681461053d5780634ee2cd7e146105595780635c975abb14610589576102de565b806339509351146104e75780633f4ba83a1461051757806340c10f1914610521576102de565b8063355274ea11610224578063355274ea1461048f5780633644e515146104ad57806336568abe146104cb576102de565b80632f2ff15d14610455578063313ce56714610471576102de565b806318160ddd1161029657806323b872dd1161027b57806323b872dd146103d7578063248a9ca31461040757806325a0047314610437576102de565b806318160ddd1461039d5780631e4e0091146103bb576102de565b806308d30358116102c757806308d3035814610331578063095ea7b31461034f5780631339324b1461037f576102de565b806301ffc9a7146102e357806306fdde0314610313575b600080fd5b6102fd60048036038101906102f891906150f8565b61087b565b60405161030a91906157a7565b60405180910390f35b61031b6108f5565b60405161032891906158d6565b60405180910390f35b610339610987565b60405161034691906157c2565b60405180910390f35b6103696004803603810190610364919061501b565b6109ab565b60405161037691906157a7565b60405180910390f35b6103876109c9565b60405161039491906157c2565b60405180910390f35b6103a56109ed565b6040516103b29190615d18565b60405180910390f35b6103d560048036038101906103d091906150bc565b6109f7565b005b6103f160048036038101906103ec9190614f2e565b610b91565b6040516103fe91906157a7565b60405180910390f35b610421600480360381019061041c9190615057565b610c92565b60405161042e91906157c2565b60405180910390f35b61043f610cb2565b60405161044c91906157c2565b60405180910390f35b61046f600480360381019061046a9190615080565b610cd6565b005b610479610d3c565b6040516104869190615d33565b60405180910390f35b610497610d45565b6040516104a49190615d18565b60405180910390f35b6104b5610d4f565b6040516104c291906157c2565b60405180910390f35b6104e560048036038101906104e09190615080565b610d5e565b005b61050160048036038101906104fc919061501b565b610de1565b60405161050e91906157a7565b60405180910390f35b61051f610e8d565b005b61053b6004803603810190610536919061501b565b61103b565b005b610557600480360381019061055291906151b4565b6111ed565b005b610573600480360381019061056e919061501b565b611201565b6040516105809190615d18565b60405180910390f35b610591611272565b60405161059e91906157a7565b60405180910390f35b6105c160048036038101906105bc9190615057565b61128a565b005b6105cb61128d565b6040516105d891906157c2565b60405180910390f35b6105fb60048036038101906105f69190614ec9565b6112b1565b6040516106089190615d18565b60405180910390f35b61062b6004803603810190610626919061501b565b6112fa565b005b61064760048036038101906106429190614ec9565b61137e565b6040516106549190615d18565b60405180910390f35b6106656113cf565b005b610681600480360381019061067c9190615080565b61157d565b60405161068e91906157a7565b60405180910390f35b61069f6115e8565b6040516106ac9190615755565b60405180910390f35b6106bd611697565b6040516106ca91906158d6565b60405180910390f35b6106db611729565b6040516106e89190615d18565b60405180910390f35b61070b600480360381019061070691906151b4565b6118dc565b6040516107189190615d18565b60405180910390f35b61072961190e565b60405161073691906157c2565b60405180910390f35b6107596004803603810190610754919061501b565b611915565b60405161076691906157a7565b60405180910390f35b6107896004803603810190610784919061501b565b611a09565b60405161079691906157a7565b60405180910390f35b6107b960048036038101906107b49190615121565b611a27565b005b6107d560048036038101906107d09190614f2e565b611f3a565b005b6107f160048036038101906107ec9190614f7d565b6121fe565b005b6107fb6123aa565b60405161080891906157c2565b60405180910390f35b61082b60048036038101906108269190615080565b6123ce565b005b61084760048036038101906108429190614ef2565b612434565b6040516108549190615d18565b60405180910390f35b6108656124bb565b60405161087291906157c2565b60405180910390f35b60007f7965db0b000000000000000000000000000000000000000000000000000000007bffffffffffffffffffffffffffffffffffffffffffffffffffffffff1916827bffffffffffffffffffffffffffffffffffffffffffffffffffffffff191614806108ee57506108ed826124df565b5b9050919050565b6060609a805461090490615f53565b80601f016020809104026020016040519081016040528092919081815260200182805461093090615f53565b801561097d5780601f106109525761010080835404028352916020019161097d565b820191906000526020600020905b81548152906001019060200180831161096057829003601f168201915b5050505050905090565b7ffe5742a97f67927ccdc68d79d4296dd68bd43067e2b5296b1b0b8ff67b30f44281565b60006109bf6109b8612549565b8484612551565b6001905092915050565b7f70480ee89cb38eff00b7d23da25713d52ce19c6ed428691d22c58b2f615e3d6781565b6000609954905090565b610a237fbea6440893c95c67a9bc6236bc2f494e6c91171fbc45a19b5a6add9002860db660001b61128a565b610a4f7fe85af6afb20076816d68dfe546c3c9aa943ada0a1a29ef29a3b0e3dc76db3afc60001b61128a565b610a7b7f7ea366895e19e76f92ee0a08e592601252c13b6f837b0a79803bf3027596609a60001b61128a565b610aa77f55a38239c31ca301473170b616e353bc6a4c5131425d6677847f2b1745ea3da360001b61128a565b610ac0610ab383610c92565b610abb612549565b61157d565b610aff576040517f08c379a0000000000000000000000000000000000000000000000000000000008152600401610af6906159f8565b60405180910390fd5b610b2b7f65ea69cb2f3afc86734f02a8384ab67103eaef777b58926da06dc3661a6fa15660001b61128a565b610b577f70a240e191fdc64ea33e645c16255e2363e16cb1277119167f43b4c5f8447edb60001b61128a565b610b837facfaf685d84f36b45a7f72b5e59cb8052f7c7b86b6fb6d7c82fbc10ad4a4980c60001b61128a565b610b8d828261271c565b5050565b6000610b9e848484612772565b6000609860008673ffffffffffffffffffffffffffffffffffffffff1673ffffffffffffffffffffffffffffffffffffffff1681526020019081526020016000206000610be9612549565b73ffffffffffffffffffffffffffffffffffffffff1673ffffffffffffffffffffffffffffffffffffffff16815260200190815260200160002054905082811015610c69576040517f08c379a0000000000000000000000000000000000000000000000000000000008152600401610c6090615b58565b60405180910390fd5b610c8685610c75612549565b8584610c819190615e52565b612551565b60019150509392505050565b600060656000838152602001908152602001600020600101549050919050565b7fe0e65c783ac33ff1c5ccf4399c9185066773921d6f8d050bf80781603021f09781565b610cef610ce283610c92565b610cea612549565b61157d565b610d2e576040517f08c379a0000000000000000000000000000000000000000000000000000000008152600401610d2590615978565b60405180910390fd5b610d3882826129f4565b5050565b60006012905090565b600060c954905090565b6000610d59612ad5565b905090565b610d66612549565b73ffffffffffffffffffffffffffffffffffffffff168173ffffffffffffffffffffffffffffffffffffffff1614610dd3576040517f08c379a0000000000000000000000000000000000000000000000000000000008152600401610dca90615cb8565b60405180910390fd5b610ddd8282612b15565b5050565b6000610e83610dee612549565b848460986000610dfc612549565b73ffffffffffffffffffffffffffffffffffffffff1673ffffffffffffffffffffffffffffffffffffffff16815260200190815260200160002060008873ffffffffffffffffffffffffffffffffffffffff1673ffffffffffffffffffffffffffffffffffffffff16815260200190815260200160002054610e7e9190615dcb565b612551565b6001905092915050565b610eb97fab9bab03698e1f53ce0ba84bc572f0f2943bf375bbf84e1979106c406b6b0c0e60001b61128a565b610ee57f0ff8719ca8214ec6b3c0b380a222c8571f58e65b0ac14dd65abcbe7015d7978560001b61128a565b610f117f4b903c9e736c3a6d8072d79cd0b038ef4db0b85ae7f04771cae559a0fd748bb060001b61128a565b610f3d7f785b1743c2aaa14aa9ad8a06c1b0134fb4b380345db0dfe405c5dd45f612283360001b61128a565b610f6e7f65d7a28e3265b37a6474929f336521b332c1681b933f6cb9f3376673440d862a610f69612549565b61157d565b610fad576040517f08c379a0000000000000000000000000000000000000000000000000000000008152600401610fa490615c18565b60405180910390fd5b610fd97f672de5150cc76d950afe186b922687504e0fd3e6ec28c743ae4041e80b3e153c60001b61128a565b6110057fe632df491c086e3057c134c6c8dcc63289e9220619873069a87e64f405c3ed7460001b61128a565b6110317f0bf90479f0efd1eff07636361f3ace180f8efaa76b67185997c01f6ddf19dfc060001b61128a565b611039612bf7565b565b6110677f379091f879bc63f1aa545c051fa9290f1ff963d4122c21c263fc1cc50c1e3f8460001b61128a565b6110937fabd5696ee1c427e0e2d1c44bfe5a91d3755cad4507d12a52ebe049e9b88f019960001b61128a565b6110bf7fc6c9463077e4421c07345186220e08a4ef98ea2abcbbea7fcade6989920cd39860001b61128a565b6110eb7f322f32b04e3be14b6237678896628192d4b4cf95bf8155e535784c9b00899aec60001b61128a565b61111c7f9f2df0fed2c77648de5860a4cc508cd0818c85b8b8a1ab4ceeef8d981c8956a6611117612549565b61157d565b61115b576040517f08c379a000000000000000000000000000000000000000000000000000000000815260040161115290615ad8565b60405180910390fd5b6111877f4cf2689202055c10ada3cad2c7dfdc23720066270c9e0d1b0c7efa38f54d25d260001b61128a565b6111b37f9bac2a406252496ca54ba68990325c4f3b098b4de934a86cc4d7763c0713f50660001b61128a565b6111df7fe5611e62e2afacb399c2779c68285a25da7b3dee2a9aa49ba999871cb3f934fd60001b61128a565b6111e98282612c9a565b5050565b6111fe6111f8612549565b82612d2c565b50565b600080600061124f8461019260008873ffffffffffffffffffffffffffffffffffffffff1673ffffffffffffffffffffffffffffffffffffffff168152602001908152602001600020612f02565b915091508161126657611261856112b1565b611268565b805b9250505092915050565b600061012e60009054906101000a900460ff16905090565b50565b7f5fdbd35e8da83ee755d5e62a539e5ed7f47126abede0b8b10f9ea43dc6eed07f81565b6000609760008373ffffffffffffffffffffffffffffffffffffffff1673ffffffffffffffffffffffffffffffffffffffff168152602001908152602001600020549050919050565b600061130d83611308612549565b612434565b905081811015611352576040517f08c379a000000000000000000000000000000000000000000000000000000000815260040161134990615b98565b60405180910390fd5b61136f8361135e612549565b848461136a9190615e52565b612551565b6113798383612d2c565b505050565b60006113c86101f860008473ffffffffffffffffffffffffffffffffffffffff1673ffffffffffffffffffffffffffffffffffffffff168152602001908152602001600020613021565b9050919050565b6113fb7f93cb7a0954acafac570125b31e492738f2b3cbf0cd88643e911ae627c7f0750660001b61128a565b6114277fb7a759553e2422f43fa56ff10c85ea3f8d81d80c057b789ab6201aa2d3bee9a060001b61128a565b6114537ffa481f4e8da75f145ebdbb79258b9ed5c7debb0a4845f5b37b2f4bd0c5bbfeee60001b61128a565b61147f7f258a6751e25281eb1cf5946453f6ae96cf14420d85102ba2bc24159c0b9c622660001b61128a565b6114b07f65d7a28e3265b37a6474929f336521b332c1681b933f6cb9f3376673440d862a6114ab612549565b61157d565b6114ef576040517f08c379a00000000000000000000000000000000000000000000000000000000081526004016114e690615b78565b60405180910390fd5b61151b7f22fd787c63faceffd2c2267c3f6bd501ae6e19935a6dad9d7239fa44ee3530ed60001b61128a565b6115477f2f9c145defa06163ac598332633633c31f8c334ff8b93f1032e87cbfb4fa01d260001b61128a565b6115737f822a73bb90601f0c8aa9edda5cf1395a345ca1ce2f7eed2e862f4409137e864f60001b61128a565b61157b61302f565b565b60006065600084815260200190815260200160002060000160008373ffffffffffffffffffffffffffffffffffffffff1673ffffffffffffffffffffffffffffffffffffffff16815260200190815260200160002060009054906101000a900460ff16905092915050565b60006116167ffa98756e849f71ba88c54b01942b84d92cf0ae57268aafa018f051df8a6aedc460001b61128a565b6116427f9767e4b1514826f641ea0f15ae2bc0a3c35ef3161c2244985c04fb36ac175ebb60001b61128a565b61166e7fb527f3854471096937b9ef6d6f3fd26001988cb6ee2ad1dcf1e80db06757ebdc60001b61128a565b61022b60009054906101000a900473ffffffffffffffffffffffffffffffffffffffff16905090565b6060609b80546116a690615f53565b80601f01602080910402602001604051908101604052809291908181526020018280546116d290615f53565b801561171f5780601f106116f45761010080835404028352916020019161171f565b820191906000526020600020905b81548152906001019060200180831161170257829003601f168201915b5050505050905090565b60006117577f01e4010cf3c0ba24a9e1493e4300fb636412bd33416712e29f2334c83ce5f52b60001b61128a565b6117837f269bcc48f2dc84dc7c3ba2da493fb51c2410b65717348bf5f1e3a715528d8bd260001b61128a565b6117af7fdec9f21a0b7a9545c5f19e421cccfcc1bde9cc91a02858e3e9022b6f73e41f8160001b61128a565b6117db7f98fd5272c78b403cda7fbcb9cc071bb798345728f558d470df2bec2cd35dc4cb60001b61128a565b61180c7f5fdbd35e8da83ee755d5e62a539e5ed7f47126abede0b8b10f9ea43dc6eed07f611807612549565b61157d565b61184b576040517f08c379a000000000000000000000000000000000000000000000000000000000815260040161184290615b18565b60405180910390fd5b6118777f1911156c1b9ec0fc8c6b5e2fa9cfccfa3c3ded3f60f97a430b25d4d5e335fea560001b61128a565b6118a37fe3556b8bf89403af60c85d5a5de8244f5f040abc78b8c645c71904d589db938c60001b61128a565b6118cf7fdc437fe8919d430c6470dd7d1cf6dddea0be29bc5ced5d9acaa27855126a525160001b61128a565b6118d76130d3565b905090565b60008060006118ed84610193612f02565b9150915081611903576118fe6109ed565b611905565b805b92505050919050565b6000801b81565b60008060986000611924612549565b73ffffffffffffffffffffffffffffffffffffffff1673ffffffffffffffffffffffffffffffffffffffff16815260200190815260200160002060008573ffffffffffffffffffffffffffffffffffffffff1673ffffffffffffffffffffffffffffffffffffffff168152602001908152602001600020549050828110156119e1576040517f08c379a00000000000000000000000000000000000000000000000000000000081526004016119d890615c98565b60405180910390fd5b6119fe6119ec612549565b8585846119f99190615e52565b612551565b600191505092915050565b6000611a1d611a16612549565b8484612772565b6001905092915050565b600060019054906101000a900460ff1680611a4d575060008054906101000a900460ff16155b611a8c576040517f08c379a0000000000000000000000000000000000000000000000000000000008152600401611a8390615ab8565b60405180910390fd5b60008060019054906101000a900460ff161590508015611adc576001600060016101000a81548160ff02191690831515021790555060016000806101000a81548160ff0219169083151502179055505b611b087f9c749edab6720872b0eade4b6fcc8da9fcc0f842381bf5abed0215b44a73ffdc60001b61128a565b611b347f7e0700d912c4e2f0be553304f60d01ec7f78d2d031030b3cc444d47c661cd4cc60001b61128a565b611b607f38ec17dbbd0b180bed0bd35f17e9439e78e95eaaafcb60ef1aeaa4567595988760001b61128a565b611b6861312d565b611b947f6c3cf245db29f49146ad13224ccc463c1aac9a7ad5b761e4f18d8ea9f0dd759660001b61128a565b611bc07f8dd8e2b528c0c9f918f07fb170ed6737f9d49767f19d6c1bde8e89c028adcb4f60001b61128a565b611bc861320e565b611bf47f7a8bc55543dc32c6e054dce8bb8bdaff5e0704db2f06539542f6a367fb5310cc60001b61128a565b611c207fdbc1e0d82e295d991d64dc3b51b51f2bea535a9c46c14ced13b7670a24e6ff1260001b61128a565b611c2a85856132ff565b611c567ff8683747b1def293c9dfea739255a86d5cdedbc38764f9c3cb12a1923a99e8d160001b61128a565b611c827fc53b6f909f6746e5fc3ebb6bf0413a6d7e64748b79a96e1953d5b7d6bf27dc9760001b61128a565b611c8b836133ec565b611cb77f7b6735894e909d66ea9a7a1a84b9b96bb3d1422260d54df39c4ad354707d034460001b61128a565b611ce37fd5e2fce20f2be36647c3cc78698b15d8a9cb4d746e5b848d664468b74b00573860001b61128a565b611ceb6134d7565b611d177fcc622669d2686de42db6ac5a5c3d633e6e64d3595ea6b06ee227fa5cf36b2f5b60001b61128a565b611d437fb822806c01cde3cb5304ab69722d8194e280f52af41d05d7cab1c53a29aa854b60001b61128a565b611d4b6135c0565b611d777fa35cfffabb5b157737dc2ebda7b1b17889edb2809b7ecf4edceb7cc178fee9bc60001b61128a565b611da37fb3a4d5ead95b93ce807ffdeafb4cb4a45218f4ad329ae483ec07571fa4b2661d60001b61128a565b611dab6136b1565b611dd77f40a43d3612773c445dbccd1350d96c39f89a16ea473e42d6d02151fce6e5a0b760001b61128a565b611e037fef2f626ec7471d00e334b8d37037f5f5b72bd50ceaba4245c5537ee346a2d76260001b61128a565b611e0c8561379a565b611e387f8b252319d33f40f7a72e51dcc70e190118b978e21b00e2ef2057dafdaa503c8c60001b61128a565b611e647fbbf02d5cd41be58bf53d8f91ba56cb6dfe5eec6ba1f54ac508d3dfc74d7d639a60001b61128a565b611e6c612549565b61022b60006101000a81548173ffffffffffffffffffffffffffffffffffffffff021916908373ffffffffffffffffffffffffffffffffffffffff160217905550611ed97f902686d12dc7dda6a5dce11da3fe9c49f73ab745c72a86e026fc3047a492e40e60001b61128a565b611f057fa8261f0baa4b766ddf1683c950864c27e019dd030a470e095111c25e7d11e8bc60001b61128a565b611f126000801b836138c4565b8015611f335760008060016101000a81548160ff0219169083151502179055505b5050505050565b611f667f4a9d0e35edd48711729c9006fdbbb30c285d785510583091db1d867075a18e2c60001b61128a565b611f927f865ce2dd552a40e1def6de60d984716e6f4ba13f39755311b03a009f3e7bb7ad60001b61128a565b611fbe7fd639708ba366f6e0b148552eb36c0863a31b41ed7107c3a70bfa7833152d3e8a60001b61128a565b611fea7f65a6d5eb6899cc61859f63795fc1257191b984db57d2c40ceab68f992368dcf160001b61128a565b61022b60009054906101000a900473ffffffffffffffffffffffffffffffffffffffff1673ffffffffffffffffffffffffffffffffffffffff1661202c612549565b73ffffffffffffffffffffffffffffffffffffffff1614612082576040517f08c379a000000000000000000000000000000000000000000000000000000000815260040161207990615bf8565b60405180910390fd5b6120ae7f31fd7d75343a704dbf800247745a2582394b4dd52ef05ede80aa1110b6ae922760001b61128a565b6120da7f03e8fa3bd4c062553a24775e0b3da68faa6b40ede69251309306c8c2adb59ba960001b61128a565b6121067f0fdc7ca0c5b37ef1a2446d548a344d76fb822180e21b24639bd3db892cf9f69f60001b61128a565b600161022b60146101000a81548160ff02191690831515021790555061214e7f5c906f1240d17ca724b7ba851d724f01ef37a82366f8df62c59788cfe21707e860001b61128a565b61217a7f1c2a8df67047aeb7f29ae23f775b3720524c78715068dc2cbd23d83dcb77476860001b61128a565b612185838383612772565b6121b17fb5cd6ef3f1b36653c8fab6f97a672dd601b685d674dabb5eb29a3f53294ff74660001b61128a565b6121dd7f06e891f6462091ac1559a83b2e326e182cc5f2b295ec8a599d34129142d0b04160001b61128a565b600061022b60146101000a81548160ff021916908315150217905550505050565b83421115612241576040517f08c379a000000000000000000000000000000000000000000000000000000000815260040161223890615a18565b60405180910390fd5b60006101f9548888886122926101f860008e73ffffffffffffffffffffffffffffffffffffffff1673ffffffffffffffffffffffffffffffffffffffff168152602001908152602001600020613021565b896040516020016122a8969594939291906157dd565b60405160208183030381529060405280519060200120905060006122cb826138d2565b905060006122db828787876138ec565b90508973ffffffffffffffffffffffffffffffffffffffff168173ffffffffffffffffffffffffffffffffffffffff161461234b576040517f08c379a000000000000000000000000000000000000000000000000000000000815260040161234290615b38565b60405180910390fd5b6123936101f860008c73ffffffffffffffffffffffffffffffffffffffff1673ffffffffffffffffffffffffffffffffffffffff168152602001908152602001600020613a77565b61239e8a8a8a612551565b50505050505050505050565b7f9f2df0fed2c77648de5860a4cc508cd0818c85b8b8a1ab4ceeef8d981c8956a681565b6123e76123da83610c92565b6123e2612549565b61157d565b612426576040517f08c379a000000000000000000000000000000000000000000000000000000000815260040161241d90615a78565b60405180910390fd5b6124308282612b15565b5050565b6000609860008473ffffffffffffffffffffffffffffffffffffffff1673ffffffffffffffffffffffffffffffffffffffff16815260200190815260200160002060008373ffffffffffffffffffffffffffffffffffffffff1673ffffffffffffffffffffffffffffffffffffffff16815260200190815260200160002054905092915050565b7f65d7a28e3265b37a6474929f336521b332c1681b933f6cb9f3376673440d862a81565b60007f01ffc9a7000000000000000000000000000000000000000000000000000000007bffffffffffffffffffffffffffffffffffffffffffffffffffffffff1916827bffffffffffffffffffffffffffffffffffffffffffffffffffffffff1916149050919050565b600033905090565b600073ffffffffffffffffffffffffffffffffffffffff168373ffffffffffffffffffffffffffffffffffffffff1614156125c1576040517f08c379a00000000000000000000000000000000000000000000000000000000081526004016125b890615c58565b60405180910390fd5b600073ffffffffffffffffffffffffffffffffffffffff168273ffffffffffffffffffffffffffffffffffffffff161415612631576040517f08c379a0000000000000000000000000000000000000000000000000000000008152600401612628906159d8565b60405180910390fd5b80609860008573ffffffffffffffffffffffffffffffffffffffff1673ffffffffffffffffffffffffffffffffffffffff16815260200190815260200160002060008473ffffffffffffffffffffffffffffffffffffffff1673ffffffffffffffffffffffffffffffffffffffff168152602001908152602001600020819055508173ffffffffffffffffffffffffffffffffffffffff168373ffffffffffffffffffffffffffffffffffffffff167f8c5be1e5ebec7d5bd14f71427d1e84f3dd0314c0f7b2291e5b200ac8c7c3b9258360405161270f9190615d18565b60405180910390a3505050565b8061272683610c92565b837fbd79b86ffe0ab8e8776151514217cd7cacd52c909f66475c3af44e129f0b00ff60405160405180910390a48060656000848152602001908152602001600020600101819055505050565b600073ffffffffffffffffffffffffffffffffffffffff168373ffffffffffffffffffffffffffffffffffffffff1614156127e2576040517f08c379a00000000000000000000000000000000000000000000000000000000081526004016127d990615bd8565b60405180910390fd5b600073ffffffffffffffffffffffffffffffffffffffff168273ffffffffffffffffffffffffffffffffffffffff161415612852576040517f08c379a000000000000000000000000000000000000000000000000000000000815260040161284990615938565b60405180910390fd5b61285d838383613a8d565b6000609760008573ffffffffffffffffffffffffffffffffffffffff1673ffffffffffffffffffffffffffffffffffffffff168152602001908152602001600020549050818110156128e4576040517f08c379a00000000000000000000000000000000000000000000000000000000081526004016128db90615a38565b60405180910390fd5b81816128f09190615e52565b609760008673ffffffffffffffffffffffffffffffffffffffff1673ffffffffffffffffffffffffffffffffffffffff1681526020019081526020016000208190555081609760008573ffffffffffffffffffffffffffffffffffffffff1673ffffffffffffffffffffffffffffffffffffffff16815260200190815260200160002060008282546129829190615dcb565b925050819055508273ffffffffffffffffffffffffffffffffffffffff168473ffffffffffffffffffffffffffffffffffffffff167fddf252ad1be2c89b69c2b068fc378daa952ba7f163c4a11628f55a4df523b3ef846040516129e69190615d18565b60405180910390a350505050565b6129fe828261157d565b612ad15760016065600084815260200190815260200160002060000160008373ffffffffffffffffffffffffffffffffffffffff1673ffffffffffffffffffffffffffffffffffffffff16815260200190815260200160002060006101000a81548160ff021916908315150217905550612a76612549565b73ffffffffffffffffffffffffffffffffffffffff168173ffffffffffffffffffffffffffffffffffffffff16837f2f8788117e7eff1d82e926ec794901d17c78024a50270940304540a733656f0d60405160405180910390a45b5050565b6000612b107f8b73c3c69bb8fe3d512ecc4cf759cc79239f7b179b0ffacaa9a75d522b39400f612b03613cd6565b612b0b613ce1565b613cec565b905090565b612b1f828261157d565b15612bf35760006065600084815260200190815260200160002060000160008373ffffffffffffffffffffffffffffffffffffffff1673ffffffffffffffffffffffffffffffffffffffff16815260200190815260200160002060006101000a81548160ff021916908315150217905550612b98612549565b73ffffffffffffffffffffffffffffffffffffffff168173ffffffffffffffffffffffffffffffffffffffff16837ff6391f5c32d9c69d2a47ea670b442974b53935d1edc7fd64eb21e047a839171b60405160405180910390a45b5050565b612bff611272565b612c3e576040517f08c379a0000000000000000000000000000000000000000000000000000000008152600401612c3590615998565b60405180910390fd5b600061012e60006101000a81548160ff0219169083151502179055507f5db9ee0a495bf2e6ff9c91a7834c1ba4fdd244a5e8aa4e537bd38aeae4b073aa612c83612549565b604051612c909190615755565b60405180910390a1565b612cc67fa947d706f1be134bc05888ec4085c32ff9b883a3c33e2c9cb75cc0dd4092be2b60001b61128a565b612cf27f5760a09058641840281507a75b2d830880ce61955afb755324653843c09a8ae060001b61128a565b612d1e7f9cfc4e02778495781c46cedf72f81b58e1565ba3d35c59c78a24921aeac990bc60001b61128a565b612d288282613d26565b5050565b600073ffffffffffffffffffffffffffffffffffffffff168273ffffffffffffffffffffffffffffffffffffffff161415612d9c576040517f08c379a0000000000000000000000000000000000000000000000000000000008152600401612d9390615bb8565b60405180910390fd5b612da882600083613a8d565b6000609760008473ffffffffffffffffffffffffffffffffffffffff1673ffffffffffffffffffffffffffffffffffffffff16815260200190815260200160002054905081811015612e2f576040517f08c379a0000000000000000000000000000000000000000000000000000000008152600401612e26906159b8565b60405180910390fd5b8181612e3b9190615e52565b609760008573ffffffffffffffffffffffffffffffffffffffff1673ffffffffffffffffffffffffffffffffffffffff168152602001908152602001600020819055508160996000828254612e909190615e52565b92505081905550600073ffffffffffffffffffffffffffffffffffffffff168373ffffffffffffffffffffffffffffffffffffffff167fddf252ad1be2c89b69c2b068fc378daa952ba7f163c4a11628f55a4df523b3ef84604051612ef59190615d18565b60405180910390a3505050565b60008060008411612f48576040517f08c379a0000000000000000000000000000000000000000000000000000000008152600401612f3f90615c78565b60405180910390fd5b612f53610195613021565b841115612f95576040517f08c379a0000000000000000000000000000000000000000000000000000000008152600401612f8c90615918565b60405180910390fd5b6000612fad8585600001613d9090919063ffffffff16565b90508360000180549050811415612fcb57600080925092505061301a565b6001846001018281548110613009577f4e487b7100000000000000000000000000000000000000000000000000000000600052603260045260246000fd5b906000526020600020015492509250505b9250929050565b600081600001549050919050565b613037611272565b15613077576040517f08c379a000000000000000000000000000000000000000000000000000000000815260040161306e90615a98565b60405180910390fd5b600161012e60006101000a81548160ff0219169083151502179055507f62e78cea01bee320cd4e420270b5ea74000d11b0c9f74754ebdbfc544b05a2586130bc612549565b6040516130c99190615755565b60405180910390a1565b60006130e0610195613a77565b60006130ed610195613021565b90507f8030e83b04d87bef53480e26263266d6ca66863aa8506aca6f2559d18aa1cb678160405161311e9190615d18565b60405180910390a18091505090565b600060019054906101000a900460ff1680613153575060008054906101000a900460ff16155b613192576040517f08c379a000000000000000000000000000000000000000000000000000000000815260040161318990615ab8565b60405180910390fd5b60008060019054906101000a900460ff1615905080156131e2576001600060016101000a81548160ff02191690831515021790555060016000806101000a81548160ff0219169083151502179055505b6131ea613eb6565b801561320b5760008060016101000a81548160ff0219169083151502179055505b50565b600060019054906101000a900460ff1680613234575060008054906101000a900460ff16155b613273576040517f08c379a000000000000000000000000000000000000000000000000000000000815260040161326a90615ab8565b60405180910390fd5b60008060019054906101000a900460ff1615905080156132c3576001600060016101000a81548160ff02191690831515021790555060016000806101000a81548160ff0219169083151502179055505b6132cb613eb6565b6132d3613f8f565b6132db614068565b80156132fc5760008060016101000a81548160ff0219169083151502179055505b50565b600060019054906101000a900460ff1680613325575060008054906101000a900460ff16155b613364576040517f08c379a000000000000000000000000000000000000000000000000000000000815260040161335b90615ab8565b60405180910390fd5b60008060019054906101000a900460ff1615905080156133b4576001600060016101000a81548160ff02191690831515021790555060016000806101000a81548160ff0219169083151502179055505b6133bc613eb6565b6133c68383614141565b80156133e75760008060016101000a81548160ff0219169083151502179055505b505050565b600060019054906101000a900460ff1680613412575060008054906101000a900460ff16155b613451576040517f08c379a000000000000000000000000000000000000000000000000000000000815260040161344890615ab8565b60405180910390fd5b60008060019054906101000a900460ff1615905080156134a1576001600060016101000a81548160ff02191690831515021790555060016000806101000a81548160ff0219169083151502179055505b6134a9613eb6565b6134b28261424a565b80156134d35760008060016101000a81548160ff0219169083151502179055505b5050565b600060019054906101000a900460ff16806134fd575060008054906101000a900460ff16155b61353c576040517f08c379a000000000000000000000000000000000000000000000000000000000815260040161353390615ab8565b60405180910390fd5b60008060019054906101000a900460ff16159050801561358c576001600060016101000a81548160ff02191690831515021790555060016000806101000a81548160ff0219169083151502179055505b613594613eb6565b61359c61436e565b80156135bd5760008060016101000a81548160ff0219169083151502179055505b50565b600060019054906101000a900460ff16806135e6575060008054906101000a900460ff16155b613625576040517f08c379a000000000000000000000000000000000000000000000000000000000815260040161361c90615ab8565b60405180910390fd5b60008060019054906101000a900460ff161590508015613675576001600060016101000a81548160ff02191690831515021790555060016000806101000a81548160ff0219169083151502179055505b61367d613eb6565b613685614447565b61368d61453c565b80156136ae5760008060016101000a81548160ff0219169083151502179055505b50565b600060019054906101000a900460ff16806136d7575060008054906101000a900460ff16155b613716576040517f08c379a000000000000000000000000000000000000000000000000000000000815260040161370d90615ab8565b60405180910390fd5b60008060019054906101000a900460ff161590508015613766576001600060016101000a81548160ff02191690831515021790555060016000806101000a81548160ff0219169083151502179055505b61376e613eb6565b613776614615565b80156137975760008060016101000a81548160ff0219169083151502179055505b50565b600060019054906101000a900460ff16806137c0575060008054906101000a900460ff16155b6137ff576040517f08c379a00000000000000000000000000000000000000000000000000000000081526004016137f690615ab8565b60405180910390fd5b60008060019054906101000a900460ff16159050801561384f576001600060016101000a81548160ff02191690831515021790555060016000806101000a81548160ff0219169083151502179055505b613857613eb6565b613896826040518060400160405280600181526020017f31000000000000000000000000000000000000000000000000000000000000008152506146ee565b61389f826147f3565b80156138c05760008060016101000a81548160ff0219169083151502179055505b5050565b6138ce82826129f4565b5050565b60006138e56138df612ad5565b836148f5565b9050919050565b60007f7fffffffffffffffffffffffffffffff5d576e7357a4501ddfe92f46681b20a08260001c1115613954576040517f08c379a000000000000000000000000000000000000000000000000000000000815260040161394b90615a58565b60405180910390fd5b601b8460ff1614806139695750601c8460ff16145b6139a8576040517f08c379a000000000000000000000000000000000000000000000000000000000815260040161399f90615af8565b60405180910390fd5b6000600186868686604051600081526020016040526040516139cd9493929190615891565b6020604051602081039080840390855afa1580156139ef573d6000803e3d6000fd5b505050602060405103519050600073ffffffffffffffffffffffffffffffffffffffff168173ffffffffffffffffffffffffffffffffffffffff161415613a6b576040517f08c379a0000000000000000000000000000000000000000000000000000000008152600401613a62906158f8565b60405180910390fd5b80915050949350505050565b6001816000016000828254019250508190555050565b613ab97fe6781783959832be0043f2639849727635c13bf5ab083c180e9838db97525c0060001b61128a565b613ae57f01ca2e59d33d155d4f50c9271d41ef9e44e5b8ab46c88ab8d7aca1d42315202660001b61128a565b613b117fdcef5da98fdb37bd7641b705eb176ea008bc14e7db934e225697a58d9a61178560001b61128a565b613b1c838383614928565b613b487fc0ee20ce1786c6c48291bda22460029cddc0c8aaaad11153166243131766caac60001b61128a565b613b747f2dd0bcfee34c064e639f3292293b187f9a922f152e6f23876521e8a80a23e70760001b61128a565b61022b60149054906101000a900460ff16613ca457613bb57fb1e363396a1d14cf5f7e15395bf0fe15ea7cf9456ecad548e917bdbbc010848560001b61128a565b613be17f04c9a457f3d472c0cf96ab6050ae6e62ce2eed61ae1c45d3360ad282adb5dba460001b61128a565b613c0d7f5da662bedea7ddf4139d73cc901822a64f94833b242382cb12beef37a451dc6c60001b61128a565b61022b60009054906101000a900473ffffffffffffffffffffffffffffffffffffffff1673ffffffffffffffffffffffffffffffffffffffff16637c0a07fa8484846040518463ffffffff1660e01b8152600401613c6d93929190615770565b600060405180830381600087803b158015613c8757600080fd5b505af1158015613c9b573d6000803e3d6000fd5b50505050613cd1565b613cd07f1048e4c6c813d573d0d7e3eeee50353f6062ca78196e301da2a93bcf12e4de8a60001b61128a565b5b505050565b60006101c454905090565b60006101c554905090565b60008383834630604051602001613d0795949392919061583e565b6040516020818303038152906040528051906020012090509392505050565b613d2e610d45565b81613d376109ed565b613d419190615dcb565b1115613d82576040517f08c379a0000000000000000000000000000000000000000000000000000000008152600401613d7990615c38565b60405180910390fd5b613d8c82826149e2565b5050565b60008083805490501415613da75760009050613eb0565b600080848054905090505b80821015613e31576000613dc68383614b37565b905084868281548110613e02577f4e487b7100000000000000000000000000000000000000000000000000000000600052603260045260246000fd5b90600052602060002001541115613e1b57809150613e2b565b600181613e289190615dcb565b92505b50613db2565b600082118015613e8f57508385600184613e4b9190615e52565b81548110613e82577f4e487b7100000000000000000000000000000000000000000000000000000000600052603260045260246000fd5b9060005260206000200154145b15613eaa57600182613ea19190615e52565b92505050613eb0565b81925050505b92915050565b600060019054906101000a900460ff1680613edc575060008054906101000a900460ff16155b613f1b576040517f08c379a0000000000000000000000000000000000000000000000000000000008152600401613f1290615ab8565b60405180910390fd5b60008060019054906101000a900460ff161590508015613f6b576001600060016101000a81548160ff02191690831515021790555060016000806101000a81548160ff0219169083151502179055505b8015613f8c5760008060016101000a81548160ff0219169083151502179055505b50565b600060019054906101000a900460ff1680613fb5575060008054906101000a900460ff16155b613ff4576040517f08c379a0000000000000000000000000000000000000000000000000000000008152600401613feb90615ab8565b60405180910390fd5b60008060019054906101000a900460ff161590508015614044576001600060016101000a81548160ff02191690831515021790555060016000806101000a81548160ff0219169083151502179055505b80156140655760008060016101000a81548160ff0219169083151502179055505b50565b600060019054906101000a900460ff168061408e575060008054906101000a900460ff16155b6140cd576040517f08c379a00000000000000000000000000000000000000000000000000000000081526004016140c490615ab8565b60405180910390fd5b60008060019054906101000a900460ff16159050801561411d576001600060016101000a81548160ff02191690831515021790555060016000806101000a81548160ff0219169083151502179055505b801561413e5760008060016101000a81548160ff0219169083151502179055505b50565b600060019054906101000a900460ff1680614167575060008054906101000a900460ff16155b6141a6576040517f08c379a000000000000000000000000000000000000000000000000000000000815260040161419d90615ab8565b60405180910390fd5b60008060019054906101000a900460ff1615905080156141f6576001600060016101000a81548160ff02191690831515021790555060016000806101000a81548160ff0219169083151502179055505b82609a908051906020019061420c929190614d55565b5081609b9080519060200190614223929190614d55565b5080156142455760008060016101000a81548160ff0219169083151502179055505b505050565b600060019054906101000a900460ff1680614270575060008054906101000a900460ff16155b6142af576040517f08c379a00000000000000000000000000000000000000000000000000000000081526004016142a690615ab8565b60405180910390fd5b60008060019054906101000a900460ff1615905080156142ff576001600060016101000a81548160ff02191690831515021790555060016000806101000a81548160ff0219169083151502179055505b60008211614342576040517f08c379a000000000000000000000000000000000000000000000000000000000815260040161433990615958565b60405180910390fd5b8160c981905550801561436a5760008060016101000a81548160ff0219169083151502179055505b5050565b600060019054906101000a900460ff1680614394575060008054906101000a900460ff16155b6143d3576040517f08c379a00000000000000000000000000000000000000000000000000000000081526004016143ca90615ab8565b60405180910390fd5b60008060019054906101000a900460ff161590508015614423576001600060016101000a81548160ff02191690831515021790555060016000806101000a81548160ff0219169083151502179055505b80156144445760008060016101000a81548160ff0219169083151502179055505b50565b600060019054906101000a900460ff168061446d575060008054906101000a900460ff16155b6144ac576040517f08c379a00000000000000000000000000000000000000000000000000000000081526004016144a390615ab8565b60405180910390fd5b60008060019054906101000a900460ff1615905080156144fc576001600060016101000a81548160ff02191690831515021790555060016000806101000a81548160ff0219169083151502179055505b600061012e60006101000a81548160ff02191690831515021790555080156145395760008060016101000a81548160ff0219169083151502179055505b50565b600060019054906101000a900460ff1680614562575060008054906101000a900460ff16155b6145a1576040517f08c379a000000000000000000000000000000000000000000000000000000000815260040161459890615ab8565b60405180910390fd5b60008060019054906101000a900460ff1615905080156145f1576001600060016101000a81548160ff02191690831515021790555060016000806101000a81548160ff0219169083151502179055505b80156146125760008060016101000a81548160ff0219169083151502179055505b50565b600060019054906101000a900460ff168061463b575060008054906101000a900460ff16155b61467a576040517f08c379a000000000000000000000000000000000000000000000000000000000815260040161467190615ab8565b60405180910390fd5b60008060019054906101000a900460ff1615905080156146ca576001600060016101000a81548160ff02191690831515021790555060016000806101000a81548160ff0219169083151502179055505b80156146eb5760008060016101000a81548160ff0219169083151502179055505b50565b600060019054906101000a900460ff1680614714575060008054906101000a900460ff16155b614753576040517f08c379a000000000000000000000000000000000000000000000000000000000815260040161474a90615ab8565b60405180910390fd5b60008060019054906101000a900460ff1615905080156147a3576001600060016101000a81548160ff02191690831515021790555060016000806101000a81548160ff0219169083151502179055505b600083805190602001209050600083805190602001209050816101c481905550806101c581905550505080156147ee5760008060016101000a81548160ff0219169083151502179055505b505050565b600060019054906101000a900460ff1680614819575060008054906101000a900460ff16155b614858576040517f08c379a000000000000000000000000000000000000000000000000000000000815260040161484f90615ab8565b60405180910390fd5b60008060019054906101000a900460ff1615905080156148a8576001600060016101000a81548160ff02191690831515021790555060016000806101000a81548160ff0219169083151502179055505b7f6e71edae12b1b97f4d1f60370fef10105fa2faae0126114a169c64845d6126c96101f98190555080156148f15760008060016101000a81548160ff0219169083151502179055505b5050565b6000828260405160200161490a92919061571e565b60405160208183030381529060405280519060200120905092915050565b614933838383614b9e565b600073ffffffffffffffffffffffffffffffffffffffff168373ffffffffffffffffffffffffffffffffffffffff16141561497e5761497182614bf6565b614979614c4a565b6149dd565b600073ffffffffffffffffffffffffffffffffffffffff168273ffffffffffffffffffffffffffffffffffffffff1614156149c9576149bc83614bf6565b6149c4614c4a565b6149dc565b6149d283614bf6565b6149db82614bf6565b5b5b505050565b600073ffffffffffffffffffffffffffffffffffffffff168273ffffffffffffffffffffffffffffffffffffffff161415614a52576040517f08c379a0000000000000000000000000000000000000000000000000000000008152600401614a4990615cd8565b60405180910390fd5b614a5e60008383613a8d565b8060996000828254614a709190615dcb565b9250508190555080609760008473ffffffffffffffffffffffffffffffffffffffff1673ffffffffffffffffffffffffffffffffffffffff1681526020019081526020016000206000828254614ac69190615dcb565b925050819055508173ffffffffffffffffffffffffffffffffffffffff16600073ffffffffffffffffffffffffffffffffffffffff167fddf252ad1be2c89b69c2b068fc378daa952ba7f163c4a11628f55a4df523b3ef83604051614b2b9190615d18565b60405180910390a35050565b600060028083614b479190615fc0565b600285614b549190615fc0565b614b5e9190615dcb565b614b689190615e21565b600283614b759190615e21565b600285614b829190615e21565b614b8c9190615dcb565b614b969190615dcb565b905092915050565b614ba9838383614c5f565b614bb1611272565b15614bf1576040517f08c379a0000000000000000000000000000000000000000000000000000000008152600401614be890615cf8565b60405180910390fd5b505050565b614c4761019260008373ffffffffffffffffffffffffffffffffffffffff1673ffffffffffffffffffffffffffffffffffffffff168152602001908152602001600020614c42836112b1565b614c64565b50565b614c5d610193614c586109ed565b614c64565b565b505050565b6000614c71610195613021565b905080614c8084600001614ce2565b1015614cdd5782600001819080600181540180825580915050600190039060005260206000200160009091909190915055826001018290806001815401808255809150506001900390600052602060002001600090919091909150555b505050565b60008082805490501415614cf95760009050614d50565b8160018380549050614d0b9190615e52565b81548110614d42577f4e487b7100000000000000000000000000000000000000000000000000000000600052603260045260246000fd5b906000526020600020015490505b919050565b828054614d6190615f53565b90600052602060002090601f016020900481019282614d835760008555614dca565b82601f10614d9c57805160ff1916838001178555614dca565b82800160010185558215614dca579182015b82811115614dc9578251825591602001919060010190614dae565b5b509050614dd79190614ddb565b5090565b5b80821115614df4576000816000905550600101614ddc565b5090565b6000614e0b614e0684615d73565b615d4e565b905082815260208101848484011115614e2357600080fd5b614e2e848285615f11565b509392505050565b600081359050614e458161699a565b92915050565b600081359050614e5a816169b1565b92915050565b600081359050614e6f816169c8565b92915050565b600082601f830112614e8657600080fd5b8135614e96848260208601614df8565b91505092915050565b600081359050614eae816169df565b92915050565b600081359050614ec3816169f6565b92915050565b600060208284031215614edb57600080fd5b6000614ee984828501614e36565b91505092915050565b60008060408385031215614f0557600080fd5b6000614f1385828601614e36565b9250506020614f2485828601614e36565b9150509250929050565b600080600060608486031215614f4357600080fd5b6000614f5186828701614e36565b9350506020614f6286828701614e36565b9250506040614f7386828701614e9f565b9150509250925092565b600080600080600080600060e0888a031215614f9857600080fd5b6000614fa68a828b01614e36565b9750506020614fb78a828b01614e36565b9650506040614fc88a828b01614e9f565b9550506060614fd98a828b01614e9f565b9450506080614fea8a828b01614eb4565b93505060a0614ffb8a828b01614e4b565b92505060c061500c8a828b01614e4b565b91505092959891949750929550565b6000806040838503121561502e57600080fd5b600061503c85828601614e36565b925050602061504d85828601614e9f565b9150509250929050565b60006020828403121561506957600080fd5b600061507784828501614e4b565b91505092915050565b6000806040838503121561509357600080fd5b60006150a185828601614e4b565b92505060206150b285828601614e36565b9150509250929050565b600080604083850312156150cf57600080fd5b60006150dd85828601614e4b565b92505060206150ee85828601614e4b565b9150509250929050565b60006020828403121561510a57600080fd5b600061511884828501614e60565b91505092915050565b6000806000806080858703121561513757600080fd5b600085013567ffffffffffffffff81111561515157600080fd5b61515d87828801614e75565b945050602085013567ffffffffffffffff81111561517a57600080fd5b61518687828801614e75565b935050604061519787828801614e9f565b92505060606151a887828801614e36565b91505092959194509250565b6000602082840312156151c657600080fd5b60006151d484828501614e9f565b91505092915050565b6151e681615e86565b82525050565b6151f581615e98565b82525050565b61520481615ea4565b82525050565b61521b61521682615ea4565b615fb6565b82525050565b600061522c82615da4565b6152368185615daf565b9350615246818560208601615f20565b61524f816160ad565b840191505092915050565b6000615267601883615daf565b9150615272826160be565b602082019050919050565b600061528a601d83615daf565b9150615295826160e7565b602082019050919050565b60006152ad602383615daf565b91506152b882616110565b604082019050919050565b60006152d0601583615daf565b91506152db8261615f565b602082019050919050565b60006152f3602f83615daf565b91506152fe82616188565b604082019050919050565b6000615316601483615daf565b9150615321826161d7565b602082019050919050565b6000615339602283615daf565b915061534482616200565b604082019050919050565b600061535c602283615daf565b91506153678261624f565b604082019050919050565b600061537f602783615daf565b915061538a8261629e565b604082019050919050565b60006153a2600283615dc0565b91506153ad826162ed565b600282019050919050565b60006153c5601d83615daf565b91506153d082616316565b602082019050919050565b60006153e8602683615daf565b91506153f38261633f565b604082019050919050565b600061540b602283615daf565b91506154168261638e565b604082019050919050565b600061542e603083615daf565b9150615439826163dd565b604082019050919050565b6000615451601083615daf565b915061545c8261642c565b602082019050919050565b6000615474602e83615daf565b915061547f82616455565b604082019050919050565b6000615497602583615daf565b91506154a2826164a4565b604082019050919050565b60006154ba602283615daf565b91506154c5826164f3565b604082019050919050565b60006154dd602b83615daf565b91506154e882616542565b604082019050919050565b6000615500601e83615daf565b915061550b82616591565b602082019050919050565b6000615523602883615daf565b915061552e826165ba565b604082019050919050565b6000615546602683615daf565b915061555182616609565b604082019050919050565b6000615569602483615daf565b915061557482616658565b604082019050919050565b600061558c602183615daf565b9150615597826166a7565b604082019050919050565b60006155af602583615daf565b91506155ba826166f6565b604082019050919050565b60006155d2602d83615daf565b91506155dd82616745565b604082019050919050565b60006155f5602883615daf565b915061560082616794565b604082019050919050565b6000615618601983615daf565b9150615623826167e3565b602082019050919050565b600061563b602483615daf565b91506156468261680c565b604082019050919050565b600061565e601683615daf565b91506156698261685b565b602082019050919050565b6000615681602583615daf565b915061568c82616884565b604082019050919050565b60006156a4602f83615daf565b91506156af826168d3565b604082019050919050565b60006156c7601f83615daf565b91506156d282616922565b602082019050919050565b60006156ea602a83615daf565b91506156f58261694b565b604082019050919050565b61570981615efa565b82525050565b61571881615f04565b82525050565b600061572982615395565b9150615735828561520a565b602082019150615745828461520a565b6020820191508190509392505050565b600060208201905061576a60008301846151dd565b92915050565b600060608201905061578560008301866151dd565b61579260208301856151dd565b61579f6040830184615700565b949350505050565b60006020820190506157bc60008301846151ec565b92915050565b60006020820190506157d760008301846151fb565b92915050565b600060c0820190506157f260008301896151fb565b6157ff60208301886151dd565b61580c60408301876151dd565b6158196060830186615700565b6158266080830185615700565b61583360a0830184615700565b979650505050505050565b600060a08201905061585360008301886151fb565b61586060208301876151fb565b61586d60408301866151fb565b61587a6060830185615700565b61588760808301846151dd565b9695505050505050565b60006080820190506158a660008301876151fb565b6158b3602083018661570f565b6158c060408301856151fb565b6158cd60608301846151fb565b95945050505050565b600060208201905081810360008301526158f08184615221565b905092915050565b600060208201905081810360008301526159118161525a565b9050919050565b600060208201905081810360008301526159318161527d565b9050919050565b60006020820190508181036000830152615951816152a0565b9050919050565b60006020820190508181036000830152615971816152c3565b9050919050565b60006020820190508181036000830152615991816152e6565b9050919050565b600060208201905081810360008301526159b181615309565b9050919050565b600060208201905081810360008301526159d18161532c565b9050919050565b600060208201905081810360008301526159f18161534f565b9050919050565b60006020820190508181036000830152615a1181615372565b9050919050565b60006020820190508181036000830152615a31816153b8565b9050919050565b60006020820190508181036000830152615a51816153db565b9050919050565b60006020820190508181036000830152615a71816153fe565b9050919050565b60006020820190508181036000830152615a9181615421565b9050919050565b60006020820190508181036000830152615ab181615444565b9050919050565b60006020820190508181036000830152615ad181615467565b9050919050565b60006020820190508181036000830152615af18161548a565b9050919050565b60006020820190508181036000830152615b11816154ad565b9050919050565b60006020820190508181036000830152615b31816154d0565b9050919050565b60006020820190508181036000830152615b51816154f3565b9050919050565b60006020820190508181036000830152615b7181615516565b9050919050565b60006020820190508181036000830152615b9181615539565b9050919050565b60006020820190508181036000830152615bb18161555c565b9050919050565b60006020820190508181036000830152615bd18161557f565b9050919050565b60006020820190508181036000830152615bf1816155a2565b9050919050565b60006020820190508181036000830152615c11816155c5565b9050919050565b60006020820190508181036000830152615c31816155e8565b9050919050565b60006020820190508181036000830152615c518161560b565b9050919050565b60006020820190508181036000830152615c718161562e565b9050919050565b60006020820190508181036000830152615c9181615651565b9050919050565b60006020820190508181036000830152615cb181615674565b9050919050565b60006020820190508181036000830152615cd181615697565b9050919050565b60006020820190508181036000830152615cf1816156ba565b9050919050565b60006020820190508181036000830152615d11816156dd565b9050919050565b6000602082019050615d2d6000830184615700565b92915050565b6000602082019050615d48600083018461570f565b92915050565b6000615d58615d69565b9050615d648282615f85565b919050565b6000604051905090565b600067ffffffffffffffff821115615d8e57615d8d61607e565b5b615d97826160ad565b9050602081019050919050565b600081519050919050565b600082825260208201905092915050565b600081905092915050565b6000615dd682615efa565b9150615de183615efa565b9250827fffffffffffffffffffffffffffffffffffffffffffffffffffffffffffffffff03821115615e1657615e15615ff1565b5b828201905092915050565b6000615e2c82615efa565b9150615e3783615efa565b925082615e4757615e46616020565b5b828204905092915050565b6000615e5d82615efa565b9150615e6883615efa565b925082821015615e7b57615e7a615ff1565b5b828203905092915050565b6000615e9182615eda565b9050919050565b60008115159050919050565b6000819050919050565b60007fffffffff0000000000000000000000000000000000000000000000000000000082169050919050565b600073ffffffffffffffffffffffffffffffffffffffff82169050919050565b6000819050919050565b600060ff82169050919050565b82818337600083830152505050565b60005b83811015615f3e578082015181840152602081019050615f23565b83811115615f4d576000848401525b50505050565b60006002820490506001821680615f6b57607f821691505b60208210811415615f7f57615f7e61604f565b5b50919050565b615f8e826160ad565b810181811067ffffffffffffffff82111715615fad57615fac61607e565b5b80604052505050565b6000819050919050565b6000615fcb82615efa565b9150615fd683615efa565b925082615fe657615fe5616020565b5b828206905092915050565b7f4e487b7100000000000000000000000000000000000000000000000000000000600052601160045260246000fd5b7f4e487b7100000000000000000000000000000000000000000000000000000000600052601260045260246000fd5b7f4e487b7100000000000000000000000000000000000000000000000000000000600052602260045260246000fd5b7f4e487b7100000000000000000000000000000000000000000000000000000000600052604160045260246000fd5b6000601f19601f8301169050919050565b7f45434453413a20696e76616c6964207369676e61747572650000000000000000600082015250565b7f4552433230536e617073686f743a206e6f6e6578697374656e74206964000000600082015250565b7f45524332303a207472616e7366657220746f20746865207a65726f206164647260008201527f6573730000000000000000000000000000000000000000000000000000000000602082015250565b7f45524332304361707065643a2063617020697320300000000000000000000000600082015250565b7f416363657373436f6e74726f6c3a2073656e646572206d75737420626520616e60008201527f2061646d696e20746f206772616e740000000000000000000000000000000000602082015250565b7f5061757361626c653a206e6f7420706175736564000000000000000000000000600082015250565b7f45524332303a206275726e20616d6f756e7420657863656564732062616c616e60008201527f6365000000000000000000000000000000000000000000000000000000000000602082015250565b7f45524332303a20617070726f766520746f20746865207a65726f20616464726560008201527f7373000000000000000000000000000000000000000000000000000000000000602082015250565b7f7345524332303a206d7573742062652061646d696e20746f2073657420726f6c60008201527f652061646d696e00000000000000000000000000000000000000000000000000602082015250565b7f1901000000000000000000000000000000000000000000000000000000000000600082015250565b7f45524332305065726d69743a206578706972656420646561646c696e65000000600082015250565b7f45524332303a207472616e7366657220616d6f756e742065786365656473206260008201527f616c616e63650000000000000000000000000000000000000000000000000000602082015250565b7f45434453413a20696e76616c6964207369676e6174757265202773272076616c60008201527f7565000000000000000000000000000000000000000000000000000000000000602082015250565b7f416363657373436f6e74726f6c3a2073656e646572206d75737420626520616e60008201527f2061646d696e20746f207265766f6b6500000000000000000000000000000000602082015250565b7f5061757361626c653a2070617573656400000000000000000000000000000000600082015250565b7f496e697469616c697a61626c653a20636f6e747261637420697320616c72656160008201527f647920696e697469616c697a6564000000000000000000000000000000000000602082015250565b7f7345524332303a206d7573742068617665206d696e74657220726f6c6520746f60008201527f206d696e74000000000000000000000000000000000000000000000000000000602082015250565b7f45434453413a20696e76616c6964207369676e6174757265202776272076616c60008201527f7565000000000000000000000000000000000000000000000000000000000000602082015250565b7f7345524332303a206d757374206861766520736e617073686f7420726f6c652060008201527f746f20736e617073686f74000000000000000000000000000000000000000000602082015250565b7f45524332305065726d69743a20696e76616c6964207369676e61747572650000600082015250565b7f45524332303a207472616e7366657220616d6f756e742065786365656473206160008201527f6c6c6f77616e6365000000000000000000000000000000000000000000000000602082015250565b7f7345524332303a206d75737420686176652070617573657220726f6c6520746f60008201527f2070617573650000000000000000000000000000000000000000000000000000602082015250565b7f45524332303a206275726e20616d6f756e74206578636565647320616c6c6f7760008201527f616e636500000000000000000000000000000000000000000000000000000000602082015250565b7f45524332303a206275726e2066726f6d20746865207a65726f2061646472657360008201527f7300000000000000000000000000000000000000000000000000000000000000602082015250565b7f45524332303a207472616e736665722066726f6d20746865207a65726f20616460008201527f6472657373000000000000000000000000000000000000000000000000000000602082015250565b7f7345524332303a206d75737420626520734552433131353520746f207573652060008201527f7472616e7366657220686f6f6b00000000000000000000000000000000000000602082015250565b7f7345524332303a206d75737420686176652070617573657220726f6c6520746f60008201527f20756e7061757365000000000000000000000000000000000000000000000000602082015250565b7f45524332304361707065643a2063617020657863656564656400000000000000600082015250565b7f45524332303a20617070726f76652066726f6d20746865207a65726f2061646460008201527f7265737300000000000000000000000000000000000000000000000000000000602082015250565b7f4552433230536e617073686f743a206964206973203000000000000000000000600082015250565b7f45524332303a2064656372656173656420616c6c6f77616e63652062656c6f7760008201527f207a65726f000000000000000000000000000000000000000000000000000000602082015250565b7f416363657373436f6e74726f6c3a2063616e206f6e6c792072656e6f756e636560008201527f20726f6c657320666f722073656c660000000000000000000000000000000000602082015250565b7f45524332303a206d696e7420746f20746865207a65726f206164647265737300600082015250565b7f45524332305061757361626c653a20746f6b656e207472616e7366657220776860008201527f696c652070617573656400000000000000000000000000000000000000000000602082015250565b6169a381615e86565b81146169ae57600080fd5b50565b6169ba81615ea4565b81146169c557600080fd5b50565b6169d181615eae565b81146169dc57600080fd5b50565b6169e881615efa565b81146169f357600080fd5b50565b6169ff81615f04565b8114616a0a57600080fd5b5056fea2646970667358221220993b508b55e6711dc17ad4dfa548427538b1ea626b6a8f9e91ec120f29f36e0d64736f6c63430008010033",
  "linkReferences": {},
  "deployedLinkReferences": {}
}