{
  "_format": "hh-sol-artifact-1",
  "contractName": "sERC721",
  "sourceName": "contracts/core/SERC721.sol",
  "abi": [
    {
      "inputs": [
        {
          "internalType": "string",
          "name": "name",
          "type": "string"
        },
        {
          "internalType": "string",
          "name": "symbol",
          "type": "string"
        }
      ],
      "stateMutability": "nonpayable",
      "type": "constructor"
    },
    {
      "anonymous": false,
      "inputs": [
        {
          "indexed": true,
          "internalType": "address",
          "name": "owner",
          "type": "address"
        },
        {
          "indexed": true,
          "internalType": "address",
          "name": "approved",
          "type": "address"
        },
        {
          "indexed": true,
          "internalType": "uint256",
          "name": "tokenId",
          "type": "uint256"
        }
      ],
      "name": "Approval",
      "type": "event"
    },
    {
      "anonymous": false,
      "inputs": [
        {
          "indexed": true,
          "internalType": "address",
          "name": "owner",
          "type": "address"
        },
        {
          "indexed": true,
          "internalType": "address",
          "name": "operator",
          "type": "address"
        },
        {
          "indexed": false,
          "internalType": "bool",
          "name": "approved",
          "type": "bool"
        }
      ],
      "name": "ApprovalForAll",
      "type": "event"
    },
    {
      "anonymous": false,
      "inputs": [
        {
          "indexed": false,
          "internalType": "address",
          "name": "account",
          "type": "address"
        }
      ],
      "name": "Paused",
      "type": "event"
    },
    {
      "anonymous": false,
      "inputs": [
        {
          "indexed": true,
          "internalType": "bytes32",
          "name": "role",
          "type": "bytes32"
        },
        {
          "indexed": true,
          "internalType": "bytes32",
          "name": "previousAdminRole",
          "type": "bytes32"
        },
        {
          "indexed": true,
          "internalType": "bytes32",
          "name": "newAdminRole",
          "type": "bytes32"
        }
      ],
      "name": "RoleAdminChanged",
      "type": "event"
    },
    {
      "anonymous": false,
      "inputs": [
        {
          "indexed": true,
          "internalType": "bytes32",
          "name": "role",
          "type": "bytes32"
        },
        {
          "indexed": true,
          "internalType": "address",
          "name": "account",
          "type": "address"
        },
        {
          "indexed": true,
          "internalType": "address",
          "name": "sender",
          "type": "address"
        }
      ],
      "name": "RoleGranted",
      "type": "event"
    },
    {
      "anonymous": false,
      "inputs": [
        {
          "indexed": true,
          "internalType": "bytes32",
          "name": "role",
          "type": "bytes32"
        },
        {
          "indexed": true,
          "internalType": "address",
          "name": "account",
          "type": "address"
        },
        {
          "indexed": true,
          "internalType": "address",
          "name": "sender",
          "type": "address"
        }
      ],
      "name": "RoleRevoked",
      "type": "event"
    },
    {
      "anonymous": false,
      "inputs": [
        {
          "indexed": true,
          "internalType": "address",
          "name": "from",
          "type": "address"
        },
        {
          "indexed": true,
          "internalType": "address",
          "name": "to",
          "type": "address"
        },
        {
          "indexed": true,
          "internalType": "uint256",
          "name": "tokenId",
          "type": "uint256"
        }
      ],
      "name": "Transfer",
      "type": "event"
    },
    {
      "anonymous": false,
      "inputs": [
        {
          "indexed": false,
          "internalType": "address",
          "name": "account",
          "type": "address"
        }
      ],
      "name": "Unpaused",
      "type": "event"
    },
    {
      "inputs": [],
      "name": "DEFAULT_ADMIN_ROLE",
      "outputs": [
        {
          "internalType": "bytes32",
          "name": "",
          "type": "bytes32"
        }
      ],
      "stateMutability": "view",
      "type": "function"
    },
    {
      "inputs": [],
      "name": "MINTER_ROLE",
      "outputs": [
        {
          "internalType": "bytes32",
          "name": "",
          "type": "bytes32"
        }
      ],
      "stateMutability": "view",
      "type": "function"
    },
    {
      "inputs": [],
      "name": "PAUSER_ROLE",
      "outputs": [
        {
          "internalType": "bytes32",
          "name": "",
          "type": "bytes32"
        }
      ],
      "stateMutability": "view",
      "type": "function"
    },
    {
      "inputs": [
        {
          "internalType": "address",
          "name": "to",
          "type": "address"
        },
        {
          "internalType": "uint256",
          "name": "tokenId",
          "type": "uint256"
        }
      ],
      "name": "approve",
      "outputs": [],
      "stateMutability": "nonpayable",
      "type": "function"
    },
    {
      "inputs": [
        {
          "internalType": "address",
          "name": "owner",
          "type": "address"
        }
      ],
      "name": "balanceOf",
      "outputs": [
        {
          "internalType": "uint256",
          "name": "",
          "type": "uint256"
        }
      ],
      "stateMutability": "view",
      "type": "function"
    },
    {
      "inputs": [
        {
          "internalType": "uint256",
          "name": "tokenId",
          "type": "uint256"
        }
      ],
      "name": "burn",
      "outputs": [],
      "stateMutability": "nonpayable",
      "type": "function"
    },
    {
      "inputs": [
        {
          "internalType": "bytes32",
          "name": "c__0x4fba125f",
          "type": "bytes32"
        }
      ],
      "name": "c_0x4fba125f",
      "outputs": [],
      "stateMutability": "pure",
      "type": "function"
    },
    {
      "inputs": [
        {
          "internalType": "uint256",
          "name": "tokenId",
          "type": "uint256"
        }
      ],
      "name": "getApproved",
      "outputs": [
        {
          "internalType": "address",
          "name": "",
          "type": "address"
        }
      ],
      "stateMutability": "view",
      "type": "function"
    },
    {
      "inputs": [
        {
          "internalType": "bytes32",
          "name": "role",
          "type": "bytes32"
        }
      ],
      "name": "getRoleAdmin",
      "outputs": [
        {
          "internalType": "bytes32",
          "name": "",
          "type": "bytes32"
        }
      ],
      "stateMutability": "view",
      "type": "function"
    },
    {
      "inputs": [
        {
          "internalType": "bytes32",
          "name": "role",
          "type": "bytes32"
        },
        {
          "internalType": "uint256",
          "name": "index",
          "type": "uint256"
        }
      ],
      "name": "getRoleMember",
      "outputs": [
        {
          "internalType": "address",
          "name": "",
          "type": "address"
        }
      ],
      "stateMutability": "view",
      "type": "function"
    },
    {
      "inputs": [
        {
          "internalType": "bytes32",
          "name": "role",
          "type": "bytes32"
        }
      ],
      "name": "getRoleMemberCount",
      "outputs": [
        {
          "internalType": "uint256",
          "name": "",
          "type": "uint256"
        }
      ],
      "stateMutability": "view",
      "type": "function"
    },
    {
      "inputs": [
        {
          "internalType": "bytes32",
          "name": "role",
          "type": "bytes32"
        },
        {
          "internalType": "address",
          "name": "account",
          "type": "address"
        }
      ],
      "name": "grantRole",
      "outputs": [],
      "stateMutability": "nonpayable",
      "type": "function"
    },
    {
      "inputs": [
        {
          "internalType": "bytes32",
          "name": "role",
          "type": "bytes32"
        },
        {
          "internalType": "address",
          "name": "account",
          "type": "address"
        }
      ],
      "name": "hasRole",
      "outputs": [
        {
          "internalType": "bool",
          "name": "",
          "type": "bool"
        }
      ],
      "stateMutability": "view",
      "type": "function"
    },
    {
      "inputs": [
        {
          "internalType": "address",
          "name": "owner",
          "type": "address"
        },
        {
          "internalType": "address",
          "name": "operator",
          "type": "address"
        }
      ],
      "name": "isApprovedForAll",
      "outputs": [
        {
          "internalType": "bool",
          "name": "",
          "type": "bool"
        }
      ],
      "stateMutability": "view",
      "type": "function"
    },
    {
      "inputs": [
        {
          "internalType": "address",
          "name": "to",
          "type": "address"
        },
        {
          "internalType": "string",
          "name": "_tokenURI",
          "type": "string"
        }
      ],
      "name": "mint",
      "outputs": [],
      "stateMutability": "nonpayable",
      "type": "function"
    },
    {
      "inputs": [],
      "name": "name",
      "outputs": [
        {
          "internalType": "string",
          "name": "",
          "type": "string"
        }
      ],
      "stateMutability": "view",
      "type": "function"
    },
    {
      "inputs": [
        {
          "internalType": "uint256",
          "name": "tokenId",
          "type": "uint256"
        }
      ],
      "name": "ownerOf",
      "outputs": [
        {
          "internalType": "address",
          "name": "",
          "type": "address"
        }
      ],
      "stateMutability": "view",
      "type": "function"
    },
    {
      "inputs": [],
      "name": "pause",
      "outputs": [],
      "stateMutability": "nonpayable",
      "type": "function"
    },
    {
      "inputs": [],
      "name": "paused",
      "outputs": [
        {
          "internalType": "bool",
          "name": "",
          "type": "bool"
        }
      ],
      "stateMutability": "view",
      "type": "function"
    },
    {
      "inputs": [
        {
          "internalType": "bytes32",
          "name": "role",
          "type": "bytes32"
        },
        {
          "internalType": "address",
          "name": "account",
          "type": "address"
        }
      ],
      "name": "renounceRole",
      "outputs": [],
      "stateMutability": "nonpayable",
      "type": "function"
    },
    {
      "inputs": [
        {
          "internalType": "bytes32",
          "name": "role",
          "type": "bytes32"
        },
        {
          "internalType": "address",
          "name": "account",
          "type": "address"
        }
      ],
      "name": "revokeRole",
      "outputs": [],
      "stateMutability": "nonpayable",
      "type": "function"
    },
    {
      "inputs": [
        {
          "internalType": "address",
          "name": "from",
          "type": "address"
        },
        {
          "internalType": "address",
          "name": "to",
          "type": "address"
        },
        {
          "internalType": "uint256",
          "name": "tokenId",
          "type": "uint256"
        }
      ],
      "name": "safeTransferFrom",
      "outputs": [],
      "stateMutability": "nonpayable",
      "type": "function"
    },
    {
      "inputs": [
        {
          "internalType": "address",
          "name": "from",
          "type": "address"
        },
        {
          "internalType": "address",
          "name": "to",
          "type": "address"
        },
        {
          "internalType": "uint256",
          "name": "tokenId",
          "type": "uint256"
        },
        {
          "internalType": "bytes",
          "name": "_data",
          "type": "bytes"
        }
      ],
      "name": "safeTransferFrom",
      "outputs": [],
      "stateMutability": "nonpayable",
      "type": "function"
    },
    {
      "inputs": [
        {
          "internalType": "address",
          "name": "operator",
          "type": "address"
        },
        {
          "internalType": "bool",
          "name": "approved",
          "type": "bool"
        }
      ],
      "name": "setApprovalForAll",
      "outputs": [],
      "stateMutability": "nonpayable",
      "type": "function"
    },
    {
      "inputs": [
        {
          "internalType": "bytes4",
          "name": "interfaceId",
          "type": "bytes4"
        }
      ],
      "name": "supportsInterface",
      "outputs": [
        {
          "internalType": "bool",
          "name": "",
          "type": "bool"
        }
      ],
      "stateMutability": "view",
      "type": "function"
    },
    {
      "inputs": [],
      "name": "symbol",
      "outputs": [
        {
          "internalType": "string",
          "name": "",
          "type": "string"
        }
      ],
      "stateMutability": "view",
      "type": "function"
    },
    {
      "inputs": [
        {
          "internalType": "uint256",
          "name": "index",
          "type": "uint256"
        }
      ],
      "name": "tokenByIndex",
      "outputs": [
        {
          "internalType": "uint256",
          "name": "",
          "type": "uint256"
        }
      ],
      "stateMutability": "view",
      "type": "function"
    },
    {
      "inputs": [
        {
          "internalType": "address",
          "name": "owner",
          "type": "address"
        },
        {
          "internalType": "uint256",
          "name": "index",
          "type": "uint256"
        }
      ],
      "name": "tokenOfOwnerByIndex",
      "outputs": [
        {
          "internalType": "uint256",
          "name": "",
          "type": "uint256"
        }
      ],
      "stateMutability": "view",
      "type": "function"
    },
    {
      "inputs": [
        {
          "internalType": "uint256",
          "name": "tokenId",
          "type": "uint256"
        }
      ],
      "name": "tokenURI",
      "outputs": [
        {
          "internalType": "string",
          "name": "",
          "type": "string"
        }
      ],
      "stateMutability": "view",
      "type": "function"
    },
    {
      "inputs": [],
      "name": "totalSupply",
      "outputs": [
        {
          "internalType": "uint256",
          "name": "",
          "type": "uint256"
        }
      ],
      "stateMutability": "view",
      "type": "function"
    },
    {
      "inputs": [
        {
          "internalType": "address",
          "name": "from",
          "type": "address"
        },
        {
          "internalType": "address",
          "name": "to",
          "type": "address"
        },
        {
          "internalType": "uint256",
          "name": "tokenId",
          "type": "uint256"
        }
      ],
      "name": "transferFrom",
      "outputs": [],
      "stateMutability": "nonpayable",
      "type": "function"
    },
    {
      "inputs": [],
      "name": "unpause",
      "outputs": [],
      "stateMutability": "nonpayable",
      "type": "function"
    }
  ],
  "bytecode": "0x60806040523480156200001157600080fd5b5060405162005aaa38038062005aaa83398181016040528101906200003791906200065d565b81818160029080519060200190620000519291906200053b565b5080600390805190602001906200006a9291906200053b565b5050506000600c60006101000a81548160ff021916908315150217905550620000bc7fdb0194bb917a16155916b2ef37104c200ab2fa2ae85885030fa94087ef75d23860001b620002a260201b60201c565b620000f07f5ed7507465d58b2b730b451df324d37342aad9db48a3185554803a5ce574ce1260001b620002a260201b60201c565b620001247f5396e024c3b879939bf37239cb2e4849c40538d538906869d9ea34b9bfdfe89060001b620002a260201b60201c565b620001486000801b6200013c620002a560201b60201c565b620002ad60201b60201c565b6200017c7fcf0c8bb6e22146663d8348f31625fc03cfe477d4c7c2cdce7450968da9e647a360001b620002a260201b60201c565b620001b07f6a714753e6952974b8de443666266cb3975ea3645d260d56166bc54dca3ba3a560001b620002a260201b60201c565b620001f17f9f2df0fed2c77648de5860a4cc508cd0818c85b8b8a1ab4ceeef8d981c8956a6620001e5620002a560201b60201c565b620002ad60201b60201c565b620002257f5d1edefe6bc597ec1123f1bea632b9087456988cd22bdf923c3a2a6f820d96ae60001b620002a260201b60201c565b620002597fb19550e3427da7bad36912df225bfe1c4a4dc9098dd4ea76a3ba9558348ebafd60001b620002a260201b60201c565b6200029a7f65d7a28e3265b37a6474929f336521b332c1681b933f6cb9f3376673440d862a6200028e620002a560201b60201c565b620002ad60201b60201c565b505062000840565b50565b600033905090565b620002c48282620002f560201b6200185c1760201c565b620002f081600160008581526020019081526020016000206200030b60201b6200186a1790919060201c565b505050565b6200030782826200034360201b60201c565b5050565b60006200033b836000018373ffffffffffffffffffffffffffffffffffffffff1660001b6200043460201b60201c565b905092915050565b620003558282620004ae60201b60201c565b6200043057600160008084815260200190815260200160002060000160008373ffffffffffffffffffffffffffffffffffffffff1673ffffffffffffffffffffffffffffffffffffffff16815260200190815260200160002060006101000a81548160ff021916908315150217905550620003d5620002a560201b60201c565b73ffffffffffffffffffffffffffffffffffffffff168173ffffffffffffffffffffffffffffffffffffffff16837f2f8788117e7eff1d82e926ec794901d17c78024a50270940304540a733656f0d60405160405180910390a45b5050565b60006200044883836200051860201b60201c565b620004a3578260000182908060018154018082558091505060019003906000526020600020016000909190919091505582600001805490508360010160008481526020019081526020016000208190555060019050620004a8565b600090505b92915050565b600080600084815260200190815260200160002060000160008373ffffffffffffffffffffffffffffffffffffffff1673ffffffffffffffffffffffffffffffffffffffff16815260200190815260200160002060009054906101000a900460ff16905092915050565b600080836001016000848152602001908152602001600020541415905092915050565b828054620005499062000765565b90600052602060002090601f0160209004810192826200056d5760008555620005b9565b82601f106200058857805160ff1916838001178555620005b9565b82800160010185558215620005b9579182015b82811115620005b85782518255916020019190600101906200059b565b5b509050620005c89190620005cc565b5090565b5b80821115620005e7576000816000905550600101620005cd565b5090565b600062000602620005fc84620006f9565b620006d0565b9050828152602081018484840111156200061b57600080fd5b620006288482856200072f565b509392505050565b600082601f8301126200064257600080fd5b815162000654848260208601620005eb565b91505092915050565b600080604083850312156200067157600080fd5b600083015167ffffffffffffffff8111156200068c57600080fd5b6200069a8582860162000630565b925050602083015167ffffffffffffffff811115620006b857600080fd5b620006c68582860162000630565b9150509250929050565b6000620006dc620006ef565b9050620006ea82826200079b565b919050565b6000604051905090565b600067ffffffffffffffff82111562000717576200071662000800565b5b62000722826200082f565b9050602081019050919050565b60005b838110156200074f57808201518184015260208101905062000732565b838111156200075f576000848401525b50505050565b600060028204905060018216806200077e57607f821691505b60208210811415620007955762000794620007d1565b5b50919050565b620007a6826200082f565b810181811067ffffffffffffffff82111715620007c857620007c762000800565b5b80604052505050565b7f4e487b7100000000000000000000000000000000000000000000000000000000600052602260045260246000fd5b7f4e487b7100000000000000000000000000000000000000000000000000000000600052604160045260246000fd5b6000601f19601f8301169050919050565b61525a80620008506000396000f3fe608060405234801561001057600080fd5b50600436106101f05760003560e01c806370a082311161010f578063b88d4fde116100a2578063d539139311610071578063d5391393146105c7578063d547741f146105e5578063e63ab1e914610601578063e985e9c51461061f576101f0565b8063b88d4fde1461052f578063c87b56dd1461054b578063ca15c8731461057b578063d0def521146105ab576101f0565b806391d14854116100de57806391d14854146104a757806395d89b41146104d7578063a217fddf146104f5578063a22cb46514610513576101f0565b806370a0823114610421578063811b6fad146104515780638456cb591461046d5780639010d07c14610477576101f0565b80632f745c591161018757806342966c681161015657806342966c68146103875780634f6ccce7146103a35780635c975abb146103d35780636352211e146103f1576101f0565b80632f745c591461031557806336568abe146103455780633f4ba83a1461036157806342842e0e1461036b576101f0565b806318160ddd116101c357806318160ddd1461028f57806323b872dd146102ad578063248a9ca3146102c95780632f2ff15d146102f9576101f0565b806301ffc9a7146101f557806306fdde0314610225578063081812fc14610243578063095ea7b314610273575b600080fd5b61020f600480360381019061020a9190613b9e565b61064f565b60405161021c919061417a565b60405180910390f35b61022d6106e5565b60405161023a91906141b0565b60405180910390f35b61025d60048036038101906102589190613bf0565b610777565b60405161026a9190614113565b60405180910390f35b61028d60048036038101906102889190613ac1565b6107fc565b005b610297610914565b6040516102a49190614572565b60405180910390f35b6102c760048036038101906102c29190613967565b610921565b005b6102e360048036038101906102de9190613afd565b610981565b6040516102f09190614195565b60405180910390f35b610313600480360381019061030e9190613b26565b6109a0565b005b61032f600480360381019061032a9190613ac1565b6109d4565b60405161033c9190614572565b60405180910390f35b61035f600480360381019061035a9190613b26565b610a79565b005b610369610aad565b005b61038560048036038101906103809190613967565b610c5b565b005b6103a1600480360381019061039c9190613bf0565b610c7b565b005b6103bd60048036038101906103b89190613bf0565b610cd7565b6040516103ca9190614572565b60405180910390f35b6103db610d6e565b6040516103e8919061417a565b60405180910390f35b61040b60048036038101906104069190613bf0565b610d85565b6040516104189190614113565b60405180910390f35b61043b60048036038101906104369190613902565b610e37565b6040516104489190614572565b60405180910390f35b61046b60048036038101906104669190613afd565b610eef565b005b610475610ef2565b005b610491600480360381019061048c9190613b62565b6110a0565b60405161049e9190614113565b60405180910390f35b6104c160048036038101906104bc9190613b26565b6110cf565b6040516104ce919061417a565b60405180910390f35b6104df611139565b6040516104ec91906141b0565b60405180910390f35b6104fd6111cb565b60405161050a9190614195565b60405180910390f35b61052d60048036038101906105289190613a31565b6111d2565b005b610549600480360381019061054491906139b6565b611353565b005b61056560048036038101906105609190613bf0565b6113b5565b60405161057291906141b0565b60405180910390f35b61059560048036038101906105909190613afd565b61144b565b6040516105a29190614572565b60405180910390f35b6105c560048036038101906105c09190613a6d565b61146f565b005b6105cf61174c565b6040516105dc9190614195565b60405180910390f35b6105ff60048036038101906105fa9190613b26565b611770565b005b6106096117a4565b6040516106169190614195565b60405180910390f35b6106396004803603810190610634919061392b565b6117c8565b604051610646919061417a565b60405180910390f35b600061067d7ff8a49ecd869d85efb9032e15ef9bc100432df6c186dcc3dc6f083ecfdbf383c860001b610eef565b6106a97f67f6e6377b38f0a18980f036699a95e46967ad5a7cbda2b66c4fc5e8a015f4c860001b610eef565b6106d57f1553956c4b0dcd3fc8573a89e5ab6d2e828add9c772866f9e96dd460720f4e7f60001b610eef565b6106de8261189a565b9050919050565b6060600280546106f4906147d2565b80601f0160208091040260200160405190810160405280929190818152602001828054610720906147d2565b801561076d5780601f106107425761010080835404028352916020019161076d565b820191906000526020600020905b81548152906001019060200180831161075057829003601f168201915b5050505050905090565b600061078282611914565b6107c1576040517f08c379a00000000000000000000000000000000000000000000000000000000081526004016107b890614452565b60405180910390fd5b6006600083815260200190815260200160002060009054906101000a900473ffffffffffffffffffffffffffffffffffffffff169050919050565b600061080782610d85565b90508073ffffffffffffffffffffffffffffffffffffffff168373ffffffffffffffffffffffffffffffffffffffff161415610878576040517f08c379a000000000000000000000000000000000000000000000000000000000815260040161086f906144b2565b60405180910390fd5b8073ffffffffffffffffffffffffffffffffffffffff16610897611980565b73ffffffffffffffffffffffffffffffffffffffff1614806108c657506108c5816108c0611980565b6117c8565b5b610905576040517f08c379a00000000000000000000000000000000000000000000000000000000081526004016108fc90614392565b60405180910390fd5b61090f8383611988565b505050565b6000600a80549050905090565b61093261092c611980565b82611a41565b610971576040517f08c379a0000000000000000000000000000000000000000000000000000000008152600401610968906144f2565b60405180910390fd5b61097c838383611b1f565b505050565b6000806000838152602001908152602001600020600101549050919050565b6109aa8282611d7b565b6109cf816001600085815260200190815260200160002061186a90919063ffffffff16565b505050565b60006109df83610e37565b8210610a20576040517f08c379a0000000000000000000000000000000000000000000000000000000008152600401610a1790614272565b60405180910390fd5b600860008473ffffffffffffffffffffffffffffffffffffffff1673ffffffffffffffffffffffffffffffffffffffff168152602001908152602001600020600083815260200190815260200160002054905092915050565b610a838282611de1565b610aa88160016000858152602001908152602001600020611e6490919063ffffffff16565b505050565b610ad97f3af7e715a3dee623e7c006d94b4e85bc97192a538735cee3c650494176d76fd460001b610eef565b610b057f08db362bcac29dd552faf57783d4924a92c0b48c726979667229124ef807a1e760001b610eef565b610b317feca3503bc4c2934f45ab5f9514085a544bf6a4a2492a197ab8a294e831b7b5d560001b610eef565b610b5d7f54e9131b00e7bb0a9e10cf974bad95e983cc4a0e593259e64aa7a22adb5d594360001b610eef565b610b8e7f65d7a28e3265b37a6474929f336521b332c1681b933f6cb9f3376673440d862a610b89611980565b6110cf565b610bcd576040517f08c379a0000000000000000000000000000000000000000000000000000000008152600401610bc4906144d2565b60405180910390fd5b610bf97fcc19b9e234a77ebb35930eca5b791378ee175fc2947162f26edf1657bff879a860001b610eef565b610c257f3d90eda28bd8bedfcb9d41e91b01b359e2498132f523aa19a2aaf90fcc19a31260001b610eef565b610c517f3a7ff0a18d25453ba2665d1cddcbd77ea06308ed8e9c4a12899f81af3e058d2660001b610eef565b610c59611e94565b565b610c7683838360405180602001604052806000815250611353565b505050565b610c8c610c86611980565b82611a41565b610ccb576040517f08c379a0000000000000000000000000000000000000000000000000000000008152600401610cc290614532565b60405180910390fd5b610cd481611f36565b50565b6000610ce1610914565b8210610d22576040517f08c379a0000000000000000000000000000000000000000000000000000000008152600401610d1990614512565b60405180910390fd5b600a8281548110610d5c577f4e487b7100000000000000000000000000000000000000000000000000000000600052603260045260246000fd5b90600052602060002001549050919050565b6000600c60009054906101000a900460ff16905090565b6000806004600084815260200190815260200160002060009054906101000a900473ffffffffffffffffffffffffffffffffffffffff169050600073ffffffffffffffffffffffffffffffffffffffff168173ffffffffffffffffffffffffffffffffffffffff161415610e2e576040517f08c379a0000000000000000000000000000000000000000000000000000000008152600401610e25906143d2565b60405180910390fd5b80915050919050565b60008073ffffffffffffffffffffffffffffffffffffffff168273ffffffffffffffffffffffffffffffffffffffff161415610ea8576040517f08c379a0000000000000000000000000000000000000000000000000000000008152600401610e9f906143b2565b60405180910390fd5b600560008373ffffffffffffffffffffffffffffffffffffffff1673ffffffffffffffffffffffffffffffffffffffff168152602001908152602001600020549050919050565b50565b610f1e7fa33d2d4a9959e47891b1f10b707c386a48def837c466c21952ef44138042eb6b60001b610eef565b610f4a7f3b2a704b106be7de4b6334aa52443df933404270afc4ad89096f96f53b6b431660001b610eef565b610f767f475b44e63d76ef2a2b6c756b7087b1eb5fade769c1b60c1bb52e94d89dc845c860001b610eef565b610fa27ff0549d3b19ff6dec7a29e490fc4e05f558379981df29d9a3ad73c63a8cdb0c5060001b610eef565b610fd37f65d7a28e3265b37a6474929f336521b332c1681b933f6cb9f3376673440d862a610fce611980565b6110cf565b611012576040517f08c379a000000000000000000000000000000000000000000000000000000000815260040161100990614252565b60405180910390fd5b61103e7f5d6570842a71a2942ea44d054df52b83be9a658b6ca14ae673a4d3060d8b7af760001b610eef565b61106a7f7ac79cc8d8cc5e3c4fe1a279fbc23a4e902e485be99d18dbc27e303b857c33aa60001b610eef565b6110967fe807d6d259cf55fde4937eb129e08f2f92de22a3a0bdc6ea9a960f8ec4b82be960001b610eef565b61109e611fc6565b565b60006110c7826001600086815260200190815260200160002061206990919063ffffffff16565b905092915050565b600080600084815260200190815260200160002060000160008373ffffffffffffffffffffffffffffffffffffffff1673ffffffffffffffffffffffffffffffffffffffff16815260200190815260200160002060009054906101000a900460ff16905092915050565b606060038054611148906147d2565b80601f0160208091040260200160405190810160405280929190818152602001828054611174906147d2565b80156111c15780601f10611196576101008083540402835291602001916111c1565b820191906000526020600020905b8154815290600101906020018083116111a457829003601f168201915b5050505050905090565b6000801b81565b6111da611980565b73ffffffffffffffffffffffffffffffffffffffff168273ffffffffffffffffffffffffffffffffffffffff161415611248576040517f08c379a000000000000000000000000000000000000000000000000000000000815260040161123f90614312565b60405180910390fd5b8060076000611255611980565b73ffffffffffffffffffffffffffffffffffffffff1673ffffffffffffffffffffffffffffffffffffffff16815260200190815260200160002060008473ffffffffffffffffffffffffffffffffffffffff1673ffffffffffffffffffffffffffffffffffffffff16815260200190815260200160002060006101000a81548160ff0219169083151502179055508173ffffffffffffffffffffffffffffffffffffffff16611302611980565b73ffffffffffffffffffffffffffffffffffffffff167f17307eab39ab6107e8899845ad3d59bd9653f200f220920489ca2b5937696c3183604051611347919061417a565b60405180910390a35050565b61136461135e611980565b83611a41565b6113a3576040517f08c379a000000000000000000000000000000000000000000000000000000000815260040161139a906144f2565b60405180910390fd5b6113af84848484612083565b50505050565b60606113e37f088d6ef1a20c98f47851d8ea25fb7b25ce1998181ffbeefbf81191764fad561360001b610eef565b61140f7f8e7d1420a8682cf910cde20361dc017a93eb6b119389a6f7096378b5f370184560001b610eef565b61143b7f454f1310fe0b218802db4f41b79d483040a37aed994dfb1695fe6319f7eb64d960001b610eef565b611444826120df565b9050919050565b600061146860016000848152602001908152602001600020612231565b9050919050565b61149b7f71405567b88102967f947185f359960d1a4259bcdbff299ed099c62cdbd77c0a60001b610eef565b6114c77fa9cc0a48cddb8e13c22f1ed121ff2597cf4a509bccc2bd49ead8093b6430a3cf60001b610eef565b6114f37f77da8ec4fd2066a148474de6a89911612b3b8cdb01f3629320c453e2d60f54f560001b610eef565b61151f7fe1a4d61fdaa8985173b5bb6e74fffe761ea4dadedfc70b9ec52d8d6fd799c65260001b610eef565b6115507f9f2df0fed2c77648de5860a4cc508cd0818c85b8b8a1ab4ceeef8d981c8956a661154b611980565b6110cf565b61158f576040517f08c379a0000000000000000000000000000000000000000000000000000000008152600401611586906142b2565b60405180910390fd5b6115bb7f2bae4039926f37e4f0d81589880b75088f0274da4c3ab5ec76cb682afc572aac60001b610eef565b6115e77fefe94f0360a8e0cd7e8ec39936367a5f64c5ad15f921e64be5d263f831a2b2a660001b610eef565b6116137f4bd60ee6f467936da15763d0abd375cd4918fa7d65c053eb3ba8145d3b97b08860001b610eef565b600061161f600e612246565b905061164d7f57e441e0814bb9e8670078a90fc7b64258a7fa1d04610f1122bf4a85f6a5cc8760001b610eef565b6116797fdc00a653d8c7fa06f3db63091a87121a6965ce7d169abfad4fb2623bd1efbd4060001b610eef565b6116838382612254565b6116af7f4a0dd3aaac8876bb28d54c41aa07e2663e25b8996183b3374be25d7f2f3e2e3d60001b610eef565b6116db7fc44440428bf3a394bdc7b1aa4654f883155b3c6128f8c82f45eec3eb65d22f5f60001b610eef565b6116e58183612422565b6117117f795501ca138e7b2fdd8848ee0796d92178c017ba8c5ab479c1300bd1e2ee91c560001b610eef565b61173d7fa681417a25b3fb13fbfd912d8cbdd5ade76040347d5aa51399ae1b8c5a52445760001b610eef565b611747600e612496565b505050565b7f9f2df0fed2c77648de5860a4cc508cd0818c85b8b8a1ab4ceeef8d981c8956a681565b61177a82826124ac565b61179f8160016000858152602001908152602001600020611e6490919063ffffffff16565b505050565b7f65d7a28e3265b37a6474929f336521b332c1681b933f6cb9f3376673440d862a81565b6000600760008473ffffffffffffffffffffffffffffffffffffffff1673ffffffffffffffffffffffffffffffffffffffff16815260200190815260200160002060008373ffffffffffffffffffffffffffffffffffffffff1673ffffffffffffffffffffffffffffffffffffffff16815260200190815260200160002060009054906101000a900460ff16905092915050565b6118668282612512565b5050565b6000611892836000018373ffffffffffffffffffffffffffffffffffffffff1660001b6125f2565b905092915050565b60007f780e9d63000000000000000000000000000000000000000000000000000000007bffffffffffffffffffffffffffffffffffffffffffffffffffffffff1916827bffffffffffffffffffffffffffffffffffffffffffffffffffffffff1916148061190d575061190c82612662565b5b9050919050565b60008073ffffffffffffffffffffffffffffffffffffffff166004600084815260200190815260200160002060009054906101000a900473ffffffffffffffffffffffffffffffffffffffff1673ffffffffffffffffffffffffffffffffffffffff1614159050919050565b600033905090565b816006600083815260200190815260200160002060006101000a81548173ffffffffffffffffffffffffffffffffffffffff021916908373ffffffffffffffffffffffffffffffffffffffff160217905550808273ffffffffffffffffffffffffffffffffffffffff166119fb83610d85565b73ffffffffffffffffffffffffffffffffffffffff167f8c5be1e5ebec7d5bd14f71427d1e84f3dd0314c0f7b2291e5b200ac8c7c3b92560405160405180910390a45050565b6000611a4c82611914565b611a8b576040517f08c379a0000000000000000000000000000000000000000000000000000000008152600401611a8290614332565b60405180910390fd5b6000611a9683610d85565b90508073ffffffffffffffffffffffffffffffffffffffff168473ffffffffffffffffffffffffffffffffffffffff161480611b0557508373ffffffffffffffffffffffffffffffffffffffff16611aed84610777565b73ffffffffffffffffffffffffffffffffffffffff16145b80611b165750611b1581856117c8565b5b91505092915050565b8273ffffffffffffffffffffffffffffffffffffffff16611b3f82610d85565b73ffffffffffffffffffffffffffffffffffffffff1614611b95576040517f08c379a0000000000000000000000000000000000000000000000000000000008152600401611b8c90614472565b60405180910390fd5b600073ffffffffffffffffffffffffffffffffffffffff168273ffffffffffffffffffffffffffffffffffffffff161415611c05576040517f08c379a0000000000000000000000000000000000000000000000000000000008152600401611bfc906142f2565b60405180910390fd5b611c10838383612744565b611c1b600082611988565b6001600560008573ffffffffffffffffffffffffffffffffffffffff1673ffffffffffffffffffffffffffffffffffffffff1681526020019081526020016000206000828254611c6b91906146de565b925050819055506001600560008473ffffffffffffffffffffffffffffffffffffffff1673ffffffffffffffffffffffffffffffffffffffff1681526020019081526020016000206000828254611cc29190614657565b92505081905550816004600083815260200190815260200160002060006101000a81548173ffffffffffffffffffffffffffffffffffffffff021916908373ffffffffffffffffffffffffffffffffffffffff160217905550808273ffffffffffffffffffffffffffffffffffffffff168473ffffffffffffffffffffffffffffffffffffffff167fddf252ad1be2c89b69c2b068fc378daa952ba7f163c4a11628f55a4df523b3ef60405160405180910390a4505050565b611d94611d8783610981565b611d8f611980565b6110cf565b611dd3576040517f08c379a0000000000000000000000000000000000000000000000000000000008152600401611dca90614212565b60405180910390fd5b611ddd8282612512565b5050565b611de9611980565b73ffffffffffffffffffffffffffffffffffffffff168173ffffffffffffffffffffffffffffffffffffffff1614611e56576040517f08c379a0000000000000000000000000000000000000000000000000000000008152600401611e4d90614552565b60405180910390fd5b611e6082826127d8565b5050565b6000611e8c836000018373ffffffffffffffffffffffffffffffffffffffff1660001b6128b9565b905092915050565b611e9c610d6e565b611edb576040517f08c379a0000000000000000000000000000000000000000000000000000000008152600401611ed290614232565b60405180910390fd5b6000600c60006101000a81548160ff0219169083151502179055507f5db9ee0a495bf2e6ff9c91a7834c1ba4fdd244a5e8aa4e537bd38aeae4b073aa611f1f611980565b604051611f2c9190614113565b60405180910390a1565b611f627f10a294629100acec8722f1f591c930fa44bba79534343a28fddfbead7b3e46e560001b610eef565b611f8e7f2f1aa50b2e92ada1493b54ae9adcde8edcfffd7934af27c59ff863816d746de560001b610eef565b611fba7ffa02f45d308af3f006480febf3390080efba601f625337cc93f39e8b6adde84460001b610eef565b611fc381612a43565b50565b611fce610d6e565b1561200e576040517f08c379a000000000000000000000000000000000000000000000000000000000815260040161200590614372565b60405180910390fd5b6001600c60006101000a81548160ff0219169083151502179055507f62e78cea01bee320cd4e420270b5ea74000d11b0c9f74754ebdbfc544b05a258612052611980565b60405161205f9190614113565b60405180910390a1565b60006120788360000183612a96565b60001c905092915050565b61208e848484611b1f565b61209a84848484612b30565b6120d9576040517f08c379a00000000000000000000000000000000000000000000000000000000081526004016120d090614292565b60405180910390fd5b50505050565b60606120ea82611914565b612129576040517f08c379a000000000000000000000000000000000000000000000000000000000815260040161212090614432565b60405180910390fd5b6000600d60008481526020019081526020016000208054612149906147d2565b80601f0160208091040260200160405190810160405280929190818152602001828054612175906147d2565b80156121c25780601f10612197576101008083540402835291602001916121c2565b820191906000526020600020905b8154815290600101906020018083116121a557829003601f168201915b5050505050905060006121d3612cc7565b90506000815114156121e957819250505061222c565b60008251111561221e5780826040516020016122069291906140ef565b6040516020818303038152906040529250505061222c565b61222784612cde565b925050505b919050565b600061223f82600001612d85565b9050919050565b600081600001549050919050565b600073ffffffffffffffffffffffffffffffffffffffff168273ffffffffffffffffffffffffffffffffffffffff1614156122c4576040517f08c379a00000000000000000000000000000000000000000000000000000000081526004016122bb90614412565b60405180910390fd5b6122cd81611914565b1561230d576040517f08c379a0000000000000000000000000000000000000000000000000000000008152600401612304906142d2565b60405180910390fd5b61231960008383612744565b6001600560008473ffffffffffffffffffffffffffffffffffffffff1673ffffffffffffffffffffffffffffffffffffffff16815260200190815260200160002060008282546123699190614657565b92505081905550816004600083815260200190815260200160002060006101000a81548173ffffffffffffffffffffffffffffffffffffffff021916908373ffffffffffffffffffffffffffffffffffffffff160217905550808273ffffffffffffffffffffffffffffffffffffffff16600073ffffffffffffffffffffffffffffffffffffffff167fddf252ad1be2c89b69c2b068fc378daa952ba7f163c4a11628f55a4df523b3ef60405160405180910390a45050565b61242b82611914565b61246a576040517f08c379a0000000000000000000000000000000000000000000000000000000008152600401612461906143f2565b60405180910390fd5b80600d600084815260200190815260200160002090805190602001906124919291906136d1565b505050565b6001816000016000828254019250508190555050565b6124c56124b883610981565b6124c0611980565b6110cf565b612504576040517f08c379a00000000000000000000000000000000000000000000000000000000081526004016124fb90614352565b60405180910390fd5b61250e82826127d8565b5050565b61251c82826110cf565b6125ee57600160008084815260200190815260200160002060000160008373ffffffffffffffffffffffffffffffffffffffff1673ffffffffffffffffffffffffffffffffffffffff16815260200190815260200160002060006101000a81548160ff021916908315150217905550612593611980565b73ffffffffffffffffffffffffffffffffffffffff168173ffffffffffffffffffffffffffffffffffffffff16837f2f8788117e7eff1d82e926ec794901d17c78024a50270940304540a733656f0d60405160405180910390a45b5050565b60006125fe8383612d96565b61265757826000018290806001815401808255809150506001900390600052602060002001600090919091909150558260000180549050836001016000848152602001908152602001600020819055506001905061265c565b600090505b92915050565b60007f80ac58cd000000000000000000000000000000000000000000000000000000007bffffffffffffffffffffffffffffffffffffffffffffffffffffffff1916827bffffffffffffffffffffffffffffffffffffffffffffffffffffffff1916148061272d57507f5b5e139f000000000000000000000000000000000000000000000000000000007bffffffffffffffffffffffffffffffffffffffffffffffffffffffff1916827bffffffffffffffffffffffffffffffffffffffffffffffffffffffff1916145b8061273d575061273c82612db9565b5b9050919050565b6127707f34b0f6a851519497315ca9359fd18f2aa2ed84a91289531d7159481e439c74a860001b610eef565b61279c7fcdfb735be23c3e9356fda1e3ab051bdde2ce859bffd5c9f373b7df1267875fcd60001b610eef565b6127c87f431c708d6f6d69b65f60d984f8a043bf0f8c741c72967a3a85a38a1bef9de48160001b610eef565b6127d3838383612e33565b505050565b6127e282826110cf565b156128b557600080600084815260200190815260200160002060000160008373ffffffffffffffffffffffffffffffffffffffff1673ffffffffffffffffffffffffffffffffffffffff16815260200190815260200160002060006101000a81548160ff02191690831515021790555061285a611980565b73ffffffffffffffffffffffffffffffffffffffff168173ffffffffffffffffffffffffffffffffffffffff16837ff6391f5c32d9c69d2a47ea670b442974b53935d1edc7fd64eb21e047a839171b60405160405180910390a45b5050565b60008083600101600084815260200190815260200160002054905060008114612a375760006001826128eb91906146de565b905060006001866000018054905061290391906146de565b90506000866000018281548110612943577f4e487b7100000000000000000000000000000000000000000000000000000000600052603260045260246000fd5b906000526020600020015490508087600001848154811061298d577f4e487b7100000000000000000000000000000000000000000000000000000000600052603260045260246000fd5b90600052602060002001819055506001836129a89190614657565b87600101600083815260200190815260200160002081905550866000018054806129fb577f4e487b7100000000000000000000000000000000000000000000000000000000600052603160045260246000fd5b60019003818190600052602060002001600090559055866001016000878152602001908152602001600020600090556001945050505050612a3d565b60009150505b92915050565b612a4c81612e8b565b6000600d60008381526020019081526020016000208054612a6c906147d2565b905014612a9357600d60008281526020019081526020016000206000612a929190613757565b5b50565b600081836000018054905011612ae1576040517f08c379a0000000000000000000000000000000000000000000000000000000008152600401612ad8906141d2565b60405180910390fd5b826000018281548110612b1d577f4e487b7100000000000000000000000000000000000000000000000000000000600052603260045260246000fd5b9060005260206000200154905092915050565b6000612b518473ffffffffffffffffffffffffffffffffffffffff16612f9c565b15612cba578373ffffffffffffffffffffffffffffffffffffffff1663150b7a02612b7a611980565b8786866040518563ffffffff1660e01b8152600401612b9c949392919061412e565b602060405180830381600087803b158015612bb657600080fd5b505af1925050508015612be757506040513d601f19601f82011682018060405250810190612be49190613bc7565b60015b612c6a573d8060008114612c17576040519150601f19603f3d011682016040523d82523d6000602084013e612c1c565b606091505b50600081511415612c62576040517f08c379a0000000000000000000000000000000000000000000000000000000008152600401612c5990614292565b60405180910390fd5b805181602001fd5b63150b7a0260e01b7bffffffffffffffffffffffffffffffffffffffffffffffffffffffff1916817bffffffffffffffffffffffffffffffffffffffffffffffffffffffff191614915050612cbf565b600190505b949350505050565b606060405180602001604052806000815250905090565b6060612ce982611914565b612d28576040517f08c379a0000000000000000000000000000000000000000000000000000000008152600401612d1f90614492565b60405180910390fd5b6000612d32612cc7565b90506000815111612d525760405180602001604052806000815250612d7d565b80612d5c84612faf565b604051602001612d6d9291906140ef565b6040516020818303038152906040525b915050919050565b600081600001805490509050919050565b600080836001016000848152602001908152602001600020541415905092915050565b60007f5a05180f000000000000000000000000000000000000000000000000000000007bffffffffffffffffffffffffffffffffffffffffffffffffffffffff1916827bffffffffffffffffffffffffffffffffffffffffffffffffffffffff19161480612e2c5750612e2b8261315c565b5b9050919050565b612e3e8383836131d6565b612e46610d6e565b15612e86576040517f08c379a0000000000000000000000000000000000000000000000000000000008152600401612e7d906141f2565b60405180910390fd5b505050565b6000612e9682610d85565b9050612ea481600084612744565b612eaf600083611988565b6001600560008373ffffffffffffffffffffffffffffffffffffffff1673ffffffffffffffffffffffffffffffffffffffff1681526020019081526020016000206000828254612eff91906146de565b925050819055506004600083815260200190815260200160002060006101000a81549073ffffffffffffffffffffffffffffffffffffffff021916905581600073ffffffffffffffffffffffffffffffffffffffff168273ffffffffffffffffffffffffffffffffffffffff167fddf252ad1be2c89b69c2b068fc378daa952ba7f163c4a11628f55a4df523b3ef60405160405180910390a45050565b600080823b905060008111915050919050565b60606000821415612ff7576040518060400160405280600181526020017f30000000000000000000000000000000000000000000000000000000000000008152509050613157565b600082905060005b6000821461302957808061301290614835565b915050600a8261302291906146ad565b9150612fff565b60008167ffffffffffffffff81111561306b577f4e487b7100000000000000000000000000000000000000000000000000000000600052604160045260246000fd5b6040519080825280601f01601f19166020018201604052801561309d5781602001600182028036833780820191505090505b5090505b60008514613150576001826130b691906146de565b9150600a856130c5919061487e565b60306130d19190614657565b60f81b81838151811061310d577f4e487b7100000000000000000000000000000000000000000000000000000000600052603260045260246000fd5b60200101907effffffffffffffffffffffffffffffffffffffffffffffffffffffffffffff1916908160001a905350600a8561314991906146ad565b94506130a1565b8093505050505b919050565b60007f7965db0b000000000000000000000000000000000000000000000000000000007bffffffffffffffffffffffffffffffffffffffffffffffffffffffff1916827bffffffffffffffffffffffffffffffffffffffffffffffffffffffff191614806131cf57506131ce826132ea565b5b9050919050565b6131e1838383613354565b600073ffffffffffffffffffffffffffffffffffffffff168373ffffffffffffffffffffffffffffffffffffffff1614156132245761321f81613359565b613263565b8173ffffffffffffffffffffffffffffffffffffffff168373ffffffffffffffffffffffffffffffffffffffff16146132625761326183826133a2565b5b5b600073ffffffffffffffffffffffffffffffffffffffff168273ffffffffffffffffffffffffffffffffffffffff1614156132a6576132a18161350f565b6132e5565b8273ffffffffffffffffffffffffffffffffffffffff168273ffffffffffffffffffffffffffffffffffffffff16146132e4576132e38282613652565b5b5b505050565b60007f01ffc9a7000000000000000000000000000000000000000000000000000000007bffffffffffffffffffffffffffffffffffffffffffffffffffffffff1916827bffffffffffffffffffffffffffffffffffffffffffffffffffffffff1916149050919050565b505050565b600a80549050600b600083815260200190815260200160002081905550600a81908060018154018082558091505060019003906000526020600020016000909190919091505550565b600060016133af84610e37565b6133b991906146de565b905060006009600084815260200190815260200160002054905081811461349e576000600860008673ffffffffffffffffffffffffffffffffffffffff1673ffffffffffffffffffffffffffffffffffffffff168152602001908152602001600020600084815260200190815260200160002054905080600860008773ffffffffffffffffffffffffffffffffffffffff1673ffffffffffffffffffffffffffffffffffffffff168152602001908152602001600020600084815260200190815260200160002081905550816009600083815260200190815260200160002081905550505b6009600084815260200190815260200160002060009055600860008573ffffffffffffffffffffffffffffffffffffffff1673ffffffffffffffffffffffffffffffffffffffff16815260200190815260200160002060008381526020019081526020016000206000905550505050565b60006001600a8054905061352391906146de565b90506000600b60008481526020019081526020016000205490506000600a8381548110613579577f4e487b7100000000000000000000000000000000000000000000000000000000600052603260045260246000fd5b9060005260206000200154905080600a83815481106135c1577f4e487b7100000000000000000000000000000000000000000000000000000000600052603260045260246000fd5b906000526020600020018190555081600b600083815260200190815260200160002081905550600b600085815260200190815260200160002060009055600a805480613636577f4e487b7100000000000000000000000000000000000000000000000000000000600052603160045260246000fd5b6001900381819060005260206000200160009055905550505050565b600061365d83610e37565b905081600860008573ffffffffffffffffffffffffffffffffffffffff1673ffffffffffffffffffffffffffffffffffffffff168152602001908152602001600020600083815260200190815260200160002081905550806009600084815260200190815260200160002081905550505050565b8280546136dd906147d2565b90600052602060002090601f0160209004810192826136ff5760008555613746565b82601f1061371857805160ff1916838001178555613746565b82800160010185558215613746579182015b8281111561374557825182559160200191906001019061372a565b5b5090506137539190613797565b5090565b508054613763906147d2565b6000825580601f106137755750613794565b601f0160209004906000526020600020908101906137939190613797565b5b50565b5b808211156137b0576000816000905550600101613798565b5090565b60006137c76137c2846145b2565b61458d565b9050828152602081018484840111156137df57600080fd5b6137ea848285614790565b509392505050565b6000613805613800846145e3565b61458d565b90508281526020810184848401111561381d57600080fd5b613828848285614790565b509392505050565b60008135905061383f816151b1565b92915050565b600081359050613854816151c8565b92915050565b600081359050613869816151df565b92915050565b60008135905061387e816151f6565b92915050565b600081519050613893816151f6565b92915050565b600082601f8301126138aa57600080fd5b81356138ba8482602086016137b4565b91505092915050565b600082601f8301126138d457600080fd5b81356138e48482602086016137f2565b91505092915050565b6000813590506138fc8161520d565b92915050565b60006020828403121561391457600080fd5b600061392284828501613830565b91505092915050565b6000806040838503121561393e57600080fd5b600061394c85828601613830565b925050602061395d85828601613830565b9150509250929050565b60008060006060848603121561397c57600080fd5b600061398a86828701613830565b935050602061399b86828701613830565b92505060406139ac868287016138ed565b9150509250925092565b600080600080608085870312156139cc57600080fd5b60006139da87828801613830565b94505060206139eb87828801613830565b93505060406139fc878288016138ed565b925050606085013567ffffffffffffffff811115613a1957600080fd5b613a2587828801613899565b91505092959194509250565b60008060408385031215613a4457600080fd5b6000613a5285828601613830565b9250506020613a6385828601613845565b9150509250929050565b60008060408385031215613a8057600080fd5b6000613a8e85828601613830565b925050602083013567ffffffffffffffff811115613aab57600080fd5b613ab7858286016138c3565b9150509250929050565b60008060408385031215613ad457600080fd5b6000613ae285828601613830565b9250506020613af3858286016138ed565b9150509250929050565b600060208284031215613b0f57600080fd5b6000613b1d8482850161385a565b91505092915050565b60008060408385031215613b3957600080fd5b6000613b478582860161385a565b9250506020613b5885828601613830565b9150509250929050565b60008060408385031215613b7557600080fd5b6000613b838582860161385a565b9250506020613b94858286016138ed565b9150509250929050565b600060208284031215613bb057600080fd5b6000613bbe8482850161386f565b91505092915050565b600060208284031215613bd957600080fd5b6000613be784828501613884565b91505092915050565b600060208284031215613c0257600080fd5b6000613c10848285016138ed565b91505092915050565b613c2281614712565b82525050565b613c3181614724565b82525050565b613c4081614730565b82525050565b6000613c5182614614565b613c5b818561462a565b9350613c6b81856020860161479f565b613c748161496b565b840191505092915050565b6000613c8a8261461f565b613c94818561463b565b9350613ca481856020860161479f565b613cad8161496b565b840191505092915050565b6000613cc38261461f565b613ccd818561464c565b9350613cdd81856020860161479f565b80840191505092915050565b6000613cf660228361463b565b9150613d018261497c565b604082019050919050565b6000613d19602b8361463b565b9150613d24826149cb565b604082019050919050565b6000613d3c602f8361463b565b9150613d4782614a1a565b604082019050919050565b6000613d5f60148361463b565b9150613d6a82614a69565b602082019050919050565b6000613d8260278361463b565b9150613d8d82614a92565b604082019050919050565b6000613da5602b8361463b565b9150613db082614ae1565b604082019050919050565b6000613dc860328361463b565b9150613dd382614b30565b604082019050919050565b6000613deb60268361463b565b9150613df682614b7f565b604082019050919050565b6000613e0e601c8361463b565b9150613e1982614bce565b602082019050919050565b6000613e3160248361463b565b9150613e3c82614bf7565b604082019050919050565b6000613e5460198361463b565b9150613e5f82614c46565b602082019050919050565b6000613e77602c8361463b565b9150613e8282614c6f565b604082019050919050565b6000613e9a60308361463b565b9150613ea582614cbe565b604082019050919050565b6000613ebd60108361463b565b9150613ec882614d0d565b602082019050919050565b6000613ee060388361463b565b9150613eeb82614d36565b604082019050919050565b6000613f03602a8361463b565b9150613f0e82614d85565b604082019050919050565b6000613f2660298361463b565b9150613f3182614dd4565b604082019050919050565b6000613f49602e8361463b565b9150613f5482614e23565b604082019050919050565b6000613f6c60208361463b565b9150613f7782614e72565b602082019050919050565b6000613f8f60318361463b565b9150613f9a82614e9b565b604082019050919050565b6000613fb2602c8361463b565b9150613fbd82614eea565b604082019050919050565b6000613fd560298361463b565b9150613fe082614f39565b604082019050919050565b6000613ff8602f8361463b565b915061400382614f88565b604082019050919050565b600061401b60218361463b565b915061402682614fd7565b604082019050919050565b600061403e60298361463b565b915061404982615026565b604082019050919050565b600061406160318361463b565b915061406c82615075565b604082019050919050565b6000614084602c8361463b565b915061408f826150c4565b604082019050919050565b60006140a760308361463b565b91506140b282615113565b604082019050919050565b60006140ca602f8361463b565b91506140d582615162565b604082019050919050565b6140e981614786565b82525050565b60006140fb8285613cb8565b91506141078284613cb8565b91508190509392505050565b60006020820190506141286000830184613c19565b92915050565b60006080820190506141436000830187613c19565b6141506020830186613c19565b61415d60408301856140e0565b818103606083015261416f8184613c46565b905095945050505050565b600060208201905061418f6000830184613c28565b92915050565b60006020820190506141aa6000830184613c37565b92915050565b600060208201905081810360008301526141ca8184613c7f565b905092915050565b600060208201905081810360008301526141eb81613ce9565b9050919050565b6000602082019050818103600083015261420b81613d0c565b9050919050565b6000602082019050818103600083015261422b81613d2f565b9050919050565b6000602082019050818103600083015261424b81613d52565b9050919050565b6000602082019050818103600083015261426b81613d75565b9050919050565b6000602082019050818103600083015261428b81613d98565b9050919050565b600060208201905081810360008301526142ab81613dbb565b9050919050565b600060208201905081810360008301526142cb81613dde565b9050919050565b600060208201905081810360008301526142eb81613e01565b9050919050565b6000602082019050818103600083015261430b81613e24565b9050919050565b6000602082019050818103600083015261432b81613e47565b9050919050565b6000602082019050818103600083015261434b81613e6a565b9050919050565b6000602082019050818103600083015261436b81613e8d565b9050919050565b6000602082019050818103600083015261438b81613eb0565b9050919050565b600060208201905081810360008301526143ab81613ed3565b9050919050565b600060208201905081810360008301526143cb81613ef6565b9050919050565b600060208201905081810360008301526143eb81613f19565b9050919050565b6000602082019050818103600083015261440b81613f3c565b9050919050565b6000602082019050818103600083015261442b81613f5f565b9050919050565b6000602082019050818103600083015261444b81613f82565b9050919050565b6000602082019050818103600083015261446b81613fa5565b9050919050565b6000602082019050818103600083015261448b81613fc8565b9050919050565b600060208201905081810360008301526144ab81613feb565b9050919050565b600060208201905081810360008301526144cb8161400e565b9050919050565b600060208201905081810360008301526144eb81614031565b9050919050565b6000602082019050818103600083015261450b81614054565b9050919050565b6000602082019050818103600083015261452b81614077565b9050919050565b6000602082019050818103600083015261454b8161409a565b9050919050565b6000602082019050818103600083015261456b816140bd565b9050919050565b600060208201905061458760008301846140e0565b92915050565b60006145976145a8565b90506145a38282614804565b919050565b6000604051905090565b600067ffffffffffffffff8211156145cd576145cc61493c565b5b6145d68261496b565b9050602081019050919050565b600067ffffffffffffffff8211156145fe576145fd61493c565b5b6146078261496b565b9050602081019050919050565b600081519050919050565b600081519050919050565b600082825260208201905092915050565b600082825260208201905092915050565b600081905092915050565b600061466282614786565b915061466d83614786565b9250827fffffffffffffffffffffffffffffffffffffffffffffffffffffffffffffffff038211156146a2576146a16148af565b5b828201905092915050565b60006146b882614786565b91506146c383614786565b9250826146d3576146d26148de565b5b828204905092915050565b60006146e982614786565b91506146f483614786565b925082821015614707576147066148af565b5b828203905092915050565b600061471d82614766565b9050919050565b60008115159050919050565b6000819050919050565b60007fffffffff0000000000000000000000000000000000000000000000000000000082169050919050565b600073ffffffffffffffffffffffffffffffffffffffff82169050919050565b6000819050919050565b82818337600083830152505050565b60005b838110156147bd5780820151818401526020810190506147a2565b838111156147cc576000848401525b50505050565b600060028204905060018216806147ea57607f821691505b602082108114156147fe576147fd61490d565b5b50919050565b61480d8261496b565b810181811067ffffffffffffffff8211171561482c5761482b61493c565b5b80604052505050565b600061484082614786565b91507fffffffffffffffffffffffffffffffffffffffffffffffffffffffffffffffff821415614873576148726148af565b5b600182019050919050565b600061488982614786565b915061489483614786565b9250826148a4576148a36148de565b5b828206905092915050565b7f4e487b7100000000000000000000000000000000000000000000000000000000600052601160045260246000fd5b7f4e487b7100000000000000000000000000000000000000000000000000000000600052601260045260246000fd5b7f4e487b7100000000000000000000000000000000000000000000000000000000600052602260045260246000fd5b7f4e487b7100000000000000000000000000000000000000000000000000000000600052604160045260246000fd5b6000601f19601f8301169050919050565b7f456e756d657261626c655365743a20696e646578206f7574206f6620626f756e60008201527f6473000000000000000000000000000000000000000000000000000000000000602082015250565b7f4552433732315061757361626c653a20746f6b656e207472616e73666572207760008201527f68696c6520706175736564000000000000000000000000000000000000000000602082015250565b7f416363657373436f6e74726f6c3a2073656e646572206d75737420626520616e60008201527f2061646d696e20746f206772616e740000000000000000000000000000000000602082015250565b7f5061757361626c653a206e6f7420706175736564000000000000000000000000600082015250565b7f734552433732313a206d75737420686176652070617573657220726f6c65207460008201527f6f20706175736500000000000000000000000000000000000000000000000000602082015250565b7f455243373231456e756d657261626c653a206f776e657220696e646578206f7560008201527f74206f6620626f756e6473000000000000000000000000000000000000000000602082015250565b7f4552433732313a207472616e7366657220746f206e6f6e20455243373231526560008201527f63656976657220696d706c656d656e7465720000000000000000000000000000602082015250565b7f734552433732313a206d7573742068617665206d696e74657220726f6c65207460008201527f6f206d696e740000000000000000000000000000000000000000000000000000602082015250565b7f4552433732313a20746f6b656e20616c7265616479206d696e74656400000000600082015250565b7f4552433732313a207472616e7366657220746f20746865207a65726f2061646460008201527f7265737300000000000000000000000000000000000000000000000000000000602082015250565b7f4552433732313a20617070726f766520746f2063616c6c657200000000000000600082015250565b7f4552433732313a206f70657261746f7220717565727920666f72206e6f6e657860008201527f697374656e7420746f6b656e0000000000000000000000000000000000000000602082015250565b7f416363657373436f6e74726f6c3a2073656e646572206d75737420626520616e60008201527f2061646d696e20746f207265766f6b6500000000000000000000000000000000602082015250565b7f5061757361626c653a2070617573656400000000000000000000000000000000600082015250565b7f4552433732313a20617070726f76652063616c6c6572206973206e6f74206f7760008201527f6e6572206e6f7220617070726f76656420666f7220616c6c0000000000000000602082015250565b7f4552433732313a2062616c616e636520717565727920666f7220746865207a6560008201527f726f206164647265737300000000000000000000000000000000000000000000602082015250565b7f4552433732313a206f776e657220717565727920666f72206e6f6e657869737460008201527f656e7420746f6b656e0000000000000000000000000000000000000000000000602082015250565b7f45524337323155524953746f726167653a2055524920736574206f66206e6f6e60008201527f6578697374656e7420746f6b656e000000000000000000000000000000000000602082015250565b7f4552433732313a206d696e7420746f20746865207a65726f2061646472657373600082015250565b7f45524337323155524953746f726167653a2055524920717565727920666f722060008201527f6e6f6e6578697374656e7420746f6b656e000000000000000000000000000000602082015250565b7f4552433732313a20617070726f76656420717565727920666f72206e6f6e657860008201527f697374656e7420746f6b656e0000000000000000000000000000000000000000602082015250565b7f4552433732313a207472616e73666572206f6620746f6b656e2074686174206960008201527f73206e6f74206f776e0000000000000000000000000000000000000000000000602082015250565b7f4552433732314d657461646174613a2055524920717565727920666f72206e6f60008201527f6e6578697374656e7420746f6b656e0000000000000000000000000000000000602082015250565b7f4552433732313a20617070726f76616c20746f2063757272656e74206f776e6560008201527f7200000000000000000000000000000000000000000000000000000000000000602082015250565b7f734552433732313a206d75737420686176652070617573657220726f6c65207460008201527f6f20756e70617573650000000000000000000000000000000000000000000000602082015250565b7f4552433732313a207472616e736665722063616c6c6572206973206e6f74206f60008201527f776e6572206e6f7220617070726f766564000000000000000000000000000000602082015250565b7f455243373231456e756d657261626c653a20676c6f62616c20696e646578206f60008201527f7574206f6620626f756e64730000000000000000000000000000000000000000602082015250565b7f4552433732314275726e61626c653a2063616c6c6572206973206e6f74206f7760008201527f6e6572206e6f7220617070726f76656400000000000000000000000000000000602082015250565b7f416363657373436f6e74726f6c3a2063616e206f6e6c792072656e6f756e636560008201527f20726f6c657320666f722073656c660000000000000000000000000000000000602082015250565b6151ba81614712565b81146151c557600080fd5b50565b6151d181614724565b81146151dc57600080fd5b50565b6151e881614730565b81146151f357600080fd5b50565b6151ff8161473a565b811461520a57600080fd5b50565b61521681614786565b811461522157600080fd5b5056fea264697066735822122028f10a12d0efd04f3a11ae49ab6c5c80046fb766fbe1c158e8e57d019831c80264736f6c63430008010033",
  "linkReferences": {},
  "deployedLinkReferences": {}
}