{
  "_format": "hh-sol-artifact-1",
  "contractName": "sERC721",
  "sourceName": "contracts/core/SERC721.sol",
  "abi": [
    {
      "inputs": [
        {
          "internalType": "string",
          "name": "name",
          "type": "string"
        },
        {
          "internalType": "string",
          "name": "symbol",
          "type": "string"
        }
      ],
      "stateMutability": "nonpayable",
      "type": "constructor"
    },
    {
      "anonymous": false,
      "inputs": [
        {
          "indexed": true,
          "internalType": "address",
          "name": "owner",
          "type": "address"
        },
        {
          "indexed": true,
          "internalType": "address",
          "name": "approved",
          "type": "address"
        },
        {
          "indexed": true,
          "internalType": "uint256",
          "name": "tokenId",
          "type": "uint256"
        }
      ],
      "name": "Approval",
      "type": "event"
    },
    {
      "anonymous": false,
      "inputs": [
        {
          "indexed": true,
          "internalType": "address",
          "name": "owner",
          "type": "address"
        },
        {
          "indexed": true,
          "internalType": "address",
          "name": "operator",
          "type": "address"
        },
        {
          "indexed": false,
          "internalType": "bool",
          "name": "approved",
          "type": "bool"
        }
      ],
      "name": "ApprovalForAll",
      "type": "event"
    },
    {
      "anonymous": false,
      "inputs": [
        {
          "indexed": false,
          "internalType": "address",
          "name": "account",
          "type": "address"
        }
      ],
      "name": "Paused",
      "type": "event"
    },
    {
      "anonymous": false,
      "inputs": [
        {
          "indexed": true,
          "internalType": "bytes32",
          "name": "role",
          "type": "bytes32"
        },
        {
          "indexed": true,
          "internalType": "bytes32",
          "name": "previousAdminRole",
          "type": "bytes32"
        },
        {
          "indexed": true,
          "internalType": "bytes32",
          "name": "newAdminRole",
          "type": "bytes32"
        }
      ],
      "name": "RoleAdminChanged",
      "type": "event"
    },
    {
      "anonymous": false,
      "inputs": [
        {
          "indexed": true,
          "internalType": "bytes32",
          "name": "role",
          "type": "bytes32"
        },
        {
          "indexed": true,
          "internalType": "address",
          "name": "account",
          "type": "address"
        },
        {
          "indexed": true,
          "internalType": "address",
          "name": "sender",
          "type": "address"
        }
      ],
      "name": "RoleGranted",
      "type": "event"
    },
    {
      "anonymous": false,
      "inputs": [
        {
          "indexed": true,
          "internalType": "bytes32",
          "name": "role",
          "type": "bytes32"
        },
        {
          "indexed": true,
          "internalType": "address",
          "name": "account",
          "type": "address"
        },
        {
          "indexed": true,
          "internalType": "address",
          "name": "sender",
          "type": "address"
        }
      ],
      "name": "RoleRevoked",
      "type": "event"
    },
    {
      "anonymous": false,
      "inputs": [
        {
          "indexed": true,
          "internalType": "address",
          "name": "from",
          "type": "address"
        },
        {
          "indexed": true,
          "internalType": "address",
          "name": "to",
          "type": "address"
        },
        {
          "indexed": true,
          "internalType": "uint256",
          "name": "tokenId",
          "type": "uint256"
        }
      ],
      "name": "Transfer",
      "type": "event"
    },
    {
      "anonymous": false,
      "inputs": [
        {
          "indexed": false,
          "internalType": "address",
          "name": "account",
          "type": "address"
        }
      ],
      "name": "Unpaused",
      "type": "event"
    },
    {
      "inputs": [],
      "name": "DEFAULT_ADMIN_ROLE",
      "outputs": [
        {
          "internalType": "bytes32",
          "name": "",
          "type": "bytes32"
        }
      ],
      "stateMutability": "view",
      "type": "function"
    },
    {
      "inputs": [],
      "name": "MINTER_ROLE",
      "outputs": [
        {
          "internalType": "bytes32",
          "name": "",
          "type": "bytes32"
        }
      ],
      "stateMutability": "view",
      "type": "function"
    },
    {
      "inputs": [],
      "name": "PAUSER_ROLE",
      "outputs": [
        {
          "internalType": "bytes32",
          "name": "",
          "type": "bytes32"
        }
      ],
      "stateMutability": "view",
      "type": "function"
    },
    {
      "inputs": [
        {
          "internalType": "address",
          "name": "to",
          "type": "address"
        },
        {
          "internalType": "uint256",
          "name": "tokenId",
          "type": "uint256"
        }
      ],
      "name": "approve",
      "outputs": [],
      "stateMutability": "nonpayable",
      "type": "function"
    },
    {
      "inputs": [
        {
          "internalType": "address",
          "name": "owner",
          "type": "address"
        }
      ],
      "name": "balanceOf",
      "outputs": [
        {
          "internalType": "uint256",
          "name": "",
          "type": "uint256"
        }
      ],
      "stateMutability": "view",
      "type": "function"
    },
    {
      "inputs": [
        {
          "internalType": "uint256",
          "name": "tokenId",
          "type": "uint256"
        }
      ],
      "name": "burn",
      "outputs": [],
      "stateMutability": "nonpayable",
      "type": "function"
    },
    {
      "inputs": [
        {
          "internalType": "uint256",
          "name": "tokenId",
          "type": "uint256"
        }
      ],
      "name": "getApproved",
      "outputs": [
        {
          "internalType": "address",
          "name": "",
          "type": "address"
        }
      ],
      "stateMutability": "view",
      "type": "function"
    },
    {
      "inputs": [
        {
          "internalType": "bytes32",
          "name": "role",
          "type": "bytes32"
        }
      ],
      "name": "getRoleAdmin",
      "outputs": [
        {
          "internalType": "bytes32",
          "name": "",
          "type": "bytes32"
        }
      ],
      "stateMutability": "view",
      "type": "function"
    },
    {
      "inputs": [
        {
          "internalType": "bytes32",
          "name": "role",
          "type": "bytes32"
        },
        {
          "internalType": "uint256",
          "name": "index",
          "type": "uint256"
        }
      ],
      "name": "getRoleMember",
      "outputs": [
        {
          "internalType": "address",
          "name": "",
          "type": "address"
        }
      ],
      "stateMutability": "view",
      "type": "function"
    },
    {
      "inputs": [
        {
          "internalType": "bytes32",
          "name": "role",
          "type": "bytes32"
        }
      ],
      "name": "getRoleMemberCount",
      "outputs": [
        {
          "internalType": "uint256",
          "name": "",
          "type": "uint256"
        }
      ],
      "stateMutability": "view",
      "type": "function"
    },
    {
      "inputs": [
        {
          "internalType": "bytes32",
          "name": "role",
          "type": "bytes32"
        },
        {
          "internalType": "address",
          "name": "account",
          "type": "address"
        }
      ],
      "name": "grantRole",
      "outputs": [],
      "stateMutability": "nonpayable",
      "type": "function"
    },
    {
      "inputs": [
        {
          "internalType": "bytes32",
          "name": "role",
          "type": "bytes32"
        },
        {
          "internalType": "address",
          "name": "account",
          "type": "address"
        }
      ],
      "name": "hasRole",
      "outputs": [
        {
          "internalType": "bool",
          "name": "",
          "type": "bool"
        }
      ],
      "stateMutability": "view",
      "type": "function"
    },
    {
      "inputs": [
        {
          "internalType": "address",
          "name": "owner",
          "type": "address"
        },
        {
          "internalType": "address",
          "name": "operator",
          "type": "address"
        }
      ],
      "name": "isApprovedForAll",
      "outputs": [
        {
          "internalType": "bool",
          "name": "",
          "type": "bool"
        }
      ],
      "stateMutability": "view",
      "type": "function"
    },
    {
      "inputs": [
        {
          "internalType": "address",
          "name": "to",
          "type": "address"
        },
        {
          "internalType": "string",
          "name": "_tokenURI",
          "type": "string"
        }
      ],
      "name": "mint",
      "outputs": [],
      "stateMutability": "nonpayable",
      "type": "function"
    },
    {
      "inputs": [],
      "name": "name",
      "outputs": [
        {
          "internalType": "string",
          "name": "",
          "type": "string"
        }
      ],
      "stateMutability": "view",
      "type": "function"
    },
    {
      "inputs": [
        {
          "internalType": "uint256",
          "name": "tokenId",
          "type": "uint256"
        }
      ],
      "name": "ownerOf",
      "outputs": [
        {
          "internalType": "address",
          "name": "",
          "type": "address"
        }
      ],
      "stateMutability": "view",
      "type": "function"
    },
    {
      "inputs": [],
      "name": "pause",
      "outputs": [],
      "stateMutability": "nonpayable",
      "type": "function"
    },
    {
      "inputs": [],
      "name": "paused",
      "outputs": [
        {
          "internalType": "bool",
          "name": "",
          "type": "bool"
        }
      ],
      "stateMutability": "view",
      "type": "function"
    },
    {
      "inputs": [
        {
          "internalType": "bytes32",
          "name": "role",
          "type": "bytes32"
        },
        {
          "internalType": "address",
          "name": "account",
          "type": "address"
        }
      ],
      "name": "renounceRole",
      "outputs": [],
      "stateMutability": "nonpayable",
      "type": "function"
    },
    {
      "inputs": [
        {
          "internalType": "bytes32",
          "name": "role",
          "type": "bytes32"
        },
        {
          "internalType": "address",
          "name": "account",
          "type": "address"
        }
      ],
      "name": "revokeRole",
      "outputs": [],
      "stateMutability": "nonpayable",
      "type": "function"
    },
    {
      "inputs": [
        {
          "internalType": "address",
          "name": "from",
          "type": "address"
        },
        {
          "internalType": "address",
          "name": "to",
          "type": "address"
        },
        {
          "internalType": "uint256",
          "name": "tokenId",
          "type": "uint256"
        }
      ],
      "name": "safeTransferFrom",
      "outputs": [],
      "stateMutability": "nonpayable",
      "type": "function"
    },
    {
      "inputs": [
        {
          "internalType": "address",
          "name": "from",
          "type": "address"
        },
        {
          "internalType": "address",
          "name": "to",
          "type": "address"
        },
        {
          "internalType": "uint256",
          "name": "tokenId",
          "type": "uint256"
        },
        {
          "internalType": "bytes",
          "name": "_data",
          "type": "bytes"
        }
      ],
      "name": "safeTransferFrom",
      "outputs": [],
      "stateMutability": "nonpayable",
      "type": "function"
    },
    {
      "inputs": [
        {
          "internalType": "address",
          "name": "operator",
          "type": "address"
        },
        {
          "internalType": "bool",
          "name": "approved",
          "type": "bool"
        }
      ],
      "name": "setApprovalForAll",
      "outputs": [],
      "stateMutability": "nonpayable",
      "type": "function"
    },
    {
      "inputs": [
        {
          "internalType": "bytes4",
          "name": "interfaceId",
          "type": "bytes4"
        }
      ],
      "name": "supportsInterface",
      "outputs": [
        {
          "internalType": "bool",
          "name": "",
          "type": "bool"
        }
      ],
      "stateMutability": "view",
      "type": "function"
    },
    {
      "inputs": [],
      "name": "symbol",
      "outputs": [
        {
          "internalType": "string",
          "name": "",
          "type": "string"
        }
      ],
      "stateMutability": "view",
      "type": "function"
    },
    {
      "inputs": [
        {
          "internalType": "uint256",
          "name": "index",
          "type": "uint256"
        }
      ],
      "name": "tokenByIndex",
      "outputs": [
        {
          "internalType": "uint256",
          "name": "",
          "type": "uint256"
        }
      ],
      "stateMutability": "view",
      "type": "function"
    },
    {
      "inputs": [
        {
          "internalType": "address",
          "name": "owner",
          "type": "address"
        },
        {
          "internalType": "uint256",
          "name": "index",
          "type": "uint256"
        }
      ],
      "name": "tokenOfOwnerByIndex",
      "outputs": [
        {
          "internalType": "uint256",
          "name": "",
          "type": "uint256"
        }
      ],
      "stateMutability": "view",
      "type": "function"
    },
    {
      "inputs": [
        {
          "internalType": "uint256",
          "name": "tokenId",
          "type": "uint256"
        }
      ],
      "name": "tokenURI",
      "outputs": [
        {
          "internalType": "string",
          "name": "",
          "type": "string"
        }
      ],
      "stateMutability": "view",
      "type": "function"
    },
    {
      "inputs": [],
      "name": "totalSupply",
      "outputs": [
        {
          "internalType": "uint256",
          "name": "",
          "type": "uint256"
        }
      ],
      "stateMutability": "view",
      "type": "function"
    },
    {
      "inputs": [
        {
          "internalType": "address",
          "name": "from",
          "type": "address"
        },
        {
          "internalType": "address",
          "name": "to",
          "type": "address"
        },
        {
          "internalType": "uint256",
          "name": "tokenId",
          "type": "uint256"
        }
      ],
      "name": "transferFrom",
      "outputs": [],
      "stateMutability": "nonpayable",
      "type": "function"
    },
    {
      "inputs": [],
      "name": "unpause",
      "outputs": [],
      "stateMutability": "nonpayable",
      "type": "function"
    }
  ],
  "bytecode": "0x60806040523480156200001157600080fd5b50604051620030f3380380620030f38339810160408190526200003491620003d6565b8151829082906200004d9060029060208501906200027d565b508051620000639060039060208401906200027d565b5050600c805460ff191690555062000086600062000080620000ec565b620000f0565b620000b57f9f2df0fed2c77648de5860a4cc508cd0818c85b8b8a1ab4ceeef8d981c8956a662000080620000ec565b620000e47f65d7a28e3265b37a6474929f336521b332c1681b933f6cb9f3376673440d862a62000080620000ec565b505062000490565b3390565b6200010782826200013360201b62000ad41760201c565b60008281526001602090815260409091206200012e91839062000ae262000143821b17901c565b505050565b6200013f828262000163565b5050565b60006200015a836001600160a01b038416620001ed565b90505b92915050565b6200016f82826200023c565b6200013f576000828152602081815260408083206001600160a01b03851684529091529020805460ff19166001179055620001a9620000ec565b6001600160a01b0316816001600160a01b0316837f2f8788117e7eff1d82e926ec794901d17c78024a50270940304540a733656f0d60405160405180910390a45050565b6000620001fb838362000265565b62000233575081546001818101845560008481526020808220909301849055845484825282860190935260409020919091556200015d565b5060006200015d565b6000918252602082815260408084206001600160a01b0393909316845291905290205460ff1690565b60009081526001919091016020526040902054151590565b8280546200028b906200043d565b90600052602060002090601f016020900481019282620002af5760008555620002fa565b82601f10620002ca57805160ff1916838001178555620002fa565b82800160010185558215620002fa579182015b82811115620002fa578251825591602001919060010190620002dd565b50620003089291506200030c565b5090565b5b808211156200030857600081556001016200030d565b600082601f83011262000334578081fd5b81516001600160401b03808211156200035157620003516200047a565b604051601f8301601f19908116603f011681019082821181831017156200037c576200037c6200047a565b8160405283815260209250868385880101111562000398578485fd5b8491505b83821015620003bb57858201830151818301840152908201906200039c565b83821115620003cc57848385830101525b9695505050505050565b60008060408385031215620003e9578182fd5b82516001600160401b038082111562000400578384fd5b6200040e8683870162000323565b9350602085015191508082111562000424578283fd5b50620004338582860162000323565b9150509250929050565b6002810460018216806200045257607f821691505b602082108114156200047457634e487b7160e01b600052602260045260246000fd5b50919050565b634e487b7160e01b600052604160045260246000fd5b612c5380620004a06000396000f3fe608060405234801561001057600080fd5b50600436106101e55760003560e01c80636352211e1161010f578063b88d4fde116100a2578063d539139311610071578063d5391393146103dd578063d547741f146103e5578063e63ab1e9146103f8578063e985e9c514610400576101e5565b8063b88d4fde14610391578063c87b56dd146103a4578063ca15c873146103b7578063d0def521146103ca576101e5565b806391d14854116100de57806391d148541461035b57806395d89b411461036e578063a217fddf14610376578063a22cb4651461037e576101e5565b80636352211e1461031a57806370a082311461032d5780638456cb59146103405780639010d07c14610348576101e5565b80632f2ff15d1161018757806342842e0e1161015657806342842e0e146102d957806342966c68146102ec5780634f6ccce7146102ff5780635c975abb14610312576101e5565b80632f2ff15d146102985780632f745c59146102ab57806336568abe146102be5780633f4ba83a146102d1576101e5565b8063095ea7b3116101c3578063095ea7b31461024857806318160ddd1461025d57806323b872dd14610272578063248a9ca314610285576101e5565b806301ffc9a7146101ea57806306fdde0314610213578063081812fc14610228575b600080fd5b6101fd6101f8366004611ffb565b610413565b60405161020a91906120de565b60405180910390f35b61021b610426565b60405161020a91906120f2565b61023b610236366004611fa0565b6104b8565b60405161020a919061208e565b61025b610256366004611f77565b610504565b005b61026561059c565b60405161020a91906120e9565b61025b610280366004611e2a565b6105a2565b610265610293366004611fa0565b6105da565b61025b6102a6366004611fb8565b6105ef565b6102656102b9366004611f77565b610611565b61025b6102cc366004611fb8565b610666565b61025b610688565b61025b6102e7366004611e2a565b6106da565b61025b6102fa366004611fa0565b6106f5565b61026561030d366004611fa0565b610728565b6101fd610783565b61023b610328366004611fa0565b61078c565b61026561033b366004611dde565b6107c1565b61025b610805565b61023b610356366004611fda565b610855565b6101fd610369366004611fb8565b610874565b61021b61089d565b6102656108ac565b61025b61038c366004611ede565b6108b1565b61025b61039f366004611e65565b61097f565b61021b6103b2366004611fa0565b6109be565b6102656103c5366004611fa0565b6109c9565b61025b6103d8366004611f18565b6109e0565b610265610a54565b61025b6103f3366004611fb8565b610a78565b610265610a82565b6101fd61040e366004611df8565b610aa6565b600061041e82610af7565b90505b919050565b60606002805461043590612b3d565b80601f016020809104026020016040519081016040528092919081815260200182805461046190612b3d565b80156104ae5780601f10610483576101008083540402835291602001916104ae565b820191906000526020600020905b81548152906001019060200180831161049157829003601f168201915b5050505050905090565b60006104c382610b35565b6104e85760405162461bcd60e51b81526004016104df90612789565b60405180910390fd5b506000908152600660205260409020546001600160a01b031690565b600061050f8261078c565b9050806001600160a01b0316836001600160a01b031614156105435760405162461bcd60e51b81526004016104df906128a0565b806001600160a01b0316610555610b52565b6001600160a01b0316148061057157506105718161040e610b52565b61058d5760405162461bcd60e51b81526004016104df90612583565b6105978383610b56565b505050565b600a5490565b6105b36105ad610b52565b82610bd1565b6105cf5760405162461bcd60e51b81526004016104df9061295a565b610597838383610c56565b60009081526020819052604090206001015490565b6105f98282610d90565b60008281526001602052604090206105979082610ae2565b600061061c836107c1565b821061063a5760405162461bcd60e51b81526004016104df906122b0565b506001600160a01b03821660009081526008602090815260408083208484529091529020545b92915050565b6106708282610dc0565b60008281526001602052604090206105979082610e02565b6106b47f65d7a28e3265b37a6474929f336521b332c1681b933f6cb9f3376673440d862a610369610b52565b6106d05760405162461bcd60e51b81526004016104df906128fd565b6106d8610e17565b565b6105978383836040518060200160405280600081525061097f565b6107006105ad610b52565b61071c5760405162461bcd60e51b81526004016104df90612a14565b61072581610e85565b50565b600061073261059c565b82106107505760405162461bcd60e51b81526004016104df906129b7565b600a828154811061077157634e487b7160e01b600052603260045260246000fd5b90600052602060002001549050919050565b600c5460ff1690565b6000818152600460205260408120546001600160a01b03168061041e5760405162461bcd60e51b81526004016104df9061263d565b60006001600160a01b0382166107e95760405162461bcd60e51b81526004016104df906125e0565b506001600160a01b031660009081526005602052604090205490565b6108317f65d7a28e3265b37a6474929f336521b332c1681b933f6cb9f3376673440d862a610369610b52565b61084d5760405162461bcd60e51b81526004016104df90612253565b6106d8610e8e565b600082815260016020526040812061086d9083610ee9565b9392505050565b6000918252602082815260408084206001600160a01b0393909316845291905290205460ff1690565b60606003805461043590612b3d565b600081565b6108b9610b52565b6001600160a01b0316826001600160a01b031614156108ea5760405162461bcd60e51b81526004016104df9061245b565b80600760006108f7610b52565b6001600160a01b03908116825260208083019390935260409182016000908120918716808252919093529120805460ff19169215159290921790915561093b610b52565b6001600160a01b03167f17307eab39ab6107e8899845ad3d59bd9653f200f220920489ca2b5937696c318360405161097391906120de565b60405180910390a35050565b61099061098a610b52565b83610bd1565b6109ac5760405162461bcd60e51b81526004016104df9061295a565b6109b884848484610ef5565b50505050565b606061041e82610f28565b600081815260016020526040812061041e90611041565b610a0c7f9f2df0fed2c77648de5860a4cc508cd0818c85b8b8a1ab4ceeef8d981c8956a6610369610b52565b610a285760405162461bcd60e51b81526004016104df9061236a565b6000610a34600e611048565b9050610a40838261104c565b610a4a8183611138565b610597600e61117c565b7f9f2df0fed2c77648de5860a4cc508cd0818c85b8b8a1ab4ceeef8d981c8956a681565b6106708282611185565b7f65d7a28e3265b37a6474929f336521b332c1681b933f6cb9f3376673440d862a81565b6001600160a01b03918216600090815260076020908152604080832093909416825291909152205460ff1690565b610ade82826111ad565b5050565b600061086d836001600160a01b038416611232565b60006001600160e01b031982167f780e9d6300000000000000000000000000000000000000000000000000000000148061041e575061041e8261127c565b6000908152600460205260409020546001600160a01b0316151590565b3390565b6000818152600660205260409020805473ffffffffffffffffffffffffffffffffffffffff19166001600160a01b0384169081179091558190610b988261078c565b6001600160a01b03167f8c5be1e5ebec7d5bd14f71427d1e84f3dd0314c0f7b2291e5b200ac8c7c3b92560405160405180910390a45050565b6000610bdc82610b35565b610bf85760405162461bcd60e51b81526004016104df90612492565b6000610c038361078c565b9050806001600160a01b0316846001600160a01b03161480610c3e5750836001600160a01b0316610c33846104b8565b6001600160a01b0316145b80610c4e5750610c4e8185610aa6565b949350505050565b826001600160a01b0316610c698261078c565b6001600160a01b031614610c8f5760405162461bcd60e51b81526004016104df906127e6565b6001600160a01b038216610cb55760405162461bcd60e51b81526004016104df906123fe565b610cc08383836112ee565b610ccb600082610b56565b6001600160a01b0383166000908152600560205260408120805460019290610cf4908490612afa565b90915550506001600160a01b0382166000908152600560205260408120805460019290610d22908490612ace565b9091555050600081815260046020526040808220805473ffffffffffffffffffffffffffffffffffffffff19166001600160a01b0386811691821790925591518493918716917fddf252ad1be2c89b69c2b068fc378daa952ba7f163c4a11628f55a4df523b3ef91a4505050565b610da4610d9c836105da565b610369610b52565b610ad45760405162461bcd60e51b81526004016104df906121bf565b610dc8610b52565b6001600160a01b0316816001600160a01b031614610df85760405162461bcd60e51b81526004016104df90612a71565b610ade82826112f9565b600061086d836001600160a01b03841661137c565b610e1f610783565b610e3b5760405162461bcd60e51b81526004016104df9061221c565b600c805460ff191690557f5db9ee0a495bf2e6ff9c91a7834c1ba4fdd244a5e8aa4e537bd38aeae4b073aa610e6e610b52565b604051610e7b919061208e565b60405180910390a1565b61072581611499565b610e96610783565b15610eb35760405162461bcd60e51b81526004016104df9061254c565b600c805460ff191660011790557f62e78cea01bee320cd4e420270b5ea74000d11b0c9f74754ebdbfc544b05a258610e6e610b52565b600061086d83836114d9565b610f00848484610c56565b610f0c84848484611532565b6109b85760405162461bcd60e51b81526004016104df9061230d565b6060610f3382610b35565b610f4f5760405162461bcd60e51b81526004016104df9061272c565b6000828152600d602052604081208054610f6890612b3d565b80601f0160208091040260200160405190810160405280929190818152602001828054610f9490612b3d565b8015610fe15780601f10610fb657610100808354040283529160200191610fe1565b820191906000526020600020905b815481529060010190602001808311610fc457829003601f168201915b505050505090506000610ff2611666565b905080516000141561100657509050610421565b81511561103857808260405160200161102092919061205f565b60405160208183030381529060405292505050610421565b610c4e84611678565b600061041e825b5490565b6001600160a01b0382166110725760405162461bcd60e51b81526004016104df906126f7565b61107b81610b35565b156110985760405162461bcd60e51b81526004016104df906123c7565b6110a4600083836112ee565b6001600160a01b03821660009081526005602052604081208054600192906110cd908490612ace565b9091555050600081815260046020526040808220805473ffffffffffffffffffffffffffffffffffffffff19166001600160a01b03861690811790915590518392907fddf252ad1be2c89b69c2b068fc378daa952ba7f163c4a11628f55a4df523b3ef908290a45050565b61114182610b35565b61115d5760405162461bcd60e51b81526004016104df9061269a565b6000828152600d60209081526040909120825161059792840190611c80565b80546001019055565b611191610d9c836105da565b610df85760405162461bcd60e51b81526004016104df906124ef565b6111b78282610874565b610ade576000828152602081815260408083206001600160a01b03851684529091529020805460ff191660011790556111ee610b52565b6001600160a01b0316816001600160a01b0316837f2f8788117e7eff1d82e926ec794901d17c78024a50270940304540a733656f0d60405160405180910390a45050565b600061123e83836116fa565b61127457508154600181810184556000848152602080822090930184905584548482528286019093526040902091909155610660565b506000610660565b60006001600160e01b031982167f80ac58cd0000000000000000000000000000000000000000000000000000000014806112df57506001600160e01b031982167f5b5e139f00000000000000000000000000000000000000000000000000000000145b8061041e575061041e82611712565b610597838383611750565b6113038282610874565b15610ade576000828152602081815260408083206001600160a01b03851684529091529020805460ff19169055611338610b52565b6001600160a01b0316816001600160a01b0316837ff6391f5c32d9c69d2a47ea670b442974b53935d1edc7fd64eb21e047a839171b60405160405180910390a45050565b6000818152600183016020526040812054801561148f5760006113a0600183612afa565b85549091506000906113b490600190612afa565b905060008660000182815481106113db57634e487b7160e01b600052603260045260246000fd5b906000526020600020015490508087600001848154811061140c57634e487b7160e01b600052603260045260246000fd5b600091825260209091200155611423836001612ace565b6000828152600189016020526040902055865487908061145357634e487b7160e01b600052603160045260246000fd5b60019003818190600052602060002001600090559055866001016000878152602001908152602001600020600090556001945050505050610660565b6000915050610660565b6114a281611780565b6000818152600d6020526040902080546114bb90612b3d565b159050610725576000818152600d6020526040812061072591611d04565b815460009082106114fc5760405162461bcd60e51b81526004016104df90612105565b82600001828154811061151f57634e487b7160e01b600052603260045260246000fd5b9060005260206000200154905092915050565b6000611546846001600160a01b0316611834565b1561165b57836001600160a01b031663150b7a02611562610b52565b8786866040518563ffffffff1660e01b815260040161158494939291906120a2565b602060405180830381600087803b15801561159e57600080fd5b505af19250505080156115ce575060408051601f3d908101601f191682019092526115cb91810190612017565b60015b611628573d8080156115fc576040519150601f19603f3d011682016040523d82523d6000602084013e611601565b606091505b5080516116205760405162461bcd60e51b81526004016104df9061230d565b805181602001fd5b6001600160e01b0319167f150b7a0200000000000000000000000000000000000000000000000000000000149050610c4e565b506001949350505050565b60408051602081019091526000815290565b606061168382610b35565b61169f5760405162461bcd60e51b81526004016104df90612843565b60006116a9611666565b905060008151116116c9576040518060200160405280600081525061086d565b806116d38461183a565b6040516020016116e492919061205f565b6040516020818303038152906040529392505050565b60009081526001919091016020526040902054151590565b60006001600160e01b031982167f5a05180f00000000000000000000000000000000000000000000000000000000148061041e575061041e82611989565b61175b8383836119c7565b611763610783565b156105975760405162461bcd60e51b81526004016104df90612162565b600061178b8261078c565b9050611799816000846112ee565b6117a4600083610b56565b6001600160a01b03811660009081526005602052604081208054600192906117cd908490612afa565b9091555050600082815260046020526040808220805473ffffffffffffffffffffffffffffffffffffffff19169055518391906001600160a01b038416907fddf252ad1be2c89b69c2b068fc378daa952ba7f163c4a11628f55a4df523b3ef908390a45050565b3b151590565b60608161187b575060408051808201909152600181527f30000000000000000000000000000000000000000000000000000000000000006020820152610421565b8160005b81156118a5578061188f81612b78565b915061189e9050600a83612ae6565b915061187f565b60008167ffffffffffffffff8111156118ce57634e487b7160e01b600052604160045260246000fd5b6040519080825280601f01601f1916602001820160405280156118f8576020820181803683370190505b5090505b8415610c4e5761190d600183612afa565b915061191a600a86612bb1565b611925906030612ace565b60f81b81838151811061194857634e487b7160e01b600052603260045260246000fd5b60200101907effffffffffffffffffffffffffffffffffffffffffffffffffffffffffffff1916908160001a905350611982600a86612ae6565b94506118fc565b60006001600160e01b031982167f7965db0b00000000000000000000000000000000000000000000000000000000148061041e575061041e82611a50565b6119d2838383610597565b6001600160a01b0383166119ee576119e981611a82565b611a11565b816001600160a01b0316836001600160a01b031614611a1157611a118382611ac6565b6001600160a01b038216611a2d57611a2881611b63565b610597565b826001600160a01b0316826001600160a01b031614610597576105978282611c3c565b6001600160e01b031981167f01ffc9a70000000000000000000000000000000000000000000000000000000014919050565b600a80546000838152600b60205260408120829055600182018355919091527fc65a7bb8d6351c1cf70c95a316cc6a92839c986682d98bc35f958f4883f9d2a80155565b60006001611ad3846107c1565b611add9190612afa565b600083815260096020526040902054909150808214611b30576001600160a01b03841660009081526008602090815260408083208584528252808320548484528184208190558352600990915290208190555b5060009182526009602090815260408084208490556001600160a01b039094168352600881528383209183525290812055565b600a54600090611b7590600190612afa565b6000838152600b6020526040812054600a8054939450909284908110611bab57634e487b7160e01b600052603260045260246000fd5b9060005260206000200154905080600a8381548110611bda57634e487b7160e01b600052603260045260246000fd5b6000918252602080832090910192909255828152600b9091526040808220849055858252812055600a805480611c2057634e487b7160e01b600052603160045260246000fd5b6001900381819060005260206000200160009055905550505050565b6000611c47836107c1565b6001600160a01b039093166000908152600860209081526040808320868452825280832085905593825260099052919091209190915550565b828054611c8c90612b3d565b90600052602060002090601f016020900481019282611cae5760008555611cf4565b82601f10611cc757805160ff1916838001178555611cf4565b82800160010185558215611cf4579182015b82811115611cf4578251825591602001919060010190611cd9565b50611d00929150611d3c565b5090565b508054611d1090612b3d565b6000825580601f10611d225750610725565b601f01602090049060005260206000209081019061072591905b5b80821115611d005760008155600101611d3d565b600067ffffffffffffffff80841115611d6c57611d6c612bf1565b604051601f8501601f19908116603f01168101908282118183101715611d9457611d94612bf1565b81604052809350858152868686011115611dad57600080fd5b858560208301376000602087830101525050509392505050565b80356001600160a01b038116811461042157600080fd5b600060208284031215611def578081fd5b61086d82611dc7565b60008060408385031215611e0a578081fd5b611e1383611dc7565b9150611e2160208401611dc7565b90509250929050565b600080600060608486031215611e3e578081fd5b611e4784611dc7565b9250611e5560208501611dc7565b9150604084013590509250925092565b60008060008060808587031215611e7a578081fd5b611e8385611dc7565b9350611e9160208601611dc7565b925060408501359150606085013567ffffffffffffffff811115611eb3578182fd5b8501601f81018713611ec3578182fd5b611ed287823560208401611d51565b91505092959194509250565b60008060408385031215611ef0578182fd5b611ef983611dc7565b915060208301358015158114611f0d578182fd5b809150509250929050565b60008060408385031215611f2a578182fd5b611f3383611dc7565b9150602083013567ffffffffffffffff811115611f4e578182fd5b8301601f81018513611f5e578182fd5b611f6d85823560208401611d51565b9150509250929050565b60008060408385031215611f89578182fd5b611f9283611dc7565b946020939093013593505050565b600060208284031215611fb1578081fd5b5035919050565b60008060408385031215611fca578182fd5b82359150611e2160208401611dc7565b60008060408385031215611fec578182fd5b50508035926020909101359150565b60006020828403121561200c578081fd5b813561086d81612c07565b600060208284031215612028578081fd5b815161086d81612c07565b6000815180845261204b816020860160208601612b11565b601f01601f19169290920160200192915050565b60008351612071818460208801612b11565b835190830190612085818360208801612b11565b01949350505050565b6001600160a01b0391909116815260200190565b60006001600160a01b038087168352808616602084015250836040830152608060608301526120d46080830184612033565b9695505050505050565b901515815260200190565b90815260200190565b60006020825261086d6020830184612033565b60208082526022908201527f456e756d657261626c655365743a20696e646578206f7574206f6620626f756e60408201527f6473000000000000000000000000000000000000000000000000000000000000606082015260800190565b6020808252602b908201527f4552433732315061757361626c653a20746f6b656e207472616e73666572207760408201527f68696c6520706175736564000000000000000000000000000000000000000000606082015260800190565b6020808252602f908201527f416363657373436f6e74726f6c3a2073656e646572206d75737420626520616e60408201527f2061646d696e20746f206772616e740000000000000000000000000000000000606082015260800190565b60208082526014908201527f5061757361626c653a206e6f7420706175736564000000000000000000000000604082015260600190565b60208082526027908201527f734552433732313a206d75737420686176652070617573657220726f6c65207460408201527f6f20706175736500000000000000000000000000000000000000000000000000606082015260800190565b6020808252602b908201527f455243373231456e756d657261626c653a206f776e657220696e646578206f7560408201527f74206f6620626f756e6473000000000000000000000000000000000000000000606082015260800190565b60208082526032908201527f4552433732313a207472616e7366657220746f206e6f6e20455243373231526560408201527f63656976657220696d706c656d656e7465720000000000000000000000000000606082015260800190565b60208082526026908201527f734552433732313a206d7573742068617665206d696e74657220726f6c65207460408201527f6f206d696e740000000000000000000000000000000000000000000000000000606082015260800190565b6020808252601c908201527f4552433732313a20746f6b656e20616c7265616479206d696e74656400000000604082015260600190565b60208082526024908201527f4552433732313a207472616e7366657220746f20746865207a65726f2061646460408201527f7265737300000000000000000000000000000000000000000000000000000000606082015260800190565b60208082526019908201527f4552433732313a20617070726f766520746f2063616c6c657200000000000000604082015260600190565b6020808252602c908201527f4552433732313a206f70657261746f7220717565727920666f72206e6f6e657860408201527f697374656e7420746f6b656e0000000000000000000000000000000000000000606082015260800190565b60208082526030908201527f416363657373436f6e74726f6c3a2073656e646572206d75737420626520616e60408201527f2061646d696e20746f207265766f6b6500000000000000000000000000000000606082015260800190565b60208082526010908201527f5061757361626c653a2070617573656400000000000000000000000000000000604082015260600190565b60208082526038908201527f4552433732313a20617070726f76652063616c6c6572206973206e6f74206f7760408201527f6e6572206e6f7220617070726f76656420666f7220616c6c0000000000000000606082015260800190565b6020808252602a908201527f4552433732313a2062616c616e636520717565727920666f7220746865207a6560408201527f726f206164647265737300000000000000000000000000000000000000000000606082015260800190565b60208082526029908201527f4552433732313a206f776e657220717565727920666f72206e6f6e657869737460408201527f656e7420746f6b656e0000000000000000000000000000000000000000000000606082015260800190565b6020808252602e908201527f45524337323155524953746f726167653a2055524920736574206f66206e6f6e60408201527f6578697374656e7420746f6b656e000000000000000000000000000000000000606082015260800190565b6020808252818101527f4552433732313a206d696e7420746f20746865207a65726f2061646472657373604082015260600190565b60208082526031908201527f45524337323155524953746f726167653a2055524920717565727920666f722060408201527f6e6f6e6578697374656e7420746f6b656e000000000000000000000000000000606082015260800190565b6020808252602c908201527f4552433732313a20617070726f76656420717565727920666f72206e6f6e657860408201527f697374656e7420746f6b656e0000000000000000000000000000000000000000606082015260800190565b60208082526029908201527f4552433732313a207472616e73666572206f6620746f6b656e2074686174206960408201527f73206e6f74206f776e0000000000000000000000000000000000000000000000606082015260800190565b6020808252602f908201527f4552433732314d657461646174613a2055524920717565727920666f72206e6f60408201527f6e6578697374656e7420746f6b656e0000000000000000000000000000000000606082015260800190565b60208082526021908201527f4552433732313a20617070726f76616c20746f2063757272656e74206f776e6560408201527f7200000000000000000000000000000000000000000000000000000000000000606082015260800190565b60208082526029908201527f734552433732313a206d75737420686176652070617573657220726f6c65207460408201527f6f20756e70617573650000000000000000000000000000000000000000000000606082015260800190565b60208082526031908201527f4552433732313a207472616e736665722063616c6c6572206973206e6f74206f60408201527f776e6572206e6f7220617070726f766564000000000000000000000000000000606082015260800190565b6020808252602c908201527f455243373231456e756d657261626c653a20676c6f62616c20696e646578206f60408201527f7574206f6620626f756e64730000000000000000000000000000000000000000606082015260800190565b60208082526030908201527f4552433732314275726e61626c653a2063616c6c6572206973206e6f74206f7760408201527f6e6572206e6f7220617070726f76656400000000000000000000000000000000606082015260800190565b6020808252602f908201527f416363657373436f6e74726f6c3a2063616e206f6e6c792072656e6f756e636560408201527f20726f6c657320666f722073656c660000000000000000000000000000000000606082015260800190565b60008219821115612ae157612ae1612bc5565b500190565b600082612af557612af5612bdb565b500490565b600082821015612b0c57612b0c612bc5565b500390565b60005b83811015612b2c578181015183820152602001612b14565b838111156109b85750506000910152565b600281046001821680612b5157607f821691505b60208210811415612b7257634e487b7160e01b600052602260045260246000fd5b50919050565b60007fffffffffffffffffffffffffffffffffffffffffffffffffffffffffffffffff821415612baa57612baa612bc5565b5060010190565b600082612bc057612bc0612bdb565b500690565b634e487b7160e01b600052601160045260246000fd5b634e487b7160e01b600052601260045260246000fd5b634e487b7160e01b600052604160045260246000fd5b6001600160e01b03198116811461072557600080fdfea2646970667358221220a64b210d2cdf9b3f3e6d8b85ab1abe5c52f7e396ce3c2eb443bac0acaab5e27364736f6c63430008010033",
  "linkReferences": {},
  "deployedLinkReferences": {}
}