{
  "_format": "hh-sol-artifact-1",
  "contractName": "ERC1155ReceiverMock",
  "sourceName": "contracts/test/ERC1155ReceiverMock.sol",
  "abi": [
    {
      "inputs": [
        {
          "internalType": "bytes4",
          "name": "receiveValue",
          "type": "bytes4"
        },
        {
          "internalType": "bool",
          "name": "receiveReverts",
          "type": "bool"
        },
        {
          "internalType": "bytes4",
          "name": "batchReceiveValue",
          "type": "bytes4"
        },
        {
          "internalType": "bool",
          "name": "batchReceiveReverts",
          "type": "bool"
        }
      ],
      "stateMutability": "nonpayable",
      "type": "constructor"
    },
    {
      "anonymous": false,
      "inputs": [
        {
          "indexed": false,
          "internalType": "address",
          "name": "operator",
          "type": "address"
        },
        {
          "indexed": false,
          "internalType": "address",
          "name": "from",
          "type": "address"
        },
        {
          "indexed": false,
          "internalType": "uint256[]",
          "name": "ids",
          "type": "uint256[]"
        },
        {
          "indexed": false,
          "internalType": "uint256[]",
          "name": "values",
          "type": "uint256[]"
        },
        {
          "indexed": false,
          "internalType": "bytes",
          "name": "data",
          "type": "bytes"
        }
      ],
      "name": "BatchReceived",
      "type": "event"
    },
    {
      "anonymous": false,
      "inputs": [
        {
          "indexed": false,
          "internalType": "address",
          "name": "operator",
          "type": "address"
        },
        {
          "indexed": false,
          "internalType": "address",
          "name": "from",
          "type": "address"
        },
        {
          "indexed": false,
          "internalType": "uint256",
          "name": "id",
          "type": "uint256"
        },
        {
          "indexed": false,
          "internalType": "uint256",
          "name": "value",
          "type": "uint256"
        },
        {
          "indexed": false,
          "internalType": "bytes",
          "name": "data",
          "type": "bytes"
        }
      ],
      "name": "Received",
      "type": "event"
    },
    {
      "inputs": [
        {
          "internalType": "bytes32",
          "name": "c__0xb10b687d",
          "type": "bytes32"
        }
      ],
      "name": "c_0xb10b687d",
      "outputs": [],
      "stateMutability": "pure",
      "type": "function"
    },
    {
      "inputs": [
        {
          "internalType": "address",
          "name": "operator",
          "type": "address"
        },
        {
          "internalType": "address",
          "name": "from",
          "type": "address"
        },
        {
          "internalType": "uint256[]",
          "name": "ids",
          "type": "uint256[]"
        },
        {
          "internalType": "uint256[]",
          "name": "values",
          "type": "uint256[]"
        },
        {
          "internalType": "bytes",
          "name": "data",
          "type": "bytes"
        }
      ],
      "name": "onERC1155BatchReceived",
      "outputs": [
        {
          "internalType": "bytes4",
          "name": "",
          "type": "bytes4"
        }
      ],
      "stateMutability": "nonpayable",
      "type": "function"
    },
    {
      "inputs": [
        {
          "internalType": "address",
          "name": "operator",
          "type": "address"
        },
        {
          "internalType": "address",
          "name": "from",
          "type": "address"
        },
        {
          "internalType": "uint256",
          "name": "id",
          "type": "uint256"
        },
        {
          "internalType": "uint256",
          "name": "value",
          "type": "uint256"
        },
        {
          "internalType": "bytes",
          "name": "data",
          "type": "bytes"
        }
      ],
      "name": "onERC1155Received",
      "outputs": [
        {
          "internalType": "bytes4",
          "name": "",
          "type": "bytes4"
        }
      ],
      "stateMutability": "nonpayable",
      "type": "function"
    },
    {
      "inputs": [
        {
          "internalType": "bytes4",
          "name": "interfaceId",
          "type": "bytes4"
        }
      ],
      "name": "supportsInterface",
      "outputs": [
        {
          "internalType": "bool",
          "name": "",
          "type": "bool"
        }
      ],
      "stateMutability": "pure",
      "type": "function"
    }
  ],
  "bytecode": "0x60806040523480156200001157600080fd5b50604051620010e4380380620010e48339818101604052810190620000379190620002b5565b6200006b7fbea0155ef8b67c20abcb4eb426855f1af743916c63bfe4c26393cf8754dee9d860001b6200028460201b60201c565b6200009f7fe5aebec14c1fd7e5457c6b4ab37090fe69175fd9512a98b1f66889a8ffc31bae60001b6200028460201b60201c565b620000d37f339c3af53071d8cec89653107affafa09d88f75947f9594fbad7078850b5b4ca60001b6200028460201b60201c565b836000806101000a81548163ffffffff021916908360e01c0217905550620001247fc380457b8e4649b71d2e8aa3faaccfcf2031383e06fee46ce9dc366e3b7c766660001b6200028460201b60201c565b620001587fb739dfdd2ed1fc0c3cc454a605e62eb3fc616c2cad315eb17025ed25c154ae4560001b6200028460201b60201c565b82600060046101000a81548160ff021916908315150217905550620001a67fb747ed323f2f22a78ccc5afd9c9ad77e25b0da65f9fd2c5cff9b25eb9f0f42f960001b6200028460201b60201c565b620001da7f30ecfa0fe6af4ed38c7a18e92bb1f3523f628c25db5488f59aa6909ebee8c37d60001b6200028460201b60201c565b81600060056101000a81548163ffffffff021916908360e01c02179055506200022c7fbe8a13d447d8a0df8cdee3b164575bfac53ffccadd197939e938596b371bc96360001b6200028460201b60201c565b620002607f5fea235e822adb9e129f933a945dec5abf686fdac04fe2126929b333f812cd8a60001b6200028460201b60201c565b80600060096101000a81548160ff021916908315150217905550505050506200038d565b50565b600081519050620002988162000359565b92915050565b600081519050620002af8162000373565b92915050565b60008060008060808587031215620002cc57600080fd5b6000620002dc878288016200029e565b9450506020620002ef8782880162000287565b935050604062000302878288016200029e565b9250506060620003158782880162000287565b91505092959194509250565b60008115159050919050565b60007fffffffff0000000000000000000000000000000000000000000000000000000082169050919050565b620003648162000321565b81146200037057600080fd5b50565b6200037e816200032d565b81146200038a57600080fd5b50565b610d47806200039d6000396000f3fe608060405234801561001057600080fd5b506004361061004c5760003560e01c806301ffc9a71461005157806399af502b14610081578063bc197c811461009d578063f23a6e61146100cd575b600080fd5b61006b600480360381019061006691906108d6565b6100fd565b6040516100789190610ad0565b60405180910390f35b61009b600480360381019061009691906108ad565b6101eb565b005b6100b760048036038101906100b2919061074f565b6101ee565b6040516100c49190610aeb565b60405180910390f35b6100e760048036038101906100e2919061081b565b61042e565b6040516100f49190610aeb565b60405180910390f35b600061012b7f550f0e2a6897e686864bbdfa565e748a9da588b7da9d5d1c731457cfacec710560001b6101eb565b6101577fe68fd247de9e5bc543c0df76d66ee2cab9485a32302f647ed6c2e04868c46a9360001b6101eb565b6101837f78de1a0fd890f9a430077305700eceb4c8f3bcd6429ac06d2e7d244e0629c7bb60001b6101eb565b7f4e2312e0000000000000000000000000000000000000000000000000000000007bffffffffffffffffffffffffffffffffffffffffffffffffffffffff1916827bffffffffffffffffffffffffffffffffffffffffffffffffffffffff1916149050919050565b50565b600061021c7f65de14ccd1d61b0b8d4f338328fb5b5251043dd1882ef6570f10701abd64cc8d60001b6101eb565b6102487ffe6dd71c6e500dac2afdd5af8c0b2bddb560fcaba8423180b86ae36d94cef9fc60001b6101eb565b6102747f9fe076c43606c3d106e1800463bd9bb61de6d69560c79b8585916d64a617f4fa60001b6101eb565b6102a07ff2624aee9c699daa5312d85d1f5b9443792d93ee9f0dea69efa7d20a84308f3560001b6101eb565b600060099054906101000a900460ff166102ef576040517f08c379a00000000000000000000000000000000000000000000000000000000081526004016102e690610b26565b60405180910390fd5b61031b7f48dc03444d90deccc0fd2e3c84be830690095f1f46d490cf8d4afca91abd2fb260001b6101eb565b6103477f35ee04a2a5f04371d7978e51cb827d65e32a6303c79bb678d59d7d61758df44660001b6101eb565b6103737f2ba16462484d9395c805c30720b913f4c425de42af07efb3d6f73e0abcd7a8f460001b6101eb565b7f9facaeece8596899cc39b65f0d1e262008ade8403076a2dfb6df2004fc8d965289898989898989896040516103b0989796959493929190610a06565b60405180910390a16103e47f91495d8d7cc6e0fbd068cfd27a06c7287aeec825c4b4255571b8c5f537a3df5760001b6101eb565b6104107f3c23ba8c43aa77fdee10bea1cde84c4f26f8f0fe3a95f0e229c8c6d6e790b4fe60001b6101eb565b600060059054906101000a900460e01b905098975050505050505050565b600061045c7fd53f9b41be7e00d6ee1226c2dc9a0e72d4f9f946a293d2f5480bfca1b220b63e60001b6101eb565b6104887f466f6f6fdd32e93dd35bb0c414163cb9bf830c73a717b503fe2e07717f5be4b860001b6101eb565b6104b47f69951e5ed275cc0f0f9e536451d022bafb6dfbcdffec637c66cb5611a7d7222760001b6101eb565b6104e07fc34fd0c224417392b1704e962e18c6ec10af71f3a59215afcc57788d2fb4863860001b6101eb565b600060049054906101000a900460ff1615610530576040517f08c379a000000000000000000000000000000000000000000000000000000000815260040161052790610b06565b60405180910390fd5b61055c7f24d6c4763730b5c9173ba9859844bc477bc154f9987d3939f76893fe734bdb4260001b6101eb565b6105887f0548238b3192365c00b61d6a806c0e91d5978a46b7e02e79de830b54339c1f6960001b6101eb565b6105b47fe84d7c2f385a65a83763f759ee72db6cc4b1dacb66f52837464017226477024e60001b6101eb565b7fe4b060c773f3fcca980bf840b0e2856ca36598bb4da2c0c3913b89050630df378787878787876040516105ed96959493929190610a74565b60405180910390a16106217f92f7e35c1fd4fd978dcbadbd307c2edf0764420a48dcba33219ffbde6ffd66f760001b6101eb565b61064d7fb921589b9eae006e31f3354a4578196e9f10067ba9da2beb81077ff5956174f460001b6101eb565b60008054906101000a900460e01b90509695505050505050565b60008135905061067681610cb5565b92915050565b60008083601f84011261068e57600080fd5b8235905067ffffffffffffffff8111156106a757600080fd5b6020830191508360208202830111156106bf57600080fd5b9250929050565b6000813590506106d581610ccc565b92915050565b6000813590506106ea81610ce3565b92915050565b60008083601f84011261070257600080fd5b8235905067ffffffffffffffff81111561071b57600080fd5b60208301915083600182028301111561073357600080fd5b9250929050565b60008135905061074981610cfa565b92915050565b60008060008060008060008060a0898b03121561076b57600080fd5b60006107798b828c01610667565b985050602061078a8b828c01610667565b975050604089013567ffffffffffffffff8111156107a757600080fd5b6107b38b828c0161067c565b9650965050606089013567ffffffffffffffff8111156107d257600080fd5b6107de8b828c0161067c565b9450945050608089013567ffffffffffffffff8111156107fd57600080fd5b6108098b828c016106f0565b92509250509295985092959890939650565b60008060008060008060a0878903121561083457600080fd5b600061084289828a01610667565b965050602061085389828a01610667565b955050604061086489828a0161073a565b945050606061087589828a0161073a565b935050608087013567ffffffffffffffff81111561089257600080fd5b61089e89828a016106f0565b92509250509295509295509295565b6000602082840312156108bf57600080fd5b60006108cd848285016106c6565b91505092915050565b6000602082840312156108e857600080fd5b60006108f6848285016106db565b91505092915050565b61090881610b79565b82525050565b600061091a8385610b46565b93507f07ffffffffffffffffffffffffffffffffffffffffffffffffffffffffffffff83111561094957600080fd5b60208302925061095a838584610bf7565b82840190509392505050565b61096f81610b8b565b82525050565b61097e81610ba1565b82525050565b60006109908385610b57565b935061099d838584610bf7565b6109a683610c06565b840190509392505050565b60006109be602983610b68565b91506109c982610c17565b604082019050919050565b60006109e1602f83610b68565b91506109ec82610c66565b604082019050919050565b610a0081610bed565b82525050565b600060a082019050610a1b600083018b6108ff565b610a28602083018a6108ff565b8181036040830152610a3b81888a61090e565b90508181036060830152610a5081868861090e565b90508181036080830152610a65818486610984565b90509998505050505050505050565b600060a082019050610a8960008301896108ff565b610a9660208301886108ff565b610aa360408301876109f7565b610ab060608301866109f7565b8181036080830152610ac3818486610984565b9050979650505050505050565b6000602082019050610ae56000830184610966565b92915050565b6000602082019050610b006000830184610975565b92915050565b60006020820190508181036000830152610b1f816109b1565b9050919050565b60006020820190508181036000830152610b3f816109d4565b9050919050565b600082825260208201905092915050565b600082825260208201905092915050565b600082825260208201905092915050565b6000610b8482610bcd565b9050919050565b60008115159050919050565b6000819050919050565b60007fffffffff0000000000000000000000000000000000000000000000000000000082169050919050565b600073ffffffffffffffffffffffffffffffffffffffff82169050919050565b6000819050919050565b82818337600083830152505050565b6000601f19601f8301169050919050565b7f4552433131353552656365697665724d6f636b3a20726576657274696e67206f60008201527f6e20726563656976650000000000000000000000000000000000000000000000602082015250565b7f4552433131353552656365697665724d6f636b3a20726576657274696e67206f60008201527f6e20626174636820726563656976650000000000000000000000000000000000602082015250565b610cbe81610b79565b8114610cc957600080fd5b50565b610cd581610b97565b8114610ce057600080fd5b50565b610cec81610ba1565b8114610cf757600080fd5b50565b610d0381610bed565b8114610d0e57600080fd5b5056fea2646970667358221220dae3281ab9dc6cb9804b981c384047580dd088a4ed558c67834ce51df3ed840864736f6c63430008010033",
  "linkReferences": {},
  "deployedLinkReferences": {}
}