{
  "_format": "hh-sol-artifact-1",
  "contractName": "Cast",
  "sourceName": "contracts/core/lib/Cast.sol",
  "abi": [
    {
      "inputs": [
        {
          "internalType": "bytes32",
          "name": "c__0x5a0413db",
          "type": "bytes32"
        }
      ],
      "name": "c_0x5a0413db",
      "outputs": [],
      "stateMutability": "pure",
      "type": "function"
    }
  ],
  "bytecode": "0x60e0610052600b82828239805160001a607314610045577f4e487b7100000000000000000000000000000000000000000000000000000000600052600060045260246000fd5b30600052607381538281f3fe730000000000000000000000000000000000000000301460806040526004361060335760003560e01c806335d0d888146038575b600080fd5b604e6004803603810190604a91906066565b6050565b005b50565b6000813590506060816096565b92915050565b600060208284031215607757600080fd5b60006083848285016053565b91505092915050565b6000819050919050565b609d81608c565b811460a757600080fd5b5056fea2646970667358221220369f27666bfa253c706a80c2ec1b7e3055d167d41ec839f734e235681aea9ec664736f6c63430008010033",
  "linkReferences": {},
  "deployedLinkReferences": {}
}