{
  "_format": "hh-sol-artifact-1",
  "contractName": "AllocationSplitter",
  "sourceName": "contracts/utils/AllocationSplitter.sol",
  "abi": [
    {
      "inputs": [
        {
          "internalType": "address",
          "name": "allocator",
          "type": "address"
        }
      ],
      "stateMutability": "nonpayable",
      "type": "constructor"
    },
    {
      "anonymous": false,
      "inputs": [
        {
          "indexed": true,
          "internalType": "address",
          "name": "token",
          "type": "address"
        },
        {
          "indexed": false,
          "internalType": "address[]",
          "name": "beneficiaries",
          "type": "address[]"
        },
        {
          "indexed": false,
          "internalType": "address[]",
          "name": "shares",
          "type": "address[]"
        }
      ],
      "name": "Allocate",
      "type": "event"
    },
    {
      "anonymous": false,
      "inputs": [
        {
          "indexed": true,
          "internalType": "bytes32",
          "name": "role",
          "type": "bytes32"
        },
        {
          "indexed": true,
          "internalType": "bytes32",
          "name": "previousAdminRole",
          "type": "bytes32"
        },
        {
          "indexed": true,
          "internalType": "bytes32",
          "name": "newAdminRole",
          "type": "bytes32"
        }
      ],
      "name": "RoleAdminChanged",
      "type": "event"
    },
    {
      "anonymous": false,
      "inputs": [
        {
          "indexed": true,
          "internalType": "bytes32",
          "name": "role",
          "type": "bytes32"
        },
        {
          "indexed": true,
          "internalType": "address",
          "name": "account",
          "type": "address"
        },
        {
          "indexed": true,
          "internalType": "address",
          "name": "sender",
          "type": "address"
        }
      ],
      "name": "RoleGranted",
      "type": "event"
    },
    {
      "anonymous": false,
      "inputs": [
        {
          "indexed": true,
          "internalType": "bytes32",
          "name": "role",
          "type": "bytes32"
        },
        {
          "indexed": true,
          "internalType": "address",
          "name": "account",
          "type": "address"
        },
        {
          "indexed": true,
          "internalType": "address",
          "name": "sender",
          "type": "address"
        }
      ],
      "name": "RoleRevoked",
      "type": "event"
    },
    {
      "anonymous": false,
      "inputs": [
        {
          "indexed": true,
          "internalType": "address",
          "name": "token",
          "type": "address"
        },
        {
          "indexed": true,
          "internalType": "address",
          "name": "beneficiary",
          "type": "address"
        },
        {
          "indexed": false,
          "internalType": "uint256",
          "name": "amount",
          "type": "uint256"
        }
      ],
      "name": "Withdraw",
      "type": "event"
    },
    {
      "inputs": [],
      "name": "ALLOCATE_ROLE",
      "outputs": [
        {
          "internalType": "bytes32",
          "name": "",
          "type": "bytes32"
        }
      ],
      "stateMutability": "view",
      "type": "function"
    },
    {
      "inputs": [],
      "name": "DEFAULT_ADMIN_ROLE",
      "outputs": [
        {
          "internalType": "bytes32",
          "name": "",
          "type": "bytes32"
        }
      ],
      "stateMutability": "view",
      "type": "function"
    },
    {
      "inputs": [],
      "name": "PCT_BASE",
      "outputs": [
        {
          "internalType": "uint256",
          "name": "",
          "type": "uint256"
        }
      ],
      "stateMutability": "view",
      "type": "function"
    },
    {
      "inputs": [
        {
          "internalType": "address",
          "name": "token",
          "type": "address"
        },
        {
          "internalType": "address[]",
          "name": "beneficiaries",
          "type": "address[]"
        },
        {
          "internalType": "uint256[]",
          "name": "shares",
          "type": "uint256[]"
        }
      ],
      "name": "allocate",
      "outputs": [],
      "stateMutability": "nonpayable",
      "type": "function"
    },
    {
      "inputs": [
        {
          "internalType": "address",
          "name": "token",
          "type": "address"
        }
      ],
      "name": "allocationOf",
      "outputs": [
        {
          "internalType": "bool",
          "name": "exists",
          "type": "bool"
        },
        {
          "internalType": "uint256",
          "name": "received",
          "type": "uint256"
        },
        {
          "internalType": "uint256",
          "name": "withdrawn",
          "type": "uint256"
        }
      ],
      "stateMutability": "view",
      "type": "function"
    },
    {
      "inputs": [
        {
          "internalType": "bytes32",
          "name": "role",
          "type": "bytes32"
        }
      ],
      "name": "getRoleAdmin",
      "outputs": [
        {
          "internalType": "bytes32",
          "name": "",
          "type": "bytes32"
        }
      ],
      "stateMutability": "view",
      "type": "function"
    },
    {
      "inputs": [
        {
          "internalType": "bytes32",
          "name": "role",
          "type": "bytes32"
        },
        {
          "internalType": "uint256",
          "name": "index",
          "type": "uint256"
        }
      ],
      "name": "getRoleMember",
      "outputs": [
        {
          "internalType": "address",
          "name": "",
          "type": "address"
        }
      ],
      "stateMutability": "view",
      "type": "function"
    },
    {
      "inputs": [
        {
          "internalType": "bytes32",
          "name": "role",
          "type": "bytes32"
        }
      ],
      "name": "getRoleMemberCount",
      "outputs": [
        {
          "internalType": "uint256",
          "name": "",
          "type": "uint256"
        }
      ],
      "stateMutability": "view",
      "type": "function"
    },
    {
      "inputs": [
        {
          "internalType": "bytes32",
          "name": "role",
          "type": "bytes32"
        },
        {
          "internalType": "address",
          "name": "account",
          "type": "address"
        }
      ],
      "name": "grantRole",
      "outputs": [],
      "stateMutability": "nonpayable",
      "type": "function"
    },
    {
      "inputs": [
        {
          "internalType": "bytes32",
          "name": "role",
          "type": "bytes32"
        },
        {
          "internalType": "address",
          "name": "account",
          "type": "address"
        }
      ],
      "name": "hasRole",
      "outputs": [
        {
          "internalType": "bool",
          "name": "",
          "type": "bool"
        }
      ],
      "stateMutability": "view",
      "type": "function"
    },
    {
      "inputs": [
        {
          "internalType": "bytes32",
          "name": "role",
          "type": "bytes32"
        },
        {
          "internalType": "address",
          "name": "account",
          "type": "address"
        }
      ],
      "name": "renounceRole",
      "outputs": [],
      "stateMutability": "nonpayable",
      "type": "function"
    },
    {
      "inputs": [
        {
          "internalType": "bytes32",
          "name": "role",
          "type": "bytes32"
        },
        {
          "internalType": "address",
          "name": "account",
          "type": "address"
        }
      ],
      "name": "revokeRole",
      "outputs": [],
      "stateMutability": "nonpayable",
      "type": "function"
    },
    {
      "inputs": [
        {
          "internalType": "bytes4",
          "name": "interfaceId",
          "type": "bytes4"
        }
      ],
      "name": "supportsInterface",
      "outputs": [
        {
          "internalType": "bool",
          "name": "",
          "type": "bool"
        }
      ],
      "stateMutability": "view",
      "type": "function"
    },
    {
      "inputs": [
        {
          "internalType": "address",
          "name": "token",
          "type": "address"
        }
      ],
      "name": "withdraw",
      "outputs": [],
      "stateMutability": "nonpayable",
      "type": "function"
    },
    {
      "inputs": [
        {
          "internalType": "address",
          "name": "token",
          "type": "address"
        },
        {
          "internalType": "address",
          "name": "beneficiary",
          "type": "address"
        }
      ],
      "name": "withdrawnBy",
      "outputs": [
        {
          "internalType": "uint256",
          "name": "",
          "type": "uint256"
        }
      ],
      "stateMutability": "view",
      "type": "function"
    }
  ],
  "bytecode": "0x60806040523480156200001157600080fd5b50604051620015e8380380620015e883398101604081905262000034916200020e565b6200004a6000620000446200007d565b62000081565b620000767f3e716b9e768f9140a805a7bd2ea8ed6273ee028841754af21433cf2650718e908262000081565b506200023e565b3390565b620000988282620000c460201b620008021760201c565b6000828152600160209081526040909120620000bf91839062000810620000d4821b17901c565b505050565b620000d08282620000f4565b5050565b6000620000eb836001600160a01b0384166200017e565b90505b92915050565b620001008282620001cd565b620000d0576000828152602081815260408083206001600160a01b03851684529091529020805460ff191660011790556200013a6200007d565b6001600160a01b0316816001600160a01b0316837f2f8788117e7eff1d82e926ec794901d17c78024a50270940304540a733656f0d60405160405180910390a45050565b60006200018c8383620001f6565b620001c457508154600181810184556000848152602080822090930184905584548482528286019093526040902091909155620000ee565b506000620000ee565b6000918252602082815260408084206001600160a01b0393909316845291905290205460ff1690565b60009081526001919091016020526040902054151590565b60006020828403121562000220578081fd5b81516001600160a01b038116811462000237578182fd5b9392505050565b61139a806200024e6000396000f3fe608060405234801561001057600080fd5b50600436106100f55760003560e01c806351cff8d911610097578063a4f82f2711610066578063a4f82f27146101e7578063ca15c87314610209578063d547741f1461021c578063fc157cb41461022f576100f5565b806351cff8d9146101995780639010d07c146101ac57806391d14854146101cc578063a217fddf146101df576100f5565b8063133f52a3116100d3578063133f52a31461014d578063248a9ca3146101605780632f2ff15d1461017357806336568abe14610186576100f5565b806301b943a8146100fa57806301ffc9a7146101185780630d3f7ae914610138575b600080fd5b610102610237565b60405161010f9190610f77565b60405180910390f35b61012b610126366004610ecf565b61025b565b60405161010f9190610f54565b61014b610146366004610dd6565b6102b9565b005b61010261015b366004610da4565b610410565b61010261016e366004610e74565b610441565b61014b610181366004610e8c565b610456565b61014b610194366004610e8c565b61047d565b61014b6101a7366004610d8a565b61049f565b6101bf6101ba366004610eae565b6106b0565b60405161010f9190610f27565b61012b6101da366004610e8c565b6106cf565b6101026106f8565b6101fa6101f5366004610d8a565b6106fd565b60405161010f93929190610f5f565b610102610217366004610e74565b6107d5565b61014b61022a366004610e8c565b6107ec565b6101026107f6565b7f3e716b9e768f9140a805a7bd2ea8ed6273ee028841754af21433cf2650718e9081565b60007fffffffff0000000000000000000000000000000000000000000000000000000082167f5a05180f0000000000000000000000000000000000000000000000000000000014806102b157506102b182610825565b90505b919050565b6102e57f3e716b9e768f9140a805a7bd2ea8ed6273ee028841754af21433cf2650718e906101da61087b565b61030a5760405162461bcd60e51b81526004016103019061103a565b60405180910390fd5b8281146103295760405162461bcd60e51b815260040161030190611151565b6001600160a01b0385166000908152600260205260409020805460ff16156103635760405162461bcd60e51b81526004016103019061120b565b805460ff1916600117815560005b848110156104075783838281811061039957634e487b7160e01b600052603260045260246000fd5b905060200201358260030160008888858181106103c657634e487b7160e01b600052603260045260246000fd5b90506020020160208101906103db9190610d8a565b6001600160a01b03168152602081019190915260400160002055806103ff81611333565b915050610371565b50505050505050565b6001600160a01b03808316600090815260026020908152604080832093851683526004909301905220545b92915050565b60009081526020819052604090206001015490565b610460828261087f565b60008281526001602052604090206104789082610810565b505050565b61048782826108af565b600082815260016020526040902061047890826108f1565b6001600160a01b0381166000908152600260205260409020805460ff166104d85760405162461bcd60e51b8152600401610301906110f4565b60006104e261087b565b90506104ee8383610906565b6001600160a01b03811660009081526003830160205260408120546001840154670de0b6b3a764000091610521916112fd565b61052b91906112dd565b6001600160a01b03831660009081526004850160205260409020549091508082116105685760405162461bcd60e51b815260040161030190611097565b6000610574828461131c565b6001600160a01b03851660009081526004870160205260408120805492935083929091906105a39084906112c5565b92505081905550808560020160008282546105be91906112c5565b90915550506040517fa9059cbb0000000000000000000000000000000000000000000000000000000081526001600160a01b0387169063a9059cbb9061060a9087908590600401610f3b565b602060405180830381600087803b15801561062457600080fd5b505af1158015610638573d6000803e3d6000fd5b505050506040513d601f19601f8201168201806040525081019061065c9190610e54565b50836001600160a01b0316866001600160a01b03167f9b1bfa7fa9ee420a16e124f794c35ac9f90472acc99140eb2f6447c714cad8eb836040516106a09190610f77565b60405180910390a3505050505050565b60008281526001602052604081206106c890836109bd565b9392505050565b6000918252602082815260408084206001600160a01b0393909316845291905290205460ff1690565b600081565b6001600160a01b03811660008181526002602052604080822090517f70a082310000000000000000000000000000000000000000000000000000000081529192839283929183916370a0823190610758903090600401610f27565b60206040518083038186803b15801561077057600080fd5b505afa158015610784573d6000803e3d6000fd5b505050506040513d601f19601f820116820180604052508101906107a89190610f0f565b8254600284015460ff90911696509091506107c390826112c5565b93508160020154925050509193909250565b60008181526001602052604081206102b1906109c9565b61048782826109d4565b670de0b6b3a764000081565b61080c82826109fc565b5050565b60006106c8836001600160a01b038416610a81565b60007fffffffff0000000000000000000000000000000000000000000000000000000082167f7965db0b0000000000000000000000000000000000000000000000000000000014806102b157506102b182610acb565b3390565b61089361088b83610441565b6101da61087b565b6108025760405162461bcd60e51b815260040161030190610fdd565b6108b761087b565b6001600160a01b0316816001600160a01b0316146108e75760405162461bcd60e51b815260040161030190611268565b61080c8282610b15565b60006106c8836001600160a01b038416610b98565b6040517f70a082310000000000000000000000000000000000000000000000000000000081526000906001600160a01b038416906370a082319061094e903090600401610f27565b60206040518083038186803b15801561096657600080fd5b505afa15801561097a573d6000803e3d6000fd5b505050506040513d601f19601f8201168201806040525081019061099e9190610f0f565b90508160020154816109b091906112c5565b8260010181905550505050565b60006106c88383610cb5565b60006102b182610d0e565b6109e061088b83610441565b6108e75760405162461bcd60e51b8152600401610301906111ae565b610a0682826106cf565b61080c576000828152602081815260408083206001600160a01b03851684529091529020805460ff19166001179055610a3d61087b565b6001600160a01b0316816001600160a01b0316837f2f8788117e7eff1d82e926ec794901d17c78024a50270940304540a733656f0d60405160405180910390a45050565b6000610a8d8383610d12565b610ac35750815460018181018455600084815260208082209093018490558454848252828601909352604090209190915561043b565b50600061043b565b7fffffffff0000000000000000000000000000000000000000000000000000000081167f01ffc9a70000000000000000000000000000000000000000000000000000000014919050565b610b1f82826106cf565b1561080c576000828152602081815260408083206001600160a01b03851684529091529020805460ff19169055610b5461087b565b6001600160a01b0316816001600160a01b0316837ff6391f5c32d9c69d2a47ea670b442974b53935d1edc7fd64eb21e047a839171b60405160405180910390a45050565b60008181526001830160205260408120548015610cab576000610bbc60018361131c565b8554909150600090610bd09060019061131c565b90506000866000018281548110610bf757634e487b7160e01b600052603260045260246000fd5b9060005260206000200154905080876000018481548110610c2857634e487b7160e01b600052603260045260246000fd5b600091825260209091200155610c3f8360016112c5565b60008281526001890160205260409020558654879080610c6f57634e487b7160e01b600052603160045260246000fd5b6001900381819060005260206000200160009055905586600101600087815260200190815260200160002060009055600194505050505061043b565b600091505061043b565b81546000908210610cd85760405162461bcd60e51b815260040161030190610f80565b826000018281548110610cfb57634e487b7160e01b600052603260045260246000fd5b9060005260206000200154905092915050565b5490565b60009081526001919091016020526040902054151590565b80356001600160a01b03811681146102b457600080fd5b60008083601f840112610d52578182fd5b50813567ffffffffffffffff811115610d69578182fd5b6020830191508360208083028501011115610d8357600080fd5b9250929050565b600060208284031215610d9b578081fd5b6106c882610d2a565b60008060408385031215610db6578081fd5b610dbf83610d2a565b9150610dcd60208401610d2a565b90509250929050565b600080600080600060608688031215610ded578081fd5b610df686610d2a565b9450602086013567ffffffffffffffff80821115610e12578283fd5b610e1e89838a01610d41565b90965094506040880135915080821115610e36578283fd5b50610e4388828901610d41565b969995985093965092949392505050565b600060208284031215610e65578081fd5b815180151581146106c8578182fd5b600060208284031215610e85578081fd5b5035919050565b60008060408385031215610e9e578182fd5b82359150610dcd60208401610d2a565b60008060408385031215610ec0578182fd5b50508035926020909101359150565b600060208284031215610ee0578081fd5b81357fffffffff00000000000000000000000000000000000000000000000000000000811681146106c8578182fd5b600060208284031215610f20578081fd5b5051919050565b6001600160a01b0391909116815260200190565b6001600160a01b03929092168252602082015260400190565b901515815260200190565b92151583526020830191909152604082015260600190565b90815260200190565b60208082526022908201527f456e756d657261626c655365743a20696e646578206f7574206f6620626f756e60408201527f6473000000000000000000000000000000000000000000000000000000000000606082015260800190565b6020808252602f908201527f416363657373436f6e74726f6c3a2073656e646572206d75737420626520616e60408201527f2061646d696e20746f206772616e740000000000000000000000000000000000606082015260800190565b60208082526037908201527f416c6c6f636174696f6e53706c69747465723a206d757374206861766520616c60408201527f6c6f6361746520726f6c6520746f20616c6c6f63617465000000000000000000606082015260800190565b60208082526027908201527f416c6c6f636174696f6e53706c69747465723a206e6f7468696e6720746f207760408201527f6974686472617700000000000000000000000000000000000000000000000000606082015260800190565b60208082526027908201527f416c6c6f636174696f6e53706c69747465723a206e6f6e2d616c6c6f6361746560408201527f6420746f6b656e00000000000000000000000000000000000000000000000000606082015260800190565b6020808252603c908201527f416c6c6f636174696f6e53706c69747465723a2062656e65666963696172696560408201527f7320616e6420736861726573206c656e677468206d69736d6174636800000000606082015260800190565b60208082526030908201527f416363657373436f6e74726f6c3a2073656e646572206d75737420626520616e60408201527f2061646d696e20746f207265766f6b6500000000000000000000000000000000606082015260800190565b6020808252602d908201527f416c6c6f636174696f6e53706c69747465723a20616c6c6f636174696f6e206160408201527f6c72656164792065786973747300000000000000000000000000000000000000606082015260800190565b6020808252602f908201527f416363657373436f6e74726f6c3a2063616e206f6e6c792072656e6f756e636560408201527f20726f6c657320666f722073656c660000000000000000000000000000000000606082015260800190565b600082198211156112d8576112d861134e565b500190565b6000826112f857634e487b7160e01b81526012600452602481fd5b500490565b60008160001904831182151516156113175761131761134e565b500290565b60008282101561132e5761132e61134e565b500390565b60006000198214156113475761134761134e565b5060010190565b634e487b7160e01b600052601160045260246000fdfea26469706673582212201136664a8a1669fab62117360e237d52a89eaf7ae11b05a77332695adefe9ade64736f6c63430008010033",
  "linkReferences": {},
  "deployedLinkReferences": {}
}