{
  "_format": "hh-sol-artifact-1",
  "contractName": "AllocationSplitter",
  "sourceName": "contracts/utils/AllocationSplitter.sol",
  "abi": [
    {
      "inputs": [
        {
          "internalType": "address",
          "name": "allocator",
          "type": "address"
        }
      ],
      "stateMutability": "nonpayable",
      "type": "constructor"
    },
    {
      "anonymous": false,
      "inputs": [
        {
          "indexed": true,
          "internalType": "address",
          "name": "token",
          "type": "address"
        },
        {
          "indexed": false,
          "internalType": "address[]",
          "name": "beneficiaries",
          "type": "address[]"
        },
        {
          "indexed": false,
          "internalType": "address[]",
          "name": "shares",
          "type": "address[]"
        }
      ],
      "name": "Allocate",
      "type": "event"
    },
    {
      "anonymous": false,
      "inputs": [
        {
          "indexed": true,
          "internalType": "bytes32",
          "name": "role",
          "type": "bytes32"
        },
        {
          "indexed": true,
          "internalType": "bytes32",
          "name": "previousAdminRole",
          "type": "bytes32"
        },
        {
          "indexed": true,
          "internalType": "bytes32",
          "name": "newAdminRole",
          "type": "bytes32"
        }
      ],
      "name": "RoleAdminChanged",
      "type": "event"
    },
    {
      "anonymous": false,
      "inputs": [
        {
          "indexed": true,
          "internalType": "bytes32",
          "name": "role",
          "type": "bytes32"
        },
        {
          "indexed": true,
          "internalType": "address",
          "name": "account",
          "type": "address"
        },
        {
          "indexed": true,
          "internalType": "address",
          "name": "sender",
          "type": "address"
        }
      ],
      "name": "RoleGranted",
      "type": "event"
    },
    {
      "anonymous": false,
      "inputs": [
        {
          "indexed": true,
          "internalType": "bytes32",
          "name": "role",
          "type": "bytes32"
        },
        {
          "indexed": true,
          "internalType": "address",
          "name": "account",
          "type": "address"
        },
        {
          "indexed": true,
          "internalType": "address",
          "name": "sender",
          "type": "address"
        }
      ],
      "name": "RoleRevoked",
      "type": "event"
    },
    {
      "anonymous": false,
      "inputs": [
        {
          "indexed": true,
          "internalType": "address",
          "name": "token",
          "type": "address"
        },
        {
          "indexed": true,
          "internalType": "address",
          "name": "beneficiary",
          "type": "address"
        },
        {
          "indexed": false,
          "internalType": "uint256",
          "name": "amount",
          "type": "uint256"
        }
      ],
      "name": "Withdraw",
      "type": "event"
    },
    {
      "inputs": [],
      "name": "ALLOCATE_ROLE",
      "outputs": [
        {
          "internalType": "bytes32",
          "name": "",
          "type": "bytes32"
        }
      ],
      "stateMutability": "view",
      "type": "function"
    },
    {
      "inputs": [],
      "name": "DEFAULT_ADMIN_ROLE",
      "outputs": [
        {
          "internalType": "bytes32",
          "name": "",
          "type": "bytes32"
        }
      ],
      "stateMutability": "view",
      "type": "function"
    },
    {
      "inputs": [],
      "name": "PCT_BASE",
      "outputs": [
        {
          "internalType": "uint256",
          "name": "",
          "type": "uint256"
        }
      ],
      "stateMutability": "view",
      "type": "function"
    },
    {
      "inputs": [
        {
          "internalType": "address",
          "name": "token",
          "type": "address"
        },
        {
          "internalType": "address[]",
          "name": "beneficiaries",
          "type": "address[]"
        },
        {
          "internalType": "uint256[]",
          "name": "shares",
          "type": "uint256[]"
        }
      ],
      "name": "allocate",
      "outputs": [],
      "stateMutability": "nonpayable",
      "type": "function"
    },
    {
      "inputs": [
        {
          "internalType": "address",
          "name": "token",
          "type": "address"
        }
      ],
      "name": "allocationOf",
      "outputs": [
        {
          "internalType": "bool",
          "name": "exists",
          "type": "bool"
        },
        {
          "internalType": "uint256",
          "name": "received",
          "type": "uint256"
        },
        {
          "internalType": "uint256",
          "name": "withdrawn",
          "type": "uint256"
        }
      ],
      "stateMutability": "view",
      "type": "function"
    },
    {
      "inputs": [
        {
          "internalType": "bytes32",
          "name": "c__0x1607f1e3",
          "type": "bytes32"
        }
      ],
      "name": "c_0x1607f1e3",
      "outputs": [],
      "stateMutability": "pure",
      "type": "function"
    },
    {
      "inputs": [
        {
          "internalType": "bytes32",
          "name": "role",
          "type": "bytes32"
        }
      ],
      "name": "getRoleAdmin",
      "outputs": [
        {
          "internalType": "bytes32",
          "name": "",
          "type": "bytes32"
        }
      ],
      "stateMutability": "view",
      "type": "function"
    },
    {
      "inputs": [
        {
          "internalType": "bytes32",
          "name": "role",
          "type": "bytes32"
        },
        {
          "internalType": "uint256",
          "name": "index",
          "type": "uint256"
        }
      ],
      "name": "getRoleMember",
      "outputs": [
        {
          "internalType": "address",
          "name": "",
          "type": "address"
        }
      ],
      "stateMutability": "view",
      "type": "function"
    },
    {
      "inputs": [
        {
          "internalType": "bytes32",
          "name": "role",
          "type": "bytes32"
        }
      ],
      "name": "getRoleMemberCount",
      "outputs": [
        {
          "internalType": "uint256",
          "name": "",
          "type": "uint256"
        }
      ],
      "stateMutability": "view",
      "type": "function"
    },
    {
      "inputs": [
        {
          "internalType": "bytes32",
          "name": "role",
          "type": "bytes32"
        },
        {
          "internalType": "address",
          "name": "account",
          "type": "address"
        }
      ],
      "name": "grantRole",
      "outputs": [],
      "stateMutability": "nonpayable",
      "type": "function"
    },
    {
      "inputs": [
        {
          "internalType": "bytes32",
          "name": "role",
          "type": "bytes32"
        },
        {
          "internalType": "address",
          "name": "account",
          "type": "address"
        }
      ],
      "name": "hasRole",
      "outputs": [
        {
          "internalType": "bool",
          "name": "",
          "type": "bool"
        }
      ],
      "stateMutability": "view",
      "type": "function"
    },
    {
      "inputs": [
        {
          "internalType": "bytes32",
          "name": "role",
          "type": "bytes32"
        },
        {
          "internalType": "address",
          "name": "account",
          "type": "address"
        }
      ],
      "name": "renounceRole",
      "outputs": [],
      "stateMutability": "nonpayable",
      "type": "function"
    },
    {
      "inputs": [
        {
          "internalType": "bytes32",
          "name": "role",
          "type": "bytes32"
        },
        {
          "internalType": "address",
          "name": "account",
          "type": "address"
        }
      ],
      "name": "revokeRole",
      "outputs": [],
      "stateMutability": "nonpayable",
      "type": "function"
    },
    {
      "inputs": [
        {
          "internalType": "bytes4",
          "name": "interfaceId",
          "type": "bytes4"
        }
      ],
      "name": "supportsInterface",
      "outputs": [
        {
          "internalType": "bool",
          "name": "",
          "type": "bool"
        }
      ],
      "stateMutability": "view",
      "type": "function"
    },
    {
      "inputs": [
        {
          "internalType": "address",
          "name": "token",
          "type": "address"
        }
      ],
      "name": "withdraw",
      "outputs": [],
      "stateMutability": "nonpayable",
      "type": "function"
    },
    {
      "inputs": [
        {
          "internalType": "address",
          "name": "token",
          "type": "address"
        },
        {
          "internalType": "address",
          "name": "beneficiary",
          "type": "address"
        }
      ],
      "name": "withdrawnBy",
      "outputs": [
        {
          "internalType": "uint256",
          "name": "",
          "type": "uint256"
        }
      ],
      "stateMutability": "view",
      "type": "function"
    }
  ],
  "bytecode": "0x60806040523480156200001157600080fd5b506040516200318b3803806200318b833981810160405281019062000037919062000448565b6200006b7fa0b6ea0a8dc0b7d1256357ff34fc09590dccd605b81ee1deb4ee7f69a906ffa960001b6200019860201b60201c565b6200009f7f456d6b5bcb958da0bbfade07e20de427cabd7dfd8919858074bc3c6c479ade5960001b6200019860201b60201c565b620000d37fd8e3639cba60dfd3d44832bd27f8e3da38d82a9bf5e58db621fb4b30b4196c0860001b6200019860201b60201c565b620000f76000801b620000eb6200019b60201b60201c565b620001a360201b60201c565b6200012b7ff6ed287dad64d01cba14cd9e7596568f662540dd6c7c888a5342101e0d3bc42c60001b6200019860201b60201c565b6200015f7fbc74a5a29165e4839e2c605f0645928a14a860c34fe43aa5adcbe5e4b6fb5da960001b6200019860201b60201c565b620001917f3e716b9e768f9140a805a7bd2ea8ed6273ee028841754af21433cf2650718e9082620001a360201b60201c565b50620004c2565b50565b600033905090565b620001ba8282620001eb60201b620017981760201c565b620001e681600160008581526020019081526020016000206200020160201b620017a61790919060201c565b505050565b620001fd82826200023960201b60201c565b5050565b600062000231836000018373ffffffffffffffffffffffffffffffffffffffff1660001b6200032a60201b60201c565b905092915050565b6200024b8282620003a460201b60201c565b6200032657600160008084815260200190815260200160002060000160008373ffffffffffffffffffffffffffffffffffffffff1673ffffffffffffffffffffffffffffffffffffffff16815260200190815260200160002060006101000a81548160ff021916908315150217905550620002cb6200019b60201b60201c565b73ffffffffffffffffffffffffffffffffffffffff168173ffffffffffffffffffffffffffffffffffffffff16837f2f8788117e7eff1d82e926ec794901d17c78024a50270940304540a733656f0d60405160405180910390a45b5050565b60006200033e83836200040e60201b60201c565b620003995782600001829080600181540180825580915050600190039060005260206000200160009091909190915055826000018054905083600101600084815260200190815260200160002081905550600190506200039e565b600090505b92915050565b600080600084815260200190815260200160002060000160008373ffffffffffffffffffffffffffffffffffffffff1673ffffffffffffffffffffffffffffffffffffffff16815260200190815260200160002060009054906101000a900460ff16905092915050565b600080836001016000848152602001908152602001600020541415905092915050565b6000815190506200044281620004a8565b92915050565b6000602082840312156200045b57600080fd5b60006200046b8482850162000431565b91505092915050565b6000620004818262000488565b9050919050565b600073ffffffffffffffffffffffffffffffffffffffff82169050919050565b620004b38162000474565b8114620004bf57600080fd5b50565b612cb980620004d26000396000f3fe608060405234801561001057600080fd5b50600436106101005760003560e01c80639010d07c11610097578063ca15c87311610066578063ca15c873146102d3578063d547741f14610303578063e7da6c791461031f578063fc157cb41461033b57610100565b80639010d07c1461022357806391d1485414610253578063a217fddf14610283578063a4f82f27146102a157610100565b8063248a9ca3116100d3578063248a9ca31461019f5780632f2ff15d146101cf57806336568abe146101eb57806351cff8d91461020757610100565b806301b943a81461010557806301ffc9a7146101235780630d3f7ae914610153578063133f52a31461016f575b600080fd5b61010d610359565b60405161011a91906125a8565b60405180910390f35b61013d60048036038101906101389190612349565b61037d565b60405161014a9190612556565b60405180910390f35b61016d600480360381019061016891906121f6565b6103f7565b005b610189600480360381019061018491906121ba565b6109f9565b60405161019691906126e3565b60405180910390f35b6101b960048036038101906101b491906122a8565b610b07565b6040516101c691906125a8565b60405180910390f35b6101e960048036038101906101e491906122d1565b610b26565b005b610205600480360381019061020091906122d1565b610b5a565b005b610221600480360381019061021c9190612191565b610b8e565b005b61023d6004803603810190610238919061230d565b6113a2565b60405161024a9190612512565b60405180910390f35b61026d600480360381019061026891906122d1565b6113d1565b60405161027a9190612556565b60405180910390f35b61028b61143b565b60405161029891906125a8565b60405180910390f35b6102bb60048036038101906102b69190612191565b611442565b6040516102ca93929190612571565b60405180910390f35b6102ed60048036038101906102e891906122a8565b611731565b6040516102fa91906126e3565b60405180910390f35b61031d600480360381019061031891906122d1565b611755565b005b610339600480360381019061033491906122a8565b611789565b005b61034361178c565b60405161035091906126e3565b60405180910390f35b7f3e716b9e768f9140a805a7bd2ea8ed6273ee028841754af21433cf2650718e9081565b60007f5a05180f000000000000000000000000000000000000000000000000000000007bffffffffffffffffffffffffffffffffffffffffffffffffffffffff1916827bffffffffffffffffffffffffffffffffffffffffffffffffffffffff191614806103f057506103ef826117d6565b5b9050919050565b6104237fe029236bbeccc4981b591f9d8142b550c7f0e5a3fb3dd44de93224d66eb9467560001b611789565b61044f7f3c2f41ab7c963a3c9e1307ee1472175b1901e1e270b395eaa2c06cc8112ab38860001b611789565b61047b7f1f7ead2e67aff18c6488d0a737b3a8971ec601447259f9de9417c0808641919a60001b611789565b6104a77f504043c812bdc2f0a4194ce22042fbd585df430c449e10159e3faac49872857860001b611789565b6104d87f3e716b9e768f9140a805a7bd2ea8ed6273ee028841754af21433cf2650718e906104d3611850565b6113d1565b610517576040517f08c379a000000000000000000000000000000000000000000000000000000000815260040161050e90612603565b60405180910390fd5b6105437f9b7ccf2a5d163ae44d34d00821351e59a2301699925d194b3e99fb60922f13c060001b611789565b61056f7fe38d33fbdba399f9d7df2472a15200737db207e54fd0447b124ad426826ba93d60001b611789565b61059b7f42f7640488f6a31c2aa0c0493c579f422af2a9a89cc975f376fdb6163621536860001b611789565b6105c77fababd70528d5da6b0e05c88fb5b71e9af3bc81224b64ab3377483129ff1a7c1260001b611789565b81819050848490501461060f576040517f08c379a000000000000000000000000000000000000000000000000000000000815260040161060690612663565b60405180910390fd5b61063b7fb6cafc2f5fff3fff2ef678e8a607e5af781c3ea8fca2c2a6e1a20fa12ff292b960001b611789565b6106677fd7ae6edfe61236f5c09be98bd136b5a046658984df64de46cfb5e7de52e4da2860001b611789565b6106937f3b909a47eac7714b3efb39b98eceae460ae936f4ba584413f7c74314d3d7e3a860001b611789565b6000600260008773ffffffffffffffffffffffffffffffffffffffff1673ffffffffffffffffffffffffffffffffffffffff16815260200190815260200160002090506107027fed931ad2ef0e6a52d8717dcdd7cd853b5455772619154bf495a137545e15281b60001b611789565b61072e7fa276bbb5e4faf959be195d87976fbe85c63b30696e9becdb5deb8c3db28daf1060001b611789565b61075a7f54f7312496bbc2d654f08f3e94780e962d4f4dc4c653416a70985279e7052b8860001b611789565b8060000160009054906101000a900460ff16156107ac576040517f08c379a00000000000000000000000000000000000000000000000000000000081526004016107a3906126a3565b60405180910390fd5b6107d87f5824f4cbd1415f177e5f2d4ed750f6f678abb9000c441c93f4c39ddfea09758d60001b611789565b6108047f353a8ba7487340fe6c0d3a832c9c1a6c4c731e93965c665eba1cb4143a6593a260001b611789565b6108307f1c6bd460a5fc770091481e09922ae37bfa889ae1fb6a7eae6e5112fd665b508f60001b611789565b60018160000160006101000a81548160ff0219169083151502179055506108797f130295332be14b5132dca390114b18bc3f9b4b46d0440d05a209ac3eb22254d160001b611789565b6108a57f46546a00738da1b63888d443bec341baa672b4967b0c28b1b7d4fdf9e2ec3f5160001b611789565b60005b858590508110156109f0576108df7f973c729c196361776320fa4c021034ed95b6e59feecd6537e0b99964bef38a6160001b611789565b61090b7f772657a91823d1dffdd3b8c5d1cf7d2f812ceb2a6df87b39049466eb856cdb6860001b611789565b838382818110610944577f4e487b7100000000000000000000000000000000000000000000000000000000600052603260045260246000fd5b9050602002013582600301600088888581811061098a577f4e487b7100000000000000000000000000000000000000000000000000000000600052603260045260246000fd5b905060200201602081019061099f9190612191565b73ffffffffffffffffffffffffffffffffffffffff1673ffffffffffffffffffffffffffffffffffffffff1681526020019081526020016000208190555080806109e8906128a2565b9150506108a8565b50505050505050565b6000610a277f6307b41fbe61586d81ee74e9a4d9be9665b369c9d784ed6a8173cd5979e5530d60001b611789565b610a537fd8209cfda765cb05d03bf076488f80a9a542ae0c82895ed6b655a67fb4a94e9360001b611789565b610a7f7f3c73df06259204e1c040293d547855af108d8a6e70571795d726bf1b4356a25260001b611789565b600260008473ffffffffffffffffffffffffffffffffffffffff1673ffffffffffffffffffffffffffffffffffffffff16815260200190815260200160002060040160008373ffffffffffffffffffffffffffffffffffffffff1673ffffffffffffffffffffffffffffffffffffffff16815260200190815260200160002054905092915050565b6000806000838152602001908152602001600020600101549050919050565b610b308282611858565b610b5581600160008581526020019081526020016000206117a690919063ffffffff16565b505050565b610b6482826118be565b610b89816001600085815260200190815260200160002061194190919063ffffffff16565b505050565b610bba7fefaeb0f49aa6eebd40eeedcadf0718121a9041cd0d5e3e24e0bc70d41a06649360001b611789565b610be67f98646cefe3648221e747c8460c9fab850159c051c9ad9507b0da6cb43eb5b17460001b611789565b610c127fc8346875c7fc05262fba9d6fe290a0edf48a54108df8ed2a66c072aa4e31554d60001b611789565b6000600260008373ffffffffffffffffffffffffffffffffffffffff1673ffffffffffffffffffffffffffffffffffffffff1681526020019081526020016000209050610c817fcfc8e8a0df8c38528a8deb8f6992bab45f9c9e400273cc6f2f3f603fedf3791860001b611789565b610cad7f6e76071c8cfba6e19d15260b650ec70a5373d8f2c5aba5ee7892ebe6c8c32af160001b611789565b610cd97f40fc1c481bf1ec123f67740b0cf5a09e0da25292df3b2b820e9d47549412aa6560001b611789565b8060000160009054906101000a900460ff16610d2a576040517f08c379a0000000000000000000000000000000000000000000000000000000008152600401610d2190612643565b60405180910390fd5b610d567f7da2fb9d046fee36170957e166ff08b62f087df7fdb4d10e1881d4891304853e60001b611789565b610d827f568ccf726d84088af1c835443263119e74e4bf97568b414cbd9410e4f08e0e2560001b611789565b610dae7f60aafc9abaa386fd7d030918c91895f7fa2623c775510522f504038020a7a55860001b611789565b6000610db8611850565b9050610de67fc191832d3bc08e08acc921c792ceccc6d4227be7ffc5db4681734c4609ab1d6d60001b611789565b610e127f60f99d0188f6ecb4cbc32d3baf196b32efe568396bb9652991380d66452f022e60001b611789565b610e1c8383611971565b610e487f45886fb502ce6d5a6873d24e946ddca1964dee6206ce1fcbeda5e3fb5751b3b360001b611789565b610e747f906c049e03613d230029cc73136af6e5893d94cf24adbd0ef17c568dc5660a6c60001b611789565b6000670de0b6b3a76400008360030160008473ffffffffffffffffffffffffffffffffffffffff1673ffffffffffffffffffffffffffffffffffffffff168152602001908152602001600020548460010154610ed09190612796565b610eda9190612765565b9050610f087ff0821694774b0a3d3496c69a95144a6ea2e63b3282cbefbf478816ae549bfc3360001b611789565b610f347f42b4aa3b1d791d2b283882dc7e54aaa458a4b68a3526d054f6c527f2577276a660001b611789565b60008360040160008473ffffffffffffffffffffffffffffffffffffffff1673ffffffffffffffffffffffffffffffffffffffff168152602001908152602001600020549050610fa67fd6e9f2a0b060a3ed52feddb7eca95533d9fb894a4d6a2e7b11bcc3c7e5a21ba760001b611789565b610fd27f0d0d8180c21093e371a1d3ef6de81a8f4a37039b3b0337701a70dacd99ed6c7760001b611789565b610ffe7f288fe730fd0bffb2631bbaeb8acfc16c0f77821fc5feb59351c45cbf68b6cae460001b611789565b808211611040576040517f08c379a000000000000000000000000000000000000000000000000000000000815260040161103790612623565b60405180910390fd5b61106c7f905b749f5ea3dfc1d6ac50f82b0ccedbd51019387d9793a2502e974752b7c96a60001b611789565b6110987fc05887ca618f46a4ee5e2931c10608a2cd20dc68d8a2e7ad2c2469e6bffcbfd560001b611789565b6110c47fd3c1d8c4b7f6506d25c33215ae4e58fceaffc4456ac0ed87bf8b47db909488d260001b611789565b600081836110d291906127f0565b90506111007fbce538ca9f76068635364cb7d8fded3945f01277f51f93dea9c402ce087a0fe360001b611789565b61112c7f1e1cddffb04113b1f235a8a5d8ab2f96f6970e0b5cf39eabc9489af6063651de60001b611789565b808560040160008673ffffffffffffffffffffffffffffffffffffffff1673ffffffffffffffffffffffffffffffffffffffff168152602001908152602001600020600082825461117d919061270f565b925050819055506111b07fdb6831aad39b811b990b5cee35ae585471916376a8b3f07a69e058cac31c035b60001b611789565b6111dc7fbdd13f19c8dfd6f580478620d1a8535c182689c3eb9cc494dcbf06e743bf752760001b611789565b808560020160008282546111f0919061270f565b925050819055506112237f7bb079d01173bfa868e9dc30f48ae7ea3ac7adcd56e54f896304d0ba73d0de5c60001b611789565b61124f7f11ca64ad3db2ba21aa06f450efb28c4256b8b824989c1a946b10e57ba143a18b60001b611789565b8573ffffffffffffffffffffffffffffffffffffffff1663a9059cbb85836040518363ffffffff1660e01b815260040161128a92919061252d565b602060405180830381600087803b1580156112a457600080fd5b505af11580156112b8573d6000803e3d6000fd5b505050506040513d601f19601f820116820180604052508101906112dc919061227f565b506113097f280360bd6df7b08a322fa9cbc0626b0ff5ba9376a476873201983b11f95c1b6c60001b611789565b6113357f5072c2b94ff2b4a41c8ef10976c7dd7b63a059838bffe29bf302954963a2b82b60001b611789565b8373ffffffffffffffffffffffffffffffffffffffff168673ffffffffffffffffffffffffffffffffffffffff167f9b1bfa7fa9ee420a16e124f794c35ac9f90472acc99140eb2f6447c714cad8eb8360405161139291906126e3565b60405180910390a3505050505050565b60006113c98260016000868152602001908152602001600020611af790919063ffffffff16565b905092915050565b600080600084815260200190815260200160002060000160008373ffffffffffffffffffffffffffffffffffffffff1673ffffffffffffffffffffffffffffffffffffffff16815260200190815260200160002060009054906101000a900460ff16905092915050565b6000801b81565b60008060006114737f6beee1bb9251b1ad5ff79372dc04c269038a7ca033b0e4a2a71a9f4232330bc160001b611789565b61149f7fa5cd939355b25fce1cc49beed3b7dd0ba41dbb620bddce3606f690396ea118ae60001b611789565b6114cb7f6e03fee35816e1892cd20316948354eb875c38ef4d37c0d1d610c567ac14238d60001b611789565b6000600260008673ffffffffffffffffffffffffffffffffffffffff1673ffffffffffffffffffffffffffffffffffffffff168152602001908152602001600020905061153a7f384c500d0883cc0129e4006e9f97bb6699df9a7f5025bffb63251422e9d498be60001b611789565b6115667f33b5840516317ae41e5242f8d40f140b17fba35320d736959817f833b20dcb6860001b611789565b60008573ffffffffffffffffffffffffffffffffffffffff166370a08231306040518263ffffffff1660e01b81526004016115a19190612512565b60206040518083038186803b1580156115b957600080fd5b505afa1580156115cd573d6000803e3d6000fd5b505050506040513d601f19601f820116820180604052508101906115f19190612372565b905061161f7fd5696dd787ad91258de89840a11967a5bda1f9882ce44f8a2895124504e455d460001b611789565b61164b7fd241ed561f3517c288d68531b67c50e67ca60729acc8ab8d854e1737943e98f860001b611789565b8160000160009054906101000a900460ff16945061168b7f353c0ff2b3b1ca67c2407f3dad2ccaa9542e0bec04dd53d90416b777d864c81d60001b611789565b6116b77f1715e7a9547be72cb059933efdce478764c96c379ec82d3d7e0b6054445ff86260001b611789565b8160020154816116c7919061270f565b93506116f57fab4d2f0174d7b4243b9f76acc26b95a8deed47cf2737d9cdf664f308701f18d960001b611789565b6117217f67c38230ab7e1abbfeb313e4d55219cfe48da0585cf1545932a7e7d4962d364c60001b611789565b8160020154925050509193909250565b600061174e60016000848152602001908152602001600020611b11565b9050919050565b61175f8282611b26565b611784816001600085815260200190815260200160002061194190919063ffffffff16565b505050565b50565b670de0b6b3a764000081565b6117a28282611b8c565b5050565b60006117ce836000018373ffffffffffffffffffffffffffffffffffffffff1660001b611c6c565b905092915050565b60007f7965db0b000000000000000000000000000000000000000000000000000000007bffffffffffffffffffffffffffffffffffffffffffffffffffffffff1916827bffffffffffffffffffffffffffffffffffffffffffffffffffffffff19161480611849575061184882611cdc565b5b9050919050565b600033905090565b61187161186483610b07565b61186c611850565b6113d1565b6118b0576040517f08c379a00000000000000000000000000000000000000000000000000000000081526004016118a7906125e3565b60405180910390fd5b6118ba8282611b8c565b5050565b6118c6611850565b73ffffffffffffffffffffffffffffffffffffffff168173ffffffffffffffffffffffffffffffffffffffff1614611933576040517f08c379a000000000000000000000000000000000000000000000000000000000815260040161192a906126c3565b60405180910390fd5b61193d8282611d46565b5050565b6000611969836000018373ffffffffffffffffffffffffffffffffffffffff1660001b611e27565b905092915050565b61199d7f7ec8ba64cf1e88b75d755b0253b49f6038b54188d2f983361e89ae3af8fc1e1760001b611789565b6119c97f3332c5b278db72b5e66cbc091f605a20eeb057488443a276e34d1fabb3a8e46c60001b611789565b6119f57f7c368ddfa91d3656a841e5c6d69c5f91ce70e64adaa4a4690b4045adcdab395f60001b611789565b60008273ffffffffffffffffffffffffffffffffffffffff166370a08231306040518263ffffffff1660e01b8152600401611a309190612512565b60206040518083038186803b158015611a4857600080fd5b505afa158015611a5c573d6000803e3d6000fd5b505050506040513d601f19601f82011682018060405250810190611a809190612372565b9050611aae7f2e69d40b17b8a36cf23ee7d86d739b671bf176e2173c59059aab1366745350b260001b611789565b611ada7f5689a2d8a24b91c7947c75c2afb71255fb015a66f9fd33d087b9cdb38a66b99b60001b611789565b816002015481611aea919061270f565b8260010181905550505050565b6000611b068360000183611fb1565b60001c905092915050565b6000611b1f8260000161204b565b9050919050565b611b3f611b3283610b07565b611b3a611850565b6113d1565b611b7e576040517f08c379a0000000000000000000000000000000000000000000000000000000008152600401611b7590612683565b60405180910390fd5b611b888282611d46565b5050565b611b9682826113d1565b611c6857600160008084815260200190815260200160002060000160008373ffffffffffffffffffffffffffffffffffffffff1673ffffffffffffffffffffffffffffffffffffffff16815260200190815260200160002060006101000a81548160ff021916908315150217905550611c0d611850565b73ffffffffffffffffffffffffffffffffffffffff168173ffffffffffffffffffffffffffffffffffffffff16837f2f8788117e7eff1d82e926ec794901d17c78024a50270940304540a733656f0d60405160405180910390a45b5050565b6000611c78838361205c565b611cd1578260000182908060018154018082558091505060019003906000526020600020016000909190919091505582600001805490508360010160008481526020019081526020016000208190555060019050611cd6565b600090505b92915050565b60007f01ffc9a7000000000000000000000000000000000000000000000000000000007bffffffffffffffffffffffffffffffffffffffffffffffffffffffff1916827bffffffffffffffffffffffffffffffffffffffffffffffffffffffff1916149050919050565b611d5082826113d1565b15611e2357600080600084815260200190815260200160002060000160008373ffffffffffffffffffffffffffffffffffffffff1673ffffffffffffffffffffffffffffffffffffffff16815260200190815260200160002060006101000a81548160ff021916908315150217905550611dc8611850565b73ffffffffffffffffffffffffffffffffffffffff168173ffffffffffffffffffffffffffffffffffffffff16837ff6391f5c32d9c69d2a47ea670b442974b53935d1edc7fd64eb21e047a839171b60405160405180910390a45b5050565b60008083600101600084815260200190815260200160002054905060008114611fa5576000600182611e5991906127f0565b9050600060018660000180549050611e7191906127f0565b90506000866000018281548110611eb1577f4e487b7100000000000000000000000000000000000000000000000000000000600052603260045260246000fd5b9060005260206000200154905080876000018481548110611efb577f4e487b7100000000000000000000000000000000000000000000000000000000600052603260045260246000fd5b9060005260206000200181905550600183611f16919061270f565b8760010160008381526020019081526020016000208190555086600001805480611f69577f4e487b7100000000000000000000000000000000000000000000000000000000600052603160045260246000fd5b60019003818190600052602060002001600090559055866001016000878152602001908152602001600020600090556001945050505050611fab565b60009150505b92915050565b600081836000018054905011611ffc576040517f08c379a0000000000000000000000000000000000000000000000000000000008152600401611ff3906125c3565b60405180910390fd5b826000018281548110612038577f4e487b7100000000000000000000000000000000000000000000000000000000600052603260045260246000fd5b9060005260206000200154905092915050565b600081600001805490509050919050565b600080836001016000848152602001908152602001600020541415905092915050565b60008135905061208e81612c10565b92915050565b60008083601f8401126120a657600080fd5b8235905067ffffffffffffffff8111156120bf57600080fd5b6020830191508360208202830111156120d757600080fd5b9250929050565b60008083601f8401126120f057600080fd5b8235905067ffffffffffffffff81111561210957600080fd5b60208301915083602082028301111561212157600080fd5b9250929050565b60008151905061213781612c27565b92915050565b60008135905061214c81612c3e565b92915050565b60008135905061216181612c55565b92915050565b60008135905061217681612c6c565b92915050565b60008151905061218b81612c6c565b92915050565b6000602082840312156121a357600080fd5b60006121b18482850161207f565b91505092915050565b600080604083850312156121cd57600080fd5b60006121db8582860161207f565b92505060206121ec8582860161207f565b9150509250929050565b60008060008060006060868803121561220e57600080fd5b600061221c8882890161207f565b955050602086013567ffffffffffffffff81111561223957600080fd5b61224588828901612094565b9450945050604086013567ffffffffffffffff81111561226457600080fd5b612270888289016120de565b92509250509295509295909350565b60006020828403121561229157600080fd5b600061229f84828501612128565b91505092915050565b6000602082840312156122ba57600080fd5b60006122c88482850161213d565b91505092915050565b600080604083850312156122e457600080fd5b60006122f28582860161213d565b92505060206123038582860161207f565b9150509250929050565b6000806040838503121561232057600080fd5b600061232e8582860161213d565b925050602061233f85828601612167565b9150509250929050565b60006020828403121561235b57600080fd5b600061236984828501612152565b91505092915050565b60006020828403121561238457600080fd5b60006123928482850161217c565b91505092915050565b6123a481612824565b82525050565b6123b381612836565b82525050565b6123c281612842565b82525050565b60006123d56022836126fe565b91506123e082612949565b604082019050919050565b60006123f8602f836126fe565b915061240382612998565b604082019050919050565b600061241b6037836126fe565b9150612426826129e7565b604082019050919050565b600061243e6027836126fe565b915061244982612a36565b604082019050919050565b60006124616027836126fe565b915061246c82612a85565b604082019050919050565b6000612484603c836126fe565b915061248f82612ad4565b604082019050919050565b60006124a76030836126fe565b91506124b282612b23565b604082019050919050565b60006124ca602d836126fe565b91506124d582612b72565b604082019050919050565b60006124ed602f836126fe565b91506124f882612bc1565b604082019050919050565b61250c81612898565b82525050565b6000602082019050612527600083018461239b565b92915050565b6000604082019050612542600083018561239b565b61254f6020830184612503565b9392505050565b600060208201905061256b60008301846123aa565b92915050565b600060608201905061258660008301866123aa565b6125936020830185612503565b6125a06040830184612503565b949350505050565b60006020820190506125bd60008301846123b9565b92915050565b600060208201905081810360008301526125dc816123c8565b9050919050565b600060208201905081810360008301526125fc816123eb565b9050919050565b6000602082019050818103600083015261261c8161240e565b9050919050565b6000602082019050818103600083015261263c81612431565b9050919050565b6000602082019050818103600083015261265c81612454565b9050919050565b6000602082019050818103600083015261267c81612477565b9050919050565b6000602082019050818103600083015261269c8161249a565b9050919050565b600060208201905081810360008301526126bc816124bd565b9050919050565b600060208201905081810360008301526126dc816124e0565b9050919050565b60006020820190506126f86000830184612503565b92915050565b600082825260208201905092915050565b600061271a82612898565b915061272583612898565b9250827fffffffffffffffffffffffffffffffffffffffffffffffffffffffffffffffff0382111561275a576127596128eb565b5b828201905092915050565b600061277082612898565b915061277b83612898565b92508261278b5761278a61291a565b5b828204905092915050565b60006127a182612898565b91506127ac83612898565b9250817fffffffffffffffffffffffffffffffffffffffffffffffffffffffffffffffff04831182151516156127e5576127e46128eb565b5b828202905092915050565b60006127fb82612898565b915061280683612898565b925082821015612819576128186128eb565b5b828203905092915050565b600061282f82612878565b9050919050565b60008115159050919050565b6000819050919050565b60007fffffffff0000000000000000000000000000000000000000000000000000000082169050919050565b600073ffffffffffffffffffffffffffffffffffffffff82169050919050565b6000819050919050565b60006128ad82612898565b91507fffffffffffffffffffffffffffffffffffffffffffffffffffffffffffffffff8214156128e0576128df6128eb565b5b600182019050919050565b7f4e487b7100000000000000000000000000000000000000000000000000000000600052601160045260246000fd5b7f4e487b7100000000000000000000000000000000000000000000000000000000600052601260045260246000fd5b7f456e756d657261626c655365743a20696e646578206f7574206f6620626f756e60008201527f6473000000000000000000000000000000000000000000000000000000000000602082015250565b7f416363657373436f6e74726f6c3a2073656e646572206d75737420626520616e60008201527f2061646d696e20746f206772616e740000000000000000000000000000000000602082015250565b7f416c6c6f636174696f6e53706c69747465723a206d757374206861766520616c60008201527f6c6f6361746520726f6c6520746f20616c6c6f63617465000000000000000000602082015250565b7f416c6c6f636174696f6e53706c69747465723a206e6f7468696e6720746f207760008201527f6974686472617700000000000000000000000000000000000000000000000000602082015250565b7f416c6c6f636174696f6e53706c69747465723a206e6f6e2d616c6c6f6361746560008201527f6420746f6b656e00000000000000000000000000000000000000000000000000602082015250565b7f416c6c6f636174696f6e53706c69747465723a2062656e65666963696172696560008201527f7320616e6420736861726573206c656e677468206d69736d6174636800000000602082015250565b7f416363657373436f6e74726f6c3a2073656e646572206d75737420626520616e60008201527f2061646d696e20746f207265766f6b6500000000000000000000000000000000602082015250565b7f416c6c6f636174696f6e53706c69747465723a20616c6c6f636174696f6e206160008201527f6c72656164792065786973747300000000000000000000000000000000000000602082015250565b7f416363657373436f6e74726f6c3a2063616e206f6e6c792072656e6f756e636560008201527f20726f6c657320666f722073656c660000000000000000000000000000000000602082015250565b612c1981612824565b8114612c2457600080fd5b50565b612c3081612836565b8114612c3b57600080fd5b50565b612c4781612842565b8114612c5257600080fd5b50565b612c5e8161284c565b8114612c6957600080fd5b50565b612c7581612898565b8114612c8057600080fd5b5056fea2646970667358221220ebbb81e4ff39cef96dd714eeb741bf84861fa16cd65a19eceea627cfcba9f29b64736f6c63430008010033",
  "linkReferences": {},
  "deployedLinkReferences": {}
}