{
  "_format": "hh-sol-artifact-1",
  "contractName": "SERC1155",
  "sourceName": "contracts/core/SERC1155.sol",
  "abi": [
    {
      "inputs": [
        {
          "internalType": "address",
          "name": "sERC20Base_",
          "type": "address"
        },
        {
          "internalType": "string",
          "name": "unwrappedURI_",
          "type": "string"
        }
      ],
      "stateMutability": "nonpayable",
      "type": "constructor"
    },
    {
      "anonymous": false,
      "inputs": [
        {
          "indexed": true,
          "internalType": "address",
          "name": "account",
          "type": "address"
        },
        {
          "indexed": true,
          "internalType": "address",
          "name": "operator",
          "type": "address"
        },
        {
          "indexed": false,
          "internalType": "bool",
          "name": "approved",
          "type": "bool"
        }
      ],
      "name": "ApprovalForAll",
      "type": "event"
    },
    {
      "anonymous": false,
      "inputs": [
        {
          "indexed": true,
          "internalType": "uint256",
          "name": "id",
          "type": "uint256"
        }
      ],
      "name": "Lock",
      "type": "event"
    },
    {
      "anonymous": false,
      "inputs": [
        {
          "indexed": true,
          "internalType": "bytes32",
          "name": "role",
          "type": "bytes32"
        },
        {
          "indexed": true,
          "internalType": "bytes32",
          "name": "previousAdminRole",
          "type": "bytes32"
        },
        {
          "indexed": true,
          "internalType": "bytes32",
          "name": "newAdminRole",
          "type": "bytes32"
        }
      ],
      "name": "RoleAdminChanged",
      "type": "event"
    },
    {
      "anonymous": false,
      "inputs": [
        {
          "indexed": true,
          "internalType": "bytes32",
          "name": "role",
          "type": "bytes32"
        },
        {
          "indexed": true,
          "internalType": "address",
          "name": "account",
          "type": "address"
        },
        {
          "indexed": true,
          "internalType": "address",
          "name": "sender",
          "type": "address"
        }
      ],
      "name": "RoleGranted",
      "type": "event"
    },
    {
      "anonymous": false,
      "inputs": [
        {
          "indexed": true,
          "internalType": "bytes32",
          "name": "role",
          "type": "bytes32"
        },
        {
          "indexed": true,
          "internalType": "address",
          "name": "account",
          "type": "address"
        },
        {
          "indexed": true,
          "internalType": "address",
          "name": "sender",
          "type": "address"
        }
      ],
      "name": "RoleRevoked",
      "type": "event"
    },
    {
      "anonymous": false,
      "inputs": [
        {
          "indexed": true,
          "internalType": "address",
          "name": "collection",
          "type": "address"
        },
        {
          "indexed": true,
          "internalType": "uint256",
          "name": "tokenId",
          "type": "uint256"
        },
        {
          "indexed": true,
          "internalType": "uint256",
          "name": "id",
          "type": "uint256"
        },
        {
          "indexed": false,
          "internalType": "address",
          "name": "sERC20",
          "type": "address"
        },
        {
          "indexed": false,
          "internalType": "address",
          "name": "guardian",
          "type": "address"
        }
      ],
      "name": "Spectralize",
      "type": "event"
    },
    {
      "anonymous": false,
      "inputs": [
        {
          "indexed": true,
          "internalType": "address",
          "name": "operator",
          "type": "address"
        },
        {
          "indexed": true,
          "internalType": "address",
          "name": "from",
          "type": "address"
        },
        {
          "indexed": true,
          "internalType": "address",
          "name": "to",
          "type": "address"
        },
        {
          "indexed": false,
          "internalType": "uint256[]",
          "name": "ids",
          "type": "uint256[]"
        },
        {
          "indexed": false,
          "internalType": "uint256[]",
          "name": "values",
          "type": "uint256[]"
        }
      ],
      "name": "TransferBatch",
      "type": "event"
    },
    {
      "anonymous": false,
      "inputs": [
        {
          "indexed": true,
          "internalType": "address",
          "name": "operator",
          "type": "address"
        },
        {
          "indexed": true,
          "internalType": "address",
          "name": "from",
          "type": "address"
        },
        {
          "indexed": true,
          "internalType": "address",
          "name": "to",
          "type": "address"
        },
        {
          "indexed": false,
          "internalType": "uint256",
          "name": "id",
          "type": "uint256"
        },
        {
          "indexed": false,
          "internalType": "uint256",
          "name": "value",
          "type": "uint256"
        }
      ],
      "name": "TransferSingle",
      "type": "event"
    },
    {
      "anonymous": false,
      "inputs": [
        {
          "indexed": false,
          "internalType": "string",
          "name": "value",
          "type": "string"
        },
        {
          "indexed": true,
          "internalType": "uint256",
          "name": "id",
          "type": "uint256"
        }
      ],
      "name": "URI",
      "type": "event"
    },
    {
      "anonymous": false,
      "inputs": [
        {
          "indexed": true,
          "internalType": "uint256",
          "name": "id",
          "type": "uint256"
        },
        {
          "indexed": false,
          "internalType": "address",
          "name": "recipient",
          "type": "address"
        }
      ],
      "name": "Unlock",
      "type": "event"
    },
    {
      "inputs": [],
      "name": "ADMIN_ROLE",
      "outputs": [
        {
          "internalType": "bytes32",
          "name": "",
          "type": "bytes32"
        }
      ],
      "stateMutability": "view",
      "type": "function"
    },
    {
      "inputs": [],
      "name": "DEFAULT_ADMIN_ROLE",
      "outputs": [
        {
          "internalType": "bytes32",
          "name": "",
          "type": "bytes32"
        }
      ],
      "stateMutability": "view",
      "type": "function"
    },
    {
      "inputs": [],
      "name": "DERRIDA",
      "outputs": [
        {
          "internalType": "bytes32",
          "name": "",
          "type": "bytes32"
        }
      ],
      "stateMutability": "view",
      "type": "function"
    },
    {
      "inputs": [
        {
          "internalType": "address",
          "name": "account",
          "type": "address"
        },
        {
          "internalType": "uint256",
          "name": "id",
          "type": "uint256"
        }
      ],
      "name": "balanceOf",
      "outputs": [
        {
          "internalType": "uint256",
          "name": "",
          "type": "uint256"
        }
      ],
      "stateMutability": "view",
      "type": "function"
    },
    {
      "inputs": [
        {
          "internalType": "address[]",
          "name": "accounts",
          "type": "address[]"
        },
        {
          "internalType": "uint256[]",
          "name": "ids",
          "type": "uint256[]"
        }
      ],
      "name": "balanceOfBatch",
      "outputs": [
        {
          "internalType": "uint256[]",
          "name": "",
          "type": "uint256[]"
        }
      ],
      "stateMutability": "view",
      "type": "function"
    },
    {
      "inputs": [
        {
          "internalType": "bytes32",
          "name": "role",
          "type": "bytes32"
        }
      ],
      "name": "getRoleAdmin",
      "outputs": [
        {
          "internalType": "bytes32",
          "name": "",
          "type": "bytes32"
        }
      ],
      "stateMutability": "view",
      "type": "function"
    },
    {
      "inputs": [
        {
          "internalType": "bytes32",
          "name": "role",
          "type": "bytes32"
        },
        {
          "internalType": "uint256",
          "name": "index",
          "type": "uint256"
        }
      ],
      "name": "getRoleMember",
      "outputs": [
        {
          "internalType": "address",
          "name": "",
          "type": "address"
        }
      ],
      "stateMutability": "view",
      "type": "function"
    },
    {
      "inputs": [
        {
          "internalType": "bytes32",
          "name": "role",
          "type": "bytes32"
        }
      ],
      "name": "getRoleMemberCount",
      "outputs": [
        {
          "internalType": "uint256",
          "name": "",
          "type": "uint256"
        }
      ],
      "stateMutability": "view",
      "type": "function"
    },
    {
      "inputs": [
        {
          "internalType": "bytes32",
          "name": "role",
          "type": "bytes32"
        },
        {
          "internalType": "address",
          "name": "account",
          "type": "address"
        }
      ],
      "name": "grantRole",
      "outputs": [],
      "stateMutability": "nonpayable",
      "type": "function"
    },
    {
      "inputs": [
        {
          "internalType": "bytes32",
          "name": "role",
          "type": "bytes32"
        },
        {
          "internalType": "address",
          "name": "account",
          "type": "address"
        }
      ],
      "name": "hasRole",
      "outputs": [
        {
          "internalType": "bool",
          "name": "",
          "type": "bool"
        }
      ],
      "stateMutability": "view",
      "type": "function"
    },
    {
      "inputs": [
        {
          "internalType": "address",
          "name": "account",
          "type": "address"
        },
        {
          "internalType": "address",
          "name": "operator",
          "type": "address"
        }
      ],
      "name": "isApprovedForAll",
      "outputs": [
        {
          "internalType": "bool",
          "name": "",
          "type": "bool"
        }
      ],
      "stateMutability": "view",
      "type": "function"
    },
    {
      "inputs": [
        {
          "internalType": "address",
          "name": "collection",
          "type": "address"
        },
        {
          "internalType": "uint256",
          "name": "tokenId",
          "type": "uint256"
        }
      ],
      "name": "isLocked",
      "outputs": [
        {
          "internalType": "bool",
          "name": "",
          "type": "bool"
        }
      ],
      "stateMutability": "view",
      "type": "function"
    },
    {
      "inputs": [
        {
          "internalType": "address",
          "name": "collection",
          "type": "address"
        },
        {
          "internalType": "uint256",
          "name": "tokenId",
          "type": "uint256"
        }
      ],
      "name": "lockOf",
      "outputs": [
        {
          "internalType": "uint256",
          "name": "",
          "type": "uint256"
        }
      ],
      "stateMutability": "view",
      "type": "function"
    },
    {
      "inputs": [
        {
          "internalType": "address",
          "name": "",
          "type": "address"
        },
        {
          "internalType": "address",
          "name": "",
          "type": "address"
        },
        {
          "internalType": "uint256",
          "name": "tokenId",
          "type": "uint256"
        },
        {
          "internalType": "bytes",
          "name": "data",
          "type": "bytes"
        }
      ],
      "name": "onERC721Received",
      "outputs": [
        {
          "internalType": "bytes4",
          "name": "",
          "type": "bytes4"
        }
      ],
      "stateMutability": "nonpayable",
      "type": "function"
    },
    {
      "inputs": [
        {
          "internalType": "address",
          "name": "from",
          "type": "address"
        },
        {
          "internalType": "address",
          "name": "to",
          "type": "address"
        },
        {
          "internalType": "uint256",
          "name": "amount",
          "type": "uint256"
        }
      ],
      "name": "onSERC20Transferred",
      "outputs": [],
      "stateMutability": "nonpayable",
      "type": "function"
    },
    {
      "inputs": [
        {
          "internalType": "bytes32",
          "name": "role",
          "type": "bytes32"
        },
        {
          "internalType": "address",
          "name": "account",
          "type": "address"
        }
      ],
      "name": "renounceRole",
      "outputs": [],
      "stateMutability": "nonpayable",
      "type": "function"
    },
    {
      "inputs": [
        {
          "internalType": "bytes32",
          "name": "role",
          "type": "bytes32"
        },
        {
          "internalType": "address",
          "name": "account",
          "type": "address"
        }
      ],
      "name": "revokeRole",
      "outputs": [],
      "stateMutability": "nonpayable",
      "type": "function"
    },
    {
      "inputs": [],
      "name": "sERC20Base",
      "outputs": [
        {
          "internalType": "address",
          "name": "",
          "type": "address"
        }
      ],
      "stateMutability": "view",
      "type": "function"
    },
    {
      "inputs": [
        {
          "internalType": "uint256",
          "name": "id",
          "type": "uint256"
        }
      ],
      "name": "sERC20Of",
      "outputs": [
        {
          "internalType": "address",
          "name": "",
          "type": "address"
        }
      ],
      "stateMutability": "pure",
      "type": "function"
    },
    {
      "inputs": [
        {
          "internalType": "address",
          "name": "from",
          "type": "address"
        },
        {
          "internalType": "address",
          "name": "to",
          "type": "address"
        },
        {
          "internalType": "uint256[]",
          "name": "ids",
          "type": "uint256[]"
        },
        {
          "internalType": "uint256[]",
          "name": "amounts",
          "type": "uint256[]"
        },
        {
          "internalType": "bytes",
          "name": "data",
          "type": "bytes"
        }
      ],
      "name": "safeBatchTransferFrom",
      "outputs": [],
      "stateMutability": "nonpayable",
      "type": "function"
    },
    {
      "inputs": [
        {
          "internalType": "address",
          "name": "from",
          "type": "address"
        },
        {
          "internalType": "address",
          "name": "to",
          "type": "address"
        },
        {
          "internalType": "uint256",
          "name": "id",
          "type": "uint256"
        },
        {
          "internalType": "uint256",
          "name": "amount",
          "type": "uint256"
        },
        {
          "internalType": "bytes",
          "name": "data",
          "type": "bytes"
        }
      ],
      "name": "safeTransferFrom",
      "outputs": [],
      "stateMutability": "nonpayable",
      "type": "function"
    },
    {
      "inputs": [
        {
          "internalType": "address",
          "name": "operator",
          "type": "address"
        },
        {
          "internalType": "bool",
          "name": "approved",
          "type": "bool"
        }
      ],
      "name": "setApprovalForAll",
      "outputs": [],
      "stateMutability": "nonpayable",
      "type": "function"
    },
    {
      "inputs": [
        {
          "internalType": "address",
          "name": "collection",
          "type": "address"
        },
        {
          "internalType": "uint256",
          "name": "tokenId",
          "type": "uint256"
        },
        {
          "internalType": "string",
          "name": "name",
          "type": "string"
        },
        {
          "internalType": "string",
          "name": "symbol",
          "type": "string"
        },
        {
          "internalType": "uint256",
          "name": "cap",
          "type": "uint256"
        },
        {
          "internalType": "address",
          "name": "admin",
          "type": "address"
        },
        {
          "internalType": "address",
          "name": "guardian",
          "type": "address"
        }
      ],
      "name": "spectralize",
      "outputs": [
        {
          "internalType": "uint256",
          "name": "id",
          "type": "uint256"
        }
      ],
      "stateMutability": "nonpayable",
      "type": "function"
    },
    {
      "inputs": [
        {
          "internalType": "address",
          "name": "sERC20",
          "type": "address"
        }
      ],
      "name": "spectreOf",
      "outputs": [
        {
          "components": [
            {
              "internalType": "enum SERC1155.SpectreState",
              "name": "state",
              "type": "uint8"
            },
            {
              "internalType": "address",
              "name": "collection",
              "type": "address"
            },
            {
              "internalType": "uint256",
              "name": "tokenId",
              "type": "uint256"
            },
            {
              "internalType": "address",
              "name": "guardian",
              "type": "address"
            }
          ],
          "internalType": "struct SERC1155.Spectre",
          "name": "",
          "type": "tuple"
        }
      ],
      "stateMutability": "view",
      "type": "function"
    },
    {
      "inputs": [
        {
          "internalType": "uint256",
          "name": "id",
          "type": "uint256"
        }
      ],
      "name": "spectreOf",
      "outputs": [
        {
          "components": [
            {
              "internalType": "enum SERC1155.SpectreState",
              "name": "state",
              "type": "uint8"
            },
            {
              "internalType": "address",
              "name": "collection",
              "type": "address"
            },
            {
              "internalType": "uint256",
              "name": "tokenId",
              "type": "uint256"
            },
            {
              "internalType": "address",
              "name": "guardian",
              "type": "address"
            }
          ],
          "internalType": "struct SERC1155.Spectre",
          "name": "",
          "type": "tuple"
        }
      ],
      "stateMutability": "view",
      "type": "function"
    },
    {
      "inputs": [
        {
          "internalType": "bytes4",
          "name": "interfaceId",
          "type": "bytes4"
        }
      ],
      "name": "supportsInterface",
      "outputs": [
        {
          "internalType": "bool",
          "name": "",
          "type": "bool"
        }
      ],
      "stateMutability": "view",
      "type": "function"
    },
    {
      "inputs": [
        {
          "internalType": "address",
          "name": "sERC20",
          "type": "address"
        },
        {
          "internalType": "address",
          "name": "recipient",
          "type": "address"
        },
        {
          "internalType": "bytes",
          "name": "data",
          "type": "bytes"
        }
      ],
      "name": "unlock",
      "outputs": [],
      "stateMutability": "nonpayable",
      "type": "function"
    },
    {
      "inputs": [
        {
          "internalType": "uint256",
          "name": "id",
          "type": "uint256"
        },
        {
          "internalType": "address",
          "name": "recipient",
          "type": "address"
        },
        {
          "internalType": "bytes",
          "name": "data",
          "type": "bytes"
        }
      ],
      "name": "unlock",
      "outputs": [],
      "stateMutability": "nonpayable",
      "type": "function"
    },
    {
      "inputs": [],
      "name": "unwrappedURI",
      "outputs": [
        {
          "internalType": "string",
          "name": "",
          "type": "string"
        }
      ],
      "stateMutability": "view",
      "type": "function"
    },
    {
      "inputs": [
        {
          "internalType": "string",
          "name": "unwrappedURI_",
          "type": "string"
        }
      ],
      "name": "updateUnwrappedURI",
      "outputs": [],
      "stateMutability": "nonpayable",
      "type": "function"
    },
    {
      "inputs": [
        {
          "internalType": "uint256",
          "name": "id",
          "type": "uint256"
        }
      ],
      "name": "uri",
      "outputs": [
        {
          "internalType": "string",
          "name": "",
          "type": "string"
        }
      ],
      "stateMutability": "view",
      "type": "function"
    }
  ],
  "bytecode": "0x60806040523480156200001157600080fd5b5060405162003e9e38038062003e9e833981016040819052620000349162000376565b6001600160a01b038216620000665760405162461bcd60e51b81526004016200005d906200046f565b60405180910390fd5b600280546001600160a01b0319166001600160a01b038416179055805162000096906003906020840190620002d0565b50620000bb60008051602062003e7e833981519152620000b5620000de565b620000e2565b620000d660008051602062003e7e8339815191528062000125565b505062000512565b3390565b620000f982826200017160201b6200162e1760201c565b6000828152600160209081526040909120620001209183906200163862000181821b17901c565b505050565b806200013183620001a1565b60405184907fbd79b86ffe0ab8e8776151514217cd7cacd52c909f66475c3af44e129f0b00ff90600090a460009182526020829052604090912060010155565b6200017d8282620001b6565b5050565b600062000198836001600160a01b03841662000240565b90505b92915050565b60009081526020819052604090206001015490565b620001c282826200028f565b6200017d576000828152602081815260408083206001600160a01b03851684529091529020805460ff19166001179055620001fc620000de565b6001600160a01b0316816001600160a01b0316837f2f8788117e7eff1d82e926ec794901d17c78024a50270940304540a733656f0d60405160405180910390a45050565b60006200024e8383620002b8565b62000286575081546001818101845560008481526020808220909301849055845484825282860190935260409020919091556200019b565b5060006200019b565b6000918252602082815260408084206001600160a01b0393909316845291905290205460ff1690565b60009081526001919091016020526040902054151590565b828054620002de90620004bf565b90600052602060002090601f0160209004810192826200030257600085556200034d565b82601f106200031d57805160ff19168380011785556200034d565b828001600101855582156200034d579182015b828111156200034d57825182559160200191906001019062000330565b506200035b9291506200035f565b5090565b5b808211156200035b576000815560010162000360565b6000806040838503121562000389578182fd5b82516001600160a01b0381168114620003a0578283fd5b602084810151919350906001600160401b0380821115620003bf578384fd5b818601915086601f830112620003d3578384fd5b815181811115620003e857620003e8620004fc565b604051601f8201601f19908116603f01168101908382118183101715620004135762000413620004fc565b8160405282815289868487010111156200042b578687fd5b8693505b828410156200044e57848401860151818501870152928501926200042f565b828411156200045f57868684830101525b8096505050505050509250929050565b60208082526030908201527f73455243313135353a2073455243323020626173652063616e6e6f742062652060408201526f746865207a65726f206164647265737360801b606082015260800190565b600281046001821680620004d457607f821691505b60208210811415620004f657634e487b7160e01b600052602260045260246000fd5b50919050565b634e487b7160e01b600052604160045260246000fd5b61395c80620005226000396000f3fe608060405234801561001057600080fd5b50600436106101e45760003560e01c80637c0a07fa1161010f578063b6e7ffe7116100a2578063e85b23e211610071578063e85b23e214610419578063e985e9c51461042c578063f242432a1461043f578063f3da17e814610452576101e4565b8063b6e7ffe7146103d8578063c8ae4ca1146103eb578063ca15c873146103f3578063d547741f14610406576101e4565b806399cca36c116100de57806399cca36c14610397578063a217fddf146103aa578063a22cb465146103b2578063b31d10b3146103c5576101e4565b80637c0a07fa1461033e5780639010d07c1461035157806391d14854146103715780639829586714610384576101e4565b8063331d8e5d1161018757806375573ff11161015657806375573ff11461030657806375b238fc1461030e57806375d45368146103165780637b16d2a41461031e576101e4565b8063331d8e5d146102ad57806336568abe146102c05780634e1273f4146102d35780636c2a79f7146102f3576101e4565b8063150b7a02116101c3578063150b7a0214610252578063248a9ca3146102725780632eb2c2d6146102855780632f2ff15d1461029a576101e4565b8062fdd58e146101e957806301ffc9a7146102125780630e89341c14610232575b600080fd5b6101fc6101f7366004612890565b610465565b6040516102099190612dc5565b60405180910390f35b610225610220366004612aad565b610561565b6040516102099190612dba565b610245610240366004612a50565b61060f565b6040516102099190612de3565b610265610260366004612762565b6107cc565b6040516102099190612dce565b6101fc610280366004612a50565b610963565b610298610293366004612618565b610978565b005b6102986102a8366004612a68565b610b33565b6102986102bb3660046126c2565b610b5a565b6102986102ce366004612a68565b610c27565b6102e66102e1366004612969565b610c49565b6040516102099190612d79565b6101fc6103013660046128bb565b610d69565b610245610f82565b6101fc611015565b6101fc611039565b61033161032c3660046125a8565b61105d565b6040516102099190613625565b61029861034c366004612722565b611113565b61036461035f366004612a8c565b6111e3565b6040516102099190612c54565b61022561037f366004612a68565b6111fb565b610364610392366004612a50565b611224565b6102256103a5366004612890565b61122f565b6101fc611259565b6102986103c0366004612863565b61125e565b6101fc6103d3366004612890565b61132c565b6102986103e6366004612ae5565b611354565b6103646113b3565b6101fc610401366004612a50565b6113c2565b610298610414366004612a68565b6113d9565b610331610427366004612a50565b6113e3565b61022561043a3660046125e0565b61142a565b61029861044d3660046127fc565b611458565b610298610460366004612bac565b61157e565b60006001600160a01b0383166104965760405162461bcd60e51b815260040161048d90613283565b60405180910390fd5b60008281526005602052604081205460ff1660028111156104c757634e487b7160e01b600052602160045260246000fd5b14156104d4576000610558565b6104dd82611012565b6001600160a01b03166370a08231846040518263ffffffff1660e01b81526004016105089190612c54565b60206040518083038186803b15801561052057600080fd5b505afa158015610534573d6000803e3d6000fd5b505050506040513d601f19601f820116820180604052508101906105589190612b94565b90505b92915050565b60006001600160e01b031982167fd9b67a260000000000000000000000000000000000000000000000000000000014806105c457506001600160e01b031982167f0e89341c00000000000000000000000000000000000000000000000000000000145b806105f857506001600160e01b031982167f150b7a0200000000000000000000000000000000000000000000000000000000145b8061060757506106078261164d565b90505b919050565b60008181526005602052604090206060906001815460ff16600281111561064657634e487b7160e01b600052602160045260246000fd5b14156106f757805460018201546040517fc87b56dd0000000000000000000000000000000000000000000000000000000081526101009092046001600160a01b03169163c87b56dd9161069b91600401612dc5565b60006040518083038186803b1580156106b357600080fd5b505afa1580156106c7573d6000803e3d6000fd5b505050506040513d6000823e601f3d908101601f191682016040526106ef9190810190612b20565b91505061060a565b6002815460ff16600281111561071d57634e487b7160e01b600052602160045260246000fd5b14156107b6576003805461073090613736565b80601f016020809104026020016040519081016040528092919081815260200182805461075c90613736565b80156107a95780601f1061077e576101008083540402835291602001916107a9565b820191906000526020600020905b81548152906001019060200180831161078c57829003601f168201915b505050505091505061060a565b5050604080516020810190915260008152919050565b6000806107d761168b565b905061080c6001600160a01b0382167f80ac58cd0000000000000000000000000000000000000000000000000000000061168f565b6108285760405162461bcd60e51b815260040161048d90612fb0565b60c083146108485760405162461bcd60e51b815260040161048d9061315b565b600084848080601f0160208091040260200160405190810160405280939291908181526020018383808284376000920191909152505050602082015160408301516060840151608085015160a086015160c08701519697509395929450909290917f1d2496c631fd6d8be20fb18c5c1fa9499e1f28016c62da960ec6dcf752f2f7ce81146108e85760405162461bcd60e51b815260040161048d90612e99565b610907888d6108f6896116ab565b6108ff896116ab565b888888611870565b6040517f57424d5909ad92dd80fbaa1967a047a5975a0e9bb94726d561734e667cdf422790600090a2507f150b7a02000000000000000000000000000000000000000000000000000000009d9c50505050505050505050505050565b60009081526020819052604090206001015490565b81518351146109995760405162461bcd60e51b815260040161048d9061306a565b6001600160a01b0384166109bf5760405162461bcd60e51b815260040161048d906130c7565b6109c885611a84565b6109e45760405162461bcd60e51b815260040161048d906132e0565b60006109ee61168b565b905060005b8451811015610ac557610a2c858281518110610a1f57634e487b7160e01b600052603260045260246000fd5b6020026020010151611012565b6001600160a01b031663be0654788888878581518110610a5c57634e487b7160e01b600052603260045260246000fd5b60200260200101516040518463ffffffff1660e01b8152600401610a8293929190612ce0565b600060405180830381600087803b158015610a9c57600080fd5b505af1158015610ab0573d6000803e3d6000fd5b5050505080610abe9061379e565b90506109f3565b50846001600160a01b0316866001600160a01b0316826001600160a01b03167f4a39dc06d4c0dbc64b70af90fd698a233a518aa5d07e595d983b8c0526c8f7fb8787604051610b15929190612d8c565b60405180910390a4610b2b818787878787611ab4565b505050505050565b610b3d8282611c14565b6000828152600160205260409020610b559082611638565b505050565b6000610b6e846001600160a01b0316611c44565b60008181526005602052604090209091506001815460ff166002811115610ba557634e487b7160e01b600052602160045260246000fd5b14610bc25760405162461bcd60e51b815260040161048d906135c8565b60028101546001600160a01b0316610bd861168b565b6001600160a01b031614610bfe5760405162461bcd60e51b815260040161048d9061350e565b80546001820154610c209161010090046001600160a01b031690848787611c50565b5050505050565b610c318282611d3d565b6000828152600160205260409020610b559082611d7f565b60608151835114610c6c5760405162461bcd60e51b815260040161048d90613454565b6000835167ffffffffffffffff811115610c9657634e487b7160e01b600052604160045260246000fd5b604051908082528060200260200182016040528015610cbf578160200160208202803683370190505b50905060005b8451811015610d6157610d26858281518110610cf157634e487b7160e01b600052603260045260246000fd5b6020026020010151858381518110610d1957634e487b7160e01b600052603260045260246000fd5b6020026020010151610465565b828281518110610d4657634e487b7160e01b600052603260045260246000fd5b6020908102919091010152610d5a8161379e565b9050610cc5565b509392505050565b6000610d9e6001600160a01b0389167f80ac58cd0000000000000000000000000000000000000000000000000000000061168f565b610dba5760405162461bcd60e51b815260040161048d90612fb0565b6001600160a01b03881660009081526006602090815260408083208a845290915290205415610dfb5760405162461bcd60e51b815260040161048d90613124565b6040517f6352211e0000000000000000000000000000000000000000000000000000000081526000906001600160a01b038a1690636352211e90610e43908b90600401612dc5565b60206040518083038186803b158015610e5b57600080fd5b505afa158015610e6f573d6000803e3d6000fd5b505050506040513d601f19601f82011682018060405250810190610e9391906125c4565b90506001600160a01b038116301415610ebe5760405162461bcd60e51b815260040161048d9061339a565b610ecd89898989898989611870565b6040517f23b872dd0000000000000000000000000000000000000000000000000000000081529092506001600160a01b038a16906323b872dd90610f1990849030908d90600401612ce0565b600060405180830381600087803b158015610f3357600080fd5b505af1158015610f47573d6000803e3d6000fd5b50506040518492507f57424d5909ad92dd80fbaa1967a047a5975a0e9bb94726d561734e667cdf42279150600090a250979650505050505050565b606060038054610f9190613736565b80601f0160208091040260200160405190810160405280929190818152602001828054610fbd90613736565b801561100a5780601f10610fdf5761010080835404028352916020019161100a565b820191906000526020600020905b815481529060010190602001808311610fed57829003601f168201915b505050505090505b90565b7fa49807205ce4d355092ef5a8a18f56e8913cf4a201fbe287825b095693c2177581565b7f1d2496c631fd6d8be20fb18c5c1fa9499e1f28016c62da960ec6dcf752f2f7ce81565b61106561241d565b6005600061107b846001600160a01b0316611c44565b8152602081019190915260409081016000208151608081019092528054829060ff1660028111156110bc57634e487b7160e01b600052602160045260246000fd5b60028111156110db57634e487b7160e01b600052602160045260246000fd5b8152815461010090046001600160a01b0390811660208301526001830154604083015260029092015490911660609091015292915050565b600061111d61168b565b90506000611133826001600160a01b0316611c44565b90506000808281526005602052604090205460ff16600281111561116757634e487b7160e01b600052602160045260246000fd5b14156111855760405162461bcd60e51b815260040161048d90612f53565b836001600160a01b0316856001600160a01b0316836001600160a01b03167fc3d58168c5ae7397731d063d5bbf3d657854427343f4c083240f7aacaa2d0f6284876040516111d4929190613681565b60405180910390a45050505050565b60008281526001602052604081206105589083611d94565b6000918252602082815260408084206001600160a01b0393909316845291905290205460ff1690565b600061060782611012565b6001600160a01b039190911660009081526006602090815260408083209383529290522054151590565b600081565b816001600160a01b031661127061168b565b6001600160a01b031614156112975760405162461bcd60e51b815260040161048d906134b1565b80600460006112a461168b565b6001600160a01b03908116825260208083019390935260409182016000908120918716808252919093529120805460ff1916921515929092179091556112e861168b565b6001600160a01b03167f17307eab39ab6107e8899845ad3d59bd9653f200f220920489ca2b5937696c31836040516113209190612dba565b60405180910390a35050565b6001600160a01b03919091166000908152600660209081526040808320938352929052205490565b6113807fa49807205ce4d355092ef5a8a18f56e8913cf4a201fbe287825b095693c2177561037f61168b565b61139c5760405162461bcd60e51b815260040161048d9061333d565b80516113af906003906020840190612446565b5050565b6002546001600160a01b031690565b600081815260016020526040812061060790611da0565b610c318282611dab565b6113eb61241d565b600082815260056020526040908190208151608081019092528054829060ff1660028111156110bc57634e487b7160e01b600052602160045260246000fd5b6001600160a01b03918216600090815260046020908152604080832093909416825291909152205460ff1690565b6001600160a01b03841661147e5760405162461bcd60e51b815260040161048d906130c7565b61148785611a84565b6114a35760405162461bcd60e51b815260040161048d906132e0565b60006114ad61168b565b90506114b884611012565b6001600160a01b031663be0654788787866040518463ffffffff1660e01b81526004016114e793929190612ce0565b600060405180830381600087803b15801561150157600080fd5b505af1158015611515573d6000803e3d6000fd5b50505050846001600160a01b0316866001600160a01b0316826001600160a01b03167fc3d58168c5ae7397731d063d5bbf3d657854427343f4c083240f7aacaa2d0f628787604051611568929190613681565b60405180910390a4610b2b818787878787611dd3565b60008381526005602052604090206001815460ff1660028111156115b257634e487b7160e01b600052602160045260246000fd5b146115cf5760405162461bcd60e51b815260040161048d90613215565b6115d761168b565b60028201546001600160a01b039081169116146116065760405162461bcd60e51b815260040161048d9061350e565b805460018201546116289161010090046001600160a01b031690868686611c50565b50505050565b6113af8282611ed6565b6000610558836001600160a01b038416611f5b565b60006001600160e01b031982167f5a05180f000000000000000000000000000000000000000000000000000000001480610607575061060782611fa5565b3390565b600061169a83611fe3565b80156105585750610558838361202f565b606060005b60208160ff1610801561170a5750828160ff16602081106116e157634e487b7160e01b600052603260045260246000fd5b1a60f81b7fff000000000000000000000000000000000000000000000000000000000000001615155b156117215780611719816137d7565b9150506116b0565b60008160ff1667ffffffffffffffff81111561174d57634e487b7160e01b600052604160045260246000fd5b6040519080825280601f01601f191660200182016040528015611777576020820181803683370190505b509050600091505b60208260ff161080156117d95750838260ff16602081106117b057634e487b7160e01b600052603260045260246000fd5b1a60f81b7fff000000000000000000000000000000000000000000000000000000000000001615155b1561186957838260ff166020811061180157634e487b7160e01b600052603260045260246000fd5b1a60f81b818360ff168151811061182857634e487b7160e01b600052603260045260246000fd5b60200101907effffffffffffffffffffffffffffffffffffffffffffffffffffffffffffff1916908160001a90535081611861816137d7565b92505061177f565b9392505050565b600254600090819061188a906001600160a01b031661214a565b905060006118a0826001600160a01b0316611c44565b6001600160a01b038b1660009081526006602090815260408083208d84529091529081902082905580516080810190915290915080600181526001600160a01b03808d1660208084019190915260408084018e905291881660609093019290925260008481526005909252902081518154829060ff1916600183600281111561193957634e487b7160e01b600052602160045260246000fd5b0217905550602082015181547fffffffffffffffffffffff0000000000000000000000000000000000000000ff166101006001600160a01b03928316021782556040808401516001840155606090930151600290920180547fffffffffffffffffffffffff0000000000000000000000000000000000000000169282169290921790915590517fbd3a13f60000000000000000000000000000000000000000000000000000000081529083169063bd3a13f690611a00908b908b908b908b90600401612df6565b600060405180830381600087803b158015611a1a57600080fd5b505af1158015611a2e573d6000803e3d6000fd5b5050505080898b6001600160a01b03167f50265105db29b4406ffa0e8620afa5fbc8a95e196b1c837fe26f0154d185ceff8588604051611a6f929190612c68565b60405180910390a49998505050505050505050565b6000611a8e61168b565b6001600160a01b0316826001600160a01b0316148061060757506106078261043a61168b565b611ac6846001600160a01b03166121d0565b15610b2b576040517fbc197c810000000000000000000000000000000000000000000000000000000081526001600160a01b0385169063bc197c8190611b189089908990889088908890600401612c82565b602060405180830381600087803b158015611b3257600080fd5b505af1925050508015611b62575060408051601f3d908101601f19168201909252611b5f91810190612ac9565b60015b611bc257611b6e613823565b806308c379a01415611ba85750611b8361383a565b80611b8e5750611baa565b8060405162461bcd60e51b815260040161048d9190612de3565b505b60405162461bcd60e51b815260040161048d906133f7565b6001600160e01b031981167fbc197c810000000000000000000000000000000000000000000000000000000014611c0b5760405162461bcd60e51b815260040161048d9061300d565b50505050505050565b611c28611c2083610963565b61037f61168b565b61162e5760405162461bcd60e51b815260040161048d90612ef6565b6001600160a01b031690565b6000838152600560209081526040808320805460ff191660021790556001600160a01b038816808452600683528184208885529092528083209290925590517fb88d4fde00000000000000000000000000000000000000000000000000000000815263b88d4fde90611ccc903090869089908790600401612d04565b600060405180830381600087803b158015611ce657600080fd5b505af1158015611cfa573d6000803e3d6000fd5b50505050827f027d6c6704a7913d85498305191e7bb755d64034c42fb5169c726408f65b3ce283604051611d2e9190612c54565b60405180910390a25050505050565b611d4561168b565b6001600160a01b0316816001600160a01b031614611d755760405162461bcd60e51b815260040161048d9061356b565b6113af82826121d6565b6000610558836001600160a01b038416612259565b60006105588383612376565b6000610607826123cf565b611db7611c2083610963565b611d755760405162461bcd60e51b815260040161048d906131b8565b611de5846001600160a01b03166121d0565b15610b2b576040517ff23a6e610000000000000000000000000000000000000000000000000000000081526001600160a01b0385169063f23a6e6190611e379089908990889088908890600401612d36565b602060405180830381600087803b158015611e5157600080fd5b505af1925050508015611e81575060408051601f3d908101601f19168201909252611e7e91810190612ac9565b60015b611e8d57611b6e613823565b6001600160e01b031981167ff23a6e610000000000000000000000000000000000000000000000000000000014611c0b5760405162461bcd60e51b815260040161048d9061300d565b611ee082826111fb565b6113af576000828152602081815260408083206001600160a01b03851684529091529020805460ff19166001179055611f1761168b565b6001600160a01b0316816001600160a01b0316837f2f8788117e7eff1d82e926ec794901d17c78024a50270940304540a733656f0d60405160405180910390a45050565b6000611f6783836123d3565b611f9d5750815460018181018455600084815260208082209093018490558454848252828601909352604090209190915561055b565b50600061055b565b60006001600160e01b031982167f7965db0b0000000000000000000000000000000000000000000000000000000014806106075750610607826123eb565b600061200f827f01ffc9a70000000000000000000000000000000000000000000000000000000061202f565b80156106075750612028826001600160e01b031961202f565b1592915050565b6000806301ffc9a760e01b8360405160240161204b9190612dce565b604051602081830303815290604052907bffffffffffffffffffffffffffffffffffffffffffffffffffffffff19166020820180517bffffffffffffffffffffffffffffffffffffffffffffffffffffffff83818316178352505050509050600080856001600160a01b0316617530846040516120c89190612c38565b6000604051808303818686fa925050503d8060008114612104576040519150601f19603f3d011682016040523d82523d6000602084013e612109565b606091505b5091509150602081511015612124576000935050505061055b565b8180156121405750808060200190518101906121409190612a34565b9695505050505050565b60006040517f3d602d80600a3d3981f3363d3d373d3d3d363d7300000000000000000000000081528260601b60148201527f5af43d82803e903d91602b57fd5bf3000000000000000000000000000000000060288201526037816000f09150506001600160a01b03811661060a5760405162461bcd60e51b815260040161048d9061324c565b3b151590565b6121e082826111fb565b156113af576000828152602081815260408083206001600160a01b03851684529091529020805460ff1916905561221561168b565b6001600160a01b0316816001600160a01b0316837ff6391f5c32d9c69d2a47ea670b442974b53935d1edc7fd64eb21e047a839171b60405160405180910390a45050565b6000818152600183016020526040812054801561236c57600061227d6001836136f3565b8554909150600090612291906001906136f3565b905060008660000182815481106122b857634e487b7160e01b600052603260045260246000fd5b90600052602060002001549050808760000184815481106122e957634e487b7160e01b600052603260045260246000fd5b6000918252602090912001556123008360016136db565b6000828152600189016020526040902055865487908061233057634e487b7160e01b600052603160045260246000fd5b6001900381819060005260206000200160009055905586600101600087815260200190815260200160002060009055600194505050505061055b565b600091505061055b565b815460009082106123995760405162461bcd60e51b815260040161048d90612e3c565b8260000182815481106123bc57634e487b7160e01b600052603260045260246000fd5b9060005260206000200154905092915050565b5490565b60009081526001919091016020526040902054151590565b6001600160e01b031981167f01ffc9a70000000000000000000000000000000000000000000000000000000014919050565b604080516080810190915280600081526000602082018190526040820181905260609091015290565b82805461245290613736565b90600052602060002090601f01602090048101928261247457600085556124ba565b82601f1061248d57805160ff19168380011785556124ba565b828001600101855582156124ba579182015b828111156124ba57825182559160200191906001019061249f565b506124c69291506124ca565b5090565b5b808211156124c657600081556001016124cb565b600082601f8301126124ef578081fd5b813560206124fc8261368f565b6040516125098282613771565b838152828101915085830183850287018401881015612526578586fd5b855b8581101561254457813584529284019290840190600101612528565b5090979650505050505050565b600082601f830112612561578081fd5b813561256c816136b3565b6040516125798282613771565b82815285602084870101111561258d578384fd5b82602086016020830137918201602001929092529392505050565b6000602082840312156125b9578081fd5b8135611869816138ea565b6000602082840312156125d5578081fd5b8151611869816138ea565b600080604083850312156125f2578081fd5b82356125fd816138ea565b9150602083013561260d816138ea565b809150509250929050565b600080600080600060a0868803121561262f578081fd5b853561263a816138ea565b9450602086013561264a816138ea565b9350604086013567ffffffffffffffff80821115612666578283fd5b61267289838a016124df565b94506060880135915080821115612687578283fd5b61269389838a016124df565b935060808801359150808211156126a8578283fd5b506126b588828901612551565b9150509295509295909350565b6000806000606084860312156126d6578283fd5b83356126e1816138ea565b925060208401356126f1816138ea565b9150604084013567ffffffffffffffff81111561270c578182fd5b61271886828701612551565b9150509250925092565b600080600060608486031215612736578081fd5b8335612741816138ea565b92506020840135612751816138ea565b929592945050506040919091013590565b600080600080600060808688031215612779578283fd5b8535612784816138ea565b94506020860135612794816138ea565b935060408601359250606086013567ffffffffffffffff808211156127b7578283fd5b818801915088601f8301126127ca578283fd5b8135818111156127d8578384fd5b8960208285010111156127e9578384fd5b9699959850939650602001949392505050565b600080600080600060a08688031215612813578283fd5b853561281e816138ea565b9450602086013561282e816138ea565b93506040860135925060608601359150608086013567ffffffffffffffff811115612857578182fd5b6126b588828901612551565b60008060408385031215612875578182fd5b8235612880816138ea565b9150602083013561260d81613902565b600080604083850312156128a2578182fd5b82356128ad816138ea565b946020939093013593505050565b600080600080600080600060e0888a0312156128d5578485fd5b87356128e0816138ea565b965060208801359550604088013567ffffffffffffffff80821115612903578687fd5b61290f8b838c01612551565b965060608a0135915080821115612924578384fd5b506129318a828b01612551565b9450506080880135925060a0880135612949816138ea565b915060c0880135612959816138ea565b8091505092959891949750929550565b6000806040838503121561297b578182fd5b823567ffffffffffffffff80821115612992578384fd5b818501915085601f8301126129a5578384fd5b813560206129b28261368f565b6040516129bf8282613771565b8381528281019150858301838502870184018b10156129dc578889fd5b8896505b84871015612a075780356129f3816138ea565b8352600196909601959183019183016129e0565b5096505086013592505080821115612a1d578283fd5b50612a2a858286016124df565b9150509250929050565b600060208284031215612a45578081fd5b815161186981613902565b600060208284031215612a61578081fd5b5035919050565b60008060408385031215612a7a578182fd5b82359150602083013561260d816138ea565b60008060408385031215612a9e578182fd5b50508035926020909101359150565b600060208284031215612abe578081fd5b813561186981613910565b600060208284031215612ada578081fd5b815161186981613910565b600060208284031215612af6578081fd5b813567ffffffffffffffff811115612b0c578182fd5b612b1884828501612551565b949350505050565b600060208284031215612b31578081fd5b815167ffffffffffffffff811115612b47578182fd5b8201601f81018413612b57578182fd5b8051612b62816136b3565b604051612b6f8282613771565b828152866020848601011115612b83578485fd5b61214083602083016020870161370a565b600060208284031215612ba5578081fd5b5051919050565b600080600060608486031215612bc0578081fd5b8335925060208401356126f1816138ea565b6000815180845260208085019450808401835b83811015612c0157815187529582019590820190600101612be5565b509495945050505050565b60008151808452612c2481602086016020860161370a565b601f01601f19169290920160200192915050565b60008251612c4a81846020870161370a565b9190910192915050565b6001600160a01b0391909116815260200190565b6001600160a01b0392831681529116602082015260400190565b60006001600160a01b03808816835280871660208401525060a06040830152612cae60a0830186612bd2565b8281036060840152612cc08186612bd2565b90508281036080840152612cd48185612c0c565b98975050505050505050565b6001600160a01b039384168152919092166020820152604081019190915260600190565b60006001600160a01b038087168352808616602084015250836040830152608060608301526121406080830184612c0c565b60006001600160a01b03808816835280871660208401525084604083015283606083015260a06080830152612d6e60a0830184612c0c565b979650505050505050565b6000602082526105586020830184612bd2565b600060408252612d9f6040830185612bd2565b8281036020840152612db18185612bd2565b95945050505050565b901515815260200190565b90815260200190565b6001600160e01b031991909116815260200190565b6000602082526105586020830184612c0c565b600060808252612e096080830187612c0c565b8281036020840152612e1b8187612c0c565b9150508360408301526001600160a01b038316606083015295945050505050565b60208082526022908201527f456e756d657261626c655365743a20696e646578206f7574206f6620626f756e60408201527f6473000000000000000000000000000000000000000000000000000000000000606082015260800190565b60208082526026908201527f73455243313135353a20696e76616c696420737065637472616c697a6174696f60408201527f6e20646174610000000000000000000000000000000000000000000000000000606082015260800190565b6020808252602f908201527f416363657373436f6e74726f6c3a2073656e646572206d75737420626520616e60408201527f2061646d696e20746f206772616e740000000000000000000000000000000000606082015260800190565b6020808252602d908201527f73455243313135353a206d7573742062652073455243323020746f207573652060408201527f7472616e7366657220686f6f6b00000000000000000000000000000000000000606082015260800190565b60208082526025908201527f73455243313135353a204e4654206973206e6f74204552433732312d636f6d7060408201527f6c69616e74000000000000000000000000000000000000000000000000000000606082015260800190565b60208082526029908201527f73455243313135353a204552433131353552656365697665722072656a65637460408201527f656420746f6b656e730000000000000000000000000000000000000000000000606082015260800190565b60208082526029908201527f73455243313135353a2069647320616e6420616d6f756e7473206c656e67746860408201527f206d69736d617463680000000000000000000000000000000000000000000000606082015260800190565b60208082526026908201527f73455243313135353a207472616e7366657220746f20746865207a65726f206160408201527f6464726573730000000000000000000000000000000000000000000000000000606082015260800190565b6020808252601f908201527f73455243313135353a204e465420697320616c7265616479206c6f636b656400604082015260600190565b6020808252602d908201527f73455243313135353a20696e76616c696420737065637472616c697a6174696f60408201527f6e2064617461206c656e67746800000000000000000000000000000000000000606082015260800190565b60208082526030908201527f416363657373436f6e74726f6c3a2073656e646572206d75737420626520616e60408201527f2061646d696e20746f207265766f6b6500000000000000000000000000000000606082015260800190565b6020808252601b908201527f73455243313135353a204e4654206973206e6f74206c6f636b65640000000000604082015260600190565b60208082526016908201527f455243313136373a20637265617465206661696c656400000000000000000000604082015260600190565b6020808252602c908201527f73455243313135353a2062616c616e636520717565727920666f72207468652060408201527f7a65726f20616464726573730000000000000000000000000000000000000000606082015260800190565b6020808252602f908201527f73455243313135353a206d757374206265206f776e6572206f7220617070726f60408201527f76656420746f207472616e736665720000000000000000000000000000000000606082015260800190565b60208082526035908201527f73455243313135353a206d75737420686176652061646d696e20726f6c65207460408201527f6f2075706461746520756e777261707065645552490000000000000000000000606082015260800190565b6020808252602a908201527f73455243313135353a204e465420697320616c7265616479206f776e6564206260408201527f7920734552433131353500000000000000000000000000000000000000000000606082015260800190565b60208082526035908201527f73455243313135353a207472616e7366657220746f206e6f6e2045524331313560408201527f35526563656976657220696d706c656d656e7465720000000000000000000000606082015260800190565b6020808252602a908201527f73455243313135353a206163636f756e747320616e6420696473206c656e677460408201527f68206d69736d6174636800000000000000000000000000000000000000000000606082015260800190565b6020808252602a908201527f73455243313135353a2073657474696e6720617070726f76616c20737461747560408201527f7320666f722073656c6600000000000000000000000000000000000000000000606082015260800190565b60208082526024908201527f73455243313135353a206d75737420626520677561726469616e20746f20756e60408201527f6c6f636b00000000000000000000000000000000000000000000000000000000606082015260800190565b6020808252602f908201527f416363657373436f6e74726f6c3a2063616e206f6e6c792072656e6f756e636560408201527f20726f6c657320666f722073656c660000000000000000000000000000000000606082015260800190565b60208082526021908201527f73455243313135353a207370656374726520646f6573206e6f74206c6f636b6560408201527f6400000000000000000000000000000000000000000000000000000000000000606082015260800190565b815160808201906003811061364a57634e487b7160e01b600052602160045260246000fd5b8083525060208301516001600160a01b03808216602085015260408501516040850152806060860151166060850152505092915050565b918252602082015260400190565b600067ffffffffffffffff8211156136a9576136a961380d565b5060209081020190565b600067ffffffffffffffff8211156136cd576136cd61380d565b50601f01601f191660200190565b600082198211156136ee576136ee6137f7565b500190565b600082821015613705576137056137f7565b500390565b60005b8381101561372557818101518382015260200161370d565b838111156116285750506000910152565b60028104600182168061374a57607f821691505b6020821081141561376b57634e487b7160e01b600052602260045260246000fd5b50919050565b601f19601f830116810181811067ffffffffffffffff821117156137975761379761380d565b6040525050565b60007fffffffffffffffffffffffffffffffffffffffffffffffffffffffffffffffff8214156137d0576137d06137f7565b5060010190565b600060ff821660ff8114156137ee576137ee6137f7565b60010192915050565b634e487b7160e01b600052601160045260246000fd5b634e487b7160e01b600052604160045260246000fd5b600060033d111561101257600481823e5160e01c90565b600060443d101561384a57611012565b6040517ffffffffffffffffffffffffffffffffffffffffffffffffffffffffffffffffc803d016004833e81513d67ffffffffffffffff816024840111818411171561389a575050505050611012565b82850191508151818111156138b457505050505050611012565b843d87010160208285010111156138d057505050505050611012565b6138df60208286010187613771565b509094505050505090565b6001600160a01b03811681146138ff57600080fd5b50565b80151581146138ff57600080fd5b6001600160e01b0319811681146138ff57600080fdfea26469706673582212206ee5dd3a43dac46bd680a4a01427895bb2e4b6929faf067f9ab690e45f596cfb64736f6c63430008010033a49807205ce4d355092ef5a8a18f56e8913cf4a201fbe287825b095693c21775",
  "linkReferences": {},
  "deployedLinkReferences": {}
}