{
  "_format": "hh-sol-artifact-1",
  "contractName": "SERC1155",
  "sourceName": "contracts/core/SERC1155.sol",
  "abi": [
    {
      "inputs": [
        {
          "internalType": "address",
          "name": "sERC20Base_",
          "type": "address"
        },
        {
          "internalType": "string",
          "name": "unwrappedURI_",
          "type": "string"
        }
      ],
      "stateMutability": "nonpayable",
      "type": "constructor"
    },
    {
      "anonymous": false,
      "inputs": [
        {
          "indexed": true,
          "internalType": "address",
          "name": "account",
          "type": "address"
        },
        {
          "indexed": true,
          "internalType": "address",
          "name": "operator",
          "type": "address"
        },
        {
          "indexed": false,
          "internalType": "bool",
          "name": "approved",
          "type": "bool"
        }
      ],
      "name": "ApprovalForAll",
      "type": "event"
    },
    {
      "anonymous": false,
      "inputs": [
        {
          "indexed": true,
          "internalType": "uint256",
          "name": "id",
          "type": "uint256"
        }
      ],
      "name": "Lock",
      "type": "event"
    },
    {
      "anonymous": false,
      "inputs": [
        {
          "indexed": true,
          "internalType": "bytes32",
          "name": "role",
          "type": "bytes32"
        },
        {
          "indexed": true,
          "internalType": "bytes32",
          "name": "previousAdminRole",
          "type": "bytes32"
        },
        {
          "indexed": true,
          "internalType": "bytes32",
          "name": "newAdminRole",
          "type": "bytes32"
        }
      ],
      "name": "RoleAdminChanged",
      "type": "event"
    },
    {
      "anonymous": false,
      "inputs": [
        {
          "indexed": true,
          "internalType": "bytes32",
          "name": "role",
          "type": "bytes32"
        },
        {
          "indexed": true,
          "internalType": "address",
          "name": "account",
          "type": "address"
        },
        {
          "indexed": true,
          "internalType": "address",
          "name": "sender",
          "type": "address"
        }
      ],
      "name": "RoleGranted",
      "type": "event"
    },
    {
      "anonymous": false,
      "inputs": [
        {
          "indexed": true,
          "internalType": "bytes32",
          "name": "role",
          "type": "bytes32"
        },
        {
          "indexed": true,
          "internalType": "address",
          "name": "account",
          "type": "address"
        },
        {
          "indexed": true,
          "internalType": "address",
          "name": "sender",
          "type": "address"
        }
      ],
      "name": "RoleRevoked",
      "type": "event"
    },
    {
      "anonymous": false,
      "inputs": [
        {
          "indexed": true,
          "internalType": "address",
          "name": "collection",
          "type": "address"
        },
        {
          "indexed": true,
          "internalType": "uint256",
          "name": "tokenId",
          "type": "uint256"
        },
        {
          "indexed": true,
          "internalType": "uint256",
          "name": "id",
          "type": "uint256"
        },
        {
          "indexed": false,
          "internalType": "address",
          "name": "sERC20",
          "type": "address"
        },
        {
          "indexed": false,
          "internalType": "address",
          "name": "guardian",
          "type": "address"
        }
      ],
      "name": "Spectralize",
      "type": "event"
    },
    {
      "anonymous": false,
      "inputs": [
        {
          "indexed": true,
          "internalType": "address",
          "name": "operator",
          "type": "address"
        },
        {
          "indexed": true,
          "internalType": "address",
          "name": "from",
          "type": "address"
        },
        {
          "indexed": true,
          "internalType": "address",
          "name": "to",
          "type": "address"
        },
        {
          "indexed": false,
          "internalType": "uint256[]",
          "name": "ids",
          "type": "uint256[]"
        },
        {
          "indexed": false,
          "internalType": "uint256[]",
          "name": "values",
          "type": "uint256[]"
        }
      ],
      "name": "TransferBatch",
      "type": "event"
    },
    {
      "anonymous": false,
      "inputs": [
        {
          "indexed": true,
          "internalType": "address",
          "name": "operator",
          "type": "address"
        },
        {
          "indexed": true,
          "internalType": "address",
          "name": "from",
          "type": "address"
        },
        {
          "indexed": true,
          "internalType": "address",
          "name": "to",
          "type": "address"
        },
        {
          "indexed": false,
          "internalType": "uint256",
          "name": "id",
          "type": "uint256"
        },
        {
          "indexed": false,
          "internalType": "uint256",
          "name": "value",
          "type": "uint256"
        }
      ],
      "name": "TransferSingle",
      "type": "event"
    },
    {
      "anonymous": false,
      "inputs": [
        {
          "indexed": false,
          "internalType": "string",
          "name": "value",
          "type": "string"
        },
        {
          "indexed": true,
          "internalType": "uint256",
          "name": "id",
          "type": "uint256"
        }
      ],
      "name": "URI",
      "type": "event"
    },
    {
      "anonymous": false,
      "inputs": [
        {
          "indexed": true,
          "internalType": "uint256",
          "name": "id",
          "type": "uint256"
        },
        {
          "indexed": false,
          "internalType": "address",
          "name": "recipient",
          "type": "address"
        }
      ],
      "name": "Unlock",
      "type": "event"
    },
    {
      "inputs": [],
      "name": "ADMIN_ROLE",
      "outputs": [
        {
          "internalType": "bytes32",
          "name": "",
          "type": "bytes32"
        }
      ],
      "stateMutability": "view",
      "type": "function"
    },
    {
      "inputs": [],
      "name": "DEFAULT_ADMIN_ROLE",
      "outputs": [
        {
          "internalType": "bytes32",
          "name": "",
          "type": "bytes32"
        }
      ],
      "stateMutability": "view",
      "type": "function"
    },
    {
      "inputs": [],
      "name": "DERRIDA",
      "outputs": [
        {
          "internalType": "bytes32",
          "name": "",
          "type": "bytes32"
        }
      ],
      "stateMutability": "view",
      "type": "function"
    },
    {
      "inputs": [
        {
          "internalType": "address",
          "name": "account",
          "type": "address"
        },
        {
          "internalType": "uint256",
          "name": "id",
          "type": "uint256"
        }
      ],
      "name": "balanceOf",
      "outputs": [
        {
          "internalType": "uint256",
          "name": "",
          "type": "uint256"
        }
      ],
      "stateMutability": "view",
      "type": "function"
    },
    {
      "inputs": [
        {
          "internalType": "address[]",
          "name": "accounts",
          "type": "address[]"
        },
        {
          "internalType": "uint256[]",
          "name": "ids",
          "type": "uint256[]"
        }
      ],
      "name": "balanceOfBatch",
      "outputs": [
        {
          "internalType": "uint256[]",
          "name": "",
          "type": "uint256[]"
        }
      ],
      "stateMutability": "view",
      "type": "function"
    },
    {
      "inputs": [
        {
          "internalType": "bytes32",
          "name": "c__0x4da9de9f",
          "type": "bytes32"
        }
      ],
      "name": "c_0x4da9de9f",
      "outputs": [],
      "stateMutability": "pure",
      "type": "function"
    },
    {
      "inputs": [
        {
          "internalType": "bytes32",
          "name": "role",
          "type": "bytes32"
        }
      ],
      "name": "getRoleAdmin",
      "outputs": [
        {
          "internalType": "bytes32",
          "name": "",
          "type": "bytes32"
        }
      ],
      "stateMutability": "view",
      "type": "function"
    },
    {
      "inputs": [
        {
          "internalType": "bytes32",
          "name": "role",
          "type": "bytes32"
        },
        {
          "internalType": "uint256",
          "name": "index",
          "type": "uint256"
        }
      ],
      "name": "getRoleMember",
      "outputs": [
        {
          "internalType": "address",
          "name": "",
          "type": "address"
        }
      ],
      "stateMutability": "view",
      "type": "function"
    },
    {
      "inputs": [
        {
          "internalType": "bytes32",
          "name": "role",
          "type": "bytes32"
        }
      ],
      "name": "getRoleMemberCount",
      "outputs": [
        {
          "internalType": "uint256",
          "name": "",
          "type": "uint256"
        }
      ],
      "stateMutability": "view",
      "type": "function"
    },
    {
      "inputs": [
        {
          "internalType": "bytes32",
          "name": "role",
          "type": "bytes32"
        },
        {
          "internalType": "address",
          "name": "account",
          "type": "address"
        }
      ],
      "name": "grantRole",
      "outputs": [],
      "stateMutability": "nonpayable",
      "type": "function"
    },
    {
      "inputs": [
        {
          "internalType": "bytes32",
          "name": "role",
          "type": "bytes32"
        },
        {
          "internalType": "address",
          "name": "account",
          "type": "address"
        }
      ],
      "name": "hasRole",
      "outputs": [
        {
          "internalType": "bool",
          "name": "",
          "type": "bool"
        }
      ],
      "stateMutability": "view",
      "type": "function"
    },
    {
      "inputs": [
        {
          "internalType": "address",
          "name": "account",
          "type": "address"
        },
        {
          "internalType": "address",
          "name": "operator",
          "type": "address"
        }
      ],
      "name": "isApprovedForAll",
      "outputs": [
        {
          "internalType": "bool",
          "name": "",
          "type": "bool"
        }
      ],
      "stateMutability": "view",
      "type": "function"
    },
    {
      "inputs": [
        {
          "internalType": "address",
          "name": "collection",
          "type": "address"
        },
        {
          "internalType": "uint256",
          "name": "tokenId",
          "type": "uint256"
        }
      ],
      "name": "isLocked",
      "outputs": [
        {
          "internalType": "bool",
          "name": "",
          "type": "bool"
        }
      ],
      "stateMutability": "view",
      "type": "function"
    },
    {
      "inputs": [
        {
          "internalType": "address",
          "name": "collection",
          "type": "address"
        },
        {
          "internalType": "uint256",
          "name": "tokenId",
          "type": "uint256"
        }
      ],
      "name": "lockOf",
      "outputs": [
        {
          "internalType": "uint256",
          "name": "",
          "type": "uint256"
        }
      ],
      "stateMutability": "view",
      "type": "function"
    },
    {
      "inputs": [
        {
          "internalType": "address",
          "name": "",
          "type": "address"
        },
        {
          "internalType": "address",
          "name": "",
          "type": "address"
        },
        {
          "internalType": "uint256",
          "name": "tokenId",
          "type": "uint256"
        },
        {
          "internalType": "bytes",
          "name": "data",
          "type": "bytes"
        }
      ],
      "name": "onERC721Received",
      "outputs": [
        {
          "internalType": "bytes4",
          "name": "",
          "type": "bytes4"
        }
      ],
      "stateMutability": "nonpayable",
      "type": "function"
    },
    {
      "inputs": [
        {
          "internalType": "address",
          "name": "from",
          "type": "address"
        },
        {
          "internalType": "address",
          "name": "to",
          "type": "address"
        },
        {
          "internalType": "uint256",
          "name": "amount",
          "type": "uint256"
        }
      ],
      "name": "onSERC20Transferred",
      "outputs": [],
      "stateMutability": "nonpayable",
      "type": "function"
    },
    {
      "inputs": [
        {
          "internalType": "bytes32",
          "name": "role",
          "type": "bytes32"
        },
        {
          "internalType": "address",
          "name": "account",
          "type": "address"
        }
      ],
      "name": "renounceRole",
      "outputs": [],
      "stateMutability": "nonpayable",
      "type": "function"
    },
    {
      "inputs": [
        {
          "internalType": "bytes32",
          "name": "role",
          "type": "bytes32"
        },
        {
          "internalType": "address",
          "name": "account",
          "type": "address"
        }
      ],
      "name": "revokeRole",
      "outputs": [],
      "stateMutability": "nonpayable",
      "type": "function"
    },
    {
      "inputs": [],
      "name": "sERC20Base",
      "outputs": [
        {
          "internalType": "address",
          "name": "",
          "type": "address"
        }
      ],
      "stateMutability": "view",
      "type": "function"
    },
    {
      "inputs": [
        {
          "internalType": "uint256",
          "name": "id",
          "type": "uint256"
        }
      ],
      "name": "sERC20Of",
      "outputs": [
        {
          "internalType": "address",
          "name": "",
          "type": "address"
        }
      ],
      "stateMutability": "pure",
      "type": "function"
    },
    {
      "inputs": [
        {
          "internalType": "address",
          "name": "from",
          "type": "address"
        },
        {
          "internalType": "address",
          "name": "to",
          "type": "address"
        },
        {
          "internalType": "uint256[]",
          "name": "ids",
          "type": "uint256[]"
        },
        {
          "internalType": "uint256[]",
          "name": "amounts",
          "type": "uint256[]"
        },
        {
          "internalType": "bytes",
          "name": "data",
          "type": "bytes"
        }
      ],
      "name": "safeBatchTransferFrom",
      "outputs": [],
      "stateMutability": "nonpayable",
      "type": "function"
    },
    {
      "inputs": [
        {
          "internalType": "address",
          "name": "from",
          "type": "address"
        },
        {
          "internalType": "address",
          "name": "to",
          "type": "address"
        },
        {
          "internalType": "uint256",
          "name": "id",
          "type": "uint256"
        },
        {
          "internalType": "uint256",
          "name": "amount",
          "type": "uint256"
        },
        {
          "internalType": "bytes",
          "name": "data",
          "type": "bytes"
        }
      ],
      "name": "safeTransferFrom",
      "outputs": [],
      "stateMutability": "nonpayable",
      "type": "function"
    },
    {
      "inputs": [
        {
          "internalType": "address",
          "name": "operator",
          "type": "address"
        },
        {
          "internalType": "bool",
          "name": "approved",
          "type": "bool"
        }
      ],
      "name": "setApprovalForAll",
      "outputs": [],
      "stateMutability": "nonpayable",
      "type": "function"
    },
    {
      "inputs": [
        {
          "internalType": "address",
          "name": "collection",
          "type": "address"
        },
        {
          "internalType": "uint256",
          "name": "tokenId",
          "type": "uint256"
        },
        {
          "internalType": "string",
          "name": "name",
          "type": "string"
        },
        {
          "internalType": "string",
          "name": "symbol",
          "type": "string"
        },
        {
          "internalType": "uint256",
          "name": "cap",
          "type": "uint256"
        },
        {
          "internalType": "address",
          "name": "admin",
          "type": "address"
        },
        {
          "internalType": "address",
          "name": "guardian",
          "type": "address"
        }
      ],
      "name": "spectralize",
      "outputs": [
        {
          "internalType": "uint256",
          "name": "id",
          "type": "uint256"
        }
      ],
      "stateMutability": "nonpayable",
      "type": "function"
    },
    {
      "inputs": [
        {
          "internalType": "address",
          "name": "sERC20",
          "type": "address"
        }
      ],
      "name": "spectreOf",
      "outputs": [
        {
          "components": [
            {
              "internalType": "enum SERC1155.SpectreState",
              "name": "state",
              "type": "uint8"
            },
            {
              "internalType": "address",
              "name": "collection",
              "type": "address"
            },
            {
              "internalType": "uint256",
              "name": "tokenId",
              "type": "uint256"
            },
            {
              "internalType": "address",
              "name": "guardian",
              "type": "address"
            }
          ],
          "internalType": "struct SERC1155.Spectre",
          "name": "",
          "type": "tuple"
        }
      ],
      "stateMutability": "view",
      "type": "function"
    },
    {
      "inputs": [
        {
          "internalType": "uint256",
          "name": "id",
          "type": "uint256"
        }
      ],
      "name": "spectreOf",
      "outputs": [
        {
          "components": [
            {
              "internalType": "enum SERC1155.SpectreState",
              "name": "state",
              "type": "uint8"
            },
            {
              "internalType": "address",
              "name": "collection",
              "type": "address"
            },
            {
              "internalType": "uint256",
              "name": "tokenId",
              "type": "uint256"
            },
            {
              "internalType": "address",
              "name": "guardian",
              "type": "address"
            }
          ],
          "internalType": "struct SERC1155.Spectre",
          "name": "",
          "type": "tuple"
        }
      ],
      "stateMutability": "view",
      "type": "function"
    },
    {
      "inputs": [
        {
          "internalType": "bytes4",
          "name": "interfaceId",
          "type": "bytes4"
        }
      ],
      "name": "supportsInterface",
      "outputs": [
        {
          "internalType": "bool",
          "name": "",
          "type": "bool"
        }
      ],
      "stateMutability": "view",
      "type": "function"
    },
    {
      "inputs": [
        {
          "internalType": "address",
          "name": "sERC20",
          "type": "address"
        },
        {
          "internalType": "address",
          "name": "recipient",
          "type": "address"
        },
        {
          "internalType": "bytes",
          "name": "data",
          "type": "bytes"
        }
      ],
      "name": "unlock",
      "outputs": [],
      "stateMutability": "nonpayable",
      "type": "function"
    },
    {
      "inputs": [
        {
          "internalType": "uint256",
          "name": "id",
          "type": "uint256"
        },
        {
          "internalType": "address",
          "name": "recipient",
          "type": "address"
        },
        {
          "internalType": "bytes",
          "name": "data",
          "type": "bytes"
        }
      ],
      "name": "unlock",
      "outputs": [],
      "stateMutability": "nonpayable",
      "type": "function"
    },
    {
      "inputs": [],
      "name": "unwrappedURI",
      "outputs": [
        {
          "internalType": "string",
          "name": "",
          "type": "string"
        }
      ],
      "stateMutability": "view",
      "type": "function"
    },
    {
      "inputs": [
        {
          "internalType": "string",
          "name": "unwrappedURI_",
          "type": "string"
        }
      ],
      "name": "updateUnwrappedURI",
      "outputs": [],
      "stateMutability": "nonpayable",
      "type": "function"
    },
    {
      "inputs": [
        {
          "internalType": "uint256",
          "name": "id",
          "type": "uint256"
        }
      ],
      "name": "uri",
      "outputs": [
        {
          "internalType": "string",
          "name": "",
          "type": "string"
        }
      ],
      "stateMutability": "view",
      "type": "function"
    }
  ],
  "bytecode": "0x60806040523480156200001157600080fd5b5060405162009c8938038062009c89833981810160405281019062000037919062000871565b6200006b7f03b296fe6e71b9d1d6119376a3b3221defab7e4fd29fec24f90268a711fcbbf360001b6200042360201b60201c565b6200009f7f951ea58e54834c3633719359160096943e2de1410035c3be23401506604cbc0760001b6200042360201b60201c565b620000d37fa8da179925aa700938385d3a928012fa9c1e83e9e95eef0b9fd4e0ca3c7e594360001b6200042360201b60201c565b620001077fee8925f3b3b29d060f5c7b0db66ac390eef78550b1da8f97e50a5718aa1b35de60001b6200042360201b60201c565b600073ffffffffffffffffffffffffffffffffffffffff168273ffffffffffffffffffffffffffffffffffffffff1614156200017a576040517f08c379a00000000000000000000000000000000000000000000000000000000081526004016200017190620008f2565b60405180910390fd5b620001ae7f42031930a9da477d10f1e60cedbd1e68910714100454f5164e9796e2e70dbf4d60001b6200042360201b60201c565b620001e27f9d7236ba334876838c1b1303e8e9507bd6a8d5228de578535ecbe0105ccb0a8160001b6200042360201b60201c565b620002167f8daa3a1c285f06405f6e230ec78b1491021efd2e4aa0ea0bf08d289ff24bd8c760001b6200042360201b60201c565b81600260006101000a81548173ffffffffffffffffffffffffffffffffffffffff021916908373ffffffffffffffffffffffffffffffffffffffff1602179055506200028b7f7d0376a8558227f006019a110b52a6bbff4f842688062bcdc724b0668febda2a60001b6200042360201b60201c565b620002bf7f632ccd248f6eb46a6b406d6541655494fde4ac4d42a3e4c8f0a8ce57bf87d8d360001b6200042360201b60201c565b8060039080519060200190620002d792919062000738565b506200030c7f6c7ae5fe7c5e917944e8b6c6cf59786f53054c61b0211b43e2dc677cba28451460001b6200042360201b60201c565b620003407f53dccb85026bfb8083eb6473c6a5b7f69073349cf8d9106d80d8c2f42078727860001b6200042360201b60201c565b620003817fa49807205ce4d355092ef5a8a18f56e8913cf4a201fbe287825b095693c21775620003756200042660201b60201c565b6200042e60201b60201c565b620003b57f8a5f3c7f77a6c29c659df04aba1ca563587ad0140c9da32e87782385f0c6d8b860001b6200042360201b60201c565b620003e97f145e432e07f8a193774a07f6b2b8211b29971cea6ae25a9e44441b395d6505a160001b6200042360201b60201c565b6200041b7fa49807205ce4d355092ef5a8a18f56e8913cf4a201fbe287825b095693c21775806200047660201b60201c565b505062000b32565b50565b600033905090565b620004458282620004d360201b620049ff1760201c565b620004718160016000858152602001908152602001600020620004e960201b62004a0d1790919060201c565b505050565b8062000488836200052160201b60201c565b837fbd79b86ffe0ab8e8776151514217cd7cacd52c909f66475c3af44e129f0b00ff60405160405180910390a480600080848152602001908152602001600020600101819055505050565b620004e582826200054060201b60201c565b5050565b600062000519836000018373ffffffffffffffffffffffffffffffffffffffff1660001b6200063160201b60201c565b905092915050565b6000806000838152602001908152602001600020600101549050919050565b620005528282620006ab60201b60201c565b6200062d57600160008084815260200190815260200160002060000160008373ffffffffffffffffffffffffffffffffffffffff1673ffffffffffffffffffffffffffffffffffffffff16815260200190815260200160002060006101000a81548160ff021916908315150217905550620005d26200042660201b60201c565b73ffffffffffffffffffffffffffffffffffffffff168173ffffffffffffffffffffffffffffffffffffffff16837f2f8788117e7eff1d82e926ec794901d17c78024a50270940304540a733656f0d60405160405180910390a45b5050565b60006200064583836200071560201b60201c565b620006a0578260000182908060018154018082558091505060019003906000526020600020016000909190919091505582600001805490508360010160008481526020019081526020016000208190555060019050620006a5565b600090505b92915050565b600080600084815260200190815260200160002060000160008373ffffffffffffffffffffffffffffffffffffffff1673ffffffffffffffffffffffffffffffffffffffff16815260200190815260200160002060009054906101000a900460ff16905092915050565b600080836001016000848152602001908152602001600020541415905092915050565b8280546200074690620009ee565b90600052602060002090601f0160209004810192826200076a5760008555620007b6565b82601f106200078557805160ff1916838001178555620007b6565b82800160010185558215620007b6579182015b82811115620007b557825182559160200191906001019062000798565b5b509050620007c59190620007c9565b5090565b5b80821115620007e4576000816000905550600101620007ca565b5090565b6000620007ff620007f9846200093d565b62000914565b9050828152602081018484840111156200081857600080fd5b62000825848285620009b8565b509392505050565b6000815190506200083e8162000b18565b92915050565b600082601f8301126200085657600080fd5b815162000868848260208601620007e8565b91505092915050565b600080604083850312156200088557600080fd5b600062000895858286016200082d565b925050602083015167ffffffffffffffff811115620008b357600080fd5b620008c18582860162000844565b9150509250929050565b6000620008da60308362000973565b9150620008e78262000ac9565b604082019050919050565b600060208201905081810360008301526200090d81620008cb565b9050919050565b60006200092062000933565b90506200092e828262000a24565b919050565b6000604051905090565b600067ffffffffffffffff8211156200095b576200095a62000a89565b5b620009668262000ab8565b9050602081019050919050565b600082825260208201905092915050565b6000620009918262000998565b9050919050565b600073ffffffffffffffffffffffffffffffffffffffff82169050919050565b60005b83811015620009d8578082015181840152602081019050620009bb565b83811115620009e8576000848401525b50505050565b6000600282049050600182168062000a0757607f821691505b6020821081141562000a1e5762000a1d62000a5a565b5b50919050565b62000a2f8262000ab8565b810181811067ffffffffffffffff8211171562000a515762000a5062000a89565b5b80604052505050565b7f4e487b7100000000000000000000000000000000000000000000000000000000600052602260045260246000fd5b7f4e487b7100000000000000000000000000000000000000000000000000000000600052604160045260246000fd5b6000601f19601f8301169050919050565b7f73455243313135353a2073455243323020626173652063616e6e6f742062652060008201527f746865207a65726f206164647265737300000000000000000000000000000000602082015250565b62000b238162000984565b811462000b2f57600080fd5b50565b6191478062000b426000396000f3fe608060405234801561001057600080fd5b50600436106101ef5760003560e01c80637c0a07fa1161010f578063b6e7ffe7116100a2578063e85b23e211610071578063e85b23e214610626578063e985e9c514610656578063f242432a14610686578063f3da17e8146106a2576101ef565b8063b6e7ffe7146105a0578063c8ae4ca1146105bc578063ca15c873146105da578063d547741f1461060a576101ef565b806399cca36c116100de57806399cca36c14610506578063a217fddf14610536578063a22cb46514610554578063b31d10b314610570576101ef565b80637c0a07fa1461045a5780639010d07c1461047657806391d14854146104a657806398295867146104d6576101ef565b806336568abe1161018757806375573ff11161015657806375573ff1146103d057806375b238fc146103ee57806375d453681461040c5780637b16d2a41461042a576101ef565b806336568abe146103385780634e1273f4146103545780636c2a79f714610384578063702a13f8146103b4576101ef565b8063248a9ca3116101c3578063248a9ca3146102b45780632eb2c2d6146102e45780632f2ff15d14610300578063331d8e5d1461031c576101ef565b8062fdd58e146101f457806301ffc9a7146102245780630e89341c14610254578063150b7a0214610284575b600080fd5b61020e600480360381019061020991906175ce565b6106be565b60405161021b9190618460565b60405180910390f35b61023e6004803603810190610239919061780e565b6109a1565b60405161024b919061809f565b60405180910390f35b61026e600480360381019061026991906178e2565b610b6f565b60405161027b91906180f0565b60405180910390f35b61029e60048036038101906102999190617483565b6110f1565b6040516102ab91906180d5565b60405180910390f35b6102ce60048036038101906102c9919061776d565b6118d6565b6040516102db91906180ba565b60405180910390f35b6102fe60048036038101906102f9919061730e565b6118f5565b005b61031a60048036038101906103159190617796565b611f9a565b005b610336600480360381019061033191906173cd565b611fce565b005b610352600480360381019061034d9190617796565b612435565b005b61036e600480360381019061036991906176d8565b612469565b60405161037b9190618046565b60405180910390f35b61039e6004803603810190610399919061760a565b612856565b6040516103ab9190618460565b60405180910390f35b6103ce60048036038101906103c9919061776d565b612eab565b005b6103d8612eae565b6040516103e591906180f0565b60405180910390f35b6103f6612fc4565b60405161040391906180ba565b60405180910390f35b610414612fe8565b60405161042191906180ba565b60405180910390f35b610444600480360381019061043f9190617280565b61300f565b6040516104519190618445565b60405180910390f35b610474600480360381019061046f9190617434565b61321b565b005b610490600480360381019061048b91906177d2565b61358a565b60405161049d9190617ebd565b60405180910390f35b6104c060048036038101906104bb9190617796565b6135b9565b6040516104cd919061809f565b60405180910390f35b6104f060048036038101906104eb91906178e2565b613623565b6040516104fd9190617ebd565b60405180910390f35b610520600480360381019061051b91906175ce565b6136b9565b60405161052d919061809f565b60405180910390f35b61053e61379c565b60405161054b91906180ba565b60405180910390f35b61056e60048036038101906105699190617592565b6137a3565b005b61058a600480360381019061058591906175ce565b613ab0565b6040516105979190618460565b60405180910390f35b6105ba60048036038101906105b59190617860565b613b8f565b005b6105c4613d4d565b6040516105d19190617ebd565b60405180910390f35b6105f460048036038101906105ef919061776d565b613dfb565b6040516106019190618460565b60405180910390f35b610624600480360381019061061f9190617796565b613e1f565b005b610640600480360381019061063b91906178e2565b613e53565b60405161064d9190618445565b60405180910390f35b610670600480360381019061066b91906172d2565b614041565b60405161067d919061809f565b60405180910390f35b6106a0600480360381019061069b9190617503565b614159565b005b6106bc60048036038101906106b79190617934565b614614565b005b60006106ec7f718cabe447a75ede706807889a48c493ca966f9d4ecc05409a2e18b6eb26085560001b612eab565b6107187fbe4a377f914e8621a00dce0575f8ebd05dbb9e0e5302ca6909f390d4e645b64a60001b612eab565b6107447f3313f1b91011e3565c758463f7b54dc0220eb0ecb1e1398f04b18cf9336584c960001b612eab565b6107707f48b10c130e201e9e5b3120f067a91703430febdf569c6bf7aabfa286e043aa1a60001b612eab565b600073ffffffffffffffffffffffffffffffffffffffff168373ffffffffffffffffffffffffffffffffffffffff1614156107e0576040517f08c379a00000000000000000000000000000000000000000000000000000000081526004016107d790618305565b60405180910390fd5b61080c7fbca3e53d47250e827f07b98b07ee98e3f6015447b6fee9ad6c1ce4520a9f17f160001b612eab565b6108387fb3e9e80ed847a80122964b33976063e893417ae29715dc7512a60f4e192e44d360001b612eab565b6108647f6417ce2365cfdcb3a8da383c2cd231ae99756859dee53015c5d05d3b0f884e1860001b612eab565b6000600281111561089e577f4e487b7100000000000000000000000000000000000000000000000000000000600052602160045260246000fd5b6005600084815260200190815260200160002060000160009054906101000a900460ff1660028111156108fa577f4e487b7100000000000000000000000000000000000000000000000000000000600052602160045260246000fd5b1415610907576000610999565b61091082614a3d565b73ffffffffffffffffffffffffffffffffffffffff166370a08231846040518263ffffffff1660e01b81526004016109489190617ebd565b60206040518083038186803b15801561096057600080fd5b505afa158015610974573d6000803e3d6000fd5b505050506040513d601f19601f82011682018060405250810190610998919061790b565b5b905092915050565b60006109cf7f6f20b76bafc421b9d37998a967f4329dd8524d105515de41c0a8d25e121a116060001b612eab565b6109fb7f5445975ad7821aaa57430581ec9a13caf051a5661187995c79845c9b734ca82360001b612eab565b610a277f2212307a166aadc8c78fd14fd3f216e4b691d6e7a80be7a08db5b7db492a117a60001b612eab565b7fd9b67a26000000000000000000000000000000000000000000000000000000007bffffffffffffffffffffffffffffffffffffffffffffffffffffffff1916827bffffffffffffffffffffffffffffffffffffffffffffffffffffffff19161480610af057507f0e89341c000000000000000000000000000000000000000000000000000000007bffffffffffffffffffffffffffffffffffffffffffffffffffffffff1916827bffffffffffffffffffffffffffffffffffffffffffffffffffffffff1916145b80610b5857507f150b7a02000000000000000000000000000000000000000000000000000000007bffffffffffffffffffffffffffffffffffffffffffffffffffffffff1916827bffffffffffffffffffffffffffffffffffffffffffffffffffffffff1916145b80610b685750610b6782614acb565b5b9050919050565b6060610b9d7f1e73fc13ab460dbcca60fab1a5dc619fadee2dfd200bb6bc0a298dcf3f0a97fa60001b612eab565b610bc97fb36711636c0c4b0b271ab2acda24894813f7b4a6f7196a67ec5eba0f659d5f6660001b612eab565b610bf57f8d7a14b7031c4604a46731b9fc67c5bd7583399baca4b24c408c467ca1d6b2fe60001b612eab565b6000600560008481526020019081526020016000209050610c387fce5686aac7178c864dec02e5e7da162fe10c67861aa33b3d32cea544d2ac1f9d60001b612eab565b610c647f3a702b283b8d7a59b4896c79f6f06b858ef618bf047f0dda37fd37e0ab4a5dd760001b612eab565b60016002811115610c9e577f4e487b7100000000000000000000000000000000000000000000000000000000600052602160045260246000fd5b8160000160009054906101000a900460ff166002811115610ce8577f4e487b7100000000000000000000000000000000000000000000000000000000600052602160045260246000fd5b1415610e3057610d1a7f657e38b09eb312bfa7bd9a281cf47858be3fb4b35411281b4e7378e6400442c260001b612eab565b610d467f586a33d2244956723b9926061ef3cba7963af11e25b463562db69ff94e51099f60001b612eab565b610d727f591774395525e9d4dee2ce5d08175360066015e909dd026b3864eb24d1994cd660001b612eab565b8060000160019054906101000a900473ffffffffffffffffffffffffffffffffffffffff1673ffffffffffffffffffffffffffffffffffffffff1663c87b56dd82600101546040518263ffffffff1660e01b8152600401610dd39190618460565b60006040518083038186803b158015610deb57600080fd5b505afa158015610dff573d6000803e3d6000fd5b505050506040513d6000823e3d601f19601f82011682018060405250810190610e2891906178a1565b9150506110ec565b610e5c7fc2254358fb92d03dd467513ecba8be3d32e91f7f2476758fcc585efdafb6390c60001b612eab565b610e887f3fe12361633b484a16935e73327773d365457f53a69384595eb39f837bb7ae1560001b612eab565b610eb47ff59b7666bace1cd3abd9e0bf0d48589c6a4e0b2d5263d6e23cf804eb50e0b10f60001b612eab565b600280811115610eed577f4e487b7100000000000000000000000000000000000000000000000000000000600052602160045260246000fd5b8160000160009054906101000a900460ff166002811115610f37577f4e487b7100000000000000000000000000000000000000000000000000000000600052602160045260246000fd5b141561105457610f697ff42c6a0bb4b6298319271204e5b4cc936331c01bb56c2c0a7ae4821475cdbeb560001b612eab565b610f957f7e9773df0e09a77e8ddee9035a8f61e4c46db91e54118f263736ca7bbc3fe24860001b612eab565b610fc17fcc37bce80227f7c6b6298b273c6a08d8f1e8036a00136b358c9a5f2edf3c74ad60001b612eab565b60038054610fce9061877b565b80601f0160208091040260200160405190810160405280929190818152602001828054610ffa9061877b565b80156110475780601f1061101c57610100808354040283529160200191611047565b820191906000526020600020905b81548152906001019060200180831161102a57829003601f168201915b50505050509150506110ec565b6110807fcf3b0e59034746677f2a8e29745564b6eb45d1844dabdf4b2a5ad2b6d33b67a260001b612eab565b6110ac7fd4aff10c7646161f830b658e0b62d08645eb41ef7114e724369cd1727b7c18be60001b612eab565b6110d87fc9dc263d51e70ad284be1ca6ca0a1d613f174f431ab175f5ba144b064d1f4f4860001b612eab565b604051806020016040528060008152509150505b919050565b600061111f7f0d9bf3b4657709bfc38174f6b43a5e4178e1ba7fdd9354d3dd010c1d371e222960001b612eab565b61114b7ff445be2cf1a9589b0f33eba005b680f95afc54ec1ac0e2203cb92fd8fb1b84e760001b612eab565b6111777fc28c6086e389b63ccbf76289011f3a4b393a392dde24ef2f13535e2fe9f8c6b860001b612eab565b6000611181614b45565b90506111af7fa3e06987d7f42894de34b83863b4f61bf6ed695b808c14925e5caf07276a69c160001b612eab565b6111db7f55d8ab36b8b6387e69b49ef796c297985bb51700477269eb2fa57258069a631460001b612eab565b6112077f83db9735dfec25b1c2816aa136126475e91074f9c910d686b4f9cfccacd6285760001b612eab565b6112376380ac58cd60e01b8273ffffffffffffffffffffffffffffffffffffffff16614b4d90919063ffffffff16565b611276576040517f08c379a000000000000000000000000000000000000000000000000000000000815260040161126d906181e5565b60405180910390fd5b6112a27f0ee7cb15f187ae6b6316b58eb6e11c4696efb2ec06384c96387d7155b4c502ea60001b612eab565b6112ce7fbdcd239aa8d0a5f4999384f23a2e83415de51620e4a2d692ffc2e25b30fb929960001b612eab565b6112fa7fcceb99e2076f082a4c61edfe69409e8b6ce03d92acbf0e6182acfc39ac1fb1bd60001b612eab565b6113267f9278ae4541c144d8f66c1bf8a33fb860d0b9e4972a161ef1a60e2cc3882c9dfc60001b612eab565b60c0848490501461136c576040517f08c379a000000000000000000000000000000000000000000000000000000000815260040161136390618285565b60405180910390fd5b6113987fdc93f6c21c8a422bca3e0c3d7abc604aa2193636bb11db12314a6d59fcc764bb60001b612eab565b6113c47f7f4e9a15a12c7ccc680dafb3a54e096aae613923b22388575f1d1de7d36a4c4260001b612eab565b6113f07f3ffc328ecdf6174de23dd7b372ab75a3325b0040a7ca7c91171ae76b4f31da8760001b612eab565b600084848080601f016020809104026020016040519081016040528093929190818152602001838380828437600081840152601f19601f8201169050808301925050505050505090506114657fb132e1e89eedc9d4040b25e5ac532d735ff31d92ad46e055f24a8cfd75a0091260001b612eab565b6114917f5c71342b3fcf477076cc48243d6e4f65a7b0da77d81d00fd4b768affb7dc613d60001b612eab565b60006114bf7fbc6275d77081455dc644548deb6dda3ae1be2530d8a8e348b6eff08bef5ebb6960001b612eab565b6114eb7f1e1e15cf2a411b401a4a14ea08830b8e756a0d0ee0d8e265dc6ae7c4de11bd5a60001b612eab565b60006115197f51c43c22ed497a073debf6799cbe26bd986b49c5ef9c5b4c14b57dbe2e776b5b60001b612eab565b6115457f3b5f04d3d1821f532fc4c8afcad9c363fca6c30e52c8ae748bc2fce68ca653c260001b612eab565b60006115737f21c3292c0a6b1a96966b9a1067238959db30e5e3b2c57301d37bd2eb7496b17060001b612eab565b61159f7f835afe7f00f4aa4bbc05dda6f30796d56d213120b7c37b2a575a6274ebde3a7d60001b612eab565b60006115cd7fe4b8d1c6747238aadc258b8930ef94ea6f8ec23e2646b16949b7936612bdbd8c60001b612eab565b6115f97f43e4b5752212e54338af8999ee0066ec1386d1f90a1c9710f92d59cb93c0ebcd60001b612eab565b60006116277faacf8047584c49660feaf2966685dbb766ee0ec401414188f6251c580016551860001b612eab565b6116537fa5b23f56653f4b3bd45cd94a8bd21d2945be6c1825467679e5f919fdc2e1871c60001b612eab565b60006116817f7a47536fbc69764532c8a952f07124253017489b976f76ae404f023c48da374860001b612eab565b6020870151955060408701519450606087015193506080870151925060a0870151915060c087015190506116d77ff9d7749ccfa2f3d65ce08e6330554a9e0b2917ce43a7fbf7ab6b0fc275f6ce5260001b612eab565b6117037f013b8994f23a77a18ff5583eb6ec4f161a52d5dc2b7bccb8bfdcfce11546cb0660001b612eab565b61172f7f944d768c479cdbd25342254c162a713f1058d7c42284aaa077584f750e5814d760001b612eab565b7f1d2496c631fd6d8be20fb18c5c1fa9499e1f28016c62da960ec6dcf752f2f7ce60001b8114611794576040517f08c379a000000000000000000000000000000000000000000000000000000000815260040161178b90618185565b60405180910390fd5b6117c07f1af9a9ad60066c980673df36062bc51efb39c2b20e750017b5502b69217f6c7560001b612eab565b6117ec7f198e73f6a5bfd82f5c31ad12325530165289dc34e7e4d97ca844450ba446364460001b612eab565b6118187fd983e8dda168d3dce3c1f57e1609662989ad91bad4f9f9df4f88463dd77a4c2d60001b612eab565b611837888d61182689614b72565b61182f89614b72565b888888615033565b7f57424d5909ad92dd80fbaa1967a047a5975a0e9bb94726d561734e667cdf422760405160405180910390a261188f7f7919ca2505bbca685286abd645a49d51413e3d685983b3090d8f9f898946ac5560001b612eab565b6118bb7f837f34425f90863c03e8a5e4ba6046f5bf9c7d86c6e6f01201137fa1d153e2b760001b612eab565b63150b7a0260e01b9850505050505050505095945050505050565b6000806000838152602001908152602001600020600101549050919050565b6119217f263d6f6b42f00a8147700d83fd5e948ad3d25a17d1e9a9284473e96de9fd2cb760001b612eab565b61194d7fa3751ba533e834a5c59e7be1c1836ebac9be41f82c90eb432bd70aa2b1dcc20560001b612eab565b6119797fec2d637f019dc0390ac67d7a15e0f56298d96253a07051665d5e8531ff318f8760001b612eab565b6119a57ff0ec13a07f8418471a12d8a8b99c0e32943f4fca4b785a9ebabcf69f34686fdb60001b612eab565b81518351146119e9576040517f08c379a00000000000000000000000000000000000000000000000000000000081526004016119e090618225565b60405180910390fd5b611a157fb94e44637e3dab48665fc9c3e9e13ba3714916402d91902903ae113594321dbc60001b612eab565b611a417fa1f8ea4408143d0fefa1e2c81b56c3ce3da3b2057efe6758db6e5002cc812e2060001b612eab565b611a6d7fb86153645bcbd6e2715f436359c1f52a7be467eea8050ed6ec39ab03b79b5cfb60001b612eab565b611a997fd36fb3fac9497f7a71329d002baa7e9bf81539283a645974506aa0d3edcc194b60001b612eab565b600073ffffffffffffffffffffffffffffffffffffffff168473ffffffffffffffffffffffffffffffffffffffff161415611b09576040517f08c379a0000000000000000000000000000000000000000000000000000000008152600401611b0090618245565b60405180910390fd5b611b357fed4915ffe1320d32bd00ef87674b131f0d2622adfe965e0e39bb508213eec3ab60001b612eab565b611b617f44a4d7b672bdedda90ad84c40737defb980654d638e9069f78076d82528a6ede60001b612eab565b611b8d7f63f429b0a1f288d8b97413aea92952e5aa4cac0cb29f9416a794ef7ffaa34da160001b612eab565b611bb97f0f290860a0878bfae63cf678627a2d811e083fb7ea7e5fc670380040bed871a060001b612eab565b611bc2856155e3565b611c01576040517f08c379a0000000000000000000000000000000000000000000000000000000008152600401611bf890618325565b60405180910390fd5b611c2d7f1b1e9355968030ef2e1a3ded82904304a0b6b6f7fe2c1fd5b60ec1fc994843d660001b612eab565b611c597f621806ba41b9609e1f37670fd99988ffbfebc6a4f72f1f559d8f63b4503e929060001b612eab565b611c857fb0f9800860d4700099739d26891dff937ecae9bbe9e49d07698273cdb33dd1d160001b612eab565b6000611c8f614b45565b9050611cbd7fbb62e9b45e0a53f79ad131a8bd37c378d1994fe98a9f5de43e04b5f55c8ccc9160001b612eab565b611ce97f53f7781aaa34456b14c14d7ae927716ef7d04b7ea1fb119c9188de1cc74b1c3560001b612eab565b60005b8451811015611e5557611d217ffc6fa2db19cf3a0a679d742c3ec3b0b4f25b4a2a83259ff344886f7ced77fca760001b612eab565b611d4d7f338be47e27d57923e2536a698a7ebf9d6c51542fdc93f8375bde45d828c6385e60001b612eab565b611d96858281518110611d89577f4e487b7100000000000000000000000000000000000000000000000000000000600052603260045260246000fd5b6020026020010151614a3d565b73ffffffffffffffffffffffffffffffffffffffff1663be0654788888878581518110611dec577f4e487b7100000000000000000000000000000000000000000000000000000000600052603260045260246000fd5b60200260200101516040518463ffffffff1660e01b8152600401611e1293929190617f69565b600060405180830381600087803b158015611e2c57600080fd5b505af1158015611e40573d6000803e3d6000fd5b5050505080611e4e906187de565b9050611cec565b50611e827f28151f7a06c6abeb7b9a7d2eebaeb878e60256e617bbf781d51e91573af2e22360001b612eab565b611eae7f6c7ab4c55692d0a2e78e7c1e0a3e865c204cc144408688a7ec9229c376d2362260001b612eab565b8473ffffffffffffffffffffffffffffffffffffffff168673ffffffffffffffffffffffffffffffffffffffff168273ffffffffffffffffffffffffffffffffffffffff167f4a39dc06d4c0dbc64b70af90fd698a233a518aa5d07e595d983b8c0526c8f7fb8787604051611f24929190618068565b60405180910390a4611f587f082bdfbcf6cb9f5d69b4d177fd1924fd175b454c5091b51d0eff22f320cf5c8560001b612eab565b611f847f33e324628eaf9ca007fc493fc9f14036f1e049e47a5b2de0d62cc603c846558560001b612eab565b611f928187878787876156bd565b505050505050565b611fa48282615b95565b611fc98160016000858152602001908152602001600020614a0d90919063ffffffff16565b505050565b611ffa7f30c17dbe8079d6f5491d7d1b6c258971eec8d0ec19c3dd559fc6cd2217462fb860001b612eab565b6120267f803bd2e4dbb443c66a3132bb968901409d227f71044a6031cc1885d704e8942460001b612eab565b6120527f3fddc70821877eed589c9f00cdd3245fd6212f4bb861e8f7bef348aead6f670d60001b612eab565b60006120738473ffffffffffffffffffffffffffffffffffffffff16615bfb565b90506120a17f4f0fd848db612281fed47b505eeaa86fe501d3c56ea4afd3875a78cda02b69a560001b612eab565b6120cd7f66376a53fee9c2de3a6308feddb2b06d3d14273c8c9095fdd0ec1491099cf8cc60001b612eab565b60006005600083815260200190815260200160002090506121107fded77405353e524216c1e4ed77e0991ebc3afa3efb8d9ede8516a53724ae53d860001b612eab565b61213c7fb2c07311f3442b48ba884614e521bcfa3d4a8cc764e5945c8b5396f37b18413460001b612eab565b6121687f838a75bcf108c2c6ce5dc8171c4dba6578510069ff1b77b602ebbfbe8423e2df60001b612eab565b600160028111156121a2577f4e487b7100000000000000000000000000000000000000000000000000000000600052602160045260246000fd5b8160000160009054906101000a900460ff1660028111156121ec577f4e487b7100000000000000000000000000000000000000000000000000000000600052602160045260246000fd5b1461222c576040517f08c379a000000000000000000000000000000000000000000000000000000000815260040161222390618425565b60405180910390fd5b6122587fa75f8db0da05953ca04b89e944bb61716ddee640bfe2bad315d2449320e3150160001b612eab565b6122847f98d0fe790c0823895c9f2a992ccc3afd87fc46c31b75b8643f67ed661604f70f60001b612eab565b6122b07f199ca16605c1693901302d7c4ec14442eaacc2acefe5cfbf1ca85933226a819360001b612eab565b6122dc7fe51d5999469a009ebf3b4f45eca374dac039033fc4979b3ff45066faa6390f8560001b612eab565b8060020160009054906101000a900473ffffffffffffffffffffffffffffffffffffffff1673ffffffffffffffffffffffffffffffffffffffff1661231f614b45565b73ffffffffffffffffffffffffffffffffffffffff1614612375576040517f08c379a000000000000000000000000000000000000000000000000000000000815260040161236c906183e5565b60405180910390fd5b6123a17f80014b4fd0943dfffc46e0f09571442cb1af682477ace54137c247f5c4bdacc160001b612eab565b6123cd7f06065527d48ed2915444dd55d3640e833aa597cdbeedaf5b9d2e84f9de70351760001b612eab565b6123f97fba27459250676a9bed0df136dd00bec27f81e0922b792b182f42a286a69168c760001b612eab565b61242e8160000160019054906101000a900473ffffffffffffffffffffffffffffffffffffffff168260010154848787615c9f565b5050505050565b61243f8282615f68565b6124648160016000858152602001908152602001600020615feb90919063ffffffff16565b505050565b60606124977f5b8d20d0abf8c6189059eced7ce4c11542432aeb3561ded376b655fe7ded332f60001b612eab565b6124c37ff80f9dcb6ee840f712d4e5d0e8421c91388277a2ddae1d11d80e742d98fbdf1b60001b612eab565b6124ef7f71e5d38b962dc29fd612a4e4b9011cf7f6d6d57d6434056d6ac052abe132a3c760001b612eab565b61251b7f32f31260bb55ffad1d6b6f9d2881a4f1032e59661dd75b672d29e242c760c90b60001b612eab565b815183511461255f576040517f08c379a0000000000000000000000000000000000000000000000000000000008152600401612556906183a5565b60405180910390fd5b61258b7f916247ec63ea96e45a99de51775635ea52aba1b1462d1d1c5c3670ead351668e60001b612eab565b6125b77f531d784764b06cbb537c76fe3b81fe12b3e9f858bf3e578884d974864e1eae0760001b612eab565b6125e37fda1c48689602f982d7944224b78839b67a90efd24688e5cc8e48887663db75f860001b612eab565b6000835167ffffffffffffffff811115612626577f4e487b7100000000000000000000000000000000000000000000000000000000600052604160045260246000fd5b6040519080825280602002602001820160405280156126545781602001602082028036833780820191505090505b5090506126837f3ed39332312551d36f8a95981b886292c13b22467d04ec9c9aa06af05186bb4960001b612eab565b6126af7f076aa96e11d2664320f05a3bad34168241e9bd749edae1d21e5a2f2ca8183e1060001b612eab565b60005b84518110156127f3576126e77fc82e46aa5193573f6677035440dd8463e55d39f0d3b8c8315b2dd23e213bec7a60001b612eab565b6127137fcbdbac25add089af7acb9a1c959594a3e81b75c644fec34ac31ac4825e52003060001b612eab565b61279d85828151811061274f577f4e487b7100000000000000000000000000000000000000000000000000000000600052603260045260246000fd5b6020026020010151858381518110612790577f4e487b7100000000000000000000000000000000000000000000000000000000600052603260045260246000fd5b60200260200101516106be565b8282815181106127d6577f4e487b7100000000000000000000000000000000000000000000000000000000600052603260045260246000fd5b602002602001018181525050806127ec906187de565b90506126b2565b506128207fb7b7db88aa5d350dcb32b15a40439f308b593b2b9b80029a862b969d86178ae060001b612eab565b61284c7fe0b713ee337275172e4262dbfdd9957e73e6c7d0e9a0add09f83c329745665c860001b612eab565b8091505092915050565b60006128847f6bbaeae692ad5b51559df83940c5536b7620e1e4fbf43358102a669e7bf7f60860001b612eab565b6128b07f2ed120e0480b80cbd1f42a8c47996d8cc4d26e0bea004fb2c17772e44e1ccf9c60001b612eab565b6128dc7f23d5bcf0b592b4c012271f2dc85e554adee0c57dd3fef7236758cd749719f6b760001b612eab565b6129087f31ae808621b57e7b240fa544e48d7eb7f2b5bc1c9450eda4bc7ea36020be54c260001b612eab565b6129386380ac58cd60e01b8973ffffffffffffffffffffffffffffffffffffffff16614b4d90919063ffffffff16565b612977576040517f08c379a000000000000000000000000000000000000000000000000000000000815260040161296e906181e5565b60405180910390fd5b6129a37f78fdd2129ac91a86aaed8f9292060ab69c4ae602026889ac34ad2b7f3e272ef860001b612eab565b6129cf7fb699d1d4e0852ae361b7f1ef4c35e6ff995ef8aa495a240d19a4b302172f307160001b612eab565b6129fb7f3334d295c9e6305d3d6f6361a60f5e3057bc73d12bc33438c310fedc8c5f7dce60001b612eab565b612a277fdba125ee8e64790f3497d3043002e6cc217c42427ca81072b20554862e6e730060001b612eab565b6000600660008a73ffffffffffffffffffffffffffffffffffffffff1673ffffffffffffffffffffffffffffffffffffffff16815260200190815260200160002060008981526020019081526020016000205414612aba576040517f08c379a0000000000000000000000000000000000000000000000000000000008152600401612ab190618265565b60405180910390fd5b612ae67f09d0aa51ba01f695601396c1b267bdeb6db3db7cc9322d7a683cffff7a11b6a460001b612eab565b612b127fdfc3a920df6356136a84fd1a0d58020126850018e076eb212360859300a0e62d60001b612eab565b612b3e7fbe70f2094c43c222cb05214861e78d6cd1e126b28cbcbbc102dc71791686cd9960001b612eab565b60008873ffffffffffffffffffffffffffffffffffffffff16636352211e896040518263ffffffff1660e01b8152600401612b799190618460565b60206040518083038186803b158015612b9157600080fd5b505afa158015612ba5573d6000803e3d6000fd5b505050506040513d601f19601f82011682018060405250810190612bc991906172a9565b9050612bf77f9439badfed8edc6f272c57b1d95d4126ca401fbfd37f48a1e70ff637746764fc60001b612eab565b612c237fad2b8f5cc5aa94e189c911937843e7d367a4726152ca4cede29f26e00d4d50a560001b612eab565b612c4f7fff22fb5112c19066516c05f781e6dc3853492c720f70ae6c21358706c067fa3460001b612eab565b3073ffffffffffffffffffffffffffffffffffffffff168173ffffffffffffffffffffffffffffffffffffffff161415612cbe576040517f08c379a0000000000000000000000000000000000000000000000000000000008152600401612cb590618365565b60405180910390fd5b612cea7f05152546e6948de6e7ba55cc43cf3d19f5ee5f8eec96922fc1e2d7d76241437b60001b612eab565b612d167f676634711bd13438ad26c145c508b5d52831fc603d69347069b3c890a27095d560001b612eab565b612d427f339415efada10da38d8113103c87274f8a178c6cfa6817addc260baa0e01fcb060001b612eab565b612d5189898989898989615033565b9150612d7f7f295bd9ec7b8248af3b349e9ff7c87df4155ca533ab9dbde9af2b842777c516d360001b612eab565b612dab7f5768486753e0a31db015b65a7469ed5184fde1731b53e242bf35be5e16656fe860001b612eab565b8873ffffffffffffffffffffffffffffffffffffffff166323b872dd82308b6040518463ffffffff1660e01b8152600401612de893929190617f69565b600060405180830381600087803b158015612e0257600080fd5b505af1158015612e16573d6000803e3d6000fd5b50505050612e467f160084934339413ba470f375516a02def052a91dc80f9b154b4439cacdef8ccd60001b612eab565b612e727f0484c4d3e943a1b921488f4ba1a7b9280a6456b9943aa4dcc556b890e6ccf3ad60001b612eab565b817f57424d5909ad92dd80fbaa1967a047a5975a0e9bb94726d561734e667cdf422760405160405180910390a250979650505050505050565b50565b6060612edc7f5b56c9c358790ced27e9fe95244a22659fc59acfa528062bf11c1169f33e428160001b612eab565b612f087f9d1d03ffa71ad65e8c4320c16218009e2bc5956b98bab26d3e3ba36b4e71daf360001b612eab565b612f347f2c2a20482b2a8145cf0867831e10ed11298e2139aff80e644b6d31ebda9dc30c60001b612eab565b60038054612f419061877b565b80601f0160208091040260200160405190810160405280929190818152602001828054612f6d9061877b565b8015612fba5780601f10612f8f57610100808354040283529160200191612fba565b820191906000526020600020905b815481529060010190602001808311612f9d57829003601f168201915b5050505050905090565b7fa49807205ce4d355092ef5a8a18f56e8913cf4a201fbe287825b095693c2177581565b7f1d2496c631fd6d8be20fb18c5c1fa9499e1f28016c62da960ec6dcf752f2f7ce60001b81565b613017616de6565b6130437f73573f6352c50b13c3e89d7fa045e5d93cdf7c58ddc82e697f20796e2d33e95b60001b612eab565b61306f7f48f76a5ac69aab99a3584c53a613caaa5d41f2c9fdb2b09208ef50b4c8a03fae60001b612eab565b61309b7fcbd9b9dd3acb8e282a00c1a31a3cbea531d2fed1c6522943d6442b1af89f6c1260001b612eab565b600560006130be8473ffffffffffffffffffffffffffffffffffffffff16615bfb565b81526020019081526020016000206040518060800160405290816000820160009054906101000a900460ff166002811115613122577f4e487b7100000000000000000000000000000000000000000000000000000000600052602160045260246000fd5b600281111561315a577f4e487b7100000000000000000000000000000000000000000000000000000000600052602160045260246000fd5b81526020016000820160019054906101000a900473ffffffffffffffffffffffffffffffffffffffff1673ffffffffffffffffffffffffffffffffffffffff1673ffffffffffffffffffffffffffffffffffffffff168152602001600182015481526020016002820160009054906101000a900473ffffffffffffffffffffffffffffffffffffffff1673ffffffffffffffffffffffffffffffffffffffff1673ffffffffffffffffffffffffffffffffffffffff16815250509050919050565b6132477fae921dc026377966e2c6a41e90c51cf4abe6dba4c4cfed08ee88b2e5c840a7f660001b612eab565b6132737f4f0d2784fd8c3bb4fb86cb3a85c63c859b6c349acb199bfc3b5ce81317eed3a660001b612eab565b61329f7f659762d310a318ad623814f1410ac642fe3fc6239ddc64033009626ed8a0687360001b612eab565b60006132a9614b45565b90506132d77f482f0bc00188052f615871bd153d6d730397d19f294bcd924fe5061c77d84f2660001b612eab565b6133037f284e608efd30a995b3643ad1f202c4e31cf247764718f89af1e3bf451dad6f2860001b612eab565b60006133248273ffffffffffffffffffffffffffffffffffffffff16615bfb565b90506133527f47ca121af6ee7f555d6f4e31e3869c27d4e2bbb03f26d0b553e457ee54ef1ac860001b612eab565b61337e7f248d5ae231a9b1aa4afb69c3b42d6b1b090e6e8e175fa7d170778fe32fbaf60360001b612eab565b6133aa7f7380c6c57310e95dcd463811577905d5f59fc301afcd94b7c69fc4df935d7b1a60001b612eab565b600060028111156133e4577f4e487b7100000000000000000000000000000000000000000000000000000000600052602160045260246000fd5b6005600083815260200190815260200160002060000160009054906101000a900460ff166002811115613440577f4e487b7100000000000000000000000000000000000000000000000000000000600052602160045260246000fd5b1415613481576040517f08c379a0000000000000000000000000000000000000000000000000000000008152600401613478906181c5565b60405180910390fd5b6134ad7f26fb808fc5cdaa3e1509225e1087011d38a1b4c92f0d49c82be9e13af828698b60001b612eab565b6134d97f9270d26d29a4e0f10d4575a2a73f4e08c56369ffc1710161a7848c2fcfada4b160001b612eab565b6135057f0de07b04c0e315a55da3e74553c50caedcfd06728837077418e281673ae0ee0b60001b612eab565b8373ffffffffffffffffffffffffffffffffffffffff168573ffffffffffffffffffffffffffffffffffffffff168373ffffffffffffffffffffffffffffffffffffffff167fc3d58168c5ae7397731d063d5bbf3d657854427343f4c083240f7aacaa2d0f62848760405161357b92919061847b565b60405180910390a45050505050565b60006135b1826001600086815260200190815260200160002061601b90919063ffffffff16565b905092915050565b600080600084815260200190815260200160002060000160008373ffffffffffffffffffffffffffffffffffffffff1673ffffffffffffffffffffffffffffffffffffffff16815260200190815260200160002060009054906101000a900460ff16905092915050565b60006136517f19847b1c0e338af8685b8fde30eda0a11565a73964fafb088fc739deab5c180660001b612eab565b61367d7f012484542549f76bbc28c933753162b1137ae4d5db7a6d67d162c1835e32896960001b612eab565b6136a97fcdfc73fa2f7c177de773a84e9efc3f9c1562f85a173e234812714170a6743c7d60001b612eab565b6136b282616035565b9050919050565b60006136e77f64f4cea2a49a59ba46d1fdb6bda5260645d99e1994a7ddeffaf26010eef4422a60001b612eab565b6137137f360c57bec3f512d12b0615f2810d8c2811ab6566068e9d3f08c974eb5c1ac9e560001b612eab565b61373f7f8f972b1a9bfa449fed9c690253000701acbad9346edcffafaf3d58e87f48d22860001b612eab565b6000600660008573ffffffffffffffffffffffffffffffffffffffff1673ffffffffffffffffffffffffffffffffffffffff1681526020019081526020016000206000848152602001908152602001600020541415905092915050565b6000801b81565b6137cf7f56349e6c15378af759cdabd77b004fba38183e5bdc81079b1e1762ce3617172960001b612eab565b6137fb7fc7a23047de6e9b4e19f1da698a7d91bf4d75283cb2fbbb6ce874cf4bb90f145960001b612eab565b6138277fedbfbe909170b73af5d3443136d0336b0b4825c0f3c7fae95b5a2e9c8c67705860001b612eab565b6138537f67f8748e64a62f414e34357435ba4fe171f36076abe0bb40f60310e9b0aec09460001b612eab565b8173ffffffffffffffffffffffffffffffffffffffff16613872614b45565b73ffffffffffffffffffffffffffffffffffffffff1614156138c9576040517f08c379a00000000000000000000000000000000000000000000000000000000081526004016138c0906183c5565b60405180910390fd5b6138f57f33afe2d8f9f0027b2ffb480ccc9faffe7cf29d64ab0d7a2c7d6d525c9008e8c460001b612eab565b6139217f308b1e2b8e6749b0eb0826859837d551e06c83c9ae31cba51bd44f70b92f97f960001b612eab565b61394d7fa06447cc17abd5d9b685f9104b9d15cccf1b3f9c433c31fea09be567e958301160001b612eab565b806004600061395a614b45565b73ffffffffffffffffffffffffffffffffffffffff1673ffffffffffffffffffffffffffffffffffffffff16815260200190815260200160002060008473ffffffffffffffffffffffffffffffffffffffff1673ffffffffffffffffffffffffffffffffffffffff16815260200190815260200160002060006101000a81548160ff021916908315150217905550613a147faa2238435d33c1dafff325121a03d6673e123d7fb6173198746bd6db7afdfe3460001b612eab565b613a407fbaf35ef7f68e88c74e3eb3eaf798c2fc5ee6af119b2294c61ad553ef066d8eff60001b612eab565b8173ffffffffffffffffffffffffffffffffffffffff16613a5f614b45565b73ffffffffffffffffffffffffffffffffffffffff167f17307eab39ab6107e8899845ad3d59bd9653f200f220920489ca2b5937696c3183604051613aa4919061809f565b60405180910390a35050565b6000613ade7f8d060bd1c97ceaf631bf1550ede3d3e5ed6991e108e6a160aab6d37db8015cd560001b612eab565b613b0a7f8ab4292377eee99ced2a5991caa8a182c07291a96513498ac75bea54fb3420fd60001b612eab565b613b367f76acf023d82085e6cc3cdc2225afc0d92426b4febfe4b3cc0467f05bb7ebf2bd60001b612eab565b600660008473ffffffffffffffffffffffffffffffffffffffff1673ffffffffffffffffffffffffffffffffffffffff168152602001908152602001600020600083815260200190815260200160002054905092915050565b613bbb7fd8514519b8ec3eb89a368d83e3e5ed13719c2bc8e04d28570f76835d24e6e1e760001b612eab565b613be77f4357818025e5dc1007a4179944855a1e0ede630e7ed7c60d2449271bbb401f1860001b612eab565b613c137f1b11ea18d9aeacf8bf54cf4bb6b462f0718f41f8071fe94735c95b698c5eeaaf60001b612eab565b613c3f7fcf4405972cfc758fc6ceefc2aabdfd5250ac09e1aef7265a63578263d5b22eb860001b612eab565b613c707fa49807205ce4d355092ef5a8a18f56e8913cf4a201fbe287825b095693c21775613c6b614b45565b6135b9565b613caf576040517f08c379a0000000000000000000000000000000000000000000000000000000008152600401613ca690618345565b60405180910390fd5b613cdb7fbf31ee143ee354cb7d12160fa76d7f795524b6b82acf09425aaf1f0f8e0a395560001b612eab565b613d077f29d12c02072e0f4bc7aa78599e4c997f08531d688fab7fc90782cc7f1db2746660001b612eab565b613d337f971161defc6befb584f2af0d0cc9434b43b5d035760f248156bf11aa135e0db060001b612eab565b8060039080519060200190613d49929190616e72565b5050565b6000613d7b7f7b537873bfb24342be1a1b3a8929e23ed78ecf8885ab77023bc8f9454fb5c8a860001b612eab565b613da77f64be826a9d86bab6bb0c9fe0ce8a5f65c20c30a8bb268504f50765033b45f75960001b612eab565b613dd37fa6d6cab07650661d4e7ea821d22138138fe9e3055cea2494cac7d3ec483173d860001b612eab565b600260009054906101000a900473ffffffffffffffffffffffffffffffffffffffff16905090565b6000613e18600160008481526020019081526020016000206160c3565b9050919050565b613e2982826160d8565b613e4e8160016000858152602001908152602001600020615feb90919063ffffffff16565b505050565b613e5b616de6565b613e877ffd45b53fd8c559790023a7b516d2914cbe8dbacd7defcfd49f36a164f20e391560001b612eab565b613eb37f9ffba2f096503c188637adb5a797ded02336814fa74907e740b30f2429a7677960001b612eab565b613edf7fab6d94683a04449940ce678d9ee4c4aca78ebacd30b98ea0fbc00c307a9711fc60001b612eab565b600560008381526020019081526020016000206040518060800160405290816000820160009054906101000a900460ff166002811115613f48577f4e487b7100000000000000000000000000000000000000000000000000000000600052602160045260246000fd5b6002811115613f80577f4e487b7100000000000000000000000000000000000000000000000000000000600052602160045260246000fd5b81526020016000820160019054906101000a900473ffffffffffffffffffffffffffffffffffffffff1673ffffffffffffffffffffffffffffffffffffffff1673ffffffffffffffffffffffffffffffffffffffff168152602001600182015481526020016002820160009054906101000a900473ffffffffffffffffffffffffffffffffffffffff1673ffffffffffffffffffffffffffffffffffffffff1673ffffffffffffffffffffffffffffffffffffffff16815250509050919050565b600061406f7f74080edfc5bb5c38c74efa02c0851ba1638fe46cd7afb08be6c1db82203879e060001b612eab565b61409b7f33ae7a4fa3e6f43b7c0bbac499b6d9e698db0d5cf0098ae8854af7321b6e0cf060001b612eab565b6140c77f368eb6edabfbdbc1108ee150bd4dc54408ba79afc1d5a6e04622f2fccc00b29c60001b612eab565b600460008473ffffffffffffffffffffffffffffffffffffffff1673ffffffffffffffffffffffffffffffffffffffff16815260200190815260200160002060008373ffffffffffffffffffffffffffffffffffffffff1673ffffffffffffffffffffffffffffffffffffffff16815260200190815260200160002060009054906101000a900460ff16905092915050565b6141857f645bdb10a1292d91435e87ffc9dfe862742e0ff6e4a69841a1cf33bca231b50c60001b612eab565b6141b17f5da45a9588da3a19e568d3ae92761927649399c87d4b0a3fbd36a5b2ee80c23060001b612eab565b6141dd7f56dadbba0b192132885fb34346864c409166422bcaa364f8a40e8ca7806269b160001b612eab565b6142097fbccd96b5396bf55670633ee597d13a3c999cb5b3ee415b487ceaa1f168b8299c60001b612eab565b600073ffffffffffffffffffffffffffffffffffffffff168473ffffffffffffffffffffffffffffffffffffffff161415614279576040517f08c379a000000000000000000000000000000000000000000000000000000000815260040161427090618245565b60405180910390fd5b6142a57faf8965f6fa11a1684365ad458abf744f0fc463dd21a1ad75d3843ee4ec96500f60001b612eab565b6142d17f90bbbefccf51a8f9264dcad6af0c5862e0ca8bae7fcda8b4ef40de14d126432260001b612eab565b6142fd7fb7fa87f18d8fed8bb42b7fe93d0e0d9ce57f5fbad2507f6eb56160fbf4365dbf60001b612eab565b6143297f6f3578e93d56a9a6c24b8db2d026f347797302a54693324af1260118842025aa60001b612eab565b614332856155e3565b614371576040517f08c379a000000000000000000000000000000000000000000000000000000000815260040161436890618325565b60405180910390fd5b61439d7fd515acfbe3456d12aa1c22616b67bfd0729dd5ed3cf7f4f2029ba99d44d648c960001b612eab565b6143c97f3cd75db84917df234f3371808bb842a2613b3e41c4e4e235b3c15cdfb9ca581360001b612eab565b6143f57f1b6a287894f0e60ea5a56700e391a86a044623697e1a284205d61afa26fe9b9360001b612eab565b60006143ff614b45565b905061442d7f138d596d61673b58d3a1f1309185ae4b66794d77aa6ef4968b727aad0848f66f60001b612eab565b6144597f2b3dd13ed9e8941541448916be2786374456784c629a48559e3526e8772a067a60001b612eab565b61446284614a3d565b73ffffffffffffffffffffffffffffffffffffffff1663be0654788787866040518463ffffffff1660e01b815260040161449e93929190617f69565b600060405180830381600087803b1580156144b857600080fd5b505af11580156144cc573d6000803e3d6000fd5b505050506144fc7fbc2a921fb1eb44ff8a90d1585afab688d7a57824c8d917e1da78aa335228128860001b612eab565b6145287f78d68ef8ade1458264ecbfffb566046f3393316be12a29f2ca1c2f01cb7e15e660001b612eab565b8473ffffffffffffffffffffffffffffffffffffffff168673ffffffffffffffffffffffffffffffffffffffff168273ffffffffffffffffffffffffffffffffffffffff167fc3d58168c5ae7397731d063d5bbf3d657854427343f4c083240f7aacaa2d0f62878760405161459e92919061847b565b60405180910390a46145d27f3db3b8ed0e06f580ee235fab991d1f442b4502be1480a937cf62dbdab9c920b760001b612eab565b6145fe7f8642eccfc73e05df1a04ccea36e9d396c47c260d52239784d64d5d91f76834ad60001b612eab565b61460c81878787878761613e565b505050505050565b6146407f10271e036c699abef68bfbc5c804b86f155915e907cefc73630bd4dd8113b88e60001b612eab565b61466c7f294daf4af2f8a2a7eaa793adc3e8e6c3e098a1434a293bcd98e1b4ff0814c80060001b612eab565b6146987f01289a1fff94f44b0094ff1bdf5af6f5c9597bb2c04ea998be0d7783b9d60a8760001b612eab565b60006005600085815260200190815260200160002090506146db7f0a23b0ee71174d643fffa7c8ae9549908b8ce337381f5fb306cfb0056f1018c360001b612eab565b6147077f691c12032c1619bb2dff7de4c0411849fa82b1552c066d8463dfd5119c4d55fd60001b612eab565b6147337faf2400cf88106f2fc03d3f3fdef3a21a9f97ef0e58e2fbe232d623e619bcbe3860001b612eab565b6001600281111561476d577f4e487b7100000000000000000000000000000000000000000000000000000000600052602160045260246000fd5b8160000160009054906101000a900460ff1660028111156147b7577f4e487b7100000000000000000000000000000000000000000000000000000000600052602160045260246000fd5b146147f7576040517f08c379a00000000000000000000000000000000000000000000000000000000081526004016147ee906182c5565b60405180910390fd5b6148237ffe1ff3cb5d47cd9372c80eb0c8249379b76beda1c59e7f7d17d4aad5bd40cde460001b612eab565b61484f7fdcb730b260dbb7a71e77e113cfe07ad4cc1581e878c9c08f43093718bef3b0a960001b612eab565b61487b7f1eca7fd8c52cf290340da2455934ac28df635ca4ce6bc205579c2775043c716e60001b612eab565b6148a77f1f35accc4256d68bbc9a9956a684fb5bcebc2ad09c18feda8bea876958b1d85660001b612eab565b6148af614b45565b73ffffffffffffffffffffffffffffffffffffffff168160020160009054906101000a900473ffffffffffffffffffffffffffffffffffffffff1673ffffffffffffffffffffffffffffffffffffffff1614614940576040517f08c379a0000000000000000000000000000000000000000000000000000000008152600401614937906183e5565b60405180910390fd5b61496c7f05ab59cbb6acff6eca3a53b085e0c55fa473dc464703b52fc14e9e0d17e00ebd60001b612eab565b6149987f8318c25ed3384953e5ed9d72d7fe99083044188039c74802b72e27c25305b95c60001b612eab565b6149c47f558a276065caa8afb2799ae59ec588044ff6c6937585a23e3b57f9381dfd2a9b60001b612eab565b6149f98160000160019054906101000a900473ffffffffffffffffffffffffffffffffffffffff168260010154868686615c9f565b50505050565b614a098282616616565b5050565b6000614a35836000018373ffffffffffffffffffffffffffffffffffffffff1660001b6166f6565b905092915050565b6000614a6b7f10a56698b984f276ee238d296fe0ba86da70d668b1cdd5978f148db207adaf7460001b616766565b614a977fa8657bf973d54a6de5109a3f8d7ce0d45b92e6cd69274525e4b3e797c49c3afa60001b616766565b614ac37feedfba353502b0b8edea8843c76bc8e8abd895408ddf9af3a5813ee37325149160001b616766565b819050919050565b60007f5a05180f000000000000000000000000000000000000000000000000000000007bffffffffffffffffffffffffffffffffffffffffffffffffffffffff1916827bffffffffffffffffffffffffffffffffffffffffffffffffffffffff19161480614b3e5750614b3d82616769565b5b9050919050565b600033905090565b6000614b58836167e3565b8015614b6a5750614b698383616830565b5b905092915050565b6060614ba07fc582ca9cd071f3a64528678d6be2184c3242c7a856dcbf00e852ab147cac2bf460001b616766565b614bcc7f494fb9f29a5102a985ebc65ac40dc465a67791ab7897bbe357b37aa07d5979b960001b616766565b614bf87fa2c77b98d2f4dfb49c882310ead0d71dc1cb9cf04768cafcc9310cef317b7f6e60001b616766565b6000614c267f9a1864e21ccda39765b8caa0da6cf4c4c33883b5f504c421714ea4e8db02acc160001b616766565b614c527f3e3f5fab8f9dcf155e8dcf53093742feb7f3bbdbd8b945f2db099a0929479bdf60001b616766565b5b60208160ff16108015614ccb5750600060f81b838260ff1660208110614ca2577f4e487b7100000000000000000000000000000000000000000000000000000000600052603260045260246000fd5b1a60f81b7effffffffffffffffffffffffffffffffffffffffffffffffffffffffffffff191614155b15614d0f57614cfc7fc1aa226c7217d4b3f6964748c61d52de90dde18a52b5e12e1ea151ac75ef046b60001b616766565b8080614d0790618827565b915050614c53565b614d3b7fd263aea8da7307f2d7784c2212a77654de2aacb9fcab1ae34d487e0899f70c6c60001b616766565b614d677f8cb5eab81b2b11d5d00748141f59dc6b83c96042cfe4f62f712b11d26e5f7a5a60001b616766565b60008160ff1667ffffffffffffffff811115614dac577f4e487b7100000000000000000000000000000000000000000000000000000000600052604160045260246000fd5b6040519080825280601f01601f191660200182016040528015614dde5781602001600182028036833780820191505090505b509050614e0d7fe9dee5518826cffb99b90fb2be653997a05ac7dca86f35a291c0431ffd2aadab60001b616766565b614e397fa054d032623aa570d8f7aec8c1e3d96d5ff874d377cba960421519156acb1ec360001b616766565b600091505b60208260ff16108015614eb65750600060f81b848360ff1660208110614e8d577f4e487b7100000000000000000000000000000000000000000000000000000000600052603260045260246000fd5b1a60f81b7effffffffffffffffffffffffffffffffffffffffffffffffffffffffffffff191614155b15614fd157614ee77f058173929fd7181e65457756b57209f856d02236e95b446b183dde1550cfe90860001b616766565b614f137fca79704eec76b765afb4a22264e8a67549caa92d6a93642623c8357ef9eaa1f060001b616766565b838260ff1660208110614f4f577f4e487b7100000000000000000000000000000000000000000000000000000000600052603260045260246000fd5b1a60f81b818360ff1681518110614f8f577f4e487b7100000000000000000000000000000000000000000000000000000000600052603260045260246000fd5b60200101907effffffffffffffffffffffffffffffffffffffffffffffffffffffffffffff1916908160001a9053508180614fc990618827565b925050614e3e565b614ffd7f72e298970517372b35ba4ad9376f026823ed944d41272cd5733b11adb226eb1a60001b616766565b6150297f1afda1f1f423e6c1bf39b93a46e33b7aaa392f4a846670a6e3b790e886df8b4360001b616766565b8092505050919050565b60006150617f70f892e8ade3771e9a27b532408e9174716b0d85d4f50a425c3f4dd46078ccd560001b612eab565b61508d7f9977b1b6655fbc2a1da2390e2d3952a9ea0c814732dee6fcc49388950a48c4f360001b612eab565b6150b97fde8328bf78df589afd73696e4aa58585f1b9986b71ac4e6277c4301dc530df0e60001b612eab565b60006150fc600260009054906101000a900473ffffffffffffffffffffffffffffffffffffffff1673ffffffffffffffffffffffffffffffffffffffff1661695b565b905061512a7fd98070d6445caa650e8ab93fea2ef1d81e6755870218d69a5819dbdbe954455c60001b612eab565b6151567fd2de3d46a143c164625eae3b004fced643f0efc1083e608ead850ecd7398768a60001b612eab565b60006151778273ffffffffffffffffffffffffffffffffffffffff16615bfb565b90506151a57f155d9f4445847e1e0e34b8cadc4856ea8e20da3a2208258f05618b39d017ba8e60001b612eab565b6151d17f282df8bb71f939e813b462cb827263a33b07d7b41d6e546c60b804532aa47b1b60001b612eab565b80600660008c73ffffffffffffffffffffffffffffffffffffffff1673ffffffffffffffffffffffffffffffffffffffff16815260200190815260200160002060008b8152602001908152602001600020819055506152527fdcb7b331ecb34c76e1a6155a117f6360e928c7c2bc3f0461874e0f93c278038b60001b612eab565b61527e7fdcf8ab452f365e3a8a394b2fe96f15a245e3d40feba3cadb939cbd235261e2cf60001b612eab565b6040518060800160405280600160028111156152c3577f4e487b7100000000000000000000000000000000000000000000000000000000600052602160045260246000fd5b81526020018b73ffffffffffffffffffffffffffffffffffffffff1681526020018a81526020018573ffffffffffffffffffffffffffffffffffffffff168152506005600083815260200190815260200160002060008201518160000160006101000a81548160ff02191690836002811115615368577f4e487b7100000000000000000000000000000000000000000000000000000000600052602160045260246000fd5b021790555060208201518160000160016101000a81548173ffffffffffffffffffffffffffffffffffffffff021916908373ffffffffffffffffffffffffffffffffffffffff1602179055506040820151816001015560608201518160020160006101000a81548173ffffffffffffffffffffffffffffffffffffffff021916908373ffffffffffffffffffffffffffffffffffffffff1602179055509050506154347fc1ed087f5ef0e89d5bbcb95497d76adfed8875786b19b3236400b2897e4967e360001b612eab565b6154607f903d479c1e1d1af5282f36f98bf2af0799b42cf35915bb433fd728719dcc53f760001b612eab565b8173ffffffffffffffffffffffffffffffffffffffff1663bd3a13f6898989896040518563ffffffff1660e01b815260040161549f9493929190618112565b600060405180830381600087803b1580156154b957600080fd5b505af11580156154cd573d6000803e3d6000fd5b505050506154fd7f29e350e936be4b9ec92c1f18e288ec58e1f78415ef8e6f334917532d29725cd860001b612eab565b6155297fc536bd1758cbdb40a482094a6d52ca3e5249eec9c7c552d5efea8785c77e3c6660001b612eab565b80898b73ffffffffffffffffffffffffffffffffffffffff167f50265105db29b4406ffa0e8620afa5fbc8a95e196b1c837fe26f0154d185ceff8588604051615573929190617ed8565b60405180910390a46155a77f66980bbefcf189e57c7fbf6162c2c73a0430531e788c67a95f96ce82cecd40ed60001b612eab565b6155d37fa191687b1ce9f941433a86592ff156ab477a93ecf94d73f76feb2f57a2aa8e0660001b612eab565b8092505050979650505050505050565b60006156117fcd25ac8c81671648a5fdcd346dbb44eda82e9356d1f2d0ce5ff7608405891b9360001b612eab565b61563c7e841bc47ac1ddf719c714b40922203c31985d7064e70c30664ba60e4f28bb7660001b612eab565b6156687f8f948b3026b353f50dc1edd2cf4055d00e777c62480c9ed7dd7055de41fdae3760001b612eab565b615670614b45565b73ffffffffffffffffffffffffffffffffffffffff168273ffffffffffffffffffffffffffffffffffffffff1614806156b657506156b5826156b0614b45565b614041565b5b9050919050565b6156e97f7097d0de4ce1c891f997f5bb8f9f2055ac51f4f74af3c2419b1366756bccabaf60001b612eab565b6157157fc5d336233c3201af73ba7f3749cb49970c1ba65d84c839fd591b6cad3afe05be60001b612eab565b6157417f7ac1fa82c2040e05444c56259383484ec9a3a483270f9a80615d67ef10871ada60001b612eab565b6157608473ffffffffffffffffffffffffffffffffffffffff16616a30565b15615b60576157917f2c246cdd5c92cfa73f67e151110eea3876c371c2d0cb2cf6d247b5157b91971760001b612eab565b6157bd7fc6996338d76a3326893cb6cac199284d5b162995c5ad5ae3c1c6f2c73d0ba43960001b612eab565b6157e97f34de2f331122db757db5ec2c31649e6878f2b3e8750772fb3ca5f6567a97abd160001b612eab565b8373ffffffffffffffffffffffffffffffffffffffff1663bc197c8187878686866040518663ffffffff1660e01b815260040161582a959493929190617f01565b602060405180830381600087803b15801561584457600080fd5b505af192505050801561587557506040513d601f19601f820116820180604052508101906158729190617837565b60015b6159cb5761588161890d565b806308c379a014156159365750615896618ff4565b806158a15750615938565b6158cd7f3a38c7905391f175a66a778f82e0ac2982c5468b2172d0ecc06fd1eb300f6dfd60001b612eab565b6158f97f46f6d487f0c41dc61318e8589f52f9ea1a2fd7b8e3f552d719789ce0c52d490c60001b612eab565b806040517f08c379a000000000000000000000000000000000000000000000000000000000815260040161592d91906180f0565b60405180910390fd5b505b6159647f664f6511b886a21e8c31b4f28f67ddf7bed521d816cd3af69c58c720161357a760001b612eab565b6159907f90c5a51064b2f5156e824adfaca691e394fcf16a0e1d7a4fcd1162368c609d8760001b612eab565b6040517f08c379a00000000000000000000000000000000000000000000000000000000081526004016159c290618385565b60405180910390fd5b6159f77fa13ff66e29b8977fc76dbc6ac1198f147861ef9309683eab5a2a1ac55133acf260001b612eab565b615a237f7690842ded489f4cc08c0b20c62930839ce222409f2ed2bd18ff493f0b70dbe360001b612eab565b63bc197c8160e01b7bffffffffffffffffffffffffffffffffffffffffffffffffffffffff1916817bffffffffffffffffffffffffffffffffffffffffffffffffffffffff191614615b2e57615a9b7f9853823497eed1e93cf72aac3d92d28e6bb7d4da2457bdee04ef93f99b17925960001b612eab565b615ac77fe1510e54a6c1b27b74cfeb12ca9e4c4f1ec82585219297e8240cab37f3b375a760001b612eab565b615af37f874ee0a6579685d088665bb2afdbaa596d6b925d5135bb4dd4014e18b9d5039d60001b612eab565b6040517f08c379a0000000000000000000000000000000000000000000000000000000008152600401615b2590618205565b60405180910390fd5b615b5a7fae4d78d680ad18cd8a4f0cec1d7a6c50a3b13a51089c13cc272936750fb34a6f60001b612eab565b50615b8d565b615b8c7f70f2f54633bcdc9f8e43e70abb84c42302071e41ca52ce2b64cf1787f3e8ef8b60001b612eab565b5b505050505050565b615bae615ba1836118d6565b615ba9614b45565b6135b9565b615bed576040517f08c379a0000000000000000000000000000000000000000000000000000000008152600401615be4906181a5565b60405180910390fd5b615bf78282616616565b5050565b6000615c297f80caf1f8ca7d769893b50ebd7c2f9c36f7a8c02a647023402b3429a2f4b2b56260001b616766565b615c557f9097ead07b66c864d85f6942bbea5519f8dccdedc63e28adf2fe5e0b1b9d881060001b616766565b615c817f9fcac88f549b7bb9c1f2f10bd7b56e64795f76317674d6cd0911d453ff9abd0060001b616766565b8173ffffffffffffffffffffffffffffffffffffffff169050919050565b615ccb7ffc7535fd06adb39d65e87ff5d33ceb4c5c8ab80736b1cc56b2100a1751fb608360001b612eab565b615cf77fb513167c8f978908b02b94e6aed78326658b6f64dde26056d43f5103301b634f60001b612eab565b615d237f71ed519f8d1d0b4efe31ab30ed650aca38715aa6bbc379fb1fec0fc11e38986c60001b612eab565b60026005600085815260200190815260200160002060000160006101000a81548160ff02191690836002811115615d83577f4e487b7100000000000000000000000000000000000000000000000000000000600052602160045260246000fd5b0217905550615db47f6a76bdfdf1d215f1db62b39f33616aad1eb2c81af5a4c1f4a3b3c529b68cbdd860001b612eab565b600660008673ffffffffffffffffffffffffffffffffffffffff1673ffffffffffffffffffffffffffffffffffffffff168152602001908152602001600020600085815260200190815260200160002060009055615e347f7046db617c8ab977c7d9d3a7d790cc4eeeb4a7326aefd5714da9f30558ad0a9460001b612eab565b615e607f313436d3293c61b2fca9897e289f7d857a275c76879b86a055b41b5756da8ea460001b612eab565b8473ffffffffffffffffffffffffffffffffffffffff1663b88d4fde308487856040518563ffffffff1660e01b8152600401615e9f9493929190617fa0565b600060405180830381600087803b158015615eb957600080fd5b505af1158015615ecd573d6000803e3d6000fd5b50505050615efd7f3553dfcfbc387d55101fc41ba3100e0f95ea1c922ded6bdc820ea0b4a796f48460001b612eab565b615f297f04396b9827004283cb393b6ffa1378c6124e816b2ba9e12c99c562b3460be4ea60001b612eab565b827f027d6c6704a7913d85498305191e7bb755d64034c42fb5169c726408f65b3ce283604051615f599190617ebd565b60405180910390a25050505050565b615f70614b45565b73ffffffffffffffffffffffffffffffffffffffff168173ffffffffffffffffffffffffffffffffffffffff1614615fdd576040517f08c379a0000000000000000000000000000000000000000000000000000000008152600401615fd490618405565b60405180910390fd5b615fe78282616a43565b5050565b6000616013836000018373ffffffffffffffffffffffffffffffffffffffff1660001b616b24565b905092915050565b600061602a8360000183616cae565b60001c905092915050565b60006160637f41dd9b3dc9d0fe42ca5a383c801fa931ee8634951490f42b177196e4c03f00a760001b616766565b61608f7faea0e8e77651f8dcf0f8196e6df90443165472899a9a666fd30ef460ca5c593e60001b616766565b6160bb7f80149c6e7849c6107099318505b0b784cf39aa85ea2008a356536b73ebe25f8a60001b616766565b819050919050565b60006160d182600001616d48565b9050919050565b6160f16160e4836118d6565b6160ec614b45565b6135b9565b616130576040517f08c379a0000000000000000000000000000000000000000000000000000000008152600401616127906182a5565b60405180910390fd5b61613a8282616a43565b5050565b61616a7f6f89530f97abc9fcfc8069b81da4edcef440de766a3e56a9cbb5041a68cdcae960001b612eab565b6161967f5e4b125f76750c40ef1fba23e72c7482ad1e4e5f4adf943841fb12105dea1e2460001b612eab565b6161c27f6aa89a4f8adc800c1a708c539da9507347f85e1cd0f87abd3debc7584f46a4ce60001b612eab565b6161e18473ffffffffffffffffffffffffffffffffffffffff16616a30565b156165e1576162127fa59b83a3405fdc5e8ef3b748b0ef5988c3f2dc1ed5392b04c82bd60a4377942d60001b612eab565b61623e7f56ff0c2c0a2379721406030423506433e67e80c8a028a0f8a3d4272a9e39fed660001b612eab565b61626a7f697461e37877ad1081044b6cdd05ff3e94a513c3b11193b71843c8d4cd58efb760001b612eab565b8373ffffffffffffffffffffffffffffffffffffffff1663f23a6e6187878686866040518663ffffffff1660e01b81526004016162ab959493929190617fec565b602060405180830381600087803b1580156162c557600080fd5b505af19250505080156162f657506040513d601f19601f820116820180604052508101906162f39190617837565b60015b61644c5761630261890d565b806308c379a014156163b75750616317618ff4565b8061632257506163b9565b61634e7f1da2c401263ed02e2468fabd01f99dd2b21862bb17fe43452ddbcb5bb14a626960001b612eab565b61637a7f34cac2248e89ee4795dcadce1df2beda8a554c03a57fc93117a1dab8c71dd3a860001b612eab565b806040517f08c379a00000000000000000000000000000000000000000000000000000000081526004016163ae91906180f0565b60405180910390fd5b505b6163e57ff4469fcc46c51ac7e6d5e0289ecdb1c27344df4966b85a872b374ee670c42bd760001b612eab565b6164117f36947cc5c0485f50819db5deaa8636caab7afc4fafe6cd4f0a60028c838e6cfe60001b612eab565b6040517f08c379a000000000000000000000000000000000000000000000000000000000815260040161644390618385565b60405180910390fd5b6164787f144c0c501e9be82e4828e4bd5b67c505ba1f67e9836f889a3bad64f8150bf52d60001b612eab565b6164a47f1df9c8aac4e1a9e3569e16b82eb88bf953520edba4eb0e907e8b45a73c5b6fb960001b612eab565b63f23a6e6160e01b7bffffffffffffffffffffffffffffffffffffffffffffffffffffffff1916817bffffffffffffffffffffffffffffffffffffffffffffffffffffffff1916146165af5761651c7fa229a033e993c80de58853bc0d7179f1708a37a771edfb4a8465bf13490371b660001b612eab565b6165487f0aac4d750b4307db996403ec25744374aef24558e32048d3f05b12ba606f7f1660001b612eab565b6165747f6106d073775f3d0d38e71b545ab0ee05476509819dd64e4249b1373e153b863360001b612eab565b6040517f08c379a00000000000000000000000000000000000000000000000000000000081526004016165a690618205565b60405180910390fd5b6165db7f06e36a7fc9c7f5ca7c15732b300953eb3856bfc1d8c6f677b3879ab1c973574860001b612eab565b5061660e565b61660d7f59715050910848426193e6854cc33d513813aa83e6573707f7e8653a9d5f4a2360001b612eab565b5b505050505050565b61662082826135b9565b6166f257600160008084815260200190815260200160002060000160008373ffffffffffffffffffffffffffffffffffffffff1673ffffffffffffffffffffffffffffffffffffffff16815260200190815260200160002060006101000a81548160ff021916908315150217905550616697614b45565b73ffffffffffffffffffffffffffffffffffffffff168173ffffffffffffffffffffffffffffffffffffffff16837f2f8788117e7eff1d82e926ec794901d17c78024a50270940304540a733656f0d60405160405180910390a45b5050565b60006167028383616d59565b61675b578260000182908060018154018082558091505060019003906000526020600020016000909190919091505582600001805490508360010160008481526020019081526020016000208190555060019050616760565b600090505b92915050565b50565b60007f7965db0b000000000000000000000000000000000000000000000000000000007bffffffffffffffffffffffffffffffffffffffffffffffffffffffff1916827bffffffffffffffffffffffffffffffffffffffffffffffffffffffff191614806167dc57506167db82616d7c565b5b9050919050565b600061680f827f01ffc9a700000000000000000000000000000000000000000000000000000000616830565b801561682957506168278263ffffffff60e01b616830565b155b9050919050565b6000806301ffc9a760e01b8360405160240161684c91906180d5565b604051602081830303815290604052907bffffffffffffffffffffffffffffffffffffffffffffffffffffffff19166020820180517bffffffffffffffffffffffffffffffffffffffffffffffffffffffff838183161783525050505090506000808573ffffffffffffffffffffffffffffffffffffffff16617530846040516168d69190617ea6565b6000604051808303818686fa925050503d8060008114616912576040519150601f19603f3d011682016040523d82523d6000602084013e616917565b606091505b50915091506020815110156169325760009350505050616955565b81801561694f57508080602001905181019061694e9190617744565b5b93505050505b92915050565b60006040517f3d602d80600a3d3981f3363d3d373d3d3d363d7300000000000000000000000081528260601b60148201527f5af43d82803e903d91602b57fd5bf3000000000000000000000000000000000060288201526037816000f0915050600073ffffffffffffffffffffffffffffffffffffffff168173ffffffffffffffffffffffffffffffffffffffff161415616a2b576040517f08c379a0000000000000000000000000000000000000000000000000000000008152600401616a22906182e5565b60405180910390fd5b919050565b600080823b905060008111915050919050565b616a4d82826135b9565b15616b2057600080600084815260200190815260200160002060000160008373ffffffffffffffffffffffffffffffffffffffff1673ffffffffffffffffffffffffffffffffffffffff16815260200190815260200160002060006101000a81548160ff021916908315150217905550616ac5614b45565b73ffffffffffffffffffffffffffffffffffffffff168173ffffffffffffffffffffffffffffffffffffffff16837ff6391f5c32d9c69d2a47ea670b442974b53935d1edc7fd64eb21e047a839171b60405160405180910390a45b5050565b60008083600101600084815260200190815260200160002054905060008114616ca2576000600182616b569190618655565b9050600060018660000180549050616b6e9190618655565b90506000866000018281548110616bae577f4e487b7100000000000000000000000000000000000000000000000000000000600052603260045260246000fd5b9060005260206000200154905080876000018481548110616bf8577f4e487b7100000000000000000000000000000000000000000000000000000000600052603260045260246000fd5b9060005260206000200181905550600183616c1391906185ff565b8760010160008381526020019081526020016000208190555086600001805480616c66577f4e487b7100000000000000000000000000000000000000000000000000000000600052603160045260246000fd5b60019003818190600052602060002001600090559055866001016000878152602001908152602001600020600090556001945050505050616ca8565b60009150505b92915050565b600081836000018054905011616cf9576040517f08c379a0000000000000000000000000000000000000000000000000000000008152600401616cf090618165565b60405180910390fd5b826000018281548110616d35577f4e487b7100000000000000000000000000000000000000000000000000000000600052603260045260246000fd5b9060005260206000200154905092915050565b600081600001805490509050919050565b600080836001016000848152602001908152602001600020541415905092915050565b60007f01ffc9a7000000000000000000000000000000000000000000000000000000007bffffffffffffffffffffffffffffffffffffffffffffffffffffffff1916827bffffffffffffffffffffffffffffffffffffffffffffffffffffffff1916149050919050565b604051806080016040528060006002811115616e2b577f4e487b7100000000000000000000000000000000000000000000000000000000600052602160045260246000fd5b8152602001600073ffffffffffffffffffffffffffffffffffffffff16815260200160008152602001600073ffffffffffffffffffffffffffffffffffffffff1681525090565b828054616e7e9061877b565b90600052602060002090601f016020900481019282616ea05760008555616ee7565b82601f10616eb957805160ff1916838001178555616ee7565b82800160010185558215616ee7579182015b82811115616ee6578251825591602001919060010190616ecb565b5b509050616ef49190616ef8565b5090565b5b80821115616f11576000816000905550600101616ef9565b5090565b6000616f28616f23846184c9565b6184a4565b90508083825260208201905082856020860282011115616f4757600080fd5b60005b85811015616f775781616f5d88826170a7565b845260208401935060208301925050600181019050616f4a565b5050509392505050565b6000616f94616f8f846184f5565b6184a4565b90508083825260208201905082856020860282011115616fb357600080fd5b60005b85811015616fe35781616fc98882617256565b845260208401935060208301925050600181019050616fb6565b5050509392505050565b6000617000616ffb84618521565b6184a4565b90508281526020810184848401111561701857600080fd5b617023848285618739565b509392505050565b600061703e61703984618552565b6184a4565b90508281526020810184848401111561705657600080fd5b617061848285618739565b509392505050565b600061707c61707784618552565b6184a4565b90508281526020810184848401111561709457600080fd5b61709f848285618748565b509392505050565b6000813590506170b68161909e565b92915050565b6000815190506170cb8161909e565b92915050565b600082601f8301126170e257600080fd5b81356170f2848260208601616f15565b91505092915050565b600082601f83011261710c57600080fd5b813561711c848260208601616f81565b91505092915050565b600081359050617134816190b5565b92915050565b600081519050617149816190b5565b92915050565b60008135905061715e816190cc565b92915050565b600081359050617173816190e3565b92915050565b600081519050617188816190e3565b92915050565b60008083601f8401126171a057600080fd5b8235905067ffffffffffffffff8111156171b957600080fd5b6020830191508360018202830111156171d157600080fd5b9250929050565b600082601f8301126171e957600080fd5b81356171f9848260208601616fed565b91505092915050565b600082601f83011261721357600080fd5b813561722384826020860161702b565b91505092915050565b600082601f83011261723d57600080fd5b815161724d848260208601617069565b91505092915050565b600081359050617265816190fa565b92915050565b60008151905061727a816190fa565b92915050565b60006020828403121561729257600080fd5b60006172a0848285016170a7565b91505092915050565b6000602082840312156172bb57600080fd5b60006172c9848285016170bc565b91505092915050565b600080604083850312156172e557600080fd5b60006172f3858286016170a7565b9250506020617304858286016170a7565b9150509250929050565b600080600080600060a0868803121561732657600080fd5b6000617334888289016170a7565b9550506020617345888289016170a7565b945050604086013567ffffffffffffffff81111561736257600080fd5b61736e888289016170fb565b935050606086013567ffffffffffffffff81111561738b57600080fd5b617397888289016170fb565b925050608086013567ffffffffffffffff8111156173b457600080fd5b6173c0888289016171d8565b9150509295509295909350565b6000806000606084860312156173e257600080fd5b60006173f0868287016170a7565b9350506020617401868287016170a7565b925050604084013567ffffffffffffffff81111561741e57600080fd5b61742a868287016171d8565b9150509250925092565b60008060006060848603121561744957600080fd5b6000617457868287016170a7565b9350506020617468868287016170a7565b925050604061747986828701617256565b9150509250925092565b60008060008060006080868803121561749b57600080fd5b60006174a9888289016170a7565b95505060206174ba888289016170a7565b94505060406174cb88828901617256565b935050606086013567ffffffffffffffff8111156174e857600080fd5b6174f48882890161718e565b92509250509295509295909350565b600080600080600060a0868803121561751b57600080fd5b6000617529888289016170a7565b955050602061753a888289016170a7565b945050604061754b88828901617256565b935050606061755c88828901617256565b925050608086013567ffffffffffffffff81111561757957600080fd5b617585888289016171d8565b9150509295509295909350565b600080604083850312156175a557600080fd5b60006175b3858286016170a7565b92505060206175c485828601617125565b9150509250929050565b600080604083850312156175e157600080fd5b60006175ef858286016170a7565b925050602061760085828601617256565b9150509250929050565b600080600080600080600060e0888a03121561762557600080fd5b60006176338a828b016170a7565b97505060206176448a828b01617256565b965050604088013567ffffffffffffffff81111561766157600080fd5b61766d8a828b01617202565b955050606088013567ffffffffffffffff81111561768a57600080fd5b6176968a828b01617202565b94505060806176a78a828b01617256565b93505060a06176b88a828b016170a7565b92505060c06176c98a828b016170a7565b91505092959891949750929550565b600080604083850312156176eb57600080fd5b600083013567ffffffffffffffff81111561770557600080fd5b617711858286016170d1565b925050602083013567ffffffffffffffff81111561772e57600080fd5b61773a858286016170fb565b9150509250929050565b60006020828403121561775657600080fd5b60006177648482850161713a565b91505092915050565b60006020828403121561777f57600080fd5b600061778d8482850161714f565b91505092915050565b600080604083850312156177a957600080fd5b60006177b78582860161714f565b92505060206177c8858286016170a7565b9150509250929050565b600080604083850312156177e557600080fd5b60006177f38582860161714f565b925050602061780485828601617256565b9150509250929050565b60006020828403121561782057600080fd5b600061782e84828501617164565b91505092915050565b60006020828403121561784957600080fd5b600061785784828501617179565b91505092915050565b60006020828403121561787257600080fd5b600082013567ffffffffffffffff81111561788c57600080fd5b61789884828501617202565b91505092915050565b6000602082840312156178b357600080fd5b600082015167ffffffffffffffff8111156178cd57600080fd5b6178d98482850161722c565b91505092915050565b6000602082840312156178f457600080fd5b600061790284828501617256565b91505092915050565b60006020828403121561791d57600080fd5b600061792b8482850161726b565b91505092915050565b60008060006060848603121561794957600080fd5b600061795786828701617256565b9350506020617968868287016170a7565b925050604084013567ffffffffffffffff81111561798557600080fd5b617991868287016171d8565b9150509250925092565b60006179a78383617e88565b60208301905092915050565b6179bc81618689565b82525050565b6179cb81618689565b82525050565b60006179dc82618593565b6179e681856185c1565b93506179f183618583565b8060005b83811015617a22578151617a09888261799b565b9750617a14836185b4565b9250506001810190506179f5565b5085935050505092915050565b617a388161869b565b82525050565b617a47816186a7565b82525050565b617a56816186b1565b82525050565b6000617a678261859e565b617a7181856185d2565b9350617a81818560208601618748565b617a8a8161892f565b840191505092915050565b6000617aa08261859e565b617aaa81856185e3565b9350617aba818560208601618748565b80840191505092915050565b617acf81618727565b82525050565b6000617ae0826185a9565b617aea81856185ee565b9350617afa818560208601618748565b617b038161892f565b840191505092915050565b6000617b1b6022836185ee565b9150617b268261894d565b604082019050919050565b6000617b3e6026836185ee565b9150617b498261899c565b604082019050919050565b6000617b61602f836185ee565b9150617b6c826189eb565b604082019050919050565b6000617b84602d836185ee565b9150617b8f82618a3a565b604082019050919050565b6000617ba76025836185ee565b9150617bb282618a89565b604082019050919050565b6000617bca6029836185ee565b9150617bd582618ad8565b604082019050919050565b6000617bed6029836185ee565b9150617bf882618b27565b604082019050919050565b6000617c106026836185ee565b9150617c1b82618b76565b604082019050919050565b6000617c33601f836185ee565b9150617c3e82618bc5565b602082019050919050565b6000617c56602d836185ee565b9150617c6182618bee565b604082019050919050565b6000617c796030836185ee565b9150617c8482618c3d565b604082019050919050565b6000617c9c601b836185ee565b9150617ca782618c8c565b602082019050919050565b6000617cbf6016836185ee565b9150617cca82618cb5565b602082019050919050565b6000617ce2602c836185ee565b9150617ced82618cde565b604082019050919050565b6000617d05602f836185ee565b9150617d1082618d2d565b604082019050919050565b6000617d286035836185ee565b9150617d3382618d7c565b604082019050919050565b6000617d4b602a836185ee565b9150617d5682618dcb565b604082019050919050565b6000617d6e6035836185ee565b9150617d7982618e1a565b604082019050919050565b6000617d91602a836185ee565b9150617d9c82618e69565b604082019050919050565b6000617db4602a836185ee565b9150617dbf82618eb8565b604082019050919050565b6000617dd76024836185ee565b9150617de282618f07565b604082019050919050565b6000617dfa602f836185ee565b9150617e0582618f56565b604082019050919050565b6000617e1d6021836185ee565b9150617e2882618fa5565b604082019050919050565b608082016000820151617e496000850182617ac6565b506020820151617e5c60208501826179b3565b506040820151617e6f6040850182617e88565b506060820151617e8260608501826179b3565b50505050565b617e9181618710565b82525050565b617ea081618710565b82525050565b6000617eb28284617a95565b915081905092915050565b6000602082019050617ed260008301846179c2565b92915050565b6000604082019050617eed60008301856179c2565b617efa60208301846179c2565b9392505050565b600060a082019050617f1660008301886179c2565b617f2360208301876179c2565b8181036040830152617f3581866179d1565b90508181036060830152617f4981856179d1565b90508181036080830152617f5d8184617a5c565b90509695505050505050565b6000606082019050617f7e60008301866179c2565b617f8b60208301856179c2565b617f986040830184617e97565b949350505050565b6000608082019050617fb560008301876179c2565b617fc260208301866179c2565b617fcf6040830185617e97565b8181036060830152617fe18184617a5c565b905095945050505050565b600060a08201905061800160008301886179c2565b61800e60208301876179c2565b61801b6040830186617e97565b6180286060830185617e97565b818103608083015261803a8184617a5c565b90509695505050505050565b6000602082019050818103600083015261806081846179d1565b905092915050565b6000604082019050818103600083015261808281856179d1565b9050818103602083015261809681846179d1565b90509392505050565b60006020820190506180b46000830184617a2f565b92915050565b60006020820190506180cf6000830184617a3e565b92915050565b60006020820190506180ea6000830184617a4d565b92915050565b6000602082019050818103600083015261810a8184617ad5565b905092915050565b6000608082019050818103600083015261812c8187617ad5565b905081810360208301526181408186617ad5565b905061814f6040830185617e97565b61815c60608301846179c2565b95945050505050565b6000602082019050818103600083015261817e81617b0e565b9050919050565b6000602082019050818103600083015261819e81617b31565b9050919050565b600060208201905081810360008301526181be81617b54565b9050919050565b600060208201905081810360008301526181de81617b77565b9050919050565b600060208201905081810360008301526181fe81617b9a565b9050919050565b6000602082019050818103600083015261821e81617bbd565b9050919050565b6000602082019050818103600083015261823e81617be0565b9050919050565b6000602082019050818103600083015261825e81617c03565b9050919050565b6000602082019050818103600083015261827e81617c26565b9050919050565b6000602082019050818103600083015261829e81617c49565b9050919050565b600060208201905081810360008301526182be81617c6c565b9050919050565b600060208201905081810360008301526182de81617c8f565b9050919050565b600060208201905081810360008301526182fe81617cb2565b9050919050565b6000602082019050818103600083015261831e81617cd5565b9050919050565b6000602082019050818103600083015261833e81617cf8565b9050919050565b6000602082019050818103600083015261835e81617d1b565b9050919050565b6000602082019050818103600083015261837e81617d3e565b9050919050565b6000602082019050818103600083015261839e81617d61565b9050919050565b600060208201905081810360008301526183be81617d84565b9050919050565b600060208201905081810360008301526183de81617da7565b9050919050565b600060208201905081810360008301526183fe81617dca565b9050919050565b6000602082019050818103600083015261841e81617ded565b9050919050565b6000602082019050818103600083015261843e81617e10565b9050919050565b600060808201905061845a6000830184617e33565b92915050565b60006020820190506184756000830184617e97565b92915050565b60006040820190506184906000830185617e97565b61849d6020830184617e97565b9392505050565b60006184ae6184bf565b90506184ba82826187ad565b919050565b6000604051905090565b600067ffffffffffffffff8211156184e4576184e36188de565b5b602082029050602081019050919050565b600067ffffffffffffffff8211156185105761850f6188de565b5b602082029050602081019050919050565b600067ffffffffffffffff82111561853c5761853b6188de565b5b6185458261892f565b9050602081019050919050565b600067ffffffffffffffff82111561856d5761856c6188de565b5b6185768261892f565b9050602081019050919050565b6000819050602082019050919050565b600081519050919050565b600081519050919050565b600081519050919050565b6000602082019050919050565b600082825260208201905092915050565b600082825260208201905092915050565b600081905092915050565b600082825260208201905092915050565b600061860a82618710565b915061861583618710565b9250827fffffffffffffffffffffffffffffffffffffffffffffffffffffffffffffffff0382111561864a57618649618851565b5b828201905092915050565b600061866082618710565b915061866b83618710565b92508282101561867e5761867d618851565b5b828203905092915050565b6000618694826186f0565b9050919050565b60008115159050919050565b6000819050919050565b60007fffffffff0000000000000000000000000000000000000000000000000000000082169050919050565b60008190506186eb8261908a565b919050565b600073ffffffffffffffffffffffffffffffffffffffff82169050919050565b6000819050919050565b600060ff82169050919050565b6000618732826186dd565b9050919050565b82818337600083830152505050565b60005b8381101561876657808201518184015260208101905061874b565b83811115618775576000848401525b50505050565b6000600282049050600182168061879357607f821691505b602082108114156187a7576187a66188af565b5b50919050565b6187b68261892f565b810181811067ffffffffffffffff821117156187d5576187d46188de565b5b80604052505050565b60006187e982618710565b91507fffffffffffffffffffffffffffffffffffffffffffffffffffffffffffffffff82141561881c5761881b618851565b5b600182019050919050565b60006188328261871a565b915060ff82141561884657618845618851565b5b600182019050919050565b7f4e487b7100000000000000000000000000000000000000000000000000000000600052601160045260246000fd5b7f4e487b7100000000000000000000000000000000000000000000000000000000600052602160045260246000fd5b7f4e487b7100000000000000000000000000000000000000000000000000000000600052602260045260246000fd5b7f4e487b7100000000000000000000000000000000000000000000000000000000600052604160045260246000fd5b600060033d111561892c5760046000803e618929600051618940565b90505b90565b6000601f19601f8301169050919050565b60008160e01c9050919050565b7f456e756d657261626c655365743a20696e646578206f7574206f6620626f756e60008201527f6473000000000000000000000000000000000000000000000000000000000000602082015250565b7f73455243313135353a20696e76616c696420737065637472616c697a6174696f60008201527f6e20646174610000000000000000000000000000000000000000000000000000602082015250565b7f416363657373436f6e74726f6c3a2073656e646572206d75737420626520616e60008201527f2061646d696e20746f206772616e740000000000000000000000000000000000602082015250565b7f73455243313135353a206d7573742062652073455243323020746f207573652060008201527f7472616e7366657220686f6f6b00000000000000000000000000000000000000602082015250565b7f73455243313135353a204e4654206973206e6f74204552433732312d636f6d7060008201527f6c69616e74000000000000000000000000000000000000000000000000000000602082015250565b7f73455243313135353a204552433131353552656365697665722072656a65637460008201527f656420746f6b656e730000000000000000000000000000000000000000000000602082015250565b7f73455243313135353a2069647320616e6420616d6f756e7473206c656e67746860008201527f206d69736d617463680000000000000000000000000000000000000000000000602082015250565b7f73455243313135353a207472616e7366657220746f20746865207a65726f206160008201527f6464726573730000000000000000000000000000000000000000000000000000602082015250565b7f73455243313135353a204e465420697320616c7265616479206c6f636b656400600082015250565b7f73455243313135353a20696e76616c696420737065637472616c697a6174696f60008201527f6e2064617461206c656e67746800000000000000000000000000000000000000602082015250565b7f416363657373436f6e74726f6c3a2073656e646572206d75737420626520616e60008201527f2061646d696e20746f207265766f6b6500000000000000000000000000000000602082015250565b7f73455243313135353a204e4654206973206e6f74206c6f636b65640000000000600082015250565b7f455243313136373a20637265617465206661696c656400000000000000000000600082015250565b7f73455243313135353a2062616c616e636520717565727920666f72207468652060008201527f7a65726f20616464726573730000000000000000000000000000000000000000602082015250565b7f73455243313135353a206d757374206265206f776e6572206f7220617070726f60008201527f76656420746f207472616e736665720000000000000000000000000000000000602082015250565b7f73455243313135353a206d75737420686176652061646d696e20726f6c65207460008201527f6f2075706461746520756e777261707065645552490000000000000000000000602082015250565b7f73455243313135353a204e465420697320616c7265616479206f776e6564206260008201527f7920734552433131353500000000000000000000000000000000000000000000602082015250565b7f73455243313135353a207472616e7366657220746f206e6f6e2045524331313560008201527f35526563656976657220696d706c656d656e7465720000000000000000000000602082015250565b7f73455243313135353a206163636f756e747320616e6420696473206c656e677460008201527f68206d69736d6174636800000000000000000000000000000000000000000000602082015250565b7f73455243313135353a2073657474696e6720617070726f76616c20737461747560008201527f7320666f722073656c6600000000000000000000000000000000000000000000602082015250565b7f73455243313135353a206d75737420626520677561726469616e20746f20756e60008201527f6c6f636b00000000000000000000000000000000000000000000000000000000602082015250565b7f416363657373436f6e74726f6c3a2063616e206f6e6c792072656e6f756e636560008201527f20726f6c657320666f722073656c660000000000000000000000000000000000602082015250565b7f73455243313135353a207370656374726520646f6573206e6f74206c6f636b6560008201527f6400000000000000000000000000000000000000000000000000000000000000602082015250565b600060443d101561900457619087565b61900c6184bf565b60043d036004823e80513d602482011167ffffffffffffffff82111715619034575050619087565b808201805167ffffffffffffffff8111156190525750505050619087565b80602083010160043d03850181111561906f575050505050619087565b61907e826020018501866187ad565b82955050505050505b90565b6003811061909b5761909a618880565b5b50565b6190a781618689565b81146190b257600080fd5b50565b6190be8161869b565b81146190c957600080fd5b50565b6190d5816186a7565b81146190e057600080fd5b50565b6190ec816186b1565b81146190f757600080fd5b50565b61910381618710565b811461910e57600080fd5b5056fea264697066735822122028f78b4ca1ddb92f3c978db5c9849bdbface86bf9ea9f276b1037a6245970d7464736f6c63430008010033",
  "linkReferences": {},
  "deployedLinkReferences": {}
}