{
  "address": "0xE0063a885bC7eb184c66933865db0C0e5369faE2",
  "abi": [
    {
      "inputs": [
        {
          "internalType": "contract IVault",
          "name": "vault_",
          "type": "address"
        },
        {
          "internalType": "contract IIssuer",
          "name": "issuer_",
          "type": "address"
        },
        {
          "internalType": "address",
          "name": "bank_",
          "type": "address"
        },
        {
          "internalType": "uint256",
          "name": "protocolFee_",
          "type": "uint256"
        }
      ],
      "stateMutability": "nonpayable",
      "type": "constructor"
    },
    {
      "anonymous": false,
      "inputs": [
        {
          "indexed": true,
          "internalType": "contract sIERC20",
          "name": "sERC20",
          "type": "address"
        },
        {
          "indexed": true,
          "internalType": "uint256",
          "name": "proposalId",
          "type": "uint256"
        }
      ],
      "name": "AcceptProposal",
      "type": "event"
    },
    {
      "anonymous": false,
      "inputs": [
        {
          "indexed": true,
          "internalType": "contract sIERC20",
          "name": "sERC20",
          "type": "address"
        },
        {
          "indexed": true,
          "internalType": "address",
          "name": "buyer",
          "type": "address"
        },
        {
          "indexed": false,
          "internalType": "uint256",
          "name": "value",
          "type": "uint256"
        },
        {
          "indexed": false,
          "internalType": "uint256",
          "name": "collateral",
          "type": "uint256"
        },
        {
          "indexed": false,
          "internalType": "uint256",
          "name": "fee",
          "type": "uint256"
        }
      ],
      "name": "Buyout",
      "type": "event"
    },
    {
      "anonymous": false,
      "inputs": [
        {
          "indexed": true,
          "internalType": "contract sIERC20",
          "name": "sERC20",
          "type": "address"
        },
        {
          "indexed": true,
          "internalType": "address",
          "name": "holder",
          "type": "address"
        },
        {
          "indexed": false,
          "internalType": "uint256",
          "name": "value",
          "type": "uint256"
        },
        {
          "indexed": false,
          "internalType": "uint256",
          "name": "collateral",
          "type": "uint256"
        }
      ],
      "name": "Claim",
      "type": "event"
    },
    {
      "anonymous": false,
      "inputs": [
        {
          "indexed": true,
          "internalType": "contract sIERC20",
          "name": "sERC20",
          "type": "address"
        },
        {
          "indexed": true,
          "internalType": "uint256",
          "name": "proposalId",
          "type": "uint256"
        },
        {
          "indexed": true,
          "internalType": "address",
          "name": "buyer",
          "type": "address"
        },
        {
          "indexed": false,
          "internalType": "uint256",
          "name": "value",
          "type": "uint256"
        },
        {
          "indexed": false,
          "internalType": "uint256",
          "name": "collateral",
          "type": "uint256"
        },
        {
          "indexed": false,
          "internalType": "uint256",
          "name": "expiration",
          "type": "uint256"
        }
      ],
      "name": "CreateProposal",
      "type": "event"
    },
    {
      "anonymous": false,
      "inputs": [
        {
          "indexed": true,
          "internalType": "contract sIERC20",
          "name": "sERC20",
          "type": "address"
        }
      ],
      "name": "DisableEscape",
      "type": "event"
    },
    {
      "anonymous": false,
      "inputs": [
        {
          "indexed": true,
          "internalType": "contract sIERC20",
          "name": "sERC20",
          "type": "address"
        }
      ],
      "name": "EnableEscape",
      "type": "event"
    },
    {
      "anonymous": false,
      "inputs": [
        {
          "indexed": true,
          "internalType": "contract sIERC20",
          "name": "sERC20",
          "type": "address"
        }
      ],
      "name": "EnableFlashBuyout",
      "type": "event"
    },
    {
      "anonymous": false,
      "inputs": [
        {
          "indexed": true,
          "internalType": "contract sIERC20",
          "name": "sERC20",
          "type": "address"
        },
        {
          "indexed": true,
          "internalType": "address",
          "name": "beneficiary",
          "type": "address"
        },
        {
          "indexed": false,
          "internalType": "bytes",
          "name": "data",
          "type": "bytes"
        }
      ],
      "name": "Escape",
      "type": "event"
    },
    {
      "anonymous": false,
      "inputs": [
        {
          "indexed": true,
          "internalType": "contract sIERC20",
          "name": "sERC20",
          "type": "address"
        },
        {
          "indexed": true,
          "internalType": "address",
          "name": "guardian",
          "type": "address"
        },
        {
          "indexed": false,
          "internalType": "uint256",
          "name": "reserve",
          "type": "uint256"
        },
        {
          "indexed": false,
          "internalType": "uint256",
          "name": "multiplier",
          "type": "uint256"
        },
        {
          "indexed": false,
          "internalType": "uint256",
          "name": "opening",
          "type": "uint256"
        }
      ],
      "name": "Register",
      "type": "event"
    },
    {
      "anonymous": false,
      "inputs": [
        {
          "indexed": true,
          "internalType": "contract sIERC20",
          "name": "sERC20",
          "type": "address"
        },
        {
          "indexed": true,
          "internalType": "uint256",
          "name": "proposalId",
          "type": "uint256"
        }
      ],
      "name": "RejectProposal",
      "type": "event"
    },
    {
      "anonymous": false,
      "inputs": [
        {
          "indexed": true,
          "internalType": "bytes32",
          "name": "role",
          "type": "bytes32"
        },
        {
          "indexed": true,
          "internalType": "bytes32",
          "name": "previousAdminRole",
          "type": "bytes32"
        },
        {
          "indexed": true,
          "internalType": "bytes32",
          "name": "newAdminRole",
          "type": "bytes32"
        }
      ],
      "name": "RoleAdminChanged",
      "type": "event"
    },
    {
      "anonymous": false,
      "inputs": [
        {
          "indexed": true,
          "internalType": "bytes32",
          "name": "role",
          "type": "bytes32"
        },
        {
          "indexed": true,
          "internalType": "address",
          "name": "account",
          "type": "address"
        },
        {
          "indexed": true,
          "internalType": "address",
          "name": "sender",
          "type": "address"
        }
      ],
      "name": "RoleGranted",
      "type": "event"
    },
    {
      "anonymous": false,
      "inputs": [
        {
          "indexed": true,
          "internalType": "bytes32",
          "name": "role",
          "type": "bytes32"
        },
        {
          "indexed": true,
          "internalType": "address",
          "name": "account",
          "type": "address"
        },
        {
          "indexed": true,
          "internalType": "address",
          "name": "sender",
          "type": "address"
        }
      ],
      "name": "RoleRevoked",
      "type": "event"
    },
    {
      "anonymous": false,
      "inputs": [
        {
          "indexed": false,
          "internalType": "address",
          "name": "bank",
          "type": "address"
        }
      ],
      "name": "SetBank",
      "type": "event"
    },
    {
      "anonymous": false,
      "inputs": [
        {
          "indexed": false,
          "internalType": "uint256",
          "name": "protocolFee",
          "type": "uint256"
        }
      ],
      "name": "SetProtocolFee",
      "type": "event"
    },
    {
      "anonymous": false,
      "inputs": [
        {
          "indexed": true,
          "internalType": "contract sIERC20",
          "name": "sERC20",
          "type": "address"
        },
        {
          "indexed": true,
          "internalType": "uint256",
          "name": "proposalId",
          "type": "uint256"
        }
      ],
      "name": "WithdrawProposal",
      "type": "event"
    },
    {
      "inputs": [],
      "name": "DECIMALS",
      "outputs": [
        {
          "internalType": "uint256",
          "name": "",
          "type": "uint256"
        }
      ],
      "stateMutability": "view",
      "type": "function"
    },
    {
      "inputs": [],
      "name": "DEFAULT_ADMIN_ROLE",
      "outputs": [
        {
          "internalType": "bytes32",
          "name": "",
          "type": "bytes32"
        }
      ],
      "stateMutability": "view",
      "type": "function"
    },
    {
      "inputs": [],
      "name": "ESCAPE_ROLE",
      "outputs": [
        {
          "internalType": "bytes32",
          "name": "",
          "type": "bytes32"
        }
      ],
      "stateMutability": "view",
      "type": "function"
    },
    {
      "inputs": [],
      "name": "HUNDRED",
      "outputs": [
        {
          "internalType": "uint256",
          "name": "",
          "type": "uint256"
        }
      ],
      "stateMutability": "view",
      "type": "function"
    },
    {
      "inputs": [],
      "name": "MINIMUM_TIMELOCK",
      "outputs": [
        {
          "internalType": "uint256",
          "name": "",
          "type": "uint256"
        }
      ],
      "stateMutability": "view",
      "type": "function"
    },
    {
      "inputs": [],
      "name": "REGISTER_ROLE",
      "outputs": [
        {
          "internalType": "bytes32",
          "name": "",
          "type": "bytes32"
        }
      ],
      "stateMutability": "view",
      "type": "function"
    },
    {
      "inputs": [
        {
          "internalType": "contract sIERC20[]",
          "name": "sERC20s",
          "type": "address[]"
        },
        {
          "internalType": "address[]",
          "name": "beneficiaries",
          "type": "address[]"
        },
        {
          "internalType": "bytes[]",
          "name": "datas",
          "type": "bytes[]"
        }
      ],
      "name": "_escape_",
      "outputs": [],
      "stateMutability": "nonpayable",
      "type": "function"
    },
    {
      "inputs": [
        {
          "internalType": "contract sIERC20",
          "name": "sERC20",
          "type": "address"
        },
        {
          "internalType": "uint256",
          "name": "proposalId",
          "type": "uint256"
        }
      ],
      "name": "acceptProposal",
      "outputs": [],
      "stateMutability": "nonpayable",
      "type": "function"
    },
    {
      "inputs": [],
      "name": "bank",
      "outputs": [
        {
          "internalType": "address",
          "name": "",
          "type": "address"
        }
      ],
      "stateMutability": "view",
      "type": "function"
    },
    {
      "inputs": [
        {
          "internalType": "contract sIERC20",
          "name": "sERC20",
          "type": "address"
        }
      ],
      "name": "buyout",
      "outputs": [],
      "stateMutability": "payable",
      "type": "function"
    },
    {
      "inputs": [
        {
          "internalType": "contract sIERC20",
          "name": "sERC20",
          "type": "address"
        }
      ],
      "name": "claim",
      "outputs": [],
      "stateMutability": "nonpayable",
      "type": "function"
    },
    {
      "inputs": [
        {
          "internalType": "contract sIERC20",
          "name": "sERC20",
          "type": "address"
        },
        {
          "internalType": "uint256",
          "name": "lifespan",
          "type": "uint256"
        }
      ],
      "name": "createProposal",
      "outputs": [
        {
          "internalType": "uint256",
          "name": "",
          "type": "uint256"
        }
      ],
      "stateMutability": "payable",
      "type": "function"
    },
    {
      "inputs": [
        {
          "internalType": "contract sIERC20",
          "name": "sERC20",
          "type": "address"
        }
      ],
      "name": "disableEscape",
      "outputs": [],
      "stateMutability": "nonpayable",
      "type": "function"
    },
    {
      "inputs": [
        {
          "internalType": "contract sIERC20",
          "name": "sERC20",
          "type": "address"
        }
      ],
      "name": "enableEscape",
      "outputs": [],
      "stateMutability": "nonpayable",
      "type": "function"
    },
    {
      "inputs": [
        {
          "internalType": "contract sIERC20",
          "name": "sERC20",
          "type": "address"
        }
      ],
      "name": "enableFlashBuyout",
      "outputs": [],
      "stateMutability": "nonpayable",
      "type": "function"
    },
    {
      "inputs": [
        {
          "internalType": "bytes32",
          "name": "role",
          "type": "bytes32"
        }
      ],
      "name": "getRoleAdmin",
      "outputs": [
        {
          "internalType": "bytes32",
          "name": "",
          "type": "bytes32"
        }
      ],
      "stateMutability": "view",
      "type": "function"
    },
    {
      "inputs": [
        {
          "internalType": "bytes32",
          "name": "role",
          "type": "bytes32"
        },
        {
          "internalType": "uint256",
          "name": "index",
          "type": "uint256"
        }
      ],
      "name": "getRoleMember",
      "outputs": [
        {
          "internalType": "address",
          "name": "",
          "type": "address"
        }
      ],
      "stateMutability": "view",
      "type": "function"
    },
    {
      "inputs": [
        {
          "internalType": "bytes32",
          "name": "role",
          "type": "bytes32"
        }
      ],
      "name": "getRoleMemberCount",
      "outputs": [
        {
          "internalType": "uint256",
          "name": "",
          "type": "uint256"
        }
      ],
      "stateMutability": "view",
      "type": "function"
    },
    {
      "inputs": [
        {
          "internalType": "bytes32",
          "name": "role",
          "type": "bytes32"
        },
        {
          "internalType": "address",
          "name": "account",
          "type": "address"
        }
      ],
      "name": "grantRole",
      "outputs": [],
      "stateMutability": "nonpayable",
      "type": "function"
    },
    {
      "inputs": [
        {
          "internalType": "bytes32",
          "name": "role",
          "type": "bytes32"
        },
        {
          "internalType": "address",
          "name": "account",
          "type": "address"
        }
      ],
      "name": "hasRole",
      "outputs": [
        {
          "internalType": "bool",
          "name": "",
          "type": "bool"
        }
      ],
      "stateMutability": "view",
      "type": "function"
    },
    {
      "inputs": [],
      "name": "issuer",
      "outputs": [
        {
          "internalType": "contract IIssuer",
          "name": "",
          "type": "address"
        }
      ],
      "stateMutability": "view",
      "type": "function"
    },
    {
      "inputs": [
        {
          "internalType": "contract sIERC20",
          "name": "sERC20",
          "type": "address"
        },
        {
          "internalType": "address",
          "name": "buyer",
          "type": "address"
        }
      ],
      "name": "priceOfFor",
      "outputs": [
        {
          "internalType": "uint256",
          "name": "value",
          "type": "uint256"
        },
        {
          "internalType": "uint256",
          "name": "collateral",
          "type": "uint256"
        }
      ],
      "stateMutability": "view",
      "type": "function"
    },
    {
      "inputs": [
        {
          "internalType": "contract sIERC20",
          "name": "sERC20",
          "type": "address"
        },
        {
          "internalType": "uint256",
          "name": "proposalId",
          "type": "uint256"
        }
      ],
      "name": "proposalFor",
      "outputs": [
        {
          "internalType": "enum Proposals.State",
          "name": "state",
          "type": "uint8"
        },
        {
          "internalType": "address",
          "name": "buyer",
          "type": "address"
        },
        {
          "internalType": "uint256",
          "name": "value",
          "type": "uint256"
        },
        {
          "internalType": "uint256",
          "name": "collateral",
          "type": "uint256"
        },
        {
          "internalType": "uint256",
          "name": "expiration",
          "type": "uint256"
        }
      ],
      "stateMutability": "view",
      "type": "function"
    },
    {
      "inputs": [],
      "name": "protocolFee",
      "outputs": [
        {
          "internalType": "uint256",
          "name": "",
          "type": "uint256"
        }
      ],
      "stateMutability": "view",
      "type": "function"
    },
    {
      "inputs": [
        {
          "internalType": "contract sIERC20",
          "name": "sERC20",
          "type": "address"
        },
        {
          "internalType": "address",
          "name": "guardian",
          "type": "address"
        },
        {
          "internalType": "uint256",
          "name": "reserve",
          "type": "uint256"
        },
        {
          "internalType": "uint256",
          "name": "multiplier",
          "type": "uint256"
        },
        {
          "internalType": "uint256",
          "name": "timelock",
          "type": "uint256"
        },
        {
          "internalType": "bool",
          "name": "flash",
          "type": "bool"
        },
        {
          "internalType": "bool",
          "name": "escape",
          "type": "bool"
        }
      ],
      "name": "register",
      "outputs": [],
      "stateMutability": "nonpayable",
      "type": "function"
    },
    {
      "inputs": [
        {
          "internalType": "contract sIERC20",
          "name": "sERC20",
          "type": "address"
        },
        {
          "internalType": "uint256",
          "name": "proposalId",
          "type": "uint256"
        }
      ],
      "name": "rejectProposal",
      "outputs": [],
      "stateMutability": "nonpayable",
      "type": "function"
    },
    {
      "inputs": [
        {
          "internalType": "bytes32",
          "name": "role",
          "type": "bytes32"
        },
        {
          "internalType": "address",
          "name": "account",
          "type": "address"
        }
      ],
      "name": "renounceRole",
      "outputs": [],
      "stateMutability": "nonpayable",
      "type": "function"
    },
    {
      "inputs": [
        {
          "internalType": "bytes32",
          "name": "role",
          "type": "bytes32"
        },
        {
          "internalType": "address",
          "name": "account",
          "type": "address"
        }
      ],
      "name": "revokeRole",
      "outputs": [],
      "stateMutability": "nonpayable",
      "type": "function"
    },
    {
      "inputs": [
        {
          "internalType": "contract sIERC20",
          "name": "sERC20",
          "type": "address"
        }
      ],
      "name": "saleOf",
      "outputs": [
        {
          "internalType": "enum Sales.State",
          "name": "state",
          "type": "uint8"
        },
        {
          "internalType": "address",
          "name": "guardian",
          "type": "address"
        },
        {
          "internalType": "uint256",
          "name": "reserve",
          "type": "uint256"
        },
        {
          "internalType": "uint256",
          "name": "multiplier",
          "type": "uint256"
        },
        {
          "internalType": "uint256",
          "name": "opening",
          "type": "uint256"
        },
        {
          "internalType": "uint256",
          "name": "stock",
          "type": "uint256"
        },
        {
          "internalType": "uint256",
          "name": "nbOfProposals",
          "type": "uint256"
        },
        {
          "internalType": "bool",
          "name": "flash",
          "type": "bool"
        },
        {
          "internalType": "bool",
          "name": "escape",
          "type": "bool"
        }
      ],
      "stateMutability": "view",
      "type": "function"
    },
    {
      "inputs": [
        {
          "internalType": "address",
          "name": "bank_",
          "type": "address"
        }
      ],
      "name": "setBank",
      "outputs": [],
      "stateMutability": "nonpayable",
      "type": "function"
    },
    {
      "inputs": [
        {
          "internalType": "uint256",
          "name": "protocolFee_",
          "type": "uint256"
        }
      ],
      "name": "setProtocolFee",
      "outputs": [],
      "stateMutability": "nonpayable",
      "type": "function"
    },
    {
      "inputs": [
        {
          "internalType": "bytes4",
          "name": "interfaceId",
          "type": "bytes4"
        }
      ],
      "name": "supportsInterface",
      "outputs": [
        {
          "internalType": "bool",
          "name": "",
          "type": "bool"
        }
      ],
      "stateMutability": "view",
      "type": "function"
    },
    {
      "inputs": [],
      "name": "vault",
      "outputs": [
        {
          "internalType": "contract IVault",
          "name": "",
          "type": "address"
        }
      ],
      "stateMutability": "view",
      "type": "function"
    },
    {
      "inputs": [
        {
          "internalType": "contract sIERC20",
          "name": "sERC20",
          "type": "address"
        },
        {
          "internalType": "uint256",
          "name": "proposalId",
          "type": "uint256"
        }
      ],
      "name": "withdrawProposal",
      "outputs": [],
      "stateMutability": "nonpayable",
      "type": "function"
    }
  ],
  "transactionHash": "0xc4721116ad2d5d4af01a86e658fae5ae00f35cd2d08ae8038ca0bb94c75a5078",
  "args": [
    "0x4BfDa8ba81cfB378702b502516548a960fbF0438",
    "0x64D5221C37fe62A77266A8b9c113e4B6FEd76a12",
    "0x8873b045d40a458e46e356a96279ae1820a898ba",
    "3000000000000000000"
  ],
  "solcInputHash": "e063610f6b9cf6ecd84ffa013d639e0f",
  "bytecode": "0x60c06040523480156200001157600080fd5b5060405162003f6438038062003f6483398101604081905262000034916200042c565b6001600160a01b038416620000a15760405162461bcd60e51b815260206004820152602860248201527f42726f6b65723a207661756c742063616e6e6f7420626520746865207a65726f604482015267206164647265737360c01b60648201526084015b60405180910390fd5b6001600160a01b0383166200010b5760405162461bcd60e51b815260206004820152602960248201527f42726f6b65723a206973737565722063616e6e6f7420626520746865207a65726044820152686f206164647265737360b81b606482015260840162000098565b6001600160a01b038216620001735760405162461bcd60e51b815260206004820152602760248201527f42726f6b65723a2062616e6b2063616e6e6f7420626520746865207a65726f206044820152666164647265737360c81b606482015260840162000098565b68056bc75e2d631000008110620001e35760405162461bcd60e51b815260206004820152602d60248201527f42726f6b65723a2070726f746f636f6c20666565206d75737420626520696e6660448201526c6572696f7220746f203130302560981b606482015260840162000098565b6001600160a01b03808516608052831660a052620002018262000223565b6200020c8162000278565b62000219600033620002ae565b5050505062000486565b600280546001600160a01b0319166001600160a01b0383169081179091556040519081527f10f5824683d64a0712038f2244e046b174a1cc57fbb8556bfda5ffb261244067906020015b60405180910390a150565b60038190556040518181527fdc0410a296e1e33943a772020d333d5f99319d7fcad932a484c53889f7aaa2b1906020016200026d565b620002c58282620002f160201b620024761760201c565b6000828152600160209081526040909120620002ec9183906200248462000301821b17901c565b505050565b620002fd828262000321565b5050565b600062000318836001600160a01b038416620003c1565b90505b92915050565b6000828152602081815260408083206001600160a01b038516845290915290205460ff16620002fd576000828152602081815260408083206001600160a01b03851684529091529020805460ff191660011790556200037d3390565b6001600160a01b0316816001600160a01b0316837f2f8788117e7eff1d82e926ec794901d17c78024a50270940304540a733656f0d60405160405180910390a45050565b60008181526001830160205260408120546200040a575081546001818101845560008481526020808220909301849055845484825282860190935260409020919091556200031b565b5060006200031b565b6001600160a01b03811681146200042957600080fd5b50565b600080600080608085870312156200044357600080fd5b8451620004508162000413565b6020860151909450620004638162000413565b6040860151909350620004768162000413565b6060959095015193969295505050565b60805160a051613a9c620004c8600039600081816102a4015281816128bd0152612cc80152600081816106ee015281816122470152612a820152613a9c6000f3fe6080604052600436106102195760003560e01c8063787dce3d1161011d578063ca15c873116100b0578063eb3aebbf1161007f578063f3df1e3211610064578063f3df1e3214610691578063f85fc0ab146106c2578063fbfa77cf146106df57600080fd5b8063eb3aebbf1461063d578063edc6b9bd1461065d57600080fd5b8063ca15c873146105ca578063d547741f146105ea578063dfc51a251461060a578063e1f01ca41461061d57600080fd5b8063ad34b245116100ec578063ad34b2451461052b578063b0913a1314610560578063b0e21e8a14610580578063c0f0a4c81461059557600080fd5b8063787dce3d146104925780639010d07c146104b257806391d14854146104d2578063a217fddf1461051657600080fd5b806336568abe116101b057806360b191cb1161017f57806373f96d8e1161016457806373f96d8e1461042057806374f533171461044057806376cdb03b1461047457600080fd5b806360b191cb146103ed57806367e9bdad1461040d57600080fd5b806336568abe146103765780634209f150146103965780634bbeb413146103b65780635168e1a1146103cd57600080fd5b80631e83409a116101ec5780631e83409a146102dc578063248a9ca3146102fc5780632e0f26251461033a5780632f2ff15d1461035657600080fd5b806301ffc9a71461021e57806303eb017614610253578063090d23b9146102755780631d14384814610295575b600080fd5b34801561022a57600080fd5b5061023e6102393660046133f3565b610712565b60405190151581526020015b60405180910390f35b34801561025f57600080fd5b5061027361026e36600461344a565b61076e565b005b34801561028157600080fd5b5061027361029036600461344a565b61090a565b3480156102a157600080fd5b507f00000000000000000000000000000000000000000000000000000000000000005b6040516001600160a01b03909116815260200161024a565b3480156102e857600080fd5b506102736102f736600461344a565b610a0f565b34801561030857600080fd5b5061032c610317366004613467565b60009081526020819052604090206001015490565b60405190815260200161024a565b34801561034657600080fd5b5061032c670de0b6b3a764000081565b34801561036257600080fd5b50610273610371366004613480565b610d10565b34801561038257600080fd5b50610273610391366004613480565b610d32565b3480156103a257600080fd5b506102736103b13660046134b0565b610d54565b3480156103c257600080fd5b5061032c62093a8081565b3480156103d957600080fd5b506102736103e83660046134b0565b610fa2565b3480156103f957600080fd5b5061027361040836600461344a565b6111f1565b61027361041b36600461344a565b6113a4565b34801561042c57600080fd5b5061027361043b36600461344a565b6114f2565b34801561044c57600080fd5b5061032c7fd1f21ec03a6eb050fba156f5316dad461735df521fb446dd42c5a4728e9c70fe81565b34801561048057600080fd5b506002546001600160a01b03166102c4565b34801561049e57600080fd5b506102736104ad366004613467565b611685565b3480156104be57600080fd5b506102c46104cd3660046134dc565b611789565b3480156104de57600080fd5b5061023e6104ed366004613480565b6000918252602082815260408084206001600160a01b0393909316845291905290205460ff1690565b34801561052257600080fd5b5061032c600081565b34801561053757600080fd5b5061054b61054636600461344a565b6117a8565b60405161024a99989796959493929190613514565b34801561056c57600080fd5b5061027361057b3660046134b0565b61184e565b34801561058c57600080fd5b5060035461032c565b3480156105a157600080fd5b506105b56105b0366004613572565b611a9d565b6040805192835260208301919091520161024a565b3480156105d657600080fd5b5061032c6105e5366004613467565b611acf565b3480156105f657600080fd5b50610273610605366004613480565b611ae6565b61032c6106183660046134b0565b611af0565b34801561062957600080fd5b506102736106383660046135ae565b611e26565b34801561064957600080fd5b5061027361065836600461366e565b612082565b34801561066957600080fd5b5061032c7f12630b13fc535892fff29cd260a4eee87eac2069149688d850fa73ac0322e12081565b34801561069d57600080fd5b506106b16106ac3660046134b0565b61240d565b60405161024a959493929190613708565b3480156106ce57600080fd5b5061032c68056bc75e2d6310000081565b3480156106eb57600080fd5b507f00000000000000000000000000000000000000000000000000000000000000006102c4565b60007fffffffff0000000000000000000000000000000000000000000000000000000082167f5a05180f000000000000000000000000000000000000000000000000000000001480610768575061076882612499565b92915050565b6001600160a01b03811660009081526004602052604081209061079082612530565b825490915061010090046001600160a01b0316336001600160a01b0316146108255760405162461bcd60e51b815260206004820152603160248201527f42726f6b65723a206d7573742062652073616c65277320677561726469616e2060448201527f746f2064697361626c652065736361706500000000000000000000000000000060648201526084015b60405180910390fd5b6001816003811115610839576108396134fe565b148061085657506002816003811115610854576108546134fe565b145b6108a25760405162461bcd60e51b815260206004820152601a60248201527f42726f6b65723a20696e76616c69642073616c65207374617465000000000000604482015260640161081c565b6007820154610100900460ff166108fb5760405162461bcd60e51b815260206004820152601f60248201527f42726f6b65723a2065736361706520616c72656164792064697361626c656400604482015260640161081c565b610905838361256b565b505050565b6109156000336104ed565b6109875760405162461bcd60e51b815260206004820152603060248201527f42726f6b65723a206d75737420686176652044454641554c545f41444d494e5f60448201527f524f4c4520746f207365742062616e6b00000000000000000000000000000000606482015260840161081c565b6001600160a01b038116610a035760405162461bcd60e51b815260206004820152602760248201527f42726f6b65723a2062616e6b2063616e6e6f7420626520746865207a65726f2060448201527f6164647265737300000000000000000000000000000000000000000000000000606482015260840161081c565b610a0c816125b0565b50565b6001600160a01b038116600090815260046020526040812090336040517f70a082310000000000000000000000000000000000000000000000000000000081526001600160a01b0380831660048301529192506000918516906370a082319060240160206040518083038186803b158015610a8957600080fd5b505afa158015610a9d573d6000803e3d6000fd5b505050506040513d601f19601f82011682018060405250810190610ac19190613746565b90506003610ace84612530565b6003811115610adf57610adf6134fe565b14610b2c5760405162461bcd60e51b815260206004820152601a60248201527f42726f6b65723a20696e76616c69642073616c65207374617465000000000000604482015260640161081c565b60008111610b7c5760405162461bcd60e51b815260206004820152601860248201527f42726f6b65723a206e6f7468696e6720746f20636c61696d0000000000000000604482015260640161081c565b6000846001600160a01b03166318160ddd6040518163ffffffff1660e01b815260040160206040518083038186803b158015610bb757600080fd5b505afa158015610bcb573d6000803e3d6000fd5b505050506040513d601f19601f82011682018060405250810190610bef9190613746565b828560040154610bff9190613775565b610c099190613794565b905080846004016000828254610c1f91906137b6565b90915550506040517f79cc67900000000000000000000000000000000000000000000000000000000081526001600160a01b038481166004830152602482018490528616906379cc679090604401600060405180830381600087803b158015610c8757600080fd5b505af1158015610c9b573d6000803e3d6000fd5b50610cb3925050506001600160a01b0384168261261d565b826001600160a01b0316856001600160a01b03167f865ca08d59f5cb456e85cd2f7ef63664ea4f73327414e9d8152c4158b0e946458385604051610d01929190918252602082015260400190565b60405180910390a35050505050565b610d1a8282612736565b60008281526001602052604090206109059082612484565b610d3c828261275c565b600082815260016020526040902061090590826127e4565b6001600160a01b03828116600090815260046020908152604080832085845260068101909252909120815491929091610100900416336001600160a01b031614610e065760405162461bcd60e51b815260206004820152603260248201527f42726f6b65723a206d7573742062652073616c65277320677561726469616e2060448201527f746f206163636570742070726f706f73616c0000000000000000000000000000606482015260840161081c565b6002610e1183612530565b6003811115610e2257610e226134fe565b14610e6f5760405162461bcd60e51b815260206004820152601a60248201527f42726f6b65723a20696e76616c69642073616c65207374617465000000000000604482015260640161081c565b6001610e7a826127f9565b6005811115610e8b57610e8b6134fe565b14610ed85760405162461bcd60e51b815260206004820152601e60248201527f42726f6b65723a20696e76616c69642070726f706f73616c2073746174650000604482015260640161081c565b600782015460ff1615610f2d5760405162461bcd60e51b815260206004820152601f60248201527f42726f6b65723a20666c617368206275796f757420697320656e61626c656400604482015260640161081c565b805460ff1916600217815560405183906001600160a01b038616907fb68b23f18c187dede5027186d7dae9fda610a1ce0d025876dd7fb1fa9c52250790600090a3610f9c84838360000160019054906101000a90046001600160a01b0316846001015485600201546001612849565b50505050565b6001600160a01b03821660009081526004602090815260408083208484526006810190925282209091610fd4826127f9565b825490915061010090046001600160a01b0316336001600160a01b0316146110645760405162461bcd60e51b815260206004820152603560248201527f42726f6b65723a206d7573742062652070726f706f73616c277320627579657260448201527f20746f2077697468647261772070726f706f73616c0000000000000000000000606482015260840161081c565b6001816005811115611078576110786134fe565b148061109557506004816005811115611093576110936134fe565b145b6110e15760405162461bcd60e51b815260206004820152601e60248201527f42726f6b65723a20696e76616c69642070726f706f73616c2073746174650000604482015260640161081c565b815460ff198116600517835560028301546040517fa9059cbb0000000000000000000000000000000000000000000000000000000081526101009092046001600160a01b0390811660048401819052602484019290925290919087169063a9059cbb90604401602060405180830381600087803b15801561116157600080fd5b505af1158015611175573d6000803e3d6000fd5b505050506040513d601f19601f8201168201806040525081019061119991906137cd565b5060018301546111b3906001600160a01b0383169061261d565b60405185906001600160a01b038816907ffb591de3f595328713bb4313a53f62d518cfcdbc6b8efd8e1824d80d1d0d03fb90600090a3505050505050565b6001600160a01b03811660009081526004602052604081209061121382612530565b825490915061010090046001600160a01b0316336001600160a01b0316146112a35760405162461bcd60e51b815260206004820152603660248201527f42726f6b65723a206d7573742062652073616c65277320677561726469616e2060448201527f746f20656e61626c6520666c617368206275796f757400000000000000000000606482015260840161081c565b60018160038111156112b7576112b76134fe565b14806112d4575060028160038111156112d2576112d26134fe565b145b6113205760405162461bcd60e51b815260206004820152601a60248201527f42726f6b65723a20696e76616c69642073616c65207374617465000000000000604482015260640161081c565b600782015460ff161561139a5760405162461bcd60e51b8152602060048201526024808201527f42726f6b65723a20666c617368206275796f757420616c726561647920656e6160448201527f626c656400000000000000000000000000000000000000000000000000000000606482015260840161081c565b6109058383612b57565b6001600160a01b038116600090815260046020526040902060026113c782612530565b60038111156113d8576113d86134fe565b146114255760405162461bcd60e51b815260206004820152601a60248201527f42726f6b65723a20696e76616c69642073616c65207374617465000000000000604482015260640161081c565b600781015460ff166114795760405162461bcd60e51b815260206004820181905260248201527f42726f6b65723a20666c617368206275796f75742069732064697361626c6564604482015260640161081c565b33600080611488858585612b9e565b91509150813410156114dc5760405162461bcd60e51b815260206004820152601a60248201527f42726f6b65723a20696e73756666696369656e742076616c7565000000000000604482015260640161081c565b6114eb85858534856000612849565b5050505050565b6001600160a01b03811660009081526004602052604081209061151482612530565b825490915061010090046001600160a01b0316336001600160a01b0316146115a45760405162461bcd60e51b815260206004820152603060248201527f42726f6b65723a206d7573742062652073616c65277320677561726469616e2060448201527f746f20656e61626c652065736361706500000000000000000000000000000000606482015260840161081c565b60018160038111156115b8576115b86134fe565b14806115d5575060028160038111156115d3576115d36134fe565b145b6116215760405162461bcd60e51b815260206004820152601a60248201527f42726f6b65723a20696e76616c69642073616c65207374617465000000000000604482015260640161081c565b6007820154610100900460ff161561167b5760405162461bcd60e51b815260206004820152601e60248201527f42726f6b65723a2065736361706520616c726561647920656e61626c65640000604482015260640161081c565b6109058383612e09565b6116906000336104ed565b6117025760405162461bcd60e51b815260206004820152603860248201527f42726f6b65723a206d75737420686176652044454641554c545f41444d494e5f60448201527f524f4c4520746f207365742070726f746f636f6c206665650000000000000000606482015260840161081c565b68056bc75e2d6310000081106117805760405162461bcd60e51b815260206004820152602d60248201527f42726f6b65723a2070726f746f636f6c20666565206d75737420626520696e6660448201527f6572696f7220746f203130302500000000000000000000000000000000000000606482015260840161081c565b610a0c81612e52565b60008281526001602052604081206117a19083612e87565b9392505050565b6001600160a01b0381166000908152600460205260408120819081908190819081908190819081906117d981612530565b99508060000160019054906101000a90046001600160a01b0316985080600101549750806002015496508060030154955080600401549450806005015493508060070160009054906101000a900460ff1692508060070160019054906101000a900460ff169150509193959799909294969850565b6001600160a01b03821660009081526004602090815260408083208484526006810190925282209091611880826127f9565b835490915061010090046001600160a01b0316336001600160a01b0316146119105760405162461bcd60e51b815260206004820152603260248201527f42726f6b65723a206d7573742062652073616c65277320677561726469616e2060448201527f746f2072656a6563742070726f706f73616c0000000000000000000000000000606482015260840161081c565b6001816005811115611924576119246134fe565b14806119415750600481600581111561193f5761193f6134fe565b145b61198d5760405162461bcd60e51b815260206004820152601e60248201527f42726f6b65723a20696e76616c69642070726f706f73616c2073746174650000604482015260640161081c565b815460ff198116600317835560028301546040517fa9059cbb0000000000000000000000000000000000000000000000000000000081526101009092046001600160a01b0390811660048401819052602484019290925290919087169063a9059cbb90604401602060405180830381600087803b158015611a0d57600080fd5b505af1158015611a21573d6000803e3d6000fd5b505050506040513d601f19601f82011682018060405250810190611a4591906137cd565b506001830154611a5f906001600160a01b0383169061261d565b60405185906001600160a01b038816907f123432125627249bc47aca642b7e775249fbacf9c32f467ef8eade2c0bd859e990600090a3505050505050565b6001600160a01b03821660009081526004602052604081208190611ac390859085612b9e565b915091505b9250929050565b600081815260016020526040812061076890612e93565b610d3c8282612e9d565b6001600160a01b03821660009081526004602052604081206002611b1382612530565b6003811115611b2457611b246134fe565b14611b715760405162461bcd60e51b815260206004820152601a60248201527f42726f6b65723a20696e76616c69642073616c65207374617465000000000000604482015260640161081c565b600781015460ff1615611bc65760405162461bcd60e51b815260206004820152601f60248201527f42726f6b65723a20666c617368206275796f757420697320656e61626c656400604482015260640161081c565b33600080611bd5878585612b9e565b9150915081341015611c295760405162461bcd60e51b815260206004820152601a60248201527f42726f6b65723a20696e73756666696369656e742076616c7565000000000000604482015260640161081c565b8015611cd2576040517f23b872dd0000000000000000000000000000000000000000000000000000000081526001600160a01b038481166004830152306024830152604482018390528816906323b872dd90606401602060405180830381600087803b158015611c9857600080fd5b505af1158015611cac573d6000803e3d6000fd5b505050506040513d601f19601f82011682018060405250810190611cd091906137cd565b505b60058401805460009182611ce5836137ea565b90915550905060008715611d0257611cfd8842613805565b611d05565b60005b6040805160a0810190915290915080600181526001600160a01b03871660208083019190915234604080840191909152606083018790526080909201849052600085815260068a019091522081518154829060ff19166001836005811115611d6f57611d6f6134fe565b021790555060208281015182547fffffffffffffffffffffff0000000000000000000000000000000000000000ff166101006001600160a01b03928316021783556040808501516001850155606080860151600286015560809095015160039094019390935582513481529182018790529181018490528782169285928d16917f2e0ff6e48a8a48aff6ceabfca8b39f5468c5d8537cda6f84bf3d138a057d63a9910160405180910390a450979650505050505050565b6001600160a01b0387166000908152600460205260409020611e687fd1f21ec03a6eb050fba156f5316dad461735df521fb446dd42c5a4728e9c70fe336104ed565b611eda5760405162461bcd60e51b815260206004820152602b60248201527f42726f6b65723a206d75737420686176652052454749535445525f524f4c452060448201527f746f207265676973746572000000000000000000000000000000000000000000606482015260840161081c565b6001600160a01b038716611f565760405162461bcd60e51b815260206004820152602b60248201527f42726f6b65723a20677561726469616e2063616e6e6f7420626520746865207a60448201527f65726f2061646472657373000000000000000000000000000000000000000000606482015260840161081c565b62093a80841015611fa95760405162461bcd60e51b815260206004820152601860248201527f42726f6b65723a20696e76616c69642074696d656c6f636b0000000000000000604482015260640161081c565b805460017fffffffffffffffffffffff0000000000000000000000000000000000000000009091166101006001600160a01b038a16021781178255810186905560028101859055611ffa8442613805565b60038201556001600160a01b038088169089167f960433c4e2767afac577684c6535af583fc391eb4d68dd65ec195cc868415f3e888861203a8942613805565b6040805193845260208401929092529082015260600160405180910390a38215612068576120688882612b57565b8115612078576120788882612e09565b5050505050505050565b6120ac7f12630b13fc535892fff29cd260a4eee87eac2069149688d850fa73ac0322e120336104ed565b61211e5760405162461bcd60e51b815260206004820152602c60248201527f42726f6b65723a206d7573742068617665204553434150455f524f4c4520746f60448201527f20657363617065204e4654730000000000000000000000000000000000000000606482015260840161081c565b848314801561212c57508481145b61219e5760405162461bcd60e51b815260206004820152602360248201527f42726f6b65723a20706172616d6574657273206c656e67746873206d69736d6160448201527f7463680000000000000000000000000000000000000000000000000000000000606482015260840161081c565b60005b8581101561240457600460008888848181106121bf576121bf61381d565b90506020020160208101906121d4919061344a565b6001600160a01b03168152602081019190915260400160002060070154610100900460ff166122455760405162461bcd60e51b815260206004820152601a60248201527f42726f6b65723a206573636170652069732064697361626c6564000000000000604482015260640161081c565b7f00000000000000000000000000000000000000000000000000000000000000006001600160a01b031663331d8e5d8888848181106122865761228661381d565b905060200201602081019061229b919061344a565b8787858181106122ad576122ad61381d565b90506020020160208101906122c2919061344a565b8686868181106122d4576122d461381d565b90506020028101906122e69190613833565b6040518563ffffffff1660e01b815260040161230594939291906138c3565b600060405180830381600087803b15801561231f57600080fd5b505af1158015612333573d6000803e3d6000fd5b505050508484828181106123495761234961381d565b905060200201602081019061235e919061344a565b6001600160a01b03168787838181106123795761237961381d565b905060200201602081019061238e919061344a565b6001600160a01b03167f9e96f699a3921fe6afbe2c81ca67fd4e9be84b27e8de6ae8e3c2eed964069b4f8585858181106123ca576123ca61381d565b90506020028101906123dc9190613833565b6040516123ea9291906138fa565b60405180910390a3806123fc816137ea565b9150506121a1565b50505050505050565b6001600160a01b038216600090815260046020908152604080832084845260060190915281208190819081908190612444816127f9565b815460018301546002840154600390940154929b6101009092046001600160a01b03169a509850919650945092505050565b6124808282612ec3565b5050565b60006117a1836001600160a01b038416612f61565b60007fffffffff0000000000000000000000000000000000000000000000000000000082167f7965db0b00000000000000000000000000000000000000000000000000000000148061076857507f01ffc9a7000000000000000000000000000000000000000000000000000000007fffffffff00000000000000000000000000000000000000000000000000000000831614610768565b805460009060ff16600181600381111561254c5761254c6134fe565b14801561255d575082600301544210155b156107685750600292915050565b60078101805461ff00191690556040516001600160a01b038316907f21f4c01ab6a34520ceec1edd87fd455cf97bce35cec51f04a1f49c17b6466f3790600090a25050565b600280547fffffffffffffffffffffffff0000000000000000000000000000000000000000166001600160a01b0383169081179091556040519081527f10f5824683d64a0712038f2244e046b174a1cc57fbb8556bfda5ffb261244067906020015b60405180910390a150565b8047101561266d5760405162461bcd60e51b815260206004820152601d60248201527f416464726573733a20696e73756666696369656e742062616c616e6365000000604482015260640161081c565b6000826001600160a01b03168260405160006040518083038185875af1925050503d80600081146126ba576040519150601f19603f3d011682016040523d82523d6000602084013e6126bf565b606091505b50509050806109055760405162461bcd60e51b815260206004820152603a60248201527f416464726573733a20756e61626c6520746f2073656e642076616c75652c207260448201527f6563697069656e74206d61792068617665207265766572746564000000000000606482015260840161081c565b6000828152602081905260409020600101546127528133612fb0565b6109058383612ec3565b6001600160a01b03811633146127da5760405162461bcd60e51b815260206004820152602f60248201527f416363657373436f6e74726f6c3a2063616e206f6e6c792072656e6f756e636560448201527f20726f6c657320666f722073656c660000000000000000000000000000000000606482015260840161081c565b612480828261302e565b60006117a1836001600160a01b0384166130ad565b8054600382015460009160ff1690600182600581111561281b5761281b6134fe565b14801561282757508015155b80156128335750804210155b15612842575060049392505050565b5092915050565b600068056bc75e2d63100000600354856128639190613775565b61286d9190613794565b865460ff19166003178755905061288481856137b6565b6004808801919091556040517fc74073a10000000000000000000000000000000000000000000000000000000081526001600160a01b037f0000000000000000000000000000000000000000000000000000000000000000169163c74073a1916128ff918b91016001600160a01b0391909116815260200190565b600060405180830381600087803b15801561291957600080fd5b505af115801561292d573d6000803e3d6000fd5b505050506000831115612a345781156129b8576040517f42966c68000000000000000000000000000000000000000000000000000000008152600481018490526001600160a01b038816906342966c6890602401600060405180830381600087803b15801561299b57600080fd5b505af11580156129af573d6000803e3d6000fd5b50505050612a34565b6040517f79cc67900000000000000000000000000000000000000000000000000000000081526001600160a01b038681166004830152602482018590528816906379cc679090604401600060405180830381600087803b158015612a1b57600080fd5b505af1158015612a2f573d6000803e3d6000fd5b505050505b6040517f331d8e5d0000000000000000000000000000000000000000000000000000000081526001600160a01b038881166004830152868116602483015260606044830152600060648301527f0000000000000000000000000000000000000000000000000000000000000000169063331d8e5d90608401600060405180830381600087803b158015612ac657600080fd5b505af1158015612ada573d6000803e3d6000fd5b505050506000811115612afd57600254612afd906001600160a01b03168261261d565b60408051858152602081018590529081018290526001600160a01b0380871691908916907f010566ed1f1638146fb035e3ac42796e2ae2df2045dfc2d6c92a4b07f04ad6919060600160405180910390a350505050505050565b60078101805460ff191660011790556040516001600160a01b038316907fc06afb3e82286e0c8c7ebc246d8cb1463083152f95c756f6b07113e2275a42a190600090a25050565b6040517f70a082310000000000000000000000000000000000000000000000000000000081526001600160a01b03828116600483015260009182918616906370a082319060240160206040518083038186803b158015612bfd57600080fd5b505afa158015612c11573d6000803e3d6000fd5b505050506040513d601f19601f82011682018060405250810190612c359190613746565b90506000856001600160a01b03166318160ddd6040518163ffffffff1660e01b815260040160206040518083038186803b158015612c7257600080fd5b505afa158015612c86573d6000803e3d6000fd5b505050506040513d601f19601f82011682018060405250810190612caa9190613746565b90506000670de0b6b3a76400008660020154670de0b6b3a7640000847f00000000000000000000000000000000000000000000000000000000000000006001600160a01b031663a0058b3d8c60006040518363ffffffff1660e01b8152600401612d15929190613916565b60206040518083038186803b158015612d2d57600080fd5b505afa158015612d41573d6000803e3d6000fd5b505050506040513d601f19601f82011682018060405250810190612d659190613746565b612d6f9190613775565b612d799190613794565b612d839190613775565b612d8d9190613794565b6001870154909150600082821015612da55782612da7565b815b905060008411612db75780612dfb565b670de0b6b3a764000084612dcb8288613775565b612dd59190613794565b612de790670de0b6b3a76400006137b6565b612df19083613775565b612dfb9190613794565b955050505050935093915050565b60078101805461ff0019166101001790556040516001600160a01b038316907f6d1caeda9382fb9391d2939838457563371f88d39b58b7509411bb381e3c62f490600090a25050565b60038190556040518181527fdc0410a296e1e33943a772020d333d5f99319d7fcad932a484c53889f7aaa2b190602001612612565b60006117a183836131a0565b6000610768825490565b600082815260208190526040902060010154612eb98133612fb0565b610905838361302e565b6000828152602081815260408083206001600160a01b038516845290915290205460ff16612480576000828152602081815260408083206001600160a01b03851684529091529020805460ff19166001179055612f1d3390565b6001600160a01b0316816001600160a01b0316837f2f8788117e7eff1d82e926ec794901d17c78024a50270940304540a733656f0d60405160405180910390a45050565b6000818152600183016020526040812054612fa857508154600181810184556000848152602080822090930184905584548482528286019093526040902091909155610768565b506000610768565b6000828152602081815260408083206001600160a01b038516845290915290205460ff1661248057612fec816001600160a01b031660146131ca565b612ff78360206131ca565b60405160200161300892919061396f565b60408051601f198184030181529082905262461bcd60e51b825261081c916004016139f0565b6000828152602081815260408083206001600160a01b038516845290915290205460ff1615612480576000828152602081815260408083206001600160a01b0385168085529252808320805460ff1916905551339285917ff6391f5c32d9c69d2a47ea670b442974b53935d1edc7fd64eb21e047a839171b9190a45050565b600081815260018301602052604081205480156131965760006130d16001836137b6565b85549091506000906130e5906001906137b6565b905081811461314a5760008660000182815481106131055761310561381d565b90600052602060002001549050808760000184815481106131285761312861381d565b6000918252602080832090910192909255918252600188019052604090208390555b855486908061315b5761315b613a23565b600190038181906000526020600020016000905590558560010160008681526020019081526020016000206000905560019350505050610768565b6000915050610768565b60008260000182815481106131b7576131b761381d565b9060005260206000200154905092915050565b606060006131d9836002613775565b6131e4906002613805565b67ffffffffffffffff8111156131fc576131fc613a39565b6040519080825280601f01601f191660200182016040528015613226576020820181803683370190505b5090507f30000000000000000000000000000000000000000000000000000000000000008160008151811061325d5761325d61381d565b60200101907effffffffffffffffffffffffffffffffffffffffffffffffffffffffffffff1916908160001a9053507f7800000000000000000000000000000000000000000000000000000000000000816001815181106132c0576132c061381d565b60200101907effffffffffffffffffffffffffffffffffffffffffffffffffffffffffffff1916908160001a90535060006132fc846002613775565b613307906001613805565b90505b60018111156133a4577f303132333435363738396162636465660000000000000000000000000000000085600f16601081106133485761334861381d565b1a60f81b82828151811061335e5761335e61381d565b60200101907effffffffffffffffffffffffffffffffffffffffffffffffffffffffffffff1916908160001a90535060049490941c9361339d81613a4f565b905061330a565b5083156117a15760405162461bcd60e51b815260206004820181905260248201527f537472696e67733a20686578206c656e67746820696e73756666696369656e74604482015260640161081c565b60006020828403121561340557600080fd5b81357fffffffff00000000000000000000000000000000000000000000000000000000811681146117a157600080fd5b6001600160a01b0381168114610a0c57600080fd5b60006020828403121561345c57600080fd5b81356117a181613435565b60006020828403121561347957600080fd5b5035919050565b6000806040838503121561349357600080fd5b8235915060208301356134a581613435565b809150509250929050565b600080604083850312156134c357600080fd5b82356134ce81613435565b946020939093013593505050565b600080604083850312156134ef57600080fd5b50508035926020909101359150565b634e487b7160e01b600052602160045260246000fd5b610120810160048b10613529576135296134fe565b9981526001600160a01b0398909816602089015260408801969096526060870194909452608086019290925260a085015260c0840152151560e083015215156101009091015290565b6000806040838503121561358557600080fd5b823561359081613435565b915060208301356134a581613435565b8015158114610a0c57600080fd5b600080600080600080600060e0888a0312156135c957600080fd5b87356135d481613435565b965060208801356135e481613435565b955060408801359450606088013593506080880135925060a0880135613609816135a0565b915060c0880135613619816135a0565b8091505092959891949750929550565b60008083601f84011261363b57600080fd5b50813567ffffffffffffffff81111561365357600080fd5b6020830191508360208260051b8501011115611ac857600080fd5b6000806000806000806060878903121561368757600080fd5b863567ffffffffffffffff8082111561369f57600080fd5b6136ab8a838b01613629565b909850965060208901359150808211156136c457600080fd5b6136d08a838b01613629565b909650945060408901359150808211156136e957600080fd5b506136f689828a01613629565b979a9699509497509295939492505050565b60a081016006871061371c5761371c6134fe565b9581526001600160a01b039490941660208501526040840192909252606083015260809091015290565b60006020828403121561375857600080fd5b5051919050565b634e487b7160e01b600052601160045260246000fd5b600081600019048311821515161561378f5761378f61375f565b500290565b6000826137b157634e487b7160e01b600052601260045260246000fd5b500490565b6000828210156137c8576137c861375f565b500390565b6000602082840312156137df57600080fd5b81516117a1816135a0565b60006000198214156137fe576137fe61375f565b5060010190565b600082198211156138185761381861375f565b500190565b634e487b7160e01b600052603260045260246000fd5b60008083357fffffffffffffffffffffffffffffffffffffffffffffffffffffffffffffffe184360301811261386857600080fd5b83018035915067ffffffffffffffff82111561388357600080fd5b602001915036819003821315611ac857600080fd5b818352818160208501375060006020828401015260006020601f19601f840116840101905092915050565b60006001600160a01b038087168352808616602084015250606060408301526138f0606083018486613898565b9695505050505050565b60208152600061390e602083018486613898565b949350505050565b6001600160a01b03831681526040810160028310613936576139366134fe565b8260208301529392505050565b60005b8381101561395e578181015183820152602001613946565b83811115610f9c5750506000910152565b7f416363657373436f6e74726f6c3a206163636f756e74200000000000000000008152600083516139a7816017850160208801613943565b7f206973206d697373696e6720726f6c652000000000000000000000000000000060179184019182015283516139e4816028840160208801613943565b01602801949350505050565b6020815260008251806020840152613a0f816040850160208701613943565b601f01601f19169190910160400192915050565b634e487b7160e01b600052603160045260246000fd5b634e487b7160e01b600052604160045260246000fd5b600081613a5e57613a5e61375f565b50600019019056fea264697066735822122045f988eab0ae20e01a4f2c1f36049e72613f50be846db0096c604ef3fb01f42664736f6c63430008090033",
  "devdoc": {
    "kind": "dev",
    "methods": {
      "_escape_(address[],address[],bytes[])": {
        "details": "This function is only meant to be used in case of an emergency or upgrade to transfer NFTs to a safer or up-to-date place.",
        "params": {
          "beneficiaries": "The addresses escaped NFTs are transferred to.",
          "datas": "The ERC721#transfer callback datas.",
          "sERC20s": "The sERC20s whose pegged NFTs are transferred."
        }
      },
      "acceptProposal(address,uint256)": {
        "params": {
          "proposalId": "The id of the buyout proposal.",
          "sERC20": "The sERC20 whose pegged NFT was proposed to be bought out."
        }
      },
      "buyout(address)": {
        "details": "This function requires flash buyout to be enabled.",
        "params": {
          "sERC20": "The sERC20 whose pegged NFT is boughtout."
        }
      },
      "claim(address)": {
        "details": "This function is open to re-entrancy for it would be harmless.",
        "params": {
          "sERC20": "The sERC20 whose buyout shares are claimed."
        }
      },
      "createProposal(address,uint256)": {
        "params": {
          "lifespan": "The lifespan of the proposal [in seconds].",
          "sERC20": "The sERC20 whose pegged NFT is proposed to be bought out."
        }
      },
      "disableEscape(address)": {
        "params": {
          "sERC20": "The sERC20 whose pegged NFT is to be made un-escapable."
        }
      },
      "enableEscape(address)": {
        "params": {
          "sERC20": "The sERC20 whose pegged NFT is to be made escapable."
        }
      },
      "enableFlashBuyout(address)": {
        "params": {
          "sERC20": "The sERC20 whose pegged NFT is to be offered to flash buyout."
        }
      },
      "getRoleAdmin(bytes32)": {
        "details": "Returns the admin role that controls `role`. See {grantRole} and {revokeRole}. To change a role's admin, use {_setRoleAdmin}."
      },
      "getRoleMember(bytes32,uint256)": {
        "details": "Returns one of the accounts that have `role`. `index` must be a value between 0 and {getRoleMemberCount}, non-inclusive. Role bearers are not sorted in any particular way, and their ordering may change at any point. WARNING: When using {getRoleMember} and {getRoleMemberCount}, make sure you perform all queries on the same block. See the following https://forum.openzeppelin.com/t/iterating-over-elements-on-enumerableset-in-openzeppelin-contracts/2296[forum post] for more information."
      },
      "getRoleMemberCount(bytes32)": {
        "details": "Returns the number of accounts that have `role`. Can be used together with {getRoleMember} to enumerate all bearers of a role."
      },
      "grantRole(bytes32,address)": {
        "details": "Overload {grantRole} to track enumerable memberships"
      },
      "hasRole(bytes32,address)": {
        "details": "Returns `true` if `account` has been granted `role`."
      },
      "register(address,address,uint256,uint256,uint256,bool,bool)": {
        "details": "- We do not check neither that `sERC20` is unregistered nor that it actually is an sERC20 to save gas.      - Indeed, only trusted templates, registering sERC20s out of actual NFT fractionalizations, are supposed to be granted REGISTER_ROLE.      - Other parameters are checked because they are passed by users and forwarded unchecked by templates.",
        "params": {
          "escape": "True if spectre's multisig is allowed to escape sERC20's pegged NFT, false otherwise.",
          "flash": "True if flash buyout is enabled, false otherwise.",
          "guardian": "The account authorized to enable flash buyout and accept / reject proposals otherwise.",
          "multiplier": "The sale's buyout multiplier [expressed with 1e18 decimals].",
          "reserve": "The reserve price above which the NFT can be bought out.",
          "sERC20": "The sERC20 whose pegged NFT is put on sale.",
          "timelock": "The period of time after which the sale opens [in seconds]."
        }
      },
      "rejectProposal(address,uint256)": {
        "details": "This function is open to re-entrancy for it would be harmless.",
        "params": {
          "proposalId": "The id of the buyout proposal.",
          "sERC20": "The sERC20 whose pegged NFT was proposed to be bought out."
        }
      },
      "renounceRole(bytes32,address)": {
        "details": "Overload {renounceRole} to track enumerable memberships"
      },
      "revokeRole(bytes32,address)": {
        "details": "Overload {revokeRole} to track enumerable memberships"
      },
      "supportsInterface(bytes4)": {
        "details": "See {IERC165-supportsInterface}."
      },
      "withdrawProposal(address,uint256)": {
        "details": "This function is open to re-entrancy for it would be harmless.",
        "params": {
          "proposalId": "The id of the buyout proposal.",
          "sERC20": "The sERC20 whose pegged NFT was proposed to be bought out."
        }
      }
    },
    "title": "Broker",
    "version": 1
  },
  "userdoc": {
    "kind": "user",
    "methods": {
      "_escape_(address[],address[],bytes[])": {
        "notice": "Transfer all the NFTs pegged to `sERC20s `to `beneficiaries` with `datas` as ERC721#safeTransferFrom callback datas."
      },
      "acceptProposal(address,uint256)": {
        "notice": "Accept proposal #`proposalId` to buyout the NFT pegged to `sERC20`."
      },
      "bank()": {
        "notice": "Return the broker's bank."
      },
      "buyout(address)": {
        "notice": "Buyout the NFT pegged to `sERC20`."
      },
      "claim(address)": {
        "notice": "Claim shares of the buyout of the NFT pegged to `sERC20`."
      },
      "createProposal(address,uint256)": {
        "notice": "Create a proposal to buyout the NFT pegged to `sERC20`."
      },
      "disableEscape(address)": {
        "notice": "Disable escape for the NFT pegged to `sERC20`."
      },
      "enableEscape(address)": {
        "notice": "Enable escape for the NFT pegged to `sERC20`."
      },
      "enableFlashBuyout(address)": {
        "notice": "Enable flash buyout for the NFT pegged to `sERC20`."
      },
      "issuer()": {
        "notice": "Return the broker's issuer."
      },
      "priceOfFor(address,address)": {
        "notice": "Return what it costs for `buyer` to buyout the NFT pegged to `sERC20`."
      },
      "proposalFor(address,uint256)": {
        "notice": "Return the proposal #`proposalId` to buyout the NFT pegged to `sERC20`."
      },
      "protocolFee()": {
        "notice": "Return the broker's protocol fee."
      },
      "register(address,address,uint256,uint256,uint256,bool,bool)": {
        "notice": "Put the NFT pegged to `sERC20` on sale."
      },
      "rejectProposal(address,uint256)": {
        "notice": "Reject proposal #`proposalId` to buyout the NFT pegged to `sERC20`."
      },
      "saleOf(address)": {
        "notice": "Return the sale of the NFT pegged to `sERC20`."
      },
      "vault()": {
        "notice": "Return the broker's vault."
      },
      "withdrawProposal(address,uint256)": {
        "notice": "Withdraw proposal #`proposalId` to buyout the NFT pegged to `sERC20`."
      }
    },
    "notice": "Handles the buyout of fractionalized NFTs.",
    "version": 1
  },
  "storageLayout": {
    "storage": [
      {
        "astId": 3162,
        "contract": "contracts/broker/Broker.sol:Broker",
        "label": "_roles",
        "offset": 0,
        "slot": "0",
        "type": "t_mapping(t_bytes32,t_struct(RoleData)3157_storage)"
      },
      {
        "astId": 3463,
        "contract": "contracts/broker/Broker.sol:Broker",
        "label": "_roleMembers",
        "offset": 0,
        "slot": "1",
        "type": "t_mapping(t_bytes32,t_struct(AddressSet)6836_storage)"
      },
      {
        "astId": 7180,
        "contract": "contracts/broker/Broker.sol:Broker",
        "label": "_bank",
        "offset": 0,
        "slot": "2",
        "type": "t_address"
      },
      {
        "astId": 7182,
        "contract": "contracts/broker/Broker.sol:Broker",
        "label": "_protocolFee",
        "offset": 0,
        "slot": "3",
        "type": "t_uint256"
      },
      {
        "astId": 7188,
        "contract": "contracts/broker/Broker.sol:Broker",
        "label": "_sales",
        "offset": 0,
        "slot": "4",
        "type": "t_mapping(t_contract(sIERC20)13213,t_struct(Sale)9165_storage)"
      }
    ],
    "types": {
      "t_address": {
        "encoding": "inplace",
        "label": "address",
        "numberOfBytes": "20"
      },
      "t_array(t_bytes32)dyn_storage": {
        "base": "t_bytes32",
        "encoding": "dynamic_array",
        "label": "bytes32[]",
        "numberOfBytes": "32"
      },
      "t_bool": {
        "encoding": "inplace",
        "label": "bool",
        "numberOfBytes": "1"
      },
      "t_bytes32": {
        "encoding": "inplace",
        "label": "bytes32",
        "numberOfBytes": "32"
      },
      "t_contract(sIERC20)13213": {
        "encoding": "inplace",
        "label": "contract sIERC20",
        "numberOfBytes": "20"
      },
      "t_enum(State)9077": {
        "encoding": "inplace",
        "label": "enum Proposals.State",
        "numberOfBytes": "1"
      },
      "t_enum(State)9140": {
        "encoding": "inplace",
        "label": "enum Sales.State",
        "numberOfBytes": "1"
      },
      "t_mapping(t_address,t_bool)": {
        "encoding": "mapping",
        "key": "t_address",
        "label": "mapping(address => bool)",
        "numberOfBytes": "32",
        "value": "t_bool"
      },
      "t_mapping(t_bytes32,t_struct(AddressSet)6836_storage)": {
        "encoding": "mapping",
        "key": "t_bytes32",
        "label": "mapping(bytes32 => struct EnumerableSet.AddressSet)",
        "numberOfBytes": "32",
        "value": "t_struct(AddressSet)6836_storage"
      },
      "t_mapping(t_bytes32,t_struct(RoleData)3157_storage)": {
        "encoding": "mapping",
        "key": "t_bytes32",
        "label": "mapping(bytes32 => struct AccessControl.RoleData)",
        "numberOfBytes": "32",
        "value": "t_struct(RoleData)3157_storage"
      },
      "t_mapping(t_bytes32,t_uint256)": {
        "encoding": "mapping",
        "key": "t_bytes32",
        "label": "mapping(bytes32 => uint256)",
        "numberOfBytes": "32",
        "value": "t_uint256"
      },
      "t_mapping(t_contract(sIERC20)13213,t_struct(Sale)9165_storage)": {
        "encoding": "mapping",
        "key": "t_contract(sIERC20)13213",
        "label": "mapping(contract sIERC20 => struct Sales.Sale)",
        "numberOfBytes": "32",
        "value": "t_struct(Sale)9165_storage"
      },
      "t_mapping(t_uint256,t_struct(Proposal)9089_storage)": {
        "encoding": "mapping",
        "key": "t_uint256",
        "label": "mapping(uint256 => struct Proposals.Proposal)",
        "numberOfBytes": "32",
        "value": "t_struct(Proposal)9089_storage"
      },
      "t_struct(AddressSet)6836_storage": {
        "encoding": "inplace",
        "label": "struct EnumerableSet.AddressSet",
        "members": [
          {
            "astId": 6835,
            "contract": "contracts/broker/Broker.sol:Broker",
            "label": "_inner",
            "offset": 0,
            "slot": "0",
            "type": "t_struct(Set)6535_storage"
          }
        ],
        "numberOfBytes": "64"
      },
      "t_struct(Proposal)9089_storage": {
        "encoding": "inplace",
        "label": "struct Proposals.Proposal",
        "members": [
          {
            "astId": 9080,
            "contract": "contracts/broker/Broker.sol:Broker",
            "label": "_state",
            "offset": 0,
            "slot": "0",
            "type": "t_enum(State)9077"
          },
          {
            "astId": 9082,
            "contract": "contracts/broker/Broker.sol:Broker",
            "label": "buyer",
            "offset": 1,
            "slot": "0",
            "type": "t_address"
          },
          {
            "astId": 9084,
            "contract": "contracts/broker/Broker.sol:Broker",
            "label": "value",
            "offset": 0,
            "slot": "1",
            "type": "t_uint256"
          },
          {
            "astId": 9086,
            "contract": "contracts/broker/Broker.sol:Broker",
            "label": "collateral",
            "offset": 0,
            "slot": "2",
            "type": "t_uint256"
          },
          {
            "astId": 9088,
            "contract": "contracts/broker/Broker.sol:Broker",
            "label": "expiration",
            "offset": 0,
            "slot": "3",
            "type": "t_uint256"
          }
        ],
        "numberOfBytes": "128"
      },
      "t_struct(RoleData)3157_storage": {
        "encoding": "inplace",
        "label": "struct AccessControl.RoleData",
        "members": [
          {
            "astId": 3154,
            "contract": "contracts/broker/Broker.sol:Broker",
            "label": "members",
            "offset": 0,
            "slot": "0",
            "type": "t_mapping(t_address,t_bool)"
          },
          {
            "astId": 3156,
            "contract": "contracts/broker/Broker.sol:Broker",
            "label": "adminRole",
            "offset": 0,
            "slot": "1",
            "type": "t_bytes32"
          }
        ],
        "numberOfBytes": "64"
      },
      "t_struct(Sale)9165_storage": {
        "encoding": "inplace",
        "label": "struct Sales.Sale",
        "members": [
          {
            "astId": 9143,
            "contract": "contracts/broker/Broker.sol:Broker",
            "label": "_state",
            "offset": 0,
            "slot": "0",
            "type": "t_enum(State)9140"
          },
          {
            "astId": 9145,
            "contract": "contracts/broker/Broker.sol:Broker",
            "label": "guardian",
            "offset": 1,
            "slot": "0",
            "type": "t_address"
          },
          {
            "astId": 9147,
            "contract": "contracts/broker/Broker.sol:Broker",
            "label": "reserve",
            "offset": 0,
            "slot": "1",
            "type": "t_uint256"
          },
          {
            "astId": 9149,
            "contract": "contracts/broker/Broker.sol:Broker",
            "label": "multiplier",
            "offset": 0,
            "slot": "2",
            "type": "t_uint256"
          },
          {
            "astId": 9151,
            "contract": "contracts/broker/Broker.sol:Broker",
            "label": "opening",
            "offset": 0,
            "slot": "3",
            "type": "t_uint256"
          },
          {
            "astId": 9153,
            "contract": "contracts/broker/Broker.sol:Broker",
            "label": "stock",
            "offset": 0,
            "slot": "4",
            "type": "t_uint256"
          },
          {
            "astId": 9155,
            "contract": "contracts/broker/Broker.sol:Broker",
            "label": "nbOfProposals",
            "offset": 0,
            "slot": "5",
            "type": "t_uint256"
          },
          {
            "astId": 9160,
            "contract": "contracts/broker/Broker.sol:Broker",
            "label": "proposals",
            "offset": 0,
            "slot": "6",
            "type": "t_mapping(t_uint256,t_struct(Proposal)9089_storage)"
          },
          {
            "astId": 9162,
            "contract": "contracts/broker/Broker.sol:Broker",
            "label": "flash",
            "offset": 0,
            "slot": "7",
            "type": "t_bool"
          },
          {
            "astId": 9164,
            "contract": "contracts/broker/Broker.sol:Broker",
            "label": "escape",
            "offset": 1,
            "slot": "7",
            "type": "t_bool"
          }
        ],
        "numberOfBytes": "256"
      },
      "t_struct(Set)6535_storage": {
        "encoding": "inplace",
        "label": "struct EnumerableSet.Set",
        "members": [
          {
            "astId": 6530,
            "contract": "contracts/broker/Broker.sol:Broker",
            "label": "_values",
            "offset": 0,
            "slot": "0",
            "type": "t_array(t_bytes32)dyn_storage"
          },
          {
            "astId": 6534,
            "contract": "contracts/broker/Broker.sol:Broker",
            "label": "_indexes",
            "offset": 0,
            "slot": "1",
            "type": "t_mapping(t_bytes32,t_uint256)"
          }
        ],
        "numberOfBytes": "64"
      },
      "t_uint256": {
        "encoding": "inplace",
        "label": "uint256",
        "numberOfBytes": "32"
      }
    }
  }
}