{
  "address": "0xcc96Fc5EC76f3e33Fce37f0700AcC53259040472",
  "abi": [
    {
      "inputs": [
        {
          "internalType": "contract IVault",
          "name": "vault_",
          "type": "address"
        },
        {
          "internalType": "contract IIssuer",
          "name": "issuer_",
          "type": "address"
        },
        {
          "internalType": "address",
          "name": "bank_",
          "type": "address"
        },
        {
          "internalType": "uint256",
          "name": "protocolFee_",
          "type": "uint256"
        }
      ],
      "stateMutability": "nonpayable",
      "type": "constructor"
    },
    {
      "anonymous": false,
      "inputs": [
        {
          "indexed": true,
          "internalType": "contract sIERC20",
          "name": "sERC20",
          "type": "address"
        },
        {
          "indexed": true,
          "internalType": "uint256",
          "name": "proposalId",
          "type": "uint256"
        }
      ],
      "name": "AcceptProposal",
      "type": "event"
    },
    {
      "anonymous": false,
      "inputs": [
        {
          "indexed": true,
          "internalType": "contract sIERC20",
          "name": "sERC20",
          "type": "address"
        },
        {
          "indexed": true,
          "internalType": "address",
          "name": "buyer",
          "type": "address"
        },
        {
          "indexed": false,
          "internalType": "uint256",
          "name": "value",
          "type": "uint256"
        },
        {
          "indexed": false,
          "internalType": "uint256",
          "name": "collateral",
          "type": "uint256"
        },
        {
          "indexed": false,
          "internalType": "uint256",
          "name": "fee",
          "type": "uint256"
        }
      ],
      "name": "Buyout",
      "type": "event"
    },
    {
      "anonymous": false,
      "inputs": [
        {
          "indexed": true,
          "internalType": "contract sIERC20",
          "name": "sERC20",
          "type": "address"
        },
        {
          "indexed": true,
          "internalType": "address",
          "name": "holder",
          "type": "address"
        },
        {
          "indexed": false,
          "internalType": "uint256",
          "name": "value",
          "type": "uint256"
        },
        {
          "indexed": false,
          "internalType": "uint256",
          "name": "collateral",
          "type": "uint256"
        }
      ],
      "name": "Claim",
      "type": "event"
    },
    {
      "anonymous": false,
      "inputs": [
        {
          "indexed": true,
          "internalType": "contract sIERC20",
          "name": "sERC20",
          "type": "address"
        },
        {
          "indexed": true,
          "internalType": "uint256",
          "name": "proposalId",
          "type": "uint256"
        },
        {
          "indexed": true,
          "internalType": "address",
          "name": "buyer",
          "type": "address"
        },
        {
          "indexed": false,
          "internalType": "uint256",
          "name": "value",
          "type": "uint256"
        },
        {
          "indexed": false,
          "internalType": "uint256",
          "name": "collateral",
          "type": "uint256"
        },
        {
          "indexed": false,
          "internalType": "uint256",
          "name": "expiration",
          "type": "uint256"
        }
      ],
      "name": "CreateProposal",
      "type": "event"
    },
    {
      "anonymous": false,
      "inputs": [
        {
          "indexed": true,
          "internalType": "contract sIERC20",
          "name": "sERC20",
          "type": "address"
        }
      ],
      "name": "DisableEscape",
      "type": "event"
    },
    {
      "anonymous": false,
      "inputs": [
        {
          "indexed": true,
          "internalType": "contract sIERC20",
          "name": "sERC20",
          "type": "address"
        }
      ],
      "name": "EnableEscape",
      "type": "event"
    },
    {
      "anonymous": false,
      "inputs": [
        {
          "indexed": true,
          "internalType": "contract sIERC20",
          "name": "sERC20",
          "type": "address"
        }
      ],
      "name": "EnableFlashBuyout",
      "type": "event"
    },
    {
      "anonymous": false,
      "inputs": [
        {
          "indexed": true,
          "internalType": "contract sIERC20",
          "name": "sERC20",
          "type": "address"
        },
        {
          "indexed": true,
          "internalType": "address",
          "name": "beneficiary",
          "type": "address"
        },
        {
          "indexed": false,
          "internalType": "bytes",
          "name": "data",
          "type": "bytes"
        }
      ],
      "name": "Escape",
      "type": "event"
    },
    {
      "anonymous": false,
      "inputs": [
        {
          "indexed": true,
          "internalType": "contract sIERC20",
          "name": "sERC20",
          "type": "address"
        },
        {
          "indexed": true,
          "internalType": "address",
          "name": "guardian",
          "type": "address"
        },
        {
          "indexed": false,
          "internalType": "uint256",
          "name": "reserve",
          "type": "uint256"
        },
        {
          "indexed": false,
          "internalType": "uint256",
          "name": "multiplier",
          "type": "uint256"
        },
        {
          "indexed": false,
          "internalType": "uint256",
          "name": "opening",
          "type": "uint256"
        }
      ],
      "name": "Register",
      "type": "event"
    },
    {
      "anonymous": false,
      "inputs": [
        {
          "indexed": true,
          "internalType": "contract sIERC20",
          "name": "sERC20",
          "type": "address"
        },
        {
          "indexed": true,
          "internalType": "uint256",
          "name": "proposalId",
          "type": "uint256"
        }
      ],
      "name": "RejectProposal",
      "type": "event"
    },
    {
      "anonymous": false,
      "inputs": [
        {
          "indexed": true,
          "internalType": "bytes32",
          "name": "role",
          "type": "bytes32"
        },
        {
          "indexed": true,
          "internalType": "bytes32",
          "name": "previousAdminRole",
          "type": "bytes32"
        },
        {
          "indexed": true,
          "internalType": "bytes32",
          "name": "newAdminRole",
          "type": "bytes32"
        }
      ],
      "name": "RoleAdminChanged",
      "type": "event"
    },
    {
      "anonymous": false,
      "inputs": [
        {
          "indexed": true,
          "internalType": "bytes32",
          "name": "role",
          "type": "bytes32"
        },
        {
          "indexed": true,
          "internalType": "address",
          "name": "account",
          "type": "address"
        },
        {
          "indexed": true,
          "internalType": "address",
          "name": "sender",
          "type": "address"
        }
      ],
      "name": "RoleGranted",
      "type": "event"
    },
    {
      "anonymous": false,
      "inputs": [
        {
          "indexed": true,
          "internalType": "bytes32",
          "name": "role",
          "type": "bytes32"
        },
        {
          "indexed": true,
          "internalType": "address",
          "name": "account",
          "type": "address"
        },
        {
          "indexed": true,
          "internalType": "address",
          "name": "sender",
          "type": "address"
        }
      ],
      "name": "RoleRevoked",
      "type": "event"
    },
    {
      "anonymous": false,
      "inputs": [
        {
          "indexed": false,
          "internalType": "address",
          "name": "bank",
          "type": "address"
        }
      ],
      "name": "SetBank",
      "type": "event"
    },
    {
      "anonymous": false,
      "inputs": [
        {
          "indexed": false,
          "internalType": "uint256",
          "name": "protocolFee",
          "type": "uint256"
        }
      ],
      "name": "SetProtocolFee",
      "type": "event"
    },
    {
      "anonymous": false,
      "inputs": [
        {
          "indexed": true,
          "internalType": "contract sIERC20",
          "name": "sERC20",
          "type": "address"
        },
        {
          "indexed": false,
          "internalType": "uint256",
          "name": "reserve",
          "type": "uint256"
        }
      ],
      "name": "SetReserve",
      "type": "event"
    },
    {
      "anonymous": false,
      "inputs": [
        {
          "indexed": true,
          "internalType": "contract sIERC20",
          "name": "sERC20",
          "type": "address"
        },
        {
          "indexed": true,
          "internalType": "uint256",
          "name": "proposalId",
          "type": "uint256"
        }
      ],
      "name": "WithdrawProposal",
      "type": "event"
    },
    {
      "inputs": [],
      "name": "DECIMALS",
      "outputs": [
        {
          "internalType": "uint256",
          "name": "",
          "type": "uint256"
        }
      ],
      "stateMutability": "view",
      "type": "function"
    },
    {
      "inputs": [],
      "name": "DEFAULT_ADMIN_ROLE",
      "outputs": [
        {
          "internalType": "bytes32",
          "name": "",
          "type": "bytes32"
        }
      ],
      "stateMutability": "view",
      "type": "function"
    },
    {
      "inputs": [],
      "name": "ESCAPE_ROLE",
      "outputs": [
        {
          "internalType": "bytes32",
          "name": "",
          "type": "bytes32"
        }
      ],
      "stateMutability": "view",
      "type": "function"
    },
    {
      "inputs": [],
      "name": "HUNDRED",
      "outputs": [
        {
          "internalType": "uint256",
          "name": "",
          "type": "uint256"
        }
      ],
      "stateMutability": "view",
      "type": "function"
    },
    {
      "inputs": [],
      "name": "MINIMUM_TIMELOCK",
      "outputs": [
        {
          "internalType": "uint256",
          "name": "",
          "type": "uint256"
        }
      ],
      "stateMutability": "view",
      "type": "function"
    },
    {
      "inputs": [],
      "name": "REGISTER_ROLE",
      "outputs": [
        {
          "internalType": "bytes32",
          "name": "",
          "type": "bytes32"
        }
      ],
      "stateMutability": "view",
      "type": "function"
    },
    {
      "inputs": [
        {
          "internalType": "contract sIERC20[]",
          "name": "sERC20s",
          "type": "address[]"
        },
        {
          "internalType": "address[]",
          "name": "beneficiaries",
          "type": "address[]"
        },
        {
          "internalType": "bytes[]",
          "name": "datas",
          "type": "bytes[]"
        }
      ],
      "name": "_escape_",
      "outputs": [],
      "stateMutability": "nonpayable",
      "type": "function"
    },
    {
      "inputs": [
        {
          "internalType": "contract sIERC20",
          "name": "sERC20",
          "type": "address"
        },
        {
          "internalType": "uint256",
          "name": "proposalId",
          "type": "uint256"
        }
      ],
      "name": "acceptProposal",
      "outputs": [],
      "stateMutability": "nonpayable",
      "type": "function"
    },
    {
      "inputs": [],
      "name": "bank",
      "outputs": [
        {
          "internalType": "address",
          "name": "",
          "type": "address"
        }
      ],
      "stateMutability": "view",
      "type": "function"
    },
    {
      "inputs": [
        {
          "internalType": "contract sIERC20",
          "name": "sERC20",
          "type": "address"
        }
      ],
      "name": "buyout",
      "outputs": [],
      "stateMutability": "payable",
      "type": "function"
    },
    {
      "inputs": [
        {
          "internalType": "contract sIERC20",
          "name": "sERC20",
          "type": "address"
        }
      ],
      "name": "claim",
      "outputs": [],
      "stateMutability": "nonpayable",
      "type": "function"
    },
    {
      "inputs": [
        {
          "internalType": "contract sIERC20",
          "name": "sERC20",
          "type": "address"
        },
        {
          "internalType": "uint256",
          "name": "lifespan",
          "type": "uint256"
        }
      ],
      "name": "createProposal",
      "outputs": [
        {
          "internalType": "uint256",
          "name": "",
          "type": "uint256"
        }
      ],
      "stateMutability": "payable",
      "type": "function"
    },
    {
      "inputs": [
        {
          "internalType": "contract sIERC20",
          "name": "sERC20",
          "type": "address"
        }
      ],
      "name": "disableEscape",
      "outputs": [],
      "stateMutability": "nonpayable",
      "type": "function"
    },
    {
      "inputs": [
        {
          "internalType": "contract sIERC20",
          "name": "sERC20",
          "type": "address"
        }
      ],
      "name": "enableEscape",
      "outputs": [],
      "stateMutability": "nonpayable",
      "type": "function"
    },
    {
      "inputs": [
        {
          "internalType": "contract sIERC20",
          "name": "sERC20",
          "type": "address"
        }
      ],
      "name": "enableFlashBuyout",
      "outputs": [],
      "stateMutability": "nonpayable",
      "type": "function"
    },
    {
      "inputs": [
        {
          "internalType": "bytes32",
          "name": "role",
          "type": "bytes32"
        }
      ],
      "name": "getRoleAdmin",
      "outputs": [
        {
          "internalType": "bytes32",
          "name": "",
          "type": "bytes32"
        }
      ],
      "stateMutability": "view",
      "type": "function"
    },
    {
      "inputs": [
        {
          "internalType": "bytes32",
          "name": "role",
          "type": "bytes32"
        },
        {
          "internalType": "uint256",
          "name": "index",
          "type": "uint256"
        }
      ],
      "name": "getRoleMember",
      "outputs": [
        {
          "internalType": "address",
          "name": "",
          "type": "address"
        }
      ],
      "stateMutability": "view",
      "type": "function"
    },
    {
      "inputs": [
        {
          "internalType": "bytes32",
          "name": "role",
          "type": "bytes32"
        }
      ],
      "name": "getRoleMemberCount",
      "outputs": [
        {
          "internalType": "uint256",
          "name": "",
          "type": "uint256"
        }
      ],
      "stateMutability": "view",
      "type": "function"
    },
    {
      "inputs": [
        {
          "internalType": "bytes32",
          "name": "role",
          "type": "bytes32"
        },
        {
          "internalType": "address",
          "name": "account",
          "type": "address"
        }
      ],
      "name": "grantRole",
      "outputs": [],
      "stateMutability": "nonpayable",
      "type": "function"
    },
    {
      "inputs": [
        {
          "internalType": "bytes32",
          "name": "role",
          "type": "bytes32"
        },
        {
          "internalType": "address",
          "name": "account",
          "type": "address"
        }
      ],
      "name": "hasRole",
      "outputs": [
        {
          "internalType": "bool",
          "name": "",
          "type": "bool"
        }
      ],
      "stateMutability": "view",
      "type": "function"
    },
    {
      "inputs": [],
      "name": "issuer",
      "outputs": [
        {
          "internalType": "contract IIssuer",
          "name": "",
          "type": "address"
        }
      ],
      "stateMutability": "view",
      "type": "function"
    },
    {
      "inputs": [
        {
          "internalType": "contract sIERC20",
          "name": "sERC20",
          "type": "address"
        },
        {
          "internalType": "address",
          "name": "buyer",
          "type": "address"
        }
      ],
      "name": "priceOfFor",
      "outputs": [
        {
          "internalType": "uint256",
          "name": "value",
          "type": "uint256"
        },
        {
          "internalType": "uint256",
          "name": "collateral",
          "type": "uint256"
        }
      ],
      "stateMutability": "view",
      "type": "function"
    },
    {
      "inputs": [
        {
          "internalType": "contract sIERC20",
          "name": "sERC20",
          "type": "address"
        },
        {
          "internalType": "uint256",
          "name": "proposalId",
          "type": "uint256"
        }
      ],
      "name": "proposalFor",
      "outputs": [
        {
          "internalType": "enum Proposals.State",
          "name": "state",
          "type": "uint8"
        },
        {
          "internalType": "address",
          "name": "buyer",
          "type": "address"
        },
        {
          "internalType": "uint256",
          "name": "value",
          "type": "uint256"
        },
        {
          "internalType": "uint256",
          "name": "collateral",
          "type": "uint256"
        },
        {
          "internalType": "uint256",
          "name": "expiration",
          "type": "uint256"
        }
      ],
      "stateMutability": "view",
      "type": "function"
    },
    {
      "inputs": [],
      "name": "protocolFee",
      "outputs": [
        {
          "internalType": "uint256",
          "name": "",
          "type": "uint256"
        }
      ],
      "stateMutability": "view",
      "type": "function"
    },
    {
      "inputs": [
        {
          "internalType": "contract sIERC20",
          "name": "sERC20",
          "type": "address"
        },
        {
          "internalType": "address",
          "name": "guardian",
          "type": "address"
        },
        {
          "internalType": "uint256",
          "name": "reserve",
          "type": "uint256"
        },
        {
          "internalType": "uint256",
          "name": "multiplier",
          "type": "uint256"
        },
        {
          "internalType": "uint256",
          "name": "timelock",
          "type": "uint256"
        },
        {
          "internalType": "bool",
          "name": "flash",
          "type": "bool"
        },
        {
          "internalType": "bool",
          "name": "escape",
          "type": "bool"
        },
        {
          "internalType": "bool",
          "name": "cap",
          "type": "bool"
        }
      ],
      "name": "register",
      "outputs": [],
      "stateMutability": "nonpayable",
      "type": "function"
    },
    {
      "inputs": [
        {
          "internalType": "contract sIERC20",
          "name": "sERC20",
          "type": "address"
        },
        {
          "internalType": "uint256",
          "name": "proposalId",
          "type": "uint256"
        }
      ],
      "name": "rejectProposal",
      "outputs": [],
      "stateMutability": "nonpayable",
      "type": "function"
    },
    {
      "inputs": [
        {
          "internalType": "bytes32",
          "name": "role",
          "type": "bytes32"
        },
        {
          "internalType": "address",
          "name": "account",
          "type": "address"
        }
      ],
      "name": "renounceRole",
      "outputs": [],
      "stateMutability": "nonpayable",
      "type": "function"
    },
    {
      "inputs": [
        {
          "internalType": "bytes32",
          "name": "role",
          "type": "bytes32"
        },
        {
          "internalType": "address",
          "name": "account",
          "type": "address"
        }
      ],
      "name": "revokeRole",
      "outputs": [],
      "stateMutability": "nonpayable",
      "type": "function"
    },
    {
      "inputs": [
        {
          "internalType": "contract sIERC20",
          "name": "sERC20",
          "type": "address"
        }
      ],
      "name": "saleOf",
      "outputs": [
        {
          "internalType": "enum Sales.State",
          "name": "state",
          "type": "uint8"
        },
        {
          "internalType": "address",
          "name": "guardian",
          "type": "address"
        },
        {
          "internalType": "uint256",
          "name": "reserve",
          "type": "uint256"
        },
        {
          "internalType": "uint256",
          "name": "multiplier",
          "type": "uint256"
        },
        {
          "internalType": "uint256",
          "name": "opening",
          "type": "uint256"
        },
        {
          "internalType": "uint256",
          "name": "stock",
          "type": "uint256"
        },
        {
          "internalType": "uint256",
          "name": "nbOfProposals",
          "type": "uint256"
        },
        {
          "internalType": "bool",
          "name": "flash",
          "type": "bool"
        },
        {
          "internalType": "bool",
          "name": "escape",
          "type": "bool"
        },
        {
          "internalType": "bool",
          "name": "cap",
          "type": "bool"
        }
      ],
      "stateMutability": "view",
      "type": "function"
    },
    {
      "inputs": [
        {
          "internalType": "address",
          "name": "bank_",
          "type": "address"
        }
      ],
      "name": "setBank",
      "outputs": [],
      "stateMutability": "nonpayable",
      "type": "function"
    },
    {
      "inputs": [
        {
          "internalType": "uint256",
          "name": "protocolFee_",
          "type": "uint256"
        }
      ],
      "name": "setProtocolFee",
      "outputs": [],
      "stateMutability": "nonpayable",
      "type": "function"
    },
    {
      "inputs": [
        {
          "internalType": "contract sIERC20",
          "name": "sERC20",
          "type": "address"
        },
        {
          "internalType": "uint256",
          "name": "reserve",
          "type": "uint256"
        }
      ],
      "name": "setReserve",
      "outputs": [],
      "stateMutability": "nonpayable",
      "type": "function"
    },
    {
      "inputs": [
        {
          "internalType": "bytes4",
          "name": "interfaceId",
          "type": "bytes4"
        }
      ],
      "name": "supportsInterface",
      "outputs": [
        {
          "internalType": "bool",
          "name": "",
          "type": "bool"
        }
      ],
      "stateMutability": "view",
      "type": "function"
    },
    {
      "inputs": [],
      "name": "vault",
      "outputs": [
        {
          "internalType": "contract IVault",
          "name": "",
          "type": "address"
        }
      ],
      "stateMutability": "view",
      "type": "function"
    },
    {
      "inputs": [
        {
          "internalType": "contract sIERC20",
          "name": "sERC20",
          "type": "address"
        },
        {
          "internalType": "uint256",
          "name": "proposalId",
          "type": "uint256"
        }
      ],
      "name": "withdrawProposal",
      "outputs": [],
      "stateMutability": "nonpayable",
      "type": "function"
    }
  ],
  "transactionHash": "0x33c4a006d550394cb315519e35e938a1f9014864fdfe855f91ca6ea77ab5ad86",
  "args": [
    "0xbf12B6f6aC465ede4bd33AA7831AcBbE0158E0cD",
    "0x1Cd0BA4F9e7DDFEf1A0Ab78642e29febdA68a2a7",
    "0x8873b045d40a458e46e356a96279ae1820a898ba",
    "3000000000000000000"
  ],
  "solcInputHash": "f809cd6438af857252ae6c36d2bc1996",
  "bytecode": "0x60c06040523480156200001157600080fd5b506040516200450f3803806200450f83398101604081905262000034916200042c565b6001600160a01b038416620000a15760405162461bcd60e51b815260206004820152602860248201527f42726f6b65723a207661756c742063616e6e6f7420626520746865207a65726f604482015267206164647265737360c01b60648201526084015b60405180910390fd5b6001600160a01b0383166200010b5760405162461bcd60e51b815260206004820152602960248201527f42726f6b65723a206973737565722063616e6e6f7420626520746865207a65726044820152686f206164647265737360b81b606482015260840162000098565b6001600160a01b038216620001735760405162461bcd60e51b815260206004820152602760248201527f42726f6b65723a2062616e6b2063616e6e6f7420626520746865207a65726f206044820152666164647265737360c81b606482015260840162000098565b68056bc75e2d631000008110620001e35760405162461bcd60e51b815260206004820152602d60248201527f42726f6b65723a2070726f746f636f6c20666565206d75737420626520696e6660448201526c6572696f7220746f203130302560981b606482015260840162000098565b6001600160a01b03808516608052831660a052620002018262000223565b6200020c8162000278565b62000219600033620002ae565b5050505062000486565b600280546001600160a01b0319166001600160a01b0383169081179091556040519081527f10f5824683d64a0712038f2244e046b174a1cc57fbb8556bfda5ffb261244067906020015b60405180910390a150565b60038190556040518181527fdc0410a296e1e33943a772020d333d5f99319d7fcad932a484c53889f7aaa2b1906020016200026d565b620002c58282620002f160201b620027d61760201c565b6000828152600160209081526040909120620002ec918390620027e462000301821b17901c565b505050565b620002fd828262000321565b5050565b600062000318836001600160a01b038416620003c1565b90505b92915050565b6000828152602081815260408083206001600160a01b038516845290915290205460ff16620002fd576000828152602081815260408083206001600160a01b03851684529091529020805460ff191660011790556200037d3390565b6001600160a01b0316816001600160a01b0316837f2f8788117e7eff1d82e926ec794901d17c78024a50270940304540a733656f0d60405160405180910390a45050565b60008181526001830160205260408120546200040a575081546001818101845560008481526020808220909301849055845484825282860190935260409020919091556200031b565b5060006200031b565b6001600160a01b03811681146200042957600080fd5b50565b600080600080608085870312156200044357600080fd5b8451620004508162000413565b6020860151909450620004638162000413565b6040860151909350620004768162000413565b6060959095015193969295505050565b60805160a051614047620004c8600039600081816102bf01528181612c1d015261325301526000818161072a015281816125a70152612f8301526140476000f3fe6080604052600436106102345760003560e01c806378250b6311610138578063ca15c873116100b0578063eb3aebbf1161007f578063f3df1e3211610064578063f3df1e32146106cd578063f85fc0ab146106fe578063fbfa77cf1461071b57600080fd5b8063eb3aebbf14610679578063edc6b9bd1461069957600080fd5b8063ca15c87314610606578063d547741f14610626578063d6df940f14610646578063dfc51a251461066657600080fd5b8063a217fddf11610107578063b0913a13116100ec578063b0913a131461059c578063b0e21e8a146105bc578063c0f0a4c8146105d157600080fd5b8063a217fddf14610551578063ad34b2451461056657600080fd5b806378250b63146104ad578063787dce3d146104cd5780639010d07c146104ed57806391d148541461050d57600080fd5b806336568abe116101cb57806360b191cb1161019a57806373f96d8e1161017f57806373f96d8e1461043b57806374f533171461045b57806376cdb03b1461048f57600080fd5b806360b191cb1461040857806367e9bdad1461042857600080fd5b806336568abe146103915780634209f150146103b15780634bbeb413146103d15780635168e1a1146103e857600080fd5b80631e83409a116102075780631e83409a146102f7578063248a9ca3146103175780632e0f2625146103555780632f2ff15d1461037157600080fd5b806301ffc9a71461023957806303eb01761461026e578063090d23b9146102905780631d143848146102b0575b600080fd5b34801561024557600080fd5b5061025961025436600461397e565b61074e565b60405190151581526020015b60405180910390f35b34801561027a57600080fd5b5061028e6102893660046139d5565b6107aa565b005b34801561029c57600080fd5b5061028e6102ab3660046139d5565b610946565b3480156102bc57600080fd5b507f00000000000000000000000000000000000000000000000000000000000000005b6040516001600160a01b039091168152602001610265565b34801561030357600080fd5b5061028e6103123660046139d5565b610a4b565b34801561032357600080fd5b506103476103323660046139f2565b60009081526020819052604090206001015490565b604051908152602001610265565b34801561036157600080fd5b50610347670de0b6b3a764000081565b34801561037d57600080fd5b5061028e61038c366004613a0b565b610d4c565b34801561039d57600080fd5b5061028e6103ac366004613a0b565b610d6e565b3480156103bd57600080fd5b5061028e6103cc366004613a3b565b610d90565b3480156103dd57600080fd5b5061034762093a8081565b3480156103f457600080fd5b5061028e610403366004613a3b565b610fde565b34801561041457600080fd5b5061028e6104233660046139d5565b61126f565b61028e6104363660046139d5565b611422565b34801561044757600080fd5b5061028e6104563660046139d5565b611570565b34801561046757600080fd5b506103477fd1f21ec03a6eb050fba156f5316dad461735df521fb446dd42c5a4728e9c70fe81565b34801561049b57600080fd5b506002546001600160a01b03166102df565b3480156104b957600080fd5b5061028e6104c8366004613a3b565b611703565b3480156104d957600080fd5b5061028e6104e83660046139f2565b61187d565b3480156104f957600080fd5b506102df610508366004613a67565b611981565b34801561051957600080fd5b50610259610528366004613a0b565b6000918252602082815260408084206001600160a01b0393909316845291905290205460ff1690565b34801561055d57600080fd5b50610347600081565b34801561057257600080fd5b506105866105813660046139d5565b6119a0565b6040516102659a99989796959493929190613aaf565b3480156105a857600080fd5b5061028e6105b7366004613a3b565b611a6a565b3480156105c857600080fd5b50600354610347565b3480156105dd57600080fd5b506105f16105ec366004613b11565b611cfb565b60408051928352602083019190915201610265565b34801561061257600080fd5b506103476106213660046139f2565b611d2d565b34801561063257600080fd5b5061028e610641366004613a0b565b611d44565b34801561065257600080fd5b5061028e610661366004613b4d565b611d4e565b610347610674366004613a3b565b612047565b34801561068557600080fd5b5061028e610694366004613c20565b61237d565b3480156106a557600080fd5b506103477f12630b13fc535892fff29cd260a4eee87eac2069149688d850fa73ac0322e12081565b3480156106d957600080fd5b506106ed6106e8366004613a3b565b61276d565b604051610265959493929190613cba565b34801561070a57600080fd5b5061034768056bc75e2d6310000081565b34801561072757600080fd5b507f00000000000000000000000000000000000000000000000000000000000000006102df565b60007fffffffff0000000000000000000000000000000000000000000000000000000082167f5a05180f0000000000000000000000000000000000000000000000000000000014806107a457506107a4826127f9565b92915050565b6001600160a01b0381166000908152600460205260408120906107cc82612890565b825490915061010090046001600160a01b0316336001600160a01b0316146108615760405162461bcd60e51b815260206004820152603160248201527f42726f6b65723a206d7573742062652073616c65277320677561726469616e2060448201527f746f2064697361626c652065736361706500000000000000000000000000000060648201526084015b60405180910390fd5b600181600381111561087557610875613a89565b14806108925750600281600381111561089057610890613a89565b145b6108de5760405162461bcd60e51b815260206004820152601a60248201527f42726f6b65723a20696e76616c69642073616c652073746174650000000000006044820152606401610858565b6007820154610100900460ff166109375760405162461bcd60e51b815260206004820152601f60248201527f42726f6b65723a2065736361706520616c72656164792064697361626c6564006044820152606401610858565b61094183836128cb565b505050565b610951600033610528565b6109c35760405162461bcd60e51b815260206004820152603060248201527f42726f6b65723a206d75737420686176652044454641554c545f41444d494e5f60448201527f524f4c4520746f207365742062616e6b000000000000000000000000000000006064820152608401610858565b6001600160a01b038116610a3f5760405162461bcd60e51b815260206004820152602760248201527f42726f6b65723a2062616e6b2063616e6e6f7420626520746865207a65726f2060448201527f61646472657373000000000000000000000000000000000000000000000000006064820152608401610858565b610a4881612910565b50565b6001600160a01b038116600090815260046020526040812090336040517f70a082310000000000000000000000000000000000000000000000000000000081526001600160a01b0380831660048301529192506000918516906370a082319060240160206040518083038186803b158015610ac557600080fd5b505afa158015610ad9573d6000803e3d6000fd5b505050506040513d601f19601f82011682018060405250810190610afd9190613cf1565b90506003610b0a84612890565b6003811115610b1b57610b1b613a89565b14610b685760405162461bcd60e51b815260206004820152601a60248201527f42726f6b65723a20696e76616c69642073616c652073746174650000000000006044820152606401610858565b60008111610bb85760405162461bcd60e51b815260206004820152601860248201527f42726f6b65723a206e6f7468696e6720746f20636c61696d00000000000000006044820152606401610858565b6000846001600160a01b03166318160ddd6040518163ffffffff1660e01b815260040160206040518083038186803b158015610bf357600080fd5b505afa158015610c07573d6000803e3d6000fd5b505050506040513d601f19601f82011682018060405250810190610c2b9190613cf1565b828560040154610c3b9190613d20565b610c459190613d3f565b905080846004016000828254610c5b9190613d61565b90915550506040517f79cc67900000000000000000000000000000000000000000000000000000000081526001600160a01b038481166004830152602482018490528616906379cc679090604401600060405180830381600087803b158015610cc357600080fd5b505af1158015610cd7573d6000803e3d6000fd5b50610cef925050506001600160a01b0384168261297d565b826001600160a01b0316856001600160a01b03167f865ca08d59f5cb456e85cd2f7ef63664ea4f73327414e9d8152c4158b0e946458385604051610d3d929190918252602082015260400190565b60405180910390a35050505050565b610d568282612a96565b600082815260016020526040902061094190826127e4565b610d788282612abc565b60008281526001602052604090206109419082612b44565b6001600160a01b03828116600090815260046020908152604080832085845260068101909252909120815491929091610100900416336001600160a01b031614610e425760405162461bcd60e51b815260206004820152603260248201527f42726f6b65723a206d7573742062652073616c65277320677561726469616e2060448201527f746f206163636570742070726f706f73616c00000000000000000000000000006064820152608401610858565b6002610e4d83612890565b6003811115610e5e57610e5e613a89565b14610eab5760405162461bcd60e51b815260206004820152601a60248201527f42726f6b65723a20696e76616c69642073616c652073746174650000000000006044820152606401610858565b6001610eb682612b59565b6003811115610ec757610ec7613a89565b14610f145760405162461bcd60e51b815260206004820152601e60248201527f42726f6b65723a20696e76616c69642070726f706f73616c20737461746500006044820152606401610858565b600782015460ff1615610f695760405162461bcd60e51b815260206004820152601f60248201527f42726f6b65723a20666c617368206275796f757420697320656e61626c6564006044820152606401610858565b805460ff1916600217815560405183906001600160a01b038616907fb68b23f18c187dede5027186d7dae9fda610a1ce0d025876dd7fb1fa9c52250790600090a3610fd884838360000160019054906101000a90046001600160a01b0316846001015485600201546001612ba9565b50505050565b6001600160a01b0382166000908152600460209081526040808320848452600681019092528220909161101082612b59565b825490915061010090046001600160a01b0316336001600160a01b0316146110a05760405162461bcd60e51b815260206004820152603560248201527f42726f6b65723a206d7573742062652070726f706f73616c277320627579657260448201527f20746f2077697468647261772070726f706f73616c00000000000000000000006064820152608401610858565b60018160038111156110b4576110b4613a89565b14806110d1575060038160038111156110cf576110cf613a89565b145b61111d5760405162461bcd60e51b815260206004820152601e60248201527f42726f6b65723a20696e76616c69642070726f706f73616c20737461746500006044820152606401610858565b8154600180840154600280860154600089815260068901602052604080822080547fffffffffffffffffffffff000000000000000000000000000000000000000000168155958601829055928501819055600390940193909355517fa9059cbb0000000000000000000000000000000000000000000000000000000081526001600160a01b03610100909404841660048201819052602482018490529391929189169063a9059cbb90604401602060405180830381600087803b1580156111e357600080fd5b505af11580156111f7573d6000803e3d6000fd5b505050506040513d601f19601f8201168201806040525081019061121b9190613d78565b5061122f6001600160a01b0384168361297d565b60405187906001600160a01b038a16907ffb591de3f595328713bb4313a53f62d518cfcdbc6b8efd8e1824d80d1d0d03fb90600090a35050505050505050565b6001600160a01b03811660009081526004602052604081209061129182612890565b825490915061010090046001600160a01b0316336001600160a01b0316146113215760405162461bcd60e51b815260206004820152603660248201527f42726f6b65723a206d7573742062652073616c65277320677561726469616e2060448201527f746f20656e61626c6520666c617368206275796f7574000000000000000000006064820152608401610858565b600181600381111561133557611335613a89565b14806113525750600281600381111561135057611350613a89565b145b61139e5760405162461bcd60e51b815260206004820152601a60248201527f42726f6b65723a20696e76616c69642073616c652073746174650000000000006044820152606401610858565b600782015460ff16156114185760405162461bcd60e51b8152602060048201526024808201527f42726f6b65723a20666c617368206275796f757420616c726561647920656e6160448201527f626c6564000000000000000000000000000000000000000000000000000000006064820152608401610858565b6109418383613058565b6001600160a01b0381166000908152600460205260409020600261144582612890565b600381111561145657611456613a89565b146114a35760405162461bcd60e51b815260206004820152601a60248201527f42726f6b65723a20696e76616c69642073616c652073746174650000000000006044820152606401610858565b600781015460ff166114f75760405162461bcd60e51b815260206004820181905260248201527f42726f6b65723a20666c617368206275796f75742069732064697361626c65646044820152606401610858565b3360008061150685858561309f565b915091508134101561155a5760405162461bcd60e51b815260206004820152601a60248201527f42726f6b65723a20696e73756666696369656e742076616c75650000000000006044820152606401610858565b61156985858534856000612ba9565b5050505050565b6001600160a01b03811660009081526004602052604081209061159282612890565b825490915061010090046001600160a01b0316336001600160a01b0316146116225760405162461bcd60e51b815260206004820152603060248201527f42726f6b65723a206d7573742062652073616c65277320677561726469616e2060448201527f746f20656e61626c6520657363617065000000000000000000000000000000006064820152608401610858565b600181600381111561163657611636613a89565b14806116535750600281600381111561165157611651613a89565b145b61169f5760405162461bcd60e51b815260206004820152601a60248201527f42726f6b65723a20696e76616c69642073616c652073746174650000000000006044820152606401610858565b6007820154610100900460ff16156116f95760405162461bcd60e51b815260206004820152601e60248201527f42726f6b65723a2065736361706520616c726561647920656e61626c656400006044820152606401610858565b6109418383613394565b6001600160a01b03821660009081526004602052604081209061172582612890565b825490915061010090046001600160a01b0316336001600160a01b0316146117b55760405162461bcd60e51b815260206004820152602e60248201527f42726f6b65723a206d7573742062652073616c65277320677561726469616e2060448201527f746f2073657420726573657276650000000000000000000000000000000000006064820152608401610858565b60018160038111156117c9576117c9613a89565b14806117e6575060028160038111156117e4576117e4613a89565b145b6118325760405162461bcd60e51b815260206004820152601a60248201527f42726f6b65723a20696e76616c69642073616c652073746174650000000000006044820152606401610858565b600182018390556040518381526001600160a01b038516907f9241e21d4fa6dd55661c8694538bfc11a7d44d81d5766840312d2513f55fa67d9060200160405180910390a250505050565b611888600033610528565b6118fa5760405162461bcd60e51b815260206004820152603860248201527f42726f6b65723a206d75737420686176652044454641554c545f41444d494e5f60448201527f524f4c4520746f207365742070726f746f636f6c2066656500000000000000006064820152608401610858565b68056bc75e2d6310000081106119785760405162461bcd60e51b815260206004820152602d60248201527f42726f6b65723a2070726f746f636f6c20666565206d75737420626520696e6660448201527f6572696f7220746f2031303025000000000000000000000000000000000000006064820152608401610858565b610a48816133dd565b60008281526001602052604081206119999083613412565b9392505050565b6000806000806000806000806000806000600460008d6001600160a01b03166001600160a01b0316815260200190815260200160002090506119e181612890565b9a508060000160019054906101000a90046001600160a01b0316995080600101549850806002015497508060030154965080600401549550806005015494508060070160009054906101000a900460ff1693508060070160019054906101000a900460ff1692508060070160029054906101000a900460ff169150509193959799509193959799565b6001600160a01b03821660009081526004602090815260408083208484526006810190925282209091611a9c82612b59565b835490915061010090046001600160a01b0316336001600160a01b031614611b2c5760405162461bcd60e51b815260206004820152603260248201527f42726f6b65723a206d7573742062652073616c65277320677561726469616e2060448201527f746f2072656a6563742070726f706f73616c00000000000000000000000000006064820152608401610858565b6001816003811115611b4057611b40613a89565b1480611b5d57506003816003811115611b5b57611b5b613a89565b145b611ba95760405162461bcd60e51b815260206004820152601e60248201527f42726f6b65723a20696e76616c69642070726f706f73616c20737461746500006044820152606401610858565b8154600180840154600280860154600089815260068901602052604080822080547fffffffffffffffffffffff000000000000000000000000000000000000000000168155958601829055928501819055600390940193909355517fa9059cbb0000000000000000000000000000000000000000000000000000000081526001600160a01b03610100909404841660048201819052602482018490529391929189169063a9059cbb90604401602060405180830381600087803b158015611c6f57600080fd5b505af1158015611c83573d6000803e3d6000fd5b505050506040513d601f19601f82011682018060405250810190611ca79190613d78565b50611cbb6001600160a01b0384168361297d565b60405187906001600160a01b038a16907f123432125627249bc47aca642b7e775249fbacf9c32f467ef8eade2c0bd859e990600090a35050505050505050565b6001600160a01b03821660009081526004602052604081208190611d219085908561309f565b915091505b9250929050565b60008181526001602052604081206107a49061341e565b610d788282613428565b6001600160a01b0388166000908152600460205260409020611d907fd1f21ec03a6eb050fba156f5316dad461735df521fb446dd42c5a4728e9c70fe33610528565b611e025760405162461bcd60e51b815260206004820152602b60248201527f42726f6b65723a206d75737420686176652052454749535445525f524f4c452060448201527f746f2072656769737465720000000000000000000000000000000000000000006064820152608401610858565b6000611e0d82612890565b6003811115611e1e57611e1e613a89565b14611e6b5760405162461bcd60e51b815260206004820152601f60248201527f42726f6b65723a2073616c6520616c72656164792072656769737465726564006044820152606401610858565b6001600160a01b038816611ee75760405162461bcd60e51b815260206004820152602b60248201527f42726f6b65723a20677561726469616e2063616e6e6f7420626520746865207a60448201527f65726f20616464726573730000000000000000000000000000000000000000006064820152608401610858565b62093a80851015611f3a5760405162461bcd60e51b815260206004820152601860248201527f42726f6b65723a20696e76616c69642074696d656c6f636b00000000000000006044820152606401610858565b805460017fffffffffffffffffffffff0000000000000000000000000000000000000000009091166101006001600160a01b038b16021781178255810187905560028101869055611f8b8542613d95565b60038201556007810180547fffffffffffffffffffffffffffffffffffffffffffffffffffffffffff00ffff1662010000841515021790556001600160a01b03888116908a167f960433c4e2767afac577684c6535af583fc391eb4d68dd65ec195cc868415f3e8989611ffe8a42613d95565b6040805193845260208401929092529082015260600160405180910390a3831561202c5761202c8982613058565b821561203c5761203c8982613394565b505050505050505050565b6001600160a01b0382166000908152600460205260408120600261206a82612890565b600381111561207b5761207b613a89565b146120c85760405162461bcd60e51b815260206004820152601a60248201527f42726f6b65723a20696e76616c69642073616c652073746174650000000000006044820152606401610858565b600781015460ff161561211d5760405162461bcd60e51b815260206004820152601f60248201527f42726f6b65723a20666c617368206275796f757420697320656e61626c6564006044820152606401610858565b3360008061212c87858561309f565b91509150813410156121805760405162461bcd60e51b815260206004820152601a60248201527f42726f6b65723a20696e73756666696369656e742076616c75650000000000006044820152606401610858565b8015612229576040517f23b872dd0000000000000000000000000000000000000000000000000000000081526001600160a01b038481166004830152306024830152604482018390528816906323b872dd90606401602060405180830381600087803b1580156121ef57600080fd5b505af1158015612203573d6000803e3d6000fd5b505050506040513d601f19601f820116820180604052508101906122279190613d78565b505b6005840180546000918261223c83613dad565b90915550905060008715612259576122548842613d95565b61225c565b60005b6040805160a0810190915290915080600181526001600160a01b03871660208083019190915234604080840191909152606083018790526080909201849052600085815260068a019091522081518154829060ff191660018360038111156122c6576122c6613a89565b021790555060208281015182547fffffffffffffffffffffff0000000000000000000000000000000000000000ff166101006001600160a01b03928316021783556040808501516001850155606080860151600286015560809095015160039094019390935582513481529182018790529181018490528782169285928d16917f2e0ff6e48a8a48aff6ceabfca8b39f5468c5d8537cda6f84bf3d138a057d63a9910160405180910390a450979650505050505050565b6123a77f12630b13fc535892fff29cd260a4eee87eac2069149688d850fa73ac0322e12033610528565b6124195760405162461bcd60e51b815260206004820152602c60248201527f42726f6b65723a206d7573742068617665204553434150455f524f4c4520746f60448201527f20657363617065204e46547300000000000000000000000000000000000000006064820152608401610858565b848314801561242757508481145b6124995760405162461bcd60e51b815260206004820152602360248201527f42726f6b65723a20706172616d6574657273206c656e67746873206d69736d6160448201527f74636800000000000000000000000000000000000000000000000000000000006064820152608401610858565b60005b8581101561276457600460008888848181106124ba576124ba613dc8565b90506020020160208101906124cf91906139d5565b6001600160a01b03168152602081019190915260400160002060070154610100900460ff166125405760405162461bcd60e51b815260206004820152601a60248201527f42726f6b65723a206573636170652069732064697361626c65640000000000006044820152606401610858565b60036004600089898581811061255857612558613dc8565b905060200201602081019061256d91906139d5565b6001600160a01b031681526020810191909152604001600020805460ff191660018360038111156125a0576125a0613a89565b02179055507f00000000000000000000000000000000000000000000000000000000000000006001600160a01b031663331d8e5d8888848181106125e6576125e6613dc8565b90506020020160208101906125fb91906139d5565b87878581811061260d5761260d613dc8565b905060200201602081019061262291906139d5565b86868681811061263457612634613dc8565b90506020028101906126469190613dde565b6040518563ffffffff1660e01b81526004016126659493929190613e6e565b600060405180830381600087803b15801561267f57600080fd5b505af1158015612693573d6000803e3d6000fd5b505050508484828181106126a9576126a9613dc8565b90506020020160208101906126be91906139d5565b6001600160a01b03168787838181106126d9576126d9613dc8565b90506020020160208101906126ee91906139d5565b6001600160a01b03167f9e96f699a3921fe6afbe2c81ca67fd4e9be84b27e8de6ae8e3c2eed964069b4f85858581811061272a5761272a613dc8565b905060200281019061273c9190613dde565b60405161274a929190613ea5565b60405180910390a38061275c81613dad565b91505061249c565b50505050505050565b6001600160a01b0382166000908152600460209081526040808320848452600601909152812081908190819081906127a481612b59565b815460018301546002840154600390940154929b6101009092046001600160a01b03169a509850919650945092505050565b6127e0828261344e565b5050565b6000611999836001600160a01b0384166134ec565b60007fffffffff0000000000000000000000000000000000000000000000000000000082167f7965db0b0000000000000000000000000000000000000000000000000000000014806107a457507f01ffc9a7000000000000000000000000000000000000000000000000000000007fffffffff000000000000000000000000000000000000000000000000000000008316146107a4565b805460009060ff1660018160038111156128ac576128ac613a89565b1480156128bd575082600301544210155b156107a45750600292915050565b60078101805461ff00191690556040516001600160a01b038316907f21f4c01ab6a34520ceec1edd87fd455cf97bce35cec51f04a1f49c17b6466f3790600090a25050565b600280547fffffffffffffffffffffffff0000000000000000000000000000000000000000166001600160a01b0383169081179091556040519081527f10f5824683d64a0712038f2244e046b174a1cc57fbb8556bfda5ffb261244067906020015b60405180910390a150565b804710156129cd5760405162461bcd60e51b815260206004820152601d60248201527f416464726573733a20696e73756666696369656e742062616c616e63650000006044820152606401610858565b6000826001600160a01b03168260405160006040518083038185875af1925050503d8060008114612a1a576040519150601f19603f3d011682016040523d82523d6000602084013e612a1f565b606091505b50509050806109415760405162461bcd60e51b815260206004820152603a60248201527f416464726573733a20756e61626c6520746f2073656e642076616c75652c207260448201527f6563697069656e74206d617920686176652072657665727465640000000000006064820152608401610858565b600082815260208190526040902060010154612ab2813361353b565b610941838361344e565b6001600160a01b0381163314612b3a5760405162461bcd60e51b815260206004820152602f60248201527f416363657373436f6e74726f6c3a2063616e206f6e6c792072656e6f756e636560448201527f20726f6c657320666f722073656c6600000000000000000000000000000000006064820152608401610858565b6127e082826135b9565b6000611999836001600160a01b038416613638565b8054600382015460009160ff16906001826003811115612b7b57612b7b613a89565b148015612b8757508015155b8015612b935750804210155b15612ba2575060039392505050565b5092915050565b600068056bc75e2d6310000060035485612bc39190613d20565b612bcd9190613d3f565b865460ff191660031787559050612be48185613d61565b6004808801919091556040517fc74073a10000000000000000000000000000000000000000000000000000000081526001600160a01b037f0000000000000000000000000000000000000000000000000000000000000000169163c74073a191612c5f918b91016001600160a01b0391909116815260200190565b600060405180830381600087803b158015612c7957600080fd5b505af1158015612c8d573d6000803e3d6000fd5b50505050600786015462010000900460ff1615612e35576000876001600160a01b031663355274ea6040518163ffffffff1660e01b815260040160206040518083038186803b158015612cdf57600080fd5b505afa158015612cf3573d6000803e3d6000fd5b505050506040513d601f19601f82011682018060405250810190612d179190613cf1565b90506000886001600160a01b03166318160ddd6040518163ffffffff1660e01b815260040160206040518083038186803b158015612d5457600080fd5b505afa158015612d68573d6000803e3d6000fd5b505050506040513d601f19601f82011682018060405250810190612d8c9190613cf1565b905080821115612e325787546001600160a01b03808b16916340c10f199161010090910416612dbb8486613d61565b6040517fffffffff0000000000000000000000000000000000000000000000000000000060e085901b1681526001600160a01b0390921660048301526024820152604401600060405180830381600087803b158015612e1957600080fd5b505af1158015612e2d573d6000803e3d6000fd5b505050505b50505b8215612f35578115612eb9576040517f42966c68000000000000000000000000000000000000000000000000000000008152600481018490526001600160a01b038816906342966c6890602401600060405180830381600087803b158015612e9c57600080fd5b505af1158015612eb0573d6000803e3d6000fd5b50505050612f35565b6040517f79cc67900000000000000000000000000000000000000000000000000000000081526001600160a01b038681166004830152602482018590528816906379cc679090604401600060405180830381600087803b158015612f1c57600080fd5b505af1158015612f30573d6000803e3d6000fd5b505050505b6040517f331d8e5d0000000000000000000000000000000000000000000000000000000081526001600160a01b038881166004830152868116602483015260606044830152600060648301527f0000000000000000000000000000000000000000000000000000000000000000169063331d8e5d90608401600060405180830381600087803b158015612fc757600080fd5b505af1158015612fdb573d6000803e3d6000fd5b505050506000811115612ffe57600254612ffe906001600160a01b03168261297d565b60408051858152602081018590529081018290526001600160a01b0380871691908916907f010566ed1f1638146fb035e3ac42796e2ae2df2045dfc2d6c92a4b07f04ad6919060600160405180910390a350505050505050565b60078101805460ff191660011790556040516001600160a01b038316907fc06afb3e82286e0c8c7ebc246d8cb1463083152f95c756f6b07113e2275a42a190600090a25050565b6040517f70a082310000000000000000000000000000000000000000000000000000000081526001600160a01b03828116600483015260009182918616906370a082319060240160206040518083038186803b1580156130fe57600080fd5b505afa158015613112573d6000803e3d6000fd5b505050506040513d601f19601f820116820180604052508101906131369190613cf1565b600785015490915060009062010000900460ff166131c457856001600160a01b03166318160ddd6040518163ffffffff1660e01b815260040160206040518083038186803b15801561318757600080fd5b505afa15801561319b573d6000803e3d6000fd5b505050506040513d601f19601f820116820180604052508101906131bf9190613cf1565b613235565b856001600160a01b031663355274ea6040518163ffffffff1660e01b815260040160206040518083038186803b1580156131fd57600080fd5b505afa158015613211573d6000803e3d6000fd5b505050506040513d601f19601f820116820180604052508101906132359190613cf1565b90506000670de0b6b3a76400008660020154670de0b6b3a7640000847f00000000000000000000000000000000000000000000000000000000000000006001600160a01b031663a0058b3d8c60006040518363ffffffff1660e01b81526004016132a0929190613ec1565b60206040518083038186803b1580156132b857600080fd5b505afa1580156132cc573d6000803e3d6000fd5b505050506040513d601f19601f820116820180604052508101906132f09190613cf1565b6132fa9190613d20565b6133049190613d3f565b61330e9190613d20565b6133189190613d3f565b60018701549091506000828210156133305782613332565b815b9050600084116133425780613386565b670de0b6b3a7640000846133568288613d20565b6133609190613d3f565b61337290670de0b6b3a7640000613d61565b61337c9083613d20565b6133869190613d3f565b955050505050935093915050565b60078101805461ff0019166101001790556040516001600160a01b038316907f6d1caeda9382fb9391d2939838457563371f88d39b58b7509411bb381e3c62f490600090a25050565b60038190556040518181527fdc0410a296e1e33943a772020d333d5f99319d7fcad932a484c53889f7aaa2b190602001612972565b6000611999838361372b565b60006107a4825490565b600082815260208190526040902060010154613444813361353b565b61094183836135b9565b6000828152602081815260408083206001600160a01b038516845290915290205460ff166127e0576000828152602081815260408083206001600160a01b03851684529091529020805460ff191660011790556134a83390565b6001600160a01b0316816001600160a01b0316837f2f8788117e7eff1d82e926ec794901d17c78024a50270940304540a733656f0d60405160405180910390a45050565b6000818152600183016020526040812054613533575081546001818101845560008481526020808220909301849055845484825282860190935260409020919091556107a4565b5060006107a4565b6000828152602081815260408083206001600160a01b038516845290915290205460ff166127e057613577816001600160a01b03166014613755565b613582836020613755565b604051602001613593929190613f1a565b60408051601f198184030181529082905262461bcd60e51b825261085891600401613f9b565b6000828152602081815260408083206001600160a01b038516845290915290205460ff16156127e0576000828152602081815260408083206001600160a01b0385168085529252808320805460ff1916905551339285917ff6391f5c32d9c69d2a47ea670b442974b53935d1edc7fd64eb21e047a839171b9190a45050565b6000818152600183016020526040812054801561372157600061365c600183613d61565b855490915060009061367090600190613d61565b90508181146136d557600086600001828154811061369057613690613dc8565b90600052602060002001549050808760000184815481106136b3576136b3613dc8565b6000918252602080832090910192909255918252600188019052604090208390555b85548690806136e6576136e6613fce565b6001900381819060005260206000200160009055905585600101600086815260200190815260200160002060009055600193505050506107a4565b60009150506107a4565b600082600001828154811061374257613742613dc8565b9060005260206000200154905092915050565b60606000613764836002613d20565b61376f906002613d95565b67ffffffffffffffff81111561378757613787613fe4565b6040519080825280601f01601f1916602001820160405280156137b1576020820181803683370190505b5090507f3000000000000000000000000000000000000000000000000000000000000000816000815181106137e8576137e8613dc8565b60200101907effffffffffffffffffffffffffffffffffffffffffffffffffffffffffffff1916908160001a9053507f78000000000000000000000000000000000000000000000000000000000000008160018151811061384b5761384b613dc8565b60200101907effffffffffffffffffffffffffffffffffffffffffffffffffffffffffffff1916908160001a9053506000613887846002613d20565b613892906001613d95565b90505b600181111561392f577f303132333435363738396162636465660000000000000000000000000000000085600f16601081106138d3576138d3613dc8565b1a60f81b8282815181106138e9576138e9613dc8565b60200101907effffffffffffffffffffffffffffffffffffffffffffffffffffffffffffff1916908160001a90535060049490941c9361392881613ffa565b9050613895565b5083156119995760405162461bcd60e51b815260206004820181905260248201527f537472696e67733a20686578206c656e67746820696e73756666696369656e746044820152606401610858565b60006020828403121561399057600080fd5b81357fffffffff000000000000000000000000000000000000000000000000000000008116811461199957600080fd5b6001600160a01b0381168114610a4857600080fd5b6000602082840312156139e757600080fd5b8135611999816139c0565b600060208284031215613a0457600080fd5b5035919050565b60008060408385031215613a1e57600080fd5b823591506020830135613a30816139c0565b809150509250929050565b60008060408385031215613a4e57600080fd5b8235613a59816139c0565b946020939093013593505050565b60008060408385031215613a7a57600080fd5b50508035926020909101359150565b634e487b7160e01b600052602160045260246000fd5b60048110610a4857610a48613a89565b6101408101613abd8c613a9f565b9a81526001600160a01b039990991660208a015260408901979097526060880195909552608087019390935260a086019190915260c0850152151560e0840152151561010083015215156101209091015290565b60008060408385031215613b2457600080fd5b8235613b2f816139c0565b91506020830135613a30816139c0565b8015158114610a4857600080fd5b600080600080600080600080610100898b031215613b6a57600080fd5b8835613b75816139c0565b97506020890135613b85816139c0565b965060408901359550606089013594506080890135935060a0890135613baa81613b3f565b925060c0890135613bba81613b3f565b915060e0890135613bca81613b3f565b809150509295985092959890939650565b60008083601f840112613bed57600080fd5b50813567ffffffffffffffff811115613c0557600080fd5b6020830191508360208260051b8501011115611d2657600080fd5b60008060008060008060608789031215613c3957600080fd5b863567ffffffffffffffff80821115613c5157600080fd5b613c5d8a838b01613bdb565b90985096506020890135915080821115613c7657600080fd5b613c828a838b01613bdb565b90965094506040890135915080821115613c9b57600080fd5b50613ca889828a01613bdb565b979a9699509497509295939492505050565b60a08101613cc787613a9f565b9581526001600160a01b039490941660208501526040840192909252606083015260809091015290565b600060208284031215613d0357600080fd5b5051919050565b634e487b7160e01b600052601160045260246000fd5b6000816000190483118215151615613d3a57613d3a613d0a565b500290565b600082613d5c57634e487b7160e01b600052601260045260246000fd5b500490565b600082821015613d7357613d73613d0a565b500390565b600060208284031215613d8a57600080fd5b815161199981613b3f565b60008219821115613da857613da8613d0a565b500190565b6000600019821415613dc157613dc1613d0a565b5060010190565b634e487b7160e01b600052603260045260246000fd5b60008083357fffffffffffffffffffffffffffffffffffffffffffffffffffffffffffffffe1843603018112613e1357600080fd5b83018035915067ffffffffffffffff821115613e2e57600080fd5b602001915036819003821315611d2657600080fd5b818352818160208501375060006020828401015260006020601f19601f840116840101905092915050565b60006001600160a01b03808716835280861660208401525060606040830152613e9b606083018486613e43565b9695505050505050565b602081526000613eb9602083018486613e43565b949350505050565b6001600160a01b03831681526040810160028310613ee157613ee1613a89565b8260208301529392505050565b60005b83811015613f09578181015183820152602001613ef1565b83811115610fd85750506000910152565b7f416363657373436f6e74726f6c3a206163636f756e7420000000000000000000815260008351613f52816017850160208801613eee565b7f206973206d697373696e6720726f6c65200000000000000000000000000000006017918401918201528351613f8f816028840160208801613eee565b01602801949350505050565b6020815260008251806020840152613fba816040850160208701613eee565b601f01601f19169190910160400192915050565b634e487b7160e01b600052603160045260246000fd5b634e487b7160e01b600052604160045260246000fd5b60008161400957614009613d0a565b50600019019056fea2646970667358221220ac2e086db7677d5ef27a378bf8f1980967c84049a60cf39968e8d025f59edc7f64736f6c63430008090033",
  "devdoc": {
    "kind": "dev",
    "methods": {
      "_escape_(address[],address[],bytes[])": {
        "details": "This function is only meant to be used in case of an emergency or upgrade to transfer NFTs to a safer or up-to-date place.",
        "params": {
          "beneficiaries": "The addresses escaped NFTs are transferred to.",
          "datas": "The ERC721#transfer callback datas.",
          "sERC20s": "The sERC20s whose pegged NFTs are transferred."
        }
      },
      "acceptProposal(address,uint256)": {
        "params": {
          "proposalId": "The id of the buyout proposal.",
          "sERC20": "The sERC20 whose pegged NFT was proposed to be bought out."
        }
      },
      "buyout(address)": {
        "details": "This function requires flash buyout to be enabled.",
        "params": {
          "sERC20": "The sERC20 whose pegged NFT is boughtout."
        }
      },
      "claim(address)": {
        "details": "This function is open to re-entrancy for it would be harmless.",
        "params": {
          "sERC20": "The sERC20 whose buyout shares are claimed."
        }
      },
      "createProposal(address,uint256)": {
        "params": {
          "lifespan": "The lifespan of the proposal [in seconds].",
          "sERC20": "The sERC20 whose pegged NFT is proposed to be bought out."
        }
      },
      "disableEscape(address)": {
        "params": {
          "sERC20": "The sERC20 whose pegged NFT is to be made un-escapable."
        }
      },
      "enableEscape(address)": {
        "params": {
          "sERC20": "The sERC20 whose pegged NFT is to be made escapable."
        }
      },
      "enableFlashBuyout(address)": {
        "params": {
          "sERC20": "The sERC20 whose pegged NFT is to be offered to flash buyout."
        }
      },
      "getRoleAdmin(bytes32)": {
        "details": "Returns the admin role that controls `role`. See {grantRole} and {revokeRole}. To change a role's admin, use {_setRoleAdmin}."
      },
      "getRoleMember(bytes32,uint256)": {
        "details": "Returns one of the accounts that have `role`. `index` must be a value between 0 and {getRoleMemberCount}, non-inclusive. Role bearers are not sorted in any particular way, and their ordering may change at any point. WARNING: When using {getRoleMember} and {getRoleMemberCount}, make sure you perform all queries on the same block. See the following https://forum.openzeppelin.com/t/iterating-over-elements-on-enumerableset-in-openzeppelin-contracts/2296[forum post] for more information."
      },
      "getRoleMemberCount(bytes32)": {
        "details": "Returns the number of accounts that have `role`. Can be used together with {getRoleMember} to enumerate all bearers of a role."
      },
      "grantRole(bytes32,address)": {
        "details": "Overload {grantRole} to track enumerable memberships"
      },
      "hasRole(bytes32,address)": {
        "details": "Returns `true` if `account` has been granted `role`."
      },
      "register(address,address,uint256,uint256,uint256,bool,bool,bool)": {
        "params": {
          "cap": "True if the buyout price should be based on the sERC20 cap, false if it should be based on its supply.",
          "escape": "True if spectre's multisig is allowed to escape sERC20's pegged NFT, false otherwise.",
          "flash": "True if flash buyout is enabled, false otherwise.",
          "guardian": "The account authorized to enable flash buyout and accept / reject proposals otherwise.",
          "multiplier": "The sale's buyout multiplier [expressed with 1e18 decimals].",
          "reserve": "The reserve price above which the NFT can be bought out.",
          "sERC20": "The sERC20 whose pegged NFT is put on sale.",
          "timelock": "The period of time after which the sale opens [in seconds]."
        }
      },
      "rejectProposal(address,uint256)": {
        "details": "This function is open to re-entrancy for it would be harmless.",
        "params": {
          "proposalId": "The id of the buyout proposal.",
          "sERC20": "The sERC20 whose pegged NFT was proposed to be bought out."
        }
      },
      "renounceRole(bytes32,address)": {
        "details": "Overload {renounceRole} to track enumerable memberships"
      },
      "revokeRole(bytes32,address)": {
        "details": "Overload {revokeRole} to track enumerable memberships"
      },
      "setReserve(address,uint256)": {
        "params": {
          "reserve": "The new reserve price.",
          "sERC20": "The sERC20 whose pegged NFT's reserve price is updated."
        }
      },
      "supportsInterface(bytes4)": {
        "details": "See {IERC165-supportsInterface}."
      },
      "withdrawProposal(address,uint256)": {
        "details": "This function is open to re-entrancy for it would be harmless.",
        "params": {
          "proposalId": "The id of the buyout proposal.",
          "sERC20": "The sERC20 whose pegged NFT was proposed to be bought out."
        }
      }
    },
    "title": "Broker",
    "version": 1
  },
  "userdoc": {
    "kind": "user",
    "methods": {
      "_escape_(address[],address[],bytes[])": {
        "notice": "Transfer all the NFTs pegged to `sERC20s `to `beneficiaries` with `datas` as ERC721#safeTransferFrom callback datas."
      },
      "acceptProposal(address,uint256)": {
        "notice": "Accept proposal #`proposalId` to buyout the NFT pegged to `sERC20`."
      },
      "bank()": {
        "notice": "Return the broker's bank."
      },
      "buyout(address)": {
        "notice": "Buyout the NFT pegged to `sERC20`."
      },
      "claim(address)": {
        "notice": "Claim shares of the buyout of the NFT pegged to `sERC20`."
      },
      "createProposal(address,uint256)": {
        "notice": "Create a proposal to buyout the NFT pegged to `sERC20`."
      },
      "disableEscape(address)": {
        "notice": "Disable escape for the NFT pegged to `sERC20`."
      },
      "enableEscape(address)": {
        "notice": "Enable escape for the NFT pegged to `sERC20`."
      },
      "enableFlashBuyout(address)": {
        "notice": "Enable flash buyout for the NFT pegged to `sERC20`."
      },
      "issuer()": {
        "notice": "Return the broker's issuer."
      },
      "priceOfFor(address,address)": {
        "notice": "Return what it costs for `buyer` to buyout the NFT pegged to `sERC20`."
      },
      "proposalFor(address,uint256)": {
        "notice": "Return the proposal #`proposalId` to buyout the NFT pegged to `sERC20`."
      },
      "protocolFee()": {
        "notice": "Return the broker's protocol fee."
      },
      "register(address,address,uint256,uint256,uint256,bool,bool,bool)": {
        "notice": "Put the NFT pegged to `sERC20` on sale."
      },
      "rejectProposal(address,uint256)": {
        "notice": "Reject proposal #`proposalId` to buyout the NFT pegged to `sERC20`."
      },
      "saleOf(address)": {
        "notice": "Return the sale of the NFT pegged to `sERC20`."
      },
      "setReserve(address,uint256)": {
        "notice": "Set the reserve price for the NFT pegged to `sERC20`."
      },
      "vault()": {
        "notice": "Return the broker's vault."
      },
      "withdrawProposal(address,uint256)": {
        "notice": "Withdraw proposal #`proposalId` to buyout the NFT pegged to `sERC20`."
      }
    },
    "notice": "Handles the buyout of fractionalized NFTs.",
    "version": 1
  },
  "storageLayout": {
    "storage": [
      {
        "astId": 2413,
        "contract": "contracts/broker/Broker.sol:Broker",
        "label": "_roles",
        "offset": 0,
        "slot": "0",
        "type": "t_mapping(t_bytes32,t_struct(RoleData)2408_storage)"
      },
      {
        "astId": 2714,
        "contract": "contracts/broker/Broker.sol:Broker",
        "label": "_roleMembers",
        "offset": 0,
        "slot": "1",
        "type": "t_mapping(t_bytes32,t_struct(AddressSet)6087_storage)"
      },
      {
        "astId": 6431,
        "contract": "contracts/broker/Broker.sol:Broker",
        "label": "_bank",
        "offset": 0,
        "slot": "2",
        "type": "t_address"
      },
      {
        "astId": 6433,
        "contract": "contracts/broker/Broker.sol:Broker",
        "label": "_protocolFee",
        "offset": 0,
        "slot": "3",
        "type": "t_uint256"
      },
      {
        "astId": 6439,
        "contract": "contracts/broker/Broker.sol:Broker",
        "label": "_sales",
        "offset": 0,
        "slot": "4",
        "type": "t_mapping(t_contract(sIERC20)12841,t_struct(Sale)8584_storage)"
      }
    ],
    "types": {
      "t_address": {
        "encoding": "inplace",
        "label": "address",
        "numberOfBytes": "20"
      },
      "t_array(t_bytes32)dyn_storage": {
        "base": "t_bytes32",
        "encoding": "dynamic_array",
        "label": "bytes32[]",
        "numberOfBytes": "32"
      },
      "t_bool": {
        "encoding": "inplace",
        "label": "bool",
        "numberOfBytes": "1"
      },
      "t_bytes32": {
        "encoding": "inplace",
        "label": "bytes32",
        "numberOfBytes": "32"
      },
      "t_contract(sIERC20)12841": {
        "encoding": "inplace",
        "label": "contract sIERC20",
        "numberOfBytes": "20"
      },
      "t_enum(State)8494": {
        "encoding": "inplace",
        "label": "enum Proposals.State",
        "numberOfBytes": "1"
      },
      "t_enum(State)8557": {
        "encoding": "inplace",
        "label": "enum Sales.State",
        "numberOfBytes": "1"
      },
      "t_mapping(t_address,t_bool)": {
        "encoding": "mapping",
        "key": "t_address",
        "label": "mapping(address => bool)",
        "numberOfBytes": "32",
        "value": "t_bool"
      },
      "t_mapping(t_bytes32,t_struct(AddressSet)6087_storage)": {
        "encoding": "mapping",
        "key": "t_bytes32",
        "label": "mapping(bytes32 => struct EnumerableSet.AddressSet)",
        "numberOfBytes": "32",
        "value": "t_struct(AddressSet)6087_storage"
      },
      "t_mapping(t_bytes32,t_struct(RoleData)2408_storage)": {
        "encoding": "mapping",
        "key": "t_bytes32",
        "label": "mapping(bytes32 => struct AccessControl.RoleData)",
        "numberOfBytes": "32",
        "value": "t_struct(RoleData)2408_storage"
      },
      "t_mapping(t_bytes32,t_uint256)": {
        "encoding": "mapping",
        "key": "t_bytes32",
        "label": "mapping(bytes32 => uint256)",
        "numberOfBytes": "32",
        "value": "t_uint256"
      },
      "t_mapping(t_contract(sIERC20)12841,t_struct(Sale)8584_storage)": {
        "encoding": "mapping",
        "key": "t_contract(sIERC20)12841",
        "label": "mapping(contract sIERC20 => struct Sales.Sale)",
        "numberOfBytes": "32",
        "value": "t_struct(Sale)8584_storage"
      },
      "t_mapping(t_uint256,t_struct(Proposal)8506_storage)": {
        "encoding": "mapping",
        "key": "t_uint256",
        "label": "mapping(uint256 => struct Proposals.Proposal)",
        "numberOfBytes": "32",
        "value": "t_struct(Proposal)8506_storage"
      },
      "t_struct(AddressSet)6087_storage": {
        "encoding": "inplace",
        "label": "struct EnumerableSet.AddressSet",
        "members": [
          {
            "astId": 6086,
            "contract": "contracts/broker/Broker.sol:Broker",
            "label": "_inner",
            "offset": 0,
            "slot": "0",
            "type": "t_struct(Set)5786_storage"
          }
        ],
        "numberOfBytes": "64"
      },
      "t_struct(Proposal)8506_storage": {
        "encoding": "inplace",
        "label": "struct Proposals.Proposal",
        "members": [
          {
            "astId": 8497,
            "contract": "contracts/broker/Broker.sol:Broker",
            "label": "_state",
            "offset": 0,
            "slot": "0",
            "type": "t_enum(State)8494"
          },
          {
            "astId": 8499,
            "contract": "contracts/broker/Broker.sol:Broker",
            "label": "buyer",
            "offset": 1,
            "slot": "0",
            "type": "t_address"
          },
          {
            "astId": 8501,
            "contract": "contracts/broker/Broker.sol:Broker",
            "label": "value",
            "offset": 0,
            "slot": "1",
            "type": "t_uint256"
          },
          {
            "astId": 8503,
            "contract": "contracts/broker/Broker.sol:Broker",
            "label": "collateral",
            "offset": 0,
            "slot": "2",
            "type": "t_uint256"
          },
          {
            "astId": 8505,
            "contract": "contracts/broker/Broker.sol:Broker",
            "label": "expiration",
            "offset": 0,
            "slot": "3",
            "type": "t_uint256"
          }
        ],
        "numberOfBytes": "128"
      },
      "t_struct(RoleData)2408_storage": {
        "encoding": "inplace",
        "label": "struct AccessControl.RoleData",
        "members": [
          {
            "astId": 2405,
            "contract": "contracts/broker/Broker.sol:Broker",
            "label": "members",
            "offset": 0,
            "slot": "0",
            "type": "t_mapping(t_address,t_bool)"
          },
          {
            "astId": 2407,
            "contract": "contracts/broker/Broker.sol:Broker",
            "label": "adminRole",
            "offset": 0,
            "slot": "1",
            "type": "t_bytes32"
          }
        ],
        "numberOfBytes": "64"
      },
      "t_struct(Sale)8584_storage": {
        "encoding": "inplace",
        "label": "struct Sales.Sale",
        "members": [
          {
            "astId": 8560,
            "contract": "contracts/broker/Broker.sol:Broker",
            "label": "_state",
            "offset": 0,
            "slot": "0",
            "type": "t_enum(State)8557"
          },
          {
            "astId": 8562,
            "contract": "contracts/broker/Broker.sol:Broker",
            "label": "guardian",
            "offset": 1,
            "slot": "0",
            "type": "t_address"
          },
          {
            "astId": 8564,
            "contract": "contracts/broker/Broker.sol:Broker",
            "label": "reserve",
            "offset": 0,
            "slot": "1",
            "type": "t_uint256"
          },
          {
            "astId": 8566,
            "contract": "contracts/broker/Broker.sol:Broker",
            "label": "multiplier",
            "offset": 0,
            "slot": "2",
            "type": "t_uint256"
          },
          {
            "astId": 8568,
            "contract": "contracts/broker/Broker.sol:Broker",
            "label": "opening",
            "offset": 0,
            "slot": "3",
            "type": "t_uint256"
          },
          {
            "astId": 8570,
            "contract": "contracts/broker/Broker.sol:Broker",
            "label": "stock",
            "offset": 0,
            "slot": "4",
            "type": "t_uint256"
          },
          {
            "astId": 8572,
            "contract": "contracts/broker/Broker.sol:Broker",
            "label": "nbOfProposals",
            "offset": 0,
            "slot": "5",
            "type": "t_uint256"
          },
          {
            "astId": 8577,
            "contract": "contracts/broker/Broker.sol:Broker",
            "label": "proposals",
            "offset": 0,
            "slot": "6",
            "type": "t_mapping(t_uint256,t_struct(Proposal)8506_storage)"
          },
          {
            "astId": 8579,
            "contract": "contracts/broker/Broker.sol:Broker",
            "label": "flash",
            "offset": 0,
            "slot": "7",
            "type": "t_bool"
          },
          {
            "astId": 8581,
            "contract": "contracts/broker/Broker.sol:Broker",
            "label": "escape",
            "offset": 1,
            "slot": "7",
            "type": "t_bool"
          },
          {
            "astId": 8583,
            "contract": "contracts/broker/Broker.sol:Broker",
            "label": "cap",
            "offset": 2,
            "slot": "7",
            "type": "t_bool"
          }
        ],
        "numberOfBytes": "256"
      },
      "t_struct(Set)5786_storage": {
        "encoding": "inplace",
        "label": "struct EnumerableSet.Set",
        "members": [
          {
            "astId": 5781,
            "contract": "contracts/broker/Broker.sol:Broker",
            "label": "_values",
            "offset": 0,
            "slot": "0",
            "type": "t_array(t_bytes32)dyn_storage"
          },
          {
            "astId": 5785,
            "contract": "contracts/broker/Broker.sol:Broker",
            "label": "_indexes",
            "offset": 0,
            "slot": "1",
            "type": "t_mapping(t_bytes32,t_uint256)"
          }
        ],
        "numberOfBytes": "64"
      },
      "t_uint256": {
        "encoding": "inplace",
        "label": "uint256",
        "numberOfBytes": "32"
      }
    }
  }
}