{
  "address": "0x72c0f20482e7A4948EF7D28E15F513f62af99335",
  "abi": [
    {
      "inputs": [
        {
          "internalType": "address",
          "name": "vault_",
          "type": "address"
        },
        {
          "internalType": "address",
          "name": "issuer_",
          "type": "address"
        },
        {
          "internalType": "address",
          "name": "broker_",
          "type": "address"
        },
        {
          "internalType": "address",
          "name": "splitter_",
          "type": "address"
        }
      ],
      "stateMutability": "nonpayable",
      "type": "constructor"
    },
    {
      "anonymous": false,
      "inputs": [
        {
          "indexed": false,
          "internalType": "address",
          "name": "account",
          "type": "address"
        }
      ],
      "name": "Paused",
      "type": "event"
    },
    {
      "anonymous": false,
      "inputs": [
        {
          "indexed": true,
          "internalType": "bytes32",
          "name": "role",
          "type": "bytes32"
        },
        {
          "indexed": true,
          "internalType": "bytes32",
          "name": "previousAdminRole",
          "type": "bytes32"
        },
        {
          "indexed": true,
          "internalType": "bytes32",
          "name": "newAdminRole",
          "type": "bytes32"
        }
      ],
      "name": "RoleAdminChanged",
      "type": "event"
    },
    {
      "anonymous": false,
      "inputs": [
        {
          "indexed": true,
          "internalType": "bytes32",
          "name": "role",
          "type": "bytes32"
        },
        {
          "indexed": true,
          "internalType": "address",
          "name": "account",
          "type": "address"
        },
        {
          "indexed": true,
          "internalType": "address",
          "name": "sender",
          "type": "address"
        }
      ],
      "name": "RoleGranted",
      "type": "event"
    },
    {
      "anonymous": false,
      "inputs": [
        {
          "indexed": true,
          "internalType": "bytes32",
          "name": "role",
          "type": "bytes32"
        },
        {
          "indexed": true,
          "internalType": "address",
          "name": "account",
          "type": "address"
        },
        {
          "indexed": true,
          "internalType": "address",
          "name": "sender",
          "type": "address"
        }
      ],
      "name": "RoleRevoked",
      "type": "event"
    },
    {
      "anonymous": false,
      "inputs": [
        {
          "indexed": false,
          "internalType": "address",
          "name": "account",
          "type": "address"
        }
      ],
      "name": "Unpaused",
      "type": "event"
    },
    {
      "inputs": [],
      "name": "DEFAULT_ADMIN_ROLE",
      "outputs": [
        {
          "internalType": "bytes32",
          "name": "",
          "type": "bytes32"
        }
      ],
      "stateMutability": "view",
      "type": "function"
    },
    {
      "inputs": [],
      "name": "broker",
      "outputs": [
        {
          "internalType": "contract IBroker",
          "name": "",
          "type": "address"
        }
      ],
      "stateMutability": "view",
      "type": "function"
    },
    {
      "inputs": [
        {
          "components": [
            {
              "internalType": "address",
              "name": "guardian",
              "type": "address"
            },
            {
              "internalType": "contract IERC721",
              "name": "collection",
              "type": "address"
            },
            {
              "internalType": "uint256",
              "name": "tokenId",
              "type": "uint256"
            },
            {
              "internalType": "string",
              "name": "name",
              "type": "string"
            },
            {
              "internalType": "string",
              "name": "symbol",
              "type": "string"
            },
            {
              "internalType": "uint256",
              "name": "cap",
              "type": "uint256"
            },
            {
              "internalType": "uint256",
              "name": "buyoutReserve",
              "type": "uint256"
            },
            {
              "internalType": "uint256",
              "name": "multiplier",
              "type": "uint256"
            },
            {
              "internalType": "uint256",
              "name": "timelock",
              "type": "uint256"
            },
            {
              "internalType": "uint256",
              "name": "sMaxNormalizedWeight",
              "type": "uint256"
            },
            {
              "internalType": "uint256",
              "name": "sMinNormalizedWeight",
              "type": "uint256"
            },
            {
              "internalType": "address[]",
              "name": "beneficiaries",
              "type": "address[]"
            },
            {
              "internalType": "uint256[]",
              "name": "shares",
              "type": "uint256[]"
            },
            {
              "internalType": "uint256",
              "name": "swapFeePercentage",
              "type": "uint256"
            },
            {
              "internalType": "uint256",
              "name": "issuanceReserve",
              "type": "uint256"
            },
            {
              "internalType": "uint256",
              "name": "fee",
              "type": "uint256"
            },
            {
              "internalType": "bool",
              "name": "buyoutFlash",
              "type": "bool"
            },
            {
              "internalType": "bool",
              "name": "issuanceFlash",
              "type": "bool"
            }
          ],
          "internalType": "struct IChanneler.FractionalizationData",
          "name": "data",
          "type": "tuple"
        }
      ],
      "name": "fractionalize",
      "outputs": [],
      "stateMutability": "nonpayable",
      "type": "function"
    },
    {
      "inputs": [
        {
          "internalType": "bytes32",
          "name": "role",
          "type": "bytes32"
        }
      ],
      "name": "getRoleAdmin",
      "outputs": [
        {
          "internalType": "bytes32",
          "name": "",
          "type": "bytes32"
        }
      ],
      "stateMutability": "view",
      "type": "function"
    },
    {
      "inputs": [
        {
          "internalType": "bytes32",
          "name": "role",
          "type": "bytes32"
        },
        {
          "internalType": "uint256",
          "name": "index",
          "type": "uint256"
        }
      ],
      "name": "getRoleMember",
      "outputs": [
        {
          "internalType": "address",
          "name": "",
          "type": "address"
        }
      ],
      "stateMutability": "view",
      "type": "function"
    },
    {
      "inputs": [
        {
          "internalType": "bytes32",
          "name": "role",
          "type": "bytes32"
        }
      ],
      "name": "getRoleMemberCount",
      "outputs": [
        {
          "internalType": "uint256",
          "name": "",
          "type": "uint256"
        }
      ],
      "stateMutability": "view",
      "type": "function"
    },
    {
      "inputs": [
        {
          "internalType": "bytes32",
          "name": "role",
          "type": "bytes32"
        },
        {
          "internalType": "address",
          "name": "account",
          "type": "address"
        }
      ],
      "name": "grantRole",
      "outputs": [],
      "stateMutability": "nonpayable",
      "type": "function"
    },
    {
      "inputs": [
        {
          "internalType": "bytes32",
          "name": "role",
          "type": "bytes32"
        },
        {
          "internalType": "address",
          "name": "account",
          "type": "address"
        }
      ],
      "name": "hasRole",
      "outputs": [
        {
          "internalType": "bool",
          "name": "",
          "type": "bool"
        }
      ],
      "stateMutability": "view",
      "type": "function"
    },
    {
      "inputs": [],
      "name": "issuer",
      "outputs": [
        {
          "internalType": "contract IIssuer",
          "name": "",
          "type": "address"
        }
      ],
      "stateMutability": "view",
      "type": "function"
    },
    {
      "inputs": [],
      "name": "pause",
      "outputs": [],
      "stateMutability": "nonpayable",
      "type": "function"
    },
    {
      "inputs": [],
      "name": "paused",
      "outputs": [
        {
          "internalType": "bool",
          "name": "",
          "type": "bool"
        }
      ],
      "stateMutability": "view",
      "type": "function"
    },
    {
      "inputs": [
        {
          "internalType": "bytes32",
          "name": "role",
          "type": "bytes32"
        },
        {
          "internalType": "address",
          "name": "account",
          "type": "address"
        }
      ],
      "name": "renounceRole",
      "outputs": [],
      "stateMutability": "nonpayable",
      "type": "function"
    },
    {
      "inputs": [
        {
          "internalType": "bytes32",
          "name": "role",
          "type": "bytes32"
        },
        {
          "internalType": "address",
          "name": "account",
          "type": "address"
        }
      ],
      "name": "revokeRole",
      "outputs": [],
      "stateMutability": "nonpayable",
      "type": "function"
    },
    {
      "inputs": [],
      "name": "splitter",
      "outputs": [
        {
          "internalType": "contract ISplitter",
          "name": "",
          "type": "address"
        }
      ],
      "stateMutability": "view",
      "type": "function"
    },
    {
      "inputs": [
        {
          "internalType": "bytes4",
          "name": "interfaceId",
          "type": "bytes4"
        }
      ],
      "name": "supportsInterface",
      "outputs": [
        {
          "internalType": "bool",
          "name": "",
          "type": "bool"
        }
      ],
      "stateMutability": "view",
      "type": "function"
    },
    {
      "inputs": [],
      "name": "unpause",
      "outputs": [],
      "stateMutability": "nonpayable",
      "type": "function"
    },
    {
      "inputs": [],
      "name": "vault",
      "outputs": [
        {
          "internalType": "contract IVault",
          "name": "",
          "type": "address"
        }
      ],
      "stateMutability": "view",
      "type": "function"
    }
  ],
  "transactionHash": "0xdf4c0051f637f3f08299e9abf5b04edc2d799005ea67ff7b075fc343e246a3c2",
  "args": [
    "0x4BfDa8ba81cfB378702b502516548a960fbF0438",
    "0x64D5221C37fe62A77266A8b9c113e4B6FEd76a12",
    "0xE0063a885bC7eb184c66933865db0C0e5369faE2",
    "0x5E0418E6614943a7BEe3FB220Ce72491F8bD004E"
  ],
  "solcInputHash": "e063610f6b9cf6ecd84ffa013d639e0f",
  "bytecode": "0x6101006040523480156200001257600080fd5b5060405162001c8038038062001c808339810160408190526200003591620003b0565b6002805460ff191690556001600160a01b038416620000af5760405162461bcd60e51b815260206004820152602b60248201527f4368616e6e656c65723a207661756c742063616e6e6f7420626520746865207a60448201526a65726f206164647265737360a81b60648201526084015b60405180910390fd5b6001600160a01b0383166200011c5760405162461bcd60e51b815260206004820152602c60248201527f4368616e6e656c65723a206973737565722063616e6e6f74206265207468652060448201526b7a65726f206164647265737360a01b6064820152608401620000a6565b6001600160a01b038216620001895760405162461bcd60e51b815260206004820152602c60248201527f4368616e6e656c65723a2062726f6b65722063616e6e6f74206265207468652060448201526b7a65726f206164647265737360a01b6064820152608401620000a6565b6001600160a01b038116620001f85760405162461bcd60e51b815260206004820152602e60248201527f4368616e6e656c65723a2073706c69747465722063616e6e6f7420626520746860448201526d65207a65726f206164647265737360901b6064820152608401620000a6565b6001600160a01b0384811660805283811660a05282811660c052811660e052620002246000336200022e565b505050506200040d565b6200024582826200027160201b620009791760201c565b60008281526001602090815260409091206200026c9183906200098762000281821b17901c565b505050565b6200027d8282620002a1565b5050565b600062000298836001600160a01b03841662000341565b90505b92915050565b6000828152602081815260408083206001600160a01b038516845290915290205460ff166200027d576000828152602081815260408083206001600160a01b03851684529091529020805460ff19166001179055620002fd3390565b6001600160a01b0316816001600160a01b0316837f2f8788117e7eff1d82e926ec794901d17c78024a50270940304540a733656f0d60405160405180910390a45050565b60008181526001830160205260408120546200038a575081546001818101845560008481526020808220909301849055845484825282860190935260409020919091556200029b565b5060006200029b565b80516001600160a01b0381168114620003ab57600080fd5b919050565b60008060008060808587031215620003c757600080fd5b620003d28562000393565b9350620003e26020860162000393565b9250620003f26040860162000393565b9150620004026060860162000393565b905092959194509250565b60805160a05160c05160e05161180862000478600039600081816101dd015261052c015260008181610283015281816105ec0152610bcc01526000818161014a015281816106e301526108490152600081816102cf01528181610b970152610c9101526118086000f3fe608060405234801561001057600080fd5b506004361061011b5760003560e01c80635c975abb116100b2578063a217fddf11610081578063ca15c87311610066578063ca15c873146102a7578063d547741f146102ba578063fbfa77cf146102cd57600080fd5b8063a217fddf14610279578063abff01101461028157600080fd5b80635c975abb1461021c5780638456cb59146102275780639010d07c1461022f57806391d148541461024257600080fd5b806336568abe116100ee57806336568abe146101c85780633cd8045e146101db5780633f4ba83a146102015780634140a1b31461020957600080fd5b806301ffc9a7146101205780631d14384814610148578063248a9ca3146101825780632f2ff15d146101b3575b600080fd5b61013361012e366004611312565b6102f3565b60405190151581526020015b60405180910390f35b7f00000000000000000000000000000000000000000000000000000000000000005b6040516001600160a01b03909116815260200161013f565b6101a5610190366004611354565b60009081526020819052604090206001015490565b60405190815260200161013f565b6101c66101c1366004611385565b61034f565b005b6101c66101d6366004611385565b610376565b7f000000000000000000000000000000000000000000000000000000000000000061016a565b6101c6610398565b6101c66102173660046113b5565b610424565b60025460ff16610133565b6101c66108b4565b61016a61023d3660046113f1565b610939565b610133610250366004611385565b6000918252602082815260408084206001600160a01b0393909316845291905290205460ff1690565b6101a5600081565b7f000000000000000000000000000000000000000000000000000000000000000061016a565b6101a56102b5366004611354565b610958565b6101c66102c8366004611385565b61096f565b7f000000000000000000000000000000000000000000000000000000000000000061016a565b60007fffffffff0000000000000000000000000000000000000000000000000000000082167f5a05180f00000000000000000000000000000000000000000000000000000000148061034957506103498261099c565b92915050565b6103598282610a33565b60008281526001602052604090206103719082610987565b505050565b6103808282610a59565b60008281526001602052604090206103719082610ae1565b6103a3600033610250565b61041a5760405162461bcd60e51b815260206004820152603260248201527f4368616e6e656c65723a206d75737420686176652044454641554c545f41444d60448201527f494e5f524f4c4520746f20756e7061757365000000000000000000000000000060648201526084015b60405180910390fd5b610422610af6565b565b60025460ff16156104775760405162461bcd60e51b815260206004820152601060248201527f5061757361626c653a20706175736564000000000000000000000000000000006044820152606401610411565b600061051e61048c6040840160208501611413565b604084013561049e6060860186611430565b8080601f0160208091040260200160405190810160405280939291908181526020018383808284376000920191909152506104e0925050506080870187611430565b8080601f01602080910402602001604051908101604052809392919081815260200183838082843760009201919091525050505060a0870135610b92565b905060006001600160a01b037f00000000000000000000000000000000000000000000000000000000000000001663eb98edef8361056061016087018761147e565b61056e61018089018961147e565b6040518663ffffffff1660e01b815260040161058e9594939291906114c8565b602060405180830381600087803b1580156105a857600080fd5b505af11580156105bc573d6000803e3d6000fd5b505050506040513d601f19601f820116820180604052508101906105e09190611570565b90506001600160a01b037f00000000000000000000000000000000000000000000000000000000000000001663e1f01ca48361061f6020870187611413565b60c087013560e08801356101008901356106416102208b016102008c01611589565b6040517fffffffff0000000000000000000000000000000000000000000000000000000060e089901b1681526001600160a01b039687166004820152959094166024860152604485019290925260648401526084830152151560a4820152600160c482015260e401600060405180830381600087803b1580156106c357600080fd5b505af11580156106d7573d6000803e3d6000fd5b50506001600160a01b037f0000000000000000000000000000000000000000000000000000000000000000169150632c32a64290508361071a6020870187611413565b6101208701356101408801356101a08901356101c08a0135886101e08c013561074b6102408e016102208f01611589565b6040517fffffffff0000000000000000000000000000000000000000000000000000000060e08c901b1681526001600160a01b03998a16600482015298909716602489015260448801959095526064870193909352608486019190915260a485015260c484015260e4830152151561010482015261012401600060405180830381600087803b1580156107dd57600080fd5b505af11580156107f1573d6000803e3d6000fd5b50506040517f2f2ff15d0000000000000000000000000000000000000000000000000000000081527f154c00819833dac601ee5ddded6fda79d9d8b506b911b3dbd54cdb95fe6c368660048201526001600160a01b037f00000000000000000000000000000000000000000000000000000000000000008116602483015285169250632f2ff15d9150604401600060405180830381600087803b15801561089757600080fd5b505af11580156108ab573d6000803e3d6000fd5b50505050505050565b6108bf600033610250565b6109315760405162461bcd60e51b815260206004820152603060248201527f4368616e6e656c65723a206d75737420686176652044454641554c545f41444d60448201527f494e5f524f4c4520746f207061757365000000000000000000000000000000006064820152608401610411565b610422610d1e565b60008281526001602052604081206109519083610da6565b9392505050565b600081815260016020526040812061034990610db2565b6103808282610dbc565b6109838282610de2565b5050565b6000610951836001600160a01b038416610e80565b60007fffffffff0000000000000000000000000000000000000000000000000000000082167f7965db0b00000000000000000000000000000000000000000000000000000000148061034957507f01ffc9a7000000000000000000000000000000000000000000000000000000007fffffffff00000000000000000000000000000000000000000000000000000000831614610349565b600082815260208190526040902060010154610a4f8133610ecf565b6103718383610de2565b6001600160a01b0381163314610ad75760405162461bcd60e51b815260206004820152602f60248201527f416363657373436f6e74726f6c3a2063616e206f6e6c792072656e6f756e636560448201527f20726f6c657320666f722073656c6600000000000000000000000000000000006064820152608401610411565b6109838282610f4d565b6000610951836001600160a01b038416610fcc565b60025460ff16610b485760405162461bcd60e51b815260206004820152601460248201527f5061757361626c653a206e6f74207061757365640000000000000000000000006044820152606401610411565b6002805460ff191690557f5db9ee0a495bf2e6ff9c91a7834c1ba4fdd244a5e8aa4e537bd38aeae4b073aa335b6040516001600160a01b03909116815260200160405180910390a1565b6000807f00000000000000000000000000000000000000000000000000000000000000006001600160a01b0316638a9f04cf8888888888307f00000000000000000000000000000000000000000000000000000000000000006040518863ffffffff1660e01b8152600401610c0d9796959493929190611607565b602060405180830381600087803b158015610c2757600080fd5b505af1158015610c3b573d6000803e3d6000fd5b505050506040513d601f19601f82011682018060405250810190610c5f9190611570565b6040517f98295867000000000000000000000000000000000000000000000000000000008152600481018290529091507f00000000000000000000000000000000000000000000000000000000000000006001600160a01b03169063982958679060240160206040518083038186803b158015610cdb57600080fd5b505afa158015610cef573d6000803e3d6000fd5b505050506040513d601f19601f82011682018060405250810190610d139190611664565b979650505050505050565b60025460ff1615610d715760405162461bcd60e51b815260206004820152601060248201527f5061757361626c653a20706175736564000000000000000000000000000000006044820152606401610411565b6002805460ff191660011790557f62e78cea01bee320cd4e420270b5ea74000d11b0c9f74754ebdbfc544b05a258610b753390565b600061095183836110bf565b6000610349825490565b600082815260208190526040902060010154610dd88133610ecf565b6103718383610f4d565b6000828152602081815260408083206001600160a01b038516845290915290205460ff16610983576000828152602081815260408083206001600160a01b03851684529091529020805460ff19166001179055610e3c3390565b6001600160a01b0316816001600160a01b0316837f2f8788117e7eff1d82e926ec794901d17c78024a50270940304540a733656f0d60405160405180910390a45050565b6000818152600183016020526040812054610ec757508154600181810184556000848152602080822090930184905584548482528286019093526040902091909155610349565b506000610349565b6000828152602081815260408083206001600160a01b038516845290915290205460ff1661098357610f0b816001600160a01b031660146110e9565b610f168360206110e9565b604051602001610f27929190611681565b60408051601f198184030181529082905262461bcd60e51b825261041191600401611702565b6000828152602081815260408083206001600160a01b038516845290915290205460ff1615610983576000828152602081815260408083206001600160a01b0385168085529252808320805460ff1916905551339285917ff6391f5c32d9c69d2a47ea670b442974b53935d1edc7fd64eb21e047a839171b9190a45050565b600081815260018301602052604081205480156110b5576000610ff060018361172b565b85549091506000906110049060019061172b565b905081811461106957600086600001828154811061102457611024611742565b906000526020600020015490508087600001848154811061104757611047611742565b6000918252602080832090910192909255918252600188019052604090208390555b855486908061107a5761107a611758565b600190038181906000526020600020016000905590558560010160008681526020019081526020016000206000905560019350505050610349565b6000915050610349565b60008260000182815481106110d6576110d6611742565b9060005260206000200154905092915050565b606060006110f883600261176e565b61110390600261178d565b67ffffffffffffffff81111561111b5761111b6117a5565b6040519080825280601f01601f191660200182016040528015611145576020820181803683370190505b5090507f30000000000000000000000000000000000000000000000000000000000000008160008151811061117c5761117c611742565b60200101907effffffffffffffffffffffffffffffffffffffffffffffffffffffffffffff1916908160001a9053507f7800000000000000000000000000000000000000000000000000000000000000816001815181106111df576111df611742565b60200101907effffffffffffffffffffffffffffffffffffffffffffffffffffffffffffff1916908160001a905350600061121b84600261176e565b61122690600161178d565b90505b60018111156112c3577f303132333435363738396162636465660000000000000000000000000000000085600f166010811061126757611267611742565b1a60f81b82828151811061127d5761127d611742565b60200101907effffffffffffffffffffffffffffffffffffffffffffffffffffffffffffff1916908160001a90535060049490941c936112bc816117bb565b9050611229565b5083156109515760405162461bcd60e51b815260206004820181905260248201527f537472696e67733a20686578206c656e67746820696e73756666696369656e746044820152606401610411565b60006020828403121561132457600080fd5b81357fffffffff000000000000000000000000000000000000000000000000000000008116811461095157600080fd5b60006020828403121561136657600080fd5b5035919050565b6001600160a01b038116811461138257600080fd5b50565b6000806040838503121561139857600080fd5b8235915060208301356113aa8161136d565b809150509250929050565b6000602082840312156113c757600080fd5b813567ffffffffffffffff8111156113de57600080fd5b8201610240818503121561095157600080fd5b6000806040838503121561140457600080fd5b50508035926020909101359150565b60006020828403121561142557600080fd5b81356109518161136d565b6000808335601e1984360301811261144757600080fd5b83018035915067ffffffffffffffff82111561146257600080fd5b60200191503681900382131561147757600080fd5b9250929050565b6000808335601e1984360301811261149557600080fd5b83018035915067ffffffffffffffff8211156114b057600080fd5b6020019150600581901b360382131561147757600080fd5b6001600160a01b03868116825260606020808401829052908301869052600091879160808501845b898110156115175784356115038161136d565b8416825293820193908201906001016114f0565b5085810360408701528681527f07ffffffffffffffffffffffffffffffffffffffffffffffffffffffffffffff87111561155057600080fd5b8660051b9350838883830137600093010191825250979650505050505050565b60006020828403121561158257600080fd5b5051919050565b60006020828403121561159b57600080fd5b8135801515811461095157600080fd5b60005b838110156115c65781810151838201526020016115ae565b838111156115d5576000848401525b50505050565b600081518084526115f38160208601602086016115ab565b601f01601f19169290920160200192915050565b60006001600160a01b03808a16835288602084015260e0604084015261163060e08401896115db565b838103606085015261164281896115db565b60808501979097525093841660a083015250911660c090910152949350505050565b60006020828403121561167657600080fd5b81516109518161136d565b7f416363657373436f6e74726f6c3a206163636f756e74200000000000000000008152600083516116b98160178501602088016115ab565b7f206973206d697373696e6720726f6c652000000000000000000000000000000060179184019182015283516116f68160288401602088016115ab565b01602801949350505050565b60208152600061095160208301846115db565b634e487b7160e01b600052601160045260246000fd5b60008282101561173d5761173d611715565b500390565b634e487b7160e01b600052603260045260246000fd5b634e487b7160e01b600052603160045260246000fd5b600081600019048311821515161561178857611788611715565b500290565b600082198211156117a0576117a0611715565b500190565b634e487b7160e01b600052604160045260246000fd5b6000816117ca576117ca611715565b50600019019056fea26469706673582212200a68d3f30aebf18e672b0fc64687f027c7327f0f8f95559c0c642252b3a8f5c164736f6c63430008090033",
  "devdoc": {
    "kind": "dev",
    "methods": {
      "getRoleAdmin(bytes32)": {
        "details": "Returns the admin role that controls `role`. See {grantRole} and {revokeRole}. To change a role's admin, use {_setRoleAdmin}."
      },
      "getRoleMember(bytes32,uint256)": {
        "details": "Returns one of the accounts that have `role`. `index` must be a value between 0 and {getRoleMemberCount}, non-inclusive. Role bearers are not sorted in any particular way, and their ordering may change at any point. WARNING: When using {getRoleMember} and {getRoleMemberCount}, make sure you perform all queries on the same block. See the following https://forum.openzeppelin.com/t/iterating-over-elements-on-enumerableset-in-openzeppelin-contracts/2296[forum post] for more information."
      },
      "getRoleMemberCount(bytes32)": {
        "details": "Returns the number of accounts that have `role`. Can be used together with {getRoleMember} to enumerate all bearers of a role."
      },
      "grantRole(bytes32,address)": {
        "details": "Overload {grantRole} to track enumerable memberships"
      },
      "hasRole(bytes32,address)": {
        "details": "Returns `true` if `account` has been granted `role`."
      },
      "paused()": {
        "details": "Returns true if the contract is paused, and false otherwise."
      },
      "renounceRole(bytes32,address)": {
        "details": "Overload {renounceRole} to track enumerable memberships"
      },
      "revokeRole(bytes32,address)": {
        "details": "Overload {revokeRole} to track enumerable memberships"
      },
      "supportsInterface(bytes4)": {
        "details": "See {IERC165-supportsInterface}."
      }
    },
    "title": "Channeler",
    "version": 1
  },
  "userdoc": {
    "kind": "user",
    "methods": {},
    "notice": "Wraps all the transaction needed to fractionalize an NFT into an atomic one.",
    "version": 1
  },
  "storageLayout": {
    "storage": [
      {
        "astId": 3162,
        "contract": "contracts/channeler/Channeler.sol:Channeler",
        "label": "_roles",
        "offset": 0,
        "slot": "0",
        "type": "t_mapping(t_bytes32,t_struct(RoleData)3157_storage)"
      },
      {
        "astId": 3463,
        "contract": "contracts/channeler/Channeler.sol:Channeler",
        "label": "_roleMembers",
        "offset": 0,
        "slot": "1",
        "type": "t_mapping(t_bytes32,t_struct(AddressSet)6836_storage)"
      },
      {
        "astId": 3819,
        "contract": "contracts/channeler/Channeler.sol:Channeler",
        "label": "_paused",
        "offset": 0,
        "slot": "2",
        "type": "t_bool"
      }
    ],
    "types": {
      "t_address": {
        "encoding": "inplace",
        "label": "address",
        "numberOfBytes": "20"
      },
      "t_array(t_bytes32)dyn_storage": {
        "base": "t_bytes32",
        "encoding": "dynamic_array",
        "label": "bytes32[]",
        "numberOfBytes": "32"
      },
      "t_bool": {
        "encoding": "inplace",
        "label": "bool",
        "numberOfBytes": "1"
      },
      "t_bytes32": {
        "encoding": "inplace",
        "label": "bytes32",
        "numberOfBytes": "32"
      },
      "t_mapping(t_address,t_bool)": {
        "encoding": "mapping",
        "key": "t_address",
        "label": "mapping(address => bool)",
        "numberOfBytes": "32",
        "value": "t_bool"
      },
      "t_mapping(t_bytes32,t_struct(AddressSet)6836_storage)": {
        "encoding": "mapping",
        "key": "t_bytes32",
        "label": "mapping(bytes32 => struct EnumerableSet.AddressSet)",
        "numberOfBytes": "32",
        "value": "t_struct(AddressSet)6836_storage"
      },
      "t_mapping(t_bytes32,t_struct(RoleData)3157_storage)": {
        "encoding": "mapping",
        "key": "t_bytes32",
        "label": "mapping(bytes32 => struct AccessControl.RoleData)",
        "numberOfBytes": "32",
        "value": "t_struct(RoleData)3157_storage"
      },
      "t_mapping(t_bytes32,t_uint256)": {
        "encoding": "mapping",
        "key": "t_bytes32",
        "label": "mapping(bytes32 => uint256)",
        "numberOfBytes": "32",
        "value": "t_uint256"
      },
      "t_struct(AddressSet)6836_storage": {
        "encoding": "inplace",
        "label": "struct EnumerableSet.AddressSet",
        "members": [
          {
            "astId": 6835,
            "contract": "contracts/channeler/Channeler.sol:Channeler",
            "label": "_inner",
            "offset": 0,
            "slot": "0",
            "type": "t_struct(Set)6535_storage"
          }
        ],
        "numberOfBytes": "64"
      },
      "t_struct(RoleData)3157_storage": {
        "encoding": "inplace",
        "label": "struct AccessControl.RoleData",
        "members": [
          {
            "astId": 3154,
            "contract": "contracts/channeler/Channeler.sol:Channeler",
            "label": "members",
            "offset": 0,
            "slot": "0",
            "type": "t_mapping(t_address,t_bool)"
          },
          {
            "astId": 3156,
            "contract": "contracts/channeler/Channeler.sol:Channeler",
            "label": "adminRole",
            "offset": 0,
            "slot": "1",
            "type": "t_bytes32"
          }
        ],
        "numberOfBytes": "64"
      },
      "t_struct(Set)6535_storage": {
        "encoding": "inplace",
        "label": "struct EnumerableSet.Set",
        "members": [
          {
            "astId": 6530,
            "contract": "contracts/channeler/Channeler.sol:Channeler",
            "label": "_values",
            "offset": 0,
            "slot": "0",
            "type": "t_array(t_bytes32)dyn_storage"
          },
          {
            "astId": 6534,
            "contract": "contracts/channeler/Channeler.sol:Channeler",
            "label": "_indexes",
            "offset": 0,
            "slot": "1",
            "type": "t_mapping(t_bytes32,t_uint256)"
          }
        ],
        "numberOfBytes": "64"
      },
      "t_uint256": {
        "encoding": "inplace",
        "label": "uint256",
        "numberOfBytes": "32"
      }
    }
  }
}