{
  "address": "0x53A31A78EfCaA6951660EeD6E8F54221114Ad85C",
  "abi": [
    {
      "inputs": [
        {
          "internalType": "address",
          "name": "sERC721_",
          "type": "address"
        },
        {
          "internalType": "address",
          "name": "vault_",
          "type": "address"
        },
        {
          "internalType": "address",
          "name": "issuer_",
          "type": "address"
        },
        {
          "internalType": "address",
          "name": "broker_",
          "type": "address"
        },
        {
          "internalType": "address",
          "name": "splitter_",
          "type": "address"
        }
      ],
      "stateMutability": "nonpayable",
      "type": "constructor"
    },
    {
      "anonymous": false,
      "inputs": [
        {
          "indexed": false,
          "internalType": "address",
          "name": "account",
          "type": "address"
        }
      ],
      "name": "Paused",
      "type": "event"
    },
    {
      "anonymous": false,
      "inputs": [
        {
          "indexed": true,
          "internalType": "bytes32",
          "name": "role",
          "type": "bytes32"
        },
        {
          "indexed": true,
          "internalType": "bytes32",
          "name": "previousAdminRole",
          "type": "bytes32"
        },
        {
          "indexed": true,
          "internalType": "bytes32",
          "name": "newAdminRole",
          "type": "bytes32"
        }
      ],
      "name": "RoleAdminChanged",
      "type": "event"
    },
    {
      "anonymous": false,
      "inputs": [
        {
          "indexed": true,
          "internalType": "bytes32",
          "name": "role",
          "type": "bytes32"
        },
        {
          "indexed": true,
          "internalType": "address",
          "name": "account",
          "type": "address"
        },
        {
          "indexed": true,
          "internalType": "address",
          "name": "sender",
          "type": "address"
        }
      ],
      "name": "RoleGranted",
      "type": "event"
    },
    {
      "anonymous": false,
      "inputs": [
        {
          "indexed": true,
          "internalType": "bytes32",
          "name": "role",
          "type": "bytes32"
        },
        {
          "indexed": true,
          "internalType": "address",
          "name": "account",
          "type": "address"
        },
        {
          "indexed": true,
          "internalType": "address",
          "name": "sender",
          "type": "address"
        }
      ],
      "name": "RoleRevoked",
      "type": "event"
    },
    {
      "anonymous": false,
      "inputs": [
        {
          "indexed": false,
          "internalType": "address",
          "name": "account",
          "type": "address"
        }
      ],
      "name": "Unpaused",
      "type": "event"
    },
    {
      "inputs": [],
      "name": "DEFAULT_ADMIN_ROLE",
      "outputs": [
        {
          "internalType": "bytes32",
          "name": "",
          "type": "bytes32"
        }
      ],
      "stateMutability": "view",
      "type": "function"
    },
    {
      "inputs": [],
      "name": "broker",
      "outputs": [
        {
          "internalType": "contract IBroker",
          "name": "",
          "type": "address"
        }
      ],
      "stateMutability": "view",
      "type": "function"
    },
    {
      "inputs": [
        {
          "internalType": "contract IERC721",
          "name": "collection",
          "type": "address"
        },
        {
          "internalType": "uint256",
          "name": "tokenId",
          "type": "uint256"
        },
        {
          "components": [
            {
              "internalType": "address",
              "name": "guardian",
              "type": "address"
            },
            {
              "internalType": "string",
              "name": "name",
              "type": "string"
            },
            {
              "internalType": "string",
              "name": "symbol",
              "type": "string"
            },
            {
              "internalType": "uint256",
              "name": "cap",
              "type": "uint256"
            },
            {
              "internalType": "uint256",
              "name": "buyoutReserve",
              "type": "uint256"
            },
            {
              "internalType": "uint256",
              "name": "multiplier",
              "type": "uint256"
            },
            {
              "internalType": "uint256",
              "name": "timelock",
              "type": "uint256"
            },
            {
              "internalType": "uint256",
              "name": "sMaxNormalizedWeight",
              "type": "uint256"
            },
            {
              "internalType": "uint256",
              "name": "sMinNormalizedWeight",
              "type": "uint256"
            },
            {
              "internalType": "address[]",
              "name": "beneficiaries",
              "type": "address[]"
            },
            {
              "internalType": "uint256[]",
              "name": "shares",
              "type": "uint256[]"
            },
            {
              "internalType": "uint256",
              "name": "swapFeePercentage",
              "type": "uint256"
            },
            {
              "internalType": "uint256",
              "name": "issuanceReserve",
              "type": "uint256"
            },
            {
              "internalType": "uint256",
              "name": "fee",
              "type": "uint256"
            },
            {
              "internalType": "bool",
              "name": "buyoutFlash",
              "type": "bool"
            },
            {
              "internalType": "bool",
              "name": "issuanceFlash",
              "type": "bool"
            }
          ],
          "internalType": "struct IChanneler.FractionalizationData",
          "name": "data",
          "type": "tuple"
        }
      ],
      "name": "fractionalize",
      "outputs": [],
      "stateMutability": "nonpayable",
      "type": "function"
    },
    {
      "inputs": [
        {
          "internalType": "bytes32",
          "name": "role",
          "type": "bytes32"
        }
      ],
      "name": "getRoleAdmin",
      "outputs": [
        {
          "internalType": "bytes32",
          "name": "",
          "type": "bytes32"
        }
      ],
      "stateMutability": "view",
      "type": "function"
    },
    {
      "inputs": [
        {
          "internalType": "bytes32",
          "name": "role",
          "type": "bytes32"
        },
        {
          "internalType": "uint256",
          "name": "index",
          "type": "uint256"
        }
      ],
      "name": "getRoleMember",
      "outputs": [
        {
          "internalType": "address",
          "name": "",
          "type": "address"
        }
      ],
      "stateMutability": "view",
      "type": "function"
    },
    {
      "inputs": [
        {
          "internalType": "bytes32",
          "name": "role",
          "type": "bytes32"
        }
      ],
      "name": "getRoleMemberCount",
      "outputs": [
        {
          "internalType": "uint256",
          "name": "",
          "type": "uint256"
        }
      ],
      "stateMutability": "view",
      "type": "function"
    },
    {
      "inputs": [
        {
          "internalType": "bytes32",
          "name": "role",
          "type": "bytes32"
        },
        {
          "internalType": "address",
          "name": "account",
          "type": "address"
        }
      ],
      "name": "grantRole",
      "outputs": [],
      "stateMutability": "nonpayable",
      "type": "function"
    },
    {
      "inputs": [
        {
          "internalType": "bytes32",
          "name": "role",
          "type": "bytes32"
        },
        {
          "internalType": "address",
          "name": "account",
          "type": "address"
        }
      ],
      "name": "hasRole",
      "outputs": [
        {
          "internalType": "bool",
          "name": "",
          "type": "bool"
        }
      ],
      "stateMutability": "view",
      "type": "function"
    },
    {
      "inputs": [],
      "name": "issuer",
      "outputs": [
        {
          "internalType": "contract IIssuer",
          "name": "",
          "type": "address"
        }
      ],
      "stateMutability": "view",
      "type": "function"
    },
    {
      "inputs": [
        {
          "internalType": "string",
          "name": "_tokenURI",
          "type": "string"
        },
        {
          "components": [
            {
              "internalType": "address",
              "name": "guardian",
              "type": "address"
            },
            {
              "internalType": "string",
              "name": "name",
              "type": "string"
            },
            {
              "internalType": "string",
              "name": "symbol",
              "type": "string"
            },
            {
              "internalType": "uint256",
              "name": "cap",
              "type": "uint256"
            },
            {
              "internalType": "uint256",
              "name": "buyoutReserve",
              "type": "uint256"
            },
            {
              "internalType": "uint256",
              "name": "multiplier",
              "type": "uint256"
            },
            {
              "internalType": "uint256",
              "name": "timelock",
              "type": "uint256"
            },
            {
              "internalType": "uint256",
              "name": "sMaxNormalizedWeight",
              "type": "uint256"
            },
            {
              "internalType": "uint256",
              "name": "sMinNormalizedWeight",
              "type": "uint256"
            },
            {
              "internalType": "address[]",
              "name": "beneficiaries",
              "type": "address[]"
            },
            {
              "internalType": "uint256[]",
              "name": "shares",
              "type": "uint256[]"
            },
            {
              "internalType": "uint256",
              "name": "swapFeePercentage",
              "type": "uint256"
            },
            {
              "internalType": "uint256",
              "name": "issuanceReserve",
              "type": "uint256"
            },
            {
              "internalType": "uint256",
              "name": "fee",
              "type": "uint256"
            },
            {
              "internalType": "bool",
              "name": "buyoutFlash",
              "type": "bool"
            },
            {
              "internalType": "bool",
              "name": "issuanceFlash",
              "type": "bool"
            }
          ],
          "internalType": "struct IChanneler.FractionalizationData",
          "name": "data",
          "type": "tuple"
        }
      ],
      "name": "mintAndFractionalize",
      "outputs": [],
      "stateMutability": "nonpayable",
      "type": "function"
    },
    {
      "inputs": [],
      "name": "pause",
      "outputs": [],
      "stateMutability": "nonpayable",
      "type": "function"
    },
    {
      "inputs": [],
      "name": "paused",
      "outputs": [
        {
          "internalType": "bool",
          "name": "",
          "type": "bool"
        }
      ],
      "stateMutability": "view",
      "type": "function"
    },
    {
      "inputs": [
        {
          "internalType": "bytes32",
          "name": "role",
          "type": "bytes32"
        },
        {
          "internalType": "address",
          "name": "account",
          "type": "address"
        }
      ],
      "name": "renounceRole",
      "outputs": [],
      "stateMutability": "nonpayable",
      "type": "function"
    },
    {
      "inputs": [
        {
          "internalType": "bytes32",
          "name": "role",
          "type": "bytes32"
        },
        {
          "internalType": "address",
          "name": "account",
          "type": "address"
        }
      ],
      "name": "revokeRole",
      "outputs": [],
      "stateMutability": "nonpayable",
      "type": "function"
    },
    {
      "inputs": [],
      "name": "sERC721",
      "outputs": [
        {
          "internalType": "contract sIERC721",
          "name": "",
          "type": "address"
        }
      ],
      "stateMutability": "view",
      "type": "function"
    },
    {
      "inputs": [],
      "name": "splitter",
      "outputs": [
        {
          "internalType": "contract ISplitter",
          "name": "",
          "type": "address"
        }
      ],
      "stateMutability": "view",
      "type": "function"
    },
    {
      "inputs": [
        {
          "internalType": "bytes4",
          "name": "interfaceId",
          "type": "bytes4"
        }
      ],
      "name": "supportsInterface",
      "outputs": [
        {
          "internalType": "bool",
          "name": "",
          "type": "bool"
        }
      ],
      "stateMutability": "view",
      "type": "function"
    },
    {
      "inputs": [],
      "name": "unpause",
      "outputs": [],
      "stateMutability": "nonpayable",
      "type": "function"
    },
    {
      "inputs": [],
      "name": "vault",
      "outputs": [
        {
          "internalType": "contract IVault",
          "name": "",
          "type": "address"
        }
      ],
      "stateMutability": "view",
      "type": "function"
    }
  ],
  "transactionHash": "0x5c50d590710c0431286c8453b04aff388349d6de041262a6da2a5fc23c3f357d",
  "args": [
    "0x99268a898500B1f204b3CC4574aFE66435158b00",
    "0xbf12B6f6aC465ede4bd33AA7831AcBbE0158E0cD",
    "0x1Cd0BA4F9e7DDFEf1A0Ab78642e29febdA68a2a7",
    "0xcc96Fc5EC76f3e33Fce37f0700AcC53259040472",
    "0x63a454beEE2905E6AF61E43C0044475EBB8A476c"
  ],
  "solcInputHash": "f809cd6438af857252ae6c36d2bc1996",
  "bytecode": "0x6101206040523480156200001257600080fd5b506040516200210f3803806200210f833981016040819052620000359162000426565b6002805460ff191690556001600160a01b038516620000b15760405162461bcd60e51b815260206004820152602d60248201527f4368616e6e656c65723a20734552433732312063616e6e6f742062652074686560448201526c207a65726f206164647265737360981b60648201526084015b60405180910390fd5b6001600160a01b0384166200011d5760405162461bcd60e51b815260206004820152602b60248201527f4368616e6e656c65723a207661756c742063616e6e6f7420626520746865207a60448201526a65726f206164647265737360a81b6064820152608401620000a8565b6001600160a01b0383166200018a5760405162461bcd60e51b815260206004820152602c60248201527f4368616e6e656c65723a206973737565722063616e6e6f74206265207468652060448201526b7a65726f206164647265737360a01b6064820152608401620000a8565b6001600160a01b038216620001f75760405162461bcd60e51b815260206004820152602c60248201527f4368616e6e656c65723a2062726f6b65722063616e6e6f74206265207468652060448201526b7a65726f206164647265737360a01b6064820152608401620000a8565b6001600160a01b038116620002665760405162461bcd60e51b815260206004820152602e60248201527f4368616e6e656c65723a2073706c69747465722063616e6e6f7420626520746860448201526d65207a65726f206164647265737360901b6064820152608401620000a8565b6001600160a01b0385811660805284811660a05283811660c05282811660e05281166101005262000299600033620002a4565b505050505062000496565b620002bb8282620002e760201b62000c301760201c565b6000828152600160209081526040909120620002e291839062000c3e620002f7821b17901c565b505050565b620002f3828262000317565b5050565b60006200030e836001600160a01b038416620003b7565b90505b92915050565b6000828152602081815260408083206001600160a01b038516845290915290205460ff16620002f3576000828152602081815260408083206001600160a01b03851684529091529020805460ff19166001179055620003733390565b6001600160a01b0316816001600160a01b0316837f2f8788117e7eff1d82e926ec794901d17c78024a50270940304540a733656f0d60405160405180910390a45050565b6000818152600183016020526040812054620004005750815460018181018455600084815260208082209093018490558454848252828601909352604090209190915562000311565b50600062000311565b80516001600160a01b03811681146200042157600080fd5b919050565b600080600080600060a086880312156200043f57600080fd5b6200044a8662000409565b94506200045a6020870162000409565b93506200046a6040870162000409565b92506200047a6060870162000409565b91506200048a6080870162000409565b90509295509295909350565b60805160a05160c05160e05161010051611bf56200051a60003960008181610239015261087f0152600081816102f20152818161093f0152610f1701526000818161018001528181610a3d0152610ba201526000818161033e01528181610ee20152610fdc0152600081816102000152818161051101526105a90152611bf56000f3fe608060405234801561001057600080fd5b50600436106101515760003560e01c80635c975abb116100cd578063aaed9def11610081578063ca15c87311610066578063ca15c87314610316578063d547741f14610329578063fbfa77cf1461033c57600080fd5b8063aaed9def146102dd578063abff0110146102f057600080fd5b80639010d07c116100b25780639010d07c1461028b57806391d148541461029e578063a217fddf146102d557600080fd5b80635c975abb146102785780638456cb591461028357600080fd5b8063359dc6da116101245780633cd8045e116101095780633cd8045e146102375780633f4ba83a1461025d578063593b513a1461026557600080fd5b8063359dc6da146101fe57806336568abe1461022457600080fd5b806301ffc9a7146101565780631d1438481461017e578063248a9ca3146101b85780632f2ff15d146101e9575b600080fd5b6101696101643660046115c9565b610362565b60405190151581526020015b60405180910390f35b7f00000000000000000000000000000000000000000000000000000000000000005b6040516001600160a01b039091168152602001610175565b6101db6101c636600461160b565b60009081526020819052604090206001015490565b604051908152602001610175565b6101fc6101f736600461163c565b6103be565b005b7f00000000000000000000000000000000000000000000000000000000000000006101a0565b6101fc61023236600461163c565b6103e5565b7f00000000000000000000000000000000000000000000000000000000000000006101a0565b6101fc610407565b6101fc61027336600461169b565b610493565b60025460ff16610169565b6101fc6105cf565b6101a0610299366004611771565b610654565b6101696102ac36600461163c565b6000918252602082815260408084206001600160a01b0393909316845291905290205460ff1690565b6101db600081565b6101fc6102eb366004611793565b610673565b7f00000000000000000000000000000000000000000000000000000000000000006101a0565b6101db61032436600461160b565b610c0f565b6101fc61033736600461163c565b610c26565b7f00000000000000000000000000000000000000000000000000000000000000006101a0565b60007fffffffff0000000000000000000000000000000000000000000000000000000082167f5a05180f0000000000000000000000000000000000000000000000000000000014806103b857506103b882610c53565b92915050565b6103c88282610cea565b60008281526001602052604090206103e09082610c3e565b505050565b6103ef8282610d10565b60008281526001602052604090206103e09082610d98565b6104126000336102ac565b6104895760405162461bcd60e51b815260206004820152603260248201527f4368616e6e656c65723a206d75737420686176652044454641554c545f41444d60448201527f494e5f524f4c4520746f20756e7061757365000000000000000000000000000060648201526084015b60405180910390fd5b610491610dad565b565b60025460ff16156104e65760405162461bcd60e51b815260206004820152601060248201527f5061757361626c653a20706175736564000000000000000000000000000000006044820152606401610480565b6040517fd0def5210000000000000000000000000000000000000000000000000000000081526000907f00000000000000000000000000000000000000000000000000000000000000006001600160a01b03169063d0def521906105509033908790600401611848565b602060405180830381600087803b15801561056a57600080fd5b505af115801561057e573d6000803e3d6000fd5b505050506040513d601f19601f820116820180604052508101906105a29190611872565b90506103e07f00000000000000000000000000000000000000000000000000000000000000008284610673565b6105da6000336102ac565b61064c5760405162461bcd60e51b815260206004820152603060248201527f4368616e6e656c65723a206d75737420686176652044454641554c545f41444d60448201527f494e5f524f4c4520746f207061757365000000000000000000000000000000006064820152608401610480565b610491610e49565b600082815260016020526040812061066c9083610ed1565b9392505050565b60025460ff16156106c65760405162461bcd60e51b815260206004820152601060248201527f5061757361626c653a20706175736564000000000000000000000000000000006044820152606401610480565b6040517f6352211e000000000000000000000000000000000000000000000000000000008152600481018390526001600160a01b03841690636352211e9060240160206040518083038186803b15801561071f57600080fd5b505afa158015610733573d6000803e3d6000fd5b505050506040513d601f19601f82011682018060405250810190610757919061188b565b6001600160a01b0316336001600160a01b0316146107dd5760405162461bcd60e51b815260206004820152602d60248201527f4368616e6e656c65723a206d757374206265204e4654206f776e657220746f2060448201527f6672616374696f6e616c697a65000000000000000000000000000000000000006064820152608401610480565b600061087184846107f160208601866118a8565b8080601f0160208091040260200160405190810160405280939291908181526020018383808284376000920191909152506108339250505060408701876118a8565b8080601f0160208091040260200160405190810160405280939291908181526020018383808284376000920191909152505050506060870135610edd565b905060006001600160a01b037f00000000000000000000000000000000000000000000000000000000000000001663eb98edef836108b36101208701876118f6565b6108c16101408901896118f6565b6040518663ffffffff1660e01b81526004016108e1959493929190611940565b602060405180830381600087803b1580156108fb57600080fd5b505af115801561090f573d6000803e3d6000fd5b505050506040513d601f19601f820116820180604052508101906109339190611872565b90506001600160a01b037f00000000000000000000000000000000000000000000000000000000000000001663d6df940f8361097260208701876119e8565b608087013560a088013560c08901356109936101e08b016101c08c01611a05565b6040517fffffffff0000000000000000000000000000000000000000000000000000000060e089901b1681526001600160a01b039687166004820152959094166024860152604485019290925260648401526084830152151560a4820152600160c4820152600060e482015261010401600060405180830381600087803b158015610a1d57600080fd5b505af1158015610a31573d6000803e3d6000fd5b50506001600160a01b037f0000000000000000000000000000000000000000000000000000000000000000169150632c32a642905083610a7460208701876119e8565b60e08701356101008801356101608901356101808a0135886101a08c0135610aa46102008e016101e08f01611a05565b6040517fffffffff0000000000000000000000000000000000000000000000000000000060e08c901b1681526001600160a01b03998a16600482015298909716602489015260448801959095526064870193909352608486019190915260a485015260c484015260e4830152151561010482015261012401600060405180830381600087803b158015610b3657600080fd5b505af1158015610b4a573d6000803e3d6000fd5b50506040517f2f2ff15d0000000000000000000000000000000000000000000000000000000081527f154c00819833dac601ee5ddded6fda79d9d8b506b911b3dbd54cdb95fe6c368660048201526001600160a01b037f00000000000000000000000000000000000000000000000000000000000000008116602483015285169250632f2ff15d9150604401600060405180830381600087803b158015610bf057600080fd5b505af1158015610c04573d6000803e3d6000fd5b505050505050505050565b60008181526001602052604081206103b890611069565b6103ef8282611073565b610c3a8282611099565b5050565b600061066c836001600160a01b038416611137565b60007fffffffff0000000000000000000000000000000000000000000000000000000082167f7965db0b0000000000000000000000000000000000000000000000000000000014806103b857507f01ffc9a7000000000000000000000000000000000000000000000000000000007fffffffff000000000000000000000000000000000000000000000000000000008316146103b8565b600082815260208190526040902060010154610d068133611186565b6103e08383611099565b6001600160a01b0381163314610d8e5760405162461bcd60e51b815260206004820152602f60248201527f416363657373436f6e74726f6c3a2063616e206f6e6c792072656e6f756e636560448201527f20726f6c657320666f722073656c6600000000000000000000000000000000006064820152608401610480565b610c3a8282611204565b600061066c836001600160a01b038416611283565b60025460ff16610dff5760405162461bcd60e51b815260206004820152601460248201527f5061757361626c653a206e6f74207061757365640000000000000000000000006044820152606401610480565b6002805460ff191690557f5db9ee0a495bf2e6ff9c91a7834c1ba4fdd244a5e8aa4e537bd38aeae4b073aa335b6040516001600160a01b03909116815260200160405180910390a1565b60025460ff1615610e9c5760405162461bcd60e51b815260206004820152601060248201527f5061757361626c653a20706175736564000000000000000000000000000000006044820152606401610480565b6002805460ff191660011790557f62e78cea01bee320cd4e420270b5ea74000d11b0c9f74754ebdbfc544b05a258610e2c3390565b600061066c8383611376565b6000807f00000000000000000000000000000000000000000000000000000000000000006001600160a01b0316638a9f04cf8888888888307f00000000000000000000000000000000000000000000000000000000000000006040518863ffffffff1660e01b8152600401610f589796959493929190611a27565b602060405180830381600087803b158015610f7257600080fd5b505af1158015610f86573d6000803e3d6000fd5b505050506040513d601f19601f82011682018060405250810190610faa9190611872565b6040517f98295867000000000000000000000000000000000000000000000000000000008152600481018290529091507f00000000000000000000000000000000000000000000000000000000000000006001600160a01b03169063982958679060240160206040518083038186803b15801561102657600080fd5b505afa15801561103a573d6000803e3d6000fd5b505050506040513d601f19601f8201168201806040525081019061105e919061188b565b979650505050505050565b60006103b8825490565b60008281526020819052604090206001015461108f8133611186565b6103e08383611204565b6000828152602081815260408083206001600160a01b038516845290915290205460ff16610c3a576000828152602081815260408083206001600160a01b03851684529091529020805460ff191660011790556110f33390565b6001600160a01b0316816001600160a01b0316837f2f8788117e7eff1d82e926ec794901d17c78024a50270940304540a733656f0d60405160405180910390a45050565b600081815260018301602052604081205461117e575081546001818101845560008481526020808220909301849055845484825282860190935260409020919091556103b8565b5060006103b8565b6000828152602081815260408083206001600160a01b038516845290915290205460ff16610c3a576111c2816001600160a01b031660146113a0565b6111cd8360206113a0565b6040516020016111de929190611a84565b60408051601f198184030181529082905262461bcd60e51b825261048091600401611b05565b6000828152602081815260408083206001600160a01b038516845290915290205460ff1615610c3a576000828152602081815260408083206001600160a01b0385168085529252808320805460ff1916905551339285917ff6391f5c32d9c69d2a47ea670b442974b53935d1edc7fd64eb21e047a839171b9190a45050565b6000818152600183016020526040812054801561136c5760006112a7600183611b2e565b85549091506000906112bb90600190611b2e565b90508181146113205760008660000182815481106112db576112db611b45565b90600052602060002001549050808760000184815481106112fe576112fe611b45565b6000918252602080832090910192909255918252600188019052604090208390555b855486908061133157611331611b5b565b6001900381819060005260206000200160009055905585600101600086815260200190815260200160002060009055600193505050506103b8565b60009150506103b8565b600082600001828154811061138d5761138d611b45565b9060005260206000200154905092915050565b606060006113af836002611b71565b6113ba906002611b90565b67ffffffffffffffff8111156113d2576113d261166c565b6040519080825280601f01601f1916602001820160405280156113fc576020820181803683370190505b5090507f30000000000000000000000000000000000000000000000000000000000000008160008151811061143357611433611b45565b60200101907effffffffffffffffffffffffffffffffffffffffffffffffffffffffffffff1916908160001a9053507f78000000000000000000000000000000000000000000000000000000000000008160018151811061149657611496611b45565b60200101907effffffffffffffffffffffffffffffffffffffffffffffffffffffffffffff1916908160001a90535060006114d2846002611b71565b6114dd906001611b90565b90505b600181111561157a577f303132333435363738396162636465660000000000000000000000000000000085600f166010811061151e5761151e611b45565b1a60f81b82828151811061153457611534611b45565b60200101907effffffffffffffffffffffffffffffffffffffffffffffffffffffffffffff1916908160001a90535060049490941c9361157381611ba8565b90506114e0565b50831561066c5760405162461bcd60e51b815260206004820181905260248201527f537472696e67733a20686578206c656e67746820696e73756666696369656e746044820152606401610480565b6000602082840312156115db57600080fd5b81357fffffffff000000000000000000000000000000000000000000000000000000008116811461066c57600080fd5b60006020828403121561161d57600080fd5b5035919050565b6001600160a01b038116811461163957600080fd5b50565b6000806040838503121561164f57600080fd5b82359150602083013561166181611624565b809150509250929050565b634e487b7160e01b600052604160045260246000fd5b6000610200828403121561169557600080fd5b50919050565b600080604083850312156116ae57600080fd5b823567ffffffffffffffff808211156116c657600080fd5b818501915085601f8301126116da57600080fd5b8135818111156116ec576116ec61166c565b604051601f8201601f19908116603f011681019083821181831017156117145761171461166c565b8160405282815288602084870101111561172d57600080fd5b82602086016020830137600060208483010152809650505050602085013591508082111561175a57600080fd5b5061176785828601611682565b9150509250929050565b6000806040838503121561178457600080fd5b50508035926020909101359150565b6000806000606084860312156117a857600080fd5b83356117b381611624565b925060208401359150604084013567ffffffffffffffff8111156117d657600080fd5b6117e286828701611682565b9150509250925092565b60005b838110156118075781810151838201526020016117ef565b83811115611816576000848401525b50505050565b600081518084526118348160208601602086016117ec565b601f01601f19169290920160200192915050565b6001600160a01b038316815260406020820152600061186a604083018461181c565b949350505050565b60006020828403121561188457600080fd5b5051919050565b60006020828403121561189d57600080fd5b815161066c81611624565b6000808335601e198436030181126118bf57600080fd5b83018035915067ffffffffffffffff8211156118da57600080fd5b6020019150368190038213156118ef57600080fd5b9250929050565b6000808335601e1984360301811261190d57600080fd5b83018035915067ffffffffffffffff82111561192857600080fd5b6020019150600581901b36038213156118ef57600080fd5b6001600160a01b03868116825260606020808401829052908301869052600091879160808501845b8981101561198f57843561197b81611624565b841682529382019390820190600101611968565b5085810360408701528681527f07ffffffffffffffffffffffffffffffffffffffffffffffffffffffffffffff8711156119c857600080fd5b8660051b9350838883830137600093010191825250979650505050505050565b6000602082840312156119fa57600080fd5b813561066c81611624565b600060208284031215611a1757600080fd5b8135801515811461066c57600080fd5b60006001600160a01b03808a16835288602084015260e06040840152611a5060e084018961181c565b8381036060850152611a62818961181c565b60808501979097525093841660a083015250911660c090910152949350505050565b7f416363657373436f6e74726f6c3a206163636f756e7420000000000000000000815260008351611abc8160178501602088016117ec565b7f206973206d697373696e6720726f6c65200000000000000000000000000000006017918401918201528351611af98160288401602088016117ec565b01602801949350505050565b60208152600061066c602083018461181c565b634e487b7160e01b600052601160045260246000fd5b600082821015611b4057611b40611b18565b500390565b634e487b7160e01b600052603260045260246000fd5b634e487b7160e01b600052603160045260246000fd5b6000816000190483118215151615611b8b57611b8b611b18565b500290565b60008219821115611ba357611ba3611b18565b500190565b600081611bb757611bb7611b18565b50600019019056fea264697066735822122086939fc964878d34ba2cff09841f42f77677a26db09d0d710c723328414f290964736f6c63430008090033",
  "devdoc": {
    "kind": "dev",
    "methods": {
      "getRoleAdmin(bytes32)": {
        "details": "Returns the admin role that controls `role`. See {grantRole} and {revokeRole}. To change a role's admin, use {_setRoleAdmin}."
      },
      "getRoleMember(bytes32,uint256)": {
        "details": "Returns one of the accounts that have `role`. `index` must be a value between 0 and {getRoleMemberCount}, non-inclusive. Role bearers are not sorted in any particular way, and their ordering may change at any point. WARNING: When using {getRoleMember} and {getRoleMemberCount}, make sure you perform all queries on the same block. See the following https://forum.openzeppelin.com/t/iterating-over-elements-on-enumerableset-in-openzeppelin-contracts/2296[forum post] for more information."
      },
      "getRoleMemberCount(bytes32)": {
        "details": "Returns the number of accounts that have `role`. Can be used together with {getRoleMember} to enumerate all bearers of a role."
      },
      "grantRole(bytes32,address)": {
        "details": "Overload {grantRole} to track enumerable memberships"
      },
      "hasRole(bytes32,address)": {
        "details": "Returns `true` if `account` has been granted `role`."
      },
      "paused()": {
        "details": "Returns true if the contract is paused, and false otherwise."
      },
      "renounceRole(bytes32,address)": {
        "details": "Overload {renounceRole} to track enumerable memberships"
      },
      "revokeRole(bytes32,address)": {
        "details": "Overload {revokeRole} to track enumerable memberships"
      },
      "supportsInterface(bytes4)": {
        "details": "See {IERC165-supportsInterface}."
      }
    },
    "title": "Channeler",
    "version": 1
  },
  "userdoc": {
    "kind": "user",
    "methods": {},
    "notice": "Wraps all the transactions needed to fractionalize an NFT into one atomic transaction.",
    "version": 1
  },
  "storageLayout": {
    "storage": [
      {
        "astId": 2413,
        "contract": "contracts/channeler/Channeler.sol:Channeler",
        "label": "_roles",
        "offset": 0,
        "slot": "0",
        "type": "t_mapping(t_bytes32,t_struct(RoleData)2408_storage)"
      },
      {
        "astId": 2714,
        "contract": "contracts/channeler/Channeler.sol:Channeler",
        "label": "_roleMembers",
        "offset": 0,
        "slot": "1",
        "type": "t_mapping(t_bytes32,t_struct(AddressSet)6087_storage)"
      },
      {
        "astId": 3070,
        "contract": "contracts/channeler/Channeler.sol:Channeler",
        "label": "_paused",
        "offset": 0,
        "slot": "2",
        "type": "t_bool"
      }
    ],
    "types": {
      "t_address": {
        "encoding": "inplace",
        "label": "address",
        "numberOfBytes": "20"
      },
      "t_array(t_bytes32)dyn_storage": {
        "base": "t_bytes32",
        "encoding": "dynamic_array",
        "label": "bytes32[]",
        "numberOfBytes": "32"
      },
      "t_bool": {
        "encoding": "inplace",
        "label": "bool",
        "numberOfBytes": "1"
      },
      "t_bytes32": {
        "encoding": "inplace",
        "label": "bytes32",
        "numberOfBytes": "32"
      },
      "t_mapping(t_address,t_bool)": {
        "encoding": "mapping",
        "key": "t_address",
        "label": "mapping(address => bool)",
        "numberOfBytes": "32",
        "value": "t_bool"
      },
      "t_mapping(t_bytes32,t_struct(AddressSet)6087_storage)": {
        "encoding": "mapping",
        "key": "t_bytes32",
        "label": "mapping(bytes32 => struct EnumerableSet.AddressSet)",
        "numberOfBytes": "32",
        "value": "t_struct(AddressSet)6087_storage"
      },
      "t_mapping(t_bytes32,t_struct(RoleData)2408_storage)": {
        "encoding": "mapping",
        "key": "t_bytes32",
        "label": "mapping(bytes32 => struct AccessControl.RoleData)",
        "numberOfBytes": "32",
        "value": "t_struct(RoleData)2408_storage"
      },
      "t_mapping(t_bytes32,t_uint256)": {
        "encoding": "mapping",
        "key": "t_bytes32",
        "label": "mapping(bytes32 => uint256)",
        "numberOfBytes": "32",
        "value": "t_uint256"
      },
      "t_struct(AddressSet)6087_storage": {
        "encoding": "inplace",
        "label": "struct EnumerableSet.AddressSet",
        "members": [
          {
            "astId": 6086,
            "contract": "contracts/channeler/Channeler.sol:Channeler",
            "label": "_inner",
            "offset": 0,
            "slot": "0",
            "type": "t_struct(Set)5786_storage"
          }
        ],
        "numberOfBytes": "64"
      },
      "t_struct(RoleData)2408_storage": {
        "encoding": "inplace",
        "label": "struct AccessControl.RoleData",
        "members": [
          {
            "astId": 2405,
            "contract": "contracts/channeler/Channeler.sol:Channeler",
            "label": "members",
            "offset": 0,
            "slot": "0",
            "type": "t_mapping(t_address,t_bool)"
          },
          {
            "astId": 2407,
            "contract": "contracts/channeler/Channeler.sol:Channeler",
            "label": "adminRole",
            "offset": 0,
            "slot": "1",
            "type": "t_bytes32"
          }
        ],
        "numberOfBytes": "64"
      },
      "t_struct(Set)5786_storage": {
        "encoding": "inplace",
        "label": "struct EnumerableSet.Set",
        "members": [
          {
            "astId": 5781,
            "contract": "contracts/channeler/Channeler.sol:Channeler",
            "label": "_values",
            "offset": 0,
            "slot": "0",
            "type": "t_array(t_bytes32)dyn_storage"
          },
          {
            "astId": 5785,
            "contract": "contracts/channeler/Channeler.sol:Channeler",
            "label": "_indexes",
            "offset": 0,
            "slot": "1",
            "type": "t_mapping(t_bytes32,t_uint256)"
          }
        ],
        "numberOfBytes": "64"
      },
      "t_uint256": {
        "encoding": "inplace",
        "label": "uint256",
        "numberOfBytes": "32"
      }
    }
  }
}