{
  "address": "0x64D5221C37fe62A77266A8b9c113e4B6FEd76a12",
  "abi": [
    {
      "inputs": [
        {
          "internalType": "contract IBVault",
          "name": "vault_",
          "type": "address"
        },
        {
          "internalType": "contract IFractionalizationBootstrappingPoolFactory",
          "name": "poolFactory_",
          "type": "address"
        },
        {
          "internalType": "address",
          "name": "splitter_",
          "type": "address"
        },
        {
          "internalType": "address",
          "name": "bank_",
          "type": "address"
        },
        {
          "internalType": "uint256",
          "name": "protocolFee_",
          "type": "uint256"
        }
      ],
      "stateMutability": "nonpayable",
      "type": "constructor"
    },
    {
      "anonymous": false,
      "inputs": [
        {
          "indexed": true,
          "internalType": "contract sIERC20",
          "name": "sERC20",
          "type": "address"
        },
        {
          "indexed": true,
          "internalType": "uint256",
          "name": "proposalId",
          "type": "uint256"
        }
      ],
      "name": "AcceptProposal",
      "type": "event"
    },
    {
      "anonymous": false,
      "inputs": [
        {
          "indexed": false,
          "internalType": "contract sIERC20",
          "name": "",
          "type": "address"
        }
      ],
      "name": "Close",
      "type": "event"
    },
    {
      "anonymous": false,
      "inputs": [
        {
          "indexed": true,
          "internalType": "contract sIERC20",
          "name": "sERC20",
          "type": "address"
        },
        {
          "indexed": true,
          "internalType": "uint256",
          "name": "proposalId",
          "type": "uint256"
        },
        {
          "indexed": true,
          "internalType": "address",
          "name": "buyer",
          "type": "address"
        },
        {
          "indexed": false,
          "internalType": "uint256",
          "name": "value",
          "type": "uint256"
        },
        {
          "indexed": false,
          "internalType": "uint256",
          "name": "price",
          "type": "uint256"
        },
        {
          "indexed": false,
          "internalType": "uint256",
          "name": "expiration",
          "type": "uint256"
        }
      ],
      "name": "CreateProposal",
      "type": "event"
    },
    {
      "anonymous": false,
      "inputs": [
        {
          "indexed": true,
          "internalType": "contract sIERC20",
          "name": "sERC20",
          "type": "address"
        }
      ],
      "name": "EnableFlashIssuance",
      "type": "event"
    },
    {
      "anonymous": false,
      "inputs": [
        {
          "indexed": true,
          "internalType": "contract sIERC20",
          "name": "sERC20",
          "type": "address"
        },
        {
          "indexed": true,
          "internalType": "address",
          "name": "recipient",
          "type": "address"
        },
        {
          "indexed": false,
          "internalType": "uint256",
          "name": "value",
          "type": "uint256"
        },
        {
          "indexed": false,
          "internalType": "uint256",
          "name": "amount",
          "type": "uint256"
        }
      ],
      "name": "Issue",
      "type": "event"
    },
    {
      "anonymous": false,
      "inputs": [
        {
          "indexed": true,
          "internalType": "contract sIERC20",
          "name": "sERC20",
          "type": "address"
        },
        {
          "indexed": true,
          "internalType": "address",
          "name": "guardian",
          "type": "address"
        },
        {
          "indexed": false,
          "internalType": "contract IFractionalizationBootstrappingPool",
          "name": "pool",
          "type": "address"
        },
        {
          "indexed": false,
          "internalType": "bytes32",
          "name": "poolId",
          "type": "bytes32"
        },
        {
          "indexed": false,
          "internalType": "uint256",
          "name": "sMaxNormalizedWeight",
          "type": "uint256"
        },
        {
          "indexed": false,
          "internalType": "uint256",
          "name": "sMinNormalizedWeight",
          "type": "uint256"
        },
        {
          "indexed": false,
          "internalType": "uint256",
          "name": "swapFeePercentage",
          "type": "uint256"
        },
        {
          "indexed": false,
          "internalType": "uint256",
          "name": "reserve",
          "type": "uint256"
        },
        {
          "indexed": false,
          "internalType": "uint256",
          "name": "allocation",
          "type": "uint256"
        },
        {
          "indexed": false,
          "internalType": "uint256",
          "name": "fee",
          "type": "uint256"
        }
      ],
      "name": "Register",
      "type": "event"
    },
    {
      "anonymous": false,
      "inputs": [
        {
          "indexed": true,
          "internalType": "contract sIERC20",
          "name": "sERC20",
          "type": "address"
        },
        {
          "indexed": true,
          "internalType": "uint256",
          "name": "proposalId",
          "type": "uint256"
        }
      ],
      "name": "RejectProposal",
      "type": "event"
    },
    {
      "anonymous": false,
      "inputs": [
        {
          "indexed": true,
          "internalType": "bytes32",
          "name": "role",
          "type": "bytes32"
        },
        {
          "indexed": true,
          "internalType": "bytes32",
          "name": "previousAdminRole",
          "type": "bytes32"
        },
        {
          "indexed": true,
          "internalType": "bytes32",
          "name": "newAdminRole",
          "type": "bytes32"
        }
      ],
      "name": "RoleAdminChanged",
      "type": "event"
    },
    {
      "anonymous": false,
      "inputs": [
        {
          "indexed": true,
          "internalType": "bytes32",
          "name": "role",
          "type": "bytes32"
        },
        {
          "indexed": true,
          "internalType": "address",
          "name": "account",
          "type": "address"
        },
        {
          "indexed": true,
          "internalType": "address",
          "name": "sender",
          "type": "address"
        }
      ],
      "name": "RoleGranted",
      "type": "event"
    },
    {
      "anonymous": false,
      "inputs": [
        {
          "indexed": true,
          "internalType": "bytes32",
          "name": "role",
          "type": "bytes32"
        },
        {
          "indexed": true,
          "internalType": "address",
          "name": "account",
          "type": "address"
        },
        {
          "indexed": true,
          "internalType": "address",
          "name": "sender",
          "type": "address"
        }
      ],
      "name": "RoleRevoked",
      "type": "event"
    },
    {
      "anonymous": false,
      "inputs": [
        {
          "indexed": false,
          "internalType": "address",
          "name": "bank",
          "type": "address"
        }
      ],
      "name": "SetBank",
      "type": "event"
    },
    {
      "anonymous": false,
      "inputs": [
        {
          "indexed": false,
          "internalType": "uint256",
          "name": "protocolFee",
          "type": "uint256"
        }
      ],
      "name": "SetProtocolFee",
      "type": "event"
    },
    {
      "anonymous": false,
      "inputs": [
        {
          "indexed": true,
          "internalType": "contract sIERC20",
          "name": "sERC20",
          "type": "address"
        },
        {
          "indexed": true,
          "internalType": "uint256",
          "name": "proposalId",
          "type": "uint256"
        }
      ],
      "name": "WithdrawProposal",
      "type": "event"
    },
    {
      "inputs": [],
      "name": "CLOSE_ROLE",
      "outputs": [
        {
          "internalType": "bytes32",
          "name": "",
          "type": "bytes32"
        }
      ],
      "stateMutability": "view",
      "type": "function"
    },
    {
      "inputs": [],
      "name": "DECIMALS",
      "outputs": [
        {
          "internalType": "uint256",
          "name": "",
          "type": "uint256"
        }
      ],
      "stateMutability": "view",
      "type": "function"
    },
    {
      "inputs": [],
      "name": "DEFAULT_ADMIN_ROLE",
      "outputs": [
        {
          "internalType": "bytes32",
          "name": "",
          "type": "bytes32"
        }
      ],
      "stateMutability": "view",
      "type": "function"
    },
    {
      "inputs": [],
      "name": "HUNDRED",
      "outputs": [
        {
          "internalType": "uint256",
          "name": "",
          "type": "uint256"
        }
      ],
      "stateMutability": "view",
      "type": "function"
    },
    {
      "inputs": [],
      "name": "REGISTER_ROLE",
      "outputs": [
        {
          "internalType": "bytes32",
          "name": "",
          "type": "bytes32"
        }
      ],
      "stateMutability": "view",
      "type": "function"
    },
    {
      "inputs": [],
      "name": "WETH",
      "outputs": [
        {
          "internalType": "address",
          "name": "",
          "type": "address"
        }
      ],
      "stateMutability": "view",
      "type": "function"
    },
    {
      "inputs": [
        {
          "internalType": "contract sIERC20",
          "name": "sERC20",
          "type": "address"
        },
        {
          "internalType": "uint256",
          "name": "proposalId",
          "type": "uint256"
        }
      ],
      "name": "acceptProposal",
      "outputs": [],
      "stateMutability": "nonpayable",
      "type": "function"
    },
    {
      "inputs": [],
      "name": "bank",
      "outputs": [
        {
          "internalType": "address",
          "name": "",
          "type": "address"
        }
      ],
      "stateMutability": "view",
      "type": "function"
    },
    {
      "inputs": [
        {
          "internalType": "contract sIERC20",
          "name": "sERC20",
          "type": "address"
        }
      ],
      "name": "close",
      "outputs": [],
      "stateMutability": "nonpayable",
      "type": "function"
    },
    {
      "inputs": [
        {
          "internalType": "contract sIERC20",
          "name": "sERC20",
          "type": "address"
        },
        {
          "internalType": "uint256",
          "name": "price",
          "type": "uint256"
        },
        {
          "internalType": "uint256",
          "name": "lifespan",
          "type": "uint256"
        }
      ],
      "name": "createProposal",
      "outputs": [
        {
          "internalType": "uint256",
          "name": "",
          "type": "uint256"
        }
      ],
      "stateMutability": "payable",
      "type": "function"
    },
    {
      "inputs": [
        {
          "internalType": "contract sIERC20",
          "name": "sERC20",
          "type": "address"
        }
      ],
      "name": "enableFlashIssuance",
      "outputs": [],
      "stateMutability": "nonpayable",
      "type": "function"
    },
    {
      "inputs": [
        {
          "internalType": "bytes32",
          "name": "role",
          "type": "bytes32"
        }
      ],
      "name": "getRoleAdmin",
      "outputs": [
        {
          "internalType": "bytes32",
          "name": "",
          "type": "bytes32"
        }
      ],
      "stateMutability": "view",
      "type": "function"
    },
    {
      "inputs": [
        {
          "internalType": "bytes32",
          "name": "role",
          "type": "bytes32"
        },
        {
          "internalType": "uint256",
          "name": "index",
          "type": "uint256"
        }
      ],
      "name": "getRoleMember",
      "outputs": [
        {
          "internalType": "address",
          "name": "",
          "type": "address"
        }
      ],
      "stateMutability": "view",
      "type": "function"
    },
    {
      "inputs": [
        {
          "internalType": "bytes32",
          "name": "role",
          "type": "bytes32"
        }
      ],
      "name": "getRoleMemberCount",
      "outputs": [
        {
          "internalType": "uint256",
          "name": "",
          "type": "uint256"
        }
      ],
      "stateMutability": "view",
      "type": "function"
    },
    {
      "inputs": [
        {
          "internalType": "bytes32",
          "name": "role",
          "type": "bytes32"
        },
        {
          "internalType": "address",
          "name": "account",
          "type": "address"
        }
      ],
      "name": "grantRole",
      "outputs": [],
      "stateMutability": "nonpayable",
      "type": "function"
    },
    {
      "inputs": [
        {
          "internalType": "bytes32",
          "name": "role",
          "type": "bytes32"
        },
        {
          "internalType": "address",
          "name": "account",
          "type": "address"
        }
      ],
      "name": "hasRole",
      "outputs": [
        {
          "internalType": "bool",
          "name": "",
          "type": "bool"
        }
      ],
      "stateMutability": "view",
      "type": "function"
    },
    {
      "inputs": [
        {
          "internalType": "contract sIERC20",
          "name": "sERC20",
          "type": "address"
        }
      ],
      "name": "issuanceOf",
      "outputs": [
        {
          "internalType": "enum Issuances.State",
          "name": "state",
          "type": "uint8"
        },
        {
          "internalType": "address",
          "name": "guardian",
          "type": "address"
        },
        {
          "internalType": "contract IFractionalizationBootstrappingPool",
          "name": "pool",
          "type": "address"
        },
        {
          "internalType": "bytes32",
          "name": "poolId",
          "type": "bytes32"
        },
        {
          "internalType": "uint256",
          "name": "reserve",
          "type": "uint256"
        },
        {
          "internalType": "uint256",
          "name": "allocation",
          "type": "uint256"
        },
        {
          "internalType": "uint256",
          "name": "fee",
          "type": "uint256"
        },
        {
          "internalType": "uint256",
          "name": "nbOfProposals",
          "type": "uint256"
        },
        {
          "internalType": "bool",
          "name": "flash",
          "type": "bool"
        },
        {
          "internalType": "bool",
          "name": "sERC20IsToken0",
          "type": "bool"
        }
      ],
      "stateMutability": "view",
      "type": "function"
    },
    {
      "inputs": [
        {
          "internalType": "contract sIERC20",
          "name": "sERC20",
          "type": "address"
        },
        {
          "internalType": "uint256",
          "name": "expected",
          "type": "uint256"
        }
      ],
      "name": "issue",
      "outputs": [],
      "stateMutability": "payable",
      "type": "function"
    },
    {
      "inputs": [],
      "name": "poolFactory",
      "outputs": [
        {
          "internalType": "contract IFractionalizationBootstrappingPoolFactory",
          "name": "",
          "type": "address"
        }
      ],
      "stateMutability": "view",
      "type": "function"
    },
    {
      "inputs": [
        {
          "internalType": "contract sIERC20",
          "name": "sERC20",
          "type": "address"
        }
      ],
      "name": "priceOf",
      "outputs": [
        {
          "internalType": "uint256",
          "name": "",
          "type": "uint256"
        }
      ],
      "stateMutability": "view",
      "type": "function"
    },
    {
      "inputs": [
        {
          "internalType": "contract sIERC20",
          "name": "sERC20",
          "type": "address"
        },
        {
          "internalType": "uint256",
          "name": "proposalId",
          "type": "uint256"
        }
      ],
      "name": "proposalFor",
      "outputs": [
        {
          "internalType": "enum Proposals.State",
          "name": "state",
          "type": "uint8"
        },
        {
          "internalType": "address",
          "name": "buyer",
          "type": "address"
        },
        {
          "internalType": "uint256",
          "name": "value",
          "type": "uint256"
        },
        {
          "internalType": "uint256",
          "name": "price",
          "type": "uint256"
        },
        {
          "internalType": "uint256",
          "name": "expiration",
          "type": "uint256"
        }
      ],
      "stateMutability": "view",
      "type": "function"
    },
    {
      "inputs": [],
      "name": "protocolFee",
      "outputs": [
        {
          "internalType": "uint256",
          "name": "",
          "type": "uint256"
        }
      ],
      "stateMutability": "view",
      "type": "function"
    },
    {
      "inputs": [
        {
          "internalType": "contract sIERC20",
          "name": "sERC20",
          "type": "address"
        },
        {
          "internalType": "address",
          "name": "guardian",
          "type": "address"
        },
        {
          "internalType": "uint256",
          "name": "sMaxNormalizedWeight",
          "type": "uint256"
        },
        {
          "internalType": "uint256",
          "name": "sMinNormalizedWeight",
          "type": "uint256"
        },
        {
          "internalType": "uint256",
          "name": "swapFeePercentage",
          "type": "uint256"
        },
        {
          "internalType": "uint256",
          "name": "reserve",
          "type": "uint256"
        },
        {
          "internalType": "uint256",
          "name": "allocation",
          "type": "uint256"
        },
        {
          "internalType": "uint256",
          "name": "fee",
          "type": "uint256"
        },
        {
          "internalType": "bool",
          "name": "flash",
          "type": "bool"
        }
      ],
      "name": "register",
      "outputs": [],
      "stateMutability": "nonpayable",
      "type": "function"
    },
    {
      "inputs": [
        {
          "internalType": "contract sIERC20",
          "name": "sERC20",
          "type": "address"
        },
        {
          "internalType": "uint256",
          "name": "proposalId",
          "type": "uint256"
        }
      ],
      "name": "rejectProposal",
      "outputs": [],
      "stateMutability": "nonpayable",
      "type": "function"
    },
    {
      "inputs": [
        {
          "internalType": "bytes32",
          "name": "role",
          "type": "bytes32"
        },
        {
          "internalType": "address",
          "name": "account",
          "type": "address"
        }
      ],
      "name": "renounceRole",
      "outputs": [],
      "stateMutability": "nonpayable",
      "type": "function"
    },
    {
      "inputs": [
        {
          "internalType": "bytes32",
          "name": "role",
          "type": "bytes32"
        },
        {
          "internalType": "address",
          "name": "account",
          "type": "address"
        }
      ],
      "name": "revokeRole",
      "outputs": [],
      "stateMutability": "nonpayable",
      "type": "function"
    },
    {
      "inputs": [
        {
          "internalType": "address",
          "name": "bank_",
          "type": "address"
        }
      ],
      "name": "setBank",
      "outputs": [],
      "stateMutability": "nonpayable",
      "type": "function"
    },
    {
      "inputs": [
        {
          "internalType": "uint256",
          "name": "protocolFee_",
          "type": "uint256"
        }
      ],
      "name": "setProtocolFee",
      "outputs": [],
      "stateMutability": "nonpayable",
      "type": "function"
    },
    {
      "inputs": [],
      "name": "splitter",
      "outputs": [
        {
          "internalType": "address",
          "name": "",
          "type": "address"
        }
      ],
      "stateMutability": "view",
      "type": "function"
    },
    {
      "inputs": [
        {
          "internalType": "bytes4",
          "name": "interfaceId",
          "type": "bytes4"
        }
      ],
      "name": "supportsInterface",
      "outputs": [
        {
          "internalType": "bool",
          "name": "",
          "type": "bool"
        }
      ],
      "stateMutability": "view",
      "type": "function"
    },
    {
      "inputs": [
        {
          "internalType": "contract sIERC20",
          "name": "sERC20",
          "type": "address"
        },
        {
          "internalType": "enum IIssuer.TwapKind",
          "name": "kind",
          "type": "uint8"
        }
      ],
      "name": "twapOf",
      "outputs": [
        {
          "internalType": "uint256",
          "name": "",
          "type": "uint256"
        }
      ],
      "stateMutability": "view",
      "type": "function"
    },
    {
      "inputs": [],
      "name": "vault",
      "outputs": [
        {
          "internalType": "contract IBVault",
          "name": "",
          "type": "address"
        }
      ],
      "stateMutability": "view",
      "type": "function"
    },
    {
      "inputs": [
        {
          "internalType": "contract sIERC20",
          "name": "sERC20",
          "type": "address"
        },
        {
          "internalType": "uint256",
          "name": "proposalId",
          "type": "uint256"
        }
      ],
      "name": "withdrawProposal",
      "outputs": [],
      "stateMutability": "nonpayable",
      "type": "function"
    }
  ],
  "transactionHash": "0x8b351218599b1f78c1423e0668ee9c8e8568625431a7ad725513ad507e1fefe9",
  "args": [
    "0xba12222222228d8ba445958a75a0704d566bf2c8",
    "0xC70A5dD0EA37BdcB32790A0976eA121AA83E81c6",
    "0x5E0418E6614943a7BEe3FB220Ce72491F8bD004E",
    "0x8873b045d40a458e46e356a96279ae1820a898ba",
    "3000000000000000000"
  ],
  "solcInputHash": "e063610f6b9cf6ecd84ffa013d639e0f",
  "bytecode": "0x6101006040523480156200001257600080fd5b506040516200488e3803806200488e833981016040819052620000359162000527565b6001600160a01b038516620000a25760405162461bcd60e51b815260206004820152602860248201527f4973737565723a207661756c742063616e6e6f7420626520746865207a65726f604482015267206164647265737360c01b60648201526084015b60405180910390fd5b6001600160a01b038416620001125760405162461bcd60e51b815260206004820152602f60248201527f4973737565723a20706f6f6c20666163746f72792063616e6e6f74206265207460448201526e6865207a65726f206164647265737360881b606482015260840162000099565b6001600160a01b0383166200017e5760405162461bcd60e51b815260206004820152602b60248201527f4973737565723a2073706c69747465722063616e6e6f7420626520746865207a60448201526a65726f206164647265737360a81b606482015260840162000099565b6001600160a01b038216620001e65760405162461bcd60e51b815260206004820152602760248201527f4973737565723a2062616e6b2063616e6e6f7420626520746865207a65726f206044820152666164647265737360c81b606482015260840162000099565b68056bc75e2d631000008110620002565760405162461bcd60e51b815260206004820152602d60248201527f4973737565723a2070726f746f636f6c20666565206d75737420626520696e6660448201526c6572696f7220746f203130302560981b606482015260840162000099565b6001600160a01b03808616608081905285821660a05290841660c052604080516315ab88c960e31b8152905163ad5c464891600480820192602092909190829003018186803b158015620002a957600080fd5b505afa158015620002be573d6000803e3d6000fd5b505050506040513d601f19601f82011682018060405250810190620002e491906200059b565b6001600160a01b031660e052620002fb826200031e565b620003068162000373565b62000313600033620003a9565b5050505050620005c2565b600280546001600160a01b0319166001600160a01b0383169081179091556040519081527f10f5824683d64a0712038f2244e046b174a1cc57fbb8556bfda5ffb261244067906020015b60405180910390a150565b60038190556040518181527fdc0410a296e1e33943a772020d333d5f99319d7fcad932a484c53889f7aaa2b19060200162000368565b620003c08282620003ec60201b6200230c1760201c565b6000828152600160209081526040909120620003e791839062002316620003fc821b17901c565b505050565b620003f882826200041c565b5050565b600062000413836001600160a01b038416620004bc565b90505b92915050565b6000828152602081815260408083206001600160a01b038516845290915290205460ff16620003f8576000828152602081815260408083206001600160a01b03851684529091529020805460ff19166001179055620004783390565b6001600160a01b0316816001600160a01b0316837f2f8788117e7eff1d82e926ec794901d17c78024a50270940304540a733656f0d60405160405180910390a45050565b6000818152600183016020526040812054620005055750815460018181018455600084815260208082209093018490558454848252828601909352604090209190915562000416565b50600062000416565b6001600160a01b03811681146200052457600080fd5b50565b600080600080600060a086880312156200054057600080fd5b85516200054d816200050e565b602087015190955062000560816200050e565b604087015190945062000573816200050e565b606087015190935062000586816200050e565b80925050608086015190509295509295909350565b600060208284031215620005ae57600080fd5b8151620005bb816200050e565b9392505050565b60805160a05160c05160e0516142616200062d600039600081816105dc015281816108db01528181610bea0152610ca501526000818161033601526127040152600081816103d101528181610bbb0152610c760152600081816107320152612f6b01526142616000f3fe6080604052600436106101fe5760003560e01c8063787dce3d1161011d578063b0e21e8a116100b0578063d547741f1161007f578063f3df1e3211610064578063f3df1e32146106d5578063f85fc0ab14610706578063fbfa77cf1461072357600080fd5b8063d547741f14610695578063df4332b3146106b557600080fd5b8063b0e21e8a14610620578063b95ed06f14610635578063c74073a114610655578063ca15c8731461067557600080fd5b8063a0058b3d116100ec578063a0058b3d14610598578063a217fddf146105b8578063ad5c4648146105cd578063b0913a131461060057600080fd5b8063787dce3d14610501578063867904b4146105215780639010d07c1461053457806391d148541461055457600080fd5b80633cd8045e116101955780635168e1a1116101645780635168e1a1146103f55780636ff74f201461041557806374f53317146104af57806376cdb03b146104e357600080fd5b80633cd8045e14610327578063400e3d9b1461036e5780634209f150146103a25780634219dc40146103c257600080fd5b80632e0f2625116101d15780632e0f2625146102b85780632e8bb119146102d45780632f2ff15d146102e757806336568abe1461030757600080fd5b806301ffc9a714610203578063090d23b914610238578063248a9ca31461025a5780632c32a64214610298575b600080fd5b34801561020f57600080fd5b5061022361021e3660046138ef565b610756565b60405190151581526020015b60405180910390f35b34801561024457600080fd5b50610258610253366004613946565b6107b2565b005b34801561026657600080fd5b5061028a610275366004613963565b60009081526020819052604090206001015490565b60405190815260200161022f565b3480156102a457600080fd5b506102586102b336600461398a565b6108bc565b3480156102c457600080fd5b5061028a670de0b6b3a764000081565b61028a6102e2366004613a10565b610f0f565b3480156102f357600080fd5b50610258610302366004613a45565b6112d3565b34801561031357600080fd5b50610258610322366004613a45565b6112fa565b34801561033357600080fd5b507f00000000000000000000000000000000000000000000000000000000000000005b6040516001600160a01b03909116815260200161022f565b34801561037a57600080fd5b5061028a7f78844962b347caf400e109846dc948d8df0fc5b2f795edb688517fc687580cd481565b3480156103ae57600080fd5b506102586103bd366004613a75565b61131c565b3480156103ce57600080fd5b507f0000000000000000000000000000000000000000000000000000000000000000610356565b34801561040157600080fd5b50610258610410366004613a75565b611628565b34801561042157600080fd5b50610499610430366004613946565b6001600160a01b0390811660009081526004602081905260409091208054600182015460028301546003840154948401546005850154600686015460089096015460ff8087169a610100978890048b169a96909616989497949693959294938282169392041690565b60405161022f9a99989796959493929190613ac7565b3480156104bb57600080fd5b5061028a7fd1f21ec03a6eb050fba156f5316dad461735df521fb446dd42c5a4728e9c70fe81565b3480156104ef57600080fd5b506002546001600160a01b0316610356565b34801561050d57600080fd5b5061025861051c366004613963565b6117cb565b61025861052f366004613a75565b6118cf565b34801561054057600080fd5b5061035661054f366004613b28565b611b8f565b34801561056057600080fd5b5061022361056f366004613a45565b6000918252602082815260408084206001600160a01b0393909316845291905290205460ff1690565b3480156105a457600080fd5b5061028a6105b3366004613b4a565b611ba7565b3480156105c457600080fd5b5061028a600081565b3480156105d957600080fd5b507f0000000000000000000000000000000000000000000000000000000000000000610356565b34801561060c57600080fd5b5061025861061b366004613a75565b611cd2565b34801561062c57600080fd5b5060035461028a565b34801561064157600080fd5b5061028a610650366004613946565b611e78565b34801561066157600080fd5b50610258610670366004613946565b611f98565b34801561068157600080fd5b5061028a610690366004613963565b6120fc565b3480156106a157600080fd5b506102586106b0366004613a45565b612113565b3480156106c157600080fd5b506102586106d0366004613946565b61211d565b3480156106e157600080fd5b506106f56106f0366004613a75565b6122a3565b60405161022f959493929190613b7c565b34801561071257600080fd5b5061028a68056bc75e2d6310000081565b34801561072f57600080fd5b507f0000000000000000000000000000000000000000000000000000000000000000610356565b60007fffffffff0000000000000000000000000000000000000000000000000000000082167f5a05180f0000000000000000000000000000000000000000000000000000000014806107ac57506107ac8261232b565b92915050565b6107bd60003361056f565b6108345760405162461bcd60e51b815260206004820152603060248201527f4973737565723a206d75737420686176652044454641554c545f41444d494e5f60448201527f524f4c4520746f207365742062616e6b0000000000000000000000000000000060648201526084015b60405180910390fd5b6001600160a01b0381166108b05760405162461bcd60e51b815260206004820152602760248201527f4973737565723a2062616e6b2063616e6e6f7420626520746865207a65726f2060448201527f6164647265737300000000000000000000000000000000000000000000000000606482015260840161082b565b6108b9816123c2565b50565b6001600160a01b038981166000818152600460205260408120909290917f000000000000000000000000000000000000000000000000000000000000000090911610156109297fd1f21ec03a6eb050fba156f5316dad461735df521fb446dd42c5a4728e9c70fe3361056f565b61099b5760405162461bcd60e51b815260206004820152602b60248201527f4973737565723a206d75737420686176652052454749535445525f524f4c452060448201527f746f207265676973746572000000000000000000000000000000000000000000606482015260840161082b565b6001600160a01b038b16610a175760405162461bcd60e51b815260206004820152602b60248201527f4973737565723a20677561726469616e2063616e6e6f7420626520746865207a60448201527f65726f2061646472657373000000000000000000000000000000000000000000606482015260840161082b565b86610a895760405162461bcd60e51b8152602060048201526024808201527f4973737565723a20726573657276652070726963652063616e6e6f742062652060448201527f6e756c6c00000000000000000000000000000000000000000000000000000000606482015260840161082b565b68056bc75e2d631000008610610b075760405162461bcd60e51b815260206004820152602b60248201527f4973737565723a20616c6c6f636174696f6e206d75737420626520696e66657260448201527f696f7220746f2031303025000000000000000000000000000000000000000000606482015260840161082b565b68056bc75e2d631000008510610b855760405162461bcd60e51b815260206004820152602d60248201527f4973737565723a2069737375616e636520666565206d75737420626520696e6660448201527f6572696f7220746f203130302500000000000000000000000000000000000000606482015260840161082b565b8015610c74576040517f9866e2490000000000000000000000000000000000000000000000000000000081526001600160a01b037f00000000000000000000000000000000000000000000000000000000000000001690639866e24990610c1b908f907f0000000000000000000000000000000000000000000000000000000000000000908f908f908f90600190600401613bba565b602060405180830381600087803b158015610c3557600080fd5b505af1158015610c49573d6000803e3d6000fd5b505050506040513d601f19601f82011682018060405250810190610c6d9190613c87565b9250610d40565b7f00000000000000000000000000000000000000000000000000000000000000006001600160a01b0316639866e2497f00000000000000000000000000000000000000000000000000000000000000008e8d8d8d60006040518763ffffffff1660e01b8152600401610ceb96959493929190613bba565b602060405180830381600087803b158015610d0557600080fd5b505af1158015610d19573d6000803e3d6000fd5b505050506040513d601f19601f82011682018060405250810190610d3d9190613c87565b92505b6000836001600160a01b03166338fff2d06040518163ffffffff1660e01b815260040160206040518083038186803b158015610d7b57600080fd5b505afa158015610d8f573d6000803e3d6000fd5b505050506040513d601f19601f82011682018060405250810190610db39190613ca4565b83546001600160a01b038e81166101009081027fffffffffffffffffffffff0000000000000000000000000000000000000000009093169290921760019081178755860180549188167fffffffffffffffffffffffff000000000000000000000000000000000000000090921691909117905560028501829055600385018a905560048501899055600585018890556008850180548515159092027fffffffffffffffffffffffffffffffffffffffffffffffffffffffffffff00ff90921691909117905590508415610e8a57610e8a8d8461242f565b604080516001600160a01b038681168252602082018490529181018d9052606081018c9052608081018b905260a081018a905260c0810189905260e08101889052818e16918f16907f21e331155a643f27ac076b298336b2670996ce080ca299d5a7b13f50899ed7d7906101000160405180910390a350505050505050505050505050565b6001600160a01b03831660009081526004602052604081208054339060019060ff166002811115610f4257610f42613aa1565b14610f8f5760405162461bcd60e51b815260206004820152601e60248201527f4973737565723a20696e76616c69642069737375616e63652073746174650000604482015260640161082b565b600882015460ff161561100a5760405162461bcd60e51b815260206004820152602160248201527f4973737565723a20666c6173682069737375616e636520697320656e61626c6560448201527f6400000000000000000000000000000000000000000000000000000000000000606482015260840161082b565b600034116110805760405162461bcd60e51b815260206004820152602560248201527f4973737565723a2069737375616e63652076616c75652063616e6e6f7420626560448201527f206e756c6c000000000000000000000000000000000000000000000000000000606482015260840161082b565b600085118015611132575060018201546003830154604080516318160ddd60e01b8152905161112e936001600160a01b0316929160009184916318160ddd916004808301926020929190829003018186803b1580156110de57600080fd5b505afa1580156110f2573d6000803e3d6000fd5b505050506040513d601f19601f820116820180604052508101906111169190613ca4565b118560080160019054906101000a900460ff16612476565b8511155b61117e5760405162461bcd60e51b815260206004820152601e60248201527f4973737565723a20696e76616c69642069737375616e63652070726963650000604482015260640161082b565b6006820180546000918261119183613cd3565b909155509050600085156111ae576111a98642613cee565b6111b1565b60005b6040805160a0810190915290915080600181526001600160a01b03851660208083019190915234604080840191909152606083018b905260809092018490526000858152600788019091522081518154829060ff1916600183600581111561121b5761121b613aa1565b021790555060208281015182547fffffffffffffffffffffff0000000000000000000000000000000000000000ff166101006001600160a01b03928316021783556040808501516001850155606080860151600286015560809095015160039094019390935582513481529182018b90529181018490528582169285928c16917f2e0ff6e48a8a48aff6ceabfca8b39f5468c5d8537cda6f84bf3d138a057d63a9910160405180910390a450925050505b9392505050565b6112dd82826124a3565b60008281526001602052604090206112f59082612316565b505050565b61130482826124c9565b60008281526001602052604090206112f59082612551565b6001600160a01b03828116600090815260046020908152604080832085845260078101909252909120815491929091610100900416336001600160a01b0316146113ce5760405162461bcd60e51b815260206004820152603660248201527f4973737565723a206d7573742062652069737375616e6365277320677561726460448201527f69616e20746f206163636570742070726f706f73616c00000000000000000000606482015260840161082b565b6001825460ff1660028111156113e6576113e6613aa1565b146114335760405162461bcd60e51b815260206004820152601e60248201527f4973737565723a20696e76616c69642069737375616e63652073746174650000604482015260640161082b565b600161143e82612566565b600581111561144f5761144f613aa1565b1461149c5760405162461bcd60e51b815260206004820152601e60248201527f4973737565723a20696e76616c69642070726f706f73616c2073746174650000604482015260640161082b565b600882015460ff16156115175760405162461bcd60e51b815260206004820152602160248201527f4973737565723a20666c6173682069737375616e636520697320656e61626c6560448201527f6400000000000000000000000000000000000000000000000000000000000000606482015260840161082b565b805460ff1916600217815560405183906001600160a01b038616907fb68b23f18c187dede5027186d7dae9fda610a1ce0d025876dd7fb1fa9c52250790600090a361162184838360000160019054906101000a90046001600160a01b03168460010154856002015460008860010160009054906101000a90046001600160a01b03166001600160a01b03166318160ddd6040518163ffffffff1660e01b815260040160206040518083038186803b1580156115d157600080fd5b505afa1580156115e5573d6000803e3d6000fd5b505050506040513d601f19601f820116820180604052508101906116099190613ca4565b118860080160019054906101000a900460ff166125c0565b5050505050565b6001600160a01b038216600090815260046020908152604080832084845260070190915281209061165882612566565b825490915061010090046001600160a01b0316336001600160a01b0316146116e85760405162461bcd60e51b815260206004820152603560248201527f4973737565723a206d7573742062652070726f706f73616c277320627579657260448201527f20746f2077697468647261772070726f706f73616c0000000000000000000000606482015260840161082b565b60018160058111156116fc576116fc613aa1565b14806117195750600481600581111561171757611717613aa1565b145b6117655760405162461bcd60e51b815260206004820152601e60248201527f4973737565723a20696e76616c69642070726f706f73616c2073746174650000604482015260640161082b565b815460ff1916600517808355600183015461178f916001600160a01b03610100909104169061287d565b60405183906001600160a01b038616907ffb591de3f595328713bb4313a53f62d518cfcdbc6b8efd8e1824d80d1d0d03fb90600090a350505050565b6117d660003361056f565b6118485760405162461bcd60e51b815260206004820152603860248201527f4973737565723a206d75737420686176652044454641554c545f41444d494e5f60448201527f524f4c4520746f207365742070726f746f636f6c206665650000000000000000606482015260840161082b565b68056bc75e2d6310000081106118c65760405162461bcd60e51b815260206004820152602d60248201527f4973737565723a2070726f746f636f6c20666565206d75737420626520696e6660448201527f6572696f7220746f203130302500000000000000000000000000000000000000606482015260840161082b565b6108b981612996565b6001600160a01b03821660009081526004602052604090206001815460ff1660028111156118ff576118ff613aa1565b1461194c5760405162461bcd60e51b815260206004820152601e60248201527f4973737565723a20696e76616c69642069737375616e63652073746174650000604482015260640161082b565b600881015460ff166119c65760405162461bcd60e51b815260206004820152602260248201527f4973737565723a20666c6173682069737375616e63652069732064697361626c60448201527f6564000000000000000000000000000000000000000000000000000000000000606482015260840161082b565b34611a395760405162461bcd60e51b815260206004820152602560248201527f4973737565723a2069737375616e63652076616c75652063616e6e6f7420626560448201527f206e756c6c000000000000000000000000000000000000000000000000000000606482015260840161082b565b6000808260010160009054906101000a90046001600160a01b03166001600160a01b03166318160ddd6040518163ffffffff1660e01b815260040160206040518083038186803b158015611a8c57600080fd5b505afa158015611aa0573d6000803e3d6000fd5b505050506040513d601f19601f82011682018060405250810190611ac49190613ca4565b600884015460018501546003860154939092119350610100900460ff1691600091611afc916001600160a01b03909116908585612476565b90506000611b0f878633348689896125c0565b905085811015611b865760405162461bcd60e51b8152602060048201526024808201527f4973737565723a20696e73756666696369656e742069737375616e636520726560448201527f7475726e00000000000000000000000000000000000000000000000000000000606482015260840161082b565b50505050505050565b60008281526001602052604081206112cc90836129cb565b6001600160a01b038216600090815260046020526040812081815460ff166002811115611bd657611bd6613aa1565b1415611c245760405162461bcd60e51b815260206004820152601e60248201527f4973737565723a20696e76616c69642069737375616e63652073746174650000604482015260640161082b565b60018101546003820154604080516318160ddd60e01b81529051611cca936001600160a01b03169291879160009185916318160ddd91600480820192602092909190829003018186803b158015611c7a57600080fd5b505afa158015611c8e573d6000803e3d6000fd5b505050506040513d601f19601f82011682018060405250810190611cb29190613ca4565b118560080160019054906101000a900460ff166129d7565b949350505050565b6001600160a01b03821660009081526004602090815260408083208484526007810190925282209091611d0482612566565b835490915061010090046001600160a01b0316336001600160a01b031614611d945760405162461bcd60e51b815260206004820152603660248201527f4973737565723a206d7573742062652069737375616e6365277320677561726460448201527f69616e20746f2072656a6563742070726f706f73616c00000000000000000000606482015260840161082b565b6001816005811115611da857611da8613aa1565b1480611dc557506004816005811115611dc357611dc3613aa1565b145b611e115760405162461bcd60e51b815260206004820152601e60248201527f4973737565723a20696e76616c69642070726f706f73616c2073746174650000604482015260640161082b565b815460ff19166003178083556001830154611e3b916001600160a01b03610100909104169061287d565b60405184906001600160a01b038716907f123432125627249bc47aca642b7e775249fbacf9c32f467ef8eade2c0bd859e990600090a35050505050565b6001600160a01b038116600090815260046020526040812081815460ff166002811115611ea757611ea7613aa1565b1415611ef55760405162461bcd60e51b815260206004820152601e60248201527f4973737565723a20696e76616c69642069737375616e63652073746174650000604482015260640161082b565b60018101546003820154604080516318160ddd60e01b815290516112cc936001600160a01b0316929160009184916318160ddd916004808301926020929190829003018186803b158015611f4857600080fd5b505afa158015611f5c573d6000803e3d6000fd5b505050506040513d601f19601f82011682018060405250810190611f809190613ca4565b118460080160019054906101000a900460ff16612476565b6001600160a01b0381166000908152600460205260409020611fda7f78844962b347caf400e109846dc948d8df0fc5b2f795edb688517fc687580cd43361056f565b61204c5760405162461bcd60e51b815260206004820152602e60248201527f4973737565723a206d757374206861766520434c4f53455f524f4c4520746f2060448201527f636c6f73652069737375616e6365000000000000000000000000000000000000606482015260840161082b565b6001815460ff16600281111561206457612064613aa1565b146120b15760405162461bcd60e51b815260206004820152601e60248201527f4973737565723a20696e76616c69642069737375616e63652073746174650000604482015260640161082b565b805460ff191660021781556040516001600160a01b03831681527f5b19963bf6a9a00776cbf844c84e706258ed0ca06d00f699e9d99858942c75039060200160405180910390a15050565b60008181526001602052604081206107ac90612c4f565b6113048282612c59565b6001600160a01b038181166000908152600460205260409020805490913361010090920416146121b55760405162461bcd60e51b815260206004820152603c60248201527f4973737565723a206d7573742062652069737375616e6365277320677561726460448201527f69616e20746f20656e61626c6520666c6173682069737375616e636500000000606482015260840161082b565b6001815460ff1660028111156121cd576121cd613aa1565b1461221a5760405162461bcd60e51b815260206004820152601e60248201527f4973737565723a20696e76616c69642069737375616e63652073746174650000604482015260640161082b565b600881015460ff16156122955760405162461bcd60e51b815260206004820152602660248201527f4973737565723a20666c6173682069737375616e636520616c7265616479206560448201527f6e61626c65640000000000000000000000000000000000000000000000000000606482015260840161082b565b61229f828261242f565b5050565b6001600160a01b0382166000908152600460209081526040808320848452600701909152812081908190819081906122da81612566565b815460018301546002840154600390940154929b6101009092046001600160a01b03169a509850919650945092505050565b61229f8282612c7f565b60006112cc836001600160a01b038416612d1d565b60007fffffffff0000000000000000000000000000000000000000000000000000000082167f7965db0b0000000000000000000000000000000000000000000000000000000014806107ac57507f01ffc9a7000000000000000000000000000000000000000000000000000000007fffffffff000000000000000000000000000000000000000000000000000000008316146107ac565b600280547fffffffffffffffffffffffff0000000000000000000000000000000000000000166001600160a01b0383169081179091556040519081527f10f5824683d64a0712038f2244e046b174a1cc57fbb8556bfda5ffb261244067906020015b60405180910390a150565b60088101805460ff191660011790556040516001600160a01b038316907f060437d670e5e4f2c379e5e76ece35f5fa134d3d13b296a69c29d63317c338b590600090a25050565b6000806124878686600187876129d7565b90508085101561249a5784915050611cca565b95945050505050565b6000828152602081905260409020600101546124bf8133612d6c565b6112f58383612c7f565b6001600160a01b03811633146125475760405162461bcd60e51b815260206004820152602f60248201527f416363657373436f6e74726f6c3a2063616e206f6e6c792072656e6f756e636560448201527f20726f6c657320666f722073656c660000000000000000000000000000000000606482015260840161082b565b61229f8282612dea565b60006112cc836001600160a01b038416612e69565b8054600382015460009160ff1690600182600581111561258857612588613aa1565b14801561259457508015155b156125b95783600301544210156125af575060019392505050565b5060049392505050565b5092915050565b60008068056bc75e2d631000008860050154876125dd9190613d06565b6125e79190613d25565b9050600068056bc75e2d6310000060035483896126049190613d47565b61260e9190613d06565b6126189190613d25565b9050600081612627848a613d47565b6126319190613d47565b90506000670de0b6b3a76400006126488984613d06565b6126529190613d25565b905060006126648d8d878c8c8c612f5c565b6040516340c10f1960e01b81526001600160a01b038d8116600483015260248201859052919250908e16906340c10f1990604401600060405180830381600087803b1580156126b257600080fd5b505af11580156126c6573d6000803e3d6000fd5b5050505060006126e58d6004015483856126e09190613cee565b613142565b90508015612770576040516340c10f1960e01b81526001600160a01b037f000000000000000000000000000000000000000000000000000000000000000081166004830152602482018390528f16906340c10f1990604401600060405180830381600087803b15801561275757600080fd5b505af115801561276b573d6000803e3d6000fd5b505050505b8c60010160009054906101000a90046001600160a01b03166001600160a01b031663181783586040518163ffffffff1660e01b8152600401600060405180830381600087803b1580156127c257600080fd5b505af11580156127d6573d6000803e3d6000fd5b5050505060008511156127f9576002546127f9906001600160a01b03168661287d565b8c546128139061010090046001600160a01b03168561287d565b8b6001600160a01b03168e6001600160a01b03167fca1340aac4caf2122faa48803f9cafe2fca0c643e9c0cc5e876d0f7c436b7ab28d86604051612861929190918252602082015260400190565b60405180910390a350909450505050505b979650505050505050565b804710156128cd5760405162461bcd60e51b815260206004820152601d60248201527f416464726573733a20696e73756666696369656e742062616c616e6365000000604482015260640161082b565b6000826001600160a01b03168260405160006040518083038185875af1925050503d806000811461291a576040519150601f19603f3d011682016040523d82523d6000602084013e61291f565b606091505b50509050806112f55760405162461bcd60e51b815260206004820152603a60248201527f416464726573733a20756e61626c6520746f2073656e642076616c75652c207260448201527f6563697069656e74206d61792068617665207265766572746564000000000000606482015260840161082b565b60038190556040518181527fdc0410a296e1e33943a772020d333d5f99319d7fcad932a484c53889f7aaa2b190602001612424565b60006112cc838361316b565b600082612a855760008460018111156129f2576129f2613aa1565b1415612a1c5784612a0b670de0b6b3a764000080613d06565b612a159190613d25565b905061249a565b6001846001811115612a3057612a30613aa1565b1415612a3d57508361249a565b60405162461bcd60e51b815260206004820152601960248201527f4973737565723a20696e76616c69642074776170206b696e6400000000000000604482015260640161082b565b604080516001808252818301909252600091816020015b612ac16040805160608101909152806000815260200160008152602001600081525090565b815260200190600190039081612a9c5790505060408051606081019091529091508060008152602001620151808152602001600081525081600081518110612b0b57612b0b613d74565b60200260200101819052506000876001600160a01b0316631dccd830836040518263ffffffff1660e01b8152600401612b449190613d8a565b60006040518083038186803b158015612b5c57600080fd5b505afa158015612b70573d6000803e3d6000fd5b505050506040513d6000823e601f3d908101601f19168201604052612b989190810190613eac565b90506000866001811115612bae57612bae613aa1565b1415612c1d578315612bf85780600081518110612bcd57612bcd613d74565b6020026020010151670de0b6b3a764000080612be99190613d06565b612bf39190613d25565b612c14565b80600081518110612c0b57612c0b613d74565b60200260200101515b9250505061249a565b6001866001811115612c3157612c31613aa1565b1415612a3d5783612bf85780600081518110612bcd57612bcd613d74565b60006107ac825490565b600082815260208190526040902060010154612c758133612d6c565b6112f58383612dea565b6000828152602081815260408083206001600160a01b038516845290915290205460ff1661229f576000828152602081815260408083206001600160a01b03851684529091529020805460ff19166001179055612cd93390565b6001600160a01b0316816001600160a01b0316837f2f8788117e7eff1d82e926ec794901d17c78024a50270940304540a733656f0d60405160405180910390a45050565b6000818152600183016020526040812054612d64575081546001818101845560008481526020808220909301849055845484825282860190935260409020919091556107ac565b5060006107ac565b6000828152602081815260408083206001600160a01b038516845290915290205460ff1661229f57612da8816001600160a01b03166014613195565b612db3836020613195565b604051602001612dc4929190613f11565b60408051601f198184030181529082905262461bcd60e51b825261082b91600401613fbe565b6000828152602081815260408083206001600160a01b038516845290915290205460ff161561229f576000828152602081815260408083206001600160a01b0385168085529252808320805460ff1916905551339285917ff6391f5c32d9c69d2a47ea670b442974b53935d1edc7fd64eb21e047a839171b9190a45050565b60008181526001830160205260408120548015612f52576000612e8d600183613d47565b8554909150600090612ea190600190613d47565b9050818114612f06576000866000018281548110612ec157612ec1613d74565b9060005260206000200154905080876000018481548110612ee457612ee4613d74565b6000918252602080832090910192909255918252600188019052604090208390555b8554869080612f1757612f17613fd1565b6001900381819060005260206000200160009055905585600101600086815260200190815260200160002060009055600193505050506107ac565b60009150506107ac565b600185015460028601546000917f0000000000000000000000000000000000000000000000000000000000000000918391612fa69184916001600160a01b031690898b8a8a6133be565b90506000871180612fb75750600081115b15613136576040516340c10f1960e01b8152306004820152602481018290526001600160a01b038a16906340c10f1990604401600060405180830381600087803b15801561300457600080fd5b505af1158015613018573d6000803e3d6000fd5b50506040517f095ea7b30000000000000000000000000000000000000000000000000000000081526001600160a01b038581166004830152602482018590528c16925063095ea7b39150604401602060405180830381600087803b15801561307f57600080fd5b505af1158015613093573d6000803e3d6000fd5b505050506040513d601f19601f820116820180604052508101906130b79190613fe7565b5060028089015490546001600160a01b038085169263b95cac28928b923091166130e48f88868e8e613561565b6040518663ffffffff1660e01b8152600401613103949392919061403f565b6000604051808303818588803b15801561311c57600080fd5b505af1158015613130573d6000803e3d6000fd5b50505050505b98975050505050505050565b60006131578368056bc75e2d63100000613d47565b6131618385613d06565b6112cc9190613d25565b600082600001828154811061318257613182613d74565b9060005260206000200154905092915050565b606060006131a4836002613d06565b6131af906002613cee565b67ffffffffffffffff8111156131c7576131c7613d5e565b6040519080825280601f01601f1916602001820160405280156131f1576020820181803683370190505b5090507f30000000000000000000000000000000000000000000000000000000000000008160008151811061322857613228613d74565b60200101907effffffffffffffffffffffffffffffffffffffffffffffffffffffffffffff1916908160001a9053507f78000000000000000000000000000000000000000000000000000000000000008160018151811061328b5761328b613d74565b60200101907effffffffffffffffffffffffffffffffffffffffffffffffffffffffffffff1916908160001a90535060006132c7846002613d06565b6132d2906001613cee565b90505b600181111561336f577f303132333435363738396162636465660000000000000000000000000000000085600f166010811061331357613313613d74565b1a60f81b82828151811061332957613329613d74565b60200101907effffffffffffffffffffffffffffffffffffffffffffffffffffffffffffff1916908160001a90535060049490941c936133688161411d565b90506132d5565b5083156112cc5760405162461bcd60e51b815260206004820181905260248201527f537472696e67733a20686578206c656e67746820696e73756666696369656e74604482015260640161082b565b60008083613527576000886001600160a01b031663f89f27ed6040518163ffffffff1660e01b815260040160006040518083038186803b15801561340157600080fd5b505afa158015613415573d6000803e3d6000fd5b505050506040513d6000823e601f3d908101601f1916820160405261343d9190810190613eac565b905083156134b5578060018151811061345857613458613d74565b6020026020010151670de0b6b3a76400006134739190613d06565b8160008151811061348657613486613d74565b6020026020010151888861349a9190613d06565b6134a49190613d06565b6134ae9190613d25565b9150613521565b806000815181106134c8576134c8613d74565b6020026020010151670de0b6b3a76400006134e39190613d06565b816001815181106134f6576134f6613d74565b6020026020010151888861350a9190613d06565b6135149190613d06565b61351e9190613d25565b91505b50613136565b60006135348a8986613798565b60208101518151919250906135499088613d06565b6135539190613d25565b9a9950505050505050505050565b61358e60405180608001604052806060815260200160608152602001606081526020016000151581525090565b60008361359c57600061359f565b60045b6040805160028082526060820183529293506000929091602083019080368337505060408051600280825260608201835293945060009390925090602083019080368337019050509050841561369d57888260008151811061360357613603613d74565b60200260200101906001600160a01b031690816001600160a01b03168152505060008260018151811061363857613638613d74565b60200260200101906001600160a01b031690816001600160a01b031681525050878160008151811061366c5761366c613d74565b602002602001018181525050868160018151811061368c5761368c613d74565b602002602001018181525050613747565b6000826000815181106136b2576136b2613d74565b60200260200101906001600160a01b031690816001600160a01b03168152505088826001815181106136e6576136e6613d74565b60200260200101906001600160a01b031690816001600160a01b031681525050868160008151811061371a5761371a613d74565b602002602001018181525050878160018151811061373a5761373a613d74565b6020026020010181815250505b60405180608001604052808381526020018281526020018483604051602001613771929190614134565b60408051808303601f19018152919052815260006020909101529998505050505050505050565b6137a06138d1565b6040517ff94d4668000000000000000000000000000000000000000000000000000000008152600481018490526000906001600160a01b0386169063f94d46689060240160006040518083038186803b1580156137fc57600080fd5b505afa158015613810573d6000803e3d6000fd5b505050506040513d6000823e601f3d908101601f19168201604052613838919081019061415d565b5091505082156138935760405180604001604052808260008151811061386057613860613d74565b602002602001015181526020018260018151811061388057613880613d74565b60200260200101518152509150506112cc565b6040518060400160405280826001815181106138b1576138b1613d74565b602002602001015181526020018260008151811061388057613880613d74565b60405180604001604052806002906020820280368337509192915050565b60006020828403121561390157600080fd5b81357fffffffff00000000000000000000000000000000000000000000000000000000811681146112cc57600080fd5b6001600160a01b03811681146108b957600080fd5b60006020828403121561395857600080fd5b81356112cc81613931565b60006020828403121561397557600080fd5b5035919050565b80151581146108b957600080fd5b60008060008060008060008060006101208a8c0312156139a957600080fd5b89356139b481613931565b985060208a01356139c481613931565b975060408a0135965060608a0135955060808a0135945060a08a0135935060c08a0135925060e08a013591506101008a01356139ff8161397c565b809150509295985092959850929598565b600080600060608486031215613a2557600080fd5b8335613a3081613931565b95602085013595506040909401359392505050565b60008060408385031215613a5857600080fd5b823591506020830135613a6a81613931565b809150509250929050565b60008060408385031215613a8857600080fd5b8235613a9381613931565b946020939093013593505050565b634e487b7160e01b600052602160045260246000fd5b600381106108b9576108b9613aa1565b6101408101613ad58c613ab7565b9a81526001600160a01b03998a1660208201529790981660408801526060870195909552608086019390935260a085019190915260c084015260e083015215156101008201529015156101209091015290565b60008060408385031215613b3b57600080fd5b50508035926020909101359150565b60008060408385031215613b5d57600080fd5b8235613b6881613931565b9150602083013560028110613a6a57600080fd5b60a0810160068710613b9057613b90613aa1565b9581526001600160a01b039490941660208501526040840192909252606083015260809091015290565b610100808252602a908201527f4672616374696f6e616c697a6174696f6e20426f6f74737472617070696e67206101208201527f506f6f6c20546f6b656e00000000000000000000000000000000000000000000610140820152610160602082018190526004908201527f46425054000000000000000000000000000000000000000000000000000000006101808201526001600160a01b038781166040830152861660608201526101a081018560808301528460a08301528360c083015261287260e083018415159052565b600060208284031215613c9957600080fd5b81516112cc81613931565b600060208284031215613cb657600080fd5b5051919050565b634e487b7160e01b600052601160045260246000fd5b6000600019821415613ce757613ce7613cbd565b5060010190565b60008219821115613d0157613d01613cbd565b500190565b6000816000190483118215151615613d2057613d20613cbd565b500290565b600082613d4257634e487b7160e01b600052601260045260246000fd5b500490565b600082821015613d5957613d59613cbd565b500390565b634e487b7160e01b600052604160045260246000fd5b634e487b7160e01b600052603260045260246000fd5b602080825282518282018190526000919060409081850190868401855b82811015613ddf5781518051613dbc81613ab7565b855280870151878601528501518585015260609093019290850190600101613da7565b5091979650505050505050565b604051601f8201601f1916810167ffffffffffffffff81118282101715613e1557613e15613d5e565b604052919050565b600067ffffffffffffffff821115613e3757613e37613d5e565b5060051b60200190565b600082601f830112613e5257600080fd5b81516020613e67613e6283613e1d565b613dec565b82815260059290921b84018101918181019086841115613e8657600080fd5b8286015b84811015613ea15780518352918301918301613e8a565b509695505050505050565b600060208284031215613ebe57600080fd5b815167ffffffffffffffff811115613ed557600080fd5b611cca84828501613e41565b60005b83811015613efc578181015183820152602001613ee4565b83811115613f0b576000848401525b50505050565b7f416363657373436f6e74726f6c3a206163636f756e7420000000000000000000815260008351613f49816017850160208801613ee1565b7f206973206d697373696e6720726f6c65200000000000000000000000000000006017918401918201528351613f86816028840160208801613ee1565b01602801949350505050565b60008151808452613faa816020860160208601613ee1565b601f01601f19169290920160200192915050565b6020815260006112cc6020830184613f92565b634e487b7160e01b600052603160045260246000fd5b600060208284031215613ff957600080fd5b81516112cc8161397c565b600081518084526020808501945080840160005b8381101561403457815187529582019590820190600101614018565b509495945050505050565b848152600060206001600160a01b038087168285015280861660408501526080606085015261010084018551608080870152818151808452610120880191508583019350600092505b808310156140aa57835185168252928501926001929092019190850190614088565b508488015194507fffffffffffffffffffffffffffffffffffffffffffffffffffffffffffffff809350838782030160a08801526140e88186614004565b94505050506040850151818584030160c08601526141068382613f92565b925050506060840151613ea160e085018215159052565b60008161412c5761412c613cbd565b506000190190565b60006005841061414657614146613aa1565b83825260406020830152611cca6040830184614004565b60008060006060848603121561417257600080fd5b835167ffffffffffffffff8082111561418a57600080fd5b818601915086601f83011261419e57600080fd5b815160206141ae613e6283613e1d565b82815260059290921b8401810191818101908a8411156141cd57600080fd5b948201945b838610156141f45785516141e581613931565b825294820194908201906141d2565b9189015191975090935050508082111561420d57600080fd5b5061421a86828701613e41565b92505060408401519050925092509256fea26469706673582212205333bbe0bdbc516de2fcedc8f2fc429e7b713e2972ea166f02427a54b85d2f8864736f6c63430008090033",
  "devdoc": {
    "kind": "dev",
    "methods": {
      "acceptProposal(address,uint256)": {
        "params": {
          "proposalId": "The id of the issuance proposal.",
          "sERC20": "The sERC20 which was proposed to be issued."
        }
      },
      "close(address)": {
        "params": {
          "sERC20": "The sERC20 whose issuance to close."
        }
      },
      "createProposal(address,uint256,uint256)": {
        "details": "- We do not check that sERC20.cap() > sERC20.totalSupply().      - Indeed, to make sure the transaction does not revert, we would need to take both the price, LP reward and allocation into consideration.      - That would involve a lot of un-necessary computations as the sERC20 reverts in such a situation anyhow.",
        "params": {
          "lifespan": "The lifespan of the proposal [in seconds].",
          "price": "The price at which sERC20s are proposed to be issued [in sERC20 per ETH].",
          "sERC20": "The sERC20 to issue."
        }
      },
      "enableFlashIssuance(address)": {
        "params": {
          "sERC20": "The sERC20 to enable flash issuance for."
        }
      },
      "getRoleAdmin(bytes32)": {
        "details": "Returns the admin role that controls `role`. See {grantRole} and {revokeRole}. To change a role's admin, use {_setRoleAdmin}."
      },
      "getRoleMember(bytes32,uint256)": {
        "details": "Returns one of the accounts that have `role`. `index` must be a value between 0 and {getRoleMemberCount}, non-inclusive. Role bearers are not sorted in any particular way, and their ordering may change at any point. WARNING: When using {getRoleMember} and {getRoleMemberCount}, make sure you perform all queries on the same block. See the following https://forum.openzeppelin.com/t/iterating-over-elements-on-enumerableset-in-openzeppelin-contracts/2296[forum post] for more information."
      },
      "getRoleMemberCount(bytes32)": {
        "details": "Returns the number of accounts that have `role`. Can be used together with {getRoleMember} to enumerate all bearers of a role."
      },
      "grantRole(bytes32,address)": {
        "details": "Overload {grantRole} to track enumerable memberships"
      },
      "hasRole(bytes32,address)": {
        "details": "Returns `true` if `account` has been granted `role`."
      },
      "issuanceOf(address)": {
        "params": {
          "sERC20": "The sERC20 whose issuance is queried."
        }
      },
      "issue(address,uint256)": {
        "details": "- We do not check that sERC20.cap() > sERC20.totalSupply().      - Indeed, to make sure the transaction does not revert, we would need to take both the price, LP reward and allocation into consideration.      - That would involve a lot of un-necessary computations as the sERC20 reverts in such a situation anyhow.",
        "params": {
          "expected": "The minimum amount of sERC20 to issue [reverts otherwise]."
        }
      },
      "priceOf(address)": {
        "params": {
          "sERC20": "The sERC20 whose current issuance price is to be returned."
        }
      },
      "register(address,address,uint256,uint256,uint256,uint256,uint256,uint256,bool)": {
        "details": "- We do not check neither that:        - `sERC20` is unregistered        - nor that it actually is an sERC20        - nor that this contract is granted MINT_ROLE over `sERC20`        - nor that `allocation` is inferior to 100% to save gas.      - Indeed, only trusted templates, registering sERC20s out of actual NFT fractionalizations and self-computing `allocation`, are supposed to be        granted REGISTER_ROLE.      - Pool-related parameters are checked by the FractionalizationBootstrappingPool's constructor.      - Other parameters are checked because they are passed by users and forwarded unchecked by templates.",
        "params": {
          "allocation": "The pre-allocated percentage of sERC20s [expressed with 1e18 decimals].",
          "fee": "The issuance fee.",
          "flash": "True if flash issuance is enabled, false otherwise.",
          "guardian": "The account authorized to enable flash issuance and accept / reject proposals otherwise [also receives ETH proceeds].",
          "reserve": "The reserve price below which sERC20 tokens can be issued [expressed in sERC20 per ETH and 1e18 decimals].",
          "sERC20": "The sERC20 to initiate the issuance of.",
          "sMaxNormalizedWeight": "The maximum normalized weight of the sERC20 in the FractionalizationBootstrappingPool to be deployed.",
          "sMinNormalizedWeight": "The minimum normalized weight of the sERC20 in the FractionalizationBootstrappingPool to be deployed.",
          "swapFeePercentage": "The swap fee of the FractionalizationBootstrappingPool to be deployed [expressed with 1e16 decimals]."
        }
      },
      "rejectProposal(address,uint256)": {
        "details": "This function is open to re-entrancy for it would be harmless.",
        "params": {
          "proposalId": "The id of the issuance proposal.",
          "sERC20": "The sERC20 which was proposed to be issued."
        }
      },
      "renounceRole(bytes32,address)": {
        "details": "Overload {renounceRole} to track enumerable memberships"
      },
      "revokeRole(bytes32,address)": {
        "details": "Overload {revokeRole} to track enumerable memberships"
      },
      "supportsInterface(bytes4)": {
        "details": "See {IERC165-supportsInterface}."
      },
      "twapOf(address,uint8)": {
        "params": {
          "kind": "TwapKind.ETH to return the TWAP in ETH per sERC20, TwapKind.sERC20 to return the TWAP in sERC20 per ETH.",
          "sERC20": "The sERC20 whose TWAP is to be returned."
        }
      },
      "withdrawProposal(address,uint256)": {
        "details": "This function is open to re-entrancy for it would be harmless.",
        "params": {
          "proposalId": "The id of the issuance proposal.",
          "sERC20": "The sERC20 which was proposed to be issued."
        }
      }
    },
    "title": "Issuer",
    "version": 1
  },
  "userdoc": {
    "kind": "user",
    "methods": {
      "WETH()": {
        "notice": "Return the issuer's WETH."
      },
      "acceptProposal(address,uint256)": {
        "notice": "Accept proposal #`proposalId` to issue `sERC20` tokens."
      },
      "bank()": {
        "notice": "Return the issuer's bank."
      },
      "close(address)": {
        "notice": "Close the issuance of `sERC20`."
      },
      "createProposal(address,uint256,uint256)": {
        "notice": "Create a proposal to issue `sERC20` tokens at a price of `price` sERC20 per ETH."
      },
      "enableFlashIssuance(address)": {
        "notice": "Enable flash issuance for `sERC20`."
      },
      "issuanceOf(address)": {
        "notice": "Return the issuance associated to `sERC20`."
      },
      "issue(address,uint256)": {
        "notice": "Issue at least `expected` `sERC20` tokens."
      },
      "poolFactory()": {
        "notice": "Return the issuer's pool factory."
      },
      "priceOf(address)": {
        "notice": "Return the current issuance price of `sERC20` [in sERC20 per ETH]."
      },
      "proposalFor(address,uint256)": {
        "notice": "Return the proposal #`proposalId` to issue `sERC20` tokens."
      },
      "protocolFee()": {
        "notice": "Return the issuer's protocol fee."
      },
      "register(address,address,uint256,uint256,uint256,uint256,uint256,uint256,bool)": {
        "notice": "Initiate the issuance of `sERC20`."
      },
      "rejectProposal(address,uint256)": {
        "notice": "Reject proposal #`proposalId` to issue `sERC20` tokens."
      },
      "setBank(address)": {
        "notice": "Set the issuer's bank [to which protocol fees are transferred]."
      },
      "setProtocolFee(uint256)": {
        "notice": "Set the issuer's protocol fee [expressed with 1e18 decimals]."
      },
      "splitter()": {
        "notice": "Return the issuer's splitter."
      },
      "twapOf(address,uint8)": {
        "notice": "Return the 24h time-weighted average price of `sERC20`."
      },
      "vault()": {
        "notice": "Return the issuer's Balancer vault."
      },
      "withdrawProposal(address,uint256)": {
        "notice": "Withdraw proposal #`proposalId` to issue `sERC20` tokens.."
      }
    },
    "notice": "Handles the issuance of sERC20 tokens.",
    "version": 1
  },
  "storageLayout": {
    "storage": [
      {
        "astId": 3162,
        "contract": "contracts/issuer/Issuer.sol:Issuer",
        "label": "_roles",
        "offset": 0,
        "slot": "0",
        "type": "t_mapping(t_bytes32,t_struct(RoleData)3157_storage)"
      },
      {
        "astId": 3463,
        "contract": "contracts/issuer/Issuer.sol:Issuer",
        "label": "_roleMembers",
        "offset": 0,
        "slot": "1",
        "type": "t_mapping(t_bytes32,t_struct(AddressSet)6836_storage)"
      },
      {
        "astId": 9949,
        "contract": "contracts/issuer/Issuer.sol:Issuer",
        "label": "_bank",
        "offset": 0,
        "slot": "2",
        "type": "t_address"
      },
      {
        "astId": 9951,
        "contract": "contracts/issuer/Issuer.sol:Issuer",
        "label": "_protocolFee",
        "offset": 0,
        "slot": "3",
        "type": "t_uint256"
      },
      {
        "astId": 9957,
        "contract": "contracts/issuer/Issuer.sol:Issuer",
        "label": "_issuances",
        "offset": 0,
        "slot": "4",
        "type": "t_mapping(t_contract(sIERC20)13213,t_struct(Issuance)12166_storage)"
      }
    ],
    "types": {
      "t_address": {
        "encoding": "inplace",
        "label": "address",
        "numberOfBytes": "20"
      },
      "t_array(t_bytes32)dyn_storage": {
        "base": "t_bytes32",
        "encoding": "dynamic_array",
        "label": "bytes32[]",
        "numberOfBytes": "32"
      },
      "t_bool": {
        "encoding": "inplace",
        "label": "bool",
        "numberOfBytes": "1"
      },
      "t_bytes32": {
        "encoding": "inplace",
        "label": "bytes32",
        "numberOfBytes": "32"
      },
      "t_contract(IFractionalizationBootstrappingPool)12106": {
        "encoding": "inplace",
        "label": "contract IFractionalizationBootstrappingPool",
        "numberOfBytes": "20"
      },
      "t_contract(sIERC20)13213": {
        "encoding": "inplace",
        "label": "contract sIERC20",
        "numberOfBytes": "20"
      },
      "t_enum(State)12138": {
        "encoding": "inplace",
        "label": "enum Issuances.State",
        "numberOfBytes": "1"
      },
      "t_enum(State)12176": {
        "encoding": "inplace",
        "label": "enum Proposals.State",
        "numberOfBytes": "1"
      },
      "t_mapping(t_address,t_bool)": {
        "encoding": "mapping",
        "key": "t_address",
        "label": "mapping(address => bool)",
        "numberOfBytes": "32",
        "value": "t_bool"
      },
      "t_mapping(t_bytes32,t_struct(AddressSet)6836_storage)": {
        "encoding": "mapping",
        "key": "t_bytes32",
        "label": "mapping(bytes32 => struct EnumerableSet.AddressSet)",
        "numberOfBytes": "32",
        "value": "t_struct(AddressSet)6836_storage"
      },
      "t_mapping(t_bytes32,t_struct(RoleData)3157_storage)": {
        "encoding": "mapping",
        "key": "t_bytes32",
        "label": "mapping(bytes32 => struct AccessControl.RoleData)",
        "numberOfBytes": "32",
        "value": "t_struct(RoleData)3157_storage"
      },
      "t_mapping(t_bytes32,t_uint256)": {
        "encoding": "mapping",
        "key": "t_bytes32",
        "label": "mapping(bytes32 => uint256)",
        "numberOfBytes": "32",
        "value": "t_uint256"
      },
      "t_mapping(t_contract(sIERC20)13213,t_struct(Issuance)12166_storage)": {
        "encoding": "mapping",
        "key": "t_contract(sIERC20)13213",
        "label": "mapping(contract sIERC20 => struct Issuances.Issuance)",
        "numberOfBytes": "32",
        "value": "t_struct(Issuance)12166_storage"
      },
      "t_mapping(t_uint256,t_struct(Proposal)12188_storage)": {
        "encoding": "mapping",
        "key": "t_uint256",
        "label": "mapping(uint256 => struct Proposals.Proposal)",
        "numberOfBytes": "32",
        "value": "t_struct(Proposal)12188_storage"
      },
      "t_struct(AddressSet)6836_storage": {
        "encoding": "inplace",
        "label": "struct EnumerableSet.AddressSet",
        "members": [
          {
            "astId": 6835,
            "contract": "contracts/issuer/Issuer.sol:Issuer",
            "label": "_inner",
            "offset": 0,
            "slot": "0",
            "type": "t_struct(Set)6535_storage"
          }
        ],
        "numberOfBytes": "64"
      },
      "t_struct(Issuance)12166_storage": {
        "encoding": "inplace",
        "label": "struct Issuances.Issuance",
        "members": [
          {
            "astId": 12141,
            "contract": "contracts/issuer/Issuer.sol:Issuer",
            "label": "state",
            "offset": 0,
            "slot": "0",
            "type": "t_enum(State)12138"
          },
          {
            "astId": 12143,
            "contract": "contracts/issuer/Issuer.sol:Issuer",
            "label": "guardian",
            "offset": 1,
            "slot": "0",
            "type": "t_address"
          },
          {
            "astId": 12146,
            "contract": "contracts/issuer/Issuer.sol:Issuer",
            "label": "pool",
            "offset": 0,
            "slot": "1",
            "type": "t_contract(IFractionalizationBootstrappingPool)12106"
          },
          {
            "astId": 12148,
            "contract": "contracts/issuer/Issuer.sol:Issuer",
            "label": "poolId",
            "offset": 0,
            "slot": "2",
            "type": "t_bytes32"
          },
          {
            "astId": 12150,
            "contract": "contracts/issuer/Issuer.sol:Issuer",
            "label": "reserve",
            "offset": 0,
            "slot": "3",
            "type": "t_uint256"
          },
          {
            "astId": 12152,
            "contract": "contracts/issuer/Issuer.sol:Issuer",
            "label": "allocation",
            "offset": 0,
            "slot": "4",
            "type": "t_uint256"
          },
          {
            "astId": 12154,
            "contract": "contracts/issuer/Issuer.sol:Issuer",
            "label": "fee",
            "offset": 0,
            "slot": "5",
            "type": "t_uint256"
          },
          {
            "astId": 12156,
            "contract": "contracts/issuer/Issuer.sol:Issuer",
            "label": "nbOfProposals",
            "offset": 0,
            "slot": "6",
            "type": "t_uint256"
          },
          {
            "astId": 12161,
            "contract": "contracts/issuer/Issuer.sol:Issuer",
            "label": "proposals",
            "offset": 0,
            "slot": "7",
            "type": "t_mapping(t_uint256,t_struct(Proposal)12188_storage)"
          },
          {
            "astId": 12163,
            "contract": "contracts/issuer/Issuer.sol:Issuer",
            "label": "flash",
            "offset": 0,
            "slot": "8",
            "type": "t_bool"
          },
          {
            "astId": 12165,
            "contract": "contracts/issuer/Issuer.sol:Issuer",
            "label": "sERC20IsToken0",
            "offset": 1,
            "slot": "8",
            "type": "t_bool"
          }
        ],
        "numberOfBytes": "288"
      },
      "t_struct(Proposal)12188_storage": {
        "encoding": "inplace",
        "label": "struct Proposals.Proposal",
        "members": [
          {
            "astId": 12179,
            "contract": "contracts/issuer/Issuer.sol:Issuer",
            "label": "_state",
            "offset": 0,
            "slot": "0",
            "type": "t_enum(State)12176"
          },
          {
            "astId": 12181,
            "contract": "contracts/issuer/Issuer.sol:Issuer",
            "label": "buyer",
            "offset": 1,
            "slot": "0",
            "type": "t_address"
          },
          {
            "astId": 12183,
            "contract": "contracts/issuer/Issuer.sol:Issuer",
            "label": "value",
            "offset": 0,
            "slot": "1",
            "type": "t_uint256"
          },
          {
            "astId": 12185,
            "contract": "contracts/issuer/Issuer.sol:Issuer",
            "label": "price",
            "offset": 0,
            "slot": "2",
            "type": "t_uint256"
          },
          {
            "astId": 12187,
            "contract": "contracts/issuer/Issuer.sol:Issuer",
            "label": "expiration",
            "offset": 0,
            "slot": "3",
            "type": "t_uint256"
          }
        ],
        "numberOfBytes": "128"
      },
      "t_struct(RoleData)3157_storage": {
        "encoding": "inplace",
        "label": "struct AccessControl.RoleData",
        "members": [
          {
            "astId": 3154,
            "contract": "contracts/issuer/Issuer.sol:Issuer",
            "label": "members",
            "offset": 0,
            "slot": "0",
            "type": "t_mapping(t_address,t_bool)"
          },
          {
            "astId": 3156,
            "contract": "contracts/issuer/Issuer.sol:Issuer",
            "label": "adminRole",
            "offset": 0,
            "slot": "1",
            "type": "t_bytes32"
          }
        ],
        "numberOfBytes": "64"
      },
      "t_struct(Set)6535_storage": {
        "encoding": "inplace",
        "label": "struct EnumerableSet.Set",
        "members": [
          {
            "astId": 6530,
            "contract": "contracts/issuer/Issuer.sol:Issuer",
            "label": "_values",
            "offset": 0,
            "slot": "0",
            "type": "t_array(t_bytes32)dyn_storage"
          },
          {
            "astId": 6534,
            "contract": "contracts/issuer/Issuer.sol:Issuer",
            "label": "_indexes",
            "offset": 0,
            "slot": "1",
            "type": "t_mapping(t_bytes32,t_uint256)"
          }
        ],
        "numberOfBytes": "64"
      },
      "t_uint256": {
        "encoding": "inplace",
        "label": "uint256",
        "numberOfBytes": "32"
      }
    }
  }
}