{
  "address": "0xFB15Dc1834eD7AC5eF427812e36b5F2372516f5b",
  "abi": [
    {
      "inputs": [],
      "stateMutability": "nonpayable",
      "type": "constructor"
    },
    {
      "anonymous": false,
      "inputs": [
        {
          "indexed": true,
          "internalType": "address",
          "name": "owner",
          "type": "address"
        },
        {
          "indexed": true,
          "internalType": "address",
          "name": "spender",
          "type": "address"
        },
        {
          "indexed": false,
          "internalType": "uint256",
          "name": "value",
          "type": "uint256"
        }
      ],
      "name": "Approval",
      "type": "event"
    },
    {
      "anonymous": false,
      "inputs": [
        {
          "indexed": false,
          "internalType": "address",
          "name": "account",
          "type": "address"
        }
      ],
      "name": "Paused",
      "type": "event"
    },
    {
      "anonymous": false,
      "inputs": [
        {
          "indexed": true,
          "internalType": "bytes32",
          "name": "role",
          "type": "bytes32"
        },
        {
          "indexed": true,
          "internalType": "bytes32",
          "name": "previousAdminRole",
          "type": "bytes32"
        },
        {
          "indexed": true,
          "internalType": "bytes32",
          "name": "newAdminRole",
          "type": "bytes32"
        }
      ],
      "name": "RoleAdminChanged",
      "type": "event"
    },
    {
      "anonymous": false,
      "inputs": [
        {
          "indexed": true,
          "internalType": "bytes32",
          "name": "role",
          "type": "bytes32"
        },
        {
          "indexed": true,
          "internalType": "address",
          "name": "account",
          "type": "address"
        },
        {
          "indexed": true,
          "internalType": "address",
          "name": "sender",
          "type": "address"
        }
      ],
      "name": "RoleGranted",
      "type": "event"
    },
    {
      "anonymous": false,
      "inputs": [
        {
          "indexed": true,
          "internalType": "bytes32",
          "name": "role",
          "type": "bytes32"
        },
        {
          "indexed": true,
          "internalType": "address",
          "name": "account",
          "type": "address"
        },
        {
          "indexed": true,
          "internalType": "address",
          "name": "sender",
          "type": "address"
        }
      ],
      "name": "RoleRevoked",
      "type": "event"
    },
    {
      "anonymous": false,
      "inputs": [
        {
          "indexed": false,
          "internalType": "uint256",
          "name": "id",
          "type": "uint256"
        }
      ],
      "name": "Snapshot",
      "type": "event"
    },
    {
      "anonymous": false,
      "inputs": [
        {
          "indexed": true,
          "internalType": "address",
          "name": "from",
          "type": "address"
        },
        {
          "indexed": true,
          "internalType": "address",
          "name": "to",
          "type": "address"
        },
        {
          "indexed": false,
          "internalType": "uint256",
          "name": "value",
          "type": "uint256"
        }
      ],
      "name": "Transfer",
      "type": "event"
    },
    {
      "anonymous": false,
      "inputs": [
        {
          "indexed": false,
          "internalType": "address",
          "name": "account",
          "type": "address"
        }
      ],
      "name": "Unpaused",
      "type": "event"
    },
    {
      "inputs": [],
      "name": "DEFAULT_ADMIN_ROLE",
      "outputs": [
        {
          "internalType": "bytes32",
          "name": "",
          "type": "bytes32"
        }
      ],
      "stateMutability": "view",
      "type": "function"
    },
    {
      "inputs": [],
      "name": "DOMAIN_SEPARATOR",
      "outputs": [
        {
          "internalType": "bytes32",
          "name": "",
          "type": "bytes32"
        }
      ],
      "stateMutability": "view",
      "type": "function"
    },
    {
      "inputs": [],
      "name": "MINT_ROLE",
      "outputs": [
        {
          "internalType": "bytes32",
          "name": "",
          "type": "bytes32"
        }
      ],
      "stateMutability": "view",
      "type": "function"
    },
    {
      "inputs": [],
      "name": "PAUSE_ROLE",
      "outputs": [
        {
          "internalType": "bytes32",
          "name": "",
          "type": "bytes32"
        }
      ],
      "stateMutability": "view",
      "type": "function"
    },
    {
      "inputs": [],
      "name": "SNAPSHOT_ROLE",
      "outputs": [
        {
          "internalType": "bytes32",
          "name": "",
          "type": "bytes32"
        }
      ],
      "stateMutability": "view",
      "type": "function"
    },
    {
      "inputs": [
        {
          "internalType": "address",
          "name": "owner",
          "type": "address"
        },
        {
          "internalType": "address",
          "name": "spender",
          "type": "address"
        }
      ],
      "name": "allowance",
      "outputs": [
        {
          "internalType": "uint256",
          "name": "",
          "type": "uint256"
        }
      ],
      "stateMutability": "view",
      "type": "function"
    },
    {
      "inputs": [
        {
          "internalType": "address",
          "name": "spender",
          "type": "address"
        },
        {
          "internalType": "uint256",
          "name": "amount",
          "type": "uint256"
        }
      ],
      "name": "approve",
      "outputs": [
        {
          "internalType": "bool",
          "name": "",
          "type": "bool"
        }
      ],
      "stateMutability": "nonpayable",
      "type": "function"
    },
    {
      "inputs": [
        {
          "internalType": "address",
          "name": "account",
          "type": "address"
        }
      ],
      "name": "balanceOf",
      "outputs": [
        {
          "internalType": "uint256",
          "name": "",
          "type": "uint256"
        }
      ],
      "stateMutability": "view",
      "type": "function"
    },
    {
      "inputs": [
        {
          "internalType": "address",
          "name": "account",
          "type": "address"
        },
        {
          "internalType": "uint256",
          "name": "snapshotId",
          "type": "uint256"
        }
      ],
      "name": "balanceOfAt",
      "outputs": [
        {
          "internalType": "uint256",
          "name": "",
          "type": "uint256"
        }
      ],
      "stateMutability": "view",
      "type": "function"
    },
    {
      "inputs": [
        {
          "internalType": "uint256",
          "name": "amount",
          "type": "uint256"
        }
      ],
      "name": "burn",
      "outputs": [],
      "stateMutability": "nonpayable",
      "type": "function"
    },
    {
      "inputs": [
        {
          "internalType": "address",
          "name": "account",
          "type": "address"
        },
        {
          "internalType": "uint256",
          "name": "amount",
          "type": "uint256"
        }
      ],
      "name": "burnFrom",
      "outputs": [],
      "stateMutability": "nonpayable",
      "type": "function"
    },
    {
      "inputs": [],
      "name": "cap",
      "outputs": [
        {
          "internalType": "uint256",
          "name": "",
          "type": "uint256"
        }
      ],
      "stateMutability": "view",
      "type": "function"
    },
    {
      "inputs": [],
      "name": "decimals",
      "outputs": [
        {
          "internalType": "uint8",
          "name": "",
          "type": "uint8"
        }
      ],
      "stateMutability": "view",
      "type": "function"
    },
    {
      "inputs": [
        {
          "internalType": "address",
          "name": "spender",
          "type": "address"
        },
        {
          "internalType": "uint256",
          "name": "subtractedValue",
          "type": "uint256"
        }
      ],
      "name": "decreaseAllowance",
      "outputs": [
        {
          "internalType": "bool",
          "name": "",
          "type": "bool"
        }
      ],
      "stateMutability": "nonpayable",
      "type": "function"
    },
    {
      "inputs": [
        {
          "internalType": "bytes32",
          "name": "role",
          "type": "bytes32"
        }
      ],
      "name": "getRoleAdmin",
      "outputs": [
        {
          "internalType": "bytes32",
          "name": "",
          "type": "bytes32"
        }
      ],
      "stateMutability": "view",
      "type": "function"
    },
    {
      "inputs": [
        {
          "internalType": "bytes32",
          "name": "role",
          "type": "bytes32"
        },
        {
          "internalType": "address",
          "name": "account",
          "type": "address"
        }
      ],
      "name": "grantRole",
      "outputs": [],
      "stateMutability": "nonpayable",
      "type": "function"
    },
    {
      "inputs": [
        {
          "internalType": "bytes32",
          "name": "role",
          "type": "bytes32"
        },
        {
          "internalType": "address",
          "name": "account",
          "type": "address"
        }
      ],
      "name": "hasRole",
      "outputs": [
        {
          "internalType": "bool",
          "name": "",
          "type": "bool"
        }
      ],
      "stateMutability": "view",
      "type": "function"
    },
    {
      "inputs": [
        {
          "internalType": "address",
          "name": "spender",
          "type": "address"
        },
        {
          "internalType": "uint256",
          "name": "addedValue",
          "type": "uint256"
        }
      ],
      "name": "increaseAllowance",
      "outputs": [
        {
          "internalType": "bool",
          "name": "",
          "type": "bool"
        }
      ],
      "stateMutability": "nonpayable",
      "type": "function"
    },
    {
      "inputs": [
        {
          "internalType": "string",
          "name": "name_",
          "type": "string"
        },
        {
          "internalType": "string",
          "name": "symbol_",
          "type": "string"
        },
        {
          "internalType": "uint256",
          "name": "cap_",
          "type": "uint256"
        },
        {
          "internalType": "address",
          "name": "admin",
          "type": "address"
        }
      ],
      "name": "initialize",
      "outputs": [],
      "stateMutability": "nonpayable",
      "type": "function"
    },
    {
      "inputs": [
        {
          "internalType": "address",
          "name": "to",
          "type": "address"
        },
        {
          "internalType": "uint256",
          "name": "amount",
          "type": "uint256"
        }
      ],
      "name": "mint",
      "outputs": [],
      "stateMutability": "nonpayable",
      "type": "function"
    },
    {
      "inputs": [],
      "name": "name",
      "outputs": [
        {
          "internalType": "string",
          "name": "",
          "type": "string"
        }
      ],
      "stateMutability": "view",
      "type": "function"
    },
    {
      "inputs": [
        {
          "internalType": "address",
          "name": "owner",
          "type": "address"
        }
      ],
      "name": "nonces",
      "outputs": [
        {
          "internalType": "uint256",
          "name": "",
          "type": "uint256"
        }
      ],
      "stateMutability": "view",
      "type": "function"
    },
    {
      "inputs": [
        {
          "internalType": "address",
          "name": "from",
          "type": "address"
        },
        {
          "internalType": "address",
          "name": "to",
          "type": "address"
        },
        {
          "internalType": "uint256",
          "name": "amount",
          "type": "uint256"
        }
      ],
      "name": "onERC1155Transferred",
      "outputs": [],
      "stateMutability": "nonpayable",
      "type": "function"
    },
    {
      "inputs": [],
      "name": "pause",
      "outputs": [],
      "stateMutability": "nonpayable",
      "type": "function"
    },
    {
      "inputs": [],
      "name": "paused",
      "outputs": [
        {
          "internalType": "bool",
          "name": "",
          "type": "bool"
        }
      ],
      "stateMutability": "view",
      "type": "function"
    },
    {
      "inputs": [
        {
          "internalType": "address",
          "name": "owner",
          "type": "address"
        },
        {
          "internalType": "address",
          "name": "spender",
          "type": "address"
        },
        {
          "internalType": "uint256",
          "name": "value",
          "type": "uint256"
        },
        {
          "internalType": "uint256",
          "name": "deadline",
          "type": "uint256"
        },
        {
          "internalType": "uint8",
          "name": "v",
          "type": "uint8"
        },
        {
          "internalType": "bytes32",
          "name": "r",
          "type": "bytes32"
        },
        {
          "internalType": "bytes32",
          "name": "s",
          "type": "bytes32"
        }
      ],
      "name": "permit",
      "outputs": [],
      "stateMutability": "nonpayable",
      "type": "function"
    },
    {
      "inputs": [
        {
          "internalType": "bytes32",
          "name": "role",
          "type": "bytes32"
        },
        {
          "internalType": "address",
          "name": "account",
          "type": "address"
        }
      ],
      "name": "renounceRole",
      "outputs": [],
      "stateMutability": "nonpayable",
      "type": "function"
    },
    {
      "inputs": [
        {
          "internalType": "bytes32",
          "name": "role",
          "type": "bytes32"
        },
        {
          "internalType": "address",
          "name": "account",
          "type": "address"
        }
      ],
      "name": "revokeRole",
      "outputs": [],
      "stateMutability": "nonpayable",
      "type": "function"
    },
    {
      "inputs": [
        {
          "internalType": "bytes32",
          "name": "role",
          "type": "bytes32"
        },
        {
          "internalType": "bytes32",
          "name": "adminRole",
          "type": "bytes32"
        }
      ],
      "name": "setRoleAdmin",
      "outputs": [],
      "stateMutability": "nonpayable",
      "type": "function"
    },
    {
      "inputs": [],
      "name": "snapshot",
      "outputs": [
        {
          "internalType": "uint256",
          "name": "",
          "type": "uint256"
        }
      ],
      "stateMutability": "nonpayable",
      "type": "function"
    },
    {
      "inputs": [
        {
          "internalType": "bytes4",
          "name": "interfaceId",
          "type": "bytes4"
        }
      ],
      "name": "supportsInterface",
      "outputs": [
        {
          "internalType": "bool",
          "name": "",
          "type": "bool"
        }
      ],
      "stateMutability": "view",
      "type": "function"
    },
    {
      "inputs": [],
      "name": "symbol",
      "outputs": [
        {
          "internalType": "string",
          "name": "",
          "type": "string"
        }
      ],
      "stateMutability": "view",
      "type": "function"
    },
    {
      "inputs": [],
      "name": "totalSupply",
      "outputs": [
        {
          "internalType": "uint256",
          "name": "",
          "type": "uint256"
        }
      ],
      "stateMutability": "view",
      "type": "function"
    },
    {
      "inputs": [
        {
          "internalType": "uint256",
          "name": "snapshotId",
          "type": "uint256"
        }
      ],
      "name": "totalSupplyAt",
      "outputs": [
        {
          "internalType": "uint256",
          "name": "",
          "type": "uint256"
        }
      ],
      "stateMutability": "view",
      "type": "function"
    },
    {
      "inputs": [
        {
          "internalType": "address",
          "name": "recipient",
          "type": "address"
        },
        {
          "internalType": "uint256",
          "name": "amount",
          "type": "uint256"
        }
      ],
      "name": "transfer",
      "outputs": [
        {
          "internalType": "bool",
          "name": "",
          "type": "bool"
        }
      ],
      "stateMutability": "nonpayable",
      "type": "function"
    },
    {
      "inputs": [
        {
          "internalType": "address",
          "name": "sender",
          "type": "address"
        },
        {
          "internalType": "address",
          "name": "recipient",
          "type": "address"
        },
        {
          "internalType": "uint256",
          "name": "amount",
          "type": "uint256"
        }
      ],
      "name": "transferFrom",
      "outputs": [
        {
          "internalType": "bool",
          "name": "",
          "type": "bool"
        }
      ],
      "stateMutability": "nonpayable",
      "type": "function"
    },
    {
      "inputs": [],
      "name": "unpause",
      "outputs": [],
      "stateMutability": "nonpayable",
      "type": "function"
    },
    {
      "inputs": [],
      "name": "vault",
      "outputs": [
        {
          "internalType": "contract IVault",
          "name": "",
          "type": "address"
        }
      ],
      "stateMutability": "view",
      "type": "function"
    }
  ],
  "transactionHash": "0x6522b8037960d92a34294db3a60fe632b48d0b7e03e659f14bce1374f8fc0488",
  "args": [],
  "solcInputHash": "ed2d0021aed2b521c2dce0fd7368577e",
  "bytecode": "0x60806040523480156200001157600080fd5b50600054610100900460ff16806200002c575060005460ff16155b620000945760405162461bcd60e51b815260206004820152602e60248201527f496e697469616c697a61626c653a20636f6e747261637420697320616c72656160448201526d191e481a5b9a5d1a585b1a5e995960921b606482015260840160405180910390fd5b600054610100900460ff16158015620000b7576000805461ffff19166101011790555b8015620000ca576000805461ff00191690555b506132cc80620000db6000396000f3fe608060405234801561001057600080fd5b50600436106102925760003560e01c80635c975abb11610160578063981b24d0116100d8578063d505accf1161008c578063dd62ed3e11610071578063dd62ed3e14610560578063e9a9c85014610599578063fbfa77cf146105c057600080fd5b8063d505accf1461053a578063d547741f1461054d57600080fd5b8063a457c2d7116100bd578063a457c2d714610501578063a9059cbb14610514578063bd3a13f61461052757600080fd5b8063981b24d0146104e6578063a217fddf146104f957600080fd5b80637ecebe001161012f57806391d148541161011457806391d148541461049d57806395d89b41146104d65780639711715a146104de57600080fd5b80637ecebe00146104825780638456cb591461049557600080fd5b80635c975abb146104175780637028e2cd1461041f57806370a082311461044657806379cc67901461046f57600080fd5b8063313ce5671161020e57806339509351116101c257806340c10f19116101a757806340c10f19146103de57806342966c68146103f15780634ee2cd7e1461040457600080fd5b806339509351146103c35780633f4ba83a146103d657600080fd5b80633644e515116101f35780633644e5151461038157806336568abe14610389578063389ed2671461039c57600080fd5b8063313ce5671461036a578063355274ea1461037957600080fd5b806318160ddd1161026557806323b872dd1161024a57806323b872dd14610321578063248a9ca3146103345780632f2ff15d1461035757600080fd5b806318160ddd146102fc5780631e4e00911461030e57600080fd5b806301ffc9a71461029757806306fdde03146102bf578063095ea7b3146102d45780631481026a146102e7575b600080fd5b6102aa6102a5366004612db9565b6105dc565b60405190151581526020015b60405180910390f35b6102c7610675565b6040516102b69190612e27565b6102aa6102e2366004612e71565b610707565b6102fa6102f5366004612e9b565b61071d565b005b6099545b6040519081526020016102b6565b6102fa61031c366004612ed7565b610825565b6102aa61032f366004612e9b565b6108c1565b610300610342366004612ef9565b60009081526065602052604090206001015490565b6102fa610365366004612f12565b610980565b604051601281526020016102b6565b6103006109ab565b6103006109bb565b6102fa610397366004612f12565b6109c5565b6103007f139c2898040ef16910dc9f44dc697df79363da767d8bc92f2e310312b816e46d81565b6102aa6103d1366004612e71565b610a4d565b6102fa610a89565b6102fa6103ec366004612e71565b610b2f565b6102fa6103ff366004612ef9565b610bd5565b610300610412366004612e71565b610be1565b6102aa610bf4565b6103007f5fdbd35e8da83ee755d5e62a539e5ed7f47126abede0b8b10f9ea43dc6eed07f81565b610300610454366004612f3e565b6001600160a01b031660009081526097602052604090205490565b6102fa61047d366004612e71565b610c03565b610300610490366004612f3e565b610c0d565b6102fa610c2c565b6102aa6104ab366004612f12565b60009182526065602090815260408084206001600160a01b0393909316845291905290205460ff1690565b6102c7610cd0565b610300610cdf565b6103006104f4366004612ef9565b610d85565b610300600081565b6102aa61050f366004612e71565b610d90565b6102aa610522366004612e71565b610e41565b6102fa610535366004612ffc565b610e4e565b6102fa61054836600461307a565b610f57565b6102fa61055b366004612f12565b61109e565b61030061056e3660046130ed565b6001600160a01b03918216600090815260986020908152604080832093909416825291909152205490565b6103007f154c00819833dac601ee5ddded6fda79d9d8b506b911b3dbd54cdb95fe6c368681565b61022b546040516001600160a01b0390911681526020016102b6565b60007fffffffff0000000000000000000000000000000000000000000000000000000082167f7965db0b00000000000000000000000000000000000000000000000000000000148061066f57507f01ffc9a7000000000000000000000000000000000000000000000000000000007fffffffff000000000000000000000000000000000000000000000000000000008316145b92915050565b6060609a805461068490613117565b80601f01602080910402602001604051908101604052809291908181526020018280546106b090613117565b80156106fd5780601f106106d2576101008083540402835291602001916106fd565b820191906000526020600020905b8154815290600101906020018083116106e057829003601f168201915b5050505050905090565b60006107143384846110c4565b50600192915050565b61022b546001600160a01b0316336001600160a01b0316146107ac5760405162461bcd60e51b815260206004820152602a60248201527f7345524332303a206d757374206265207661756c7420746f207573652074726160448201527f6e7366657220686f6f6b0000000000000000000000000000000000000000000060648201526084015b60405180910390fd5b61022b80547fffffffffffffffffffffff00ffffffffffffffffffffffffffffffffffffffff16740100000000000000000000000000000000000000001790556107f783838361121c565b505061022b80547fffffffffffffffffffffff00ffffffffffffffffffffffffffffffffffffffff16905550565b60008281526065602052604090206001015461084190336104ab565b6108b35760405162461bcd60e51b815260206004820152602c60248201527f7345524332303a206d75737420626520726f6c652061646d696e20746f20736560448201527f7420726f6c652061646d696e000000000000000000000000000000000000000060648201526084016107a3565b6108bd8282611440565b5050565b60006108ce84848461121c565b6001600160a01b0384166000908152609860209081526040808320338452909152902054828110156109685760405162461bcd60e51b815260206004820152602860248201527f45524332303a207472616e7366657220616d6f756e742065786365656473206160448201527f6c6c6f77616e636500000000000000000000000000000000000000000000000060648201526084016107a3565b61097585338584036110c4565b506001949350505050565b60008281526065602052604090206001015461099c813361148b565b6109a6838361150b565b505050565b60006109b660c95490565b905090565b60006109b66115ad565b6001600160a01b0381163314610a435760405162461bcd60e51b815260206004820152602f60248201527f416363657373436f6e74726f6c3a2063616e206f6e6c792072656e6f756e636560448201527f20726f6c657320666f722073656c66000000000000000000000000000000000060648201526084016107a3565b6108bd828261162a565b3360008181526098602090815260408083206001600160a01b03871684529091528120549091610714918590610a84908690613162565b6110c4565b610ab37f139c2898040ef16910dc9f44dc697df79363da767d8bc92f2e310312b816e46d336104ab565b610b255760405162461bcd60e51b815260206004820152602760248201527f7345524332303a206d75737420686176652050415553455f524f4c4520746f2060448201527f756e70617573650000000000000000000000000000000000000000000000000060648201526084016107a3565b610b2d6116ad565b565b610b597f154c00819833dac601ee5ddded6fda79d9d8b506b911b3dbd54cdb95fe6c3686336104ab565b610bcb5760405162461bcd60e51b815260206004820152602360248201527f7345524332303a206d7573742068617665204d494e545f524f4c4520746f206d60448201527f696e74000000000000000000000000000000000000000000000000000000000060648201526084016107a3565b6108bd828261174c565b610bde81611756565b50565b6000610bed8383611760565b9392505050565b60006109b661012e5460ff1690565b6108bd82826117ba565b6001600160a01b03811660009081526101f8602052604081205461066f565b610c567f139c2898040ef16910dc9f44dc697df79363da767d8bc92f2e310312b816e46d336104ab565b610cc85760405162461bcd60e51b815260206004820152602560248201527f7345524332303a206d75737420686176652050415553455f524f4c4520746f2060448201527f706175736500000000000000000000000000000000000000000000000000000060648201526084016107a3565b610b2d611854565b6060609b805461068490613117565b6000610d0b7f5fdbd35e8da83ee755d5e62a539e5ed7f47126abede0b8b10f9ea43dc6eed07f336104ab565b610d7d5760405162461bcd60e51b815260206004820152602b60248201527f7345524332303a206d757374206861766520534e415053484f545f524f4c452060448201527f746f20736e617073686f7400000000000000000000000000000000000000000060648201526084016107a3565b6109b66118df565b600061066f8261193a565b3360009081526098602090815260408083206001600160a01b038616845290915281205482811015610e2a5760405162461bcd60e51b815260206004820152602560248201527f45524332303a2064656372656173656420616c6c6f77616e63652062656c6f7760448201527f207a65726f00000000000000000000000000000000000000000000000000000060648201526084016107a3565b610e3733858584036110c4565b5060019392505050565b600061071433848461121c565b600054610100900460ff1680610e67575060005460ff16155b610eca5760405162461bcd60e51b815260206004820152602e60248201527f496e697469616c697a61626c653a20636f6e747261637420697320616c72656160448201526d191e481a5b9a5d1a585b1a5e995960921b60648201526084016107a3565b600054610100900460ff16158015610eec576000805461ffff19166101011790555b610ef68585611966565b610eff83611a2c565b610f0885611af0565b61022b80547fffffffffffffffffffffffff00000000000000000000000000000000000000001633179055610f3e600083611bde565b8015610f50576000805461ff00191690555b5050505050565b83421115610fa75760405162461bcd60e51b815260206004820152601d60248201527f45524332305065726d69743a206578706972656420646561646c696e6500000060448201526064016107a3565b60006101f954888888610fb98c611be8565b6040805160208101969096526001600160a01b0394851690860152929091166060840152608083015260a082015260c0810186905260e001604051602081830303815290604052805190602001209050600061101482611c11565b9050600061102482878787611c7a565b9050896001600160a01b0316816001600160a01b0316146110875760405162461bcd60e51b815260206004820152601e60248201527f45524332305065726d69743a20696e76616c6964207369676e6174757265000060448201526064016107a3565b6110928a8a8a6110c4565b50505050505050505050565b6000828152606560205260409020600101546110ba813361148b565b6109a6838361162a565b6001600160a01b03831661113f5760405162461bcd60e51b8152602060048201526024808201527f45524332303a20617070726f76652066726f6d20746865207a65726f2061646460448201527f726573730000000000000000000000000000000000000000000000000000000060648201526084016107a3565b6001600160a01b0382166111bb5760405162461bcd60e51b815260206004820152602260248201527f45524332303a20617070726f766520746f20746865207a65726f20616464726560448201527f737300000000000000000000000000000000000000000000000000000000000060648201526084016107a3565b6001600160a01b0383811660008181526098602090815260408083209487168084529482529182902085905590518481527f8c5be1e5ebec7d5bd14f71427d1e84f3dd0314c0f7b2291e5b200ac8c7c3b925910160405180910390a3505050565b6001600160a01b0383166112985760405162461bcd60e51b815260206004820152602560248201527f45524332303a207472616e736665722066726f6d20746865207a65726f20616460448201527f647265737300000000000000000000000000000000000000000000000000000060648201526084016107a3565b6001600160a01b0382166113145760405162461bcd60e51b815260206004820152602360248201527f45524332303a207472616e7366657220746f20746865207a65726f206164647260448201527f657373000000000000000000000000000000000000000000000000000000000060648201526084016107a3565b61131f838383611ca2565b6001600160a01b038316600090815260976020526040902054818110156113ae5760405162461bcd60e51b815260206004820152602660248201527f45524332303a207472616e7366657220616d6f756e742065786365656473206260448201527f616c616e6365000000000000000000000000000000000000000000000000000060648201526084016107a3565b6001600160a01b038085166000908152609760205260408082208585039055918516815290812080548492906113e5908490613162565b92505081905550826001600160a01b0316846001600160a01b03167fddf252ad1be2c89b69c2b068fc378daa952ba7f163c4a11628f55a4df523b3ef8460405161143191815260200190565b60405180910390a35b50505050565b600082815260656020526040808220600101805490849055905190918391839186917fbd79b86ffe0ab8e8776151514217cd7cacd52c909f66475c3af44e129f0b00ff9190a4505050565b60008281526065602090815260408083206001600160a01b038516845290915290205460ff166108bd576114c9816001600160a01b03166014611d5d565b6114d4836020611d5d565b6040516020016114e592919061317a565b60408051601f198184030181529082905262461bcd60e51b82526107a391600401612e27565b60008281526065602090815260408083206001600160a01b038516845290915290205460ff166108bd5760008281526065602090815260408083206001600160a01b03851684529091529020805460ff191660011790556115693390565b6001600160a01b0316816001600160a01b0316837f2f8788117e7eff1d82e926ec794901d17c78024a50270940304540a733656f0d60405160405180910390a45050565b60006109b67f8b73c3c69bb8fe3d512ecc4cf759cc79239f7b179b0ffacaa9a75d522b39400f6115dd6101c45490565b6101c5546040805160208101859052908101839052606081018290524660808201523060a082015260009060c0016040516020818303038152906040528051906020012090509392505050565b60008281526065602090815260408083206001600160a01b038516845290915290205460ff16156108bd5760008281526065602090815260408083206001600160a01b0385168085529252808320805460ff1916905551339285917ff6391f5c32d9c69d2a47ea670b442974b53935d1edc7fd64eb21e047a839171b9190a45050565b6116b5610bf4565b6117015760405162461bcd60e51b815260206004820152601460248201527f5061757361626c653a206e6f742070617573656400000000000000000000000060448201526064016107a3565b61012e805460ff191690557f5db9ee0a495bf2e6ff9c91a7834c1ba4fdd244a5e8aa4e537bd38aeae4b073aa335b6040516001600160a01b03909116815260200160405180910390a1565b6108bd8282611f86565b610bde3382611ffa565b6001600160a01b0382166000908152610192602052604081208190819061178890859061218b565b91509150816117af576001600160a01b0385166000908152609760205260409020546117b1565b805b95945050505050565b60006117c6833361056e565b90508181101561183d5760405162461bcd60e51b8152602060048201526024808201527f45524332303a206275726e20616d6f756e74206578636565647320616c6c6f7760448201527f616e63650000000000000000000000000000000000000000000000000000000060648201526084016107a3565b61184a83338484036110c4565b6109a68383611ffa565b61185c610bf4565b156118a95760405162461bcd60e51b815260206004820152601060248201527f5061757361626c653a207061757365640000000000000000000000000000000060448201526064016107a3565b61012e805460ff191660011790557f62e78cea01bee320cd4e420270b5ea74000d11b0c9f74754ebdbfc544b05a25861172f3390565b60006118f061019580546001019055565b60006118fa612289565b90507f8030e83b04d87bef53480e26263266d6ca66863aa8506aca6f2559d18aa1cb678160405161192d91815260200190565b60405180910390a1919050565b600080600061194b8461019361218b565b915091508161195c5760995461195e565b805b949350505050565b600054610100900460ff168061197f575060005460ff16155b6119e25760405162461bcd60e51b815260206004820152602e60248201527f496e697469616c697a61626c653a20636f6e747261637420697320616c72656160448201526d191e481a5b9a5d1a585b1a5e995960921b60648201526084016107a3565b600054610100900460ff16158015611a04576000805461ffff19166101011790555b611a0c612295565b611a168383612347565b80156109a6576000805461ff0019169055505050565b600054610100900460ff1680611a45575060005460ff16155b611aa85760405162461bcd60e51b815260206004820152602e60248201527f496e697469616c697a61626c653a20636f6e747261637420697320616c72656160448201526d191e481a5b9a5d1a585b1a5e995960921b60648201526084016107a3565b600054610100900460ff16158015611aca576000805461ffff19166101011790555b611ad2612295565b611adb82612423565b80156108bd576000805461ff00191690555050565b600054610100900460ff1680611b09575060005460ff16155b611b6c5760405162461bcd60e51b815260206004820152602e60248201527f496e697469616c697a61626c653a20636f6e747261637420697320616c72656160448201526d191e481a5b9a5d1a585b1a5e995960921b60648201526084016107a3565b600054610100900460ff16158015611b8e576000805461ffff19166101011790555b611b96612295565b611bd5826040518060400160405280600181526020017f310000000000000000000000000000000000000000000000000000000000000081525061252b565b611adb826125fe565b6108bd828261150b565b6001600160a01b03811660009081526101f8602052604090208054600181018255905b50919050565b600061066f611c1e6115ad565b836040517f19010000000000000000000000000000000000000000000000000000000000006020820152602281018390526042810182905260009060620160405160208183030381529060405280519060200120905092915050565b6000806000611c8b878787876126d6565b91509150611c98816127c3565b5095945050505050565b611cad8383836129b4565b61022b5474010000000000000000000000000000000000000000900460ff166109a65761022b546040517f3b285d030000000000000000000000000000000000000000000000000000000081526001600160a01b03858116600483015284811660248301526044820184905290911690633b285d0390606401600060405180830381600087803b158015611d4057600080fd5b505af1158015611d54573d6000803e3d6000fd5b50505050505050565b60606000611d6c8360026131fb565b611d77906002613162565b67ffffffffffffffff811115611d8f57611d8f612f59565b6040519080825280601f01601f191660200182016040528015611db9576020820181803683370190505b5090507f300000000000000000000000000000000000000000000000000000000000000081600081518110611df057611df061321a565b60200101907effffffffffffffffffffffffffffffffffffffffffffffffffffffffffffff1916908160001a9053507f780000000000000000000000000000000000000000000000000000000000000081600181518110611e5357611e5361321a565b60200101907effffffffffffffffffffffffffffffffffffffffffffffffffffffffffffff1916908160001a9053506000611e8f8460026131fb565b611e9a906001613162565b90505b6001811115611f37577f303132333435363738396162636465660000000000000000000000000000000085600f1660108110611edb57611edb61321a565b1a60f81b828281518110611ef157611ef161321a565b60200101907effffffffffffffffffffffffffffffffffffffffffffffffffffffffffffff1916908160001a90535060049490941c93611f3081613230565b9050611e9d565b508315610bed5760405162461bcd60e51b815260206004820181905260248201527f537472696e67733a20686578206c656e67746820696e73756666696369656e7460448201526064016107a3565b611f8e6109ab565b81611f9860995490565b611fa29190613162565b1115611ff05760405162461bcd60e51b815260206004820152601960248201527f45524332304361707065643a206361702065786365656465640000000000000060448201526064016107a3565b6108bd8282612a07565b6001600160a01b0382166120765760405162461bcd60e51b815260206004820152602160248201527f45524332303a206275726e2066726f6d20746865207a65726f2061646472657360448201527f730000000000000000000000000000000000000000000000000000000000000060648201526084016107a3565b61208282600083611ca2565b6001600160a01b038216600090815260976020526040902054818110156121115760405162461bcd60e51b815260206004820152602260248201527f45524332303a206275726e20616d6f756e7420657863656564732062616c616e60448201527f636500000000000000000000000000000000000000000000000000000000000060648201526084016107a3565b6001600160a01b0383166000908152609760205260408120838303905560998054849290612140908490613247565b90915550506040518281526000906001600160a01b038516907fddf252ad1be2c89b69c2b068fc378daa952ba7f163c4a11628f55a4df523b3ef9060200160405180910390a3505050565b600080600084116121de5760405162461bcd60e51b815260206004820152601660248201527f4552433230536e617073686f743a20696420697320300000000000000000000060448201526064016107a3565b6121e6612289565b8411156122355760405162461bcd60e51b815260206004820152601d60248201527f4552433230536e617073686f743a206e6f6e6578697374656e7420696400000060448201526064016107a3565b60006122418486612af2565b845490915081141561225a576000809250925050612282565b60018460010182815481106122715761227161321a565b906000526020600020015492509250505b9250929050565b60006109b66101955490565b600054610100900460ff16806122ae575060005460ff16155b6123115760405162461bcd60e51b815260206004820152602e60248201527f496e697469616c697a61626c653a20636f6e747261637420697320616c72656160448201526d191e481a5b9a5d1a585b1a5e995960921b60648201526084016107a3565b600054610100900460ff16158015612333576000805461ffff19166101011790555b8015610bde576000805461ff001916905550565b600054610100900460ff1680612360575060005460ff16155b6123c35760405162461bcd60e51b815260206004820152602e60248201527f496e697469616c697a61626c653a20636f6e747261637420697320616c72656160448201526d191e481a5b9a5d1a585b1a5e995960921b60648201526084016107a3565b600054610100900460ff161580156123e5576000805461ffff19166101011790555b82516123f890609a906020860190612d20565b50815161240c90609b906020850190612d20565b5080156109a6576000805461ff0019169055505050565b600054610100900460ff168061243c575060005460ff16155b61249f5760405162461bcd60e51b815260206004820152602e60248201527f496e697469616c697a61626c653a20636f6e747261637420697320616c72656160448201526d191e481a5b9a5d1a585b1a5e995960921b60648201526084016107a3565b600054610100900460ff161580156124c1576000805461ffff19166101011790555b600082116125115760405162461bcd60e51b815260206004820152601560248201527f45524332304361707065643a206361702069732030000000000000000000000060448201526064016107a3565b60c982905580156108bd576000805461ff00191690555050565b600054610100900460ff1680612544575060005460ff16155b6125a75760405162461bcd60e51b815260206004820152602e60248201527f496e697469616c697a61626c653a20636f6e747261637420697320616c72656160448201526d191e481a5b9a5d1a585b1a5e995960921b60648201526084016107a3565b600054610100900460ff161580156125c9576000805461ffff19166101011790555b82516020808501919091208351918401919091206101c4919091556101c55580156109a6576000805461ff0019169055505050565b600054610100900460ff1680612617575060005460ff16155b61267a5760405162461bcd60e51b815260206004820152602e60248201527f496e697469616c697a61626c653a20636f6e747261637420697320616c72656160448201526d191e481a5b9a5d1a585b1a5e995960921b60648201526084016107a3565b600054610100900460ff1615801561269c576000805461ffff19166101011790555b7f6e71edae12b1b97f4d1f60370fef10105fa2faae0126114a169c64845d6126c96101f95580156108bd576000805461ff00191690555050565b6000807f7fffffffffffffffffffffffffffffff5d576e7357a4501ddfe92f46681b20a083111561270d57506000905060036127ba565b8460ff16601b1415801561272557508460ff16601c14155b1561273657506000905060046127ba565b6040805160008082526020820180845289905260ff881692820192909252606081018690526080810185905260019060a0016020604051602081039080840390855afa15801561278a573d6000803e3d6000fd5b5050604051601f1901519150506001600160a01b0381166127b3576000600192509250506127ba565b9150600090505b94509492505050565b60008160048111156127d7576127d761325e565b14156127e05750565b60018160048111156127f4576127f461325e565b14156128425760405162461bcd60e51b815260206004820152601860248201527f45434453413a20696e76616c6964207369676e6174757265000000000000000060448201526064016107a3565b60028160048111156128565761285661325e565b14156128a45760405162461bcd60e51b815260206004820152601f60248201527f45434453413a20696e76616c6964207369676e6174757265206c656e6774680060448201526064016107a3565b60038160048111156128b8576128b861325e565b141561292c5760405162461bcd60e51b815260206004820152602260248201527f45434453413a20696e76616c6964207369676e6174757265202773272076616c60448201527f756500000000000000000000000000000000000000000000000000000000000060648201526084016107a3565b60048160048111156129405761294061325e565b1415610bde5760405162461bcd60e51b815260206004820152602260248201527f45434453413a20696e76616c6964207369676e6174757265202776272076616c60448201527f756500000000000000000000000000000000000000000000000000000000000060648201526084016107a3565b6129bf838383612bb5565b6001600160a01b0383166129de576129d682612c30565b6109a6612c64565b6001600160a01b0382166129f5576129d683612c30565b6129fe83612c30565b6109a682612c30565b6001600160a01b038216612a5d5760405162461bcd60e51b815260206004820152601f60248201527f45524332303a206d696e7420746f20746865207a65726f20616464726573730060448201526064016107a3565b612a6960008383611ca2565b8060996000828254612a7b9190613162565b90915550506001600160a01b03821660009081526097602052604081208054839290612aa8908490613162565b90915550506040518181526001600160a01b038316906000907fddf252ad1be2c89b69c2b068fc378daa952ba7f163c4a11628f55a4df523b3ef9060200160405180910390a35050565b8154600090612b035750600061066f565b82546000905b80821015612b5f576000612b1d8383612c73565b905084868281548110612b3257612b3261321a565b90600052602060002001541115612b4b57809150612b59565b612b56816001613162565b92505b50612b09565b600082118015612b9457508385612b77600185613247565b81548110612b8757612b8761321a565b9060005260206000200154145b15612bad57612ba4600183613247565b9250505061066f565b50905061066f565b612bbd610bf4565b156109a65760405162461bcd60e51b815260206004820152602a60248201527f45524332305061757361626c653a20746f6b656e207472616e7366657220776860448201527f696c65207061757365640000000000000000000000000000000000000000000060648201526084016107a3565b6001600160a01b038116600090815261019260209081526040808320609790925290912054610bde9190612c8e565b612c8e565b610b2d610193612c5f60995490565b6000612c826002848418613274565b610bed90848416613162565b6000612c98612289565b905080612ca484612cd8565b10156109a6578254600180820185556000858152602080822090930193909355938401805494850181558252902090910155565b8054600090612ce957506000919050565b81548290612cf990600190613247565b81548110612d0957612d0961321a565b90600052602060002001549050919050565b919050565b828054612d2c90613117565b90600052602060002090601f016020900481019282612d4e5760008555612d94565b82601f10612d6757805160ff1916838001178555612d94565b82800160010185558215612d94579182015b82811115612d94578251825591602001919060010190612d79565b50612da0929150612da4565b5090565b5b80821115612da05760008155600101612da5565b600060208284031215612dcb57600080fd5b81357fffffffff0000000000000000000000000000000000000000000000000000000081168114610bed57600080fd5b60005b83811015612e16578181015183820152602001612dfe565b8381111561143a5750506000910152565b6020815260008251806020840152612e46816040850160208701612dfb565b601f01601f19169190910160400192915050565b80356001600160a01b0381168114612d1b57600080fd5b60008060408385031215612e8457600080fd5b612e8d83612e5a565b946020939093013593505050565b600080600060608486031215612eb057600080fd5b612eb984612e5a565b9250612ec760208501612e5a565b9150604084013590509250925092565b60008060408385031215612eea57600080fd5b50508035926020909101359150565b600060208284031215612f0b57600080fd5b5035919050565b60008060408385031215612f2557600080fd5b82359150612f3560208401612e5a565b90509250929050565b600060208284031215612f5057600080fd5b610bed82612e5a565b634e487b7160e01b600052604160045260246000fd5b600082601f830112612f8057600080fd5b813567ffffffffffffffff80821115612f9b57612f9b612f59565b604051601f8301601f19908116603f01168101908282118183101715612fc357612fc3612f59565b81604052838152866020858801011115612fdc57600080fd5b836020870160208301376000602085830101528094505050505092915050565b6000806000806080858703121561301257600080fd5b843567ffffffffffffffff8082111561302a57600080fd5b61303688838901612f6f565b9550602087013591508082111561304c57600080fd5b5061305987828801612f6f565b9350506040850135915061306f60608601612e5a565b905092959194509250565b600080600080600080600060e0888a03121561309557600080fd5b61309e88612e5a565b96506130ac60208901612e5a565b95506040880135945060608801359350608088013560ff811681146130d057600080fd5b9699959850939692959460a0840135945060c09093013592915050565b6000806040838503121561310057600080fd5b61310983612e5a565b9150612f3560208401612e5a565b600181811c9082168061312b57607f821691505b60208210811415611c0b57634e487b7160e01b600052602260045260246000fd5b634e487b7160e01b600052601160045260246000fd5b600082198211156131755761317561314c565b500190565b7f416363657373436f6e74726f6c3a206163636f756e74200000000000000000008152600083516131b2816017850160208801612dfb565b7f206973206d697373696e6720726f6c652000000000000000000000000000000060179184019182015283516131ef816028840160208801612dfb565b01602801949350505050565b60008160001904831182151516156132155761321561314c565b500290565b634e487b7160e01b600052603260045260246000fd5b60008161323f5761323f61314c565b506000190190565b6000828210156132595761325961314c565b500390565b634e487b7160e01b600052602160045260246000fd5b60008261329157634e487b7160e01b600052601260045260246000fd5b50049056fea26469706673582212200cff35daeecd6c6ea81fcd2195152d1989270c4c7c1d30ed607f809c998c9cb764736f6c63430008090033",
  "devdoc": {
    "details": "- This contract is meant to be used as the implementation contract of EIP-1167 minimal proxies.      - See https://eips.ethereum.org/EIPS/eip-1167.",
    "kind": "dev",
    "methods": {
      "DOMAIN_SEPARATOR()": {
        "details": "See {IERC20Permit-DOMAIN_SEPARATOR}."
      },
      "allowance(address,address)": {
        "details": "See {IERC20-allowance}."
      },
      "approve(address,uint256)": {
        "details": "See {IERC20-approve}. Requirements: - `spender` cannot be the zero address."
      },
      "balanceOf(address)": {
        "details": "See {IERC20-balanceOf}."
      },
      "burn(uint256)": {
        "params": {
          "amount": "The amount of tokens to destroy."
        }
      },
      "burnFrom(address,uint256)": {
        "params": {
          "account": "The account whose tokens to destroy.",
          "amount": "The amount of tokens to destroy."
        }
      },
      "constructor": {
        "details": "- This contract is meant to be used as the implementation contract of EIP-1167 minimal proxies.      - The initializer modifier prevents the base implementation of being actually initialized.      - See https://eips.ethereum.org/EIPS/eip-1167."
      },
      "decimals()": {
        "details": "Returns the number of decimals used to get its user representation. For example, if `decimals` equals `2`, a balance of `505` tokens should be displayed to a user as `5.05` (`505 / 10 ** 2`). Tokens usually opt for a value of 18, imitating the relationship between Ether and Wei. This is the value {ERC20} uses, unless this function is overridden; NOTE: This information is only used for _display_ purposes: it in no way affects any of the arithmetic of the contract, including {IERC20-balanceOf} and {IERC20-transfer}."
      },
      "decreaseAllowance(address,uint256)": {
        "details": "Atomically decreases the allowance granted to `spender` by the caller. This is an alternative to {approve} that can be used as a mitigation for problems described in {IERC20-approve}. Emits an {Approval} event indicating the updated allowance. Requirements: - `spender` cannot be the zero address. - `spender` must have allowance for the caller of at least `subtractedValue`."
      },
      "getRoleAdmin(bytes32)": {
        "details": "Returns the admin role that controls `role`. See {grantRole} and {revokeRole}. To change a role's admin, use {_setRoleAdmin}."
      },
      "grantRole(bytes32,address)": {
        "details": "Grants `role` to `account`. If `account` had not been already granted `role`, emits a {RoleGranted} event. Requirements: - the caller must have ``role``'s admin role."
      },
      "hasRole(bytes32,address)": {
        "details": "Returns `true` if `account` has been granted `role`."
      },
      "increaseAllowance(address,uint256)": {
        "details": "Atomically increases the allowance granted to `spender` by the caller. This is an alternative to {approve} that can be used as a mitigation for problems described in {IERC20-approve}. Emits an {Approval} event indicating the updated allowance. Requirements: - `spender` cannot be the zero address."
      },
      "initialize(string,string,uint256,address)": {
        "details": "- `name_` is left unchecked as per the ERC20 standard.      - `symbol_` is left unchecked as per the ERC20 standard.      - `cap_` > 0 is checked in __ERC20Capped_init().      - `admin` can be set to the zero address to neutralize its privileges.",
        "params": {
          "admin": "The admin of the sERC20 [allowed to manage its permissions].",
          "cap_": "The supply cap of the sERC20.",
          "name_": "The name of the sERC20.",
          "symbol_": "The symbol of the sERC20."
        }
      },
      "mint(address,uint256)": {
        "details": "Caller must have MINT_ROLE.",
        "params": {
          "amount": "The amount of tokens to mint.",
          "to": "The recipient of the tokens to mint."
        }
      },
      "name()": {
        "details": "Returns the name of the token."
      },
      "nonces(address)": {
        "details": "See {IERC20Permit-nonces}."
      },
      "onERC1155Transferred(address,address,uint256)": {
        "details": "- This function is called by the sERC20's pegged ERC1155 whenever a transfer is triggered at the vault layer.      - This function can only be called by the sERC20's vault.",
        "params": {
          "amount": "The amount of tokens which have been transferred.",
          "from": "The address the tokens have been transferred from.",
          "to": "The address the tokens have been transferred to."
        }
      },
      "pause()": {
        "details": "Caller must have PAUSE_ROLE."
      },
      "permit(address,address,uint256,uint256,uint8,bytes32,bytes32)": {
        "details": "See {IERC20Permit-permit}."
      },
      "renounceRole(bytes32,address)": {
        "details": "Revokes `role` from the calling account. Roles are often managed via {grantRole} and {revokeRole}: this function's purpose is to provide a mechanism for accounts to lose their privileges if they are compromised (such as when a trusted device is misplaced). If the calling account had been granted `role`, emits a {RoleRevoked} event. Requirements: - the caller must be `account`."
      },
      "revokeRole(bytes32,address)": {
        "details": "Revokes `role` from `account`. If `account` had been granted `role`, emits a {RoleRevoked} event. Requirements: - the caller must have ``role``'s admin role."
      },
      "snapshot()": {
        "details": "- This function can potentially be used by attackers in two ways.      - First, it can be used to increase the cost of retrieval of values from snapshots although it will grow logarithmically thus rendering this attack        ineffective in the long term.      - Second, it can be used to target specific accounts and increase the cost of sERC20 transfers for them.      - That's the reason why this function is protected by SNAPSHOT_ROLE."
      },
      "supportsInterface(bytes4)": {
        "details": "See {IERC165-supportsInterface}."
      },
      "symbol()": {
        "details": "Returns the symbol of the token, usually a shorter version of the name."
      },
      "totalSupply()": {
        "details": "See {IERC20-totalSupply}."
      },
      "transfer(address,uint256)": {
        "details": "See {IERC20-transfer}. Requirements: - `recipient` cannot be the zero address. - the caller must have a balance of at least `amount`."
      },
      "transferFrom(address,address,uint256)": {
        "details": "See {IERC20-transferFrom}. Emits an {Approval} event indicating the updated allowance. This is not required by the EIP. See the note at the beginning of {ERC20}. Requirements: - `sender` and `recipient` cannot be the zero address. - `sender` must have a balance of at least `amount`. - the caller must have allowance for ``sender``'s tokens of at least `amount`."
      },
      "unpause()": {
        "details": "Caller must have PAUSE_ROLE."
      }
    },
    "title": "sERC20",
    "version": 1
  },
  "userdoc": {
    "kind": "user",
    "methods": {
      "balanceOfAt(address,uint256)": {
        "notice": "Return the sERC20 balance of `account` at the time `snapshotId` was created."
      },
      "burn(uint256)": {
        "notice": "Destroy `amount` tokens."
      },
      "burnFrom(address,uint256)": {
        "notice": "Destroy `amount` tokens from `account`, deducting from the caller's allowance."
      },
      "cap()": {
        "notice": "Return the sERC20's total supply cap."
      },
      "initialize(string,string,uint256,address)": {
        "notice": "Initialize sERC20."
      },
      "mint(address,uint256)": {
        "notice": "Mint `amount` new tokens for `to`."
      },
      "onERC1155Transferred(address,address,uint256)": {
        "notice": "Handle ERC1155 transfers."
      },
      "pause()": {
        "notice": "Pause tokens transfer, minting and burning."
      },
      "paused()": {
        "notice": "Return true if the contract is paused, false otherwise."
      },
      "setRoleAdmin(bytes32,bytes32)": {
        "notice": "Set `adminRole` as `role`'s admin role."
      },
      "snapshot()": {
        "notice": "Create a new snapshot and returns its snapshot id."
      },
      "totalSupplyAt(uint256)": {
        "notice": "Return the sERC20's total supply at the time `snapshotId` was created."
      },
      "unpause()": {
        "notice": "Unpause tokens transfer, minting and burning."
      },
      "vault()": {
        "notice": "Return the sERC20's vault address."
      }
    },
    "notice": "ERC20 of fractionalized ERC721.",
    "version": 1
  },
  "storageLayout": {
    "storage": [
      {
        "astId": 413,
        "contract": "contracts/token/sERC20.sol:sERC20",
        "label": "_initialized",
        "offset": 0,
        "slot": "0",
        "type": "t_bool"
      },
      {
        "astId": 416,
        "contract": "contracts/token/sERC20.sol:sERC20",
        "label": "_initializing",
        "offset": 1,
        "slot": "0",
        "type": "t_bool"
      },
      {
        "astId": 2197,
        "contract": "contracts/token/sERC20.sol:sERC20",
        "label": "__gap",
        "offset": 0,
        "slot": "1",
        "type": "t_array(t_uint256)50_storage"
      },
      {
        "astId": 3036,
        "contract": "contracts/token/sERC20.sol:sERC20",
        "label": "__gap",
        "offset": 0,
        "slot": "51",
        "type": "t_array(t_uint256)50_storage"
      },
      {
        "astId": 48,
        "contract": "contracts/token/sERC20.sol:sERC20",
        "label": "_roles",
        "offset": 0,
        "slot": "101",
        "type": "t_mapping(t_bytes32,t_struct(RoleData)43_storage)"
      },
      {
        "astId": 333,
        "contract": "contracts/token/sERC20.sol:sERC20",
        "label": "__gap",
        "offset": 0,
        "slot": "102",
        "type": "t_array(t_uint256)49_storage"
      },
      {
        "astId": 585,
        "contract": "contracts/token/sERC20.sol:sERC20",
        "label": "_balances",
        "offset": 0,
        "slot": "151",
        "type": "t_mapping(t_address,t_uint256)"
      },
      {
        "astId": 591,
        "contract": "contracts/token/sERC20.sol:sERC20",
        "label": "_allowances",
        "offset": 0,
        "slot": "152",
        "type": "t_mapping(t_address,t_mapping(t_address,t_uint256))"
      },
      {
        "astId": 593,
        "contract": "contracts/token/sERC20.sol:sERC20",
        "label": "_totalSupply",
        "offset": 0,
        "slot": "153",
        "type": "t_uint256"
      },
      {
        "astId": 595,
        "contract": "contracts/token/sERC20.sol:sERC20",
        "label": "_name",
        "offset": 0,
        "slot": "154",
        "type": "t_string_storage"
      },
      {
        "astId": 597,
        "contract": "contracts/token/sERC20.sol:sERC20",
        "label": "_symbol",
        "offset": 0,
        "slot": "155",
        "type": "t_string_storage"
      },
      {
        "astId": 1138,
        "contract": "contracts/token/sERC20.sol:sERC20",
        "label": "__gap",
        "offset": 0,
        "slot": "156",
        "type": "t_array(t_uint256)45_storage"
      },
      {
        "astId": 1315,
        "contract": "contracts/token/sERC20.sol:sERC20",
        "label": "_cap",
        "offset": 0,
        "slot": "201",
        "type": "t_uint256"
      },
      {
        "astId": 1392,
        "contract": "contracts/token/sERC20.sol:sERC20",
        "label": "__gap",
        "offset": 0,
        "slot": "202",
        "type": "t_array(t_uint256)50_storage"
      },
      {
        "astId": 1303,
        "contract": "contracts/token/sERC20.sol:sERC20",
        "label": "__gap",
        "offset": 0,
        "slot": "252",
        "type": "t_array(t_uint256)50_storage"
      },
      {
        "astId": 474,
        "contract": "contracts/token/sERC20.sol:sERC20",
        "label": "_paused",
        "offset": 0,
        "slot": "302",
        "type": "t_bool"
      },
      {
        "astId": 565,
        "contract": "contracts/token/sERC20.sol:sERC20",
        "label": "__gap",
        "offset": 0,
        "slot": "303",
        "type": "t_array(t_uint256)49_storage"
      },
      {
        "astId": 1457,
        "contract": "contracts/token/sERC20.sol:sERC20",
        "label": "__gap",
        "offset": 0,
        "slot": "352",
        "type": "t_array(t_uint256)50_storage"
      },
      {
        "astId": 1507,
        "contract": "contracts/token/sERC20.sol:sERC20",
        "label": "_accountBalanceSnapshots",
        "offset": 0,
        "slot": "402",
        "type": "t_mapping(t_address,t_struct(Snapshots)1502_storage)"
      },
      {
        "astId": 1510,
        "contract": "contracts/token/sERC20.sol:sERC20",
        "label": "_totalSupplySnapshots",
        "offset": 0,
        "slot": "403",
        "type": "t_struct(Snapshots)1502_storage"
      },
      {
        "astId": 1513,
        "contract": "contracts/token/sERC20.sol:sERC20",
        "label": "_currentSnapshotId",
        "offset": 0,
        "slot": "405",
        "type": "t_struct(Counter)2204_storage"
      },
      {
        "astId": 1810,
        "contract": "contracts/token/sERC20.sol:sERC20",
        "label": "__gap",
        "offset": 0,
        "slot": "406",
        "type": "t_array(t_uint256)46_storage"
      },
      {
        "astId": 2851,
        "contract": "contracts/token/sERC20.sol:sERC20",
        "label": "_HASHED_NAME",
        "offset": 0,
        "slot": "452",
        "type": "t_bytes32"
      },
      {
        "astId": 2853,
        "contract": "contracts/token/sERC20.sol:sERC20",
        "label": "_HASHED_VERSION",
        "offset": 0,
        "slot": "453",
        "type": "t_bytes32"
      },
      {
        "astId": 2990,
        "contract": "contracts/token/sERC20.sol:sERC20",
        "label": "__gap",
        "offset": 0,
        "slot": "454",
        "type": "t_array(t_uint256)50_storage"
      },
      {
        "astId": 1862,
        "contract": "contracts/token/sERC20.sol:sERC20",
        "label": "_nonces",
        "offset": 0,
        "slot": "504",
        "type": "t_mapping(t_address,t_struct(Counter)2204_storage)"
      },
      {
        "astId": 1864,
        "contract": "contracts/token/sERC20.sol:sERC20",
        "label": "_PERMIT_TYPEHASH",
        "offset": 0,
        "slot": "505",
        "type": "t_bytes32"
      },
      {
        "astId": 2032,
        "contract": "contracts/token/sERC20.sol:sERC20",
        "label": "__gap",
        "offset": 0,
        "slot": "506",
        "type": "t_array(t_uint256)49_storage"
      },
      {
        "astId": 12558,
        "contract": "contracts/token/sERC20.sol:sERC20",
        "label": "_vault",
        "offset": 0,
        "slot": "555",
        "type": "t_contract(IVault)14137"
      },
      {
        "astId": 12560,
        "contract": "contracts/token/sERC20.sol:sERC20",
        "label": "_isHooked",
        "offset": 20,
        "slot": "555",
        "type": "t_bool"
      }
    ],
    "types": {
      "t_address": {
        "encoding": "inplace",
        "label": "address",
        "numberOfBytes": "20"
      },
      "t_array(t_uint256)45_storage": {
        "base": "t_uint256",
        "encoding": "inplace",
        "label": "uint256[45]",
        "numberOfBytes": "1440"
      },
      "t_array(t_uint256)46_storage": {
        "base": "t_uint256",
        "encoding": "inplace",
        "label": "uint256[46]",
        "numberOfBytes": "1472"
      },
      "t_array(t_uint256)49_storage": {
        "base": "t_uint256",
        "encoding": "inplace",
        "label": "uint256[49]",
        "numberOfBytes": "1568"
      },
      "t_array(t_uint256)50_storage": {
        "base": "t_uint256",
        "encoding": "inplace",
        "label": "uint256[50]",
        "numberOfBytes": "1600"
      },
      "t_array(t_uint256)dyn_storage": {
        "base": "t_uint256",
        "encoding": "dynamic_array",
        "label": "uint256[]",
        "numberOfBytes": "32"
      },
      "t_bool": {
        "encoding": "inplace",
        "label": "bool",
        "numberOfBytes": "1"
      },
      "t_bytes32": {
        "encoding": "inplace",
        "label": "bytes32",
        "numberOfBytes": "32"
      },
      "t_contract(IVault)14137": {
        "encoding": "inplace",
        "label": "contract IVault",
        "numberOfBytes": "20"
      },
      "t_mapping(t_address,t_bool)": {
        "encoding": "mapping",
        "key": "t_address",
        "label": "mapping(address => bool)",
        "numberOfBytes": "32",
        "value": "t_bool"
      },
      "t_mapping(t_address,t_mapping(t_address,t_uint256))": {
        "encoding": "mapping",
        "key": "t_address",
        "label": "mapping(address => mapping(address => uint256))",
        "numberOfBytes": "32",
        "value": "t_mapping(t_address,t_uint256)"
      },
      "t_mapping(t_address,t_struct(Counter)2204_storage)": {
        "encoding": "mapping",
        "key": "t_address",
        "label": "mapping(address => struct CountersUpgradeable.Counter)",
        "numberOfBytes": "32",
        "value": "t_struct(Counter)2204_storage"
      },
      "t_mapping(t_address,t_struct(Snapshots)1502_storage)": {
        "encoding": "mapping",
        "key": "t_address",
        "label": "mapping(address => struct ERC20SnapshotUpgradeable.Snapshots)",
        "numberOfBytes": "32",
        "value": "t_struct(Snapshots)1502_storage"
      },
      "t_mapping(t_address,t_uint256)": {
        "encoding": "mapping",
        "key": "t_address",
        "label": "mapping(address => uint256)",
        "numberOfBytes": "32",
        "value": "t_uint256"
      },
      "t_mapping(t_bytes32,t_struct(RoleData)43_storage)": {
        "encoding": "mapping",
        "key": "t_bytes32",
        "label": "mapping(bytes32 => struct AccessControlUpgradeable.RoleData)",
        "numberOfBytes": "32",
        "value": "t_struct(RoleData)43_storage"
      },
      "t_string_storage": {
        "encoding": "bytes",
        "label": "string",
        "numberOfBytes": "32"
      },
      "t_struct(Counter)2204_storage": {
        "encoding": "inplace",
        "label": "struct CountersUpgradeable.Counter",
        "members": [
          {
            "astId": 2203,
            "contract": "contracts/token/sERC20.sol:sERC20",
            "label": "_value",
            "offset": 0,
            "slot": "0",
            "type": "t_uint256"
          }
        ],
        "numberOfBytes": "32"
      },
      "t_struct(RoleData)43_storage": {
        "encoding": "inplace",
        "label": "struct AccessControlUpgradeable.RoleData",
        "members": [
          {
            "astId": 40,
            "contract": "contracts/token/sERC20.sol:sERC20",
            "label": "members",
            "offset": 0,
            "slot": "0",
            "type": "t_mapping(t_address,t_bool)"
          },
          {
            "astId": 42,
            "contract": "contracts/token/sERC20.sol:sERC20",
            "label": "adminRole",
            "offset": 0,
            "slot": "1",
            "type": "t_bytes32"
          }
        ],
        "numberOfBytes": "64"
      },
      "t_struct(Snapshots)1502_storage": {
        "encoding": "inplace",
        "label": "struct ERC20SnapshotUpgradeable.Snapshots",
        "members": [
          {
            "astId": 1498,
            "contract": "contracts/token/sERC20.sol:sERC20",
            "label": "ids",
            "offset": 0,
            "slot": "0",
            "type": "t_array(t_uint256)dyn_storage"
          },
          {
            "astId": 1501,
            "contract": "contracts/token/sERC20.sol:sERC20",
            "label": "values",
            "offset": 0,
            "slot": "1",
            "type": "t_array(t_uint256)dyn_storage"
          }
        ],
        "numberOfBytes": "64"
      },
      "t_uint256": {
        "encoding": "inplace",
        "label": "uint256",
        "numberOfBytes": "32"
      }
    }
  }
}