{
  "address": "0x8A39B467375731d8a1f6d7204371dC74bde8f8c5",
  "abi": [
    {
      "inputs": [],
      "stateMutability": "nonpayable",
      "type": "constructor"
    },
    {
      "anonymous": false,
      "inputs": [
        {
          "indexed": true,
          "internalType": "address",
          "name": "owner",
          "type": "address"
        },
        {
          "indexed": true,
          "internalType": "address",
          "name": "spender",
          "type": "address"
        },
        {
          "indexed": false,
          "internalType": "uint256",
          "name": "value",
          "type": "uint256"
        }
      ],
      "name": "Approval",
      "type": "event"
    },
    {
      "anonymous": false,
      "inputs": [
        {
          "indexed": false,
          "internalType": "address",
          "name": "account",
          "type": "address"
        }
      ],
      "name": "Paused",
      "type": "event"
    },
    {
      "anonymous": false,
      "inputs": [
        {
          "indexed": true,
          "internalType": "bytes32",
          "name": "role",
          "type": "bytes32"
        },
        {
          "indexed": true,
          "internalType": "bytes32",
          "name": "previousAdminRole",
          "type": "bytes32"
        },
        {
          "indexed": true,
          "internalType": "bytes32",
          "name": "newAdminRole",
          "type": "bytes32"
        }
      ],
      "name": "RoleAdminChanged",
      "type": "event"
    },
    {
      "anonymous": false,
      "inputs": [
        {
          "indexed": true,
          "internalType": "bytes32",
          "name": "role",
          "type": "bytes32"
        },
        {
          "indexed": true,
          "internalType": "address",
          "name": "account",
          "type": "address"
        },
        {
          "indexed": true,
          "internalType": "address",
          "name": "sender",
          "type": "address"
        }
      ],
      "name": "RoleGranted",
      "type": "event"
    },
    {
      "anonymous": false,
      "inputs": [
        {
          "indexed": true,
          "internalType": "bytes32",
          "name": "role",
          "type": "bytes32"
        },
        {
          "indexed": true,
          "internalType": "address",
          "name": "account",
          "type": "address"
        },
        {
          "indexed": true,
          "internalType": "address",
          "name": "sender",
          "type": "address"
        }
      ],
      "name": "RoleRevoked",
      "type": "event"
    },
    {
      "anonymous": false,
      "inputs": [
        {
          "indexed": false,
          "internalType": "uint256",
          "name": "id",
          "type": "uint256"
        }
      ],
      "name": "Snapshot",
      "type": "event"
    },
    {
      "anonymous": false,
      "inputs": [
        {
          "indexed": true,
          "internalType": "address",
          "name": "from",
          "type": "address"
        },
        {
          "indexed": true,
          "internalType": "address",
          "name": "to",
          "type": "address"
        },
        {
          "indexed": false,
          "internalType": "uint256",
          "name": "value",
          "type": "uint256"
        }
      ],
      "name": "Transfer",
      "type": "event"
    },
    {
      "anonymous": false,
      "inputs": [
        {
          "indexed": false,
          "internalType": "address",
          "name": "account",
          "type": "address"
        }
      ],
      "name": "Unpaused",
      "type": "event"
    },
    {
      "inputs": [],
      "name": "DEFAULT_ADMIN_ROLE",
      "outputs": [
        {
          "internalType": "bytes32",
          "name": "",
          "type": "bytes32"
        }
      ],
      "stateMutability": "view",
      "type": "function"
    },
    {
      "inputs": [],
      "name": "MINT_ROLE",
      "outputs": [
        {
          "internalType": "bytes32",
          "name": "",
          "type": "bytes32"
        }
      ],
      "stateMutability": "view",
      "type": "function"
    },
    {
      "inputs": [],
      "name": "PAUSE_ROLE",
      "outputs": [
        {
          "internalType": "bytes32",
          "name": "",
          "type": "bytes32"
        }
      ],
      "stateMutability": "view",
      "type": "function"
    },
    {
      "inputs": [],
      "name": "SNAPSHOT_ROLE",
      "outputs": [
        {
          "internalType": "bytes32",
          "name": "",
          "type": "bytes32"
        }
      ],
      "stateMutability": "view",
      "type": "function"
    },
    {
      "inputs": [
        {
          "internalType": "address",
          "name": "owner",
          "type": "address"
        },
        {
          "internalType": "address",
          "name": "spender",
          "type": "address"
        }
      ],
      "name": "allowance",
      "outputs": [
        {
          "internalType": "uint256",
          "name": "",
          "type": "uint256"
        }
      ],
      "stateMutability": "view",
      "type": "function"
    },
    {
      "inputs": [
        {
          "internalType": "address",
          "name": "spender",
          "type": "address"
        },
        {
          "internalType": "uint256",
          "name": "amount",
          "type": "uint256"
        }
      ],
      "name": "approve",
      "outputs": [
        {
          "internalType": "bool",
          "name": "",
          "type": "bool"
        }
      ],
      "stateMutability": "nonpayable",
      "type": "function"
    },
    {
      "inputs": [
        {
          "internalType": "address",
          "name": "account",
          "type": "address"
        }
      ],
      "name": "balanceOf",
      "outputs": [
        {
          "internalType": "uint256",
          "name": "",
          "type": "uint256"
        }
      ],
      "stateMutability": "view",
      "type": "function"
    },
    {
      "inputs": [
        {
          "internalType": "address",
          "name": "account",
          "type": "address"
        },
        {
          "internalType": "uint256",
          "name": "snapshotId",
          "type": "uint256"
        }
      ],
      "name": "balanceOfAt",
      "outputs": [
        {
          "internalType": "uint256",
          "name": "",
          "type": "uint256"
        }
      ],
      "stateMutability": "view",
      "type": "function"
    },
    {
      "inputs": [
        {
          "internalType": "uint256",
          "name": "amount",
          "type": "uint256"
        }
      ],
      "name": "burn",
      "outputs": [],
      "stateMutability": "nonpayable",
      "type": "function"
    },
    {
      "inputs": [
        {
          "internalType": "address",
          "name": "account",
          "type": "address"
        },
        {
          "internalType": "uint256",
          "name": "amount",
          "type": "uint256"
        }
      ],
      "name": "burnFrom",
      "outputs": [],
      "stateMutability": "nonpayable",
      "type": "function"
    },
    {
      "inputs": [],
      "name": "cap",
      "outputs": [
        {
          "internalType": "uint256",
          "name": "",
          "type": "uint256"
        }
      ],
      "stateMutability": "view",
      "type": "function"
    },
    {
      "inputs": [],
      "name": "decimals",
      "outputs": [
        {
          "internalType": "uint8",
          "name": "",
          "type": "uint8"
        }
      ],
      "stateMutability": "view",
      "type": "function"
    },
    {
      "inputs": [
        {
          "internalType": "address",
          "name": "spender",
          "type": "address"
        },
        {
          "internalType": "uint256",
          "name": "subtractedValue",
          "type": "uint256"
        }
      ],
      "name": "decreaseAllowance",
      "outputs": [
        {
          "internalType": "bool",
          "name": "",
          "type": "bool"
        }
      ],
      "stateMutability": "nonpayable",
      "type": "function"
    },
    {
      "inputs": [
        {
          "internalType": "bytes32",
          "name": "role",
          "type": "bytes32"
        }
      ],
      "name": "getRoleAdmin",
      "outputs": [
        {
          "internalType": "bytes32",
          "name": "",
          "type": "bytes32"
        }
      ],
      "stateMutability": "view",
      "type": "function"
    },
    {
      "inputs": [
        {
          "internalType": "bytes32",
          "name": "role",
          "type": "bytes32"
        },
        {
          "internalType": "address",
          "name": "account",
          "type": "address"
        }
      ],
      "name": "grantRole",
      "outputs": [],
      "stateMutability": "nonpayable",
      "type": "function"
    },
    {
      "inputs": [
        {
          "internalType": "bytes32",
          "name": "role",
          "type": "bytes32"
        },
        {
          "internalType": "address",
          "name": "account",
          "type": "address"
        }
      ],
      "name": "hasRole",
      "outputs": [
        {
          "internalType": "bool",
          "name": "",
          "type": "bool"
        }
      ],
      "stateMutability": "view",
      "type": "function"
    },
    {
      "inputs": [
        {
          "internalType": "address",
          "name": "spender",
          "type": "address"
        },
        {
          "internalType": "uint256",
          "name": "addedValue",
          "type": "uint256"
        }
      ],
      "name": "increaseAllowance",
      "outputs": [
        {
          "internalType": "bool",
          "name": "",
          "type": "bool"
        }
      ],
      "stateMutability": "nonpayable",
      "type": "function"
    },
    {
      "inputs": [
        {
          "internalType": "string",
          "name": "name_",
          "type": "string"
        },
        {
          "internalType": "string",
          "name": "symbol_",
          "type": "string"
        },
        {
          "internalType": "uint256",
          "name": "cap_",
          "type": "uint256"
        },
        {
          "internalType": "address",
          "name": "admin",
          "type": "address"
        }
      ],
      "name": "initialize",
      "outputs": [],
      "stateMutability": "nonpayable",
      "type": "function"
    },
    {
      "inputs": [
        {
          "internalType": "address",
          "name": "to",
          "type": "address"
        },
        {
          "internalType": "uint256",
          "name": "amount",
          "type": "uint256"
        }
      ],
      "name": "mint",
      "outputs": [],
      "stateMutability": "nonpayable",
      "type": "function"
    },
    {
      "inputs": [],
      "name": "name",
      "outputs": [
        {
          "internalType": "string",
          "name": "",
          "type": "string"
        }
      ],
      "stateMutability": "view",
      "type": "function"
    },
    {
      "inputs": [
        {
          "internalType": "address",
          "name": "from",
          "type": "address"
        },
        {
          "internalType": "address",
          "name": "to",
          "type": "address"
        },
        {
          "internalType": "uint256",
          "name": "amount",
          "type": "uint256"
        }
      ],
      "name": "onERC1155Transferred",
      "outputs": [],
      "stateMutability": "nonpayable",
      "type": "function"
    },
    {
      "inputs": [],
      "name": "pause",
      "outputs": [],
      "stateMutability": "nonpayable",
      "type": "function"
    },
    {
      "inputs": [],
      "name": "paused",
      "outputs": [
        {
          "internalType": "bool",
          "name": "",
          "type": "bool"
        }
      ],
      "stateMutability": "view",
      "type": "function"
    },
    {
      "inputs": [
        {
          "internalType": "bytes32",
          "name": "role",
          "type": "bytes32"
        },
        {
          "internalType": "address",
          "name": "account",
          "type": "address"
        }
      ],
      "name": "renounceRole",
      "outputs": [],
      "stateMutability": "nonpayable",
      "type": "function"
    },
    {
      "inputs": [
        {
          "internalType": "bytes32",
          "name": "role",
          "type": "bytes32"
        },
        {
          "internalType": "address",
          "name": "account",
          "type": "address"
        }
      ],
      "name": "revokeRole",
      "outputs": [],
      "stateMutability": "nonpayable",
      "type": "function"
    },
    {
      "inputs": [
        {
          "internalType": "bytes32",
          "name": "role",
          "type": "bytes32"
        },
        {
          "internalType": "bytes32",
          "name": "adminRole",
          "type": "bytes32"
        }
      ],
      "name": "setRoleAdmin",
      "outputs": [],
      "stateMutability": "nonpayable",
      "type": "function"
    },
    {
      "inputs": [],
      "name": "snapshot",
      "outputs": [
        {
          "internalType": "uint256",
          "name": "",
          "type": "uint256"
        }
      ],
      "stateMutability": "nonpayable",
      "type": "function"
    },
    {
      "inputs": [
        {
          "internalType": "bytes4",
          "name": "interfaceId",
          "type": "bytes4"
        }
      ],
      "name": "supportsInterface",
      "outputs": [
        {
          "internalType": "bool",
          "name": "",
          "type": "bool"
        }
      ],
      "stateMutability": "view",
      "type": "function"
    },
    {
      "inputs": [],
      "name": "symbol",
      "outputs": [
        {
          "internalType": "string",
          "name": "",
          "type": "string"
        }
      ],
      "stateMutability": "view",
      "type": "function"
    },
    {
      "inputs": [],
      "name": "totalSupply",
      "outputs": [
        {
          "internalType": "uint256",
          "name": "",
          "type": "uint256"
        }
      ],
      "stateMutability": "view",
      "type": "function"
    },
    {
      "inputs": [
        {
          "internalType": "uint256",
          "name": "snapshotId",
          "type": "uint256"
        }
      ],
      "name": "totalSupplyAt",
      "outputs": [
        {
          "internalType": "uint256",
          "name": "",
          "type": "uint256"
        }
      ],
      "stateMutability": "view",
      "type": "function"
    },
    {
      "inputs": [
        {
          "internalType": "address",
          "name": "recipient",
          "type": "address"
        },
        {
          "internalType": "uint256",
          "name": "amount",
          "type": "uint256"
        }
      ],
      "name": "transfer",
      "outputs": [
        {
          "internalType": "bool",
          "name": "",
          "type": "bool"
        }
      ],
      "stateMutability": "nonpayable",
      "type": "function"
    },
    {
      "inputs": [
        {
          "internalType": "address",
          "name": "sender",
          "type": "address"
        },
        {
          "internalType": "address",
          "name": "recipient",
          "type": "address"
        },
        {
          "internalType": "uint256",
          "name": "amount",
          "type": "uint256"
        }
      ],
      "name": "transferFrom",
      "outputs": [
        {
          "internalType": "bool",
          "name": "",
          "type": "bool"
        }
      ],
      "stateMutability": "nonpayable",
      "type": "function"
    },
    {
      "inputs": [],
      "name": "unpause",
      "outputs": [],
      "stateMutability": "nonpayable",
      "type": "function"
    },
    {
      "inputs": [],
      "name": "vault",
      "outputs": [
        {
          "internalType": "contract IVault",
          "name": "",
          "type": "address"
        }
      ],
      "stateMutability": "view",
      "type": "function"
    }
  ],
  "transactionHash": "0x389d32dd3475b94e398e2af816b09c4ad667b8948ef7151bf1858fc8c58238a0",
  "args": [],
  "solcInputHash": "f809cd6438af857252ae6c36d2bc1996",
  "bytecode": "0x608060405234801561001057600080fd5b50600054610100900460ff168061002a575060005460ff16155b6100915760405162461bcd60e51b815260206004820152602e60248201527f496e697469616c697a61626c653a20636f6e747261637420697320616c72656160448201526d191e481a5b9a5d1a585b1a5e995960921b606482015260840160405180910390fd5b600054610100900460ff161580156100b3576000805461ffff19166101011790555b80156100c5576000805461ff00191690555b506129bc80620000d66000396000f3fe608060405234801561001057600080fd5b50600436106102415760003560e01c80634ee2cd7e11610145578063981b24d0116100bd578063bd3a13f61161008c578063dd62ed3e11610071578063dd62ed3e146104e1578063e9a9c8501461051a578063fbfa77cf1461054157600080fd5b8063bd3a13f6146104bb578063d547741f146104ce57600080fd5b8063981b24d01461047a578063a217fddf1461048d578063a457c2d714610495578063a9059cbb146104a857600080fd5b806379cc67901161011457806391d14854116100f957806391d148541461043157806395d89b411461046a5780639711715a1461047257600080fd5b806379cc6790146104165780638456cb591461042957600080fd5b80634ee2cd7e146103ab5780635c975abb146103be5780637028e2cd146103c657806370a08231146103ed57600080fd5b80632f2ff15d116101d8578063389ed267116101a75780633f4ba83a1161018c5780633f4ba83a1461037d57806340c10f191461038557806342966c681461039857600080fd5b8063389ed26714610343578063395093511461036a57600080fd5b80632f2ff15d14610306578063313ce56714610319578063355274ea1461032857806336568abe1461033057600080fd5b806318160ddd1161021457806318160ddd146102ab5780631e4e0091146102bd57806323b872dd146102d0578063248a9ca3146102e357600080fd5b806301ffc9a71461024657806306fdde031461026e578063095ea7b3146102835780631481026a14610296575b600080fd5b61025961025436600461252c565b61055d565b60405190151581526020015b60405180910390f35b6102766105f6565b604051610265919061259a565b6102596102913660046125e4565b610688565b6102a96102a436600461260e565b61069e565b005b6099545b604051908152602001610265565b6102a96102cb36600461264a565b6107a6565b6102596102de36600461260e565b610842565b6102af6102f136600461266c565b60009081526065602052604090206001015490565b6102a9610314366004612685565b610901565b60405160128152602001610265565b6102af61092c565b6102a961033e366004612685565b61093c565b6102af7f139c2898040ef16910dc9f44dc697df79363da767d8bc92f2e310312b816e46d81565b6102596103783660046125e4565b6109c4565b6102a9610a00565b6102a96103933660046125e4565b610aa6565b6102a96103a636600461266c565b610b4c565b6102af6103b93660046125e4565b610b58565b610259610b6b565b6102af7f5fdbd35e8da83ee755d5e62a539e5ed7f47126abede0b8b10f9ea43dc6eed07f81565b6102af6103fb3660046126b1565b6001600160a01b031660009081526097602052604090205490565b6102a96104243660046125e4565b610b7a565b6102a9610b84565b61025961043f366004612685565b60009182526065602090815260408084206001600160a01b0393909316845291905290205460ff1690565b610276610c28565b6102af610c37565b6102af61048836600461266c565b610cdd565b6102af600081565b6102596104a33660046125e4565b610ce8565b6102596104b63660046125e4565b610d99565b6102a96104c936600461276f565b610da6565b6102a96104dc366004612685565b610ea6565b6102af6104ef3660046127ed565b6001600160a01b03918216600090815260986020908152604080832093909416825291909152205490565b6102af7f154c00819833dac601ee5ddded6fda79d9d8b506b911b3dbd54cdb95fe6c368681565b6101c4546040516001600160a01b039091168152602001610265565b60007fffffffff0000000000000000000000000000000000000000000000000000000082167f7965db0b0000000000000000000000000000000000000000000000000000000014806105f057507f01ffc9a7000000000000000000000000000000000000000000000000000000007fffffffff000000000000000000000000000000000000000000000000000000008316145b92915050565b6060609a805461060590612817565b80601f016020809104026020016040519081016040528092919081815260200182805461063190612817565b801561067e5780601f106106535761010080835404028352916020019161067e565b820191906000526020600020905b81548152906001019060200180831161066157829003601f168201915b5050505050905090565b6000610695338484610ecc565b50600192915050565b6101c4546001600160a01b0316336001600160a01b03161461072d5760405162461bcd60e51b815260206004820152602a60248201527f7345524332303a206d757374206265207661756c7420746f207573652074726160448201527f6e7366657220686f6f6b0000000000000000000000000000000000000000000060648201526084015b60405180910390fd5b6101c480547fffffffffffffffffffffff00ffffffffffffffffffffffffffffffffffffffff1674010000000000000000000000000000000000000000179055610778838383611024565b50506101c480547fffffffffffffffffffffff00ffffffffffffffffffffffffffffffffffffffff16905550565b6000828152606560205260409020600101546107c2903361043f565b6108345760405162461bcd60e51b815260206004820152602c60248201527f7345524332303a206d75737420626520726f6c652061646d696e20746f20736560448201527f7420726f6c652061646d696e00000000000000000000000000000000000000006064820152608401610724565b61083e8282611252565b5050565b600061084f848484611024565b6001600160a01b0384166000908152609860209081526040808320338452909152902054828110156108e95760405162461bcd60e51b815260206004820152602860248201527f45524332303a207472616e7366657220616d6f756e742065786365656473206160448201527f6c6c6f77616e63650000000000000000000000000000000000000000000000006064820152608401610724565b6108f68533858403610ecc565b506001949350505050565b60008281526065602052604090206001015461091d813361129d565b610927838361131d565b505050565b600061093760c95490565b905090565b6001600160a01b03811633146109ba5760405162461bcd60e51b815260206004820152602f60248201527f416363657373436f6e74726f6c3a2063616e206f6e6c792072656e6f756e636560448201527f20726f6c657320666f722073656c6600000000000000000000000000000000006064820152608401610724565b61083e82826113bf565b3360008181526098602090815260408083206001600160a01b038716845290915281205490916106959185906109fb908690612868565b610ecc565b610a2a7f139c2898040ef16910dc9f44dc697df79363da767d8bc92f2e310312b816e46d3361043f565b610a9c5760405162461bcd60e51b815260206004820152602760248201527f7345524332303a206d75737420686176652050415553455f524f4c4520746f2060448201527f756e7061757365000000000000000000000000000000000000000000000000006064820152608401610724565b610aa4611442565b565b610ad07f154c00819833dac601ee5ddded6fda79d9d8b506b911b3dbd54cdb95fe6c36863361043f565b610b425760405162461bcd60e51b815260206004820152602360248201527f7345524332303a206d7573742068617665204d494e545f524f4c4520746f206d60448201527f696e7400000000000000000000000000000000000000000000000000000000006064820152608401610724565b61083e82826114e1565b610b55816114eb565b50565b6000610b6483836114f5565b9392505050565b600061093761012e5460ff1690565b61083e828261154f565b610bae7f139c2898040ef16910dc9f44dc697df79363da767d8bc92f2e310312b816e46d3361043f565b610c205760405162461bcd60e51b815260206004820152602560248201527f7345524332303a206d75737420686176652050415553455f524f4c4520746f2060448201527f70617573650000000000000000000000000000000000000000000000000000006064820152608401610724565b610aa46115e9565b6060609b805461060590612817565b6000610c637f5fdbd35e8da83ee755d5e62a539e5ed7f47126abede0b8b10f9ea43dc6eed07f3361043f565b610cd55760405162461bcd60e51b815260206004820152602b60248201527f7345524332303a206d757374206861766520534e415053484f545f524f4c452060448201527f746f20736e617073686f740000000000000000000000000000000000000000006064820152608401610724565b610937611674565b60006105f0826116cf565b3360009081526098602090815260408083206001600160a01b038616845290915281205482811015610d825760405162461bcd60e51b815260206004820152602560248201527f45524332303a2064656372656173656420616c6c6f77616e63652062656c6f7760448201527f207a65726f0000000000000000000000000000000000000000000000000000006064820152608401610724565b610d8f3385858403610ecc565b5060019392505050565b6000610695338484611024565b600054610100900460ff1680610dbf575060005460ff16155b610e225760405162461bcd60e51b815260206004820152602e60248201527f496e697469616c697a61626c653a20636f6e747261637420697320616c72656160448201526d191e481a5b9a5d1a585b1a5e995960921b6064820152608401610724565b600054610100900460ff16158015610e44576000805461ffff19166101011790555b610e4e85856116fb565b610e57836117c1565b6101c480547fffffffffffffffffffffffff00000000000000000000000000000000000000001633179055610e8d600083611885565b8015610e9f576000805461ff00191690555b5050505050565b600082815260656020526040902060010154610ec2813361129d565b61092783836113bf565b6001600160a01b038316610f475760405162461bcd60e51b8152602060048201526024808201527f45524332303a20617070726f76652066726f6d20746865207a65726f2061646460448201527f72657373000000000000000000000000000000000000000000000000000000006064820152608401610724565b6001600160a01b038216610fc35760405162461bcd60e51b815260206004820152602260248201527f45524332303a20617070726f766520746f20746865207a65726f20616464726560448201527f73730000000000000000000000000000000000000000000000000000000000006064820152608401610724565b6001600160a01b0383811660008181526098602090815260408083209487168084529482529182902085905590518481527f8c5be1e5ebec7d5bd14f71427d1e84f3dd0314c0f7b2291e5b200ac8c7c3b925910160405180910390a3505050565b6001600160a01b0383166110a05760405162461bcd60e51b815260206004820152602560248201527f45524332303a207472616e736665722066726f6d20746865207a65726f20616460448201527f64726573730000000000000000000000000000000000000000000000000000006064820152608401610724565b6001600160a01b03821661111c5760405162461bcd60e51b815260206004820152602360248201527f45524332303a207472616e7366657220746f20746865207a65726f206164647260448201527f65737300000000000000000000000000000000000000000000000000000000006064820152608401610724565b61112783838361188f565b6001600160a01b038316600090815260976020526040902054818110156111b65760405162461bcd60e51b815260206004820152602660248201527f45524332303a207472616e7366657220616d6f756e742065786365656473206260448201527f616c616e636500000000000000000000000000000000000000000000000000006064820152608401610724565b6001600160a01b038085166000908152609760205260408082208585039055918516815290812080548492906111ed908490612868565b92505081905550826001600160a01b0316846001600160a01b03167fddf252ad1be2c89b69c2b068fc378daa952ba7f163c4a11628f55a4df523b3ef8460405161123991815260200190565b60405180910390a361124c84848461189a565b50505050565b600082815260656020526040808220600101805490849055905190918391839186917fbd79b86ffe0ab8e8776151514217cd7cacd52c909f66475c3af44e129f0b00ff9190a4505050565b60008281526065602090815260408083206001600160a01b038516845290915290205460ff1661083e576112db816001600160a01b0316601461194a565b6112e683602061194a565b6040516020016112f7929190612880565b60408051601f198184030181529082905262461bcd60e51b82526107249160040161259a565b60008281526065602090815260408083206001600160a01b038516845290915290205460ff1661083e5760008281526065602090815260408083206001600160a01b03851684529091529020805460ff1916600117905561137b3390565b6001600160a01b0316816001600160a01b0316837f2f8788117e7eff1d82e926ec794901d17c78024a50270940304540a733656f0d60405160405180910390a45050565b60008281526065602090815260408083206001600160a01b038516845290915290205460ff161561083e5760008281526065602090815260408083206001600160a01b0385168085529252808320805460ff1916905551339285917ff6391f5c32d9c69d2a47ea670b442974b53935d1edc7fd64eb21e047a839171b9190a45050565b61144a610b6b565b6114965760405162461bcd60e51b815260206004820152601460248201527f5061757361626c653a206e6f74207061757365640000000000000000000000006044820152606401610724565b61012e805460ff191690557f5db9ee0a495bf2e6ff9c91a7834c1ba4fdd244a5e8aa4e537bd38aeae4b073aa335b6040516001600160a01b03909116815260200160405180910390a1565b61083e8282611b73565b610b553382611be7565b6001600160a01b0382166000908152610192602052604081208190819061151d908590611d7f565b9150915081611544576001600160a01b038516600090815260976020526040902054611546565b805b95945050505050565b600061155b83336104ef565b9050818110156115d25760405162461bcd60e51b8152602060048201526024808201527f45524332303a206275726e20616d6f756e74206578636565647320616c6c6f7760448201527f616e6365000000000000000000000000000000000000000000000000000000006064820152608401610724565b6115df8333848403610ecc565b6109278383611be7565b6115f1610b6b565b1561163e5760405162461bcd60e51b815260206004820152601060248201527f5061757361626c653a20706175736564000000000000000000000000000000006044820152606401610724565b61012e805460ff191660011790557f62e78cea01bee320cd4e420270b5ea74000d11b0c9f74754ebdbfc544b05a2586114c43390565b600061168561019580546001019055565b600061168f611e7d565b90507f8030e83b04d87bef53480e26263266d6ca66863aa8506aca6f2559d18aa1cb67816040516116c291815260200190565b60405180910390a1919050565b60008060006116e084610193611d7f565b91509150816116f1576099546116f3565b805b949350505050565b600054610100900460ff1680611714575060005460ff16155b6117775760405162461bcd60e51b815260206004820152602e60248201527f496e697469616c697a61626c653a20636f6e747261637420697320616c72656160448201526d191e481a5b9a5d1a585b1a5e995960921b6064820152608401610724565b600054610100900460ff16158015611799576000805461ffff19166101011790555b6117a1611e89565b6117ab8383611f3b565b8015610927576000805461ff0019169055505050565b600054610100900460ff16806117da575060005460ff16155b61183d5760405162461bcd60e51b815260206004820152602e60248201527f496e697469616c697a61626c653a20636f6e747261637420697320616c72656160448201526d191e481a5b9a5d1a585b1a5e995960921b6064820152608401610724565b600054610100900460ff1615801561185f576000805461ffff19166101011790555b611867611e89565b61187082612017565b801561083e576000805461ff00191690555050565b61083e828261131d565b61092783838361211f565b6101c45474010000000000000000000000000000000000000000900460ff16610927576101c4546040517f3b285d030000000000000000000000000000000000000000000000000000000081526001600160a01b03858116600483015284811660248301526044820184905290911690633b285d0390606401600060405180830381600087803b15801561192d57600080fd5b505af1158015611941573d6000803e3d6000fd5b50505050505050565b60606000611959836002612901565b611964906002612868565b67ffffffffffffffff81111561197c5761197c6126cc565b6040519080825280601f01601f1916602001820160405280156119a6576020820181803683370190505b5090507f3000000000000000000000000000000000000000000000000000000000000000816000815181106119dd576119dd612920565b60200101907effffffffffffffffffffffffffffffffffffffffffffffffffffffffffffff1916908160001a9053507f780000000000000000000000000000000000000000000000000000000000000081600181518110611a4057611a40612920565b60200101907effffffffffffffffffffffffffffffffffffffffffffffffffffffffffffff1916908160001a9053506000611a7c846002612901565b611a87906001612868565b90505b6001811115611b24577f303132333435363738396162636465660000000000000000000000000000000085600f1660108110611ac857611ac8612920565b1a60f81b828281518110611ade57611ade612920565b60200101907effffffffffffffffffffffffffffffffffffffffffffffffffffffffffffff1916908160001a90535060049490941c93611b1d81612936565b9050611a8a565b508315610b645760405162461bcd60e51b815260206004820181905260248201527f537472696e67733a20686578206c656e67746820696e73756666696369656e746044820152606401610724565b611b7b61092c565b81611b8560995490565b611b8f9190612868565b1115611bdd5760405162461bcd60e51b815260206004820152601960248201527f45524332304361707065643a20636170206578636565646564000000000000006044820152606401610724565b61083e8282612172565b6001600160a01b038216611c635760405162461bcd60e51b815260206004820152602160248201527f45524332303a206275726e2066726f6d20746865207a65726f2061646472657360448201527f73000000000000000000000000000000000000000000000000000000000000006064820152608401610724565b611c6f8260008361188f565b6001600160a01b03821660009081526097602052604090205481811015611cfe5760405162461bcd60e51b815260206004820152602260248201527f45524332303a206275726e20616d6f756e7420657863656564732062616c616e60448201527f63650000000000000000000000000000000000000000000000000000000000006064820152608401610724565b6001600160a01b0383166000908152609760205260408120838303905560998054849290611d2d90849061294d565b90915550506040518281526000906001600160a01b038516907fddf252ad1be2c89b69c2b068fc378daa952ba7f163c4a11628f55a4df523b3ef9060200160405180910390a36109278360008461189a565b60008060008411611dd25760405162461bcd60e51b815260206004820152601660248201527f4552433230536e617073686f743a2069642069732030000000000000000000006044820152606401610724565b611dda611e7d565b841115611e295760405162461bcd60e51b815260206004820152601d60248201527f4552433230536e617073686f743a206e6f6e6578697374656e742069640000006044820152606401610724565b6000611e358486612265565b8454909150811415611e4e576000809250925050611e76565b6001846001018281548110611e6557611e65612920565b906000526020600020015492509250505b9250929050565b60006109376101955490565b600054610100900460ff1680611ea2575060005460ff16155b611f055760405162461bcd60e51b815260206004820152602e60248201527f496e697469616c697a61626c653a20636f6e747261637420697320616c72656160448201526d191e481a5b9a5d1a585b1a5e995960921b6064820152608401610724565b600054610100900460ff16158015611f27576000805461ffff19166101011790555b8015610b55576000805461ff001916905550565b600054610100900460ff1680611f54575060005460ff16155b611fb75760405162461bcd60e51b815260206004820152602e60248201527f496e697469616c697a61626c653a20636f6e747261637420697320616c72656160448201526d191e481a5b9a5d1a585b1a5e995960921b6064820152608401610724565b600054610100900460ff16158015611fd9576000805461ffff19166101011790555b8251611fec90609a906020860190612493565b50815161200090609b906020850190612493565b508015610927576000805461ff0019169055505050565b600054610100900460ff1680612030575060005460ff16155b6120935760405162461bcd60e51b815260206004820152602e60248201527f496e697469616c697a61626c653a20636f6e747261637420697320616c72656160448201526d191e481a5b9a5d1a585b1a5e995960921b6064820152608401610724565b600054610100900460ff161580156120b5576000805461ffff19166101011790555b600082116121055760405162461bcd60e51b815260206004820152601560248201527f45524332304361707065643a20636170206973203000000000000000000000006044820152606401610724565b60c9829055801561083e576000805461ff00191690555050565b61212a838383612328565b6001600160a01b03831661214957612141826123a3565b6109276123d7565b6001600160a01b03821661216057612141836123a3565b612169836123a3565b610927826123a3565b6001600160a01b0382166121c85760405162461bcd60e51b815260206004820152601f60248201527f45524332303a206d696e7420746f20746865207a65726f2061646472657373006044820152606401610724565b6121d46000838361188f565b80609960008282546121e69190612868565b90915550506001600160a01b03821660009081526097602052604081208054839290612213908490612868565b90915550506040518181526001600160a01b038316906000907fddf252ad1be2c89b69c2b068fc378daa952ba7f163c4a11628f55a4df523b3ef9060200160405180910390a361083e6000838361189a565b8154600090612276575060006105f0565b82546000905b808210156122d257600061229083836123e6565b9050848682815481106122a5576122a5612920565b906000526020600020015411156122be578091506122cc565b6122c9816001612868565b92505b5061227c565b600082118015612307575083856122ea60018561294d565b815481106122fa576122fa612920565b9060005260206000200154145b156123205761231760018361294d565b925050506105f0565b5090506105f0565b612330610b6b565b156109275760405162461bcd60e51b815260206004820152602a60248201527f45524332305061757361626c653a20746f6b656e207472616e7366657220776860448201527f696c6520706175736564000000000000000000000000000000000000000000006064820152608401610724565b6001600160a01b038116600090815261019260209081526040808320609790925290912054610b559190612401565b612401565b610aa46101936123d260995490565b60006123f56002848418612964565b610b6490848416612868565b600061240b611e7d565b9050806124178461244b565b1015610927578254600180820185556000858152602080822090930193909355938401805494850181558252902090910155565b805460009061245c57506000919050565b8154829061246c9060019061294d565b8154811061247c5761247c612920565b90600052602060002001549050919050565b919050565b82805461249f90612817565b90600052602060002090601f0160209004810192826124c15760008555612507565b82601f106124da57805160ff1916838001178555612507565b82800160010185558215612507579182015b828111156125075782518255916020019190600101906124ec565b50612513929150612517565b5090565b5b808211156125135760008155600101612518565b60006020828403121561253e57600080fd5b81357fffffffff0000000000000000000000000000000000000000000000000000000081168114610b6457600080fd5b60005b83811015612589578181015183820152602001612571565b8381111561124c5750506000910152565b60208152600082518060208401526125b981604085016020870161256e565b601f01601f19169190910160400192915050565b80356001600160a01b038116811461248e57600080fd5b600080604083850312156125f757600080fd5b612600836125cd565b946020939093013593505050565b60008060006060848603121561262357600080fd5b61262c846125cd565b925061263a602085016125cd565b9150604084013590509250925092565b6000806040838503121561265d57600080fd5b50508035926020909101359150565b60006020828403121561267e57600080fd5b5035919050565b6000806040838503121561269857600080fd5b823591506126a8602084016125cd565b90509250929050565b6000602082840312156126c357600080fd5b610b64826125cd565b634e487b7160e01b600052604160045260246000fd5b600082601f8301126126f357600080fd5b813567ffffffffffffffff8082111561270e5761270e6126cc565b604051601f8301601f19908116603f01168101908282118183101715612736576127366126cc565b8160405283815286602085880101111561274f57600080fd5b836020870160208301376000602085830101528094505050505092915050565b6000806000806080858703121561278557600080fd5b843567ffffffffffffffff8082111561279d57600080fd5b6127a9888389016126e2565b955060208701359150808211156127bf57600080fd5b506127cc878288016126e2565b935050604085013591506127e2606086016125cd565b905092959194509250565b6000806040838503121561280057600080fd5b612809836125cd565b91506126a8602084016125cd565b600181811c9082168061282b57607f821691505b6020821081141561284c57634e487b7160e01b600052602260045260246000fd5b50919050565b634e487b7160e01b600052601160045260246000fd5b6000821982111561287b5761287b612852565b500190565b7f416363657373436f6e74726f6c3a206163636f756e74200000000000000000008152600083516128b881601785016020880161256e565b7f206973206d697373696e6720726f6c652000000000000000000000000000000060179184019182015283516128f581602884016020880161256e565b01602801949350505050565b600081600019048311821515161561291b5761291b612852565b500290565b634e487b7160e01b600052603260045260246000fd5b60008161294557612945612852565b506000190190565b60008282101561295f5761295f612852565b500390565b60008261298157634e487b7160e01b600052601260045260246000fd5b50049056fea2646970667358221220248ff7cc81e318a77bd17ee5932645a2ee80c163b9e68511d45f0791b0defafe64736f6c63430008090033",
  "devdoc": {
    "details": "- This contract is meant to be used as the implementation contract of EIP-1167 minimal proxies.      - See https://eips.ethereum.org/EIPS/eip-1167.",
    "kind": "dev",
    "methods": {
      "allowance(address,address)": {
        "details": "See {IERC20-allowance}."
      },
      "approve(address,uint256)": {
        "details": "See {IERC20-approve}. Requirements: - `spender` cannot be the zero address."
      },
      "balanceOf(address)": {
        "details": "See {IERC20-balanceOf}."
      },
      "burn(uint256)": {
        "params": {
          "amount": "The amount of tokens to destroy."
        }
      },
      "burnFrom(address,uint256)": {
        "params": {
          "account": "The account whose tokens to destroy.",
          "amount": "The amount of tokens to destroy."
        }
      },
      "constructor": {
        "details": "- This contract is meant to be used as the implementation contract of EIP-1167 minimal proxies.      - The initializer modifier prevents the base implementation of being actually initialized.      - See https://eips.ethereum.org/EIPS/eip-1167."
      },
      "decimals()": {
        "details": "Returns the number of decimals used to get its user representation. For example, if `decimals` equals `2`, a balance of `505` tokens should be displayed to a user as `5.05` (`505 / 10 ** 2`). Tokens usually opt for a value of 18, imitating the relationship between Ether and Wei. This is the value {ERC20} uses, unless this function is overridden; NOTE: This information is only used for _display_ purposes: it in no way affects any of the arithmetic of the contract, including {IERC20-balanceOf} and {IERC20-transfer}."
      },
      "decreaseAllowance(address,uint256)": {
        "details": "Atomically decreases the allowance granted to `spender` by the caller. This is an alternative to {approve} that can be used as a mitigation for problems described in {IERC20-approve}. Emits an {Approval} event indicating the updated allowance. Requirements: - `spender` cannot be the zero address. - `spender` must have allowance for the caller of at least `subtractedValue`."
      },
      "getRoleAdmin(bytes32)": {
        "details": "Returns the admin role that controls `role`. See {grantRole} and {revokeRole}. To change a role's admin, use {_setRoleAdmin}."
      },
      "grantRole(bytes32,address)": {
        "details": "Grants `role` to `account`. If `account` had not been already granted `role`, emits a {RoleGranted} event. Requirements: - the caller must have ``role``'s admin role."
      },
      "hasRole(bytes32,address)": {
        "details": "Returns `true` if `account` has been granted `role`."
      },
      "increaseAllowance(address,uint256)": {
        "details": "Atomically increases the allowance granted to `spender` by the caller. This is an alternative to {approve} that can be used as a mitigation for problems described in {IERC20-approve}. Emits an {Approval} event indicating the updated allowance. Requirements: - `spender` cannot be the zero address."
      },
      "initialize(string,string,uint256,address)": {
        "details": "- `name_` is left unchecked as per the ERC20 standard.      - `symbol_` is left unchecked as per the ERC20 standard.      - `cap_` > 0 is checked in __ERC20Capped_init().      - `admin` can be set to the zero address to neutralize its privileges.",
        "params": {
          "admin": "The admin of the sERC20 [allowed to manage its permissions].",
          "cap_": "The supply cap of the sERC20.",
          "name_": "The name of the sERC20.",
          "symbol_": "The symbol of the sERC20."
        }
      },
      "mint(address,uint256)": {
        "details": "Caller must have MINT_ROLE.",
        "params": {
          "amount": "The amount of tokens to mint.",
          "to": "The recipient of the tokens to mint."
        }
      },
      "name()": {
        "details": "Returns the name of the token."
      },
      "onERC1155Transferred(address,address,uint256)": {
        "details": "- This function is called by the sERC20's pegged ERC1155 whenever a transfer is triggered at the vault layer.      - This function can only be called by the sERC20's vault.",
        "params": {
          "amount": "The amount of tokens which have been transferred.",
          "from": "The address the tokens have been transferred from.",
          "to": "The address the tokens have been transferred to."
        }
      },
      "pause()": {
        "details": "Caller must have PAUSE_ROLE."
      },
      "renounceRole(bytes32,address)": {
        "details": "Revokes `role` from the calling account. Roles are often managed via {grantRole} and {revokeRole}: this function's purpose is to provide a mechanism for accounts to lose their privileges if they are compromised (such as when a trusted device is misplaced). If the calling account had been granted `role`, emits a {RoleRevoked} event. Requirements: - the caller must be `account`."
      },
      "revokeRole(bytes32,address)": {
        "details": "Revokes `role` from `account`. If `account` had been granted `role`, emits a {RoleRevoked} event. Requirements: - the caller must have ``role``'s admin role."
      },
      "snapshot()": {
        "details": "- This function can potentially be used by attackers in two ways.      - First, it can be used to increase the cost of retrieval of values from snapshots although it will grow logarithmically thus rendering this attack        ineffective in the long term.      - Second, it can be used to target specific accounts and increase the cost of sERC20 transfers for them.      - That's the reason why this function is protected by SNAPSHOT_ROLE."
      },
      "supportsInterface(bytes4)": {
        "details": "See {IERC165-supportsInterface}."
      },
      "symbol()": {
        "details": "Returns the symbol of the token, usually a shorter version of the name."
      },
      "totalSupply()": {
        "details": "See {IERC20-totalSupply}."
      },
      "transfer(address,uint256)": {
        "details": "See {IERC20-transfer}. Requirements: - `recipient` cannot be the zero address. - the caller must have a balance of at least `amount`."
      },
      "transferFrom(address,address,uint256)": {
        "details": "See {IERC20-transferFrom}. Emits an {Approval} event indicating the updated allowance. This is not required by the EIP. See the note at the beginning of {ERC20}. Requirements: - `sender` and `recipient` cannot be the zero address. - `sender` must have a balance of at least `amount`. - the caller must have allowance for ``sender``'s tokens of at least `amount`."
      },
      "unpause()": {
        "details": "Caller must have PAUSE_ROLE."
      }
    },
    "title": "sERC20",
    "version": 1
  },
  "userdoc": {
    "kind": "user",
    "methods": {
      "balanceOfAt(address,uint256)": {
        "notice": "Return the sERC20 balance of `account` at the time `snapshotId` was created."
      },
      "burn(uint256)": {
        "notice": "Destroy `amount` tokens."
      },
      "burnFrom(address,uint256)": {
        "notice": "Destroy `amount` tokens from `account`, deducting from the caller's allowance."
      },
      "cap()": {
        "notice": "Return the sERC20's total supply cap."
      },
      "initialize(string,string,uint256,address)": {
        "notice": "Initialize sERC20."
      },
      "mint(address,uint256)": {
        "notice": "Mint `amount` new tokens for `to`."
      },
      "onERC1155Transferred(address,address,uint256)": {
        "notice": "Handle ERC1155 transfers."
      },
      "pause()": {
        "notice": "Pause tokens transfer, minting and burning."
      },
      "paused()": {
        "notice": "Return true if the contract is paused, false otherwise."
      },
      "setRoleAdmin(bytes32,bytes32)": {
        "notice": "Set `adminRole` as `role`'s admin role."
      },
      "snapshot()": {
        "notice": "Create a new snapshot and returns its snapshot id."
      },
      "totalSupplyAt(uint256)": {
        "notice": "Return the sERC20's total supply at the time `snapshotId` was created."
      },
      "unpause()": {
        "notice": "Unpause tokens transfer, minting and burning."
      },
      "vault()": {
        "notice": "Return the sERC20's vault address."
      }
    },
    "notice": "ERC20 of fractionalized ERC721.",
    "version": 1
  },
  "storageLayout": {
    "storage": [
      {
        "astId": 413,
        "contract": "contracts/token/sERC20.sol:sERC20",
        "label": "_initialized",
        "offset": 0,
        "slot": "0",
        "type": "t_bool"
      },
      {
        "astId": 416,
        "contract": "contracts/token/sERC20.sol:sERC20",
        "label": "_initializing",
        "offset": 1,
        "slot": "0",
        "type": "t_bool"
      },
      {
        "astId": 1964,
        "contract": "contracts/token/sERC20.sol:sERC20",
        "label": "__gap",
        "offset": 0,
        "slot": "1",
        "type": "t_array(t_uint256)50_storage"
      },
      {
        "astId": 2287,
        "contract": "contracts/token/sERC20.sol:sERC20",
        "label": "__gap",
        "offset": 0,
        "slot": "51",
        "type": "t_array(t_uint256)50_storage"
      },
      {
        "astId": 48,
        "contract": "contracts/token/sERC20.sol:sERC20",
        "label": "_roles",
        "offset": 0,
        "slot": "101",
        "type": "t_mapping(t_bytes32,t_struct(RoleData)43_storage)"
      },
      {
        "astId": 333,
        "contract": "contracts/token/sERC20.sol:sERC20",
        "label": "__gap",
        "offset": 0,
        "slot": "102",
        "type": "t_array(t_uint256)49_storage"
      },
      {
        "astId": 585,
        "contract": "contracts/token/sERC20.sol:sERC20",
        "label": "_balances",
        "offset": 0,
        "slot": "151",
        "type": "t_mapping(t_address,t_uint256)"
      },
      {
        "astId": 591,
        "contract": "contracts/token/sERC20.sol:sERC20",
        "label": "_allowances",
        "offset": 0,
        "slot": "152",
        "type": "t_mapping(t_address,t_mapping(t_address,t_uint256))"
      },
      {
        "astId": 593,
        "contract": "contracts/token/sERC20.sol:sERC20",
        "label": "_totalSupply",
        "offset": 0,
        "slot": "153",
        "type": "t_uint256"
      },
      {
        "astId": 595,
        "contract": "contracts/token/sERC20.sol:sERC20",
        "label": "_name",
        "offset": 0,
        "slot": "154",
        "type": "t_string_storage"
      },
      {
        "astId": 597,
        "contract": "contracts/token/sERC20.sol:sERC20",
        "label": "_symbol",
        "offset": 0,
        "slot": "155",
        "type": "t_string_storage"
      },
      {
        "astId": 1138,
        "contract": "contracts/token/sERC20.sol:sERC20",
        "label": "__gap",
        "offset": 0,
        "slot": "156",
        "type": "t_array(t_uint256)45_storage"
      },
      {
        "astId": 1315,
        "contract": "contracts/token/sERC20.sol:sERC20",
        "label": "_cap",
        "offset": 0,
        "slot": "201",
        "type": "t_uint256"
      },
      {
        "astId": 1392,
        "contract": "contracts/token/sERC20.sol:sERC20",
        "label": "__gap",
        "offset": 0,
        "slot": "202",
        "type": "t_array(t_uint256)50_storage"
      },
      {
        "astId": 1303,
        "contract": "contracts/token/sERC20.sol:sERC20",
        "label": "__gap",
        "offset": 0,
        "slot": "252",
        "type": "t_array(t_uint256)50_storage"
      },
      {
        "astId": 474,
        "contract": "contracts/token/sERC20.sol:sERC20",
        "label": "_paused",
        "offset": 0,
        "slot": "302",
        "type": "t_bool"
      },
      {
        "astId": 565,
        "contract": "contracts/token/sERC20.sol:sERC20",
        "label": "__gap",
        "offset": 0,
        "slot": "303",
        "type": "t_array(t_uint256)49_storage"
      },
      {
        "astId": 1457,
        "contract": "contracts/token/sERC20.sol:sERC20",
        "label": "__gap",
        "offset": 0,
        "slot": "352",
        "type": "t_array(t_uint256)50_storage"
      },
      {
        "astId": 1507,
        "contract": "contracts/token/sERC20.sol:sERC20",
        "label": "_accountBalanceSnapshots",
        "offset": 0,
        "slot": "402",
        "type": "t_mapping(t_address,t_struct(Snapshots)1502_storage)"
      },
      {
        "astId": 1510,
        "contract": "contracts/token/sERC20.sol:sERC20",
        "label": "_totalSupplySnapshots",
        "offset": 0,
        "slot": "403",
        "type": "t_struct(Snapshots)1502_storage"
      },
      {
        "astId": 1513,
        "contract": "contracts/token/sERC20.sol:sERC20",
        "label": "_currentSnapshotId",
        "offset": 0,
        "slot": "405",
        "type": "t_struct(Counter)1971_storage"
      },
      {
        "astId": 1810,
        "contract": "contracts/token/sERC20.sol:sERC20",
        "label": "__gap",
        "offset": 0,
        "slot": "406",
        "type": "t_array(t_uint256)46_storage"
      },
      {
        "astId": 12162,
        "contract": "contracts/token/sERC20.sol:sERC20",
        "label": "_vault",
        "offset": 0,
        "slot": "452",
        "type": "t_contract(IVault)13763"
      },
      {
        "astId": 12164,
        "contract": "contracts/token/sERC20.sol:sERC20",
        "label": "_isHooked",
        "offset": 20,
        "slot": "452",
        "type": "t_bool"
      }
    ],
    "types": {
      "t_address": {
        "encoding": "inplace",
        "label": "address",
        "numberOfBytes": "20"
      },
      "t_array(t_uint256)45_storage": {
        "base": "t_uint256",
        "encoding": "inplace",
        "label": "uint256[45]",
        "numberOfBytes": "1440"
      },
      "t_array(t_uint256)46_storage": {
        "base": "t_uint256",
        "encoding": "inplace",
        "label": "uint256[46]",
        "numberOfBytes": "1472"
      },
      "t_array(t_uint256)49_storage": {
        "base": "t_uint256",
        "encoding": "inplace",
        "label": "uint256[49]",
        "numberOfBytes": "1568"
      },
      "t_array(t_uint256)50_storage": {
        "base": "t_uint256",
        "encoding": "inplace",
        "label": "uint256[50]",
        "numberOfBytes": "1600"
      },
      "t_array(t_uint256)dyn_storage": {
        "base": "t_uint256",
        "encoding": "dynamic_array",
        "label": "uint256[]",
        "numberOfBytes": "32"
      },
      "t_bool": {
        "encoding": "inplace",
        "label": "bool",
        "numberOfBytes": "1"
      },
      "t_bytes32": {
        "encoding": "inplace",
        "label": "bytes32",
        "numberOfBytes": "32"
      },
      "t_contract(IVault)13763": {
        "encoding": "inplace",
        "label": "contract IVault",
        "numberOfBytes": "20"
      },
      "t_mapping(t_address,t_bool)": {
        "encoding": "mapping",
        "key": "t_address",
        "label": "mapping(address => bool)",
        "numberOfBytes": "32",
        "value": "t_bool"
      },
      "t_mapping(t_address,t_mapping(t_address,t_uint256))": {
        "encoding": "mapping",
        "key": "t_address",
        "label": "mapping(address => mapping(address => uint256))",
        "numberOfBytes": "32",
        "value": "t_mapping(t_address,t_uint256)"
      },
      "t_mapping(t_address,t_struct(Snapshots)1502_storage)": {
        "encoding": "mapping",
        "key": "t_address",
        "label": "mapping(address => struct ERC20SnapshotUpgradeable.Snapshots)",
        "numberOfBytes": "32",
        "value": "t_struct(Snapshots)1502_storage"
      },
      "t_mapping(t_address,t_uint256)": {
        "encoding": "mapping",
        "key": "t_address",
        "label": "mapping(address => uint256)",
        "numberOfBytes": "32",
        "value": "t_uint256"
      },
      "t_mapping(t_bytes32,t_struct(RoleData)43_storage)": {
        "encoding": "mapping",
        "key": "t_bytes32",
        "label": "mapping(bytes32 => struct AccessControlUpgradeable.RoleData)",
        "numberOfBytes": "32",
        "value": "t_struct(RoleData)43_storage"
      },
      "t_string_storage": {
        "encoding": "bytes",
        "label": "string",
        "numberOfBytes": "32"
      },
      "t_struct(Counter)1971_storage": {
        "encoding": "inplace",
        "label": "struct CountersUpgradeable.Counter",
        "members": [
          {
            "astId": 1970,
            "contract": "contracts/token/sERC20.sol:sERC20",
            "label": "_value",
            "offset": 0,
            "slot": "0",
            "type": "t_uint256"
          }
        ],
        "numberOfBytes": "32"
      },
      "t_struct(RoleData)43_storage": {
        "encoding": "inplace",
        "label": "struct AccessControlUpgradeable.RoleData",
        "members": [
          {
            "astId": 40,
            "contract": "contracts/token/sERC20.sol:sERC20",
            "label": "members",
            "offset": 0,
            "slot": "0",
            "type": "t_mapping(t_address,t_bool)"
          },
          {
            "astId": 42,
            "contract": "contracts/token/sERC20.sol:sERC20",
            "label": "adminRole",
            "offset": 0,
            "slot": "1",
            "type": "t_bytes32"
          }
        ],
        "numberOfBytes": "64"
      },
      "t_struct(Snapshots)1502_storage": {
        "encoding": "inplace",
        "label": "struct ERC20SnapshotUpgradeable.Snapshots",
        "members": [
          {
            "astId": 1498,
            "contract": "contracts/token/sERC20.sol:sERC20",
            "label": "ids",
            "offset": 0,
            "slot": "0",
            "type": "t_array(t_uint256)dyn_storage"
          },
          {
            "astId": 1501,
            "contract": "contracts/token/sERC20.sol:sERC20",
            "label": "values",
            "offset": 0,
            "slot": "1",
            "type": "t_array(t_uint256)dyn_storage"
          }
        ],
        "numberOfBytes": "64"
      },
      "t_uint256": {
        "encoding": "inplace",
        "label": "uint256",
        "numberOfBytes": "32"
      }
    }
  }
}