{
  "address": "0x63a454beEE2905E6AF61E43C0044475EBB8A476c",
  "abi": [
    {
      "inputs": [
        {
          "internalType": "address",
          "name": "bank_",
          "type": "address"
        },
        {
          "internalType": "uint256",
          "name": "protocolFee_",
          "type": "uint256"
        }
      ],
      "stateMutability": "nonpayable",
      "type": "constructor"
    },
    {
      "anonymous": false,
      "inputs": [
        {
          "indexed": true,
          "internalType": "contract sIERC20",
          "name": "sERC20",
          "type": "address"
        },
        {
          "indexed": false,
          "internalType": "address[]",
          "name": "beneficiaries",
          "type": "address[]"
        },
        {
          "indexed": false,
          "internalType": "uint256[]",
          "name": "shares",
          "type": "uint256[]"
        },
        {
          "indexed": false,
          "internalType": "uint256",
          "name": "fee",
          "type": "uint256"
        },
        {
          "indexed": false,
          "internalType": "uint256",
          "name": "allocation",
          "type": "uint256"
        }
      ],
      "name": "Register",
      "type": "event"
    },
    {
      "anonymous": false,
      "inputs": [
        {
          "indexed": true,
          "internalType": "bytes32",
          "name": "role",
          "type": "bytes32"
        },
        {
          "indexed": true,
          "internalType": "bytes32",
          "name": "previousAdminRole",
          "type": "bytes32"
        },
        {
          "indexed": true,
          "internalType": "bytes32",
          "name": "newAdminRole",
          "type": "bytes32"
        }
      ],
      "name": "RoleAdminChanged",
      "type": "event"
    },
    {
      "anonymous": false,
      "inputs": [
        {
          "indexed": true,
          "internalType": "bytes32",
          "name": "role",
          "type": "bytes32"
        },
        {
          "indexed": true,
          "internalType": "address",
          "name": "account",
          "type": "address"
        },
        {
          "indexed": true,
          "internalType": "address",
          "name": "sender",
          "type": "address"
        }
      ],
      "name": "RoleGranted",
      "type": "event"
    },
    {
      "anonymous": false,
      "inputs": [
        {
          "indexed": true,
          "internalType": "bytes32",
          "name": "role",
          "type": "bytes32"
        },
        {
          "indexed": true,
          "internalType": "address",
          "name": "account",
          "type": "address"
        },
        {
          "indexed": true,
          "internalType": "address",
          "name": "sender",
          "type": "address"
        }
      ],
      "name": "RoleRevoked",
      "type": "event"
    },
    {
      "anonymous": false,
      "inputs": [
        {
          "indexed": false,
          "internalType": "address",
          "name": "bank",
          "type": "address"
        }
      ],
      "name": "SetBank",
      "type": "event"
    },
    {
      "anonymous": false,
      "inputs": [
        {
          "indexed": false,
          "internalType": "uint256",
          "name": "protocolFee",
          "type": "uint256"
        }
      ],
      "name": "SetProtocolFee",
      "type": "event"
    },
    {
      "anonymous": false,
      "inputs": [
        {
          "indexed": true,
          "internalType": "contract sIERC20",
          "name": "sERC20",
          "type": "address"
        },
        {
          "indexed": true,
          "internalType": "address",
          "name": "beneficiary",
          "type": "address"
        },
        {
          "indexed": false,
          "internalType": "uint256",
          "name": "amount",
          "type": "uint256"
        }
      ],
      "name": "Withdraw",
      "type": "event"
    },
    {
      "inputs": [],
      "name": "DEFAULT_ADMIN_ROLE",
      "outputs": [
        {
          "internalType": "bytes32",
          "name": "",
          "type": "bytes32"
        }
      ],
      "stateMutability": "view",
      "type": "function"
    },
    {
      "inputs": [],
      "name": "HUNDRED",
      "outputs": [
        {
          "internalType": "uint256",
          "name": "",
          "type": "uint256"
        }
      ],
      "stateMutability": "view",
      "type": "function"
    },
    {
      "inputs": [],
      "name": "REGISTER_ROLE",
      "outputs": [
        {
          "internalType": "bytes32",
          "name": "",
          "type": "bytes32"
        }
      ],
      "stateMutability": "view",
      "type": "function"
    },
    {
      "inputs": [],
      "name": "bank",
      "outputs": [
        {
          "internalType": "address",
          "name": "",
          "type": "address"
        }
      ],
      "stateMutability": "view",
      "type": "function"
    },
    {
      "inputs": [
        {
          "internalType": "bytes32",
          "name": "role",
          "type": "bytes32"
        }
      ],
      "name": "getRoleAdmin",
      "outputs": [
        {
          "internalType": "bytes32",
          "name": "",
          "type": "bytes32"
        }
      ],
      "stateMutability": "view",
      "type": "function"
    },
    {
      "inputs": [
        {
          "internalType": "bytes32",
          "name": "role",
          "type": "bytes32"
        },
        {
          "internalType": "uint256",
          "name": "index",
          "type": "uint256"
        }
      ],
      "name": "getRoleMember",
      "outputs": [
        {
          "internalType": "address",
          "name": "",
          "type": "address"
        }
      ],
      "stateMutability": "view",
      "type": "function"
    },
    {
      "inputs": [
        {
          "internalType": "bytes32",
          "name": "role",
          "type": "bytes32"
        }
      ],
      "name": "getRoleMemberCount",
      "outputs": [
        {
          "internalType": "uint256",
          "name": "",
          "type": "uint256"
        }
      ],
      "stateMutability": "view",
      "type": "function"
    },
    {
      "inputs": [
        {
          "internalType": "bytes32",
          "name": "role",
          "type": "bytes32"
        },
        {
          "internalType": "address",
          "name": "account",
          "type": "address"
        }
      ],
      "name": "grantRole",
      "outputs": [],
      "stateMutability": "nonpayable",
      "type": "function"
    },
    {
      "inputs": [
        {
          "internalType": "bytes32",
          "name": "role",
          "type": "bytes32"
        },
        {
          "internalType": "address",
          "name": "account",
          "type": "address"
        }
      ],
      "name": "hasRole",
      "outputs": [
        {
          "internalType": "bool",
          "name": "",
          "type": "bool"
        }
      ],
      "stateMutability": "view",
      "type": "function"
    },
    {
      "inputs": [],
      "name": "protocolFee",
      "outputs": [
        {
          "internalType": "uint256",
          "name": "",
          "type": "uint256"
        }
      ],
      "stateMutability": "view",
      "type": "function"
    },
    {
      "inputs": [
        {
          "internalType": "contract sIERC20",
          "name": "sERC20",
          "type": "address"
        },
        {
          "internalType": "address[]",
          "name": "beneficiaries",
          "type": "address[]"
        },
        {
          "internalType": "uint256[]",
          "name": "shares",
          "type": "uint256[]"
        }
      ],
      "name": "register",
      "outputs": [
        {
          "internalType": "uint256",
          "name": "",
          "type": "uint256"
        }
      ],
      "stateMutability": "nonpayable",
      "type": "function"
    },
    {
      "inputs": [
        {
          "internalType": "bytes32",
          "name": "role",
          "type": "bytes32"
        },
        {
          "internalType": "address",
          "name": "account",
          "type": "address"
        }
      ],
      "name": "renounceRole",
      "outputs": [],
      "stateMutability": "nonpayable",
      "type": "function"
    },
    {
      "inputs": [
        {
          "internalType": "bytes32",
          "name": "role",
          "type": "bytes32"
        },
        {
          "internalType": "address",
          "name": "account",
          "type": "address"
        }
      ],
      "name": "revokeRole",
      "outputs": [],
      "stateMutability": "nonpayable",
      "type": "function"
    },
    {
      "inputs": [
        {
          "internalType": "address",
          "name": "bank_",
          "type": "address"
        }
      ],
      "name": "setBank",
      "outputs": [],
      "stateMutability": "nonpayable",
      "type": "function"
    },
    {
      "inputs": [
        {
          "internalType": "uint256",
          "name": "fee_",
          "type": "uint256"
        }
      ],
      "name": "setProtocolFee",
      "outputs": [],
      "stateMutability": "nonpayable",
      "type": "function"
    },
    {
      "inputs": [
        {
          "internalType": "contract sIERC20",
          "name": "sERC20",
          "type": "address"
        },
        {
          "internalType": "address",
          "name": "beneficiary",
          "type": "address"
        }
      ],
      "name": "shareOf",
      "outputs": [
        {
          "internalType": "uint256",
          "name": "",
          "type": "uint256"
        }
      ],
      "stateMutability": "view",
      "type": "function"
    },
    {
      "inputs": [
        {
          "internalType": "contract sIERC20",
          "name": "sERC20",
          "type": "address"
        }
      ],
      "name": "stateOf",
      "outputs": [
        {
          "internalType": "uint256",
          "name": "received",
          "type": "uint256"
        },
        {
          "internalType": "uint256",
          "name": "totalWithdrawn",
          "type": "uint256"
        }
      ],
      "stateMutability": "view",
      "type": "function"
    },
    {
      "inputs": [
        {
          "internalType": "bytes4",
          "name": "interfaceId",
          "type": "bytes4"
        }
      ],
      "name": "supportsInterface",
      "outputs": [
        {
          "internalType": "bool",
          "name": "",
          "type": "bool"
        }
      ],
      "stateMutability": "view",
      "type": "function"
    },
    {
      "inputs": [
        {
          "internalType": "contract sIERC20",
          "name": "sERC20",
          "type": "address"
        },
        {
          "internalType": "address",
          "name": "beneficiary",
          "type": "address"
        }
      ],
      "name": "withdraw",
      "outputs": [],
      "stateMutability": "nonpayable",
      "type": "function"
    },
    {
      "inputs": [
        {
          "internalType": "contract sIERC20[]",
          "name": "sERC20s",
          "type": "address[]"
        },
        {
          "internalType": "address",
          "name": "beneficiary",
          "type": "address"
        }
      ],
      "name": "withdrawBatch",
      "outputs": [],
      "stateMutability": "nonpayable",
      "type": "function"
    },
    {
      "inputs": [
        {
          "internalType": "contract sIERC20",
          "name": "sERC20",
          "type": "address"
        },
        {
          "internalType": "address",
          "name": "beneficiary",
          "type": "address"
        }
      ],
      "name": "withdrawnBy",
      "outputs": [
        {
          "internalType": "uint256",
          "name": "",
          "type": "uint256"
        }
      ],
      "stateMutability": "view",
      "type": "function"
    }
  ],
  "transactionHash": "0x6215bdfcff953a7be07cb1dcc9dc4ba7d01c9f6c24ea860eacfd2fd79b0479aa",
  "args": [
    "0x8873b045d40a458e46e356a96279ae1820a898ba",
    "2500000000000000000"
  ],
  "solcInputHash": "f809cd6438af857252ae6c36d2bc1996",
  "bytecode": "0x60806040523480156200001157600080fd5b50604051620020cb380380620020cb83398101604081905262000034916200032f565b6001600160a01b038216620000a25760405162461bcd60e51b815260206004820152602960248201527f53706c69747465723a2062616e6b2063616e6e6f7420626520746865207a65726044820152686f206164647265737360b81b60648201526084015b60405180910390fd5b68056bc75e2d631000008110620001145760405162461bcd60e51b815260206004820152602f60248201527f53706c69747465723a2070726f746f636f6c20666565206d757374206265206960448201526e6e666572696f7220746f203130302560881b606482015260840162000099565b6200011f826200013f565b6200012a8162000194565b62000137600033620001ca565b50506200036b565b600280546001600160a01b0319166001600160a01b0383169081179091556040519081527f10f5824683d64a0712038f2244e046b174a1cc57fbb8556bfda5ffb261244067906020015b60405180910390a150565b60038190556040518181527fdc0410a296e1e33943a772020d333d5f99319d7fcad932a484c53889f7aaa2b19060200162000189565b620001e182826200020d60201b6200109b1760201c565b600082815260016020908152604090912062000208918390620010a96200021d821b17901c565b505050565b6200021982826200023d565b5050565b600062000234836001600160a01b038416620002dd565b90505b92915050565b6000828152602081815260408083206001600160a01b038516845290915290205460ff1662000219576000828152602081815260408083206001600160a01b03851684529091529020805460ff19166001179055620002993390565b6001600160a01b0316816001600160a01b0316837f2f8788117e7eff1d82e926ec794901d17c78024a50270940304540a733656f0d60405160405180910390a45050565b6000818152600183016020526040812054620003265750815460018181018455600084815260208082209093018490558454848252828601909352604090209190915562000237565b50600062000237565b600080604083850312156200034357600080fd5b82516001600160a01b03811681146200035b57600080fd5b6020939093015192949293505050565b611d50806200037b6000396000f3fe608060405234801561001057600080fd5b50600436106101775760003560e01c8063787dce3d116100d8578063b0e21e8a1161008c578063eb98edef11610066578063eb98edef146103a4578063f85fc0ab146103b7578063f940e385146103c757600080fd5b8063b0e21e8a14610376578063ca15c8731461037e578063d547741f1461039157600080fd5b806391d14854116100bd57806391d14854146102fa578063a217fddf14610331578063acd5d4581461033957600080fd5b8063787dce3d146102d45780639010d07c146102e757600080fd5b806336568abe1161012f57806350caeff51161011457806350caeff51461027557806374f533171461028857806376cdb03b146102af57600080fd5b806336568abe1461023a57806345b4903a1461024d57600080fd5b8063133f52a311610160578063133f52a3146101b9578063248a9ca3146102045780632f2ff15d1461022757600080fd5b806301ffc9a71461017c578063090d23b9146101a4575b600080fd5b61018f61018a366004611826565b6103da565b60405190151581526020015b60405180910390f35b6101b76101b236600461187d565b610436565b005b6101f66101c736600461189a565b6001600160a01b0391821660009081526004602090815260408083209390941682526002909201909152205490565b60405190815260200161019b565b6101f66102123660046118d3565b60009081526020819052604090206001015490565b6101b76102353660046118ec565b610540565b6101b76102483660046118ec565b610567565b61026061025b36600461187d565b610589565b6040805192835260208301919091520161019b565b6101b761028336600461195d565b61062d565b6101f67fd1f21ec03a6eb050fba156f5316dad461735df521fb446dd42c5a4728e9c70fe81565b6002546001600160a01b03165b6040516001600160a01b03909116815260200161019b565b6101b76102e23660046118d3565b6108fb565b6102bc6102f53660046119b4565b6109ff565b61018f6103083660046118ec565b6000918252602082815260408084206001600160a01b0393909316845291905290205460ff1690565b6101f6600081565b6101f661034736600461189a565b6001600160a01b0391821660009081526004602090815260408083209390941682526001909201909152205490565b6003546101f6565b6101f661038c3660046118d3565b610a1e565b6101b761039f3660046118ec565b610a35565b6101f66103b23660046119d6565b610a3f565b6101f668056bc75e2d6310000081565b6101b76103d536600461189a565b610e22565b60007fffffffff0000000000000000000000000000000000000000000000000000000082167f5a05180f0000000000000000000000000000000000000000000000000000000014806104305750610430826110be565b92915050565b610441600033610308565b6104b85760405162461bcd60e51b815260206004820152603260248201527f53706c69747465723a206d75737420686176652044454641554c545f41444d4960448201527f4e5f524f4c4520746f207365742062616e6b000000000000000000000000000060648201526084015b60405180910390fd5b6001600160a01b0381166105345760405162461bcd60e51b815260206004820152602960248201527f53706c69747465723a2062616e6b2063616e6e6f7420626520746865207a657260448201527f6f2061646472657373000000000000000000000000000000000000000000000060648201526084016104af565b61053d81611155565b50565b61054a82826111c2565b600082815260016020526040902061056290826110a9565b505050565b61057182826111e8565b60008281526001602052604090206105629082611270565b6001600160a01b0381166000818152600460208190526040808320805491516370a0823160e01b8152309381019390935292939092918391906370a082319060240160206040518083038186803b1580156105e357600080fd5b505afa1580156105f7573d6000803e3d6000fd5b505050506040513d601f19601f8201168201806040525081019061061b9190611a59565b6106259190611a88565b925050915091565b60008060008060005b868110156108f15787878281811061065057610650611aa0565b9050602002016020810190610665919061187d565b6001600160a01b038181166000818152600460208181526040808420958d168452600186019091529182902054845492516370a0823160e01b81523092810192909252949950929368056bc75e2d63100000939092906370a082319060240160206040518083038186803b1580156106dc57600080fd5b505afa1580156106f0573d6000803e3d6000fd5b505050506040513d601f19601f820116820180604052508101906107149190611a59565b61071e9190611a88565b6107289190611ab6565b6107329190611ad5565b6001600160a01b0388166000908152600283016020526040902054909550935061075c8486611af7565b92508385116107ad5760405162461bcd60e51b815260206004820152601d60248201527f53706c69747465723a206e6f7468696e6720746f20776974686472617700000060448201526064016104af565b6001600160a01b0387166000908152600282016020526040812080548592906107d7908490611a88565b90915550508054839082906000906107f0908490611a88565b90915550506040517fa9059cbb0000000000000000000000000000000000000000000000000000000081526001600160a01b0388811660048301526024820185905287169063a9059cbb90604401602060405180830381600087803b15801561085857600080fd5b505af115801561086c573d6000803e3d6000fd5b505050506040513d601f19601f820116820180604052508101906108909190611b0e565b50866001600160a01b0316866001600160a01b03167f9b1bfa7fa9ee420a16e124f794c35ac9f90472acc99140eb2f6447c714cad8eb856040516108d691815260200190565b60405180910390a350806108e981611b30565b915050610636565b5050505050505050565b610906600033610308565b6109785760405162461bcd60e51b815260206004820152603a60248201527f53706c69747465723a206d75737420686176652044454641554c545f41444d4960448201527f4e5f524f4c4520746f207365742070726f746f636f6c2066656500000000000060648201526084016104af565b68056bc75e2d6310000081106109f65760405162461bcd60e51b815260206004820152602f60248201527f53706c69747465723a2070726f746f636f6c20666565206d757374206265206960448201527f6e666572696f7220746f2031303025000000000000000000000000000000000060648201526084016104af565b61053d81611285565b6000828152600160205260408120610a1790836112ba565b9392505050565b6000818152600160205260408120610430906112c6565b61057182826112d0565b6001600160a01b0385166000908152600460205260408120610a817fd1f21ec03a6eb050fba156f5316dad461735df521fb446dd42c5a4728e9c70fe33610308565b610af35760405162461bcd60e51b815260206004820152602d60248201527f53706c69747465723a206d75737420686176652052454749535445525f524f4c60448201527f4520746f2072656769737465720000000000000000000000000000000000000060648201526084016104af565b848314610b685760405162461bcd60e51b815260206004820152603260248201527f53706c69747465723a2062656e6566696369617269657320616e64207368617260448201527f6573206c656e677468206d69736d61746368000000000000000000000000000060648201526084016104af565b6003546000908190815b86811015610cd457878782818110610b8c57610b8c611aa0565b90506020020135925060006001600160a01b03168a8a83818110610bb257610bb2611aa0565b9050602002016020810190610bc7919061187d565b6001600160a01b03161415610c445760405162461bcd60e51b815260206004820152603060248201527f53706c69747465723a2062656e65666963696172792063616e6e6f742062652060448201527f746865207a65726f20616464726573730000000000000000000000000000000060648201526084016104af565b82610cb65760405162461bcd60e51b8152602060048201526024808201527f53706c69747465723a2073686172652063616e6e6f7420626520776f7274682060448201527f7a65726f0000000000000000000000000000000000000000000000000000000060648201526084016104af565b610cc08385611a88565b935080610ccc81611b30565b915050610b72565b50610cdf8184611a88565b92508215610dc95760008060005b8a811015610d95578568056bc75e2d631000008b8b84818110610d1257610d12611aa0565b90506020020135610d239190611ab6565b610d2d9190611ad5565b9250828760010160008e8e85818110610d4857610d48611aa0565b9050602002016020810190610d5d919061187d565b6001600160a01b03168152602081019190915260400160002055610d818383611a88565b915080610d8d81611b30565b915050610ced565b50610da98168056bc75e2d63100000611af7565b6002546001600160a01b0316600090815260018801602052604090205550505b896001600160a01b03167fb08c7b392055c63c0d654c6c6d3d34befd2de7b7cc27fbd79053b17365e653f38a8a8a8a8689604051610e0c96959493929190611b4b565b60405180910390a2509098975050505050505050565b6001600160a01b03828116600081815260046020818152604080842095871684526001860190915280832054855491516370a0823160e01b81523093810193909352929368056bc75e2d6310000093926370a082319060240160206040518083038186803b158015610e9357600080fd5b505afa158015610ea7573d6000803e3d6000fd5b505050506040513d601f19601f82011682018060405250810190610ecb9190611a59565b610ed59190611a88565b610edf9190611ab6565b610ee99190611ad5565b6001600160a01b0384166000908152600284016020526040812054919250610f118284611af7565b9050818311610f625760405162461bcd60e51b815260206004820152601d60248201527f53706c69747465723a206e6f7468696e6720746f20776974686472617700000060448201526064016104af565b6001600160a01b038516600090815260028501602052604081208054839290610f8c908490611a88565b9091555050835481908590600090610fa5908490611a88565b90915550506040517fa9059cbb0000000000000000000000000000000000000000000000000000000081526001600160a01b0386811660048301526024820183905287169063a9059cbb90604401602060405180830381600087803b15801561100d57600080fd5b505af1158015611021573d6000803e3d6000fd5b505050506040513d601f19601f820116820180604052508101906110459190611b0e565b50846001600160a01b0316866001600160a01b03167f9b1bfa7fa9ee420a16e124f794c35ac9f90472acc99140eb2f6447c714cad8eb8360405161108b91815260200190565b60405180910390a3505050505050565b6110a582826112f6565b5050565b6000610a17836001600160a01b038416611394565b60007fffffffff0000000000000000000000000000000000000000000000000000000082167f7965db0b00000000000000000000000000000000000000000000000000000000148061043057507f01ffc9a7000000000000000000000000000000000000000000000000000000007fffffffff00000000000000000000000000000000000000000000000000000000831614610430565b600280547fffffffffffffffffffffffff0000000000000000000000000000000000000000166001600160a01b0383169081179091556040519081527f10f5824683d64a0712038f2244e046b174a1cc57fbb8556bfda5ffb261244067906020015b60405180910390a150565b6000828152602081905260409020600101546111de81336113e3565b61056283836112f6565b6001600160a01b03811633146112665760405162461bcd60e51b815260206004820152602f60248201527f416363657373436f6e74726f6c3a2063616e206f6e6c792072656e6f756e636560448201527f20726f6c657320666f722073656c66000000000000000000000000000000000060648201526084016104af565b6110a58282611461565b6000610a17836001600160a01b0384166114e0565b60038190556040518181527fdc0410a296e1e33943a772020d333d5f99319d7fcad932a484c53889f7aaa2b1906020016111b7565b6000610a1783836115d3565b6000610430825490565b6000828152602081905260409020600101546112ec81336113e3565b6105628383611461565b6000828152602081815260408083206001600160a01b038516845290915290205460ff166110a5576000828152602081815260408083206001600160a01b03851684529091529020805460ff191660011790556113503390565b6001600160a01b0316816001600160a01b0316837f2f8788117e7eff1d82e926ec794901d17c78024a50270940304540a733656f0d60405160405180910390a45050565b60008181526001830160205260408120546113db57508154600181810184556000848152602080822090930184905584548482528286019093526040902091909155610430565b506000610430565b6000828152602081815260408083206001600160a01b038516845290915290205460ff166110a55761141f816001600160a01b031660146115fd565b61142a8360206115fd565b60405160200161143b929190611c23565b60408051601f198184030181529082905262461bcd60e51b82526104af91600401611ca4565b6000828152602081815260408083206001600160a01b038516845290915290205460ff16156110a5576000828152602081815260408083206001600160a01b0385168085529252808320805460ff1916905551339285917ff6391f5c32d9c69d2a47ea670b442974b53935d1edc7fd64eb21e047a839171b9190a45050565b600081815260018301602052604081205480156115c9576000611504600183611af7565b855490915060009061151890600190611af7565b905081811461157d57600086600001828154811061153857611538611aa0565b906000526020600020015490508087600001848154811061155b5761155b611aa0565b6000918252602080832090910192909255918252600188019052604090208390555b855486908061158e5761158e611cd7565b600190038181906000526020600020016000905590558560010160008681526020019081526020016000206000905560019350505050610430565b6000915050610430565b60008260000182815481106115ea576115ea611aa0565b9060005260206000200154905092915050565b6060600061160c836002611ab6565b611617906002611a88565b67ffffffffffffffff81111561162f5761162f611ced565b6040519080825280601f01601f191660200182016040528015611659576020820181803683370190505b5090507f30000000000000000000000000000000000000000000000000000000000000008160008151811061169057611690611aa0565b60200101907effffffffffffffffffffffffffffffffffffffffffffffffffffffffffffff1916908160001a9053507f7800000000000000000000000000000000000000000000000000000000000000816001815181106116f3576116f3611aa0565b60200101907effffffffffffffffffffffffffffffffffffffffffffffffffffffffffffff1916908160001a905350600061172f846002611ab6565b61173a906001611a88565b90505b60018111156117d7577f303132333435363738396162636465660000000000000000000000000000000085600f166010811061177b5761177b611aa0565b1a60f81b82828151811061179157611791611aa0565b60200101907effffffffffffffffffffffffffffffffffffffffffffffffffffffffffffff1916908160001a90535060049490941c936117d081611d03565b905061173d565b508315610a175760405162461bcd60e51b815260206004820181905260248201527f537472696e67733a20686578206c656e67746820696e73756666696369656e7460448201526064016104af565b60006020828403121561183857600080fd5b81357fffffffff0000000000000000000000000000000000000000000000000000000081168114610a1757600080fd5b6001600160a01b038116811461053d57600080fd5b60006020828403121561188f57600080fd5b8135610a1781611868565b600080604083850312156118ad57600080fd5b82356118b881611868565b915060208301356118c881611868565b809150509250929050565b6000602082840312156118e557600080fd5b5035919050565b600080604083850312156118ff57600080fd5b8235915060208301356118c881611868565b60008083601f84011261192357600080fd5b50813567ffffffffffffffff81111561193b57600080fd5b6020830191508360208260051b850101111561195657600080fd5b9250929050565b60008060006040848603121561197257600080fd5b833567ffffffffffffffff81111561198957600080fd5b61199586828701611911565b90945092505060208401356119a981611868565b809150509250925092565b600080604083850312156119c757600080fd5b50508035926020909101359150565b6000806000806000606086880312156119ee57600080fd5b85356119f981611868565b9450602086013567ffffffffffffffff80821115611a1657600080fd5b611a2289838a01611911565b90965094506040880135915080821115611a3b57600080fd5b50611a4888828901611911565b969995985093965092949392505050565b600060208284031215611a6b57600080fd5b5051919050565b634e487b7160e01b600052601160045260246000fd5b60008219821115611a9b57611a9b611a72565b500190565b634e487b7160e01b600052603260045260246000fd5b6000816000190483118215151615611ad057611ad0611a72565b500290565b600082611af257634e487b7160e01b600052601260045260246000fd5b500490565b600082821015611b0957611b09611a72565b500390565b600060208284031215611b2057600080fd5b81518015158114610a1757600080fd5b6000600019821415611b4457611b44611a72565b5060010190565b6080808252810186905260008760a08301825b89811015611b8e578235611b7181611868565b6001600160a01b0316825260209283019290910190600101611b5e565b5083810360208501528681527f07ffffffffffffffffffffffffffffffffffffffffffffffffffffffffffffff871115611bc757600080fd5b8660051b9150818860208301376000910160200190815260408301949094525060600152949350505050565b60005b83811015611c0e578181015183820152602001611bf6565b83811115611c1d576000848401525b50505050565b7f416363657373436f6e74726f6c3a206163636f756e7420000000000000000000815260008351611c5b816017850160208801611bf3565b7f206973206d697373696e6720726f6c65200000000000000000000000000000006017918401918201528351611c98816028840160208801611bf3565b01602801949350505050565b6020815260008251806020840152611cc3816040850160208701611bf3565b601f01601f19169190910160400192915050565b634e487b7160e01b600052603160045260246000fd5b634e487b7160e01b600052604160045260246000fd5b600081611d1257611d12611a72565b50600019019056fea26469706673582212201012dee5a4179fb9336c384f99944d0108e4a0af5a6f9571287a1c8391fefe6664736f6c63430008090033",
  "devdoc": {
    "kind": "dev",
    "methods": {
      "getRoleAdmin(bytes32)": {
        "details": "Returns the admin role that controls `role`. See {grantRole} and {revokeRole}. To change a role's admin, use {_setRoleAdmin}."
      },
      "getRoleMember(bytes32,uint256)": {
        "details": "Returns one of the accounts that have `role`. `index` must be a value between 0 and {getRoleMemberCount}, non-inclusive. Role bearers are not sorted in any particular way, and their ordering may change at any point. WARNING: When using {getRoleMember} and {getRoleMemberCount}, make sure you perform all queries on the same block. See the following https://forum.openzeppelin.com/t/iterating-over-elements-on-enumerableset-in-openzeppelin-contracts/2296[forum post] for more information."
      },
      "getRoleMemberCount(bytes32)": {
        "details": "Returns the number of accounts that have `role`. Can be used together with {getRoleMember} to enumerate all bearers of a role."
      },
      "grantRole(bytes32,address)": {
        "details": "Overload {grantRole} to track enumerable memberships"
      },
      "hasRole(bytes32,address)": {
        "details": "Returns `true` if `account` has been granted `role`."
      },
      "register(address,address[],uint256[])": {
        "details": "- We do not check neither that `sERC20` is unregistered nor that it actually is an sERC20 to save gas.      - Indeed, only trusted templates, registering sERC20s out of actual NFT fractionalizations, are supposed to be granted REGISTER_ROLE.      - Other parameters are checked because they are passed by users and forwarded unchecked by templates.",
        "params": {
          "beneficiaries": "The addresses between which to split the received sERC20s.",
          "sERC20": "The sERC20 whose received tokens are to split between beneficiaries.",
          "shares": "The respective shares of the beneficiaries [expressed with 1e18 decimals]."
        }
      },
      "renounceRole(bytes32,address)": {
        "details": "Overload {renounceRole} to track enumerable memberships"
      },
      "revokeRole(bytes32,address)": {
        "details": "Overload {revokeRole} to track enumerable memberships"
      },
      "setBank(address)": {
        "params": {
          "bank_": "The bank to set."
        }
      },
      "setProtocolFee(uint256)": {
        "params": {
          "fee_": "The fee to set [expressed with 1e18 decimals]."
        }
      },
      "supportsInterface(bytes4)": {
        "details": "See {IERC165-supportsInterface}."
      },
      "withdraw(address,address)": {
        "details": "- We do not check neither that `sERC20` is registered nor that split.shares[beneficiary] != 0.      - Indeed, the contract already reverts in such a situation for due == withdrawn == 0.",
        "params": {
          "beneficiary": "The beneficiary from whom to withdraw the due sERC20 tokens.",
          "sERC20": "The sERC20 to withdraw."
        }
      },
      "withdrawBatch(address[],address)": {
        "details": "- The same security remarks as above apply, plus:      - It is up to the user not to include the same sERC20 twice in `sERC20s` - otherwise the transaction reverts.      - We do not check the sERC20s array length as the gas limit can rise in the future.      - Therefore, it is up to the user to make sure he does not run out of gas.",
        "params": {
          "beneficiary": "The beneficiary from whom to withdraw the due sERC20s tokens.",
          "sERC20s": "The sERC20s to withdraw."
        }
      }
    },
    "title": "Splitter",
    "version": 1
  },
  "userdoc": {
    "kind": "user",
    "methods": {
      "bank()": {
        "notice": "Return the splitter's bank."
      },
      "protocolFee()": {
        "notice": "Return the splitter's fee."
      },
      "register(address,address[],uint256[])": {
        "notice": "Register an `sERC20` whose received tokens are to split between `beneficiaries` with respect to `shares`."
      },
      "setBank(address)": {
        "notice": "Set the splitter's bank."
      },
      "setProtocolFee(uint256)": {
        "notice": "Set the splitter's fee."
      },
      "shareOf(address,address)": {
        "notice": "Return the share of `beneficiary` over the received `sERC20` tokens [expressed with 1e18 decimals]."
      },
      "stateOf(address)": {
        "notice": "Return the amount of `sERC20` tokens received and whithdrawn."
      },
      "withdraw(address,address)": {
        "notice": "Withdraw `sERC20` tokens due to `beneficiary`."
      },
      "withdrawBatch(address[],address)": {
        "notice": "Batch withdraw `sERC20s` tokens due to `beneficiary`."
      },
      "withdrawnBy(address,address)": {
        "notice": "Return the amount of `sERC20` tokens already withdrawn by `beneficiary`."
      }
    },
    "notice": "Splits received sERC20s between registered beneficiaries.",
    "version": 1
  },
  "storageLayout": {
    "storage": [
      {
        "astId": 2413,
        "contract": "contracts/utils/Splitter.sol:Splitter",
        "label": "_roles",
        "offset": 0,
        "slot": "0",
        "type": "t_mapping(t_bytes32,t_struct(RoleData)2408_storage)"
      },
      {
        "astId": 2714,
        "contract": "contracts/utils/Splitter.sol:Splitter",
        "label": "_roleMembers",
        "offset": 0,
        "slot": "1",
        "type": "t_mapping(t_bytes32,t_struct(AddressSet)6087_storage)"
      },
      {
        "astId": 13019,
        "contract": "contracts/utils/Splitter.sol:Splitter",
        "label": "_bank",
        "offset": 0,
        "slot": "2",
        "type": "t_address"
      },
      {
        "astId": 13021,
        "contract": "contracts/utils/Splitter.sol:Splitter",
        "label": "_protocolFee",
        "offset": 0,
        "slot": "3",
        "type": "t_uint256"
      },
      {
        "astId": 13027,
        "contract": "contracts/utils/Splitter.sol:Splitter",
        "label": "_splits",
        "offset": 0,
        "slot": "4",
        "type": "t_mapping(t_contract(sIERC20)12841,t_struct(Split)12882_storage)"
      }
    ],
    "types": {
      "t_address": {
        "encoding": "inplace",
        "label": "address",
        "numberOfBytes": "20"
      },
      "t_array(t_bytes32)dyn_storage": {
        "base": "t_bytes32",
        "encoding": "dynamic_array",
        "label": "bytes32[]",
        "numberOfBytes": "32"
      },
      "t_bool": {
        "encoding": "inplace",
        "label": "bool",
        "numberOfBytes": "1"
      },
      "t_bytes32": {
        "encoding": "inplace",
        "label": "bytes32",
        "numberOfBytes": "32"
      },
      "t_contract(sIERC20)12841": {
        "encoding": "inplace",
        "label": "contract sIERC20",
        "numberOfBytes": "20"
      },
      "t_mapping(t_address,t_bool)": {
        "encoding": "mapping",
        "key": "t_address",
        "label": "mapping(address => bool)",
        "numberOfBytes": "32",
        "value": "t_bool"
      },
      "t_mapping(t_address,t_uint256)": {
        "encoding": "mapping",
        "key": "t_address",
        "label": "mapping(address => uint256)",
        "numberOfBytes": "32",
        "value": "t_uint256"
      },
      "t_mapping(t_bytes32,t_struct(AddressSet)6087_storage)": {
        "encoding": "mapping",
        "key": "t_bytes32",
        "label": "mapping(bytes32 => struct EnumerableSet.AddressSet)",
        "numberOfBytes": "32",
        "value": "t_struct(AddressSet)6087_storage"
      },
      "t_mapping(t_bytes32,t_struct(RoleData)2408_storage)": {
        "encoding": "mapping",
        "key": "t_bytes32",
        "label": "mapping(bytes32 => struct AccessControl.RoleData)",
        "numberOfBytes": "32",
        "value": "t_struct(RoleData)2408_storage"
      },
      "t_mapping(t_bytes32,t_uint256)": {
        "encoding": "mapping",
        "key": "t_bytes32",
        "label": "mapping(bytes32 => uint256)",
        "numberOfBytes": "32",
        "value": "t_uint256"
      },
      "t_mapping(t_contract(sIERC20)12841,t_struct(Split)12882_storage)": {
        "encoding": "mapping",
        "key": "t_contract(sIERC20)12841",
        "label": "mapping(contract sIERC20 => struct ISplitter.Split)",
        "numberOfBytes": "32",
        "value": "t_struct(Split)12882_storage"
      },
      "t_struct(AddressSet)6087_storage": {
        "encoding": "inplace",
        "label": "struct EnumerableSet.AddressSet",
        "members": [
          {
            "astId": 6086,
            "contract": "contracts/utils/Splitter.sol:Splitter",
            "label": "_inner",
            "offset": 0,
            "slot": "0",
            "type": "t_struct(Set)5786_storage"
          }
        ],
        "numberOfBytes": "64"
      },
      "t_struct(RoleData)2408_storage": {
        "encoding": "inplace",
        "label": "struct AccessControl.RoleData",
        "members": [
          {
            "astId": 2405,
            "contract": "contracts/utils/Splitter.sol:Splitter",
            "label": "members",
            "offset": 0,
            "slot": "0",
            "type": "t_mapping(t_address,t_bool)"
          },
          {
            "astId": 2407,
            "contract": "contracts/utils/Splitter.sol:Splitter",
            "label": "adminRole",
            "offset": 0,
            "slot": "1",
            "type": "t_bytes32"
          }
        ],
        "numberOfBytes": "64"
      },
      "t_struct(Set)5786_storage": {
        "encoding": "inplace",
        "label": "struct EnumerableSet.Set",
        "members": [
          {
            "astId": 5781,
            "contract": "contracts/utils/Splitter.sol:Splitter",
            "label": "_values",
            "offset": 0,
            "slot": "0",
            "type": "t_array(t_bytes32)dyn_storage"
          },
          {
            "astId": 5785,
            "contract": "contracts/utils/Splitter.sol:Splitter",
            "label": "_indexes",
            "offset": 0,
            "slot": "1",
            "type": "t_mapping(t_bytes32,t_uint256)"
          }
        ],
        "numberOfBytes": "64"
      },
      "t_struct(Split)12882_storage": {
        "encoding": "inplace",
        "label": "struct ISplitter.Split",
        "members": [
          {
            "astId": 12873,
            "contract": "contracts/utils/Splitter.sol:Splitter",
            "label": "totalWithdrawn",
            "offset": 0,
            "slot": "0",
            "type": "t_uint256"
          },
          {
            "astId": 12877,
            "contract": "contracts/utils/Splitter.sol:Splitter",
            "label": "shares",
            "offset": 0,
            "slot": "1",
            "type": "t_mapping(t_address,t_uint256)"
          },
          {
            "astId": 12881,
            "contract": "contracts/utils/Splitter.sol:Splitter",
            "label": "withdrawn",
            "offset": 0,
            "slot": "2",
            "type": "t_mapping(t_address,t_uint256)"
          }
        ],
        "numberOfBytes": "96"
      },
      "t_uint256": {
        "encoding": "inplace",
        "label": "uint256",
        "numberOfBytes": "32"
      }
    }
  }
}