{
  "address": "0x5E0418E6614943a7BEe3FB220Ce72491F8bD004E",
  "abi": [
    {
      "inputs": [
        {
          "internalType": "address",
          "name": "bank_",
          "type": "address"
        },
        {
          "internalType": "uint256",
          "name": "protocolFee_",
          "type": "uint256"
        }
      ],
      "stateMutability": "nonpayable",
      "type": "constructor"
    },
    {
      "anonymous": false,
      "inputs": [
        {
          "indexed": true,
          "internalType": "contract sIERC20",
          "name": "sERC20",
          "type": "address"
        },
        {
          "indexed": false,
          "internalType": "address[]",
          "name": "beneficiaries",
          "type": "address[]"
        },
        {
          "indexed": false,
          "internalType": "uint256[]",
          "name": "shares",
          "type": "uint256[]"
        },
        {
          "indexed": false,
          "internalType": "uint256",
          "name": "fee",
          "type": "uint256"
        },
        {
          "indexed": false,
          "internalType": "uint256",
          "name": "allocation",
          "type": "uint256"
        }
      ],
      "name": "Register",
      "type": "event"
    },
    {
      "anonymous": false,
      "inputs": [
        {
          "indexed": true,
          "internalType": "bytes32",
          "name": "role",
          "type": "bytes32"
        },
        {
          "indexed": true,
          "internalType": "bytes32",
          "name": "previousAdminRole",
          "type": "bytes32"
        },
        {
          "indexed": true,
          "internalType": "bytes32",
          "name": "newAdminRole",
          "type": "bytes32"
        }
      ],
      "name": "RoleAdminChanged",
      "type": "event"
    },
    {
      "anonymous": false,
      "inputs": [
        {
          "indexed": true,
          "internalType": "bytes32",
          "name": "role",
          "type": "bytes32"
        },
        {
          "indexed": true,
          "internalType": "address",
          "name": "account",
          "type": "address"
        },
        {
          "indexed": true,
          "internalType": "address",
          "name": "sender",
          "type": "address"
        }
      ],
      "name": "RoleGranted",
      "type": "event"
    },
    {
      "anonymous": false,
      "inputs": [
        {
          "indexed": true,
          "internalType": "bytes32",
          "name": "role",
          "type": "bytes32"
        },
        {
          "indexed": true,
          "internalType": "address",
          "name": "account",
          "type": "address"
        },
        {
          "indexed": true,
          "internalType": "address",
          "name": "sender",
          "type": "address"
        }
      ],
      "name": "RoleRevoked",
      "type": "event"
    },
    {
      "anonymous": false,
      "inputs": [
        {
          "indexed": false,
          "internalType": "address",
          "name": "bank",
          "type": "address"
        }
      ],
      "name": "SetBank",
      "type": "event"
    },
    {
      "anonymous": false,
      "inputs": [
        {
          "indexed": false,
          "internalType": "uint256",
          "name": "protocolFee",
          "type": "uint256"
        }
      ],
      "name": "SetProtocolFee",
      "type": "event"
    },
    {
      "anonymous": false,
      "inputs": [
        {
          "indexed": true,
          "internalType": "contract sIERC20",
          "name": "sERC20",
          "type": "address"
        },
        {
          "indexed": true,
          "internalType": "address",
          "name": "beneficiary",
          "type": "address"
        },
        {
          "indexed": false,
          "internalType": "uint256",
          "name": "amount",
          "type": "uint256"
        }
      ],
      "name": "Withdraw",
      "type": "event"
    },
    {
      "inputs": [],
      "name": "DEFAULT_ADMIN_ROLE",
      "outputs": [
        {
          "internalType": "bytes32",
          "name": "",
          "type": "bytes32"
        }
      ],
      "stateMutability": "view",
      "type": "function"
    },
    {
      "inputs": [],
      "name": "HUNDRED",
      "outputs": [
        {
          "internalType": "uint256",
          "name": "",
          "type": "uint256"
        }
      ],
      "stateMutability": "view",
      "type": "function"
    },
    {
      "inputs": [],
      "name": "REGISTER_ROLE",
      "outputs": [
        {
          "internalType": "bytes32",
          "name": "",
          "type": "bytes32"
        }
      ],
      "stateMutability": "view",
      "type": "function"
    },
    {
      "inputs": [],
      "name": "bank",
      "outputs": [
        {
          "internalType": "address",
          "name": "",
          "type": "address"
        }
      ],
      "stateMutability": "view",
      "type": "function"
    },
    {
      "inputs": [
        {
          "internalType": "bytes32",
          "name": "role",
          "type": "bytes32"
        }
      ],
      "name": "getRoleAdmin",
      "outputs": [
        {
          "internalType": "bytes32",
          "name": "",
          "type": "bytes32"
        }
      ],
      "stateMutability": "view",
      "type": "function"
    },
    {
      "inputs": [
        {
          "internalType": "bytes32",
          "name": "role",
          "type": "bytes32"
        },
        {
          "internalType": "uint256",
          "name": "index",
          "type": "uint256"
        }
      ],
      "name": "getRoleMember",
      "outputs": [
        {
          "internalType": "address",
          "name": "",
          "type": "address"
        }
      ],
      "stateMutability": "view",
      "type": "function"
    },
    {
      "inputs": [
        {
          "internalType": "bytes32",
          "name": "role",
          "type": "bytes32"
        }
      ],
      "name": "getRoleMemberCount",
      "outputs": [
        {
          "internalType": "uint256",
          "name": "",
          "type": "uint256"
        }
      ],
      "stateMutability": "view",
      "type": "function"
    },
    {
      "inputs": [
        {
          "internalType": "bytes32",
          "name": "role",
          "type": "bytes32"
        },
        {
          "internalType": "address",
          "name": "account",
          "type": "address"
        }
      ],
      "name": "grantRole",
      "outputs": [],
      "stateMutability": "nonpayable",
      "type": "function"
    },
    {
      "inputs": [
        {
          "internalType": "bytes32",
          "name": "role",
          "type": "bytes32"
        },
        {
          "internalType": "address",
          "name": "account",
          "type": "address"
        }
      ],
      "name": "hasRole",
      "outputs": [
        {
          "internalType": "bool",
          "name": "",
          "type": "bool"
        }
      ],
      "stateMutability": "view",
      "type": "function"
    },
    {
      "inputs": [],
      "name": "protocolFee",
      "outputs": [
        {
          "internalType": "uint256",
          "name": "",
          "type": "uint256"
        }
      ],
      "stateMutability": "view",
      "type": "function"
    },
    {
      "inputs": [
        {
          "internalType": "contract sIERC20",
          "name": "sERC20",
          "type": "address"
        },
        {
          "internalType": "address[]",
          "name": "beneficiaries",
          "type": "address[]"
        },
        {
          "internalType": "uint256[]",
          "name": "shares",
          "type": "uint256[]"
        }
      ],
      "name": "register",
      "outputs": [
        {
          "internalType": "uint256",
          "name": "",
          "type": "uint256"
        }
      ],
      "stateMutability": "nonpayable",
      "type": "function"
    },
    {
      "inputs": [
        {
          "internalType": "bytes32",
          "name": "role",
          "type": "bytes32"
        },
        {
          "internalType": "address",
          "name": "account",
          "type": "address"
        }
      ],
      "name": "renounceRole",
      "outputs": [],
      "stateMutability": "nonpayable",
      "type": "function"
    },
    {
      "inputs": [
        {
          "internalType": "bytes32",
          "name": "role",
          "type": "bytes32"
        },
        {
          "internalType": "address",
          "name": "account",
          "type": "address"
        }
      ],
      "name": "revokeRole",
      "outputs": [],
      "stateMutability": "nonpayable",
      "type": "function"
    },
    {
      "inputs": [
        {
          "internalType": "address",
          "name": "bank_",
          "type": "address"
        }
      ],
      "name": "setBank",
      "outputs": [],
      "stateMutability": "nonpayable",
      "type": "function"
    },
    {
      "inputs": [
        {
          "internalType": "uint256",
          "name": "fee_",
          "type": "uint256"
        }
      ],
      "name": "setProtocolFee",
      "outputs": [],
      "stateMutability": "nonpayable",
      "type": "function"
    },
    {
      "inputs": [
        {
          "internalType": "contract sIERC20",
          "name": "sERC20",
          "type": "address"
        },
        {
          "internalType": "address",
          "name": "beneficiary",
          "type": "address"
        }
      ],
      "name": "shareOf",
      "outputs": [
        {
          "internalType": "uint256",
          "name": "",
          "type": "uint256"
        }
      ],
      "stateMutability": "view",
      "type": "function"
    },
    {
      "inputs": [
        {
          "internalType": "contract sIERC20",
          "name": "sERC20",
          "type": "address"
        }
      ],
      "name": "stateOf",
      "outputs": [
        {
          "internalType": "uint256",
          "name": "received",
          "type": "uint256"
        },
        {
          "internalType": "uint256",
          "name": "totalWithdrawn",
          "type": "uint256"
        }
      ],
      "stateMutability": "view",
      "type": "function"
    },
    {
      "inputs": [
        {
          "internalType": "bytes4",
          "name": "interfaceId",
          "type": "bytes4"
        }
      ],
      "name": "supportsInterface",
      "outputs": [
        {
          "internalType": "bool",
          "name": "",
          "type": "bool"
        }
      ],
      "stateMutability": "view",
      "type": "function"
    },
    {
      "inputs": [
        {
          "internalType": "contract sIERC20",
          "name": "sERC20",
          "type": "address"
        },
        {
          "internalType": "address",
          "name": "beneficiary",
          "type": "address"
        }
      ],
      "name": "withdraw",
      "outputs": [],
      "stateMutability": "nonpayable",
      "type": "function"
    },
    {
      "inputs": [
        {
          "internalType": "contract sIERC20[]",
          "name": "sERC20s",
          "type": "address[]"
        },
        {
          "internalType": "address",
          "name": "beneficiary",
          "type": "address"
        }
      ],
      "name": "withdrawBatch",
      "outputs": [],
      "stateMutability": "nonpayable",
      "type": "function"
    },
    {
      "inputs": [
        {
          "internalType": "contract sIERC20",
          "name": "sERC20",
          "type": "address"
        },
        {
          "internalType": "address",
          "name": "beneficiary",
          "type": "address"
        }
      ],
      "name": "withdrawnBy",
      "outputs": [
        {
          "internalType": "uint256",
          "name": "",
          "type": "uint256"
        }
      ],
      "stateMutability": "view",
      "type": "function"
    }
  ],
  "transactionHash": "0x9f7c7dabaa58cdc278c87682af54c824b82482b3ca0788c5cfd8147792246482",
  "args": [
    "0x8873b045d40a458e46e356a96279ae1820a898ba",
    "2500000000000000000"
  ],
  "solcInputHash": "e063610f6b9cf6ecd84ffa013d639e0f",
  "bytecode": "0x60806040523480156200001157600080fd5b50604051620021493803806200214983398101604081905262000034916200032f565b6001600160a01b038216620000a25760405162461bcd60e51b815260206004820152602960248201527f53706c69747465723a2062616e6b2063616e6e6f7420626520746865207a65726044820152686f206164647265737360b81b60648201526084015b60405180910390fd5b68056bc75e2d631000008110620001145760405162461bcd60e51b815260206004820152602f60248201527f53706c69747465723a2070726f746f636f6c20666565206d757374206265206960448201526e6e666572696f7220746f203130302560881b606482015260840162000099565b6200011f826200013f565b6200012a8162000194565b62000137600033620001ca565b50506200036b565b600280546001600160a01b0319166001600160a01b0383169081179091556040519081527f10f5824683d64a0712038f2244e046b174a1cc57fbb8556bfda5ffb261244067906020015b60405180910390a150565b60038190556040518181527fdc0410a296e1e33943a772020d333d5f99319d7fcad932a484c53889f7aaa2b19060200162000189565b620001e182826200020d60201b620011191760201c565b600082815260016020908152604090912062000208918390620011276200021d821b17901c565b505050565b6200021982826200023d565b5050565b600062000234836001600160a01b038416620002dd565b90505b92915050565b6000828152602081815260408083206001600160a01b038516845290915290205460ff1662000219576000828152602081815260408083206001600160a01b03851684529091529020805460ff19166001179055620002993390565b6001600160a01b0316816001600160a01b0316837f2f8788117e7eff1d82e926ec794901d17c78024a50270940304540a733656f0d60405160405180910390a45050565b6000818152600183016020526040812054620003265750815460018181018455600084815260208082209093018490558454848252828601909352604090209190915562000237565b50600062000237565b600080604083850312156200034357600080fd5b82516001600160a01b03811681146200035b57600080fd5b6020939093015192949293505050565b611dce806200037b6000396000f3fe608060405234801561001057600080fd5b50600436106101775760003560e01c8063787dce3d116100d8578063b0e21e8a1161008c578063eb98edef11610066578063eb98edef146103a4578063f85fc0ab146103b7578063f940e385146103c757600080fd5b8063b0e21e8a14610376578063ca15c8731461037e578063d547741f1461039157600080fd5b806391d14854116100bd57806391d14854146102fa578063a217fddf14610331578063acd5d4581461033957600080fd5b8063787dce3d146102d45780639010d07c146102e757600080fd5b806336568abe1161012f57806350caeff51161011457806350caeff51461027557806374f533171461028857806376cdb03b146102af57600080fd5b806336568abe1461023a57806345b4903a1461024d57600080fd5b8063133f52a311610160578063133f52a3146101b9578063248a9ca3146102045780632f2ff15d1461022757600080fd5b806301ffc9a71461017c578063090d23b9146101a4575b600080fd5b61018f61018a3660046118a4565b6103da565b60405190151581526020015b60405180910390f35b6101b76101b23660046118fb565b610436565b005b6101f66101c7366004611918565b6001600160a01b0391821660009081526004602090815260408083209390941682526002909201909152205490565b60405190815260200161019b565b6101f6610212366004611951565b60009081526020819052604090206001015490565b6101b761023536600461196a565b610540565b6101b761024836600461196a565b610567565b61026061025b3660046118fb565b610589565b6040805192835260208301919091520161019b565b6101b76102833660046119db565b61062d565b6101f67fd1f21ec03a6eb050fba156f5316dad461735df521fb446dd42c5a4728e9c70fe81565b6002546001600160a01b03165b6040516001600160a01b03909116815260200161019b565b6101b76102e2366004611951565b6108fb565b6102bc6102f5366004611a32565b6109ff565b61018f61030836600461196a565b6000918252602082815260408084206001600160a01b0393909316845291905290205460ff1690565b6101f6600081565b6101f6610347366004611918565b6001600160a01b0391821660009081526004602090815260408083209390941682526001909201909152205490565b6003546101f6565b6101f661038c366004611951565b610a1e565b6101b761039f36600461196a565b610a35565b6101f66103b2366004611a54565b610a3f565b6101f668056bc75e2d6310000081565b6101b76103d5366004611918565b610ea0565b60007fffffffff0000000000000000000000000000000000000000000000000000000082167f5a05180f00000000000000000000000000000000000000000000000000000000148061043057506104308261113c565b92915050565b610441600033610308565b6104b85760405162461bcd60e51b815260206004820152603260248201527f53706c69747465723a206d75737420686176652044454641554c545f41444d4960448201527f4e5f524f4c4520746f207365742062616e6b000000000000000000000000000060648201526084015b60405180910390fd5b6001600160a01b0381166105345760405162461bcd60e51b815260206004820152602960248201527f53706c69747465723a2062616e6b2063616e6e6f7420626520746865207a657260448201527f6f2061646472657373000000000000000000000000000000000000000000000060648201526084016104af565b61053d816111d3565b50565b61054a8282611240565b60008281526001602052604090206105629082611127565b505050565b6105718282611266565b600082815260016020526040902061056290826112ee565b6001600160a01b0381166000818152600460208190526040808320805491516370a0823160e01b8152309381019390935292939092918391906370a082319060240160206040518083038186803b1580156105e357600080fd5b505afa1580156105f7573d6000803e3d6000fd5b505050506040513d601f19601f8201168201806040525081019061061b9190611ad7565b6106259190611b06565b925050915091565b60008060008060005b868110156108f15787878281811061065057610650611b1e565b905060200201602081019061066591906118fb565b6001600160a01b038181166000818152600460208181526040808420958d168452600186019091529182902054845492516370a0823160e01b81523092810192909252949950929368056bc75e2d63100000939092906370a082319060240160206040518083038186803b1580156106dc57600080fd5b505afa1580156106f0573d6000803e3d6000fd5b505050506040513d601f19601f820116820180604052508101906107149190611ad7565b61071e9190611b06565b6107289190611b34565b6107329190611b53565b6001600160a01b0388166000908152600283016020526040902054909550935061075c8486611b75565b92508385116107ad5760405162461bcd60e51b815260206004820152601d60248201527f53706c69747465723a206e6f7468696e6720746f20776974686472617700000060448201526064016104af565b6001600160a01b0387166000908152600282016020526040812080548592906107d7908490611b06565b90915550508054839082906000906107f0908490611b06565b90915550506040517fa9059cbb0000000000000000000000000000000000000000000000000000000081526001600160a01b0388811660048301526024820185905287169063a9059cbb90604401602060405180830381600087803b15801561085857600080fd5b505af115801561086c573d6000803e3d6000fd5b505050506040513d601f19601f820116820180604052508101906108909190611b8c565b50866001600160a01b0316866001600160a01b03167f9b1bfa7fa9ee420a16e124f794c35ac9f90472acc99140eb2f6447c714cad8eb856040516108d691815260200190565b60405180910390a350806108e981611bae565b915050610636565b5050505050505050565b610906600033610308565b6109785760405162461bcd60e51b815260206004820152603a60248201527f53706c69747465723a206d75737420686176652044454641554c545f41444d4960448201527f4e5f524f4c4520746f207365742070726f746f636f6c2066656500000000000060648201526084016104af565b68056bc75e2d6310000081106109f65760405162461bcd60e51b815260206004820152602f60248201527f53706c69747465723a2070726f746f636f6c20666565206d757374206265206960448201527f6e666572696f7220746f2031303025000000000000000000000000000000000060648201526084016104af565b61053d81611303565b6000828152600160205260408120610a179083611338565b9392505050565b600081815260016020526040812061043090611344565b610571828261134e565b6001600160a01b0385166000908152600460205260408120610a817fd1f21ec03a6eb050fba156f5316dad461735df521fb446dd42c5a4728e9c70fe33610308565b610af35760405162461bcd60e51b815260206004820152602d60248201527f53706c69747465723a206d75737420686176652052454749535445525f524f4c60448201527f4520746f2072656769737465720000000000000000000000000000000000000060648201526084016104af565b848314610b685760405162461bcd60e51b815260206004820152603260248201527f53706c69747465723a2062656e6566696369617269657320616e64207368617260448201527f6573206c656e677468206d69736d61746368000000000000000000000000000060648201526084016104af565b6003546000908190815b86811015610cd457878782818110610b8c57610b8c611b1e565b90506020020135925060006001600160a01b03168a8a83818110610bb257610bb2611b1e565b9050602002016020810190610bc791906118fb565b6001600160a01b03161415610c445760405162461bcd60e51b815260206004820152603060248201527f53706c69747465723a2062656e65666963696172792063616e6e6f742062652060448201527f746865207a65726f20616464726573730000000000000000000000000000000060648201526084016104af565b82610cb65760405162461bcd60e51b8152602060048201526024808201527f53706c69747465723a2073686172652063616e6e6f7420626520776f7274682060448201527f7a65726f0000000000000000000000000000000000000000000000000000000060648201526084016104af565b610cc08385611b06565b935080610ccc81611bae565b915050610b72565b50610cdf8184611b06565b925068056bc75e2d631000008310610d5f5760405162461bcd60e51b815260206004820152603360248201527f53706c69747465723a20746f74616c20616c6c6f636174696f6e206d7573742060448201527f626520696e666572696f7220746f20313030250000000000000000000000000060648201526084016104af565b8215610e475760008060005b8a811015610e13578568056bc75e2d631000008b8b84818110610d9057610d90611b1e565b90506020020135610da19190611b34565b610dab9190611b53565b9250828760010160008e8e85818110610dc657610dc6611b1e565b9050602002016020810190610ddb91906118fb565b6001600160a01b03168152602081019190915260400160002055610dff8383611b06565b915080610e0b81611bae565b915050610d6b565b50610e278168056bc75e2d63100000611b75565b6002546001600160a01b0316600090815260018801602052604090205550505b896001600160a01b03167fb08c7b392055c63c0d654c6c6d3d34befd2de7b7cc27fbd79053b17365e653f38a8a8a8a8689604051610e8a96959493929190611bc9565b60405180910390a2509098975050505050505050565b6001600160a01b03828116600081815260046020818152604080842095871684526001860190915280832054855491516370a0823160e01b81523093810193909352929368056bc75e2d6310000093926370a082319060240160206040518083038186803b158015610f1157600080fd5b505afa158015610f25573d6000803e3d6000fd5b505050506040513d601f19601f82011682018060405250810190610f499190611ad7565b610f539190611b06565b610f5d9190611b34565b610f679190611b53565b6001600160a01b0384166000908152600284016020526040812054919250610f8f8284611b75565b9050818311610fe05760405162461bcd60e51b815260206004820152601d60248201527f53706c69747465723a206e6f7468696e6720746f20776974686472617700000060448201526064016104af565b6001600160a01b03851660009081526002850160205260408120805483929061100a908490611b06565b9091555050835481908590600090611023908490611b06565b90915550506040517fa9059cbb0000000000000000000000000000000000000000000000000000000081526001600160a01b0386811660048301526024820183905287169063a9059cbb90604401602060405180830381600087803b15801561108b57600080fd5b505af115801561109f573d6000803e3d6000fd5b505050506040513d601f19601f820116820180604052508101906110c39190611b8c565b50846001600160a01b0316866001600160a01b03167f9b1bfa7fa9ee420a16e124f794c35ac9f90472acc99140eb2f6447c714cad8eb8360405161110991815260200190565b60405180910390a3505050505050565b6111238282611374565b5050565b6000610a17836001600160a01b038416611412565b60007fffffffff0000000000000000000000000000000000000000000000000000000082167f7965db0b00000000000000000000000000000000000000000000000000000000148061043057507f01ffc9a7000000000000000000000000000000000000000000000000000000007fffffffff00000000000000000000000000000000000000000000000000000000831614610430565b600280547fffffffffffffffffffffffff0000000000000000000000000000000000000000166001600160a01b0383169081179091556040519081527f10f5824683d64a0712038f2244e046b174a1cc57fbb8556bfda5ffb261244067906020015b60405180910390a150565b60008281526020819052604090206001015461125c8133611461565b6105628383611374565b6001600160a01b03811633146112e45760405162461bcd60e51b815260206004820152602f60248201527f416363657373436f6e74726f6c3a2063616e206f6e6c792072656e6f756e636560448201527f20726f6c657320666f722073656c66000000000000000000000000000000000060648201526084016104af565b61112382826114df565b6000610a17836001600160a01b03841661155e565b60038190556040518181527fdc0410a296e1e33943a772020d333d5f99319d7fcad932a484c53889f7aaa2b190602001611235565b6000610a178383611651565b6000610430825490565b60008281526020819052604090206001015461136a8133611461565b61056283836114df565b6000828152602081815260408083206001600160a01b038516845290915290205460ff16611123576000828152602081815260408083206001600160a01b03851684529091529020805460ff191660011790556113ce3390565b6001600160a01b0316816001600160a01b0316837f2f8788117e7eff1d82e926ec794901d17c78024a50270940304540a733656f0d60405160405180910390a45050565b600081815260018301602052604081205461145957508154600181810184556000848152602080822090930184905584548482528286019093526040902091909155610430565b506000610430565b6000828152602081815260408083206001600160a01b038516845290915290205460ff166111235761149d816001600160a01b0316601461167b565b6114a883602061167b565b6040516020016114b9929190611ca1565b60408051601f198184030181529082905262461bcd60e51b82526104af91600401611d22565b6000828152602081815260408083206001600160a01b038516845290915290205460ff1615611123576000828152602081815260408083206001600160a01b0385168085529252808320805460ff1916905551339285917ff6391f5c32d9c69d2a47ea670b442974b53935d1edc7fd64eb21e047a839171b9190a45050565b60008181526001830160205260408120548015611647576000611582600183611b75565b855490915060009061159690600190611b75565b90508181146115fb5760008660000182815481106115b6576115b6611b1e565b90600052602060002001549050808760000184815481106115d9576115d9611b1e565b6000918252602080832090910192909255918252600188019052604090208390555b855486908061160c5761160c611d55565b600190038181906000526020600020016000905590558560010160008681526020019081526020016000206000905560019350505050610430565b6000915050610430565b600082600001828154811061166857611668611b1e565b9060005260206000200154905092915050565b6060600061168a836002611b34565b611695906002611b06565b67ffffffffffffffff8111156116ad576116ad611d6b565b6040519080825280601f01601f1916602001820160405280156116d7576020820181803683370190505b5090507f30000000000000000000000000000000000000000000000000000000000000008160008151811061170e5761170e611b1e565b60200101907effffffffffffffffffffffffffffffffffffffffffffffffffffffffffffff1916908160001a9053507f78000000000000000000000000000000000000000000000000000000000000008160018151811061177157611771611b1e565b60200101907effffffffffffffffffffffffffffffffffffffffffffffffffffffffffffff1916908160001a90535060006117ad846002611b34565b6117b8906001611b06565b90505b6001811115611855577f303132333435363738396162636465660000000000000000000000000000000085600f16601081106117f9576117f9611b1e565b1a60f81b82828151811061180f5761180f611b1e565b60200101907effffffffffffffffffffffffffffffffffffffffffffffffffffffffffffff1916908160001a90535060049490941c9361184e81611d81565b90506117bb565b508315610a175760405162461bcd60e51b815260206004820181905260248201527f537472696e67733a20686578206c656e67746820696e73756666696369656e7460448201526064016104af565b6000602082840312156118b657600080fd5b81357fffffffff0000000000000000000000000000000000000000000000000000000081168114610a1757600080fd5b6001600160a01b038116811461053d57600080fd5b60006020828403121561190d57600080fd5b8135610a17816118e6565b6000806040838503121561192b57600080fd5b8235611936816118e6565b91506020830135611946816118e6565b809150509250929050565b60006020828403121561196357600080fd5b5035919050565b6000806040838503121561197d57600080fd5b823591506020830135611946816118e6565b60008083601f8401126119a157600080fd5b50813567ffffffffffffffff8111156119b957600080fd5b6020830191508360208260051b85010111156119d457600080fd5b9250929050565b6000806000604084860312156119f057600080fd5b833567ffffffffffffffff811115611a0757600080fd5b611a138682870161198f565b9094509250506020840135611a27816118e6565b809150509250925092565b60008060408385031215611a4557600080fd5b50508035926020909101359150565b600080600080600060608688031215611a6c57600080fd5b8535611a77816118e6565b9450602086013567ffffffffffffffff80821115611a9457600080fd5b611aa089838a0161198f565b90965094506040880135915080821115611ab957600080fd5b50611ac68882890161198f565b969995985093965092949392505050565b600060208284031215611ae957600080fd5b5051919050565b634e487b7160e01b600052601160045260246000fd5b60008219821115611b1957611b19611af0565b500190565b634e487b7160e01b600052603260045260246000fd5b6000816000190483118215151615611b4e57611b4e611af0565b500290565b600082611b7057634e487b7160e01b600052601260045260246000fd5b500490565b600082821015611b8757611b87611af0565b500390565b600060208284031215611b9e57600080fd5b81518015158114610a1757600080fd5b6000600019821415611bc257611bc2611af0565b5060010190565b6080808252810186905260008760a08301825b89811015611c0c578235611bef816118e6565b6001600160a01b0316825260209283019290910190600101611bdc565b5083810360208501528681527f07ffffffffffffffffffffffffffffffffffffffffffffffffffffffffffffff871115611c4557600080fd5b8660051b9150818860208301376000910160200190815260408301949094525060600152949350505050565b60005b83811015611c8c578181015183820152602001611c74565b83811115611c9b576000848401525b50505050565b7f416363657373436f6e74726f6c3a206163636f756e7420000000000000000000815260008351611cd9816017850160208801611c71565b7f206973206d697373696e6720726f6c65200000000000000000000000000000006017918401918201528351611d16816028840160208801611c71565b01602801949350505050565b6020815260008251806020840152611d41816040850160208701611c71565b601f01601f19169190910160400192915050565b634e487b7160e01b600052603160045260246000fd5b634e487b7160e01b600052604160045260246000fd5b600081611d9057611d90611af0565b50600019019056fea26469706673582212202e1ed22af372298a8ad2458907646888048535059c33e323fdfff9cb756b9d1c64736f6c63430008090033",
  "devdoc": {
    "kind": "dev",
    "methods": {
      "getRoleAdmin(bytes32)": {
        "details": "Returns the admin role that controls `role`. See {grantRole} and {revokeRole}. To change a role's admin, use {_setRoleAdmin}."
      },
      "getRoleMember(bytes32,uint256)": {
        "details": "Returns one of the accounts that have `role`. `index` must be a value between 0 and {getRoleMemberCount}, non-inclusive. Role bearers are not sorted in any particular way, and their ordering may change at any point. WARNING: When using {getRoleMember} and {getRoleMemberCount}, make sure you perform all queries on the same block. See the following https://forum.openzeppelin.com/t/iterating-over-elements-on-enumerableset-in-openzeppelin-contracts/2296[forum post] for more information."
      },
      "getRoleMemberCount(bytes32)": {
        "details": "Returns the number of accounts that have `role`. Can be used together with {getRoleMember} to enumerate all bearers of a role."
      },
      "grantRole(bytes32,address)": {
        "details": "Overload {grantRole} to track enumerable memberships"
      },
      "hasRole(bytes32,address)": {
        "details": "Returns `true` if `account` has been granted `role`."
      },
      "register(address,address[],uint256[])": {
        "details": "- We do not check neither that `sERC20` is unregistered nor that it actually is an sERC20 to save gas.      - Indeed, only trusted templates, registering sERC20s out of actual NFT fractionalizations, are supposed to be granted REGISTER_ROLE.      - Other parameters are checked because they are passed by users and forwarded unchecked by templates.",
        "params": {
          "beneficiaries": "The addresses between which to split the received sERC20s.",
          "sERC20": "The sERC20 whose received tokens are to split between beneficiaries.",
          "shares": "The respective shares of the beneficiaries [expressed with 1e18 decimals]."
        }
      },
      "renounceRole(bytes32,address)": {
        "details": "Overload {renounceRole} to track enumerable memberships"
      },
      "revokeRole(bytes32,address)": {
        "details": "Overload {revokeRole} to track enumerable memberships"
      },
      "setBank(address)": {
        "params": {
          "bank_": "The bank to set."
        }
      },
      "setProtocolFee(uint256)": {
        "params": {
          "fee_": "The fee to set [expressed with 1e18 decimals]."
        }
      },
      "supportsInterface(bytes4)": {
        "details": "See {IERC165-supportsInterface}."
      },
      "withdraw(address,address)": {
        "details": "- We do not check neither that `sERC20` is registered nor that split.shares[beneficiary] != 0.      - Indeed, the contract already reverts in such a situation for due == withdrawn == 0.",
        "params": {
          "beneficiary": "The beneficiary from whom to withdraw the due sERC20 tokens.",
          "sERC20": "The sERC20 to withdraw."
        }
      },
      "withdrawBatch(address[],address)": {
        "details": "- The same security remarks as above apply, plus:      - It is up to the user not to include the same sERC20 twice in `sERC20s` - otherwise the transaction reverts.      - We do not check the sERC20s array length as the gas limit can rise in the future.      - Therefore, it is up to the user to make sure he does not run out of gas.",
        "params": {
          "beneficiary": "The beneficiary from whom to withdraw the due sERC20s tokens.",
          "sERC20s": "The sERC20s to withdraw."
        }
      }
    },
    "title": "Splitter",
    "version": 1
  },
  "userdoc": {
    "kind": "user",
    "methods": {
      "bank()": {
        "notice": "Return the splitter's bank."
      },
      "protocolFee()": {
        "notice": "Return the splitter's fee."
      },
      "register(address,address[],uint256[])": {
        "notice": "Register an `sERC20` whose received tokens are to split between `beneficiaries` with respect to `shares`."
      },
      "setBank(address)": {
        "notice": "Set the splitter's bank."
      },
      "setProtocolFee(uint256)": {
        "notice": "Set the splitter's fee."
      },
      "shareOf(address,address)": {
        "notice": "Return the share of `beneficiary` over the received `sERC20` tokens [expressed with 1e18 decimals]."
      },
      "stateOf(address)": {
        "notice": "Return the amount of `sERC20` tokens received and whithdrawn."
      },
      "withdraw(address,address)": {
        "notice": "Withdraw `sERC20` tokens due to `beneficiary`."
      },
      "withdrawBatch(address[],address)": {
        "notice": "Batch withdraw `sERC20s` tokens due to `beneficiary`."
      },
      "withdrawnBy(address,address)": {
        "notice": "Return the amount of `sERC20` tokens already withdrawn by `beneficiary`."
      }
    },
    "notice": "Splits received sERC20s between registered beneficiaries.",
    "version": 1
  },
  "storageLayout": {
    "storage": [
      {
        "astId": 3162,
        "contract": "contracts/utils/Splitter.sol:Splitter",
        "label": "_roles",
        "offset": 0,
        "slot": "0",
        "type": "t_mapping(t_bytes32,t_struct(RoleData)3157_storage)"
      },
      {
        "astId": 3463,
        "contract": "contracts/utils/Splitter.sol:Splitter",
        "label": "_roleMembers",
        "offset": 0,
        "slot": "1",
        "type": "t_mapping(t_bytes32,t_struct(AddressSet)6836_storage)"
      },
      {
        "astId": 13364,
        "contract": "contracts/utils/Splitter.sol:Splitter",
        "label": "_bank",
        "offset": 0,
        "slot": "2",
        "type": "t_address"
      },
      {
        "astId": 13366,
        "contract": "contracts/utils/Splitter.sol:Splitter",
        "label": "_protocolFee",
        "offset": 0,
        "slot": "3",
        "type": "t_uint256"
      },
      {
        "astId": 13372,
        "contract": "contracts/utils/Splitter.sol:Splitter",
        "label": "_splits",
        "offset": 0,
        "slot": "4",
        "type": "t_mapping(t_contract(sIERC20)13213,t_struct(Split)13227_storage)"
      }
    ],
    "types": {
      "t_address": {
        "encoding": "inplace",
        "label": "address",
        "numberOfBytes": "20"
      },
      "t_array(t_bytes32)dyn_storage": {
        "base": "t_bytes32",
        "encoding": "dynamic_array",
        "label": "bytes32[]",
        "numberOfBytes": "32"
      },
      "t_bool": {
        "encoding": "inplace",
        "label": "bool",
        "numberOfBytes": "1"
      },
      "t_bytes32": {
        "encoding": "inplace",
        "label": "bytes32",
        "numberOfBytes": "32"
      },
      "t_contract(sIERC20)13213": {
        "encoding": "inplace",
        "label": "contract sIERC20",
        "numberOfBytes": "20"
      },
      "t_mapping(t_address,t_bool)": {
        "encoding": "mapping",
        "key": "t_address",
        "label": "mapping(address => bool)",
        "numberOfBytes": "32",
        "value": "t_bool"
      },
      "t_mapping(t_address,t_uint256)": {
        "encoding": "mapping",
        "key": "t_address",
        "label": "mapping(address => uint256)",
        "numberOfBytes": "32",
        "value": "t_uint256"
      },
      "t_mapping(t_bytes32,t_struct(AddressSet)6836_storage)": {
        "encoding": "mapping",
        "key": "t_bytes32",
        "label": "mapping(bytes32 => struct EnumerableSet.AddressSet)",
        "numberOfBytes": "32",
        "value": "t_struct(AddressSet)6836_storage"
      },
      "t_mapping(t_bytes32,t_struct(RoleData)3157_storage)": {
        "encoding": "mapping",
        "key": "t_bytes32",
        "label": "mapping(bytes32 => struct AccessControl.RoleData)",
        "numberOfBytes": "32",
        "value": "t_struct(RoleData)3157_storage"
      },
      "t_mapping(t_bytes32,t_uint256)": {
        "encoding": "mapping",
        "key": "t_bytes32",
        "label": "mapping(bytes32 => uint256)",
        "numberOfBytes": "32",
        "value": "t_uint256"
      },
      "t_mapping(t_contract(sIERC20)13213,t_struct(Split)13227_storage)": {
        "encoding": "mapping",
        "key": "t_contract(sIERC20)13213",
        "label": "mapping(contract sIERC20 => struct ISplitter.Split)",
        "numberOfBytes": "32",
        "value": "t_struct(Split)13227_storage"
      },
      "t_struct(AddressSet)6836_storage": {
        "encoding": "inplace",
        "label": "struct EnumerableSet.AddressSet",
        "members": [
          {
            "astId": 6835,
            "contract": "contracts/utils/Splitter.sol:Splitter",
            "label": "_inner",
            "offset": 0,
            "slot": "0",
            "type": "t_struct(Set)6535_storage"
          }
        ],
        "numberOfBytes": "64"
      },
      "t_struct(RoleData)3157_storage": {
        "encoding": "inplace",
        "label": "struct AccessControl.RoleData",
        "members": [
          {
            "astId": 3154,
            "contract": "contracts/utils/Splitter.sol:Splitter",
            "label": "members",
            "offset": 0,
            "slot": "0",
            "type": "t_mapping(t_address,t_bool)"
          },
          {
            "astId": 3156,
            "contract": "contracts/utils/Splitter.sol:Splitter",
            "label": "adminRole",
            "offset": 0,
            "slot": "1",
            "type": "t_bytes32"
          }
        ],
        "numberOfBytes": "64"
      },
      "t_struct(Set)6535_storage": {
        "encoding": "inplace",
        "label": "struct EnumerableSet.Set",
        "members": [
          {
            "astId": 6530,
            "contract": "contracts/utils/Splitter.sol:Splitter",
            "label": "_values",
            "offset": 0,
            "slot": "0",
            "type": "t_array(t_bytes32)dyn_storage"
          },
          {
            "astId": 6534,
            "contract": "contracts/utils/Splitter.sol:Splitter",
            "label": "_indexes",
            "offset": 0,
            "slot": "1",
            "type": "t_mapping(t_bytes32,t_uint256)"
          }
        ],
        "numberOfBytes": "64"
      },
      "t_struct(Split)13227_storage": {
        "encoding": "inplace",
        "label": "struct ISplitter.Split",
        "members": [
          {
            "astId": 13218,
            "contract": "contracts/utils/Splitter.sol:Splitter",
            "label": "totalWithdrawn",
            "offset": 0,
            "slot": "0",
            "type": "t_uint256"
          },
          {
            "astId": 13222,
            "contract": "contracts/utils/Splitter.sol:Splitter",
            "label": "shares",
            "offset": 0,
            "slot": "1",
            "type": "t_mapping(t_address,t_uint256)"
          },
          {
            "astId": 13226,
            "contract": "contracts/utils/Splitter.sol:Splitter",
            "label": "withdrawn",
            "offset": 0,
            "slot": "2",
            "type": "t_mapping(t_address,t_uint256)"
          }
        ],
        "numberOfBytes": "96"
      },
      "t_uint256": {
        "encoding": "inplace",
        "label": "uint256",
        "numberOfBytes": "32"
      }
    }
  }
}