{
  "address": "0xbf12B6f6aC465ede4bd33AA7831AcBbE0158E0cD",
  "abi": [
    {
      "inputs": [
        {
          "internalType": "address",
          "name": "sERC20Base_",
          "type": "address"
        },
        {
          "internalType": "string",
          "name": "unavailableURI_",
          "type": "string"
        },
        {
          "internalType": "string",
          "name": "unlockedURI_",
          "type": "string"
        }
      ],
      "stateMutability": "nonpayable",
      "type": "constructor"
    },
    {
      "anonymous": false,
      "inputs": [
        {
          "indexed": true,
          "internalType": "address",
          "name": "account",
          "type": "address"
        },
        {
          "indexed": true,
          "internalType": "address",
          "name": "operator",
          "type": "address"
        },
        {
          "indexed": false,
          "internalType": "bool",
          "name": "approved",
          "type": "bool"
        }
      ],
      "name": "ApprovalForAll",
      "type": "event"
    },
    {
      "anonymous": false,
      "inputs": [
        {
          "indexed": true,
          "internalType": "contract IERC721",
          "name": "collection",
          "type": "address"
        },
        {
          "indexed": true,
          "internalType": "uint256",
          "name": "tokenId",
          "type": "uint256"
        },
        {
          "indexed": true,
          "internalType": "uint256",
          "name": "id",
          "type": "uint256"
        },
        {
          "indexed": false,
          "internalType": "contract sIERC20",
          "name": "sERC20",
          "type": "address"
        },
        {
          "indexed": false,
          "internalType": "address",
          "name": "broker",
          "type": "address"
        }
      ],
      "name": "Fractionalize",
      "type": "event"
    },
    {
      "anonymous": false,
      "inputs": [
        {
          "indexed": true,
          "internalType": "bytes32",
          "name": "role",
          "type": "bytes32"
        },
        {
          "indexed": true,
          "internalType": "bytes32",
          "name": "previousAdminRole",
          "type": "bytes32"
        },
        {
          "indexed": true,
          "internalType": "bytes32",
          "name": "newAdminRole",
          "type": "bytes32"
        }
      ],
      "name": "RoleAdminChanged",
      "type": "event"
    },
    {
      "anonymous": false,
      "inputs": [
        {
          "indexed": true,
          "internalType": "bytes32",
          "name": "role",
          "type": "bytes32"
        },
        {
          "indexed": true,
          "internalType": "address",
          "name": "account",
          "type": "address"
        },
        {
          "indexed": true,
          "internalType": "address",
          "name": "sender",
          "type": "address"
        }
      ],
      "name": "RoleGranted",
      "type": "event"
    },
    {
      "anonymous": false,
      "inputs": [
        {
          "indexed": true,
          "internalType": "bytes32",
          "name": "role",
          "type": "bytes32"
        },
        {
          "indexed": true,
          "internalType": "address",
          "name": "account",
          "type": "address"
        },
        {
          "indexed": true,
          "internalType": "address",
          "name": "sender",
          "type": "address"
        }
      ],
      "name": "RoleRevoked",
      "type": "event"
    },
    {
      "anonymous": false,
      "inputs": [
        {
          "indexed": true,
          "internalType": "address",
          "name": "operator",
          "type": "address"
        },
        {
          "indexed": true,
          "internalType": "address",
          "name": "from",
          "type": "address"
        },
        {
          "indexed": true,
          "internalType": "address",
          "name": "to",
          "type": "address"
        },
        {
          "indexed": false,
          "internalType": "uint256[]",
          "name": "ids",
          "type": "uint256[]"
        },
        {
          "indexed": false,
          "internalType": "uint256[]",
          "name": "values",
          "type": "uint256[]"
        }
      ],
      "name": "TransferBatch",
      "type": "event"
    },
    {
      "anonymous": false,
      "inputs": [
        {
          "indexed": true,
          "internalType": "address",
          "name": "operator",
          "type": "address"
        },
        {
          "indexed": true,
          "internalType": "address",
          "name": "from",
          "type": "address"
        },
        {
          "indexed": true,
          "internalType": "address",
          "name": "to",
          "type": "address"
        },
        {
          "indexed": false,
          "internalType": "uint256",
          "name": "id",
          "type": "uint256"
        },
        {
          "indexed": false,
          "internalType": "uint256",
          "name": "value",
          "type": "uint256"
        }
      ],
      "name": "TransferSingle",
      "type": "event"
    },
    {
      "anonymous": false,
      "inputs": [
        {
          "indexed": false,
          "internalType": "string",
          "name": "value",
          "type": "string"
        },
        {
          "indexed": true,
          "internalType": "uint256",
          "name": "id",
          "type": "uint256"
        }
      ],
      "name": "URI",
      "type": "event"
    },
    {
      "anonymous": false,
      "inputs": [
        {
          "indexed": true,
          "internalType": "uint256",
          "name": "id",
          "type": "uint256"
        },
        {
          "indexed": false,
          "internalType": "address",
          "name": "recipient",
          "type": "address"
        }
      ],
      "name": "Unlock",
      "type": "event"
    },
    {
      "inputs": [],
      "name": "DEFAULT_ADMIN_ROLE",
      "outputs": [
        {
          "internalType": "bytes32",
          "name": "",
          "type": "bytes32"
        }
      ],
      "stateMutability": "view",
      "type": "function"
    },
    {
      "inputs": [],
      "name": "DERRIDA",
      "outputs": [
        {
          "internalType": "bytes32",
          "name": "",
          "type": "bytes32"
        }
      ],
      "stateMutability": "view",
      "type": "function"
    },
    {
      "inputs": [],
      "name": "FRACTIONALIZE_ROLE",
      "outputs": [
        {
          "internalType": "bytes32",
          "name": "",
          "type": "bytes32"
        }
      ],
      "stateMutability": "view",
      "type": "function"
    },
    {
      "inputs": [
        {
          "internalType": "address",
          "name": "account",
          "type": "address"
        },
        {
          "internalType": "uint256",
          "name": "id",
          "type": "uint256"
        }
      ],
      "name": "balanceOf",
      "outputs": [
        {
          "internalType": "uint256",
          "name": "",
          "type": "uint256"
        }
      ],
      "stateMutability": "view",
      "type": "function"
    },
    {
      "inputs": [
        {
          "internalType": "address[]",
          "name": "accounts",
          "type": "address[]"
        },
        {
          "internalType": "uint256[]",
          "name": "ids",
          "type": "uint256[]"
        }
      ],
      "name": "balanceOfBatch",
      "outputs": [
        {
          "internalType": "uint256[]",
          "name": "",
          "type": "uint256[]"
        }
      ],
      "stateMutability": "view",
      "type": "function"
    },
    {
      "inputs": [
        {
          "internalType": "contract IERC721",
          "name": "collection",
          "type": "address"
        },
        {
          "internalType": "uint256",
          "name": "tokenId",
          "type": "uint256"
        },
        {
          "internalType": "string",
          "name": "name",
          "type": "string"
        },
        {
          "internalType": "string",
          "name": "symbol",
          "type": "string"
        },
        {
          "internalType": "uint256",
          "name": "cap",
          "type": "uint256"
        },
        {
          "internalType": "address",
          "name": "admin",
          "type": "address"
        },
        {
          "internalType": "address",
          "name": "broker",
          "type": "address"
        }
      ],
      "name": "fractionalize",
      "outputs": [
        {
          "internalType": "uint256",
          "name": "",
          "type": "uint256"
        }
      ],
      "stateMutability": "nonpayable",
      "type": "function"
    },
    {
      "inputs": [
        {
          "internalType": "bytes32",
          "name": "role",
          "type": "bytes32"
        }
      ],
      "name": "getRoleAdmin",
      "outputs": [
        {
          "internalType": "bytes32",
          "name": "",
          "type": "bytes32"
        }
      ],
      "stateMutability": "view",
      "type": "function"
    },
    {
      "inputs": [
        {
          "internalType": "bytes32",
          "name": "role",
          "type": "bytes32"
        },
        {
          "internalType": "uint256",
          "name": "index",
          "type": "uint256"
        }
      ],
      "name": "getRoleMember",
      "outputs": [
        {
          "internalType": "address",
          "name": "",
          "type": "address"
        }
      ],
      "stateMutability": "view",
      "type": "function"
    },
    {
      "inputs": [
        {
          "internalType": "bytes32",
          "name": "role",
          "type": "bytes32"
        }
      ],
      "name": "getRoleMemberCount",
      "outputs": [
        {
          "internalType": "uint256",
          "name": "",
          "type": "uint256"
        }
      ],
      "stateMutability": "view",
      "type": "function"
    },
    {
      "inputs": [
        {
          "internalType": "bytes32",
          "name": "role",
          "type": "bytes32"
        },
        {
          "internalType": "address",
          "name": "account",
          "type": "address"
        }
      ],
      "name": "grantRole",
      "outputs": [],
      "stateMutability": "nonpayable",
      "type": "function"
    },
    {
      "inputs": [
        {
          "internalType": "bytes32",
          "name": "role",
          "type": "bytes32"
        },
        {
          "internalType": "address",
          "name": "account",
          "type": "address"
        }
      ],
      "name": "hasRole",
      "outputs": [
        {
          "internalType": "bool",
          "name": "",
          "type": "bool"
        }
      ],
      "stateMutability": "view",
      "type": "function"
    },
    {
      "inputs": [
        {
          "internalType": "address",
          "name": "account",
          "type": "address"
        },
        {
          "internalType": "address",
          "name": "operator",
          "type": "address"
        }
      ],
      "name": "isApprovedForAll",
      "outputs": [
        {
          "internalType": "bool",
          "name": "",
          "type": "bool"
        }
      ],
      "stateMutability": "view",
      "type": "function"
    },
    {
      "inputs": [
        {
          "internalType": "contract IERC721",
          "name": "collection",
          "type": "address"
        },
        {
          "internalType": "uint256",
          "name": "tokenId",
          "type": "uint256"
        }
      ],
      "name": "isLocked",
      "outputs": [
        {
          "internalType": "bool",
          "name": "",
          "type": "bool"
        }
      ],
      "stateMutability": "view",
      "type": "function"
    },
    {
      "inputs": [
        {
          "internalType": "address",
          "name": "from",
          "type": "address"
        },
        {
          "internalType": "address",
          "name": "to",
          "type": "address"
        },
        {
          "internalType": "uint256",
          "name": "amount",
          "type": "uint256"
        }
      ],
      "name": "onERC20Transferred",
      "outputs": [],
      "stateMutability": "nonpayable",
      "type": "function"
    },
    {
      "inputs": [
        {
          "internalType": "address",
          "name": "",
          "type": "address"
        },
        {
          "internalType": "address",
          "name": "",
          "type": "address"
        },
        {
          "internalType": "uint256",
          "name": "tokenId",
          "type": "uint256"
        },
        {
          "internalType": "bytes",
          "name": "data",
          "type": "bytes"
        }
      ],
      "name": "onERC721Received",
      "outputs": [
        {
          "internalType": "bytes4",
          "name": "",
          "type": "bytes4"
        }
      ],
      "stateMutability": "nonpayable",
      "type": "function"
    },
    {
      "inputs": [
        {
          "internalType": "bytes32",
          "name": "role",
          "type": "bytes32"
        },
        {
          "internalType": "address",
          "name": "account",
          "type": "address"
        }
      ],
      "name": "renounceRole",
      "outputs": [],
      "stateMutability": "nonpayable",
      "type": "function"
    },
    {
      "inputs": [
        {
          "internalType": "bytes32",
          "name": "role",
          "type": "bytes32"
        },
        {
          "internalType": "address",
          "name": "account",
          "type": "address"
        }
      ],
      "name": "revokeRole",
      "outputs": [],
      "stateMutability": "nonpayable",
      "type": "function"
    },
    {
      "inputs": [],
      "name": "sERC20Base",
      "outputs": [
        {
          "internalType": "address",
          "name": "",
          "type": "address"
        }
      ],
      "stateMutability": "view",
      "type": "function"
    },
    {
      "inputs": [
        {
          "internalType": "uint256",
          "name": "id",
          "type": "uint256"
        }
      ],
      "name": "sERC20Of",
      "outputs": [
        {
          "internalType": "contract sIERC20",
          "name": "",
          "type": "address"
        }
      ],
      "stateMutability": "pure",
      "type": "function"
    },
    {
      "inputs": [
        {
          "internalType": "address",
          "name": "from",
          "type": "address"
        },
        {
          "internalType": "address",
          "name": "to",
          "type": "address"
        },
        {
          "internalType": "uint256[]",
          "name": "ids",
          "type": "uint256[]"
        },
        {
          "internalType": "uint256[]",
          "name": "amounts",
          "type": "uint256[]"
        },
        {
          "internalType": "bytes",
          "name": "data",
          "type": "bytes"
        }
      ],
      "name": "safeBatchTransferFrom",
      "outputs": [],
      "stateMutability": "nonpayable",
      "type": "function"
    },
    {
      "inputs": [
        {
          "internalType": "address",
          "name": "from",
          "type": "address"
        },
        {
          "internalType": "address",
          "name": "to",
          "type": "address"
        },
        {
          "internalType": "uint256",
          "name": "id",
          "type": "uint256"
        },
        {
          "internalType": "uint256",
          "name": "amount",
          "type": "uint256"
        },
        {
          "internalType": "bytes",
          "name": "data",
          "type": "bytes"
        }
      ],
      "name": "safeTransferFrom",
      "outputs": [],
      "stateMutability": "nonpayable",
      "type": "function"
    },
    {
      "inputs": [
        {
          "internalType": "address",
          "name": "operator",
          "type": "address"
        },
        {
          "internalType": "bool",
          "name": "approved",
          "type": "bool"
        }
      ],
      "name": "setApprovalForAll",
      "outputs": [],
      "stateMutability": "nonpayable",
      "type": "function"
    },
    {
      "inputs": [
        {
          "internalType": "string",
          "name": "unavailableURI_",
          "type": "string"
        }
      ],
      "name": "setUnavailableURI",
      "outputs": [],
      "stateMutability": "nonpayable",
      "type": "function"
    },
    {
      "inputs": [
        {
          "internalType": "string",
          "name": "unlockedURI_",
          "type": "string"
        }
      ],
      "name": "setUnlockedURI",
      "outputs": [],
      "stateMutability": "nonpayable",
      "type": "function"
    },
    {
      "inputs": [
        {
          "internalType": "contract sIERC20",
          "name": "sERC20",
          "type": "address"
        }
      ],
      "name": "spectreOf",
      "outputs": [
        {
          "components": [
            {
              "internalType": "enum Spectres.State",
              "name": "state",
              "type": "uint8"
            },
            {
              "internalType": "contract IERC721",
              "name": "collection",
              "type": "address"
            },
            {
              "internalType": "uint256",
              "name": "tokenId",
              "type": "uint256"
            },
            {
              "internalType": "address",
              "name": "broker",
              "type": "address"
            }
          ],
          "internalType": "struct Spectres.Spectre",
          "name": "",
          "type": "tuple"
        }
      ],
      "stateMutability": "view",
      "type": "function"
    },
    {
      "inputs": [
        {
          "internalType": "uint256",
          "name": "id",
          "type": "uint256"
        }
      ],
      "name": "spectreOf",
      "outputs": [
        {
          "components": [
            {
              "internalType": "enum Spectres.State",
              "name": "state",
              "type": "uint8"
            },
            {
              "internalType": "contract IERC721",
              "name": "collection",
              "type": "address"
            },
            {
              "internalType": "uint256",
              "name": "tokenId",
              "type": "uint256"
            },
            {
              "internalType": "address",
              "name": "broker",
              "type": "address"
            }
          ],
          "internalType": "struct Spectres.Spectre",
          "name": "",
          "type": "tuple"
        }
      ],
      "stateMutability": "view",
      "type": "function"
    },
    {
      "inputs": [
        {
          "internalType": "bytes4",
          "name": "interfaceId",
          "type": "bytes4"
        }
      ],
      "name": "supportsInterface",
      "outputs": [
        {
          "internalType": "bool",
          "name": "",
          "type": "bool"
        }
      ],
      "stateMutability": "view",
      "type": "function"
    },
    {
      "inputs": [
        {
          "internalType": "contract IERC721",
          "name": "collection",
          "type": "address"
        },
        {
          "internalType": "uint256",
          "name": "tokenId",
          "type": "uint256"
        }
      ],
      "name": "tokenTypeOf",
      "outputs": [
        {
          "internalType": "uint256",
          "name": "",
          "type": "uint256"
        }
      ],
      "stateMutability": "view",
      "type": "function"
    },
    {
      "inputs": [],
      "name": "unavailableURI",
      "outputs": [
        {
          "internalType": "string",
          "name": "",
          "type": "string"
        }
      ],
      "stateMutability": "view",
      "type": "function"
    },
    {
      "inputs": [
        {
          "internalType": "contract sIERC20",
          "name": "sERC20",
          "type": "address"
        },
        {
          "internalType": "address",
          "name": "recipient",
          "type": "address"
        },
        {
          "internalType": "bytes",
          "name": "data",
          "type": "bytes"
        }
      ],
      "name": "unlock",
      "outputs": [],
      "stateMutability": "nonpayable",
      "type": "function"
    },
    {
      "inputs": [],
      "name": "unlockedURI",
      "outputs": [
        {
          "internalType": "string",
          "name": "",
          "type": "string"
        }
      ],
      "stateMutability": "view",
      "type": "function"
    },
    {
      "inputs": [
        {
          "internalType": "uint256",
          "name": "id",
          "type": "uint256"
        }
      ],
      "name": "uri",
      "outputs": [
        {
          "internalType": "string",
          "name": "",
          "type": "string"
        }
      ],
      "stateMutability": "view",
      "type": "function"
    }
  ],
  "transactionHash": "0x257a8e9ab099dab2b685289b68447d26c7cc851078c8f76aee709140e08d21a2",
  "args": [
    "0x8A39B467375731d8a1f6d7204371dC74bde8f8c5",
    "ipfs://unavailableURI...",
    "ipfs://unlockedURI..."
  ],
  "bytecode": "0x60806040523480156200001157600080fd5b50604051620041df380380620041df8339810160408190526200003491620003da565b6001600160a01b038316620000a55760405162461bcd60e51b815260206004820152602d60248201527f5661756c743a2073455243323020626173652063616e6e6f742062652074686560448201526c207a65726f206164647265737360981b606482015260840160405180910390fd5b600280546001600160a01b0319166001600160a01b0385161790558151620000d590600390602085019062000267565b508051620000eb90600490602084019062000267565b50620000f960003362000102565b505050620004a1565b6200011982826200014560201b62001f621760201c565b60008281526001602090815260409091206200014091839062001f6c62000155821b17901c565b505050565b62000151828262000175565b5050565b60006200016c836001600160a01b03841662000215565b90505b92915050565b6000828152602081815260408083206001600160a01b038516845290915290205460ff1662000151576000828152602081815260408083206001600160a01b03851684529091529020805460ff19166001179055620001d13390565b6001600160a01b0316816001600160a01b0316837f2f8788117e7eff1d82e926ec794901d17c78024a50270940304540a733656f0d60405160405180910390a45050565b60008181526001830160205260408120546200025e575081546001818101845560008481526020808220909301849055845484825282860190935260409020919091556200016f565b5060006200016f565b828054620002759062000464565b90600052602060002090601f016020900481019282620002995760008555620002e4565b82601f10620002b457805160ff1916838001178555620002e4565b82800160010185558215620002e4579182015b82811115620002e4578251825591602001919060010190620002c7565b50620002f2929150620002f6565b5090565b5b80821115620002f25760008155600101620002f7565b634e487b7160e01b600052604160045260246000fd5b600082601f8301126200033557600080fd5b81516001600160401b03808211156200035257620003526200030d565b604051601f8301601f19908116603f011681019082821181831017156200037d576200037d6200030d565b816040528381526020925086838588010111156200039a57600080fd5b600091505b83821015620003be57858201830151818301840152908201906200039f565b83821115620003d05760008385830101525b9695505050505050565b600080600060608486031215620003f057600080fd5b83516001600160a01b03811681146200040857600080fd5b60208501519093506001600160401b03808211156200042657600080fd5b620004348783880162000323565b935060408601519150808211156200044b57600080fd5b506200045a8682870162000323565b9150509250925092565b600181811c908216806200047957607f821691505b602082108114156200049b57634e487b7160e01b600052602260045260246000fd5b50919050565b613d2e80620004b16000396000f3fe608060405234801561001057600080fd5b50600436106101ef5760003560e01c80638a9f04cf1161010f578063c8ae4ca1116100a2578063e0c9e33511610071578063e0c9e335146104e3578063e85b23e214610519578063e985e9c51461052c578063f242432a1461056857600080fd5b8063c8ae4ca114610499578063ca15c873146104aa578063d1783e34146104bd578063d547741f146104d057600080fd5b806399cca36c116100de57806399cca36c14610433578063a217fddf1461046b578063a22cb46514610473578063b4151d551461048657600080fd5b80638a9f04cf146103ab5780639010d07c146103be57806391d14854146103e9578063982958671461042057600080fd5b8063331d8e5d11610187578063506e423611610156578063506e4236146103355780635555b5f51461035c57806375d45368146103645780637b16d2a41461038b57600080fd5b8063331d8e5d146102dc57806336568abe146102ef5780633b285d03146103025780634e1273f41461031557600080fd5b806317e1c831116101c357806317e1c83114610289578063248a9ca3146102915780632eb2c2d6146102b45780632f2ff15d146102c957600080fd5b8062fdd58e146101f457806301ffc9a71461021a5780630e89341c1461023d578063150b7a021461025d575b600080fd5b6102076102023660046130ac565b61057b565b6040519081526020015b60405180910390f35b61022d6102283660046130ee565b6106cc565b6040519015158152602001610211565b61025061024b36600461310b565b610772565b6040516102119190613180565b61027061026b3660046131dc565b61091b565b6040516001600160e01b03199091168152602001610211565b610250610beb565b61020761029f36600461310b565b60009081526020819052604090206001015490565b6102c76102c2366004613294565b610c7d565b005b6102c76102d7366004613353565b610fff565b6102c76102ea366004613383565b611026565b6102c76102fd366004613353565b611195565b6102c76103103660046133e8565b6111b7565b610328610323366004613429565b6113b0565b60405161021191906134c4565b6102077fa541cf2e8e137aa2a6ee62088e1847ecf1f039943f142d77fcf83c401b25d3cf81565b6102506114fa565b6102077f1d2496c631fd6d8be20fb18c5c1fa9499e1f28016c62da960ec6dcf752f2f7ce81565b61039e6103993660046134d7565b611509565b604051610211919061350a565b6102076103b936600461362d565b6115b1565b6103d16103cc3660046136de565b611a56565b6040516001600160a01b039091168152602001610211565b61022d6103f7366004613353565b6000918252602082815260408084206001600160a01b0393909316845291905290205460ff1690565b6103d161042e36600461310b565b611a6e565b61022d6104413660046130ac565b6001600160a01b039190911660009081526007602090815260408083209383529290522054151590565b610207600081565b6102c761048136600461370e565b611a76565b6102c761049436600461373c565b611b61565b6002546001600160a01b03166103d1565b6102076104b836600461310b565b611bf5565b6102c76104cb36600461373c565b611c0c565b6102c76104de366004613353565b611c9c565b6102076104f13660046130ac565b6001600160a01b03919091166000908152600760209081526040808320938352929052205490565b61039e61052736600461310b565b611ca6565b61022d61053a366004613779565b6001600160a01b03918216600090815260056020908152604080832093909416825291909152205460ff1690565b6102c76105763660046137a7565b611cfb565b60006001600160a01b0383166105fe5760405162461bcd60e51b815260206004820152602960248201527f5661756c743a2062616c616e636520717565727920666f7220746865207a657260448201527f6f2061646472657373000000000000000000000000000000000000000000000060648201526084015b60405180910390fd5b60008281526006602052604081205460ff166002811115610621576106216134f4565b141561062e5760006106c3565b816040517f70a082310000000000000000000000000000000000000000000000000000000081526001600160a01b03858116600483015291909116906370a082319060240160206040518083038186803b15801561068b57600080fd5b505afa15801561069f573d6000803e3d6000fd5b505050506040513d601f19601f820116820180604052508101906106c39190613823565b90505b92915050565b60006001600160e01b031982167fd9b67a2600000000000000000000000000000000000000000000000000000000148061072f57506001600160e01b031982167f0e89341c00000000000000000000000000000000000000000000000000000000145b8061076357506001600160e01b031982167f150b7a0200000000000000000000000000000000000000000000000000000000145b806106c657506106c682611f81565b60008181526006602052604090206060906001815460ff16600281111561079b5761079b6134f4565b14156108da57805460018201546040517fc87b56dd00000000000000000000000000000000000000000000000000000000815260048101919091526101009091046001600160a01b03169063c87b56dd9060240160006040518083038186803b15801561080757600080fd5b505afa92505050801561083c57506040513d6000823e601f3d908101601f19168201604052610839919081019061383c565b60015b6108d3576003805461084d906138b4565b80601f0160208091040260200160405190810160405280929190818152602001828054610879906138b4565b80156108c65780601f1061089b576101008083540402835291602001916108c6565b820191906000526020600020905b8154815290600101906020018083116108a957829003601f168201915b5050505050915050919050565b9392505050565b6002815460ff1660028111156108f2576108f26134f4565b1415610905576004805461084d906138b4565b5050604080516020810190915260008152919050565b600080336040516301ffc9a760e01b81527f80ac58cd0000000000000000000000000000000000000000000000000000000060048201529091506001600160a01b038216906301ffc9a79060240160206040518083038186803b15801561098157600080fd5b505afa158015610995573d6000803e3d6000fd5b505050506040513d601f19601f820116820180604052508101906109b991906138ef565b610a2b5760405162461bcd60e51b815260206004820152602260248201527f5661756c743a204e4654206973206e6f74204552433732312d636f6d706c696160448201527f6e7400000000000000000000000000000000000000000000000000000000000060648201526084016105f5565b60c08314610aa15760405162461bcd60e51b815260206004820152602c60248201527f5661756c743a20696e76616c6964206672616374696f6e616c697a6174696f6e60448201527f2064617461206c656e677468000000000000000000000000000000000000000060648201526084016105f5565b600084848080601f0160208091040260200160405190810160405280939291908181526020018383808284376000920191909152505050602082015160408301516060840151608085015160a086015160c08701519697509395929450909290917f1d2496c631fd6d8be20fb18c5c1fa9499e1f28016c62da960ec6dcf752f2f7ce8114610b975760405162461bcd60e51b815260206004820152602560248201527f5661756c743a20696e76616c6964206672616374696f6e616c697a6174696f6e60448201527f206461746100000000000000000000000000000000000000000000000000000060648201526084016105f5565b610bb7888d8a610ba68a611fbf565b610baf8a611fbf565b898989612122565b507f150b7a02000000000000000000000000000000000000000000000000000000009e9d5050505050505050505050505050565b606060048054610bfa906138b4565b80601f0160208091040260200160405190810160405280929190818152602001828054610c26906138b4565b8015610c735780601f10610c4857610100808354040283529160200191610c73565b820191906000526020600020905b815481529060010190602001808311610c5657829003601f168201915b5050505050905090565b33838614610cf35760405162461bcd60e51b815260206004820152602660248201527f5661756c743a2069647320616e6420616d6f756e7473206c656e677468206d6960448201527f736d61746368000000000000000000000000000000000000000000000000000060648201526084016105f5565b6001600160a01b038816610d6f5760405162461bcd60e51b815260206004820152602360248201527f5661756c743a207472616e7366657220746f20746865207a65726f206164647260448201527f657373000000000000000000000000000000000000000000000000000000000060648201526084016105f5565b806001600160a01b0316896001600160a01b03161480610db457506001600160a01b03808a1660009081526005602090815260408083209385168352929052205460ff165b610e265760405162461bcd60e51b815260206004820152602c60248201527f5661756c743a206d757374206265206f776e6572206f7220617070726f76656460448201527f20746f207472616e73666572000000000000000000000000000000000000000060648201526084016105f5565b60005b86811015610ef457610e50888883818110610e4657610e4661390c565b9050602002013590565b6001600160a01b0316631481026a8b8b898986818110610e7257610e7261390c565b6040516001600160e01b031960e088901b1681526001600160a01b03958616600482015294909316602485015250602090910201356044820152606401600060405180830381600087803b158015610ec957600080fd5b505af1158015610edd573d6000803e3d6000fd5b505050508080610eec90613938565b915050610e29565b50876001600160a01b0316896001600160a01b0316826001600160a01b03167f4a39dc06d4c0dbc64b70af90fd698a233a518aa5d07e595d983b8c0526c8f7fb8a8a8a8a604051610f4894939291906139a2565b60405180910390a4610ff4818a8a8a8a8080602002602001604051908101604052809392919081815260200183836020028082843760009201919091525050604080516020808e0282810182019093528d82529093508d92508c91829185019084908082843760009201919091525050604080516020601f8d018190048102820181019092528b815292508b91508a908190840183828082843760009201919091525061236792505050565b505050505050505050565b6110098282612563565b60008281526001602052604090206110219082611f6c565b505050565b6001600160a01b0384166000818152600660205260409020805460019060ff166002811115611057576110576134f4565b146110a45760405162461bcd60e51b815260206004820152601c60248201527f5661756c743a2073706563747265206973206e6f74206c6f636b65640000000060448201526064016105f5565b60028101546001600160a01b0316336001600160a01b03161461112f5760405162461bcd60e51b815260206004820152602960248201527f5661756c743a206d757374206265207370656374726527732062726f6b65722060448201527f746f20756e6c6f636b000000000000000000000000000000000000000000000060648201526084016105f5565b61118d8160000160019054906101000a90046001600160a01b03168260010154848888888080601f01602080910402602001604051908101604052809392919081815260200183838082843760009201919091525061258992505050565b505050505050565b61119f828261267c565b60008281526001602052604090206110219082612704565b3360008181526006602052604081205482919060ff1660028111156111de576111de6134f4565b14156112525760405162461bcd60e51b815260206004820152602a60248201527f5661756c743a206d7573742062652073455243323020746f207573652074726160448201527f6e7366657220686f6f6b0000000000000000000000000000000000000000000060648201526084016105f5565b836001600160a01b0316856001600160a01b0316836001600160a01b03167fc3d58168c5ae7397731d063d5bbf3d657854427343f4c083240f7aacaa2d0f6284876040516112aa929190918252602082015260400190565b60405180910390a46112e56001600160a01b0385167f4e2312e000000000000000000000000000000000000000000000000000000000612719565b156113a95760405163f23a6e6160e01b81526001600160a01b0383811660048301528681166024830152604482018390526064820185905260a06084830152600060a483015285169063f23a6e619060c401602060405180830381600087803b15801561135157600080fd5b505af1925050508015611381575060408051601f3d908101601f1916820190925261137e918101906139d4565b60015b61118d5761138d6139f1565b806308c379a0141561118d57506113a2613a0d565b8061118d57505b5050505050565b60608382146114275760405162461bcd60e51b815260206004820152602760248201527f5661756c743a206163636f756e747320616e6420696473206c656e677468206d60448201527f69736d617463680000000000000000000000000000000000000000000000000060648201526084016105f5565b60008467ffffffffffffffff81111561144257611442613566565b60405190808252806020026020018201604052801561146b578160200160208202803683370190505b50905060005b858110156114f0576114c187878381811061148e5761148e61390c565b90506020020160208101906114a391906134d7565b8686848181106114b5576114b561390c565b9050602002013561057b565b8282815181106114d3576114d361390c565b6020908102919091010152806114e881613938565b915050611471565b5095945050505050565b606060038054610bfa906138b4565b6040805160808101825260008082526020820181905291810182905260608101919091526001600160a01b038216600090815260066020526040908190208151608081019092528054829060ff166002811115611568576115686134f4565b6002811115611579576115796134f4565b815281546001600160a01b03610100909104811660208301526001830154604083015260029092015490911660609091015292915050565b60006115dd7fa541cf2e8e137aa2a6ee62088e1847ecf1f039943f142d77fcf83c401b25d3cf336103f7565b8061168957506040517f6352211e000000000000000000000000000000000000000000000000000000008152600481018890526001600160a01b03891690636352211e9060240160206040518083038186803b15801561163c57600080fd5b505afa158015611650573d6000803e3d6000fd5b505050506040513d601f19601f820116820180604052508101906116749190613ab5565b6001600160a01b0316336001600160a01b0316145b6117225760405162461bcd60e51b8152602060048201526044602482018190527f5661756c743a206d7573742068617665204652414354494f4e414c495a455f52908201527f4f4c45206f72206265204e4654206f776e657220746f206672616374696f6e6160648201527f6c697a6500000000000000000000000000000000000000000000000000000000608482015260a4016105f5565b6040516301ffc9a760e01b81527f80ac58cd0000000000000000000000000000000000000000000000000000000060048201526001600160a01b038916906301ffc9a79060240160206040518083038186803b15801561178157600080fd5b505afa158015611795573d6000803e3d6000fd5b505050506040513d601f19601f820116820180604052508101906117b991906138ef565b61182b5760405162461bcd60e51b815260206004820152602260248201527f5661756c743a204e4654206973206e6f74204552433732312d636f6d706c696160448201527f6e7400000000000000000000000000000000000000000000000000000000000060648201526084016105f5565b6001600160a01b03881660009081526007602090815260408083208a84529091529020541561189c5760405162461bcd60e51b815260206004820152601c60248201527f5661756c743a204e465420697320616c7265616479206c6f636b65640000000060448201526064016105f5565b6040517f6352211e000000000000000000000000000000000000000000000000000000008152600481018890526000906001600160a01b038a1690636352211e9060240160206040518083038186803b1580156118f857600080fd5b505afa15801561190c573d6000803e3d6000fd5b505050506040513d601f19601f820116820180604052508101906119309190613ab5565b90506001600160a01b0381163014156119b15760405162461bcd60e51b815260206004820152602960248201527f5661756c743a204e465420697320616c7265616479206f776e6564206279207460448201527f686973207661756c74000000000000000000000000000000000000000000000060648201526084016105f5565b60006119c38a8a338b8b8b8b8b612122565b6040517f23b872dd0000000000000000000000000000000000000000000000000000000081526001600160a01b038481166004830152306024830152604482018c9052919250908b16906323b872dd90606401600060405180830381600087803b158015611a3057600080fd5b505af1158015611a44573d6000803e3d6000fd5b50929c9b505050505050505050505050565b60008281526001602052604081206106c39083612735565b6000816106c6565b336001600160a01b0383161415611af55760405162461bcd60e51b815260206004820152602760248201527f5661756c743a2073657474696e6720617070726f76616c20737461747573206660448201527f6f722073656c660000000000000000000000000000000000000000000000000060648201526084016105f5565b3360008181526005602090815260408083206001600160a01b03871680855290835292819020805460ff191686151590811790915590519081529192917f17307eab39ab6107e8899845ad3d59bd9653f200f220920489ca2b5937696c31910160405180910390a35050565b611b6c6000336103f7565b611bde5760405162461bcd60e51b815260206004820152603660248201527f5661756c743a206d75737420686176652044454641554c545f41444d494e5f5260448201527f4f4c4520746f2073657420756e6c6f636b65645552490000000000000000000060648201526084016105f5565b8051611bf1906004906020840190612ffb565b5050565b60008181526001602052604081206106c690612741565b611c176000336103f7565b611c895760405162461bcd60e51b815260206004820152603960248201527f5661756c743a206d75737420686176652044454641554c545f41444d494e5f5260448201527f4f4c4520746f2073657420756e617661696c61626c655552490000000000000060648201526084016105f5565b8051611bf1906003906020840190612ffb565b61119f828261274b565b604080516080810182526000808252602082018190529181018290526060810191909152600082815260066020526040908190208151608081019092528054829060ff166002811115611568576115686134f4565b336001600160a01b038616611d785760405162461bcd60e51b815260206004820152602360248201527f5661756c743a207472616e7366657220746f20746865207a65726f206164647260448201527f657373000000000000000000000000000000000000000000000000000000000060648201526084016105f5565b806001600160a01b0316876001600160a01b03161480611dbd57506001600160a01b0380881660009081526005602090815260408083209385168352929052205460ff165b611e2f5760405162461bcd60e51b815260206004820152602c60248201527f5661756c743a206d757374206265206f776e6572206f7220617070726f76656460448201527f20746f207472616e73666572000000000000000000000000000000000000000060648201526084016105f5565b846040517f1481026a0000000000000000000000000000000000000000000000000000000081526001600160a01b0389811660048301528881166024830152604482018790529190911690631481026a90606401600060405180830381600087803b158015611e9d57600080fd5b505af1158015611eb1573d6000803e3d6000fd5b50505050856001600160a01b0316876001600160a01b0316826001600160a01b03167fc3d58168c5ae7397731d063d5bbf3d657854427343f4c083240f7aacaa2d0f628888604051611f0d929190918252602082015260400190565b60405180910390a4611f59818888888888888080601f01602080910402602001604051908101604052809392919081815260200183838082843760009201919091525061277192505050565b50505050505050565b611bf18282612891565b60006106c3836001600160a01b03841661292f565b60006001600160e01b031982167f5a05180f0000000000000000000000000000000000000000000000000000000014806106c657506106c68261297e565b606060005b60208110801561200a5750828160208110611fe157611fe161390c565b1a60f81b7fff000000000000000000000000000000000000000000000000000000000000001615155b15612021578061201981613938565b915050611fc4565b60008167ffffffffffffffff81111561203c5761203c613566565b6040519080825280601f01601f191660200182016040528015612066576020820181803683370190505b509050600091505b6020821080156120b4575083826020811061208b5761208b61390c565b1a60f81b7fff000000000000000000000000000000000000000000000000000000000000001615155b156108d3578382602081106120cb576120cb61390c565b1a60f81b8183815181106120e1576120e161390c565b60200101907effffffffffffffffffffffffffffffffffffffffffffffffffffffffffffff1916908160001a9053508161211a81613938565b92505061206e565b600254600090819061213c906001600160a01b03166129cc565b905060006001600160a01b038216604080516080810190915290915080600181526001600160a01b03808e1660208084019190915260408084018f905291881660609093019290925260008481526006909252902081518154829060ff191660018360028111156121af576121af6134f4565b021790555060208281015182547fffffffffffffffffffffff0000000000000000000000000000000000000000ff166101006001600160a01b03928316021783556040808501516001850155606090940151600290930180547fffffffffffffffffffffffff000000000000000000000000000000000000000016938216939093179092558d82166000908152600782528381208e825290915282902083905590517fbd3a13f60000000000000000000000000000000000000000000000000000000081529083169063bd3a13f690612292908b908b908b908b90600401613ad2565b600060405180830381600087803b1580156122ac57600080fd5b505af11580156122c0573d6000803e3d6000fd5b50506040805184815260006020820181905293508392506001600160a01b038d16917fc3d58168c5ae7397731d063d5bbf3d657854427343f4c083240f7aacaa2d0f62910160405180910390a4604080516001600160a01b038481168252868116602083015283928d92918f16917f0ee6c61f315def902fdd6cc60db24f051dd4b66a6ced37ca3aa3866a4271bace910160405180910390a49a9950505050505050505050565b6001600160a01b0384163b1561118d576040517fbc197c810000000000000000000000000000000000000000000000000000000081526001600160a01b0385169063bc197c81906123c49089908990889088908890600401613b18565b602060405180830381600087803b1580156123de57600080fd5b505af192505050801561240e575060408051601f3d908101601f1916820190925261240b918101906139d4565b60015b6124c45761241a6139f1565b806308c379a01415612454575061242f613a0d565b8061243a5750612456565b8060405162461bcd60e51b81526004016105f59190613180565b505b60405162461bcd60e51b815260206004820152603260248201527f5661756c743a207472616e7366657220746f206e6f6e2045524331313535526560448201527f63656976657220696d706c656d656e746572000000000000000000000000000060648201526084016105f5565b6001600160e01b031981167fbc197c810000000000000000000000000000000000000000000000000000000014611f595760405162461bcd60e51b815260206004820152602660248201527f5661756c743a204552433131353552656365697665722072656a65637465642060448201527f746f6b656e73000000000000000000000000000000000000000000000000000060648201526084016105f5565b60008281526020819052604090206001015461257f8133612a87565b6110218383612891565b6000838152600660209081526040808320805460ff191660021790556001600160a01b038816808452600783528184208885529092528083209290925590517fb88d4fde00000000000000000000000000000000000000000000000000000000815263b88d4fde90612605903090869089908790600401613b76565b600060405180830381600087803b15801561261f57600080fd5b505af1158015612633573d6000803e3d6000fd5b50506040516001600160a01b03851681528592507f027d6c6704a7913d85498305191e7bb755d64034c42fb5169c726408f65b3ce2915060200160405180910390a25050505050565b6001600160a01b03811633146126fa5760405162461bcd60e51b815260206004820152602f60248201527f416363657373436f6e74726f6c3a2063616e206f6e6c792072656e6f756e636560448201527f20726f6c657320666f722073656c66000000000000000000000000000000000060648201526084016105f5565b611bf18282612b05565b60006106c3836001600160a01b038416612b84565b600061272483612c77565b80156106c357506106c38383612caa565b60006106c38383612da8565b60006106c6825490565b6000828152602081905260409020600101546127678133612a87565b6110218383612b05565b6001600160a01b0384163b1561118d5760405163f23a6e6160e01b81526001600160a01b0385169063f23a6e61906127b59089908990889088908890600401613ba8565b602060405180830381600087803b1580156127cf57600080fd5b505af19250505080156127ff575060408051601f3d908101601f191682019092526127fc918101906139d4565b60015b61280b5761241a6139f1565b6001600160e01b0319811663f23a6e6160e01b14611f595760405162461bcd60e51b815260206004820152602660248201527f5661756c743a204552433131353552656365697665722072656a65637465642060448201527f746f6b656e73000000000000000000000000000000000000000000000000000060648201526084016105f5565b6000828152602081815260408083206001600160a01b038516845290915290205460ff16611bf1576000828152602081815260408083206001600160a01b03851684529091529020805460ff191660011790556128eb3390565b6001600160a01b0316816001600160a01b0316837f2f8788117e7eff1d82e926ec794901d17c78024a50270940304540a733656f0d60405160405180910390a45050565b6000818152600183016020526040812054612976575081546001818101845560008481526020808220909301849055845484825282860190935260409020919091556106c6565b5060006106c6565b60006001600160e01b031982167f7965db0b0000000000000000000000000000000000000000000000000000000014806106c657506301ffc9a760e01b6001600160e01b03198316146106c6565b60006040517f3d602d80600a3d3981f3363d3d373d3d3d363d7300000000000000000000000081528260601b60148201527f5af43d82803e903d91602b57fd5bf3000000000000000000000000000000000060288201526037816000f09150506001600160a01b038116612a825760405162461bcd60e51b815260206004820152601660248201527f455243313136373a20637265617465206661696c65640000000000000000000060448201526064016105f5565b919050565b6000828152602081815260408083206001600160a01b038516845290915290205460ff16611bf157612ac3816001600160a01b03166014612dd2565b612ace836020612dd2565b604051602001612adf929190613be0565b60408051601f198184030181529082905262461bcd60e51b82526105f591600401613180565b6000828152602081815260408083206001600160a01b038516845290915290205460ff1615611bf1576000828152602081815260408083206001600160a01b0385168085529252808320805460ff1916905551339285917ff6391f5c32d9c69d2a47ea670b442974b53935d1edc7fd64eb21e047a839171b9190a45050565b60008181526001830160205260408120548015612c6d576000612ba8600183613c61565b8554909150600090612bbc90600190613c61565b9050818114612c21576000866000018281548110612bdc57612bdc61390c565b9060005260206000200154905080876000018481548110612bff57612bff61390c565b6000918252602080832090910192909255918252600188019052604090208390555b8554869080612c3257612c32613c78565b6001900381819060005260206000200160009055905585600101600086815260200190815260200160002060009055600193505050506106c6565b60009150506106c6565b6000612c8a826301ffc9a760e01b612caa565b80156106c65750612ca3826001600160e01b0319612caa565b1592915050565b604080516001600160e01b0319831660248083019190915282518083039091018152604490910182526020810180517bffffffffffffffffffffffffffffffffffffffffffffffffffffffff166301ffc9a760e01b179052905160009190829081906001600160a01b0387169061753090612d26908690613c8e565b6000604051808303818686fa925050503d8060008114612d62576040519150601f19603f3d011682016040523d82523d6000602084013e612d67565b606091505b5091509150602081511015612d8257600093505050506106c6565b818015612d9e575080806020019051810190612d9e91906138ef565b9695505050505050565b6000826000018281548110612dbf57612dbf61390c565b9060005260206000200154905092915050565b60606000612de1836002613caa565b612dec906002613cc9565b67ffffffffffffffff811115612e0457612e04613566565b6040519080825280601f01601f191660200182016040528015612e2e576020820181803683370190505b5090507f300000000000000000000000000000000000000000000000000000000000000081600081518110612e6557612e6561390c565b60200101907effffffffffffffffffffffffffffffffffffffffffffffffffffffffffffff1916908160001a9053507f780000000000000000000000000000000000000000000000000000000000000081600181518110612ec857612ec861390c565b60200101907effffffffffffffffffffffffffffffffffffffffffffffffffffffffffffff1916908160001a9053506000612f04846002613caa565b612f0f906001613cc9565b90505b6001811115612fac577f303132333435363738396162636465660000000000000000000000000000000085600f1660108110612f5057612f5061390c565b1a60f81b828281518110612f6657612f6661390c565b60200101907effffffffffffffffffffffffffffffffffffffffffffffffffffffffffffff1916908160001a90535060049490941c93612fa581613ce1565b9050612f12565b5083156106c35760405162461bcd60e51b815260206004820181905260248201527f537472696e67733a20686578206c656e67746820696e73756666696369656e7460448201526064016105f5565b828054613007906138b4565b90600052602060002090601f016020900481019282613029576000855561306f565b82601f1061304257805160ff191683800117855561306f565b8280016001018555821561306f579182015b8281111561306f578251825591602001919060010190613054565b5061307b92915061307f565b5090565b5b8082111561307b5760008155600101613080565b6001600160a01b03811681146130a957600080fd5b50565b600080604083850312156130bf57600080fd5b82356130ca81613094565b946020939093013593505050565b6001600160e01b0319811681146130a957600080fd5b60006020828403121561310057600080fd5b81356106c3816130d8565b60006020828403121561311d57600080fd5b5035919050565b60005b8381101561313f578181015183820152602001613127565b8381111561314e576000848401525b50505050565b6000815180845261316c816020860160208601613124565b601f01601f19169290920160200192915050565b6020815260006106c36020830184613154565b60008083601f8401126131a557600080fd5b50813567ffffffffffffffff8111156131bd57600080fd5b6020830191508360208285010111156131d557600080fd5b9250929050565b6000806000806000608086880312156131f457600080fd5b85356131ff81613094565b9450602086013561320f81613094565b935060408601359250606086013567ffffffffffffffff81111561323257600080fd5b61323e88828901613193565b969995985093965092949392505050565b60008083601f84011261326157600080fd5b50813567ffffffffffffffff81111561327957600080fd5b6020830191508360208260051b85010111156131d557600080fd5b60008060008060008060008060a0898b0312156132b057600080fd5b88356132bb81613094565b975060208901356132cb81613094565b9650604089013567ffffffffffffffff808211156132e857600080fd5b6132f48c838d0161324f565b909850965060608b013591508082111561330d57600080fd5b6133198c838d0161324f565b909650945060808b013591508082111561333257600080fd5b5061333f8b828c01613193565b999c989b5096995094979396929594505050565b6000806040838503121561336657600080fd5b82359150602083013561337881613094565b809150509250929050565b6000806000806060858703121561339957600080fd5b84356133a481613094565b935060208501356133b481613094565b9250604085013567ffffffffffffffff8111156133d057600080fd5b6133dc87828801613193565b95989497509550505050565b6000806000606084860312156133fd57600080fd5b833561340881613094565b9250602084013561341881613094565b929592945050506040919091013590565b6000806000806040858703121561343f57600080fd5b843567ffffffffffffffff8082111561345757600080fd5b6134638883890161324f565b9096509450602087013591508082111561347c57600080fd5b506133dc8782880161324f565b600081518084526020808501945080840160005b838110156134b95781518752958201959082019060010161349d565b509495945050505050565b6020815260006106c36020830184613489565b6000602082840312156134e957600080fd5b81356106c381613094565b634e487b7160e01b600052602160045260246000fd5b815160808201906003811061352f57634e487b7160e01b600052602160045260246000fd5b8083525060208301516001600160a01b03808216602085015260408501516040850152806060860151166060850152505092915050565b634e487b7160e01b600052604160045260246000fd5b601f19601f830116810181811067ffffffffffffffff821117156135a2576135a2613566565b6040525050565b600067ffffffffffffffff8211156135c3576135c3613566565b50601f01601f191660200190565b600082601f8301126135e257600080fd5b81356135ed816135a9565b6040516135fa828261357c565b82815285602084870101111561360f57600080fd5b82602086016020830137600092810160200192909252509392505050565b600080600080600080600060e0888a03121561364857600080fd5b873561365381613094565b965060208801359550604088013567ffffffffffffffff8082111561367757600080fd5b6136838b838c016135d1565b965060608a013591508082111561369957600080fd5b506136a68a828b016135d1565b9450506080880135925060a08801356136be81613094565b915060c08801356136ce81613094565b8091505092959891949750929550565b600080604083850312156136f157600080fd5b50508035926020909101359150565b80151581146130a957600080fd5b6000806040838503121561372157600080fd5b823561372c81613094565b9150602083013561337881613700565b60006020828403121561374e57600080fd5b813567ffffffffffffffff81111561376557600080fd5b613771848285016135d1565b949350505050565b6000806040838503121561378c57600080fd5b823561379781613094565b9150602083013561337881613094565b60008060008060008060a087890312156137c057600080fd5b86356137cb81613094565b955060208701356137db81613094565b94506040870135935060608701359250608087013567ffffffffffffffff81111561380557600080fd5b61381189828a01613193565b979a9699509497509295939492505050565b60006020828403121561383557600080fd5b5051919050565b60006020828403121561384e57600080fd5b815167ffffffffffffffff81111561386557600080fd5b8201601f8101841361387657600080fd5b8051613881816135a9565b60405161388e828261357c565b8281528660208486010111156138a357600080fd5b612d9e836020830160208701613124565b600181811c908216806138c857607f821691505b602082108114156138e957634e487b7160e01b600052602260045260246000fd5b50919050565b60006020828403121561390157600080fd5b81516106c381613700565b634e487b7160e01b600052603260045260246000fd5b634e487b7160e01b600052601160045260246000fd5b600060001982141561394c5761394c613922565b5060010190565b81835260007f07ffffffffffffffffffffffffffffffffffffffffffffffffffffffffffffff83111561398557600080fd5b8260051b8083602087013760009401602001938452509192915050565b6040815260006139b6604083018688613953565b82810360208401526139c9818587613953565b979650505050505050565b6000602082840312156139e657600080fd5b81516106c3816130d8565b600060033d1115613a0a5760046000803e5060005160e01c5b90565b600060443d1015613a1b5790565b6040517ffffffffffffffffffffffffffffffffffffffffffffffffffffffffffffffffc803d016004833e81513d67ffffffffffffffff8160248401118184111715613a6957505050505090565b8285019150815181811115613a815750505050505090565b843d8701016020828501011115613a9b5750505050505090565b613aaa6020828601018761357c565b509095945050505050565b600060208284031215613ac757600080fd5b81516106c381613094565b608081526000613ae56080830187613154565b8281036020840152613af78187613154565b9150508360408301526001600160a01b038316606083015295945050505050565b60006001600160a01b03808816835280871660208401525060a06040830152613b4460a0830186613489565b8281036060840152613b568186613489565b90508281036080840152613b6a8185613154565b98975050505050505050565b60006001600160a01b03808716835280861660208401525083604083015260806060830152612d9e6080830184613154565b60006001600160a01b03808816835280871660208401525084604083015283606083015260a060808301526139c960a0830184613154565b7f416363657373436f6e74726f6c3a206163636f756e7420000000000000000000815260008351613c18816017850160208801613124565b7f206973206d697373696e6720726f6c65200000000000000000000000000000006017918401918201528351613c55816028840160208801613124565b01602801949350505050565b600082821015613c7357613c73613922565b500390565b634e487b7160e01b600052603160045260246000fd5b60008251613ca0818460208701613124565b9190910192915050565b6000816000190483118215151615613cc457613cc4613922565b500290565b60008219821115613cdc57613cdc613922565b500190565b600081613cf057613cf0613922565b50600019019056fea2646970667358221220e35df20b7544b9d996b1a2e50b5f6d0239dd1e800799648bdd0c963be916db1064736f6c63430008090033"
}