{
  "address": "0x4BfDa8ba81cfB378702b502516548a960fbF0438",
  "abi": [
    {
      "inputs": [
        {
          "internalType": "address",
          "name": "sERC20Base_",
          "type": "address"
        },
        {
          "internalType": "string",
          "name": "unavailableURI_",
          "type": "string"
        },
        {
          "internalType": "string",
          "name": "unlockedURI_",
          "type": "string"
        }
      ],
      "stateMutability": "nonpayable",
      "type": "constructor"
    },
    {
      "anonymous": false,
      "inputs": [
        {
          "indexed": true,
          "internalType": "address",
          "name": "account",
          "type": "address"
        },
        {
          "indexed": true,
          "internalType": "address",
          "name": "operator",
          "type": "address"
        },
        {
          "indexed": false,
          "internalType": "bool",
          "name": "approved",
          "type": "bool"
        }
      ],
      "name": "ApprovalForAll",
      "type": "event"
    },
    {
      "anonymous": false,
      "inputs": [
        {
          "indexed": false,
          "internalType": "contract IERC721",
          "name": "collection",
          "type": "address"
        },
        {
          "indexed": false,
          "internalType": "uint256",
          "name": "tokenId",
          "type": "uint256"
        },
        {
          "indexed": false,
          "internalType": "address",
          "name": "recipient",
          "type": "address"
        }
      ],
      "name": "Escape",
      "type": "event"
    },
    {
      "anonymous": false,
      "inputs": [
        {
          "indexed": true,
          "internalType": "contract IERC721",
          "name": "collection",
          "type": "address"
        },
        {
          "indexed": true,
          "internalType": "uint256",
          "name": "tokenId",
          "type": "uint256"
        },
        {
          "indexed": true,
          "internalType": "uint256",
          "name": "id",
          "type": "uint256"
        },
        {
          "indexed": false,
          "internalType": "contract sIERC20",
          "name": "sERC20",
          "type": "address"
        },
        {
          "indexed": false,
          "internalType": "address",
          "name": "broker",
          "type": "address"
        }
      ],
      "name": "Fractionalize",
      "type": "event"
    },
    {
      "anonymous": false,
      "inputs": [
        {
          "indexed": true,
          "internalType": "bytes32",
          "name": "role",
          "type": "bytes32"
        },
        {
          "indexed": true,
          "internalType": "bytes32",
          "name": "previousAdminRole",
          "type": "bytes32"
        },
        {
          "indexed": true,
          "internalType": "bytes32",
          "name": "newAdminRole",
          "type": "bytes32"
        }
      ],
      "name": "RoleAdminChanged",
      "type": "event"
    },
    {
      "anonymous": false,
      "inputs": [
        {
          "indexed": true,
          "internalType": "bytes32",
          "name": "role",
          "type": "bytes32"
        },
        {
          "indexed": true,
          "internalType": "address",
          "name": "account",
          "type": "address"
        },
        {
          "indexed": true,
          "internalType": "address",
          "name": "sender",
          "type": "address"
        }
      ],
      "name": "RoleGranted",
      "type": "event"
    },
    {
      "anonymous": false,
      "inputs": [
        {
          "indexed": true,
          "internalType": "bytes32",
          "name": "role",
          "type": "bytes32"
        },
        {
          "indexed": true,
          "internalType": "address",
          "name": "account",
          "type": "address"
        },
        {
          "indexed": true,
          "internalType": "address",
          "name": "sender",
          "type": "address"
        }
      ],
      "name": "RoleRevoked",
      "type": "event"
    },
    {
      "anonymous": false,
      "inputs": [
        {
          "indexed": true,
          "internalType": "address",
          "name": "operator",
          "type": "address"
        },
        {
          "indexed": true,
          "internalType": "address",
          "name": "from",
          "type": "address"
        },
        {
          "indexed": true,
          "internalType": "address",
          "name": "to",
          "type": "address"
        },
        {
          "indexed": false,
          "internalType": "uint256[]",
          "name": "ids",
          "type": "uint256[]"
        },
        {
          "indexed": false,
          "internalType": "uint256[]",
          "name": "values",
          "type": "uint256[]"
        }
      ],
      "name": "TransferBatch",
      "type": "event"
    },
    {
      "anonymous": false,
      "inputs": [
        {
          "indexed": true,
          "internalType": "address",
          "name": "operator",
          "type": "address"
        },
        {
          "indexed": true,
          "internalType": "address",
          "name": "from",
          "type": "address"
        },
        {
          "indexed": true,
          "internalType": "address",
          "name": "to",
          "type": "address"
        },
        {
          "indexed": false,
          "internalType": "uint256",
          "name": "id",
          "type": "uint256"
        },
        {
          "indexed": false,
          "internalType": "uint256",
          "name": "value",
          "type": "uint256"
        }
      ],
      "name": "TransferSingle",
      "type": "event"
    },
    {
      "anonymous": false,
      "inputs": [
        {
          "indexed": false,
          "internalType": "string",
          "name": "value",
          "type": "string"
        },
        {
          "indexed": true,
          "internalType": "uint256",
          "name": "id",
          "type": "uint256"
        }
      ],
      "name": "URI",
      "type": "event"
    },
    {
      "anonymous": false,
      "inputs": [
        {
          "indexed": true,
          "internalType": "uint256",
          "name": "id",
          "type": "uint256"
        },
        {
          "indexed": false,
          "internalType": "address",
          "name": "recipient",
          "type": "address"
        }
      ],
      "name": "Unlock",
      "type": "event"
    },
    {
      "inputs": [],
      "name": "DEFAULT_ADMIN_ROLE",
      "outputs": [
        {
          "internalType": "bytes32",
          "name": "",
          "type": "bytes32"
        }
      ],
      "stateMutability": "view",
      "type": "function"
    },
    {
      "inputs": [],
      "name": "DERRIDA",
      "outputs": [
        {
          "internalType": "bytes32",
          "name": "",
          "type": "bytes32"
        }
      ],
      "stateMutability": "view",
      "type": "function"
    },
    {
      "inputs": [
        {
          "internalType": "address",
          "name": "account",
          "type": "address"
        },
        {
          "internalType": "uint256",
          "name": "id",
          "type": "uint256"
        }
      ],
      "name": "balanceOf",
      "outputs": [
        {
          "internalType": "uint256",
          "name": "",
          "type": "uint256"
        }
      ],
      "stateMutability": "view",
      "type": "function"
    },
    {
      "inputs": [
        {
          "internalType": "address[]",
          "name": "accounts",
          "type": "address[]"
        },
        {
          "internalType": "uint256[]",
          "name": "ids",
          "type": "uint256[]"
        }
      ],
      "name": "balanceOfBatch",
      "outputs": [
        {
          "internalType": "uint256[]",
          "name": "",
          "type": "uint256[]"
        }
      ],
      "stateMutability": "view",
      "type": "function"
    },
    {
      "inputs": [
        {
          "internalType": "contract IERC721",
          "name": "collection",
          "type": "address"
        },
        {
          "internalType": "uint256",
          "name": "tokenId",
          "type": "uint256"
        },
        {
          "internalType": "address",
          "name": "recipient",
          "type": "address"
        },
        {
          "internalType": "bytes",
          "name": "data",
          "type": "bytes"
        }
      ],
      "name": "escape",
      "outputs": [],
      "stateMutability": "nonpayable",
      "type": "function"
    },
    {
      "inputs": [
        {
          "internalType": "contract IERC721",
          "name": "collection",
          "type": "address"
        },
        {
          "internalType": "uint256",
          "name": "tokenId",
          "type": "uint256"
        },
        {
          "internalType": "string",
          "name": "name",
          "type": "string"
        },
        {
          "internalType": "string",
          "name": "symbol",
          "type": "string"
        },
        {
          "internalType": "uint256",
          "name": "cap",
          "type": "uint256"
        },
        {
          "internalType": "address",
          "name": "admin",
          "type": "address"
        },
        {
          "internalType": "address",
          "name": "broker",
          "type": "address"
        }
      ],
      "name": "fractionalize",
      "outputs": [
        {
          "internalType": "uint256",
          "name": "",
          "type": "uint256"
        }
      ],
      "stateMutability": "nonpayable",
      "type": "function"
    },
    {
      "inputs": [
        {
          "internalType": "bytes32",
          "name": "role",
          "type": "bytes32"
        }
      ],
      "name": "getRoleAdmin",
      "outputs": [
        {
          "internalType": "bytes32",
          "name": "",
          "type": "bytes32"
        }
      ],
      "stateMutability": "view",
      "type": "function"
    },
    {
      "inputs": [
        {
          "internalType": "bytes32",
          "name": "role",
          "type": "bytes32"
        },
        {
          "internalType": "uint256",
          "name": "index",
          "type": "uint256"
        }
      ],
      "name": "getRoleMember",
      "outputs": [
        {
          "internalType": "address",
          "name": "",
          "type": "address"
        }
      ],
      "stateMutability": "view",
      "type": "function"
    },
    {
      "inputs": [
        {
          "internalType": "bytes32",
          "name": "role",
          "type": "bytes32"
        }
      ],
      "name": "getRoleMemberCount",
      "outputs": [
        {
          "internalType": "uint256",
          "name": "",
          "type": "uint256"
        }
      ],
      "stateMutability": "view",
      "type": "function"
    },
    {
      "inputs": [
        {
          "internalType": "bytes32",
          "name": "role",
          "type": "bytes32"
        },
        {
          "internalType": "address",
          "name": "account",
          "type": "address"
        }
      ],
      "name": "grantRole",
      "outputs": [],
      "stateMutability": "nonpayable",
      "type": "function"
    },
    {
      "inputs": [
        {
          "internalType": "bytes32",
          "name": "role",
          "type": "bytes32"
        },
        {
          "internalType": "address",
          "name": "account",
          "type": "address"
        }
      ],
      "name": "hasRole",
      "outputs": [
        {
          "internalType": "bool",
          "name": "",
          "type": "bool"
        }
      ],
      "stateMutability": "view",
      "type": "function"
    },
    {
      "inputs": [
        {
          "internalType": "address",
          "name": "account",
          "type": "address"
        },
        {
          "internalType": "address",
          "name": "operator",
          "type": "address"
        }
      ],
      "name": "isApprovedForAll",
      "outputs": [
        {
          "internalType": "bool",
          "name": "",
          "type": "bool"
        }
      ],
      "stateMutability": "view",
      "type": "function"
    },
    {
      "inputs": [
        {
          "internalType": "contract IERC721",
          "name": "collection",
          "type": "address"
        },
        {
          "internalType": "uint256",
          "name": "tokenId",
          "type": "uint256"
        }
      ],
      "name": "isLocked",
      "outputs": [
        {
          "internalType": "bool",
          "name": "",
          "type": "bool"
        }
      ],
      "stateMutability": "view",
      "type": "function"
    },
    {
      "inputs": [
        {
          "internalType": "address",
          "name": "from",
          "type": "address"
        },
        {
          "internalType": "address",
          "name": "to",
          "type": "address"
        },
        {
          "internalType": "uint256",
          "name": "amount",
          "type": "uint256"
        }
      ],
      "name": "onERC20Transferred",
      "outputs": [],
      "stateMutability": "nonpayable",
      "type": "function"
    },
    {
      "inputs": [
        {
          "internalType": "address",
          "name": "",
          "type": "address"
        },
        {
          "internalType": "address",
          "name": "",
          "type": "address"
        },
        {
          "internalType": "uint256",
          "name": "tokenId",
          "type": "uint256"
        },
        {
          "internalType": "bytes",
          "name": "data",
          "type": "bytes"
        }
      ],
      "name": "onERC721Received",
      "outputs": [
        {
          "internalType": "bytes4",
          "name": "",
          "type": "bytes4"
        }
      ],
      "stateMutability": "nonpayable",
      "type": "function"
    },
    {
      "inputs": [
        {
          "internalType": "bytes32",
          "name": "role",
          "type": "bytes32"
        },
        {
          "internalType": "address",
          "name": "account",
          "type": "address"
        }
      ],
      "name": "renounceRole",
      "outputs": [],
      "stateMutability": "nonpayable",
      "type": "function"
    },
    {
      "inputs": [
        {
          "internalType": "bytes32",
          "name": "role",
          "type": "bytes32"
        },
        {
          "internalType": "address",
          "name": "account",
          "type": "address"
        }
      ],
      "name": "revokeRole",
      "outputs": [],
      "stateMutability": "nonpayable",
      "type": "function"
    },
    {
      "inputs": [],
      "name": "sERC20Base",
      "outputs": [
        {
          "internalType": "address",
          "name": "",
          "type": "address"
        }
      ],
      "stateMutability": "view",
      "type": "function"
    },
    {
      "inputs": [
        {
          "internalType": "uint256",
          "name": "id",
          "type": "uint256"
        }
      ],
      "name": "sERC20Of",
      "outputs": [
        {
          "internalType": "contract sIERC20",
          "name": "",
          "type": "address"
        }
      ],
      "stateMutability": "pure",
      "type": "function"
    },
    {
      "inputs": [
        {
          "internalType": "address",
          "name": "from",
          "type": "address"
        },
        {
          "internalType": "address",
          "name": "to",
          "type": "address"
        },
        {
          "internalType": "uint256[]",
          "name": "ids",
          "type": "uint256[]"
        },
        {
          "internalType": "uint256[]",
          "name": "amounts",
          "type": "uint256[]"
        },
        {
          "internalType": "bytes",
          "name": "data",
          "type": "bytes"
        }
      ],
      "name": "safeBatchTransferFrom",
      "outputs": [],
      "stateMutability": "nonpayable",
      "type": "function"
    },
    {
      "inputs": [
        {
          "internalType": "address",
          "name": "from",
          "type": "address"
        },
        {
          "internalType": "address",
          "name": "to",
          "type": "address"
        },
        {
          "internalType": "uint256",
          "name": "id",
          "type": "uint256"
        },
        {
          "internalType": "uint256",
          "name": "amount",
          "type": "uint256"
        },
        {
          "internalType": "bytes",
          "name": "data",
          "type": "bytes"
        }
      ],
      "name": "safeTransferFrom",
      "outputs": [],
      "stateMutability": "nonpayable",
      "type": "function"
    },
    {
      "inputs": [
        {
          "internalType": "address",
          "name": "operator",
          "type": "address"
        },
        {
          "internalType": "bool",
          "name": "approved",
          "type": "bool"
        }
      ],
      "name": "setApprovalForAll",
      "outputs": [],
      "stateMutability": "nonpayable",
      "type": "function"
    },
    {
      "inputs": [
        {
          "internalType": "string",
          "name": "unavailableURI_",
          "type": "string"
        }
      ],
      "name": "setUnavailableURI",
      "outputs": [],
      "stateMutability": "nonpayable",
      "type": "function"
    },
    {
      "inputs": [
        {
          "internalType": "string",
          "name": "unlockedURI_",
          "type": "string"
        }
      ],
      "name": "setUnlockedURI",
      "outputs": [],
      "stateMutability": "nonpayable",
      "type": "function"
    },
    {
      "inputs": [
        {
          "internalType": "contract sIERC20",
          "name": "sERC20",
          "type": "address"
        }
      ],
      "name": "spectreOf",
      "outputs": [
        {
          "components": [
            {
              "internalType": "enum Spectres.State",
              "name": "state",
              "type": "uint8"
            },
            {
              "internalType": "contract IERC721",
              "name": "collection",
              "type": "address"
            },
            {
              "internalType": "uint256",
              "name": "tokenId",
              "type": "uint256"
            },
            {
              "internalType": "address",
              "name": "broker",
              "type": "address"
            }
          ],
          "internalType": "struct Spectres.Spectre",
          "name": "",
          "type": "tuple"
        }
      ],
      "stateMutability": "view",
      "type": "function"
    },
    {
      "inputs": [
        {
          "internalType": "uint256",
          "name": "id",
          "type": "uint256"
        }
      ],
      "name": "spectreOf",
      "outputs": [
        {
          "components": [
            {
              "internalType": "enum Spectres.State",
              "name": "state",
              "type": "uint8"
            },
            {
              "internalType": "contract IERC721",
              "name": "collection",
              "type": "address"
            },
            {
              "internalType": "uint256",
              "name": "tokenId",
              "type": "uint256"
            },
            {
              "internalType": "address",
              "name": "broker",
              "type": "address"
            }
          ],
          "internalType": "struct Spectres.Spectre",
          "name": "",
          "type": "tuple"
        }
      ],
      "stateMutability": "view",
      "type": "function"
    },
    {
      "inputs": [
        {
          "internalType": "bytes4",
          "name": "interfaceId",
          "type": "bytes4"
        }
      ],
      "name": "supportsInterface",
      "outputs": [
        {
          "internalType": "bool",
          "name": "",
          "type": "bool"
        }
      ],
      "stateMutability": "view",
      "type": "function"
    },
    {
      "inputs": [
        {
          "internalType": "contract IERC721",
          "name": "collection",
          "type": "address"
        },
        {
          "internalType": "uint256",
          "name": "tokenId",
          "type": "uint256"
        }
      ],
      "name": "tokenTypeOf",
      "outputs": [
        {
          "internalType": "uint256",
          "name": "",
          "type": "uint256"
        }
      ],
      "stateMutability": "view",
      "type": "function"
    },
    {
      "inputs": [],
      "name": "unavailableURI",
      "outputs": [
        {
          "internalType": "string",
          "name": "",
          "type": "string"
        }
      ],
      "stateMutability": "view",
      "type": "function"
    },
    {
      "inputs": [
        {
          "internalType": "contract sIERC20",
          "name": "sERC20",
          "type": "address"
        },
        {
          "internalType": "address",
          "name": "recipient",
          "type": "address"
        },
        {
          "internalType": "bytes",
          "name": "data",
          "type": "bytes"
        }
      ],
      "name": "unlock",
      "outputs": [],
      "stateMutability": "nonpayable",
      "type": "function"
    },
    {
      "inputs": [
        {
          "internalType": "uint256",
          "name": "id",
          "type": "uint256"
        },
        {
          "internalType": "address",
          "name": "recipient",
          "type": "address"
        },
        {
          "internalType": "bytes",
          "name": "data",
          "type": "bytes"
        }
      ],
      "name": "unlock",
      "outputs": [],
      "stateMutability": "nonpayable",
      "type": "function"
    },
    {
      "inputs": [],
      "name": "unlockedURI",
      "outputs": [
        {
          "internalType": "string",
          "name": "",
          "type": "string"
        }
      ],
      "stateMutability": "view",
      "type": "function"
    },
    {
      "inputs": [
        {
          "internalType": "uint256",
          "name": "id",
          "type": "uint256"
        }
      ],
      "name": "uri",
      "outputs": [
        {
          "internalType": "string",
          "name": "",
          "type": "string"
        }
      ],
      "stateMutability": "view",
      "type": "function"
    }
  ],
  "transactionHash": "0x9a42e7c76e495e9f7dd3f5663a3d7067d11873b429793ab8361c62db76c17638",
  "args": [
    "0xFB15Dc1834eD7AC5eF427812e36b5F2372516f5b",
    "ipfs://unavailableURI...",
    "ipfs://unlockedURI..."
  ],
  "bytecode": "0x60806040523480156200001157600080fd5b50604051620045d8380380620045d88339810160408190526200003491620003da565b6001600160a01b038316620000a55760405162461bcd60e51b815260206004820152602d60248201527f5661756c743a2073455243323020626173652063616e6e6f742062652074686560448201526c207a65726f206164647265737360981b606482015260840160405180910390fd5b600280546001600160a01b0319166001600160a01b0385161790558151620000d590600390602085019062000267565b508051620000eb90600490602084019062000267565b50620000f960003362000102565b505050620004a1565b6200011982826200014560201b620022d11760201c565b600082815260016020908152604090912062000140918390620022db62000155821b17901c565b505050565b62000151828262000175565b5050565b60006200016c836001600160a01b03841662000215565b90505b92915050565b6000828152602081815260408083206001600160a01b038516845290915290205460ff1662000151576000828152602081815260408083206001600160a01b03851684529091529020805460ff19166001179055620001d13390565b6001600160a01b0316816001600160a01b0316837f2f8788117e7eff1d82e926ec794901d17c78024a50270940304540a733656f0d60405160405180910390a45050565b60008181526001830160205260408120546200025e575081546001818101845560008481526020808220909301849055845484825282860190935260409020919091556200016f565b5060006200016f565b828054620002759062000464565b90600052602060002090601f016020900481019282620002995760008555620002e4565b82601f10620002b457805160ff1916838001178555620002e4565b82800160010185558215620002e4579182015b82811115620002e4578251825591602001919060010190620002c7565b50620002f2929150620002f6565b5090565b5b80821115620002f25760008155600101620002f7565b634e487b7160e01b600052604160045260246000fd5b600082601f8301126200033557600080fd5b81516001600160401b03808211156200035257620003526200030d565b604051601f8301601f19908116603f011681019082821181831017156200037d576200037d6200030d565b816040528381526020925086838588010111156200039a57600080fd5b600091505b83821015620003be57858201830151818301840152908201906200039f565b83821115620003d05760008385830101525b9695505050505050565b600080600060608486031215620003f057600080fd5b83516001600160a01b03811681146200040857600080fd5b60208501519093506001600160401b03808211156200042657600080fd5b620004348783880162000323565b935060408601519150808211156200044b57600080fd5b506200045a8682870162000323565b9150509250925092565b600181811c908216806200047957607f821691505b602082108114156200049b57634e487b7160e01b600052602260045260246000fd5b50919050565b61412780620004b16000396000f3fe608060405234801561001057600080fd5b506004361061020a5760003560e01c80639010d07c1161012a578063ca15c873116100bd578063e85b23e21161008c578063f242432a11610071578063f242432a1461055c578063f3da17e81461056f578063f92c6fcd1461058257600080fd5b8063e85b23e21461050d578063e985e9c51461052057600080fd5b8063ca15c8731461049e578063d1783e34146104b1578063d547741f146104c4578063e0c9e335146104d757600080fd5b8063a217fddf116100f9578063a217fddf1461045f578063a22cb46514610467578063b4151d551461047a578063c8ae4ca11461048d57600080fd5b80639010d07c146103b257806391d14854146103dd578063982958671461041457806399cca36c1461042757600080fd5b8063331d8e5d116101a25780635555b5f5116101715780635555b5f51461035057806375d45368146103585780637b16d2a41461037f5780638a9f04cf1461039f57600080fd5b8063331d8e5d146102f757806336568abe1461030a5780633b285d031461031d5780634e1273f41461033057600080fd5b806317e1c831116101de57806317e1c831146102a4578063248a9ca3146102ac5780632eb2c2d6146102cf5780632f2ff15d146102e457600080fd5b8062fdd58e1461020f57806301ffc9a7146102355780630e89341c14610258578063150b7a0214610278575b600080fd5b61022261021d3660046133d3565b610595565b6040519081526020015b60405180910390f35b610248610243366004613415565b6106e6565b604051901515815260200161022c565b61026b610266366004613432565b61078c565b60405161022c91906134a7565b61028b610286366004613503565b610935565b6040516001600160e01b0319909116815260200161022c565b61026b610c05565b6102226102ba366004613432565b60009081526020819052604090206001015490565b6102e26102dd3660046135bb565b610c97565b005b6102e26102f236600461367a565b611019565b6102e26103053660046136aa565b611040565b6102e261031836600461367a565b6111af565b6102e261032b36600461370f565b6111d1565b61034361033e366004613750565b611463565b60405161022c91906137eb565b61026b6115ad565b6102227f1d2496c631fd6d8be20fb18c5c1fa9499e1f28016c62da960ec6dcf752f2f7ce81565b61039261038d3660046137fe565b6115bc565b60405161022c9190613831565b6102226103ad366004613954565b611664565b6103c56103c0366004613a05565b61199b565b6040516001600160a01b03909116815260200161022c565b6102486103eb36600461367a565b6000918252602082815260408084206001600160a01b0393909316845291905290205460ff1690565b6103c5610422366004613432565b6119b3565b6102486104353660046133d3565b6001600160a01b039190911660009081526007602090815260408083209383529290522054151590565b610222600081565b6102e2610475366004613a35565b6119bb565b6102e2610488366004613a63565b611aa6565b6002546001600160a01b03166103c5565b6102226104ac366004613432565b611b3a565b6102e26104bf366004613a63565b611b51565b6102e26104d236600461367a565b611be1565b6102226104e53660046133d3565b6001600160a01b03919091166000908152600760209081526040808320938352929052205490565b61039261051b366004613432565b611beb565b61024861052e366004613aa0565b6001600160a01b03918216600090815260056020908152604080832093909416825291909152205460ff1690565b6102e261056a366004613ace565b611c40565b6102e261057d366004613b4a565b611ea7565b6102e2610590366004613b72565b612003565b60006001600160a01b0383166106185760405162461bcd60e51b815260206004820152602960248201527f5661756c743a2062616c616e636520717565727920666f7220746865207a657260448201527f6f2061646472657373000000000000000000000000000000000000000000000060648201526084015b60405180910390fd5b60008281526006602052604081205460ff16600281111561063b5761063b61381b565b14156106485760006106dd565b816040517f70a082310000000000000000000000000000000000000000000000000000000081526001600160a01b03858116600483015291909116906370a082319060240160206040518083038186803b1580156106a557600080fd5b505afa1580156106b9573d6000803e3d6000fd5b505050506040513d601f19601f820116820180604052508101906106dd9190613bc8565b90505b92915050565b60006001600160e01b031982167fd9b67a2600000000000000000000000000000000000000000000000000000000148061074957506001600160e01b031982167f0e89341c00000000000000000000000000000000000000000000000000000000145b8061077d57506001600160e01b031982167f150b7a0200000000000000000000000000000000000000000000000000000000145b806106e057506106e0826122f0565b60008181526006602052604090206060906001815460ff1660028111156107b5576107b561381b565b14156108f457805460018201546040517fc87b56dd00000000000000000000000000000000000000000000000000000000815260048101919091526101009091046001600160a01b03169063c87b56dd9060240160006040518083038186803b15801561082157600080fd5b505afa92505050801561085657506040513d6000823e601f3d908101601f191682016040526108539190810190613be1565b60015b6108ed576003805461086790613c59565b80601f016020809104026020016040519081016040528092919081815260200182805461089390613c59565b80156108e05780601f106108b5576101008083540402835291602001916108e0565b820191906000526020600020905b8154815290600101906020018083116108c357829003601f168201915b5050505050915050919050565b9392505050565b6002815460ff16600281111561090c5761090c61381b565b141561091f576004805461086790613c59565b5050604080516020810190915260008152919050565b600080336040516301ffc9a760e01b81527f80ac58cd0000000000000000000000000000000000000000000000000000000060048201529091506001600160a01b038216906301ffc9a79060240160206040518083038186803b15801561099b57600080fd5b505afa1580156109af573d6000803e3d6000fd5b505050506040513d601f19601f820116820180604052508101906109d39190613c94565b610a455760405162461bcd60e51b815260206004820152602260248201527f5661756c743a204e4654206973206e6f74204552433732312d636f6d706c696160448201527f6e74000000000000000000000000000000000000000000000000000000000000606482015260840161060f565b60c08314610abb5760405162461bcd60e51b815260206004820152602c60248201527f5661756c743a20696e76616c6964206672616374696f6e616c697a6174696f6e60448201527f2064617461206c656e6774680000000000000000000000000000000000000000606482015260840161060f565b600084848080601f0160208091040260200160405190810160405280939291908181526020018383808284376000920191909152505050602082015160408301516060840151608085015160a086015160c08701519697509395929450909290917f1d2496c631fd6d8be20fb18c5c1fa9499e1f28016c62da960ec6dcf752f2f7ce8114610bb15760405162461bcd60e51b815260206004820152602560248201527f5661756c743a20696e76616c6964206672616374696f6e616c697a6174696f6e60448201527f2064617461000000000000000000000000000000000000000000000000000000606482015260840161060f565b610bd1888d8a610bc08a61232e565b610bc98a61232e565b898989612491565b507f150b7a02000000000000000000000000000000000000000000000000000000009e9d5050505050505050505050505050565b606060048054610c1490613c59565b80601f0160208091040260200160405190810160405280929190818152602001828054610c4090613c59565b8015610c8d5780601f10610c6257610100808354040283529160200191610c8d565b820191906000526020600020905b815481529060010190602001808311610c7057829003601f168201915b5050505050905090565b33838614610d0d5760405162461bcd60e51b815260206004820152602660248201527f5661756c743a2069647320616e6420616d6f756e7473206c656e677468206d6960448201527f736d617463680000000000000000000000000000000000000000000000000000606482015260840161060f565b6001600160a01b038816610d895760405162461bcd60e51b815260206004820152602360248201527f5661756c743a207472616e7366657220746f20746865207a65726f206164647260448201527f6573730000000000000000000000000000000000000000000000000000000000606482015260840161060f565b806001600160a01b0316896001600160a01b03161480610dce57506001600160a01b03808a1660009081526005602090815260408083209385168352929052205460ff165b610e405760405162461bcd60e51b815260206004820152602c60248201527f5661756c743a206d757374206265206f776e6572206f7220617070726f76656460448201527f20746f207472616e736665720000000000000000000000000000000000000000606482015260840161060f565b60005b86811015610f0e57610e6a888883818110610e6057610e60613cb1565b9050602002013590565b6001600160a01b0316631481026a8b8b898986818110610e8c57610e8c613cb1565b6040516001600160e01b031960e088901b1681526001600160a01b03958616600482015294909316602485015250602090910201356044820152606401600060405180830381600087803b158015610ee357600080fd5b505af1158015610ef7573d6000803e3d6000fd5b505050508080610f0690613cdd565b915050610e43565b50876001600160a01b0316896001600160a01b0316826001600160a01b03167f4a39dc06d4c0dbc64b70af90fd698a233a518aa5d07e595d983b8c0526c8f7fb8a8a8a8a604051610f629493929190613d47565b60405180910390a461100e818a8a8a8a8080602002602001604051908101604052809392919081815260200183836020028082843760009201919091525050604080516020808e0282810182019093528d82529093508d92508c91829185019084908082843760009201919091525050604080516020601f8d018190048102820181019092528b815292508b91508a90819084018382808284376000920191909152506126d692505050565b505050505050505050565b61102382826128a1565b600082815260016020526040902061103b90826122db565b505050565b6001600160a01b0384166000818152600660205260409020805460019060ff1660028111156110715761107161381b565b146110be5760405162461bcd60e51b815260206004820152601c60248201527f5661756c743a2073706563747265206973206e6f74206c6f636b656400000000604482015260640161060f565b60028101546001600160a01b0316336001600160a01b0316146111495760405162461bcd60e51b815260206004820152602960248201527f5661756c743a206d757374206265207370656374726527732062726f6b65722060448201527f746f20756e6c6f636b0000000000000000000000000000000000000000000000606482015260840161060f565b6111a78160000160019054906101000a90046001600160a01b03168260010154848888888080601f0160208091040260200160405190810160405280939291908181526020018383808284376000920191909152506128c792505050565b505050505050565b6111b982826129ba565b600082815260016020526040902061103b9082612a42565b3360008181526006602052604081205482919060ff1660028111156111f8576111f861381b565b141561126c5760405162461bcd60e51b815260206004820152602a60248201527f5661756c743a206d7573742062652073455243323020746f207573652074726160448201527f6e7366657220686f6f6b00000000000000000000000000000000000000000000606482015260840161060f565b836001600160a01b0316856001600160a01b0316836001600160a01b03167fc3d58168c5ae7397731d063d5bbf3d657854427343f4c083240f7aacaa2d0f6284876040516112c4929190918252602082015260400190565b60405180910390a46112ff6001600160a01b0385167f4e2312e000000000000000000000000000000000000000000000000000000000612a57565b1561145c5760405163f23a6e6160e01b81526001600160a01b0383811660048301528681166024830152604482018390526064820185905260a06084830152600060a483015285169063f23a6e619060c401602060405180830381600087803b15801561136b57600080fd5b505af192505050801561139b575060408051601f3d908101601f1916820190925261139891810190613d79565b60015b6113ed576113a7613d96565b806308c379a014156113e157506113bc613db2565b806113c757506113e3565b8060405162461bcd60e51b815260040161060f91906134a7565b505b3d6000803e3d6000fd5b6001600160e01b0319811663f23a6e6160e01b146111a75760405162461bcd60e51b815260206004820152602660248201527f5661756c743a204552433131353552656365697665722072656a656374656420604482015265746f6b656e7360d01b606482015260840161060f565b5050505050565b60608382146114da5760405162461bcd60e51b815260206004820152602760248201527f5661756c743a206163636f756e747320616e6420696473206c656e677468206d60448201527f69736d6174636800000000000000000000000000000000000000000000000000606482015260840161060f565b60008467ffffffffffffffff8111156114f5576114f561388d565b60405190808252806020026020018201604052801561151e578160200160208202803683370190505b50905060005b858110156115a35761157487878381811061154157611541613cb1565b905060200201602081019061155691906137fe565b86868481811061156857611568613cb1565b90506020020135610595565b82828151811061158657611586613cb1565b60209081029190910101528061159b81613cdd565b915050611524565b5095945050505050565b606060038054610c1490613c59565b6040805160808101825260008082526020820181905291810182905260608101919091526001600160a01b038216600090815260066020526040908190208151608081019092528054829060ff16600281111561161b5761161b61381b565b600281111561162c5761162c61381b565b815281546001600160a01b03610100909104811660208301526001830154604083015260029092015490911660609091015292915050565b6040516301ffc9a760e01b81527f80ac58cd0000000000000000000000000000000000000000000000000000000060048201526000906001600160a01b038916906301ffc9a79060240160206040518083038186803b1580156116c657600080fd5b505afa1580156116da573d6000803e3d6000fd5b505050506040513d601f19601f820116820180604052508101906116fe9190613c94565b6117705760405162461bcd60e51b815260206004820152602260248201527f5661756c743a204e4654206973206e6f74204552433732312d636f6d706c696160448201527f6e74000000000000000000000000000000000000000000000000000000000000606482015260840161060f565b6001600160a01b03881660009081526007602090815260408083208a8452909152902054156117e15760405162461bcd60e51b815260206004820152601c60248201527f5661756c743a204e465420697320616c7265616479206c6f636b656400000000604482015260640161060f565b6040517f6352211e000000000000000000000000000000000000000000000000000000008152600481018890526000906001600160a01b038a1690636352211e9060240160206040518083038186803b15801561183d57600080fd5b505afa158015611851573d6000803e3d6000fd5b505050506040513d601f19601f820116820180604052508101906118759190613e5a565b90506001600160a01b0381163014156118f65760405162461bcd60e51b815260206004820152602960248201527f5661756c743a204e465420697320616c7265616479206f776e6564206279207460448201527f686973207661756c740000000000000000000000000000000000000000000000606482015260840161060f565b60006119088a8a338b8b8b8b8b612491565b6040517f23b872dd0000000000000000000000000000000000000000000000000000000081526001600160a01b038481166004830152306024830152604482018c9052919250908b16906323b872dd90606401600060405180830381600087803b15801561197557600080fd5b505af1158015611989573d6000803e3d6000fd5b50929c9b505050505050505050505050565b60008281526001602052604081206106dd9083612a73565b6000816106e0565b336001600160a01b0383161415611a3a5760405162461bcd60e51b815260206004820152602760248201527f5661756c743a2073657474696e6720617070726f76616c20737461747573206660448201527f6f722073656c6600000000000000000000000000000000000000000000000000606482015260840161060f565b3360008181526005602090815260408083206001600160a01b03871680855290835292819020805460ff191686151590811790915590519081529192917f17307eab39ab6107e8899845ad3d59bd9653f200f220920489ca2b5937696c31910160405180910390a35050565b611ab16000336103eb565b611b235760405162461bcd60e51b815260206004820152603660248201527f5661756c743a206d75737420686176652044454641554c545f41444d494e5f5260448201527f4f4c4520746f2073657420756e6c6f636b656455524900000000000000000000606482015260840161060f565b8051611b36906004906020840190613322565b5050565b60008181526001602052604081206106e090612a7f565b611b5c6000336103eb565b611bce5760405162461bcd60e51b815260206004820152603960248201527f5661756c743a206d75737420686176652044454641554c545f41444d494e5f5260448201527f4f4c4520746f2073657420756e617661696c61626c6555524900000000000000606482015260840161060f565b8051611b36906003906020840190613322565b6111b98282612a89565b604080516080810182526000808252602082018190529181018290526060810191909152600082815260066020526040908190208151608081019092528054829060ff16600281111561161b5761161b61381b565b336001600160a01b038616611cbd5760405162461bcd60e51b815260206004820152602360248201527f5661756c743a207472616e7366657220746f20746865207a65726f206164647260448201527f6573730000000000000000000000000000000000000000000000000000000000606482015260840161060f565b806001600160a01b0316876001600160a01b03161480611d0257506001600160a01b0380881660009081526005602090815260408083209385168352929052205460ff165b611d745760405162461bcd60e51b815260206004820152602c60248201527f5661756c743a206d757374206265206f776e6572206f7220617070726f76656460448201527f20746f207472616e736665720000000000000000000000000000000000000000606482015260840161060f565b846040517f1481026a0000000000000000000000000000000000000000000000000000000081526001600160a01b0389811660048301528881166024830152604482018790529190911690631481026a90606401600060405180830381600087803b158015611de257600080fd5b505af1158015611df6573d6000803e3d6000fd5b50505050856001600160a01b0316876001600160a01b0316826001600160a01b03167fc3d58168c5ae7397731d063d5bbf3d657854427343f4c083240f7aacaa2d0f628888604051611e52929190918252602082015260400190565b60405180910390a4611e9e818888888888888080601f016020809104026020016040519081016040528093929190818152602001838380828437600092019190915250612aaf92505050565b50505050505050565b60008481526006602052604090206001815460ff166002811115611ecd57611ecd61381b565b14611f1a5760405162461bcd60e51b815260206004820152601c60248201527f5661756c743a2073706563747265206973206e6f74206c6f636b656400000000604482015260640161060f565b60028101546001600160a01b0316336001600160a01b031614611fa55760405162461bcd60e51b815260206004820152602960248201527f5661756c743a206d757374206265207370656374726527732062726f6b65722060448201527f746f20756e6c6f636b0000000000000000000000000000000000000000000000606482015260840161060f565b61145c8160000160019054906101000a90046001600160a01b03168260010154878787878080601f0160208091040260200160405190810160405280939291908181526020018383808284376000920191909152506128c792505050565b61200e6000336103eb565b6120805760405162461bcd60e51b815260206004820152603260248201527f5661756c743a206d75737420686176652044454641554c545f41444d494e5f5260448201527f4f4c4520746f20657363617065204e4654730000000000000000000000000000606482015260840161060f565b6001600160a01b0385166000908152600760209081526040808320878452909152902054156120f15760405162461bcd60e51b815260206004820152601460248201527f5661756c743a204e4654206973206c6f636b6564000000000000000000000000604482015260640161060f565b6040517f6352211e0000000000000000000000000000000000000000000000000000000081526004810185905230906001600160a01b03871690636352211e9060240160206040518083038186803b15801561214c57600080fd5b505afa158015612160573d6000803e3d6000fd5b505050506040513d601f19601f820116820180604052508101906121849190613e5a565b6001600160a01b0316146122005760405162461bcd60e51b815260206004820152602560248201527f5661756c743a204e4654206973206e6f74206f776e656420627920746869732060448201527f7661756c74000000000000000000000000000000000000000000000000000000606482015260840161060f565b6040517fb88d4fde0000000000000000000000000000000000000000000000000000000081526001600160a01b0386169063b88d4fde9061224d9030908790899088908890600401613e77565b600060405180830381600087803b15801561226757600080fd5b505af115801561227b573d6000803e3d6000fd5b5050604080516001600160a01b0389811682526020820189905287168183015290517f870ce74c76ee54bc1a41d35fcbfbbd81d69a57497398e3e7dd9edb28780d83419350908190036060019150a15050505050565b611b368282612bb8565b60006106dd836001600160a01b038416612c56565b60006001600160e01b031982167f5a05180f0000000000000000000000000000000000000000000000000000000014806106e057506106e082612ca5565b606060005b602081108015612379575082816020811061235057612350613cb1565b1a60f81b7fff000000000000000000000000000000000000000000000000000000000000001615155b15612390578061238881613cdd565b915050612333565b60008167ffffffffffffffff8111156123ab576123ab61388d565b6040519080825280601f01601f1916602001820160405280156123d5576020820181803683370190505b509050600091505b60208210801561242357508382602081106123fa576123fa613cb1565b1a60f81b7fff000000000000000000000000000000000000000000000000000000000000001615155b156108ed5783826020811061243a5761243a613cb1565b1a60f81b81838151811061245057612450613cb1565b60200101907effffffffffffffffffffffffffffffffffffffffffffffffffffffffffffff1916908160001a9053508161248981613cdd565b9250506123dd565b60025460009081906124ab906001600160a01b0316612cf3565b905060006001600160a01b038216604080516080810190915290915080600181526001600160a01b03808e1660208084019190915260408084018f905291881660609093019290925260008481526006909252902081518154829060ff1916600183600281111561251e5761251e61381b565b021790555060208281015182547fffffffffffffffffffffff0000000000000000000000000000000000000000ff166101006001600160a01b03928316021783556040808501516001850155606090940151600290930180547fffffffffffffffffffffffff000000000000000000000000000000000000000016938216939093179092558d82166000908152600782528381208e825290915282902083905590517fbd3a13f60000000000000000000000000000000000000000000000000000000081529083169063bd3a13f690612601908b908b908b908b90600401613ecb565b600060405180830381600087803b15801561261b57600080fd5b505af115801561262f573d6000803e3d6000fd5b50506040805184815260006020820181905293508392506001600160a01b038d16917fc3d58168c5ae7397731d063d5bbf3d657854427343f4c083240f7aacaa2d0f62910160405180910390a4604080516001600160a01b038481168252868116602083015283928d92918f16917f0ee6c61f315def902fdd6cc60db24f051dd4b66a6ced37ca3aa3866a4271bace910160405180910390a49a9950505050505050505050565b6001600160a01b0384163b156111a7576040517fbc197c810000000000000000000000000000000000000000000000000000000081526001600160a01b0385169063bc197c81906127339089908990889088908890600401613f11565b602060405180830381600087803b15801561274d57600080fd5b505af192505050801561277d575060408051601f3d908101601f1916820190925261277a91810190613d79565b60015b61281957612789613d96565b806308c379a014156127a9575061279e613db2565b806113c757506127ab565b505b60405162461bcd60e51b815260206004820152603260248201527f5661756c743a207472616e7366657220746f206e6f6e2045524331313535526560448201527f63656976657220696d706c656d656e7465720000000000000000000000000000606482015260840161060f565b6001600160e01b031981167fbc197c810000000000000000000000000000000000000000000000000000000014611e9e5760405162461bcd60e51b815260206004820152602660248201527f5661756c743a204552433131353552656365697665722072656a656374656420604482015265746f6b656e7360d01b606482015260840161060f565b6000828152602081905260409020600101546128bd8133612dae565b61103b8383612bb8565b6000838152600660209081526040808320805460ff191660021790556001600160a01b038816808452600783528184208885529092528083209290925590517fb88d4fde00000000000000000000000000000000000000000000000000000000815263b88d4fde90612943903090869089908790600401613f6f565b600060405180830381600087803b15801561295d57600080fd5b505af1158015612971573d6000803e3d6000fd5b50506040516001600160a01b03851681528592507f027d6c6704a7913d85498305191e7bb755d64034c42fb5169c726408f65b3ce2915060200160405180910390a25050505050565b6001600160a01b0381163314612a385760405162461bcd60e51b815260206004820152602f60248201527f416363657373436f6e74726f6c3a2063616e206f6e6c792072656e6f756e636560448201527f20726f6c657320666f722073656c660000000000000000000000000000000000606482015260840161060f565b611b368282612e2c565b60006106dd836001600160a01b038416612eab565b6000612a6283612f9e565b80156106dd57506106dd8383612fd1565b60006106dd83836130cf565b60006106e0825490565b600082815260208190526040902060010154612aa58133612dae565b61103b8383612e2c565b6001600160a01b0384163b156111a75760405163f23a6e6160e01b81526001600160a01b0385169063f23a6e6190612af39089908990889088908890600401613fa1565b602060405180830381600087803b158015612b0d57600080fd5b505af1925050508015612b3d575060408051601f3d908101601f19168201909252612b3a91810190613d79565b60015b612b4957612789613d96565b6001600160e01b0319811663f23a6e6160e01b14611e9e5760405162461bcd60e51b815260206004820152602660248201527f5661756c743a204552433131353552656365697665722072656a656374656420604482015265746f6b656e7360d01b606482015260840161060f565b6000828152602081815260408083206001600160a01b038516845290915290205460ff16611b36576000828152602081815260408083206001600160a01b03851684529091529020805460ff19166001179055612c123390565b6001600160a01b0316816001600160a01b0316837f2f8788117e7eff1d82e926ec794901d17c78024a50270940304540a733656f0d60405160405180910390a45050565b6000818152600183016020526040812054612c9d575081546001818101845560008481526020808220909301849055845484825282860190935260409020919091556106e0565b5060006106e0565b60006001600160e01b031982167f7965db0b0000000000000000000000000000000000000000000000000000000014806106e057506301ffc9a760e01b6001600160e01b03198316146106e0565b60006040517f3d602d80600a3d3981f3363d3d373d3d3d363d7300000000000000000000000081528260601b60148201527f5af43d82803e903d91602b57fd5bf3000000000000000000000000000000000060288201526037816000f09150506001600160a01b038116612da95760405162461bcd60e51b815260206004820152601660248201527f455243313136373a20637265617465206661696c656400000000000000000000604482015260640161060f565b919050565b6000828152602081815260408083206001600160a01b038516845290915290205460ff16611b3657612dea816001600160a01b031660146130f9565b612df58360206130f9565b604051602001612e06929190613fd9565b60408051601f198184030181529082905262461bcd60e51b825261060f916004016134a7565b6000828152602081815260408083206001600160a01b038516845290915290205460ff1615611b36576000828152602081815260408083206001600160a01b0385168085529252808320805460ff1916905551339285917ff6391f5c32d9c69d2a47ea670b442974b53935d1edc7fd64eb21e047a839171b9190a45050565b60008181526001830160205260408120548015612f94576000612ecf60018361405a565b8554909150600090612ee39060019061405a565b9050818114612f48576000866000018281548110612f0357612f03613cb1565b9060005260206000200154905080876000018481548110612f2657612f26613cb1565b6000918252602080832090910192909255918252600188019052604090208390555b8554869080612f5957612f59614071565b6001900381819060005260206000200160009055905585600101600086815260200190815260200160002060009055600193505050506106e0565b60009150506106e0565b6000612fb1826301ffc9a760e01b612fd1565b80156106e05750612fca826001600160e01b0319612fd1565b1592915050565b604080516001600160e01b0319831660248083019190915282518083039091018152604490910182526020810180517bffffffffffffffffffffffffffffffffffffffffffffffffffffffff166301ffc9a760e01b179052905160009190829081906001600160a01b038716906175309061304d908690614087565b6000604051808303818686fa925050503d8060008114613089576040519150601f19603f3d011682016040523d82523d6000602084013e61308e565b606091505b50915091506020815110156130a957600093505050506106e0565b8180156130c55750808060200190518101906130c59190613c94565b9695505050505050565b60008260000182815481106130e6576130e6613cb1565b9060005260206000200154905092915050565b606060006131088360026140a3565b6131139060026140c2565b67ffffffffffffffff81111561312b5761312b61388d565b6040519080825280601f01601f191660200182016040528015613155576020820181803683370190505b5090507f30000000000000000000000000000000000000000000000000000000000000008160008151811061318c5761318c613cb1565b60200101907effffffffffffffffffffffffffffffffffffffffffffffffffffffffffffff1916908160001a9053507f7800000000000000000000000000000000000000000000000000000000000000816001815181106131ef576131ef613cb1565b60200101907effffffffffffffffffffffffffffffffffffffffffffffffffffffffffffff1916908160001a905350600061322b8460026140a3565b6132369060016140c2565b90505b60018111156132d3577f303132333435363738396162636465660000000000000000000000000000000085600f166010811061327757613277613cb1565b1a60f81b82828151811061328d5761328d613cb1565b60200101907effffffffffffffffffffffffffffffffffffffffffffffffffffffffffffff1916908160001a90535060049490941c936132cc816140da565b9050613239565b5083156106dd5760405162461bcd60e51b815260206004820181905260248201527f537472696e67733a20686578206c656e67746820696e73756666696369656e74604482015260640161060f565b82805461332e90613c59565b90600052602060002090601f0160209004810192826133505760008555613396565b82601f1061336957805160ff1916838001178555613396565b82800160010185558215613396579182015b8281111561339657825182559160200191906001019061337b565b506133a29291506133a6565b5090565b5b808211156133a257600081556001016133a7565b6001600160a01b03811681146133d057600080fd5b50565b600080604083850312156133e657600080fd5b82356133f1816133bb565b946020939093013593505050565b6001600160e01b0319811681146133d057600080fd5b60006020828403121561342757600080fd5b81356106dd816133ff565b60006020828403121561344457600080fd5b5035919050565b60005b8381101561346657818101518382015260200161344e565b83811115613475576000848401525b50505050565b6000815180845261349381602086016020860161344b565b601f01601f19169290920160200192915050565b6020815260006106dd602083018461347b565b60008083601f8401126134cc57600080fd5b50813567ffffffffffffffff8111156134e457600080fd5b6020830191508360208285010111156134fc57600080fd5b9250929050565b60008060008060006080868803121561351b57600080fd5b8535613526816133bb565b94506020860135613536816133bb565b935060408601359250606086013567ffffffffffffffff81111561355957600080fd5b613565888289016134ba565b969995985093965092949392505050565b60008083601f84011261358857600080fd5b50813567ffffffffffffffff8111156135a057600080fd5b6020830191508360208260051b85010111156134fc57600080fd5b60008060008060008060008060a0898b0312156135d757600080fd5b88356135e2816133bb565b975060208901356135f2816133bb565b9650604089013567ffffffffffffffff8082111561360f57600080fd5b61361b8c838d01613576565b909850965060608b013591508082111561363457600080fd5b6136408c838d01613576565b909650945060808b013591508082111561365957600080fd5b506136668b828c016134ba565b999c989b5096995094979396929594505050565b6000806040838503121561368d57600080fd5b82359150602083013561369f816133bb565b809150509250929050565b600080600080606085870312156136c057600080fd5b84356136cb816133bb565b935060208501356136db816133bb565b9250604085013567ffffffffffffffff8111156136f757600080fd5b613703878288016134ba565b95989497509550505050565b60008060006060848603121561372457600080fd5b833561372f816133bb565b9250602084013561373f816133bb565b929592945050506040919091013590565b6000806000806040858703121561376657600080fd5b843567ffffffffffffffff8082111561377e57600080fd5b61378a88838901613576565b909650945060208701359150808211156137a357600080fd5b5061370387828801613576565b600081518084526020808501945080840160005b838110156137e0578151875295820195908201906001016137c4565b509495945050505050565b6020815260006106dd60208301846137b0565b60006020828403121561381057600080fd5b81356106dd816133bb565b634e487b7160e01b600052602160045260246000fd5b815160808201906003811061385657634e487b7160e01b600052602160045260246000fd5b8083525060208301516001600160a01b03808216602085015260408501516040850152806060860151166060850152505092915050565b634e487b7160e01b600052604160045260246000fd5b601f19601f830116810181811067ffffffffffffffff821117156138c9576138c961388d565b6040525050565b600067ffffffffffffffff8211156138ea576138ea61388d565b50601f01601f191660200190565b600082601f83011261390957600080fd5b8135613914816138d0565b60405161392182826138a3565b82815285602084870101111561393657600080fd5b82602086016020830137600092810160200192909252509392505050565b600080600080600080600060e0888a03121561396f57600080fd5b873561397a816133bb565b965060208801359550604088013567ffffffffffffffff8082111561399e57600080fd5b6139aa8b838c016138f8565b965060608a01359150808211156139c057600080fd5b506139cd8a828b016138f8565b9450506080880135925060a08801356139e5816133bb565b915060c08801356139f5816133bb565b8091505092959891949750929550565b60008060408385031215613a1857600080fd5b50508035926020909101359150565b80151581146133d057600080fd5b60008060408385031215613a4857600080fd5b8235613a53816133bb565b9150602083013561369f81613a27565b600060208284031215613a7557600080fd5b813567ffffffffffffffff811115613a8c57600080fd5b613a98848285016138f8565b949350505050565b60008060408385031215613ab357600080fd5b8235613abe816133bb565b9150602083013561369f816133bb565b60008060008060008060a08789031215613ae757600080fd5b8635613af2816133bb565b95506020870135613b02816133bb565b94506040870135935060608701359250608087013567ffffffffffffffff811115613b2c57600080fd5b613b3889828a016134ba565b979a9699509497509295939492505050565b60008060008060608587031215613b6057600080fd5b8435935060208501356136db816133bb565b600080600080600060808688031215613b8a57600080fd5b8535613b95816133bb565b9450602086013593506040860135613bac816133bb565b9250606086013567ffffffffffffffff81111561355957600080fd5b600060208284031215613bda57600080fd5b5051919050565b600060208284031215613bf357600080fd5b815167ffffffffffffffff811115613c0a57600080fd5b8201601f81018413613c1b57600080fd5b8051613c26816138d0565b604051613c3382826138a3565b828152866020848601011115613c4857600080fd5b6130c583602083016020870161344b565b600181811c90821680613c6d57607f821691505b60208210811415613c8e57634e487b7160e01b600052602260045260246000fd5b50919050565b600060208284031215613ca657600080fd5b81516106dd81613a27565b634e487b7160e01b600052603260045260246000fd5b634e487b7160e01b600052601160045260246000fd5b6000600019821415613cf157613cf1613cc7565b5060010190565b81835260007f07ffffffffffffffffffffffffffffffffffffffffffffffffffffffffffffff831115613d2a57600080fd5b8260051b8083602087013760009401602001938452509192915050565b604081526000613d5b604083018688613cf8565b8281036020840152613d6e818587613cf8565b979650505050505050565b600060208284031215613d8b57600080fd5b81516106dd816133ff565b600060033d1115613daf5760046000803e5060005160e01c5b90565b600060443d1015613dc05790565b6040517ffffffffffffffffffffffffffffffffffffffffffffffffffffffffffffffffc803d016004833e81513d67ffffffffffffffff8160248401118184111715613e0e57505050505090565b8285019150815181811115613e265750505050505090565b843d8701016020828501011115613e405750505050505090565b613e4f602082860101876138a3565b509095945050505050565b600060208284031215613e6c57600080fd5b81516106dd816133bb565b60006001600160a01b03808816835280871660208401525084604083015260806060830152826080830152828460a0840137600060a0848401015260a0601f19601f85011683010190509695505050505050565b608081526000613ede608083018761347b565b8281036020840152613ef0818761347b565b9150508360408301526001600160a01b038316606083015295945050505050565b60006001600160a01b03808816835280871660208401525060a06040830152613f3d60a08301866137b0565b8281036060840152613f4f81866137b0565b90508281036080840152613f63818561347b565b98975050505050505050565b60006001600160a01b038087168352808616602084015250836040830152608060608301526130c5608083018461347b565b60006001600160a01b03808816835280871660208401525084604083015283606083015260a06080830152613d6e60a083018461347b565b7f416363657373436f6e74726f6c3a206163636f756e742000000000000000000081526000835161401181601785016020880161344b565b7f206973206d697373696e6720726f6c6520000000000000000000000000000000601791840191820152835161404e81602884016020880161344b565b01602801949350505050565b60008282101561406c5761406c613cc7565b500390565b634e487b7160e01b600052603160045260246000fd5b6000825161409981846020870161344b565b9190910192915050565b60008160001904831182151516156140bd576140bd613cc7565b500290565b600082198211156140d5576140d5613cc7565b500190565b6000816140e9576140e9613cc7565b50600019019056fea26469706673582212200e8942a1a45225dd33395c6ff5aad716ebd5c90d5865d6daa3fde8b1a5306fbd64736f6c63430008090033"
}