{
  "address": "0xD8B7df28c96be82AcE3b35Cd56D5Ad4869CBb373",
  "abi": [
    {
      "inputs": [
        {
          "internalType": "contract IBVault",
          "name": "vault_",
          "type": "address"
        },
        {
          "internalType": "contract IFractionalizationBootstrappingPoolFactory",
          "name": "poolFactory_",
          "type": "address"
        },
        {
          "internalType": "address",
          "name": "splitter_",
          "type": "address"
        },
        {
          "internalType": "address",
          "name": "bank_",
          "type": "address"
        },
        {
          "internalType": "uint256",
          "name": "protocolFee_",
          "type": "uint256"
        }
      ],
      "stateMutability": "nonpayable",
      "type": "constructor"
    },
    {
      "anonymous": false,
      "inputs": [
        {
          "indexed": true,
          "internalType": "contract sIERC20",
          "name": "sERC20",
          "type": "address"
        },
        {
          "indexed": true,
          "internalType": "uint256",
          "name": "proposalId",
          "type": "uint256"
        }
      ],
      "name": "AcceptProposal",
      "type": "event"
    },
    {
      "anonymous": false,
      "inputs": [
        {
          "indexed": true,
          "internalType": "contract sIERC20",
          "name": "sERC20",
          "type": "address"
        }
      ],
      "name": "Close",
      "type": "event"
    },
    {
      "anonymous": false,
      "inputs": [
        {
          "indexed": true,
          "internalType": "contract sIERC20",
          "name": "sERC20",
          "type": "address"
        },
        {
          "indexed": true,
          "internalType": "uint256",
          "name": "proposalId",
          "type": "uint256"
        },
        {
          "indexed": true,
          "internalType": "address",
          "name": "buyer",
          "type": "address"
        },
        {
          "indexed": false,
          "internalType": "uint256",
          "name": "value",
          "type": "uint256"
        },
        {
          "indexed": false,
          "internalType": "uint256",
          "name": "price",
          "type": "uint256"
        },
        {
          "indexed": false,
          "internalType": "uint256",
          "name": "expiration",
          "type": "uint256"
        }
      ],
      "name": "CreateProposal",
      "type": "event"
    },
    {
      "anonymous": false,
      "inputs": [
        {
          "indexed": true,
          "internalType": "contract sIERC20",
          "name": "sERC20",
          "type": "address"
        }
      ],
      "name": "EnableFlashIssuance",
      "type": "event"
    },
    {
      "anonymous": false,
      "inputs": [
        {
          "indexed": true,
          "internalType": "contract sIERC20",
          "name": "sERC20",
          "type": "address"
        },
        {
          "indexed": true,
          "internalType": "address",
          "name": "recipient",
          "type": "address"
        },
        {
          "indexed": false,
          "internalType": "uint256",
          "name": "value",
          "type": "uint256"
        },
        {
          "indexed": false,
          "internalType": "uint256",
          "name": "amount",
          "type": "uint256"
        }
      ],
      "name": "Issue",
      "type": "event"
    },
    {
      "anonymous": false,
      "inputs": [
        {
          "indexed": true,
          "internalType": "contract sIERC20",
          "name": "sERC20",
          "type": "address"
        },
        {
          "indexed": true,
          "internalType": "address",
          "name": "guardian",
          "type": "address"
        },
        {
          "indexed": false,
          "internalType": "contract IFractionalizationBootstrappingPool",
          "name": "pool",
          "type": "address"
        },
        {
          "indexed": false,
          "internalType": "bytes32",
          "name": "poolId",
          "type": "bytes32"
        },
        {
          "indexed": false,
          "internalType": "uint256",
          "name": "sMaxNormalizedWeight",
          "type": "uint256"
        },
        {
          "indexed": false,
          "internalType": "uint256",
          "name": "sMinNormalizedWeight",
          "type": "uint256"
        },
        {
          "indexed": false,
          "internalType": "uint256",
          "name": "swapFeePercentage",
          "type": "uint256"
        },
        {
          "indexed": false,
          "internalType": "uint256",
          "name": "reserve",
          "type": "uint256"
        },
        {
          "indexed": false,
          "internalType": "uint256",
          "name": "allocation",
          "type": "uint256"
        },
        {
          "indexed": false,
          "internalType": "uint256",
          "name": "fee",
          "type": "uint256"
        }
      ],
      "name": "Register",
      "type": "event"
    },
    {
      "anonymous": false,
      "inputs": [
        {
          "indexed": true,
          "internalType": "contract sIERC20",
          "name": "sERC20",
          "type": "address"
        },
        {
          "indexed": true,
          "internalType": "uint256",
          "name": "proposalId",
          "type": "uint256"
        }
      ],
      "name": "RejectProposal",
      "type": "event"
    },
    {
      "anonymous": false,
      "inputs": [
        {
          "indexed": true,
          "internalType": "bytes32",
          "name": "role",
          "type": "bytes32"
        },
        {
          "indexed": true,
          "internalType": "bytes32",
          "name": "previousAdminRole",
          "type": "bytes32"
        },
        {
          "indexed": true,
          "internalType": "bytes32",
          "name": "newAdminRole",
          "type": "bytes32"
        }
      ],
      "name": "RoleAdminChanged",
      "type": "event"
    },
    {
      "anonymous": false,
      "inputs": [
        {
          "indexed": true,
          "internalType": "bytes32",
          "name": "role",
          "type": "bytes32"
        },
        {
          "indexed": true,
          "internalType": "address",
          "name": "account",
          "type": "address"
        },
        {
          "indexed": true,
          "internalType": "address",
          "name": "sender",
          "type": "address"
        }
      ],
      "name": "RoleGranted",
      "type": "event"
    },
    {
      "anonymous": false,
      "inputs": [
        {
          "indexed": true,
          "internalType": "bytes32",
          "name": "role",
          "type": "bytes32"
        },
        {
          "indexed": true,
          "internalType": "address",
          "name": "account",
          "type": "address"
        },
        {
          "indexed": true,
          "internalType": "address",
          "name": "sender",
          "type": "address"
        }
      ],
      "name": "RoleRevoked",
      "type": "event"
    },
    {
      "anonymous": false,
      "inputs": [
        {
          "indexed": false,
          "internalType": "address",
          "name": "bank",
          "type": "address"
        }
      ],
      "name": "SetBank",
      "type": "event"
    },
    {
      "anonymous": false,
      "inputs": [
        {
          "indexed": false,
          "internalType": "uint256",
          "name": "protocolFee",
          "type": "uint256"
        }
      ],
      "name": "SetProtocolFee",
      "type": "event"
    },
    {
      "anonymous": false,
      "inputs": [
        {
          "indexed": true,
          "internalType": "contract sIERC20",
          "name": "sERC20",
          "type": "address"
        },
        {
          "indexed": false,
          "internalType": "uint256",
          "name": "reserve",
          "type": "uint256"
        }
      ],
      "name": "SetReserve",
      "type": "event"
    },
    {
      "anonymous": false,
      "inputs": [
        {
          "indexed": true,
          "internalType": "contract sIERC20",
          "name": "sERC20",
          "type": "address"
        },
        {
          "indexed": true,
          "internalType": "uint256",
          "name": "proposalId",
          "type": "uint256"
        }
      ],
      "name": "WithdrawProposal",
      "type": "event"
    },
    {
      "inputs": [],
      "name": "CLOSE_ROLE",
      "outputs": [
        {
          "internalType": "bytes32",
          "name": "",
          "type": "bytes32"
        }
      ],
      "stateMutability": "view",
      "type": "function"
    },
    {
      "inputs": [],
      "name": "DECIMALS",
      "outputs": [
        {
          "internalType": "uint256",
          "name": "",
          "type": "uint256"
        }
      ],
      "stateMutability": "view",
      "type": "function"
    },
    {
      "inputs": [],
      "name": "DEFAULT_ADMIN_ROLE",
      "outputs": [
        {
          "internalType": "bytes32",
          "name": "",
          "type": "bytes32"
        }
      ],
      "stateMutability": "view",
      "type": "function"
    },
    {
      "inputs": [],
      "name": "HUNDRED",
      "outputs": [
        {
          "internalType": "uint256",
          "name": "",
          "type": "uint256"
        }
      ],
      "stateMutability": "view",
      "type": "function"
    },
    {
      "inputs": [],
      "name": "REGISTER_ROLE",
      "outputs": [
        {
          "internalType": "bytes32",
          "name": "",
          "type": "bytes32"
        }
      ],
      "stateMutability": "view",
      "type": "function"
    },
    {
      "inputs": [],
      "name": "WETH",
      "outputs": [
        {
          "internalType": "address",
          "name": "",
          "type": "address"
        }
      ],
      "stateMutability": "view",
      "type": "function"
    },
    {
      "inputs": [
        {
          "internalType": "contract sIERC20",
          "name": "sERC20",
          "type": "address"
        },
        {
          "internalType": "uint256",
          "name": "proposalId",
          "type": "uint256"
        }
      ],
      "name": "acceptProposal",
      "outputs": [],
      "stateMutability": "nonpayable",
      "type": "function"
    },
    {
      "inputs": [],
      "name": "bank",
      "outputs": [
        {
          "internalType": "address",
          "name": "",
          "type": "address"
        }
      ],
      "stateMutability": "view",
      "type": "function"
    },
    {
      "inputs": [
        {
          "internalType": "contract sIERC20",
          "name": "sERC20",
          "type": "address"
        }
      ],
      "name": "close",
      "outputs": [],
      "stateMutability": "nonpayable",
      "type": "function"
    },
    {
      "inputs": [
        {
          "internalType": "contract sIERC20",
          "name": "sERC20",
          "type": "address"
        },
        {
          "internalType": "uint256",
          "name": "price",
          "type": "uint256"
        },
        {
          "internalType": "uint256",
          "name": "lifespan",
          "type": "uint256"
        }
      ],
      "name": "createProposal",
      "outputs": [
        {
          "internalType": "uint256",
          "name": "",
          "type": "uint256"
        }
      ],
      "stateMutability": "payable",
      "type": "function"
    },
    {
      "inputs": [
        {
          "internalType": "contract sIERC20",
          "name": "sERC20",
          "type": "address"
        }
      ],
      "name": "enableFlashIssuance",
      "outputs": [],
      "stateMutability": "nonpayable",
      "type": "function"
    },
    {
      "inputs": [
        {
          "internalType": "bytes32",
          "name": "role",
          "type": "bytes32"
        }
      ],
      "name": "getRoleAdmin",
      "outputs": [
        {
          "internalType": "bytes32",
          "name": "",
          "type": "bytes32"
        }
      ],
      "stateMutability": "view",
      "type": "function"
    },
    {
      "inputs": [
        {
          "internalType": "bytes32",
          "name": "role",
          "type": "bytes32"
        },
        {
          "internalType": "uint256",
          "name": "index",
          "type": "uint256"
        }
      ],
      "name": "getRoleMember",
      "outputs": [
        {
          "internalType": "address",
          "name": "",
          "type": "address"
        }
      ],
      "stateMutability": "view",
      "type": "function"
    },
    {
      "inputs": [
        {
          "internalType": "bytes32",
          "name": "role",
          "type": "bytes32"
        }
      ],
      "name": "getRoleMemberCount",
      "outputs": [
        {
          "internalType": "uint256",
          "name": "",
          "type": "uint256"
        }
      ],
      "stateMutability": "view",
      "type": "function"
    },
    {
      "inputs": [
        {
          "internalType": "bytes32",
          "name": "role",
          "type": "bytes32"
        },
        {
          "internalType": "address",
          "name": "account",
          "type": "address"
        }
      ],
      "name": "grantRole",
      "outputs": [],
      "stateMutability": "nonpayable",
      "type": "function"
    },
    {
      "inputs": [
        {
          "internalType": "bytes32",
          "name": "role",
          "type": "bytes32"
        },
        {
          "internalType": "address",
          "name": "account",
          "type": "address"
        }
      ],
      "name": "hasRole",
      "outputs": [
        {
          "internalType": "bool",
          "name": "",
          "type": "bool"
        }
      ],
      "stateMutability": "view",
      "type": "function"
    },
    {
      "inputs": [
        {
          "internalType": "contract sIERC20",
          "name": "sERC20",
          "type": "address"
        }
      ],
      "name": "issuanceOf",
      "outputs": [
        {
          "internalType": "enum Issuances.State",
          "name": "state",
          "type": "uint8"
        },
        {
          "internalType": "address",
          "name": "guardian",
          "type": "address"
        },
        {
          "internalType": "contract IFractionalizationBootstrappingPool",
          "name": "pool",
          "type": "address"
        },
        {
          "internalType": "bytes32",
          "name": "poolId",
          "type": "bytes32"
        },
        {
          "internalType": "uint256",
          "name": "reserve",
          "type": "uint256"
        },
        {
          "internalType": "uint256",
          "name": "allocation",
          "type": "uint256"
        },
        {
          "internalType": "uint256",
          "name": "fee",
          "type": "uint256"
        },
        {
          "internalType": "uint256",
          "name": "nbOfProposals",
          "type": "uint256"
        },
        {
          "internalType": "bool",
          "name": "flash",
          "type": "bool"
        },
        {
          "internalType": "bool",
          "name": "sERC20IsToken0",
          "type": "bool"
        }
      ],
      "stateMutability": "view",
      "type": "function"
    },
    {
      "inputs": [
        {
          "internalType": "contract sIERC20",
          "name": "sERC20",
          "type": "address"
        },
        {
          "internalType": "uint256",
          "name": "expected",
          "type": "uint256"
        }
      ],
      "name": "issue",
      "outputs": [],
      "stateMutability": "payable",
      "type": "function"
    },
    {
      "inputs": [],
      "name": "poolFactory",
      "outputs": [
        {
          "internalType": "contract IFractionalizationBootstrappingPoolFactory",
          "name": "",
          "type": "address"
        }
      ],
      "stateMutability": "view",
      "type": "function"
    },
    {
      "inputs": [
        {
          "internalType": "contract sIERC20",
          "name": "sERC20",
          "type": "address"
        }
      ],
      "name": "priceOf",
      "outputs": [
        {
          "internalType": "uint256",
          "name": "",
          "type": "uint256"
        }
      ],
      "stateMutability": "view",
      "type": "function"
    },
    {
      "inputs": [
        {
          "internalType": "contract sIERC20",
          "name": "sERC20",
          "type": "address"
        },
        {
          "internalType": "uint256",
          "name": "proposalId",
          "type": "uint256"
        }
      ],
      "name": "proposalFor",
      "outputs": [
        {
          "internalType": "enum Proposals.State",
          "name": "state",
          "type": "uint8"
        },
        {
          "internalType": "address",
          "name": "buyer",
          "type": "address"
        },
        {
          "internalType": "uint256",
          "name": "value",
          "type": "uint256"
        },
        {
          "internalType": "uint256",
          "name": "price",
          "type": "uint256"
        },
        {
          "internalType": "uint256",
          "name": "expiration",
          "type": "uint256"
        }
      ],
      "stateMutability": "view",
      "type": "function"
    },
    {
      "inputs": [],
      "name": "protocolFee",
      "outputs": [
        {
          "internalType": "uint256",
          "name": "",
          "type": "uint256"
        }
      ],
      "stateMutability": "view",
      "type": "function"
    },
    {
      "inputs": [
        {
          "internalType": "contract sIERC20",
          "name": "sERC20",
          "type": "address"
        },
        {
          "internalType": "address",
          "name": "guardian",
          "type": "address"
        },
        {
          "internalType": "uint256",
          "name": "sMaxNormalizedWeight",
          "type": "uint256"
        },
        {
          "internalType": "uint256",
          "name": "sMinNormalizedWeight",
          "type": "uint256"
        },
        {
          "internalType": "uint256",
          "name": "swapFeePercentage",
          "type": "uint256"
        },
        {
          "internalType": "uint256",
          "name": "reserve",
          "type": "uint256"
        },
        {
          "internalType": "uint256",
          "name": "allocation",
          "type": "uint256"
        },
        {
          "internalType": "uint256",
          "name": "fee",
          "type": "uint256"
        },
        {
          "internalType": "bool",
          "name": "flash",
          "type": "bool"
        }
      ],
      "name": "register",
      "outputs": [],
      "stateMutability": "nonpayable",
      "type": "function"
    },
    {
      "inputs": [
        {
          "internalType": "contract sIERC20",
          "name": "sERC20",
          "type": "address"
        },
        {
          "internalType": "uint256",
          "name": "proposalId",
          "type": "uint256"
        }
      ],
      "name": "rejectProposal",
      "outputs": [],
      "stateMutability": "nonpayable",
      "type": "function"
    },
    {
      "inputs": [
        {
          "internalType": "bytes32",
          "name": "role",
          "type": "bytes32"
        },
        {
          "internalType": "address",
          "name": "account",
          "type": "address"
        }
      ],
      "name": "renounceRole",
      "outputs": [],
      "stateMutability": "nonpayable",
      "type": "function"
    },
    {
      "inputs": [
        {
          "internalType": "bytes32",
          "name": "role",
          "type": "bytes32"
        },
        {
          "internalType": "address",
          "name": "account",
          "type": "address"
        }
      ],
      "name": "revokeRole",
      "outputs": [],
      "stateMutability": "nonpayable",
      "type": "function"
    },
    {
      "inputs": [
        {
          "internalType": "address",
          "name": "bank_",
          "type": "address"
        }
      ],
      "name": "setBank",
      "outputs": [],
      "stateMutability": "nonpayable",
      "type": "function"
    },
    {
      "inputs": [
        {
          "internalType": "uint256",
          "name": "protocolFee_",
          "type": "uint256"
        }
      ],
      "name": "setProtocolFee",
      "outputs": [],
      "stateMutability": "nonpayable",
      "type": "function"
    },
    {
      "inputs": [
        {
          "internalType": "contract sIERC20",
          "name": "sERC20",
          "type": "address"
        },
        {
          "internalType": "uint256",
          "name": "reserve",
          "type": "uint256"
        }
      ],
      "name": "setReserve",
      "outputs": [],
      "stateMutability": "nonpayable",
      "type": "function"
    },
    {
      "inputs": [],
      "name": "splitter",
      "outputs": [
        {
          "internalType": "address",
          "name": "",
          "type": "address"
        }
      ],
      "stateMutability": "view",
      "type": "function"
    },
    {
      "inputs": [
        {
          "internalType": "bytes4",
          "name": "interfaceId",
          "type": "bytes4"
        }
      ],
      "name": "supportsInterface",
      "outputs": [
        {
          "internalType": "bool",
          "name": "",
          "type": "bool"
        }
      ],
      "stateMutability": "view",
      "type": "function"
    },
    {
      "inputs": [
        {
          "internalType": "contract sIERC20",
          "name": "sERC20",
          "type": "address"
        },
        {
          "internalType": "enum IIssuer.TwapKind",
          "name": "kind",
          "type": "uint8"
        }
      ],
      "name": "twapOf",
      "outputs": [
        {
          "internalType": "uint256",
          "name": "",
          "type": "uint256"
        }
      ],
      "stateMutability": "view",
      "type": "function"
    },
    {
      "inputs": [],
      "name": "vault",
      "outputs": [
        {
          "internalType": "contract IBVault",
          "name": "",
          "type": "address"
        }
      ],
      "stateMutability": "view",
      "type": "function"
    },
    {
      "inputs": [
        {
          "internalType": "contract sIERC20",
          "name": "sERC20",
          "type": "address"
        },
        {
          "internalType": "uint256",
          "name": "proposalId",
          "type": "uint256"
        }
      ],
      "name": "withdrawProposal",
      "outputs": [],
      "stateMutability": "nonpayable",
      "type": "function"
    }
  ],
  "transactionHash": "0x39d30086eb7c3418803222792d2336fae1c7a78fd90b20f4c8f3cc1a405d25bd",
  "args": [
    "0xBA12222222228d8Ba445958a75a0704d566BF2C8",
    "0xfBc9b45d81DdB05a82FC7c994a609306BB75D457",
    "0x8a3f0E296a3Fe4Fc286A865b33Be4DcAa9E113Da",
    "0x8873b045d40a458e46e356a96279ae1820a898ba",
    "3000000000000000000"
  ],
  "numDeployments": 1,
  "solcInputHash": "b7701e0630858850d0c673eb40dacacf",
  "bytecode": "0x6101006040523480156200001257600080fd5b5060405162004c0a38038062004c0a833981016040819052620000359162000527565b6001600160a01b038516620000a25760405162461bcd60e51b815260206004820152602860248201527f4973737565723a207661756c742063616e6e6f7420626520746865207a65726f604482015267206164647265737360c01b60648201526084015b60405180910390fd5b6001600160a01b038416620001125760405162461bcd60e51b815260206004820152602f60248201527f4973737565723a20706f6f6c20666163746f72792063616e6e6f74206265207460448201526e6865207a65726f206164647265737360881b606482015260840162000099565b6001600160a01b0383166200017e5760405162461bcd60e51b815260206004820152602b60248201527f4973737565723a2073706c69747465722063616e6e6f7420626520746865207a60448201526a65726f206164647265737360a81b606482015260840162000099565b6001600160a01b038216620001e65760405162461bcd60e51b815260206004820152602760248201527f4973737565723a2062616e6b2063616e6e6f7420626520746865207a65726f206044820152666164647265737360c81b606482015260840162000099565b68056bc75e2d631000008110620002565760405162461bcd60e51b815260206004820152602d60248201527f4973737565723a2070726f746f636f6c20666565206d75737420626520696e6660448201526c6572696f7220746f203130302560981b606482015260840162000099565b6001600160a01b03808616608081905285821660a05290841660c052604080516315ab88c960e31b8152905163ad5c464891600480820192602092909190829003018186803b158015620002a957600080fd5b505afa158015620002be573d6000803e3d6000fd5b505050506040513d601f19601f82011682018060405250810190620002e491906200059b565b6001600160a01b031660e052620002fb826200031e565b620003068162000373565b62000313600033620003a9565b5050505050620005c2565b600280546001600160a01b0319166001600160a01b0383169081179091556040519081527f10f5824683d64a0712038f2244e046b174a1cc57fbb8556bfda5ffb261244067906020015b60405180910390a150565b60038190556040518181527fdc0410a296e1e33943a772020d333d5f99319d7fcad932a484c53889f7aaa2b19060200162000368565b620003c08282620003ec60201b620026961760201c565b6000828152600160209081526040909120620003e7918390620026a0620003fc821b17901c565b505050565b620003f882826200041c565b5050565b600062000413836001600160a01b038416620004bc565b90505b92915050565b6000828152602081815260408083206001600160a01b038516845290915290205460ff16620003f8576000828152602081815260408083206001600160a01b03851684529091529020805460ff19166001179055620004783390565b6001600160a01b0316816001600160a01b0316837f2f8788117e7eff1d82e926ec794901d17c78024a50270940304540a733656f0d60405160405180910390a45050565b6000818152600183016020526040812054620005055750815460018181018455600084815260208082209093018490558454848252828601909352604090209190915562000416565b50600062000416565b6001600160a01b03811681146200052457600080fd5b50565b600080600080600060a086880312156200054057600080fd5b85516200054d816200050e565b602087015190955062000560816200050e565b604087015190945062000573816200050e565b606087015190935062000586816200050e565b80925050608086015190509295509295909350565b600060208284031215620005ae57600080fd5b8151620005bb816200050e565b9392505050565b60805160a05160c05160e0516145dd6200062d600039600081816106170152818161091601528181610cb00152610d6b0152600081816103510152612a8e0152600081816103ec01528181610c810152610d3c01526000818161076d01526132f501526145dd6000f3fe6080604052600436106102195760003560e01c8063787dce3d1161011d578063b0e21e8a116100b0578063d547741f1161007f578063f3df1e3211610064578063f3df1e3214610710578063f85fc0ab14610741578063fbfa77cf1461075e57600080fd5b8063d547741f146106d0578063df4332b3146106f057600080fd5b8063b0e21e8a1461065b578063b95ed06f14610670578063c74073a114610690578063ca15c873146106b057600080fd5b8063a0058b3d116100ec578063a0058b3d146105d3578063a217fddf146105f3578063ad5c464814610608578063b0913a131461063b57600080fd5b8063787dce3d1461053c578063867904b41461055c5780639010d07c1461056f57806391d148541461058f57600080fd5b80633cd8045e116101b05780635168e1a11161017f57806374f533171161016457806374f53317146104ca57806376cdb03b146104fe57806378250b631461051c57600080fd5b80635168e1a1146104105780636ff74f201461043057600080fd5b80633cd8045e14610342578063400e3d9b146103895780634209f150146103bd5780634219dc40146103dd57600080fd5b80632e0f2625116101ec5780632e0f2625146102d35780632e8bb119146102ef5780632f2ff15d1461030257806336568abe1461032257600080fd5b806301ffc9a71461021e578063090d23b914610253578063248a9ca3146102755780632c32a642146102b3575b600080fd5b34801561022a57600080fd5b5061023e610239366004613c6b565b610791565b60405190151581526020015b60405180910390f35b34801561025f57600080fd5b5061027361026e366004613cc2565b6107ed565b005b34801561028157600080fd5b506102a5610290366004613cdf565b60009081526020819052604090206001015490565b60405190815260200161024a565b3480156102bf57600080fd5b506102736102ce366004613d06565b6108f7565b3480156102df57600080fd5b506102a5670de0b6b3a764000081565b6102a56102fd366004613d8c565b610fd4565b34801561030e57600080fd5b5061027361031d366004613dc1565b611398565b34801561032e57600080fd5b5061027361033d366004613dc1565b6113bf565b34801561034e57600080fd5b507f00000000000000000000000000000000000000000000000000000000000000005b6040516001600160a01b03909116815260200161024a565b34801561039557600080fd5b506102a57f78844962b347caf400e109846dc948d8df0fc5b2f795edb688517fc687580cd481565b3480156103c957600080fd5b506102736103d8366004613df1565b6113e1565b3480156103e957600080fd5b507f0000000000000000000000000000000000000000000000000000000000000000610371565b34801561041c57600080fd5b5061027361042b366004613df1565b6116ed565b34801561043c57600080fd5b506104b461044b366004613cc2565b6001600160a01b0390811660009081526004602081905260409091208054600182015460028301546003840154948401546005850154600686015460089096015460ff8087169a610100978890048b169a96909616989497949693959294938282169392041690565b60405161024a9a99989796959493929190613e43565b3480156104d657600080fd5b506102a57fd1f21ec03a6eb050fba156f5316dad461735df521fb446dd42c5a4728e9c70fe81565b34801561050a57600080fd5b506002546001600160a01b0316610371565b34801561052857600080fd5b50610273610537366004613df1565b6118e5565b34801561054857600080fd5b50610273610557366004613cdf565b611a9e565b61027361056a366004613df1565b611ba2565b34801561057b57600080fd5b5061037161058a366004613ea4565b611e62565b34801561059b57600080fd5b5061023e6105aa366004613dc1565b6000918252602082815260408084206001600160a01b0393909316845291905290205460ff1690565b3480156105df57600080fd5b506102a56105ee366004613ec6565b611e7a565b3480156105ff57600080fd5b506102a5600081565b34801561061457600080fd5b507f0000000000000000000000000000000000000000000000000000000000000000610371565b34801561064757600080fd5b50610273610656366004613df1565b611fa5565b34801561066757600080fd5b506003546102a5565b34801561067c57600080fd5b506102a561068b366004613cc2565b612191565b34801561069c57600080fd5b506102736106ab366004613cc2565b6122b1565b3480156106bc57600080fd5b506102a56106cb366004613cdf565b612486565b3480156106dc57600080fd5b506102736106eb366004613dc1565b61249d565b3480156106fc57600080fd5b5061027361070b366004613cc2565b6124a7565b34801561071c57600080fd5b5061073061072b366004613df1565b61262d565b60405161024a959493929190613ef8565b34801561074d57600080fd5b506102a568056bc75e2d6310000081565b34801561076a57600080fd5b507f0000000000000000000000000000000000000000000000000000000000000000610371565b60007fffffffff0000000000000000000000000000000000000000000000000000000082167f5a05180f0000000000000000000000000000000000000000000000000000000014806107e757506107e7826126b5565b92915050565b6107f86000336105aa565b61086f5760405162461bcd60e51b815260206004820152603060248201527f4973737565723a206d75737420686176652044454641554c545f41444d494e5f60448201527f524f4c4520746f207365742062616e6b0000000000000000000000000000000060648201526084015b60405180910390fd5b6001600160a01b0381166108eb5760405162461bcd60e51b815260206004820152602760248201527f4973737565723a2062616e6b2063616e6e6f7420626520746865207a65726f2060448201527f61646472657373000000000000000000000000000000000000000000000000006064820152608401610866565b6108f48161274c565b50565b6001600160a01b038981166000818152600460205260408120909290917f000000000000000000000000000000000000000000000000000000000000000090911610156109647fd1f21ec03a6eb050fba156f5316dad461735df521fb446dd42c5a4728e9c70fe336105aa565b6109d65760405162461bcd60e51b815260206004820152602b60248201527f4973737565723a206d75737420686176652052454749535445525f524f4c452060448201527f746f2072656769737465720000000000000000000000000000000000000000006064820152608401610866565b6000825460ff1660028111156109ee576109ee613e1d565b14610a615760405162461bcd60e51b815260206004820152602360248201527f4973737565723a2069737375616e636520616c7265616479207265676973746560448201527f72656400000000000000000000000000000000000000000000000000000000006064820152608401610866565b6001600160a01b038b16610add5760405162461bcd60e51b815260206004820152602b60248201527f4973737565723a20677561726469616e2063616e6e6f7420626520746865207a60448201527f65726f20616464726573730000000000000000000000000000000000000000006064820152608401610866565b86610b4f5760405162461bcd60e51b8152602060048201526024808201527f4973737565723a20726573657276652070726963652063616e6e6f742062652060448201527f6e756c6c000000000000000000000000000000000000000000000000000000006064820152608401610866565b68056bc75e2d631000008610610bcd5760405162461bcd60e51b815260206004820152602b60248201527f4973737565723a20616c6c6f636174696f6e206d75737420626520696e66657260448201527f696f7220746f20313030250000000000000000000000000000000000000000006064820152608401610866565b68056bc75e2d631000008510610c4b5760405162461bcd60e51b815260206004820152602d60248201527f4973737565723a2069737375616e636520666565206d75737420626520696e6660448201527f6572696f7220746f2031303025000000000000000000000000000000000000006064820152608401610866565b8015610d3a576040517f9866e2490000000000000000000000000000000000000000000000000000000081526001600160a01b037f00000000000000000000000000000000000000000000000000000000000000001690639866e24990610ce1908f907f0000000000000000000000000000000000000000000000000000000000000000908f908f908f90600190600401613f36565b602060405180830381600087803b158015610cfb57600080fd5b505af1158015610d0f573d6000803e3d6000fd5b505050506040513d601f19601f82011682018060405250810190610d339190614003565b9250610e06565b7f00000000000000000000000000000000000000000000000000000000000000006001600160a01b0316639866e2497f00000000000000000000000000000000000000000000000000000000000000008e8d8d8d60006040518763ffffffff1660e01b8152600401610db196959493929190613f36565b602060405180830381600087803b158015610dcb57600080fd5b505af1158015610ddf573d6000803e3d6000fd5b505050506040513d601f19601f82011682018060405250810190610e039190614003565b92505b6000836001600160a01b03166338fff2d06040518163ffffffff1660e01b815260040160206040518083038186803b158015610e4157600080fd5b505afa158015610e55573d6000803e3d6000fd5b505050506040513d601f19601f82011682018060405250810190610e799190614020565b8354909150600190849060ff1916828002179055508b8360000160016101000a8154816001600160a01b0302191690836001600160a01b03160217905550838360010160006101000a8154816001600160a01b0302191690836001600160a01b03160217905550808360020181905550878360030181905550868360040181905550858360050181905550818360080160016101000a81548160ff0219169083151502179055508b6001600160a01b03168d6001600160a01b03167f21e331155a643f27ac076b298336b2670996ce080ca299d5a7b13f50899ed7d786848f8f8f8f8f8f604051610fad9897969594939291906001600160a01b03989098168852602088019690965260408701949094526060860192909252608085015260a084015260c083015260e08201526101000190565b60405180910390a38415610fc557610fc58d846127b9565b50505050505050505050505050565b6001600160a01b03831660009081526004602052604081208054339060019060ff16600281111561100757611007613e1d565b146110545760405162461bcd60e51b815260206004820152601e60248201527f4973737565723a20696e76616c69642069737375616e636520737461746500006044820152606401610866565b600882015460ff16156110cf5760405162461bcd60e51b815260206004820152602160248201527f4973737565723a20666c6173682069737375616e636520697320656e61626c6560448201527f64000000000000000000000000000000000000000000000000000000000000006064820152608401610866565b600034116111455760405162461bcd60e51b815260206004820152602560248201527f4973737565723a2069737375616e63652076616c75652063616e6e6f7420626560448201527f206e756c6c0000000000000000000000000000000000000000000000000000006064820152608401610866565b6000851180156111f7575060018201546003830154604080516318160ddd60e01b815290516111f3936001600160a01b0316929160009184916318160ddd916004808301926020929190829003018186803b1580156111a357600080fd5b505afa1580156111b7573d6000803e3d6000fd5b505050506040513d601f19601f820116820180604052508101906111db9190614020565b118560080160019054906101000a900460ff16612800565b8511155b6112435760405162461bcd60e51b815260206004820152601e60248201527f4973737565723a20696e76616c69642069737375616e636520707269636500006044820152606401610866565b600682018054600091826112568361404f565b909155509050600085156112735761126e864261406a565b611276565b60005b6040805160a0810190915290915080600181526001600160a01b03851660208083019190915234604080840191909152606083018b905260809092018490526000858152600788019091522081518154829060ff191660018360038111156112e0576112e0613e1d565b021790555060208281015182547fffffffffffffffffffffff0000000000000000000000000000000000000000ff166101006001600160a01b03928316021783556040808501516001850155606080860151600286015560809095015160039094019390935582513481529182018b90529181018490528582169285928c16917f2e0ff6e48a8a48aff6ceabfca8b39f5468c5d8537cda6f84bf3d138a057d63a9910160405180910390a450925050505b9392505050565b6113a2828261282d565b60008281526001602052604090206113ba90826126a0565b505050565b6113c98282612853565b60008281526001602052604090206113ba90826128db565b6001600160a01b03828116600090815260046020908152604080832085845260078101909252909120815491929091610100900416336001600160a01b0316146114935760405162461bcd60e51b815260206004820152603660248201527f4973737565723a206d7573742062652069737375616e6365277320677561726460448201527f69616e20746f206163636570742070726f706f73616c000000000000000000006064820152608401610866565b6001825460ff1660028111156114ab576114ab613e1d565b146114f85760405162461bcd60e51b815260206004820152601e60248201527f4973737565723a20696e76616c69642069737375616e636520737461746500006044820152606401610866565b6001611503826128f0565b600381111561151457611514613e1d565b146115615760405162461bcd60e51b815260206004820152601e60248201527f4973737565723a20696e76616c69642070726f706f73616c20737461746500006044820152606401610866565b600882015460ff16156115dc5760405162461bcd60e51b815260206004820152602160248201527f4973737565723a20666c6173682069737375616e636520697320656e61626c6560448201527f64000000000000000000000000000000000000000000000000000000000000006064820152608401610866565b805460ff1916600217815560405183906001600160a01b038616907fb68b23f18c187dede5027186d7dae9fda610a1ce0d025876dd7fb1fa9c52250790600090a36116e684838360000160019054906101000a90046001600160a01b03168460010154856002015460008860010160009054906101000a90046001600160a01b03166001600160a01b03166318160ddd6040518163ffffffff1660e01b815260040160206040518083038186803b15801561169657600080fd5b505afa1580156116aa573d6000803e3d6000fd5b505050506040513d601f19601f820116820180604052508101906116ce9190614020565b118860080160019054906101000a900460ff1661294a565b5050505050565b6001600160a01b038216600090815260046020908152604080832084845260070190915281209061171d826128f0565b825490915061010090046001600160a01b0316336001600160a01b0316146117ad5760405162461bcd60e51b815260206004820152603560248201527f4973737565723a206d7573742062652070726f706f73616c277320627579657260448201527f20746f2077697468647261772070726f706f73616c00000000000000000000006064820152608401610866565b60018160038111156117c1576117c1613e1d565b14806117de575060038160038111156117dc576117dc613e1d565b145b61182a5760405162461bcd60e51b815260206004820152601e60248201527f4973737565723a20696e76616c69642070726f706f73616c20737461746500006044820152606401610866565b81546001808401546001600160a01b0387811660009081526004602090815260408083208a8452600701909152812080547fffffffffffffffffffffff0000000000000000000000000000000000000000001681559384018190556002840181905560039093019290925561010090920416906118a78282612c07565b60405185906001600160a01b038816907ffb591de3f595328713bb4313a53f62d518cfcdbc6b8efd8e1824d80d1d0d03fb90600090a3505050505050565b6001600160a01b0382811660009081526004602052604090208054909133610100909204161461197d5760405162461bcd60e51b815260206004820152603260248201527f4973737565723a206d7573742062652069737375616e6365277320677561726460448201527f69616e20746f20736574207265736572766500000000000000000000000000006064820152608401610866565b6001815460ff16600281111561199557611995613e1d565b146119e25760405162461bcd60e51b815260206004820152601e60248201527f4973737565723a20696e76616c69642069737375616e636520737461746500006044820152606401610866565b81611a545760405162461bcd60e51b8152602060048201526024808201527f4973737565723a20726573657276652070726963652063616e6e6f742062652060448201527f6e756c6c000000000000000000000000000000000000000000000000000000006064820152608401610866565b600381018290556040518281526001600160a01b038416907f9241e21d4fa6dd55661c8694538bfc11a7d44d81d5766840312d2513f55fa67d9060200160405180910390a2505050565b611aa96000336105aa565b611b1b5760405162461bcd60e51b815260206004820152603860248201527f4973737565723a206d75737420686176652044454641554c545f41444d494e5f60448201527f524f4c4520746f207365742070726f746f636f6c2066656500000000000000006064820152608401610866565b68056bc75e2d631000008110611b995760405162461bcd60e51b815260206004820152602d60248201527f4973737565723a2070726f746f636f6c20666565206d75737420626520696e6660448201527f6572696f7220746f2031303025000000000000000000000000000000000000006064820152608401610866565b6108f481612d20565b6001600160a01b03821660009081526004602052604090206001815460ff166002811115611bd257611bd2613e1d565b14611c1f5760405162461bcd60e51b815260206004820152601e60248201527f4973737565723a20696e76616c69642069737375616e636520737461746500006044820152606401610866565b600881015460ff16611c995760405162461bcd60e51b815260206004820152602260248201527f4973737565723a20666c6173682069737375616e63652069732064697361626c60448201527f65640000000000000000000000000000000000000000000000000000000000006064820152608401610866565b34611d0c5760405162461bcd60e51b815260206004820152602560248201527f4973737565723a2069737375616e63652076616c75652063616e6e6f7420626560448201527f206e756c6c0000000000000000000000000000000000000000000000000000006064820152608401610866565b6000808260010160009054906101000a90046001600160a01b03166001600160a01b03166318160ddd6040518163ffffffff1660e01b815260040160206040518083038186803b158015611d5f57600080fd5b505afa158015611d73573d6000803e3d6000fd5b505050506040513d601f19601f82011682018060405250810190611d979190614020565b600884015460018501546003860154939092119350610100900460ff1691600091611dcf916001600160a01b03909116908585612800565b90506000611de28786333486898961294a565b905085811015611e595760405162461bcd60e51b8152602060048201526024808201527f4973737565723a20696e73756666696369656e742069737375616e636520726560448201527f7475726e000000000000000000000000000000000000000000000000000000006064820152608401610866565b50505050505050565b60008281526001602052604081206113919083612d55565b6001600160a01b038216600090815260046020526040812081815460ff166002811115611ea957611ea9613e1d565b1415611ef75760405162461bcd60e51b815260206004820152601e60248201527f4973737565723a20696e76616c69642069737375616e636520737461746500006044820152606401610866565b60018101546003820154604080516318160ddd60e01b81529051611f9d936001600160a01b03169291879160009185916318160ddd91600480820192602092909190829003018186803b158015611f4d57600080fd5b505afa158015611f61573d6000803e3d6000fd5b505050506040513d601f19601f82011682018060405250810190611f859190614020565b118560080160019054906101000a900460ff16612d61565b949350505050565b6001600160a01b03821660009081526004602090815260408083208484526007810190925282209091611fd7826128f0565b835490915061010090046001600160a01b0316336001600160a01b0316146120675760405162461bcd60e51b815260206004820152603660248201527f4973737565723a206d7573742062652069737375616e6365277320677561726460448201527f69616e20746f2072656a6563742070726f706f73616c000000000000000000006064820152608401610866565b600181600381111561207b5761207b613e1d565b14806120985750600381600381111561209657612096613e1d565b145b6120e45760405162461bcd60e51b815260206004820152601e60248201527f4973737565723a20696e76616c69642070726f706f73616c20737461746500006044820152606401610866565b81546001808401546000878152600787016020526040812080547fffffffffffffffffffffff000000000000000000000000000000000000000000168155928301819055600283018190556003909201919091556101009091046001600160a01b0316906121528282612c07565b60405186906001600160a01b038916907f123432125627249bc47aca642b7e775249fbacf9c32f467ef8eade2c0bd859e990600090a350505050505050565b6001600160a01b038116600090815260046020526040812081815460ff1660028111156121c0576121c0613e1d565b141561220e5760405162461bcd60e51b815260206004820152601e60248201527f4973737565723a20696e76616c69642069737375616e636520737461746500006044820152606401610866565b60018101546003820154604080516318160ddd60e01b81529051611391936001600160a01b0316929160009184916318160ddd916004808301926020929190829003018186803b15801561226157600080fd5b505afa158015612275573d6000803e3d6000fd5b505050506040513d601f19601f820116820180604052508101906122999190614020565b118460080160019054906101000a900460ff16612800565b6001600160a01b03811660009081526004602052604090206122f37f78844962b347caf400e109846dc948d8df0fc5b2f795edb688517fc687580cd4336105aa565b6123655760405162461bcd60e51b815260206004820152602e60248201527f4973737565723a206d757374206861766520434c4f53455f524f4c4520746f2060448201527f636c6f73652069737375616e63650000000000000000000000000000000000006064820152608401610866565b6001815460ff16600281111561237d5761237d613e1d565b146123ca5760405162461bcd60e51b815260206004820152601e60248201527f4973737565723a20696e76616c69642069737375616e636520737461746500006044820152606401610866565b805460ff191660021781556001810154604080517f43d726d600000000000000000000000000000000000000000000000000000000815290516001600160a01b03909216916343d726d69160048082019260009290919082900301818387803b15801561243657600080fd5b505af115801561244a573d6000803e3d6000fd5b50506040516001600160a01b03851692507f5b19963bf6a9a00776cbf844c84e706258ed0ca06d00f699e9d99858942c75039150600090a25050565b60008181526001602052604081206107e790612fd9565b6113c98282612fe3565b6001600160a01b0381811660009081526004602052604090208054909133610100909204161461253f5760405162461bcd60e51b815260206004820152603c60248201527f4973737565723a206d7573742062652069737375616e6365277320677561726460448201527f69616e20746f20656e61626c6520666c6173682069737375616e6365000000006064820152608401610866565b6001815460ff16600281111561255757612557613e1d565b146125a45760405162461bcd60e51b815260206004820152601e60248201527f4973737565723a20696e76616c69642069737375616e636520737461746500006044820152606401610866565b600881015460ff161561261f5760405162461bcd60e51b815260206004820152602660248201527f4973737565723a20666c6173682069737375616e636520616c7265616479206560448201527f6e61626c656400000000000000000000000000000000000000000000000000006064820152608401610866565b61262982826127b9565b5050565b6001600160a01b038216600090815260046020908152604080832084845260070190915281208190819081908190612664816128f0565b815460018301546002840154600390940154929b6101009092046001600160a01b03169a509850919650945092505050565b6126298282613009565b6000611391836001600160a01b0384166130a7565b60007fffffffff0000000000000000000000000000000000000000000000000000000082167f7965db0b0000000000000000000000000000000000000000000000000000000014806107e757507f01ffc9a7000000000000000000000000000000000000000000000000000000007fffffffff000000000000000000000000000000000000000000000000000000008316146107e7565b600280547fffffffffffffffffffffffff0000000000000000000000000000000000000000166001600160a01b0383169081179091556040519081527f10f5824683d64a0712038f2244e046b174a1cc57fbb8556bfda5ffb261244067906020015b60405180910390a150565b60088101805460ff191660011790556040516001600160a01b038316907f060437d670e5e4f2c379e5e76ece35f5fa134d3d13b296a69c29d63317c338b590600090a25050565b600080612811868660018787612d61565b9050808510156128245784915050611f9d565b95945050505050565b60008281526020819052604090206001015461284981336130f6565b6113ba8383613009565b6001600160a01b03811633146128d15760405162461bcd60e51b815260206004820152602f60248201527f416363657373436f6e74726f6c3a2063616e206f6e6c792072656e6f756e636560448201527f20726f6c657320666f722073656c6600000000000000000000000000000000006064820152608401610866565b6126298282613174565b6000611391836001600160a01b0384166131f3565b8054600382015460009160ff1690600182600381111561291257612912613e1d565b14801561291e57508015155b15612943578360030154421015612939575060019392505050565b5060039392505050565b5092915050565b60008068056bc75e2d631000008860050154876129679190614082565b61297191906140a1565b9050600068056bc75e2d63100000600354838961298e91906140c3565b6129989190614082565b6129a291906140a1565b90506000816129b1848a6140c3565b6129bb91906140c3565b90506000670de0b6b3a76400006129d28984614082565b6129dc91906140a1565b905060006129ee8d8d878c8c8c6132e6565b6040516340c10f1960e01b81526001600160a01b038d8116600483015260248201859052919250908e16906340c10f1990604401600060405180830381600087803b158015612a3c57600080fd5b505af1158015612a50573d6000803e3d6000fd5b505050506000612a6f8d600401548385612a6a919061406a565b6134be565b90508015612afa576040516340c10f1960e01b81526001600160a01b037f000000000000000000000000000000000000000000000000000000000000000081166004830152602482018390528f16906340c10f1990604401600060405180830381600087803b158015612ae157600080fd5b505af1158015612af5573d6000803e3d6000fd5b505050505b8c60010160009054906101000a90046001600160a01b03166001600160a01b031663181783586040518163ffffffff1660e01b8152600401600060405180830381600087803b158015612b4c57600080fd5b505af1158015612b60573d6000803e3d6000fd5b505050506000851115612b8357600254612b83906001600160a01b031686612c07565b8c54612b9d9061010090046001600160a01b031685612c07565b8b6001600160a01b03168e6001600160a01b03167fca1340aac4caf2122faa48803f9cafe2fca0c643e9c0cc5e876d0f7c436b7ab28d86604051612beb929190918252602082015260400190565b60405180910390a350909450505050505b979650505050505050565b80471015612c575760405162461bcd60e51b815260206004820152601d60248201527f416464726573733a20696e73756666696369656e742062616c616e63650000006044820152606401610866565b6000826001600160a01b03168260405160006040518083038185875af1925050503d8060008114612ca4576040519150601f19603f3d011682016040523d82523d6000602084013e612ca9565b606091505b50509050806113ba5760405162461bcd60e51b815260206004820152603a60248201527f416464726573733a20756e61626c6520746f2073656e642076616c75652c207260448201527f6563697069656e74206d617920686176652072657665727465640000000000006064820152608401610866565b60038190556040518181527fdc0410a296e1e33943a772020d333d5f99319d7fcad932a484c53889f7aaa2b1906020016127ae565b600061139183836134e7565b600082612e0f576000846001811115612d7c57612d7c613e1d565b1415612da65784612d95670de0b6b3a764000080614082565b612d9f91906140a1565b9050612824565b6001846001811115612dba57612dba613e1d565b1415612dc7575083612824565b60405162461bcd60e51b815260206004820152601960248201527f4973737565723a20696e76616c69642074776170206b696e64000000000000006044820152606401610866565b604080516001808252818301909252600091816020015b612e4b6040805160608101909152806000815260200160008152602001600081525090565b815260200190600190039081612e265790505060408051606081019091529091508060008152602001620151808152602001600081525081600081518110612e9557612e956140f0565b60200260200101819052506000876001600160a01b0316631dccd830836040518263ffffffff1660e01b8152600401612ece9190614106565b60006040518083038186803b158015612ee657600080fd5b505afa158015612efa573d6000803e3d6000fd5b505050506040513d6000823e601f3d908101601f19168201604052612f229190810190614228565b90506000866001811115612f3857612f38613e1d565b1415612fa7578315612f825780600081518110612f5757612f576140f0565b6020026020010151670de0b6b3a764000080612f739190614082565b612f7d91906140a1565b612f9e565b80600081518110612f9557612f956140f0565b60200260200101515b92505050612824565b6001866001811115612fbb57612fbb613e1d565b1415612dc75783612f825780600081518110612f5757612f576140f0565b60006107e7825490565b600082815260208190526040902060010154612fff81336130f6565b6113ba8383613174565b6000828152602081815260408083206001600160a01b038516845290915290205460ff16612629576000828152602081815260408083206001600160a01b03851684529091529020805460ff191660011790556130633390565b6001600160a01b0316816001600160a01b0316837f2f8788117e7eff1d82e926ec794901d17c78024a50270940304540a733656f0d60405160405180910390a45050565b60008181526001830160205260408120546130ee575081546001818101845560008481526020808220909301849055845484825282860190935260409020919091556107e7565b5060006107e7565b6000828152602081815260408083206001600160a01b038516845290915290205460ff1661262957613132816001600160a01b03166014613511565b61313d836020613511565b60405160200161314e92919061428d565b60408051601f198184030181529082905262461bcd60e51b82526108669160040161433a565b6000828152602081815260408083206001600160a01b038516845290915290205460ff1615612629576000828152602081815260408083206001600160a01b0385168085529252808320805460ff1916905551339285917ff6391f5c32d9c69d2a47ea670b442974b53935d1edc7fd64eb21e047a839171b9190a45050565b600081815260018301602052604081205480156132dc5760006132176001836140c3565b855490915060009061322b906001906140c3565b905081811461329057600086600001828154811061324b5761324b6140f0565b906000526020600020015490508087600001848154811061326e5761326e6140f0565b6000918252602080832090910192909255918252600188019052604090208390555b85548690806132a1576132a161434d565b6001900381819060005260206000200160009055905585600101600086815260200190815260200160002060009055600193505050506107e7565b60009150506107e7565b600185015460028601546000917f00000000000000000000000000000000000000000000000000000000000000009183916133309184916001600160a01b031690898b8a8a61373a565b905086156134b2576040516340c10f1960e01b8152306004820152602481018290526001600160a01b038a16906340c10f1990604401600060405180830381600087803b15801561338057600080fd5b505af1158015613394573d6000803e3d6000fd5b50506040517f095ea7b30000000000000000000000000000000000000000000000000000000081526001600160a01b038581166004830152602482018590528c16925063095ea7b39150604401602060405180830381600087803b1580156133fb57600080fd5b505af115801561340f573d6000803e3d6000fd5b505050506040513d601f19601f820116820180604052508101906134339190614363565b5060028089015490546001600160a01b038085169263b95cac28928b923091166134608f88868e8e6138dd565b6040518663ffffffff1660e01b815260040161347f94939291906143bb565b6000604051808303818588803b15801561349857600080fd5b505af11580156134ac573d6000803e3d6000fd5b50505050505b98975050505050505050565b60006134d38368056bc75e2d631000006140c3565b6134dd8385614082565b61139191906140a1565b60008260000182815481106134fe576134fe6140f0565b9060005260206000200154905092915050565b60606000613520836002614082565b61352b90600261406a565b67ffffffffffffffff811115613543576135436140da565b6040519080825280601f01601f19166020018201604052801561356d576020820181803683370190505b5090507f3000000000000000000000000000000000000000000000000000000000000000816000815181106135a4576135a46140f0565b60200101907effffffffffffffffffffffffffffffffffffffffffffffffffffffffffffff1916908160001a9053507f780000000000000000000000000000000000000000000000000000000000000081600181518110613607576136076140f0565b60200101907effffffffffffffffffffffffffffffffffffffffffffffffffffffffffffff1916908160001a9053506000613643846002614082565b61364e90600161406a565b90505b60018111156136eb577f303132333435363738396162636465660000000000000000000000000000000085600f166010811061368f5761368f6140f0565b1a60f81b8282815181106136a5576136a56140f0565b60200101907effffffffffffffffffffffffffffffffffffffffffffffffffffffffffffff1916908160001a90535060049490941c936136e481614499565b9050613651565b5083156113915760405162461bcd60e51b815260206004820181905260248201527f537472696e67733a20686578206c656e67746820696e73756666696369656e746044820152606401610866565b600080836138a3576000886001600160a01b031663f89f27ed6040518163ffffffff1660e01b815260040160006040518083038186803b15801561377d57600080fd5b505afa158015613791573d6000803e3d6000fd5b505050506040513d6000823e601f3d908101601f191682016040526137b99190810190614228565b9050831561383157806001815181106137d4576137d46140f0565b6020026020010151670de0b6b3a76400006137ef9190614082565b81600081518110613802576138026140f0565b602002602001015188886138169190614082565b6138209190614082565b61382a91906140a1565b915061389d565b80600081518110613844576138446140f0565b6020026020010151670de0b6b3a764000061385f9190614082565b81600181518110613872576138726140f0565b602002602001015188886138869190614082565b6138909190614082565b61389a91906140a1565b91505b506134b2565b60006138b08a8986613b14565b60208101518151919250906138c59088614082565b6138cf91906140a1565b9a9950505050505050505050565b61390a60405180608001604052806060815260200160608152602001606081526020016000151581525090565b60008361391857600061391b565b60045b60408051600280825260608201835292935060009290916020830190803683375050604080516002808252606082018352939450600093909250906020830190803683370190505090508415613a1957888260008151811061397f5761397f6140f0565b60200260200101906001600160a01b031690816001600160a01b0316815250506000826001815181106139b4576139b46140f0565b60200260200101906001600160a01b031690816001600160a01b03168152505087816000815181106139e8576139e86140f0565b6020026020010181815250508681600181518110613a0857613a086140f0565b602002602001018181525050613ac3565b600082600081518110613a2e57613a2e6140f0565b60200260200101906001600160a01b031690816001600160a01b0316815250508882600181518110613a6257613a626140f0565b60200260200101906001600160a01b031690816001600160a01b0316815250508681600081518110613a9657613a966140f0565b6020026020010181815250508781600181518110613ab657613ab66140f0565b6020026020010181815250505b60405180608001604052808381526020018281526020018483604051602001613aed9291906144b0565b60408051808303601f19018152919052815260006020909101529998505050505050505050565b613b1c613c4d565b6040517ff94d4668000000000000000000000000000000000000000000000000000000008152600481018490526000906001600160a01b0386169063f94d46689060240160006040518083038186803b158015613b7857600080fd5b505afa158015613b8c573d6000803e3d6000fd5b505050506040513d6000823e601f3d908101601f19168201604052613bb491908101906144d9565b509150508215613c0f57604051806040016040528082600081518110613bdc57613bdc6140f0565b6020026020010151815260200182600181518110613bfc57613bfc6140f0565b6020026020010151815250915050611391565b604051806040016040528082600181518110613c2d57613c2d6140f0565b6020026020010151815260200182600081518110613bfc57613bfc6140f0565b60405180604001604052806002906020820280368337509192915050565b600060208284031215613c7d57600080fd5b81357fffffffff000000000000000000000000000000000000000000000000000000008116811461139157600080fd5b6001600160a01b03811681146108f457600080fd5b600060208284031215613cd457600080fd5b813561139181613cad565b600060208284031215613cf157600080fd5b5035919050565b80151581146108f457600080fd5b60008060008060008060008060006101208a8c031215613d2557600080fd5b8935613d3081613cad565b985060208a0135613d4081613cad565b975060408a0135965060608a0135955060808a0135945060a08a0135935060c08a0135925060e08a013591506101008a0135613d7b81613cf8565b809150509295985092959850929598565b600080600060608486031215613da157600080fd5b8335613dac81613cad565b95602085013595506040909401359392505050565b60008060408385031215613dd457600080fd5b823591506020830135613de681613cad565b809150509250929050565b60008060408385031215613e0457600080fd5b8235613e0f81613cad565b946020939093013593505050565b634e487b7160e01b600052602160045260246000fd5b600381106108f4576108f4613e1d565b6101408101613e518c613e33565b9a81526001600160a01b03998a1660208201529790981660408801526060870195909552608086019390935260a085019190915260c084015260e083015215156101008201529015156101209091015290565b60008060408385031215613eb757600080fd5b50508035926020909101359150565b60008060408385031215613ed957600080fd5b8235613ee481613cad565b9150602083013560028110613de657600080fd5b60a0810160048710613f0c57613f0c613e1d565b9581526001600160a01b039490941660208501526040840192909252606083015260809091015290565b610100808252602a908201527f4672616374696f6e616c697a6174696f6e20426f6f74737472617070696e67206101208201527f506f6f6c20546f6b656e00000000000000000000000000000000000000000000610140820152610160602082018190526004908201527f46425054000000000000000000000000000000000000000000000000000000006101808201526001600160a01b038781166040830152861660608201526101a081018560808301528460a08301528360c0830152612bfc60e083018415159052565b60006020828403121561401557600080fd5b815161139181613cad565b60006020828403121561403257600080fd5b5051919050565b634e487b7160e01b600052601160045260246000fd5b600060001982141561406357614063614039565b5060010190565b6000821982111561407d5761407d614039565b500190565b600081600019048311821515161561409c5761409c614039565b500290565b6000826140be57634e487b7160e01b600052601260045260246000fd5b500490565b6000828210156140d5576140d5614039565b500390565b634e487b7160e01b600052604160045260246000fd5b634e487b7160e01b600052603260045260246000fd5b602080825282518282018190526000919060409081850190868401855b8281101561415b578151805161413881613e33565b855280870151878601528501518585015260609093019290850190600101614123565b5091979650505050505050565b604051601f8201601f1916810167ffffffffffffffff81118282101715614191576141916140da565b604052919050565b600067ffffffffffffffff8211156141b3576141b36140da565b5060051b60200190565b600082601f8301126141ce57600080fd5b815160206141e36141de83614199565b614168565b82815260059290921b8401810191818101908684111561420257600080fd5b8286015b8481101561421d5780518352918301918301614206565b509695505050505050565b60006020828403121561423a57600080fd5b815167ffffffffffffffff81111561425157600080fd5b611f9d848285016141bd565b60005b83811015614278578181015183820152602001614260565b83811115614287576000848401525b50505050565b7f416363657373436f6e74726f6c3a206163636f756e74200000000000000000008152600083516142c581601785016020880161425d565b7f206973206d697373696e6720726f6c6520000000000000000000000000000000601791840191820152835161430281602884016020880161425d565b01602801949350505050565b6000815180845261432681602086016020860161425d565b601f01601f19169290920160200192915050565b602081526000611391602083018461430e565b634e487b7160e01b600052603160045260246000fd5b60006020828403121561437557600080fd5b815161139181613cf8565b600081518084526020808501945080840160005b838110156143b057815187529582019590820190600101614394565b509495945050505050565b848152600060206001600160a01b038087168285015280861660408501526080606085015261010084018551608080870152818151808452610120880191508583019350600092505b8083101561442657835185168252928501926001929092019190850190614404565b508488015194507fffffffffffffffffffffffffffffffffffffffffffffffffffffffffffffff809350838782030160a08801526144648186614380565b94505050506040850151818584030160c0860152614482838261430e565b92505050606084015161421d60e085018215159052565b6000816144a8576144a8614039565b506000190190565b6000600584106144c2576144c2613e1d565b83825260406020830152611f9d6040830184614380565b6000806000606084860312156144ee57600080fd5b835167ffffffffffffffff8082111561450657600080fd5b818601915086601f83011261451a57600080fd5b8151602061452a6141de83614199565b82815260059290921b8401810191818101908a84111561454957600080fd5b948201945b8386101561457057855161456181613cad565b8252948201949082019061454e565b9189015191975090935050508082111561458957600080fd5b50614596868287016141bd565b92505060408401519050925092509256fea264697066735822122002d3941d95d88f92ccb17c558bf1d6a5dfd9bf8e91fd7c816540083df70b7a3364736f6c63430008090033",
  "devdoc": {
    "kind": "dev",
    "methods": {
      "acceptProposal(address,uint256)": {
        "params": {
          "proposalId": "The id of the issuance proposal.",
          "sERC20": "The sERC20 which was proposed to be issued."
        }
      },
      "close(address)": {
        "params": {
          "sERC20": "The sERC20 whose issuance to close."
        }
      },
      "createProposal(address,uint256,uint256)": {
        "details": "- We do not check that sERC20.cap() > sERC20.totalSupply().      - Indeed, to make sure the transaction does not revert, we would need to take both the price, LP reward and allocation into consideration.      - That would involve a lot of un-necessary computations as the sERC20 reverts in such a situation anyhow.",
        "params": {
          "lifespan": "The lifespan of the proposal [in seconds].",
          "price": "The price at which sERC20s are proposed to be issued [in sERC20 per ETH].",
          "sERC20": "The sERC20 to issue."
        }
      },
      "enableFlashIssuance(address)": {
        "params": {
          "sERC20": "The sERC20 to enable flash issuance for."
        }
      },
      "getRoleAdmin(bytes32)": {
        "details": "Returns the admin role that controls `role`. See {grantRole} and {revokeRole}. To change a role's admin, use {_setRoleAdmin}."
      },
      "getRoleMember(bytes32,uint256)": {
        "details": "Returns one of the accounts that have `role`. `index` must be a value between 0 and {getRoleMemberCount}, non-inclusive. Role bearers are not sorted in any particular way, and their ordering may change at any point. WARNING: When using {getRoleMember} and {getRoleMemberCount}, make sure you perform all queries on the same block. See the following https://forum.openzeppelin.com/t/iterating-over-elements-on-enumerableset-in-openzeppelin-contracts/2296[forum post] for more information."
      },
      "getRoleMemberCount(bytes32)": {
        "details": "Returns the number of accounts that have `role`. Can be used together with {getRoleMember} to enumerate all bearers of a role."
      },
      "grantRole(bytes32,address)": {
        "details": "Overload {grantRole} to track enumerable memberships"
      },
      "hasRole(bytes32,address)": {
        "details": "Returns `true` if `account` has been granted `role`."
      },
      "issuanceOf(address)": {
        "params": {
          "sERC20": "The sERC20 whose issuance is queried."
        }
      },
      "issue(address,uint256)": {
        "details": "- We do not check that sERC20.cap() > sERC20.totalSupply().      - Indeed, to make sure the transaction does not revert, we would need to take both the price, LP reward and allocation into consideration.      - That would involve a lot of un-necessary computations as the sERC20 reverts in such a situation anyhow.",
        "params": {
          "expected": "The minimum amount of sERC20 to issue [reverts otherwise]."
        }
      },
      "priceOf(address)": {
        "params": {
          "sERC20": "The sERC20 whose current issuance price is to be returned."
        }
      },
      "register(address,address,uint256,uint256,uint256,uint256,uint256,uint256,bool)": {
        "details": "- We do not check neither that:        - `sERC20` actually is an sERC20        - nor that this contract is granted MINT_ROLE over `sERC20` to save gas.      - Indeed, only trusted templates, registering sERC20s out of actual NFT fractionalizations and self-computing `allocation`, are supposed to be        granted REGISTER_ROLE.      - Pool-related parameters are checked by the FractionalizationBootstrappingPool's constructor.      - Other parameters are checked because they are passed by users and forwarded unchecked by templates.",
        "params": {
          "allocation": "The pre-allocated percentage of sERC20s [expressed with 1e18 decimals].",
          "fee": "The issuance fee.",
          "flash": "True if flash issuance is enabled, false otherwise.",
          "guardian": "The account authorized to enable flash issuance and accept / reject proposals otherwise [also receives ETH proceeds].",
          "reserve": "The reserve price below which sERC20 tokens can be issued [expressed in sERC20 per ETH and 1e18 decimals].",
          "sERC20": "The sERC20 to initiate the issuance of.",
          "sMaxNormalizedWeight": "The maximum normalized weight of the sERC20 in the FractionalizationBootstrappingPool to be deployed.",
          "sMinNormalizedWeight": "The minimum normalized weight of the sERC20 in the FractionalizationBootstrappingPool to be deployed.",
          "swapFeePercentage": "The swap fee of the FractionalizationBootstrappingPool to be deployed [expressed with 1e16 decimals]."
        }
      },
      "rejectProposal(address,uint256)": {
        "details": "This function is open to re-entrancy for it would be harmless.",
        "params": {
          "proposalId": "The id of the issuance proposal.",
          "sERC20": "The sERC20 which was proposed to be issued."
        }
      },
      "renounceRole(bytes32,address)": {
        "details": "Overload {renounceRole} to track enumerable memberships"
      },
      "revokeRole(bytes32,address)": {
        "details": "Overload {revokeRole} to track enumerable memberships"
      },
      "setReserve(address,uint256)": {
        "params": {
          "reserve": "The reserve price below which sERC20 tokens can be issued [expressed in sERC20 per ETH and 1e18 decimals].",
          "sERC20": "The sERC20 whose issuance reserve price is updated."
        }
      },
      "supportsInterface(bytes4)": {
        "details": "See {IERC165-supportsInterface}."
      },
      "twapOf(address,uint8)": {
        "params": {
          "kind": "TwapKind.ETH to return the TWAP in ETH per sERC20, TwapKind.sERC20 to return the TWAP in sERC20 per ETH.",
          "sERC20": "The sERC20 whose TWAP is to be returned."
        }
      },
      "withdrawProposal(address,uint256)": {
        "details": "This function is open to re-entrancy for it would be harmless.",
        "params": {
          "proposalId": "The id of the issuance proposal.",
          "sERC20": "The sERC20 which was proposed to be issued."
        }
      }
    },
    "title": "Issuer",
    "version": 1
  },
  "userdoc": {
    "kind": "user",
    "methods": {
      "WETH()": {
        "notice": "Return the issuer's WETH."
      },
      "acceptProposal(address,uint256)": {
        "notice": "Accept proposal #`proposalId` to issue `sERC20` tokens."
      },
      "bank()": {
        "notice": "Return the issuer's bank."
      },
      "close(address)": {
        "notice": "Close the issuance of `sERC20`."
      },
      "createProposal(address,uint256,uint256)": {
        "notice": "Create a proposal to issue `sERC20` tokens at a price of `price` sERC20 per ETH."
      },
      "enableFlashIssuance(address)": {
        "notice": "Enable flash issuance for `sERC20`."
      },
      "issuanceOf(address)": {
        "notice": "Return the issuance associated to `sERC20`."
      },
      "issue(address,uint256)": {
        "notice": "Issue at least `expected` `sERC20` tokens."
      },
      "poolFactory()": {
        "notice": "Return the issuer's pool factory."
      },
      "priceOf(address)": {
        "notice": "Return the current issuance price of `sERC20` [in sERC20 per ETH]."
      },
      "proposalFor(address,uint256)": {
        "notice": "Return the proposal #`proposalId` to issue `sERC20` tokens."
      },
      "protocolFee()": {
        "notice": "Return the issuer's protocol fee."
      },
      "register(address,address,uint256,uint256,uint256,uint256,uint256,uint256,bool)": {
        "notice": "Initiate the issuance of `sERC20`."
      },
      "rejectProposal(address,uint256)": {
        "notice": "Reject proposal #`proposalId` to issue `sERC20` tokens."
      },
      "setBank(address)": {
        "notice": "Set the issuer's bank [to which protocol fees are transferred]."
      },
      "setProtocolFee(uint256)": {
        "notice": "Set the issuer's protocol fee [expressed with 1e18 decimals]."
      },
      "setReserve(address,uint256)": {
        "notice": "Set the reserve price for the issuance of `sERC20`."
      },
      "splitter()": {
        "notice": "Return the issuer's splitter."
      },
      "twapOf(address,uint8)": {
        "notice": "Return the 24h time-weighted average price of `sERC20`."
      },
      "vault()": {
        "notice": "Return the issuer's Balancer vault."
      },
      "withdrawProposal(address,uint256)": {
        "notice": "Withdraw proposal #`proposalId` to issue `sERC20` tokens.."
      }
    },
    "notice": "Handles the issuance of sERC20 tokens.",
    "version": 1
  },
  "storageLayout": {
    "storage": [
      {
        "astId": 2413,
        "contract": "contracts/issuer/Issuer.sol:Issuer",
        "label": "_roles",
        "offset": 0,
        "slot": "0",
        "type": "t_mapping(t_bytes32,t_struct(RoleData)2408_storage)"
      },
      {
        "astId": 2714,
        "contract": "contracts/issuer/Issuer.sol:Issuer",
        "label": "_roleMembers",
        "offset": 0,
        "slot": "1",
        "type": "t_mapping(t_bytes32,t_struct(AddressSet)6087_storage)"
      },
      {
        "astId": 9474,
        "contract": "contracts/issuer/Issuer.sol:Issuer",
        "label": "_bank",
        "offset": 0,
        "slot": "2",
        "type": "t_address"
      },
      {
        "astId": 9476,
        "contract": "contracts/issuer/Issuer.sol:Issuer",
        "label": "_protocolFee",
        "offset": 0,
        "slot": "3",
        "type": "t_uint256"
      },
      {
        "astId": 9482,
        "contract": "contracts/issuer/Issuer.sol:Issuer",
        "label": "_issuances",
        "offset": 0,
        "slot": "4",
        "type": "t_mapping(t_contract(sIERC20)13084,t_struct(Issuance)11778_storage)"
      }
    ],
    "types": {
      "t_address": {
        "encoding": "inplace",
        "label": "address",
        "numberOfBytes": "20"
      },
      "t_array(t_bytes32)dyn_storage": {
        "base": "t_bytes32",
        "encoding": "dynamic_array",
        "label": "bytes32[]",
        "numberOfBytes": "32"
      },
      "t_bool": {
        "encoding": "inplace",
        "label": "bool",
        "numberOfBytes": "1"
      },
      "t_bytes32": {
        "encoding": "inplace",
        "label": "bytes32",
        "numberOfBytes": "32"
      },
      "t_contract(IFractionalizationBootstrappingPool)11718": {
        "encoding": "inplace",
        "label": "contract IFractionalizationBootstrappingPool",
        "numberOfBytes": "20"
      },
      "t_contract(sIERC20)13084": {
        "encoding": "inplace",
        "label": "contract sIERC20",
        "numberOfBytes": "20"
      },
      "t_enum(State)11750": {
        "encoding": "inplace",
        "label": "enum Issuances.State",
        "numberOfBytes": "1"
      },
      "t_enum(State)11786": {
        "encoding": "inplace",
        "label": "enum Proposals.State",
        "numberOfBytes": "1"
      },
      "t_mapping(t_address,t_bool)": {
        "encoding": "mapping",
        "key": "t_address",
        "label": "mapping(address => bool)",
        "numberOfBytes": "32",
        "value": "t_bool"
      },
      "t_mapping(t_bytes32,t_struct(AddressSet)6087_storage)": {
        "encoding": "mapping",
        "key": "t_bytes32",
        "label": "mapping(bytes32 => struct EnumerableSet.AddressSet)",
        "numberOfBytes": "32",
        "value": "t_struct(AddressSet)6087_storage"
      },
      "t_mapping(t_bytes32,t_struct(RoleData)2408_storage)": {
        "encoding": "mapping",
        "key": "t_bytes32",
        "label": "mapping(bytes32 => struct AccessControl.RoleData)",
        "numberOfBytes": "32",
        "value": "t_struct(RoleData)2408_storage"
      },
      "t_mapping(t_bytes32,t_uint256)": {
        "encoding": "mapping",
        "key": "t_bytes32",
        "label": "mapping(bytes32 => uint256)",
        "numberOfBytes": "32",
        "value": "t_uint256"
      },
      "t_mapping(t_contract(sIERC20)13084,t_struct(Issuance)11778_storage)": {
        "encoding": "mapping",
        "key": "t_contract(sIERC20)13084",
        "label": "mapping(contract sIERC20 => struct Issuances.Issuance)",
        "numberOfBytes": "32",
        "value": "t_struct(Issuance)11778_storage"
      },
      "t_mapping(t_uint256,t_struct(Proposal)11798_storage)": {
        "encoding": "mapping",
        "key": "t_uint256",
        "label": "mapping(uint256 => struct Proposals.Proposal)",
        "numberOfBytes": "32",
        "value": "t_struct(Proposal)11798_storage"
      },
      "t_struct(AddressSet)6087_storage": {
        "encoding": "inplace",
        "label": "struct EnumerableSet.AddressSet",
        "members": [
          {
            "astId": 6086,
            "contract": "contracts/issuer/Issuer.sol:Issuer",
            "label": "_inner",
            "offset": 0,
            "slot": "0",
            "type": "t_struct(Set)5786_storage"
          }
        ],
        "numberOfBytes": "64"
      },
      "t_struct(Issuance)11778_storage": {
        "encoding": "inplace",
        "label": "struct Issuances.Issuance",
        "members": [
          {
            "astId": 11753,
            "contract": "contracts/issuer/Issuer.sol:Issuer",
            "label": "state",
            "offset": 0,
            "slot": "0",
            "type": "t_enum(State)11750"
          },
          {
            "astId": 11755,
            "contract": "contracts/issuer/Issuer.sol:Issuer",
            "label": "guardian",
            "offset": 1,
            "slot": "0",
            "type": "t_address"
          },
          {
            "astId": 11758,
            "contract": "contracts/issuer/Issuer.sol:Issuer",
            "label": "pool",
            "offset": 0,
            "slot": "1",
            "type": "t_contract(IFractionalizationBootstrappingPool)11718"
          },
          {
            "astId": 11760,
            "contract": "contracts/issuer/Issuer.sol:Issuer",
            "label": "poolId",
            "offset": 0,
            "slot": "2",
            "type": "t_bytes32"
          },
          {
            "astId": 11762,
            "contract": "contracts/issuer/Issuer.sol:Issuer",
            "label": "reserve",
            "offset": 0,
            "slot": "3",
            "type": "t_uint256"
          },
          {
            "astId": 11764,
            "contract": "contracts/issuer/Issuer.sol:Issuer",
            "label": "allocation",
            "offset": 0,
            "slot": "4",
            "type": "t_uint256"
          },
          {
            "astId": 11766,
            "contract": "contracts/issuer/Issuer.sol:Issuer",
            "label": "fee",
            "offset": 0,
            "slot": "5",
            "type": "t_uint256"
          },
          {
            "astId": 11768,
            "contract": "contracts/issuer/Issuer.sol:Issuer",
            "label": "nbOfProposals",
            "offset": 0,
            "slot": "6",
            "type": "t_uint256"
          },
          {
            "astId": 11773,
            "contract": "contracts/issuer/Issuer.sol:Issuer",
            "label": "proposals",
            "offset": 0,
            "slot": "7",
            "type": "t_mapping(t_uint256,t_struct(Proposal)11798_storage)"
          },
          {
            "astId": 11775,
            "contract": "contracts/issuer/Issuer.sol:Issuer",
            "label": "flash",
            "offset": 0,
            "slot": "8",
            "type": "t_bool"
          },
          {
            "astId": 11777,
            "contract": "contracts/issuer/Issuer.sol:Issuer",
            "label": "sERC20IsToken0",
            "offset": 1,
            "slot": "8",
            "type": "t_bool"
          }
        ],
        "numberOfBytes": "288"
      },
      "t_struct(Proposal)11798_storage": {
        "encoding": "inplace",
        "label": "struct Proposals.Proposal",
        "members": [
          {
            "astId": 11789,
            "contract": "contracts/issuer/Issuer.sol:Issuer",
            "label": "_state",
            "offset": 0,
            "slot": "0",
            "type": "t_enum(State)11786"
          },
          {
            "astId": 11791,
            "contract": "contracts/issuer/Issuer.sol:Issuer",
            "label": "buyer",
            "offset": 1,
            "slot": "0",
            "type": "t_address"
          },
          {
            "astId": 11793,
            "contract": "contracts/issuer/Issuer.sol:Issuer",
            "label": "value",
            "offset": 0,
            "slot": "1",
            "type": "t_uint256"
          },
          {
            "astId": 11795,
            "contract": "contracts/issuer/Issuer.sol:Issuer",
            "label": "price",
            "offset": 0,
            "slot": "2",
            "type": "t_uint256"
          },
          {
            "astId": 11797,
            "contract": "contracts/issuer/Issuer.sol:Issuer",
            "label": "expiration",
            "offset": 0,
            "slot": "3",
            "type": "t_uint256"
          }
        ],
        "numberOfBytes": "128"
      },
      "t_struct(RoleData)2408_storage": {
        "encoding": "inplace",
        "label": "struct AccessControl.RoleData",
        "members": [
          {
            "astId": 2405,
            "contract": "contracts/issuer/Issuer.sol:Issuer",
            "label": "members",
            "offset": 0,
            "slot": "0",
            "type": "t_mapping(t_address,t_bool)"
          },
          {
            "astId": 2407,
            "contract": "contracts/issuer/Issuer.sol:Issuer",
            "label": "adminRole",
            "offset": 0,
            "slot": "1",
            "type": "t_bytes32"
          }
        ],
        "numberOfBytes": "64"
      },
      "t_struct(Set)5786_storage": {
        "encoding": "inplace",
        "label": "struct EnumerableSet.Set",
        "members": [
          {
            "astId": 5781,
            "contract": "contracts/issuer/Issuer.sol:Issuer",
            "label": "_values",
            "offset": 0,
            "slot": "0",
            "type": "t_array(t_bytes32)dyn_storage"
          },
          {
            "astId": 5785,
            "contract": "contracts/issuer/Issuer.sol:Issuer",
            "label": "_indexes",
            "offset": 0,
            "slot": "1",
            "type": "t_mapping(t_bytes32,t_uint256)"
          }
        ],
        "numberOfBytes": "64"
      },
      "t_uint256": {
        "encoding": "inplace",
        "label": "uint256",
        "numberOfBytes": "32"
      }
    }
  }
}