{
  "address": "0x0E5865848914fD8790198f25A57A748A01c53bE8",
  "abi": [
    {
      "inputs": [
        {
          "internalType": "string",
          "name": "name",
          "type": "string"
        },
        {
          "internalType": "string",
          "name": "symbol",
          "type": "string"
        }
      ],
      "stateMutability": "nonpayable",
      "type": "constructor"
    },
    {
      "anonymous": false,
      "inputs": [
        {
          "indexed": true,
          "internalType": "address",
          "name": "owner",
          "type": "address"
        },
        {
          "indexed": true,
          "internalType": "address",
          "name": "approved",
          "type": "address"
        },
        {
          "indexed": true,
          "internalType": "uint256",
          "name": "tokenId",
          "type": "uint256"
        }
      ],
      "name": "Approval",
      "type": "event"
    },
    {
      "anonymous": false,
      "inputs": [
        {
          "indexed": true,
          "internalType": "address",
          "name": "owner",
          "type": "address"
        },
        {
          "indexed": true,
          "internalType": "address",
          "name": "operator",
          "type": "address"
        },
        {
          "indexed": false,
          "internalType": "bool",
          "name": "approved",
          "type": "bool"
        }
      ],
      "name": "ApprovalForAll",
      "type": "event"
    },
    {
      "anonymous": false,
      "inputs": [
        {
          "indexed": false,
          "internalType": "address",
          "name": "account",
          "type": "address"
        }
      ],
      "name": "Paused",
      "type": "event"
    },
    {
      "anonymous": false,
      "inputs": [
        {
          "indexed": true,
          "internalType": "bytes32",
          "name": "role",
          "type": "bytes32"
        },
        {
          "indexed": true,
          "internalType": "bytes32",
          "name": "previousAdminRole",
          "type": "bytes32"
        },
        {
          "indexed": true,
          "internalType": "bytes32",
          "name": "newAdminRole",
          "type": "bytes32"
        }
      ],
      "name": "RoleAdminChanged",
      "type": "event"
    },
    {
      "anonymous": false,
      "inputs": [
        {
          "indexed": true,
          "internalType": "bytes32",
          "name": "role",
          "type": "bytes32"
        },
        {
          "indexed": true,
          "internalType": "address",
          "name": "account",
          "type": "address"
        },
        {
          "indexed": true,
          "internalType": "address",
          "name": "sender",
          "type": "address"
        }
      ],
      "name": "RoleGranted",
      "type": "event"
    },
    {
      "anonymous": false,
      "inputs": [
        {
          "indexed": true,
          "internalType": "bytes32",
          "name": "role",
          "type": "bytes32"
        },
        {
          "indexed": true,
          "internalType": "address",
          "name": "account",
          "type": "address"
        },
        {
          "indexed": true,
          "internalType": "address",
          "name": "sender",
          "type": "address"
        }
      ],
      "name": "RoleRevoked",
      "type": "event"
    },
    {
      "anonymous": false,
      "inputs": [
        {
          "indexed": true,
          "internalType": "address",
          "name": "from",
          "type": "address"
        },
        {
          "indexed": true,
          "internalType": "address",
          "name": "to",
          "type": "address"
        },
        {
          "indexed": true,
          "internalType": "uint256",
          "name": "tokenId",
          "type": "uint256"
        }
      ],
      "name": "Transfer",
      "type": "event"
    },
    {
      "anonymous": false,
      "inputs": [
        {
          "indexed": false,
          "internalType": "address",
          "name": "account",
          "type": "address"
        }
      ],
      "name": "Unpaused",
      "type": "event"
    },
    {
      "inputs": [],
      "name": "DEFAULT_ADMIN_ROLE",
      "outputs": [
        {
          "internalType": "bytes32",
          "name": "",
          "type": "bytes32"
        }
      ],
      "stateMutability": "view",
      "type": "function"
    },
    {
      "inputs": [],
      "name": "MINT_ROLE",
      "outputs": [
        {
          "internalType": "bytes32",
          "name": "",
          "type": "bytes32"
        }
      ],
      "stateMutability": "view",
      "type": "function"
    },
    {
      "inputs": [
        {
          "internalType": "address",
          "name": "to",
          "type": "address"
        },
        {
          "internalType": "uint256",
          "name": "tokenId",
          "type": "uint256"
        }
      ],
      "name": "approve",
      "outputs": [],
      "stateMutability": "nonpayable",
      "type": "function"
    },
    {
      "inputs": [
        {
          "internalType": "address",
          "name": "owner",
          "type": "address"
        }
      ],
      "name": "balanceOf",
      "outputs": [
        {
          "internalType": "uint256",
          "name": "",
          "type": "uint256"
        }
      ],
      "stateMutability": "view",
      "type": "function"
    },
    {
      "inputs": [
        {
          "internalType": "uint256",
          "name": "tokenId",
          "type": "uint256"
        }
      ],
      "name": "burn",
      "outputs": [],
      "stateMutability": "nonpayable",
      "type": "function"
    },
    {
      "inputs": [
        {
          "internalType": "uint256",
          "name": "tokenId",
          "type": "uint256"
        }
      ],
      "name": "getApproved",
      "outputs": [
        {
          "internalType": "address",
          "name": "",
          "type": "address"
        }
      ],
      "stateMutability": "view",
      "type": "function"
    },
    {
      "inputs": [
        {
          "internalType": "bytes32",
          "name": "role",
          "type": "bytes32"
        }
      ],
      "name": "getRoleAdmin",
      "outputs": [
        {
          "internalType": "bytes32",
          "name": "",
          "type": "bytes32"
        }
      ],
      "stateMutability": "view",
      "type": "function"
    },
    {
      "inputs": [
        {
          "internalType": "bytes32",
          "name": "role",
          "type": "bytes32"
        },
        {
          "internalType": "uint256",
          "name": "index",
          "type": "uint256"
        }
      ],
      "name": "getRoleMember",
      "outputs": [
        {
          "internalType": "address",
          "name": "",
          "type": "address"
        }
      ],
      "stateMutability": "view",
      "type": "function"
    },
    {
      "inputs": [
        {
          "internalType": "bytes32",
          "name": "role",
          "type": "bytes32"
        }
      ],
      "name": "getRoleMemberCount",
      "outputs": [
        {
          "internalType": "uint256",
          "name": "",
          "type": "uint256"
        }
      ],
      "stateMutability": "view",
      "type": "function"
    },
    {
      "inputs": [
        {
          "internalType": "bytes32",
          "name": "role",
          "type": "bytes32"
        },
        {
          "internalType": "address",
          "name": "account",
          "type": "address"
        }
      ],
      "name": "grantRole",
      "outputs": [],
      "stateMutability": "nonpayable",
      "type": "function"
    },
    {
      "inputs": [
        {
          "internalType": "bytes32",
          "name": "role",
          "type": "bytes32"
        },
        {
          "internalType": "address",
          "name": "account",
          "type": "address"
        }
      ],
      "name": "hasRole",
      "outputs": [
        {
          "internalType": "bool",
          "name": "",
          "type": "bool"
        }
      ],
      "stateMutability": "view",
      "type": "function"
    },
    {
      "inputs": [
        {
          "internalType": "address",
          "name": "owner",
          "type": "address"
        },
        {
          "internalType": "address",
          "name": "operator",
          "type": "address"
        }
      ],
      "name": "isApprovedForAll",
      "outputs": [
        {
          "internalType": "bool",
          "name": "",
          "type": "bool"
        }
      ],
      "stateMutability": "view",
      "type": "function"
    },
    {
      "inputs": [
        {
          "internalType": "address",
          "name": "to",
          "type": "address"
        },
        {
          "internalType": "string",
          "name": "_tokenURI",
          "type": "string"
        }
      ],
      "name": "mint",
      "outputs": [
        {
          "internalType": "uint256",
          "name": "",
          "type": "uint256"
        }
      ],
      "stateMutability": "nonpayable",
      "type": "function"
    },
    {
      "inputs": [],
      "name": "name",
      "outputs": [
        {
          "internalType": "string",
          "name": "",
          "type": "string"
        }
      ],
      "stateMutability": "view",
      "type": "function"
    },
    {
      "inputs": [
        {
          "internalType": "uint256",
          "name": "tokenId",
          "type": "uint256"
        }
      ],
      "name": "ownerOf",
      "outputs": [
        {
          "internalType": "address",
          "name": "",
          "type": "address"
        }
      ],
      "stateMutability": "view",
      "type": "function"
    },
    {
      "inputs": [],
      "name": "pause",
      "outputs": [],
      "stateMutability": "nonpayable",
      "type": "function"
    },
    {
      "inputs": [],
      "name": "paused",
      "outputs": [
        {
          "internalType": "bool",
          "name": "",
          "type": "bool"
        }
      ],
      "stateMutability": "view",
      "type": "function"
    },
    {
      "inputs": [
        {
          "internalType": "bytes32",
          "name": "role",
          "type": "bytes32"
        },
        {
          "internalType": "address",
          "name": "account",
          "type": "address"
        }
      ],
      "name": "renounceRole",
      "outputs": [],
      "stateMutability": "nonpayable",
      "type": "function"
    },
    {
      "inputs": [
        {
          "internalType": "bytes32",
          "name": "role",
          "type": "bytes32"
        },
        {
          "internalType": "address",
          "name": "account",
          "type": "address"
        }
      ],
      "name": "revokeRole",
      "outputs": [],
      "stateMutability": "nonpayable",
      "type": "function"
    },
    {
      "inputs": [
        {
          "internalType": "address",
          "name": "from",
          "type": "address"
        },
        {
          "internalType": "address",
          "name": "to",
          "type": "address"
        },
        {
          "internalType": "uint256",
          "name": "tokenId",
          "type": "uint256"
        }
      ],
      "name": "safeTransferFrom",
      "outputs": [],
      "stateMutability": "nonpayable",
      "type": "function"
    },
    {
      "inputs": [
        {
          "internalType": "address",
          "name": "from",
          "type": "address"
        },
        {
          "internalType": "address",
          "name": "to",
          "type": "address"
        },
        {
          "internalType": "uint256",
          "name": "tokenId",
          "type": "uint256"
        },
        {
          "internalType": "bytes",
          "name": "_data",
          "type": "bytes"
        }
      ],
      "name": "safeTransferFrom",
      "outputs": [],
      "stateMutability": "nonpayable",
      "type": "function"
    },
    {
      "inputs": [
        {
          "internalType": "address",
          "name": "operator",
          "type": "address"
        },
        {
          "internalType": "bool",
          "name": "approved",
          "type": "bool"
        }
      ],
      "name": "setApprovalForAll",
      "outputs": [],
      "stateMutability": "nonpayable",
      "type": "function"
    },
    {
      "inputs": [
        {
          "internalType": "bytes4",
          "name": "interfaceId",
          "type": "bytes4"
        }
      ],
      "name": "supportsInterface",
      "outputs": [
        {
          "internalType": "bool",
          "name": "",
          "type": "bool"
        }
      ],
      "stateMutability": "view",
      "type": "function"
    },
    {
      "inputs": [],
      "name": "symbol",
      "outputs": [
        {
          "internalType": "string",
          "name": "",
          "type": "string"
        }
      ],
      "stateMutability": "view",
      "type": "function"
    },
    {
      "inputs": [
        {
          "internalType": "uint256",
          "name": "index",
          "type": "uint256"
        }
      ],
      "name": "tokenByIndex",
      "outputs": [
        {
          "internalType": "uint256",
          "name": "",
          "type": "uint256"
        }
      ],
      "stateMutability": "view",
      "type": "function"
    },
    {
      "inputs": [
        {
          "internalType": "address",
          "name": "owner",
          "type": "address"
        },
        {
          "internalType": "uint256",
          "name": "index",
          "type": "uint256"
        }
      ],
      "name": "tokenOfOwnerByIndex",
      "outputs": [
        {
          "internalType": "uint256",
          "name": "",
          "type": "uint256"
        }
      ],
      "stateMutability": "view",
      "type": "function"
    },
    {
      "inputs": [
        {
          "internalType": "uint256",
          "name": "tokenId",
          "type": "uint256"
        }
      ],
      "name": "tokenURI",
      "outputs": [
        {
          "internalType": "string",
          "name": "",
          "type": "string"
        }
      ],
      "stateMutability": "view",
      "type": "function"
    },
    {
      "inputs": [],
      "name": "totalSupply",
      "outputs": [
        {
          "internalType": "uint256",
          "name": "",
          "type": "uint256"
        }
      ],
      "stateMutability": "view",
      "type": "function"
    },
    {
      "inputs": [
        {
          "internalType": "address",
          "name": "from",
          "type": "address"
        },
        {
          "internalType": "address",
          "name": "to",
          "type": "address"
        },
        {
          "internalType": "uint256",
          "name": "tokenId",
          "type": "uint256"
        }
      ],
      "name": "transferFrom",
      "outputs": [],
      "stateMutability": "nonpayable",
      "type": "function"
    },
    {
      "inputs": [],
      "name": "unpause",
      "outputs": [],
      "stateMutability": "nonpayable",
      "type": "function"
    }
  ],
  "transactionHash": "0x5e9c5fd713ffafad59d46240c185547afa367bbd2a4992c91e87a1abf48628bc",
  "args": [
    "Spectre",
    "SPCTR"
  ],
  "numDeployments": 1,
  "solcInputHash": "b7701e0630858850d0c673eb40dacacf",
  "bytecode": "0x60806040523480156200001157600080fd5b506040516200316d3803806200316d83398101604081905262000034916200035d565b8151829082906200004d906002906020850190620001ea565b50805162000063906003906020840190620001ea565b5050600c805460ff19169055506200007d60003362000085565b505062000404565b6200009c8282620000c860201b62000ec31760201c565b6000828152600160209081526040909120620000c391839062000ed1620000d8821b17901c565b505050565b620000d48282620000f8565b5050565b6000620000ef836001600160a01b03841662000198565b90505b92915050565b6000828152602081815260408083206001600160a01b038516845290915290205460ff16620000d4576000828152602081815260408083206001600160a01b03851684529091529020805460ff19166001179055620001543390565b6001600160a01b0316816001600160a01b0316837f2f8788117e7eff1d82e926ec794901d17c78024a50270940304540a733656f0d60405160405180910390a45050565b6000818152600183016020526040812054620001e157508154600181810184556000848152602080822090930184905584548482528286019093526040902091909155620000f2565b506000620000f2565b828054620001f890620003c7565b90600052602060002090601f0160209004810192826200021c576000855562000267565b82601f106200023757805160ff191683800117855562000267565b8280016001018555821562000267579182015b82811115620002675782518255916020019190600101906200024a565b506200027592915062000279565b5090565b5b808211156200027557600081556001016200027a565b634e487b7160e01b600052604160045260246000fd5b600082601f830112620002b857600080fd5b81516001600160401b0380821115620002d557620002d562000290565b604051601f8301601f19908116603f0116810190828211818310171562000300576200030062000290565b816040528381526020925086838588010111156200031d57600080fd5b600091505b8382101562000341578582018301518183018401529082019062000322565b83821115620003535760008385830101525b9695505050505050565b600080604083850312156200037157600080fd5b82516001600160401b03808211156200038957600080fd5b6200039786838701620002a6565b93506020850151915080821115620003ae57600080fd5b50620003bd85828601620002a6565b9150509250929050565b600181811c90821680620003dc57607f821691505b60208210811415620003fe57634e487b7160e01b600052602260045260246000fd5b50919050565b612d5980620004146000396000f3fe608060405234801561001057600080fd5b50600436106101da5760003560e01c80636352211e11610104578063a22cb465116100a2578063d0def52111610071578063d0def521146103fd578063d547741f14610410578063e985e9c514610423578063e9a9c8501461045f57600080fd5b8063a22cb465146103b1578063b88d4fde146103c4578063c87b56dd146103d7578063ca15c873146103ea57600080fd5b80639010d07c116100de5780639010d07c1461035757806391d148541461036a57806395d89b41146103a1578063a217fddf146103a957600080fd5b80636352211e1461032957806370a082311461033c5780638456cb591461034f57600080fd5b80632f2ff15d1161017c57806342842e0e1161014b57806342842e0e146102e557806342966c68146102f85780634f6ccce71461030b5780635c975abb1461031e57600080fd5b80632f2ff15d146102a45780632f745c59146102b757806336568abe146102ca5780633f4ba83a146102dd57600080fd5b8063095ea7b3116101b8578063095ea7b31461024757806318160ddd1461025c57806323b872dd1461026e578063248a9ca31461028157600080fd5b806301ffc9a7146101df57806306fdde0314610207578063081812fc1461021c575b600080fd5b6101f26101ed366004612783565b610486565b60405190151581526020015b60405180910390f35b61020f610497565b6040516101fe91906127f8565b61022f61022a36600461280b565b610529565b6040516001600160a01b0390911681526020016101fe565b61025a610255366004612840565b6105d4565b005b600a545b6040519081526020016101fe565b61025a61027c36600461286a565b610706565b61026061028f36600461280b565b60009081526020819052604090206001015490565b61025a6102b23660046128a6565b61078e565b6102606102c5366004612840565b6107b0565b61025a6102d83660046128a6565b610858565b61025a61087a565b61025a6102f336600461286a565b610901565b61025a61030636600461280b565b61091c565b61026061031936600461280b565b6109a3565b600c5460ff166101f2565b61022f61033736600461280b565b610a47565b61026061034a3660046128d2565b610ad2565b61025a610b6c565b61022f6103653660046128ed565b610bf1565b6101f26103783660046128a6565b6000918252602082815260408084206001600160a01b0393909316845291905290205460ff1690565b61020f610c10565b610260600081565b61025a6103bf36600461290f565b610c1f565b61025a6103d23660046129d7565b610ce4565b61020f6103e536600461280b565b610d72565b6102606103f836600461280b565b610d7d565b61026061040b366004612a53565b610d94565b61025a61041e3660046128a6565b610eb9565b6101f2610431366004612ab5565b6001600160a01b03918216600090815260076020908152604080832093909416825291909152205460ff1690565b6102607f154c00819833dac601ee5ddded6fda79d9d8b506b911b3dbd54cdb95fe6c368681565b600061049182610ee6565b92915050565b6060600280546104a690612adf565b80601f01602080910402602001604051908101604052809291908181526020018280546104d290612adf565b801561051f5780601f106104f45761010080835404028352916020019161051f565b820191906000526020600020905b81548152906001019060200180831161050257829003601f168201915b5050505050905090565b6000818152600460205260408120546001600160a01b03166105b85760405162461bcd60e51b815260206004820152602c60248201527f4552433732313a20617070726f76656420717565727920666f72206e6f6e657860448201527f697374656e7420746f6b656e000000000000000000000000000000000000000060648201526084015b60405180910390fd5b506000908152600660205260409020546001600160a01b031690565b60006105df82610a47565b9050806001600160a01b0316836001600160a01b031614156106695760405162461bcd60e51b815260206004820152602160248201527f4552433732313a20617070726f76616c20746f2063757272656e74206f776e6560448201527f720000000000000000000000000000000000000000000000000000000000000060648201526084016105af565b336001600160a01b038216148061068557506106858133610431565b6106f75760405162461bcd60e51b815260206004820152603860248201527f4552433732313a20617070726f76652063616c6c6572206973206e6f74206f7760448201527f6e6572206e6f7220617070726f76656420666f7220616c6c000000000000000060648201526084016105af565b6107018383610f24565b505050565b610711335b82610f9f565b6107835760405162461bcd60e51b815260206004820152603160248201527f4552433732313a207472616e736665722063616c6c6572206973206e6f74206f60448201527f776e6572206e6f7220617070726f76656400000000000000000000000000000060648201526084016105af565b6107018383836110a7565b610798828261128c565b60008281526001602052604090206107019082610ed1565b60006107bb83610ad2565b821061082f5760405162461bcd60e51b815260206004820152602b60248201527f455243373231456e756d657261626c653a206f776e657220696e646578206f7560448201527f74206f6620626f756e647300000000000000000000000000000000000000000060648201526084016105af565b506001600160a01b03919091166000908152600860209081526040808320938352929052205490565b61086282826112b2565b6000828152600160205260409020610701908261133a565b610885600033610378565b6108f75760405162461bcd60e51b815260206004820152603060248201527f734552433732313a206d75737420686176652044454641554c545f41444d494e60448201527f5f524f4c4520746f20756e70617573650000000000000000000000000000000060648201526084016105af565b6108ff61134f565b565b61070183838360405180602001604052806000815250610ce4565b6109253361070b565b6109975760405162461bcd60e51b815260206004820152603060248201527f4552433732314275726e61626c653a2063616c6c6572206973206e6f74206f7760448201527f6e6572206e6f7220617070726f7665640000000000000000000000000000000060648201526084016105af565b6109a0816113eb565b50565b60006109ae600a5490565b8210610a225760405162461bcd60e51b815260206004820152602c60248201527f455243373231456e756d657261626c653a20676c6f62616c20696e646578206f60448201527f7574206f6620626f756e6473000000000000000000000000000000000000000060648201526084016105af565b600a8281548110610a3557610a35612b1a565b90600052602060002001549050919050565b6000818152600460205260408120546001600160a01b0316806104915760405162461bcd60e51b815260206004820152602960248201527f4552433732313a206f776e657220717565727920666f72206e6f6e657869737460448201527f656e7420746f6b656e000000000000000000000000000000000000000000000060648201526084016105af565b60006001600160a01b038216610b505760405162461bcd60e51b815260206004820152602a60248201527f4552433732313a2062616c616e636520717565727920666f7220746865207a6560448201527f726f20616464726573730000000000000000000000000000000000000000000060648201526084016105af565b506001600160a01b031660009081526005602052604090205490565b610b77600033610378565b610be95760405162461bcd60e51b815260206004820152602e60248201527f734552433732313a206d75737420686176652044454641554c545f41444d494e60448201527f5f524f4c4520746f20706175736500000000000000000000000000000000000060648201526084016105af565b6108ff6113f4565b6000828152600160205260408120610c09908361147c565b9392505050565b6060600380546104a690612adf565b6001600160a01b038216331415610c785760405162461bcd60e51b815260206004820152601960248201527f4552433732313a20617070726f766520746f2063616c6c65720000000000000060448201526064016105af565b3360008181526007602090815260408083206001600160a01b03871680855290835292819020805460ff191686151590811790915590519081529192917f17307eab39ab6107e8899845ad3d59bd9653f200f220920489ca2b5937696c31910160405180910390a35050565b610cee3383610f9f565b610d605760405162461bcd60e51b815260206004820152603160248201527f4552433732313a207472616e736665722063616c6c6572206973206e6f74206f60448201527f776e6572206e6f7220617070726f76656400000000000000000000000000000060648201526084016105af565b610d6c84848484611488565b50505050565b606061049182611511565b60008181526001602052604081206104919061169c565b6000610da2600c5460ff1690565b15610def5760405162461bcd60e51b815260206004820152601060248201527f5061757361626c653a207061757365640000000000000000000000000000000060448201526064016105af565b610e197f154c00819833dac601ee5ddded6fda79d9d8b506b911b3dbd54cdb95fe6c368633610378565b610e8a5760405162461bcd60e51b8152602060048201526024808201527f734552433732313a206d7573742068617665204d494e545f524f4c4520746f2060448201527f6d696e740000000000000000000000000000000000000000000000000000000060648201526084016105af565b6000610e95600e5490565b9050610ea184826116a6565b610eab8184611801565b610c09600e80546001019055565b61086282826118aa565b610ecd82826118d0565b5050565b6000610c09836001600160a01b03841661196e565b60006001600160e01b031982167f780e9d630000000000000000000000000000000000000000000000000000000014806104915750610491826119bd565b6000818152600660205260409020805473ffffffffffffffffffffffffffffffffffffffff19166001600160a01b0384169081179091558190610f6682610a47565b6001600160a01b03167f8c5be1e5ebec7d5bd14f71427d1e84f3dd0314c0f7b2291e5b200ac8c7c3b92560405160405180910390a45050565b6000818152600460205260408120546001600160a01b03166110295760405162461bcd60e51b815260206004820152602c60248201527f4552433732313a206f70657261746f7220717565727920666f72206e6f6e657860448201527f697374656e7420746f6b656e000000000000000000000000000000000000000060648201526084016105af565b600061103483610a47565b9050806001600160a01b0316846001600160a01b0316148061106f5750836001600160a01b031661106484610529565b6001600160a01b0316145b8061109f57506001600160a01b0380821660009081526007602090815260408083209388168352929052205460ff165b949350505050565b826001600160a01b03166110ba82610a47565b6001600160a01b0316146111365760405162461bcd60e51b815260206004820152602960248201527f4552433732313a207472616e73666572206f6620746f6b656e2074686174206960448201527f73206e6f74206f776e000000000000000000000000000000000000000000000060648201526084016105af565b6001600160a01b0382166111b15760405162461bcd60e51b8152602060048201526024808201527f4552433732313a207472616e7366657220746f20746865207a65726f2061646460448201527f726573730000000000000000000000000000000000000000000000000000000060648201526084016105af565b6111bc838383611a2f565b6111c7600082610f24565b6001600160a01b03831660009081526005602052604081208054600192906111f0908490612b46565b90915550506001600160a01b038216600090815260056020526040812080546001929061121e908490612b5d565b9091555050600081815260046020526040808220805473ffffffffffffffffffffffffffffffffffffffff19166001600160a01b0386811691821790925591518493918716917fddf252ad1be2c89b69c2b068fc378daa952ba7f163c4a11628f55a4df523b3ef91a4505050565b6000828152602081905260409020600101546112a88133611a3a565b61070183836118d0565b6001600160a01b03811633146113305760405162461bcd60e51b815260206004820152602f60248201527f416363657373436f6e74726f6c3a2063616e206f6e6c792072656e6f756e636560448201527f20726f6c657320666f722073656c66000000000000000000000000000000000060648201526084016105af565b610ecd8282611ab8565b6000610c09836001600160a01b038416611b37565b600c5460ff166113a15760405162461bcd60e51b815260206004820152601460248201527f5061757361626c653a206e6f742070617573656400000000000000000000000060448201526064016105af565b600c805460ff191690557f5db9ee0a495bf2e6ff9c91a7834c1ba4fdd244a5e8aa4e537bd38aeae4b073aa335b6040516001600160a01b03909116815260200160405180910390a1565b6109a081611c2a565b600c5460ff16156114475760405162461bcd60e51b815260206004820152601060248201527f5061757361626c653a207061757365640000000000000000000000000000000060448201526064016105af565b600c805460ff191660011790557f62e78cea01bee320cd4e420270b5ea74000d11b0c9f74754ebdbfc544b05a2586113ce3390565b6000610c098383611c6a565b6114938484846110a7565b61149f84848484611c94565b610d6c5760405162461bcd60e51b815260206004820152603260248201527f4552433732313a207472616e7366657220746f206e6f6e20455243373231526560448201527f63656976657220696d706c656d656e746572000000000000000000000000000060648201526084016105af565b6000818152600460205260409020546060906001600160a01b031661159e5760405162461bcd60e51b815260206004820152603160248201527f45524337323155524953746f726167653a2055524920717565727920666f722060448201527f6e6f6e6578697374656e7420746f6b656e00000000000000000000000000000060648201526084016105af565b6000828152600d6020526040812080546115b790612adf565b80601f01602080910402602001604051908101604052809291908181526020018280546115e390612adf565b80156116305780601f1061160557610100808354040283529160200191611630565b820191906000526020600020905b81548152906001019060200180831161161357829003601f168201915b50505050509050600061164e60408051602081019091526000815290565b9050805160001415611661575092915050565b81511561169357808260405160200161167b929190612b75565b60405160208183030381529060405292505050919050565b61109f84611e29565b6000610491825490565b6001600160a01b0382166116fc5760405162461bcd60e51b815260206004820181905260248201527f4552433732313a206d696e7420746f20746865207a65726f206164647265737360448201526064016105af565b6000818152600460205260409020546001600160a01b0316156117615760405162461bcd60e51b815260206004820152601c60248201527f4552433732313a20746f6b656e20616c7265616479206d696e7465640000000060448201526064016105af565b61176d60008383611a2f565b6001600160a01b0382166000908152600560205260408120805460019290611796908490612b5d565b9091555050600081815260046020526040808220805473ffffffffffffffffffffffffffffffffffffffff19166001600160a01b03861690811790915590518392907fddf252ad1be2c89b69c2b068fc378daa952ba7f163c4a11628f55a4df523b3ef908290a45050565b6000828152600460205260409020546001600160a01b031661188b5760405162461bcd60e51b815260206004820152602e60248201527f45524337323155524953746f726167653a2055524920736574206f66206e6f6e60448201527f6578697374656e7420746f6b656e00000000000000000000000000000000000060648201526084016105af565b6000828152600d6020908152604090912082516107019284019061269e565b6000828152602081905260409020600101546118c68133611a3a565b6107018383611ab8565b6000828152602081815260408083206001600160a01b038516845290915290205460ff16610ecd576000828152602081815260408083206001600160a01b03851684529091529020805460ff1916600117905561192a3390565b6001600160a01b0316816001600160a01b0316837f2f8788117e7eff1d82e926ec794901d17c78024a50270940304540a733656f0d60405160405180910390a45050565b60008181526001830160205260408120546119b557508154600181810184556000848152602080822090930184905584548482528286019093526040902091909155610491565b506000610491565b60006001600160e01b031982167f80ac58cd000000000000000000000000000000000000000000000000000000001480611a2057506001600160e01b031982167f5b5e139f00000000000000000000000000000000000000000000000000000000145b80610491575061049182611f1e565b610701838383611f5c565b6000828152602081815260408083206001600160a01b038516845290915290205460ff16610ecd57611a76816001600160a01b03166014611fe0565b611a81836020611fe0565b604051602001611a92929190612ba4565b60408051601f198184030181529082905262461bcd60e51b82526105af916004016127f8565b6000828152602081815260408083206001600160a01b038516845290915290205460ff1615610ecd576000828152602081815260408083206001600160a01b0385168085529252808320805460ff1916905551339285917ff6391f5c32d9c69d2a47ea670b442974b53935d1edc7fd64eb21e047a839171b9190a45050565b60008181526001830160205260408120548015611c20576000611b5b600183612b46565b8554909150600090611b6f90600190612b46565b9050818114611bd4576000866000018281548110611b8f57611b8f612b1a565b9060005260206000200154905080876000018481548110611bb257611bb2612b1a565b6000918252602080832090910192909255918252600188019052604090208390555b8554869080611be557611be5612c25565b600190038181906000526020600020016000905590558560010160008681526020019081526020016000206000905560019350505050610491565b6000915050610491565b611c3381612209565b6000818152600d602052604090208054611c4c90612adf565b1590506109a0576000818152600d602052604081206109a091612722565b6000826000018281548110611c8157611c81612b1a565b9060005260206000200154905092915050565b60006001600160a01b0384163b15611e1e576040517f150b7a020000000000000000000000000000000000000000000000000000000081526001600160a01b0385169063150b7a0290611cf1903390899088908890600401612c3b565b602060405180830381600087803b158015611d0b57600080fd5b505af1925050508015611d3b575060408051601f3d908101601f19168201909252611d3891810190612c77565b60015b611deb573d808015611d69576040519150601f19603f3d011682016040523d82523d6000602084013e611d6e565b606091505b508051611de35760405162461bcd60e51b815260206004820152603260248201527f4552433732313a207472616e7366657220746f206e6f6e20455243373231526560448201527f63656976657220696d706c656d656e746572000000000000000000000000000060648201526084016105af565b805181602001fd5b6001600160e01b0319167f150b7a020000000000000000000000000000000000000000000000000000000014905061109f565b506001949350505050565b6000818152600460205260409020546060906001600160a01b0316611eb65760405162461bcd60e51b815260206004820152602f60248201527f4552433732314d657461646174613a2055524920717565727920666f72206e6f60448201527f6e6578697374656e7420746f6b656e000000000000000000000000000000000060648201526084016105af565b6000611ecd60408051602081019091526000815290565b90506000815111611eed5760405180602001604052806000815250610c09565b80611ef7846122bd565b604051602001611f08929190612b75565b6040516020818303038152906040529392505050565b60006001600160e01b031982167f5a05180f0000000000000000000000000000000000000000000000000000000014806104915750610491826123ef565b611f67838383612456565b600c5460ff16156107015760405162461bcd60e51b815260206004820152602b60248201527f4552433732315061757361626c653a20746f6b656e207472616e73666572207760448201527f68696c652070617573656400000000000000000000000000000000000000000060648201526084016105af565b60606000611fef836002612c94565b611ffa906002612b5d565b67ffffffffffffffff8111156120125761201261294b565b6040519080825280601f01601f19166020018201604052801561203c576020820181803683370190505b5090507f30000000000000000000000000000000000000000000000000000000000000008160008151811061207357612073612b1a565b60200101907effffffffffffffffffffffffffffffffffffffffffffffffffffffffffffff1916908160001a9053507f7800000000000000000000000000000000000000000000000000000000000000816001815181106120d6576120d6612b1a565b60200101907effffffffffffffffffffffffffffffffffffffffffffffffffffffffffffff1916908160001a9053506000612112846002612c94565b61211d906001612b5d565b90505b60018111156121ba577f303132333435363738396162636465660000000000000000000000000000000085600f166010811061215e5761215e612b1a565b1a60f81b82828151811061217457612174612b1a565b60200101907effffffffffffffffffffffffffffffffffffffffffffffffffffffffffffff1916908160001a90535060049490941c936121b381612cb3565b9050612120565b508315610c095760405162461bcd60e51b815260206004820181905260248201527f537472696e67733a20686578206c656e67746820696e73756666696369656e7460448201526064016105af565b600061221482610a47565b905061222281600084611a2f565b61222d600083610f24565b6001600160a01b0381166000908152600560205260408120805460019290612256908490612b46565b9091555050600082815260046020526040808220805473ffffffffffffffffffffffffffffffffffffffff19169055518391906001600160a01b038416907fddf252ad1be2c89b69c2b068fc378daa952ba7f163c4a11628f55a4df523b3ef908390a45050565b6060816122fd57505060408051808201909152600181527f3000000000000000000000000000000000000000000000000000000000000000602082015290565b8160005b8115612327578061231181612cca565b91506123209050600a83612cfb565b9150612301565b60008167ffffffffffffffff8111156123425761234261294b565b6040519080825280601f01601f19166020018201604052801561236c576020820181803683370190505b5090505b841561109f57612381600183612b46565b915061238e600a86612d0f565b612399906030612b5d565b60f81b8183815181106123ae576123ae612b1a565b60200101907effffffffffffffffffffffffffffffffffffffffffffffffffffffffffffff1916908160001a9053506123e8600a86612cfb565b9450612370565b60006001600160e01b031982167f7965db0b00000000000000000000000000000000000000000000000000000000148061049157507f01ffc9a7000000000000000000000000000000000000000000000000000000006001600160e01b0319831614610491565b6001600160a01b0383166124b1576124ac81600a80546000838152600b60205260408120829055600182018355919091527fc65a7bb8d6351c1cf70c95a316cc6a92839c986682d98bc35f958f4883f9d2a80155565b6124d4565b816001600160a01b0316836001600160a01b0316146124d4576124d4838261250e565b6001600160a01b0382166124eb57610701816125ab565b826001600160a01b0316826001600160a01b03161461070157610701828261265a565b6000600161251b84610ad2565b6125259190612b46565b600083815260096020526040902054909150808214612578576001600160a01b03841660009081526008602090815260408083208584528252808320548484528184208190558352600990915290208190555b5060009182526009602090815260408084208490556001600160a01b039094168352600881528383209183525290812055565b600a546000906125bd90600190612b46565b6000838152600b6020526040812054600a80549394509092849081106125e5576125e5612b1a565b9060005260206000200154905080600a838154811061260657612606612b1a565b6000918252602080832090910192909255828152600b9091526040808220849055858252812055600a80548061263e5761263e612c25565b6001900381819060005260206000200160009055905550505050565b600061266583610ad2565b6001600160a01b039093166000908152600860209081526040808320868452825280832085905593825260099052919091209190915550565b8280546126aa90612adf565b90600052602060002090601f0160209004810192826126cc5760008555612712565b82601f106126e557805160ff1916838001178555612712565b82800160010185558215612712579182015b828111156127125782518255916020019190600101906126f7565b5061271e929150612758565b5090565b50805461272e90612adf565b6000825580601f1061273e575050565b601f0160209004906000526020600020908101906109a091905b5b8082111561271e5760008155600101612759565b6001600160e01b0319811681146109a057600080fd5b60006020828403121561279557600080fd5b8135610c098161276d565b60005b838110156127bb5781810151838201526020016127a3565b83811115610d6c5750506000910152565b600081518084526127e48160208601602086016127a0565b601f01601f19169290920160200192915050565b602081526000610c0960208301846127cc565b60006020828403121561281d57600080fd5b5035919050565b80356001600160a01b038116811461283b57600080fd5b919050565b6000806040838503121561285357600080fd5b61285c83612824565b946020939093013593505050565b60008060006060848603121561287f57600080fd5b61288884612824565b925061289660208501612824565b9150604084013590509250925092565b600080604083850312156128b957600080fd5b823591506128c960208401612824565b90509250929050565b6000602082840312156128e457600080fd5b610c0982612824565b6000806040838503121561290057600080fd5b50508035926020909101359150565b6000806040838503121561292257600080fd5b61292b83612824565b91506020830135801515811461294057600080fd5b809150509250929050565b634e487b7160e01b600052604160045260246000fd5b600067ffffffffffffffff8084111561297c5761297c61294b565b604051601f8501601f19908116603f011681019082821181831017156129a4576129a461294b565b816040528093508581528686860111156129bd57600080fd5b858560208301376000602087830101525050509392505050565b600080600080608085870312156129ed57600080fd5b6129f685612824565b9350612a0460208601612824565b925060408501359150606085013567ffffffffffffffff811115612a2757600080fd5b8501601f81018713612a3857600080fd5b612a4787823560208401612961565b91505092959194509250565b60008060408385031215612a6657600080fd5b612a6f83612824565b9150602083013567ffffffffffffffff811115612a8b57600080fd5b8301601f81018513612a9c57600080fd5b612aab85823560208401612961565b9150509250929050565b60008060408385031215612ac857600080fd5b612ad183612824565b91506128c960208401612824565b600181811c90821680612af357607f821691505b60208210811415612b1457634e487b7160e01b600052602260045260246000fd5b50919050565b634e487b7160e01b600052603260045260246000fd5b634e487b7160e01b600052601160045260246000fd5b600082821015612b5857612b58612b30565b500390565b60008219821115612b7057612b70612b30565b500190565b60008351612b878184602088016127a0565b835190830190612b9b8183602088016127a0565b01949350505050565b7f416363657373436f6e74726f6c3a206163636f756e7420000000000000000000815260008351612bdc8160178501602088016127a0565b7f206973206d697373696e6720726f6c65200000000000000000000000000000006017918401918201528351612c198160288401602088016127a0565b01602801949350505050565b634e487b7160e01b600052603160045260246000fd5b60006001600160a01b03808716835280861660208401525083604083015260806060830152612c6d60808301846127cc565b9695505050505050565b600060208284031215612c8957600080fd5b8151610c098161276d565b6000816000190483118215151615612cae57612cae612b30565b500290565b600081612cc257612cc2612b30565b506000190190565b6000600019821415612cde57612cde612b30565b5060010190565b634e487b7160e01b600052601260045260246000fd5b600082612d0a57612d0a612ce5565b500490565b600082612d1e57612d1e612ce5565b50069056fea2646970667358221220d44cc8a7c24e10460cfa1e6b2978fa2302e6a0cd5fee1f2dd52d89367354e9f164736f6c63430008090033",
  "devdoc": {
    "kind": "dev",
    "methods": {
      "approve(address,uint256)": {
        "details": "See {IERC721-approve}."
      },
      "balanceOf(address)": {
        "details": "See {IERC721-balanceOf}."
      },
      "burn(uint256)": {
        "details": "Burns `tokenId`. See {ERC721-_burn}. Requirements: - The caller must own `tokenId` or be an approved operator."
      },
      "getApproved(uint256)": {
        "details": "See {IERC721-getApproved}."
      },
      "getRoleAdmin(bytes32)": {
        "details": "Returns the admin role that controls `role`. See {grantRole} and {revokeRole}. To change a role's admin, use {_setRoleAdmin}."
      },
      "getRoleMember(bytes32,uint256)": {
        "details": "Returns one of the accounts that have `role`. `index` must be a value between 0 and {getRoleMemberCount}, non-inclusive. Role bearers are not sorted in any particular way, and their ordering may change at any point. WARNING: When using {getRoleMember} and {getRoleMemberCount}, make sure you perform all queries on the same block. See the following https://forum.openzeppelin.com/t/iterating-over-elements-on-enumerableset-in-openzeppelin-contracts/2296[forum post] for more information."
      },
      "getRoleMemberCount(bytes32)": {
        "details": "Returns the number of accounts that have `role`. Can be used together with {getRoleMember} to enumerate all bearers of a role."
      },
      "grantRole(bytes32,address)": {
        "details": "Overload {grantRole} to track enumerable memberships"
      },
      "hasRole(bytes32,address)": {
        "details": "Returns `true` if `account` has been granted `role`."
      },
      "isApprovedForAll(address,address)": {
        "details": "See {IERC721-isApprovedForAll}."
      },
      "name()": {
        "details": "See {IERC721Metadata-name}."
      },
      "ownerOf(uint256)": {
        "details": "See {IERC721-ownerOf}."
      },
      "paused()": {
        "details": "Returns true if the contract is paused, and false otherwise."
      },
      "renounceRole(bytes32,address)": {
        "details": "Overload {renounceRole} to track enumerable memberships"
      },
      "revokeRole(bytes32,address)": {
        "details": "Overload {revokeRole} to track enumerable memberships"
      },
      "safeTransferFrom(address,address,uint256)": {
        "details": "See {IERC721-safeTransferFrom}."
      },
      "safeTransferFrom(address,address,uint256,bytes)": {
        "details": "See {IERC721-safeTransferFrom}."
      },
      "setApprovalForAll(address,bool)": {
        "details": "See {IERC721-setApprovalForAll}."
      },
      "symbol()": {
        "details": "See {IERC721Metadata-symbol}."
      },
      "tokenByIndex(uint256)": {
        "details": "See {IERC721Enumerable-tokenByIndex}."
      },
      "tokenOfOwnerByIndex(address,uint256)": {
        "details": "See {IERC721Enumerable-tokenOfOwnerByIndex}."
      },
      "totalSupply()": {
        "details": "See {IERC721Enumerable-totalSupply}."
      },
      "transferFrom(address,address,uint256)": {
        "details": "See {IERC721-transferFrom}."
      }
    },
    "version": 1
  },
  "userdoc": {
    "kind": "user",
    "methods": {},
    "version": 1
  },
  "storageLayout": {
    "storage": [
      {
        "astId": 2413,
        "contract": "contracts/token/sERC721.sol:sERC721",
        "label": "_roles",
        "offset": 0,
        "slot": "0",
        "type": "t_mapping(t_bytes32,t_struct(RoleData)2408_storage)"
      },
      {
        "astId": 2714,
        "contract": "contracts/token/sERC721.sol:sERC721",
        "label": "_roleMembers",
        "offset": 0,
        "slot": "1",
        "type": "t_mapping(t_bytes32,t_struct(AddressSet)6087_storage)"
      },
      {
        "astId": 3426,
        "contract": "contracts/token/sERC721.sol:sERC721",
        "label": "_name",
        "offset": 0,
        "slot": "2",
        "type": "t_string_storage"
      },
      {
        "astId": 3428,
        "contract": "contracts/token/sERC721.sol:sERC721",
        "label": "_symbol",
        "offset": 0,
        "slot": "3",
        "type": "t_string_storage"
      },
      {
        "astId": 3432,
        "contract": "contracts/token/sERC721.sol:sERC721",
        "label": "_owners",
        "offset": 0,
        "slot": "4",
        "type": "t_mapping(t_uint256,t_address)"
      },
      {
        "astId": 3436,
        "contract": "contracts/token/sERC721.sol:sERC721",
        "label": "_balances",
        "offset": 0,
        "slot": "5",
        "type": "t_mapping(t_address,t_uint256)"
      },
      {
        "astId": 3440,
        "contract": "contracts/token/sERC721.sol:sERC721",
        "label": "_tokenApprovals",
        "offset": 0,
        "slot": "6",
        "type": "t_mapping(t_uint256,t_address)"
      },
      {
        "astId": 3446,
        "contract": "contracts/token/sERC721.sol:sERC721",
        "label": "_operatorApprovals",
        "offset": 0,
        "slot": "7",
        "type": "t_mapping(t_address,t_mapping(t_address,t_bool))"
      },
      {
        "astId": 4395,
        "contract": "contracts/token/sERC721.sol:sERC721",
        "label": "_ownedTokens",
        "offset": 0,
        "slot": "8",
        "type": "t_mapping(t_address,t_mapping(t_uint256,t_uint256))"
      },
      {
        "astId": 4399,
        "contract": "contracts/token/sERC721.sol:sERC721",
        "label": "_ownedTokensIndex",
        "offset": 0,
        "slot": "9",
        "type": "t_mapping(t_uint256,t_uint256)"
      },
      {
        "astId": 4402,
        "contract": "contracts/token/sERC721.sol:sERC721",
        "label": "_allTokens",
        "offset": 0,
        "slot": "10",
        "type": "t_array(t_uint256)dyn_storage"
      },
      {
        "astId": 4406,
        "contract": "contracts/token/sERC721.sol:sERC721",
        "label": "_allTokensIndex",
        "offset": 0,
        "slot": "11",
        "type": "t_mapping(t_uint256,t_uint256)"
      },
      {
        "astId": 3070,
        "contract": "contracts/token/sERC721.sol:sERC721",
        "label": "_paused",
        "offset": 0,
        "slot": "12",
        "type": "t_bool"
      },
      {
        "astId": 4768,
        "contract": "contracts/token/sERC721.sol:sERC721",
        "label": "_tokenURIs",
        "offset": 0,
        "slot": "13",
        "type": "t_mapping(t_uint256,t_string_storage)"
      },
      {
        "astId": 12812,
        "contract": "contracts/token/sERC721.sol:sERC721",
        "label": "_tokenIdTracker",
        "offset": 0,
        "slot": "14",
        "type": "t_struct(Counter)5266_storage"
      }
    ],
    "types": {
      "t_address": {
        "encoding": "inplace",
        "label": "address",
        "numberOfBytes": "20"
      },
      "t_array(t_bytes32)dyn_storage": {
        "base": "t_bytes32",
        "encoding": "dynamic_array",
        "label": "bytes32[]",
        "numberOfBytes": "32"
      },
      "t_array(t_uint256)dyn_storage": {
        "base": "t_uint256",
        "encoding": "dynamic_array",
        "label": "uint256[]",
        "numberOfBytes": "32"
      },
      "t_bool": {
        "encoding": "inplace",
        "label": "bool",
        "numberOfBytes": "1"
      },
      "t_bytes32": {
        "encoding": "inplace",
        "label": "bytes32",
        "numberOfBytes": "32"
      },
      "t_mapping(t_address,t_bool)": {
        "encoding": "mapping",
        "key": "t_address",
        "label": "mapping(address => bool)",
        "numberOfBytes": "32",
        "value": "t_bool"
      },
      "t_mapping(t_address,t_mapping(t_address,t_bool))": {
        "encoding": "mapping",
        "key": "t_address",
        "label": "mapping(address => mapping(address => bool))",
        "numberOfBytes": "32",
        "value": "t_mapping(t_address,t_bool)"
      },
      "t_mapping(t_address,t_mapping(t_uint256,t_uint256))": {
        "encoding": "mapping",
        "key": "t_address",
        "label": "mapping(address => mapping(uint256 => uint256))",
        "numberOfBytes": "32",
        "value": "t_mapping(t_uint256,t_uint256)"
      },
      "t_mapping(t_address,t_uint256)": {
        "encoding": "mapping",
        "key": "t_address",
        "label": "mapping(address => uint256)",
        "numberOfBytes": "32",
        "value": "t_uint256"
      },
      "t_mapping(t_bytes32,t_struct(AddressSet)6087_storage)": {
        "encoding": "mapping",
        "key": "t_bytes32",
        "label": "mapping(bytes32 => struct EnumerableSet.AddressSet)",
        "numberOfBytes": "32",
        "value": "t_struct(AddressSet)6087_storage"
      },
      "t_mapping(t_bytes32,t_struct(RoleData)2408_storage)": {
        "encoding": "mapping",
        "key": "t_bytes32",
        "label": "mapping(bytes32 => struct AccessControl.RoleData)",
        "numberOfBytes": "32",
        "value": "t_struct(RoleData)2408_storage"
      },
      "t_mapping(t_bytes32,t_uint256)": {
        "encoding": "mapping",
        "key": "t_bytes32",
        "label": "mapping(bytes32 => uint256)",
        "numberOfBytes": "32",
        "value": "t_uint256"
      },
      "t_mapping(t_uint256,t_address)": {
        "encoding": "mapping",
        "key": "t_uint256",
        "label": "mapping(uint256 => address)",
        "numberOfBytes": "32",
        "value": "t_address"
      },
      "t_mapping(t_uint256,t_string_storage)": {
        "encoding": "mapping",
        "key": "t_uint256",
        "label": "mapping(uint256 => string)",
        "numberOfBytes": "32",
        "value": "t_string_storage"
      },
      "t_mapping(t_uint256,t_uint256)": {
        "encoding": "mapping",
        "key": "t_uint256",
        "label": "mapping(uint256 => uint256)",
        "numberOfBytes": "32",
        "value": "t_uint256"
      },
      "t_string_storage": {
        "encoding": "bytes",
        "label": "string",
        "numberOfBytes": "32"
      },
      "t_struct(AddressSet)6087_storage": {
        "encoding": "inplace",
        "label": "struct EnumerableSet.AddressSet",
        "members": [
          {
            "astId": 6086,
            "contract": "contracts/token/sERC721.sol:sERC721",
            "label": "_inner",
            "offset": 0,
            "slot": "0",
            "type": "t_struct(Set)5786_storage"
          }
        ],
        "numberOfBytes": "64"
      },
      "t_struct(Counter)5266_storage": {
        "encoding": "inplace",
        "label": "struct Counters.Counter",
        "members": [
          {
            "astId": 5265,
            "contract": "contracts/token/sERC721.sol:sERC721",
            "label": "_value",
            "offset": 0,
            "slot": "0",
            "type": "t_uint256"
          }
        ],
        "numberOfBytes": "32"
      },
      "t_struct(RoleData)2408_storage": {
        "encoding": "inplace",
        "label": "struct AccessControl.RoleData",
        "members": [
          {
            "astId": 2405,
            "contract": "contracts/token/sERC721.sol:sERC721",
            "label": "members",
            "offset": 0,
            "slot": "0",
            "type": "t_mapping(t_address,t_bool)"
          },
          {
            "astId": 2407,
            "contract": "contracts/token/sERC721.sol:sERC721",
            "label": "adminRole",
            "offset": 0,
            "slot": "1",
            "type": "t_bytes32"
          }
        ],
        "numberOfBytes": "64"
      },
      "t_struct(Set)5786_storage": {
        "encoding": "inplace",
        "label": "struct EnumerableSet.Set",
        "members": [
          {
            "astId": 5781,
            "contract": "contracts/token/sERC721.sol:sERC721",
            "label": "_values",
            "offset": 0,
            "slot": "0",
            "type": "t_array(t_bytes32)dyn_storage"
          },
          {
            "astId": 5785,
            "contract": "contracts/token/sERC721.sol:sERC721",
            "label": "_indexes",
            "offset": 0,
            "slot": "1",
            "type": "t_mapping(t_bytes32,t_uint256)"
          }
        ],
        "numberOfBytes": "64"
      },
      "t_uint256": {
        "encoding": "inplace",
        "label": "uint256",
        "numberOfBytes": "32"
      }
    }
  }
}